{
	"contracts/CMMDPolicy.sol": {
		"CMMDPolicy": {
			"abi": [
				{
					"anonymous": false,
					"inputs": [
						{
							"indexed": true,
							"internalType": "uint256",
							"name": "epoch",
							"type": "uint256"
						},
						{
							"indexed": false,
							"internalType": "uint256",
							"name": "exchangeRate",
							"type": "uint256"
						},
						{
							"indexed": false,
							"internalType": "uint256",
							"name": "cpi",
							"type": "uint256"
						},
						{
							"indexed": false,
							"internalType": "int256",
							"name": "requestedSupplyAdjustment",
							"type": "int256"
						},
						{
							"indexed": false,
							"internalType": "uint256",
							"name": "timestampSec",
							"type": "uint256"
						}
					],
					"name": "LogRebase",
					"type": "event"
				},
				{
					"anonymous": false,
					"inputs": [
						{
							"indexed": false,
							"internalType": "address",
							"name": "from",
							"type": "address"
						},
						{
							"indexed": false,
							"internalType": "address",
							"name": "receiver",
							"type": "address"
						},
						{
							"indexed": false,
							"internalType": "uint256",
							"name": "amount",
							"type": "uint256"
						},
						{
							"indexed": false,
							"internalType": "uint256",
							"name": "timestamp",
							"type": "uint256"
						}
					],
					"name": "Transfer",
					"type": "event"
				},
				{
					"inputs": [],
					"name": "baseCpi",
					"outputs": [
						{
							"internalType": "uint256",
							"name": "",
							"type": "uint256"
						}
					],
					"stateMutability": "view",
					"type": "function"
				},
				{
					"inputs": [],
					"name": "cmmd",
					"outputs": [
						{
							"internalType": "contract ICMMD",
							"name": "",
							"type": "address"
						}
					],
					"stateMutability": "view",
					"type": "function"
				},
				{
					"inputs": [
						{
							"internalType": "int256",
							"name": "normalizedRate",
							"type": "int256"
						},
						{
							"internalType": "int256",
							"name": "lower",
							"type": "int256"
						},
						{
							"internalType": "int256",
							"name": "upper",
							"type": "int256"
						},
						{
							"internalType": "int256",
							"name": "growth",
							"type": "int256"
						}
					],
					"name": "computeRebasePercentage",
					"outputs": [
						{
							"internalType": "int256",
							"name": "",
							"type": "int256"
						}
					],
					"stateMutability": "pure",
					"type": "function"
				},
				{
					"inputs": [],
					"name": "cpiOracle",
					"outputs": [
						{
							"internalType": "contract IOracle",
							"name": "",
							"type": "address"
						}
					],
					"stateMutability": "view",
					"type": "function"
				},
				{
					"inputs": [],
					"name": "deviationThreshold",
					"outputs": [
						{
							"internalType": "uint256",
							"name": "",
							"type": "uint256"
						}
					],
					"stateMutability": "view",
					"type": "function"
				},
				{
					"inputs": [],
					"name": "epoch",
					"outputs": [
						{
							"internalType": "uint256",
							"name": "",
							"type": "uint256"
						}
					],
					"stateMutability": "view",
					"type": "function"
				},
				{
					"inputs": [
						{
							"internalType": "address payable",
							"name": "receiver",
							"type": "address"
						},
						{
							"internalType": "uint256",
							"name": "amount",
							"type": "uint256"
						}
					],
					"name": "faucet",
					"outputs": [],
					"stateMutability": "nonpayable",
					"type": "function"
				},
				{
					"inputs": [
						{
							"internalType": "contract ICMMD",
							"name": "cmmd_",
							"type": "address"
						},
						{
							"internalType": "uint256",
							"name": "baseCpi_",
							"type": "uint256"
						}
					],
					"name": "initialize",
					"outputs": [],
					"stateMutability": "nonpayable",
					"type": "function"
				},
				{
					"inputs": [],
					"name": "marketOracle",
					"outputs": [
						{
							"internalType": "contract IOracle",
							"name": "",
							"type": "address"
						}
					],
					"stateMutability": "view",
					"type": "function"
				},
				{
					"inputs": [],
					"name": "rebase",
					"outputs": [],
					"stateMutability": "nonpayable",
					"type": "function"
				},
				{
					"inputs": [],
					"name": "rebaseFunctionGrowth",
					"outputs": [
						{
							"internalType": "int256",
							"name": "",
							"type": "int256"
						}
					],
					"stateMutability": "view",
					"type": "function"
				},
				{
					"inputs": [],
					"name": "rebaseFunctionLowerPercentage",
					"outputs": [
						{
							"internalType": "int256",
							"name": "",
							"type": "int256"
						}
					],
					"stateMutability": "view",
					"type": "function"
				},
				{
					"inputs": [],
					"name": "rebaseFunctionUpperPercentage",
					"outputs": [
						{
							"internalType": "int256",
							"name": "",
							"type": "int256"
						}
					],
					"stateMutability": "view",
					"type": "function"
				},
				{
					"inputs": [
						{
							"internalType": "uint256",
							"name": "baseCpi_",
							"type": "uint256"
						}
					],
					"name": "setBaseCpi",
					"outputs": [],
					"stateMutability": "nonpayable",
					"type": "function"
				},
				{
					"inputs": [
						{
							"internalType": "contract IOracle",
							"name": "cpiOracle_",
							"type": "address"
						}
					],
					"name": "setCpiOracle",
					"outputs": [],
					"stateMutability": "nonpayable",
					"type": "function"
				},
				{
					"inputs": [
						{
							"internalType": "uint256",
							"name": "deviationThreshold_",
							"type": "uint256"
						}
					],
					"name": "setDeviationThreshold",
					"outputs": [],
					"stateMutability": "nonpayable",
					"type": "function"
				},
				{
					"inputs": [
						{
							"internalType": "contract IOracle",
							"name": "marketOracle_",
							"type": "address"
						}
					],
					"name": "setMarketOracle",
					"outputs": [],
					"stateMutability": "nonpayable",
					"type": "function"
				},
				{
					"inputs": [
						{
							"internalType": "int256",
							"name": "rebaseFunctionGrowth_",
							"type": "int256"
						}
					],
					"name": "setRebaseFunctionGrowth",
					"outputs": [],
					"stateMutability": "nonpayable",
					"type": "function"
				},
				{
					"inputs": [
						{
							"internalType": "int256",
							"name": "rebaseFunctionLowerPercentage_",
							"type": "int256"
						}
					],
					"name": "setRebaseFunctionLowerPercentage",
					"outputs": [],
					"stateMutability": "nonpayable",
					"type": "function"
				},
				{
					"inputs": [
						{
							"internalType": "int256",
							"name": "rebaseFunctionUpperPercentage_",
							"type": "int256"
						}
					],
					"name": "setRebaseFunctionUpperPercentage",
					"outputs": [],
					"stateMutability": "nonpayable",
					"type": "function"
				}
			],
			"devdoc": {
				"details": "This is an implementation of the CMMD Ideal Money protocol.      This component regulates the token supply of the CMMD ERC20 token in response to      market oracles.",
				"kind": "dev",
				"methods": {
					"computeRebasePercentage(int256,int256,int256,int256)": {
						"params": {
							"normalizedRate": "value of rate/targetRate in DECIMALS decimal fixed point number"
						},
						"returns": {
							"_0": "The percentage of supply to be added or removed."
						}
					},
					"initialize(address,uint256)": {
						"details": "ZOS upgradable contract initialization method.      It is called at the time of contract creation to invoke parent class initializers and      initialize the contract's state variables."
					},
					"rebase()": {
						"details": "Changes supply with percentage of:  (Upper-Lower)/(1-(Upper/Lower)/2^(Growth*NormalizedPriceDelta))) + Lower"
					},
					"setBaseCpi(uint256)": {
						"params": {
							"baseCpi_": "The new exchange rate threshold fraction."
						}
					},
					"setCpiOracle(address)": {
						"params": {
							"cpiOracle_": "The address of the cpi oracle contract."
						}
					},
					"setDeviationThreshold(uint256)": {
						"params": {
							"deviationThreshold_": "The new exchange rate threshold fraction."
						}
					},
					"setMarketOracle(address)": {
						"params": {
							"marketOracle_": "The address of the market oracle contract."
						}
					}
				},
				"title": "CMMD Monetary Supply Policy",
				"version": 1
			},
			"evm": {
				"assembly": "    /* \"contracts/CMMDPolicy.sol\":643:9860  contract CMMDPolicy {... */\n  mstore(0x40, 0x80)\n  callvalue\n  dup1\n  iszero\n  tag_1\n  jumpi\n  0x00\n  dup1\n  revert\ntag_1:\n  pop\n  dataSize(sub_0)\n  dup1\n  dataOffset(sub_0)\n  0x00\n  codecopy\n  0x00\n  return\nstop\n\nsub_0: assembly {\n        /* \"contracts/CMMDPolicy.sol\":643:9860  contract CMMDPolicy {... */\n      mstore(0x40, 0x80)\n      callvalue\n      dup1\n      iszero\n      tag_1\n      jumpi\n      0x00\n      dup1\n      revert\n    tag_1:\n      pop\n      jumpi(tag_2, lt(calldatasize, 0x04))\n      shr(0xe0, calldataload(0x00))\n      dup1\n      0x900cf0cf\n      gt\n      tag_23\n      jumpi\n      dup1\n      0xaf14052c\n      gt\n      tag_24\n      jumpi\n      dup1\n      0xaf14052c\n      eq\n      tag_18\n      jumpi\n      dup1\n      0xcd6dc687\n      eq\n      tag_19\n      jumpi\n      dup1\n      0xd94ad837\n      eq\n      tag_20\n      jumpi\n      dup1\n      0xe9fa88a4\n      eq\n      tag_21\n      jumpi\n      dup1\n      0xf4fefa49\n      eq\n      tag_22\n      jumpi\n      jump(tag_2)\n    tag_24:\n      dup1\n      0x900cf0cf\n      eq\n      tag_13\n      jumpi\n      dup1\n      0x9db59b2f\n      eq\n      tag_14\n      jumpi\n      dup1\n      0x9e30bac5\n      eq\n      tag_15\n      jumpi\n      dup1\n      0xa37069ee\n      eq\n      tag_16\n      jumpi\n      dup1\n      0xab33c5ca\n      eq\n      tag_17\n      jumpi\n      jump(tag_2)\n    tag_23:\n      dup1\n      0x60961528\n      gt\n      tag_25\n      jumpi\n      dup1\n      0x60961528\n      eq\n      tag_8\n      jumpi\n      dup1\n      0x6de729db\n      eq\n      tag_9\n      jumpi\n      dup1\n      0x7486cdea\n      eq\n      tag_10\n      jumpi\n      dup1\n      0x7b56c2b2\n      eq\n      tag_11\n      jumpi\n      dup1\n      0x8001066d\n      eq\n      tag_12\n      jumpi\n      jump(tag_2)\n    tag_25:\n      dup1\n      0x3a785af1\n      eq\n      tag_3\n      jumpi\n      dup1\n      0x3d6a46e5\n      eq\n      tag_4\n      jumpi\n      dup1\n      0x4dafa35e\n      eq\n      tag_5\n      jumpi\n      dup1\n      0x53a15edc\n      eq\n      tag_6\n      jumpi\n      dup1\n      0x5ee01540\n      eq\n      tag_7\n      jumpi\n    tag_2:\n      0x00\n      dup1\n      revert\n        /* \"contracts/CMMDPolicy.sol\":6696:8007  function computeRebasePercentage(... */\n    tag_3:\n      tag_26\n      0x04\n      dup1\n      calldatasize\n      sub\n      dup2\n      add\n      swap1\n      tag_27\n      swap2\n      swap1\n      tag_28\n      jump\t// in\n    tag_27:\n      tag_29\n      jump\t// in\n    tag_26:\n      mload(0x40)\n      tag_30\n      swap2\n      swap1\n      tag_31\n      jump\t// in\n    tag_30:\n      mload(0x40)\n      dup1\n      swap2\n      sub\n      swap1\n      return\n        /* \"contracts/CMMDPolicy.sol\":3924:4012  function setCpiOracle(IOracle cpiOracle_) public {... */\n    tag_4:\n      tag_32\n      0x04\n      dup1\n      calldatasize\n      sub\n      dup2\n      add\n      swap1\n      tag_33\n      swap2\n      swap1\n      tag_34\n      jump\t// in\n    tag_33:\n      tag_35\n      jump\t// in\n    tag_32:\n      stop\n        /* \"contracts/CMMDPolicy.sol\":1135:1152  ICMMD public cmmd */\n    tag_5:\n      tag_36\n      tag_37\n      jump\t// in\n    tag_36:\n      mload(0x40)\n      tag_38\n      swap2\n      swap1\n      tag_39\n      jump\t// in\n    tag_38:\n      mload(0x40)\n      dup1\n      swap2\n      sub\n      swap1\n      return\n        /* \"contracts/CMMDPolicy.sol\":5277:5401  function setDeviationThreshold(uint256 deviationThreshold_) public {... */\n    tag_6:\n      tag_40\n      0x04\n      dup1\n      calldatasize\n      sub\n      dup2\n      add\n      swap1\n      tag_41\n      swap2\n      swap1\n      tag_42\n      jump\t// in\n    tag_41:\n      tag_43\n      jump\t// in\n    tag_40:\n      stop\n        /* \"contracts/CMMDPolicy.sol\":2409:2452  int256 public rebaseFunctionLowerPercentage */\n    tag_7:\n      tag_44\n      tag_45\n      jump\t// in\n    tag_44:\n      mload(0x40)\n      tag_46\n      swap2\n      swap1\n      tag_31\n      jump\t// in\n    tag_46:\n      mload(0x40)\n      dup1\n      swap2\n      sub\n      swap1\n      return\n        /* \"contracts/CMMDPolicy.sol\":1337:1364  IOracle public marketOracle */\n    tag_8:\n      tag_47\n      tag_48\n      jump\t// in\n    tag_47:\n      mload(0x40)\n      tag_49\n      swap2\n      swap1\n      tag_50\n      jump\t// in\n    tag_49:\n      mload(0x40)\n      dup1\n      swap2\n      sub\n      swap1\n      return\n        /* \"contracts/CMMDPolicy.sol\":5555:5635  function setBaseCpi(uint256 baseCpi_) public {... */\n    tag_9:\n      tag_51\n      0x04\n      dup1\n      calldatasize\n      sub\n      dup2\n      add\n      swap1\n      tag_52\n      swap2\n      swap1\n      tag_42\n      jump\t// in\n    tag_52:\n      tag_53\n      jump\t// in\n    tag_51:\n      stop\n        /* \"contracts/CMMDPolicy.sol\":2507:2541  int256 public rebaseFunctionGrowth */\n    tag_10:\n      tag_54\n      tag_55\n      jump\t// in\n    tag_54:\n      mload(0x40)\n      tag_56\n      swap2\n      swap1\n      tag_31\n      jump\t// in\n    tag_56:\n      mload(0x40)\n      dup1\n      swap2\n      sub\n      swap1\n      return\n        /* \"contracts/CMMDPolicy.sol\":9603:9858  function faucet(address payable receiver, uint amount) public {... */\n    tag_11:\n      tag_57\n      0x04\n      dup1\n      calldatasize\n      sub\n      dup2\n      add\n      swap1\n      tag_58\n      swap2\n      swap1\n      tag_59\n      jump\t// in\n    tag_58:\n      tag_60\n      jump\t// in\n    tag_57:\n      stop\n        /* \"contracts/CMMDPolicy.sol\":4269:4445  function setRebaseFunctionGrowth(int256 rebaseFunctionGrowth_) public {... */\n    tag_12:\n      tag_61\n      0x04\n      dup1\n      calldatasize\n      sub\n      dup2\n      add\n      swap1\n      tag_62\n      swap2\n      swap1\n      tag_63\n      jump\t// in\n    tag_62:\n      tag_64\n      jump\t// in\n    tag_61:\n      stop\n        /* \"contracts/CMMDPolicy.sol\":1868:1888  uint256 public epoch */\n    tag_13:\n      tag_65\n      tag_66\n      jump\t// in\n    tag_65:\n      mload(0x40)\n      tag_67\n      swap2\n      swap1\n      tag_68\n      jump\t// in\n    tag_67:\n      mload(0x40)\n      dup1\n      swap2\n      sub\n      swap1\n      return\n        /* \"contracts/CMMDPolicy.sol\":2458:2501  int256 public rebaseFunctionUpperPercentage */\n    tag_14:\n      tag_69\n      tag_70\n      jump\t// in\n    tag_69:\n      mload(0x40)\n      tag_71\n      swap2\n      swap1\n      tag_31\n      jump\t// in\n    tag_71:\n      mload(0x40)\n      dup1\n      swap2\n      sub\n      swap1\n      return\n        /* \"contracts/CMMDPolicy.sol\":4162:4262  function setMarketOracle(IOracle marketOracle_) public {... */\n    tag_15:\n      tag_72\n      0x04\n      dup1\n      calldatasize\n      sub\n      dup2\n      add\n      swap1\n      tag_73\n      swap2\n      swap1\n      tag_34\n      jump\t// in\n    tag_73:\n      tag_74\n      jump\t// in\n    tag_72:\n      stop\n        /* \"contracts/CMMDPolicy.sol\":1448:1470  uint256 public baseCpi */\n    tag_16:\n      tag_75\n      tag_76\n      jump\t// in\n    tag_75:\n      mload(0x40)\n      tag_77\n      swap2\n      swap1\n      tag_68\n      jump\t// in\n    tag_77:\n      mload(0x40)\n      dup1\n      swap2\n      sub\n      swap1\n      return\n        /* \"contracts/CMMDPolicy.sol\":1229:1253  IOracle public cpiOracle */\n    tag_17:\n      tag_78\n      tag_79\n      jump\t// in\n    tag_78:\n      mload(0x40)\n      tag_80\n      swap2\n      swap1\n      tag_50\n      jump\t// in\n    tag_80:\n      mload(0x40)\n      dup1\n      swap2\n      sub\n      swap1\n      return\n        /* \"contracts/CMMDPolicy.sol\":2844:3784  function rebase() public {... */\n    tag_18:\n      tag_81\n      tag_82\n      jump\t// in\n    tag_81:\n      stop\n        /* \"contracts/CMMDPolicy.sol\":5869:6362  function initialize(... */\n    tag_19:\n      tag_83\n      0x04\n      dup1\n      calldatasize\n      sub\n      dup2\n      add\n      swap1\n      tag_84\n      swap2\n      swap1\n      tag_85\n      jump\t// in\n    tag_84:\n      tag_86\n      jump\t// in\n    tag_83:\n      stop\n        /* \"contracts/CMMDPolicy.sol\":1777:1810  uint256 public deviationThreshold */\n    tag_20:\n      tag_87\n      tag_88\n      jump\t// in\n    tag_87:\n      mload(0x40)\n      tag_89\n      swap2\n      swap1\n      tag_68\n      jump\t// in\n    tag_89:\n      mload(0x40)\n      dup1\n      swap2\n      sub\n      swap1\n      return\n        /* \"contracts/CMMDPolicy.sol\":4451:4684  function setRebaseFunctionLowerPercentage(int256 rebaseFunctionLowerPercentage_)... */\n    tag_21:\n      tag_90\n      0x04\n      dup1\n      calldatasize\n      sub\n      dup2\n      add\n      swap1\n      tag_91\n      swap2\n      swap1\n      tag_63\n      jump\t// in\n    tag_91:\n      tag_92\n      jump\t// in\n    tag_90:\n      stop\n        /* \"contracts/CMMDPolicy.sol\":4690:4923  function setRebaseFunctionUpperPercentage(int256 rebaseFunctionUpperPercentage_)... */\n    tag_22:\n      tag_93\n      0x04\n      dup1\n      calldatasize\n      sub\n      dup2\n      add\n      swap1\n      tag_94\n      swap2\n      swap1\n      tag_63\n      jump\t// in\n    tag_94:\n      tag_95\n      jump\t// in\n    tag_93:\n      stop\n        /* \"contracts/CMMDPolicy.sol\":6696:8007  function computeRebasePercentage(... */\n    tag_29:\n        /* \"contracts/CMMDPolicy.sol\":6854:6860  int256 */\n      0x00\n        /* \"contracts/CMMDPolicy.sol\":6872:6884  int256 delta */\n      dup1\n        /* \"contracts/CMMDPolicy.sol\":6903:6938  SafeMathInt.sub(normalizedRate,ONE) */\n      tag_97\n        /* \"contracts/CMMDPolicy.sol\":6919:6933  normalizedRate */\n      dup7\n        /* \"contracts/CMMDPolicy.sol\":1931:1933  18 */\n      0x12\n        /* \"contracts/CMMDPolicy.sol\":2585:2587  10 */\n      0x0a\n        /* \"contracts/CMMDPolicy.sol\":2585:2597  10**DECIMALS */\n      tag_98\n      swap2\n      swap1\n      tag_99\n      jump\t// in\n    tag_98:\n        /* \"contracts/CMMDPolicy.sol\":6903:6918  SafeMathInt.sub */\n      tag_100\n        /* \"contracts/CMMDPolicy.sol\":6903:6938  SafeMathInt.sub(normalizedRate,ONE) */\n      jump\t// in\n    tag_97:\n        /* \"contracts/CMMDPolicy.sol\":6895:6938  delta = SafeMathInt.sub(normalizedRate,ONE) */\n      swap1\n      pop\n        /* \"contracts/CMMDPolicy.sol\":7028:7043  int256 exponent */\n      0x00\n        /* \"contracts/CMMDPolicy.sol\":7046:7096  SafeMathInt.div(SafeMathInt.mul(growth,delta),ONE) */\n      tag_101\n        /* \"contracts/CMMDPolicy.sol\":7062:7091  SafeMathInt.mul(growth,delta) */\n      tag_102\n        /* \"contracts/CMMDPolicy.sol\":7078:7084  growth */\n      dup6\n        /* \"contracts/CMMDPolicy.sol\":7085:7090  delta */\n      dup5\n        /* \"contracts/CMMDPolicy.sol\":7062:7077  SafeMathInt.mul */\n      tag_103\n        /* \"contracts/CMMDPolicy.sol\":7062:7091  SafeMathInt.mul(growth,delta) */\n      jump\t// in\n    tag_102:\n        /* \"contracts/CMMDPolicy.sol\":1931:1933  18 */\n      0x12\n        /* \"contracts/CMMDPolicy.sol\":2585:2587  10 */\n      0x0a\n        /* \"contracts/CMMDPolicy.sol\":2585:2597  10**DECIMALS */\n      tag_104\n      swap2\n      swap1\n      tag_99\n      jump\t// in\n    tag_104:\n        /* \"contracts/CMMDPolicy.sol\":7046:7061  SafeMathInt.div */\n      tag_105\n        /* \"contracts/CMMDPolicy.sol\":7046:7096  SafeMathInt.div(SafeMathInt.mul(growth,delta),ONE) */\n      jump\t// in\n    tag_101:\n        /* \"contracts/CMMDPolicy.sol\":7028:7096  int256 exponent = SafeMathInt.div(SafeMathInt.mul(growth,delta),ONE) */\n      swap1\n      pop\n        /* \"contracts/CMMDPolicy.sol\":7189:7213  SafeMathInt.mul(ONE,100) */\n      tag_106\n        /* \"contracts/CMMDPolicy.sol\":1931:1933  18 */\n      0x12\n        /* \"contracts/CMMDPolicy.sol\":2585:2587  10 */\n      0x0a\n        /* \"contracts/CMMDPolicy.sol\":2585:2597  10**DECIMALS */\n      tag_107\n      swap2\n      swap1\n      tag_99\n      jump\t// in\n    tag_107:\n        /* \"contracts/CMMDPolicy.sol\":7209:7212  100 */\n      0x64\n        /* \"contracts/CMMDPolicy.sol\":7189:7204  SafeMathInt.mul */\n      tag_103\n        /* \"contracts/CMMDPolicy.sol\":7189:7213  SafeMathInt.mul(ONE,100) */\n      jump\t// in\n    tag_106:\n        /* \"contracts/CMMDPolicy.sol\":7178:7186  exponent */\n      dup2\n        /* \"contracts/CMMDPolicy.sol\":7178:7213  exponent > SafeMathInt.mul(ONE,100) */\n      sgt\n        /* \"contracts/CMMDPolicy.sol\":7174:7275  if (exponent > SafeMathInt.mul(ONE,100)) {... */\n      iszero\n      tag_108\n      jumpi\n        /* \"contracts/CMMDPolicy.sol\":7240:7264  SafeMathInt.mul(ONE,100) */\n      tag_109\n        /* \"contracts/CMMDPolicy.sol\":1931:1933  18 */\n      0x12\n        /* \"contracts/CMMDPolicy.sol\":2585:2587  10 */\n      0x0a\n        /* \"contracts/CMMDPolicy.sol\":2585:2597  10**DECIMALS */\n      tag_110\n      swap2\n      swap1\n      tag_99\n      jump\t// in\n    tag_110:\n        /* \"contracts/CMMDPolicy.sol\":7260:7263  100 */\n      0x64\n        /* \"contracts/CMMDPolicy.sol\":7240:7255  SafeMathInt.mul */\n      tag_103\n        /* \"contracts/CMMDPolicy.sol\":7240:7264  SafeMathInt.mul(ONE,100) */\n      jump\t// in\n    tag_109:\n        /* \"contracts/CMMDPolicy.sol\":7229:7264  exponent = SafeMathInt.mul(ONE,100) */\n      swap1\n      pop\n        /* \"contracts/CMMDPolicy.sol\":7174:7275  if (exponent > SafeMathInt.mul(ONE,100)) {... */\n    tag_108:\n        /* \"contracts/CMMDPolicy.sol\":7299:7324  SafeMathInt.mul(ONE,-100) */\n      tag_111\n        /* \"contracts/CMMDPolicy.sol\":1931:1933  18 */\n      0x12\n        /* \"contracts/CMMDPolicy.sol\":2585:2587  10 */\n      0x0a\n        /* \"contracts/CMMDPolicy.sol\":2585:2597  10**DECIMALS */\n      tag_112\n      swap2\n      swap1\n      tag_99\n      jump\t// in\n    tag_112:\n        /* \"contracts/CMMDPolicy.sol\":7319:7323  -100 */\n      0xffffffffffffffffffffffffffffffffffffffffffffffffffffffffffffff9c\n        /* \"contracts/CMMDPolicy.sol\":7299:7314  SafeMathInt.mul */\n      tag_103\n        /* \"contracts/CMMDPolicy.sol\":7299:7324  SafeMathInt.mul(ONE,-100) */\n      jump\t// in\n    tag_111:\n        /* \"contracts/CMMDPolicy.sol\":7288:7296  exponent */\n      dup2\n        /* \"contracts/CMMDPolicy.sol\":7288:7324  exponent < SafeMathInt.mul(ONE,-100) */\n      slt\n        /* \"contracts/CMMDPolicy.sol\":7284:7387  if (exponent < SafeMathInt.mul(ONE,-100)) {... */\n      iszero\n      tag_113\n      jumpi\n        /* \"contracts/CMMDPolicy.sol\":7351:7376  SafeMathInt.mul(ONE,-100) */\n      tag_114\n        /* \"contracts/CMMDPolicy.sol\":1931:1933  18 */\n      0x12\n        /* \"contracts/CMMDPolicy.sol\":2585:2587  10 */\n      0x0a\n        /* \"contracts/CMMDPolicy.sol\":2585:2597  10**DECIMALS */\n      tag_115\n      swap2\n      swap1\n      tag_99\n      jump\t// in\n    tag_115:\n        /* \"contracts/CMMDPolicy.sol\":7371:7375  -100 */\n      0xffffffffffffffffffffffffffffffffffffffffffffffffffffffffffffff9c\n        /* \"contracts/CMMDPolicy.sol\":7351:7366  SafeMathInt.mul */\n      tag_103\n        /* \"contracts/CMMDPolicy.sol\":7351:7376  SafeMathInt.mul(ONE,-100) */\n      jump\t// in\n    tag_114:\n        /* \"contracts/CMMDPolicy.sol\":7340:7376  exponent = SafeMathInt.mul(ONE,-100) */\n      swap1\n      pop\n        /* \"contracts/CMMDPolicy.sol\":7284:7387  if (exponent < SafeMathInt.mul(ONE,-100)) {... */\n    tag_113:\n        /* \"contracts/CMMDPolicy.sol\":7397:7407  int256 pow */\n      0x00\n        /* \"contracts/CMMDPolicy.sol\":7410:7445  SafeMathInt.twoPower(exponent, ONE) */\n      tag_116\n        /* \"contracts/CMMDPolicy.sol\":7431:7439  exponent */\n      dup3\n        /* \"contracts/CMMDPolicy.sol\":1931:1933  18 */\n      0x12\n        /* \"contracts/CMMDPolicy.sol\":2585:2587  10 */\n      0x0a\n        /* \"contracts/CMMDPolicy.sol\":2585:2597  10**DECIMALS */\n      tag_117\n      swap2\n      swap1\n      tag_99\n      jump\t// in\n    tag_117:\n        /* \"contracts/CMMDPolicy.sol\":7410:7430  SafeMathInt.twoPower */\n      tag_118\n        /* \"contracts/CMMDPolicy.sol\":7410:7445  SafeMathInt.twoPower(exponent, ONE) */\n      jump\t// in\n    tag_116:\n        /* \"contracts/CMMDPolicy.sol\":7397:7445  int256 pow = SafeMathInt.twoPower(exponent, ONE) */\n      swap1\n      pop\n        /* \"contracts/CMMDPolicy.sol\":7486:7487  0 */\n      0x00\n        /* \"contracts/CMMDPolicy.sol\":7479:7482  pow */\n      dup2\n        /* \"contracts/CMMDPolicy.sol\":7479:7487  pow == 0 */\n      eq\n        /* \"contracts/CMMDPolicy.sol\":7475:7526  if (pow == 0) {... */\n      iszero\n      tag_119\n      jumpi\n        /* \"contracts/CMMDPolicy.sol\":7510:7515  lower */\n      dup7\n        /* \"contracts/CMMDPolicy.sol\":7503:7515  return lower */\n      swap4\n      pop\n      pop\n      pop\n      pop\n      jump(tag_96)\n        /* \"contracts/CMMDPolicy.sol\":7475:7526  if (pow == 0) {... */\n    tag_119:\n        /* \"contracts/CMMDPolicy.sol\":7535:7551  int256 numerator */\n      0x00\n        /* \"contracts/CMMDPolicy.sol\":7554:7582  SafeMathInt.sub(upper,lower) */\n      tag_120\n        /* \"contracts/CMMDPolicy.sol\":7570:7575  upper */\n      dup8\n        /* \"contracts/CMMDPolicy.sol\":7576:7581  lower */\n      dup10\n        /* \"contracts/CMMDPolicy.sol\":7554:7569  SafeMathInt.sub */\n      tag_100\n        /* \"contracts/CMMDPolicy.sol\":7554:7582  SafeMathInt.sub(upper,lower) */\n      jump\t// in\n    tag_120:\n        /* \"contracts/CMMDPolicy.sol\":7535:7582  int256 numerator = SafeMathInt.sub(upper,lower) */\n      swap1\n      pop\n        /* \"contracts/CMMDPolicy.sol\":7608:7627  int256 intermediate */\n      0x00\n        /* \"contracts/CMMDPolicy.sol\":7630:7679  SafeMathInt.div(SafeMathInt.mul(upper,ONE),lower) */\n      tag_121\n        /* \"contracts/CMMDPolicy.sol\":7646:7672  SafeMathInt.mul(upper,ONE) */\n      tag_122\n        /* \"contracts/CMMDPolicy.sol\":7662:7667  upper */\n      dup10\n        /* \"contracts/CMMDPolicy.sol\":1931:1933  18 */\n      0x12\n        /* \"contracts/CMMDPolicy.sol\":2585:2587  10 */\n      0x0a\n        /* \"contracts/CMMDPolicy.sol\":2585:2597  10**DECIMALS */\n      tag_123\n      swap2\n      swap1\n      tag_99\n      jump\t// in\n    tag_123:\n        /* \"contracts/CMMDPolicy.sol\":7646:7661  SafeMathInt.mul */\n      tag_103\n        /* \"contracts/CMMDPolicy.sol\":7646:7672  SafeMathInt.mul(upper,ONE) */\n      jump\t// in\n    tag_122:\n        /* \"contracts/CMMDPolicy.sol\":7673:7678  lower */\n      dup11\n        /* \"contracts/CMMDPolicy.sol\":7630:7645  SafeMathInt.div */\n      tag_105\n        /* \"contracts/CMMDPolicy.sol\":7630:7679  SafeMathInt.div(SafeMathInt.mul(upper,ONE),lower) */\n      jump\t// in\n    tag_121:\n        /* \"contracts/CMMDPolicy.sol\":7608:7679  int256 intermediate = SafeMathInt.div(SafeMathInt.mul(upper,ONE),lower) */\n      swap1\n      pop\n        /* \"contracts/CMMDPolicy.sol\":7704:7758  SafeMathInt.div(SafeMathInt.mul(intermediate,ONE),pow) */\n      tag_124\n        /* \"contracts/CMMDPolicy.sol\":7720:7753  SafeMathInt.mul(intermediate,ONE) */\n      tag_125\n        /* \"contracts/CMMDPolicy.sol\":7736:7748  intermediate */\n      dup3\n        /* \"contracts/CMMDPolicy.sol\":1931:1933  18 */\n      0x12\n        /* \"contracts/CMMDPolicy.sol\":2585:2587  10 */\n      0x0a\n        /* \"contracts/CMMDPolicy.sol\":2585:2597  10**DECIMALS */\n      tag_126\n      swap2\n      swap1\n      tag_99\n      jump\t// in\n    tag_126:\n        /* \"contracts/CMMDPolicy.sol\":7720:7735  SafeMathInt.mul */\n      tag_103\n        /* \"contracts/CMMDPolicy.sol\":7720:7753  SafeMathInt.mul(intermediate,ONE) */\n      jump\t// in\n    tag_125:\n        /* \"contracts/CMMDPolicy.sol\":7754:7757  pow */\n      dup5\n        /* \"contracts/CMMDPolicy.sol\":7704:7719  SafeMathInt.div */\n      tag_105\n        /* \"contracts/CMMDPolicy.sol\":7704:7758  SafeMathInt.div(SafeMathInt.mul(intermediate,ONE),pow) */\n      jump\t// in\n    tag_124:\n        /* \"contracts/CMMDPolicy.sol\":7689:7758  intermediate = SafeMathInt.div(SafeMathInt.mul(intermediate,ONE),pow) */\n      swap1\n      pop\n        /* \"contracts/CMMDPolicy.sol\":7768:7786  int256 denominator */\n      0x00\n        /* \"contracts/CMMDPolicy.sol\":7789:7822  SafeMathInt.sub(ONE,intermediate) */\n      tag_127\n        /* \"contracts/CMMDPolicy.sol\":1931:1933  18 */\n      0x12\n        /* \"contracts/CMMDPolicy.sol\":2585:2587  10 */\n      0x0a\n        /* \"contracts/CMMDPolicy.sol\":2585:2597  10**DECIMALS */\n      tag_128\n      swap2\n      swap1\n      tag_99\n      jump\t// in\n    tag_128:\n        /* \"contracts/CMMDPolicy.sol\":7809:7821  intermediate */\n      dup4\n        /* \"contracts/CMMDPolicy.sol\":7789:7804  SafeMathInt.sub */\n      tag_100\n        /* \"contracts/CMMDPolicy.sol\":7789:7822  SafeMathInt.sub(ONE,intermediate) */\n      jump\t// in\n    tag_127:\n        /* \"contracts/CMMDPolicy.sol\":7768:7822  int256 denominator = SafeMathInt.sub(ONE,intermediate) */\n      swap1\n      pop\n        /* \"contracts/CMMDPolicy.sol\":7872:7895  int256 rebasePercentage */\n      0x00\n        /* \"contracts/CMMDPolicy.sol\":7962:7967  lower */\n      dup11\n        /* \"contracts/CMMDPolicy.sol\":7899:7958  SafeMathInt.div(SafeMathInt.mul(numerator,ONE),denominator) */\n      tag_129\n        /* \"contracts/CMMDPolicy.sol\":7915:7945  SafeMathInt.mul(numerator,ONE) */\n      tag_130\n        /* \"contracts/CMMDPolicy.sol\":7931:7940  numerator */\n      dup7\n        /* \"contracts/CMMDPolicy.sol\":1931:1933  18 */\n      0x12\n        /* \"contracts/CMMDPolicy.sol\":2585:2587  10 */\n      0x0a\n        /* \"contracts/CMMDPolicy.sol\":2585:2597  10**DECIMALS */\n      tag_131\n      swap2\n      swap1\n      tag_99\n      jump\t// in\n    tag_131:\n        /* \"contracts/CMMDPolicy.sol\":7915:7930  SafeMathInt.mul */\n      tag_103\n        /* \"contracts/CMMDPolicy.sol\":7915:7945  SafeMathInt.mul(numerator,ONE) */\n      jump\t// in\n    tag_130:\n        /* \"contracts/CMMDPolicy.sol\":7946:7957  denominator */\n      dup5\n        /* \"contracts/CMMDPolicy.sol\":7899:7914  SafeMathInt.div */\n      tag_105\n        /* \"contracts/CMMDPolicy.sol\":7899:7958  SafeMathInt.div(SafeMathInt.mul(numerator,ONE),denominator) */\n      jump\t// in\n    tag_129:\n        /* \"contracts/CMMDPolicy.sol\":7898:7967  (SafeMathInt.div(SafeMathInt.mul(numerator,ONE),denominator)) + lower */\n      tag_132\n      swap2\n      swap1\n      tag_133\n      jump\t// in\n    tag_132:\n        /* \"contracts/CMMDPolicy.sol\":7872:7967  int256 rebasePercentage = (SafeMathInt.div(SafeMathInt.mul(numerator,ONE),denominator)) + lower */\n      swap1\n      pop\n        /* \"contracts/CMMDPolicy.sol\":7984:8000  rebasePercentage */\n      dup1\n        /* \"contracts/CMMDPolicy.sol\":7977:8000  return rebasePercentage */\n      swap8\n      pop\n      pop\n      pop\n      pop\n      pop\n      pop\n      pop\n      pop\n        /* \"contracts/CMMDPolicy.sol\":6696:8007  function computeRebasePercentage(... */\n    tag_96:\n      swap5\n      swap4\n      pop\n      pop\n      pop\n      pop\n      jump\t// out\n        /* \"contracts/CMMDPolicy.sol\":3924:4012  function setCpiOracle(IOracle cpiOracle_) public {... */\n    tag_35:\n        /* \"contracts/CMMDPolicy.sol\":3995:4005  cpiOracle_ */\n      dup1\n        /* \"contracts/CMMDPolicy.sol\":3983:3992  cpiOracle */\n      0x03\n      0x00\n        /* \"contracts/CMMDPolicy.sol\":3983:4005  cpiOracle = cpiOracle_ */\n      0x0100\n      exp\n      dup2\n      sload\n      dup2\n      0xffffffffffffffffffffffffffffffffffffffff\n      mul\n      not\n      and\n      swap1\n      dup4\n      0xffffffffffffffffffffffffffffffffffffffff\n      and\n      mul\n      or\n      swap1\n      sstore\n      pop\n        /* \"contracts/CMMDPolicy.sol\":3924:4012  function setCpiOracle(IOracle cpiOracle_) public {... */\n      pop\n      jump\t// out\n        /* \"contracts/CMMDPolicy.sol\":1135:1152  ICMMD public cmmd */\n    tag_37:\n      0x02\n      0x00\n      swap1\n      sload\n      swap1\n      0x0100\n      exp\n      swap1\n      div\n      0xffffffffffffffffffffffffffffffffffffffff\n      and\n      dup2\n      jump\t// out\n        /* \"contracts/CMMDPolicy.sol\":5277:5401  function setDeviationThreshold(uint256 deviationThreshold_) public {... */\n    tag_43:\n        /* \"contracts/CMMDPolicy.sol\":5375:5394  deviationThreshold_ */\n      dup1\n        /* \"contracts/CMMDPolicy.sol\":5354:5372  deviationThreshold */\n      0x06\n        /* \"contracts/CMMDPolicy.sol\":5354:5394  deviationThreshold = deviationThreshold_ */\n      dup2\n      swap1\n      sstore\n      pop\n        /* \"contracts/CMMDPolicy.sol\":5277:5401  function setDeviationThreshold(uint256 deviationThreshold_) public {... */\n      pop\n      jump\t// out\n        /* \"contracts/CMMDPolicy.sol\":2409:2452  int256 public rebaseFunctionLowerPercentage */\n    tag_45:\n      sload(0x08)\n      dup2\n      jump\t// out\n        /* \"contracts/CMMDPolicy.sol\":1337:1364  IOracle public marketOracle */\n    tag_48:\n      0x04\n      0x00\n      swap1\n      sload\n      swap1\n      0x0100\n      exp\n      swap1\n      div\n      0xffffffffffffffffffffffffffffffffffffffff\n      and\n      dup2\n      jump\t// out\n        /* \"contracts/CMMDPolicy.sol\":5555:5635  function setBaseCpi(uint256 baseCpi_) public {... */\n    tag_53:\n        /* \"contracts/CMMDPolicy.sol\":5620:5628  baseCpi_ */\n      dup1\n        /* \"contracts/CMMDPolicy.sol\":5610:5617  baseCpi */\n      0x05\n        /* \"contracts/CMMDPolicy.sol\":5610:5628  baseCpi = baseCpi_ */\n      dup2\n      swap1\n      sstore\n      pop\n        /* \"contracts/CMMDPolicy.sol\":5555:5635  function setBaseCpi(uint256 baseCpi_) public {... */\n      pop\n      jump\t// out\n        /* \"contracts/CMMDPolicy.sol\":2507:2541  int256 public rebaseFunctionGrowth */\n    tag_55:\n      sload(0x0a)\n      dup2\n      jump\t// out\n        /* \"contracts/CMMDPolicy.sol\":9603:9858  function faucet(address payable receiver, uint amount) public {... */\n    tag_60:\n        /* \"contracts/CMMDPolicy.sol\":9690:9691  1 */\n      0x01\n        /* \"contracts/CMMDPolicy.sol\":9675:9686  faucetCount */\n      0x00\n      dup1\n        /* \"contracts/CMMDPolicy.sol\":9675:9691  faucetCount += 1 */\n      dup3\n      dup3\n      sload\n      tag_138\n      swap2\n      swap1\n      tag_139\n      jump\t// in\n    tag_138:\n      swap3\n      pop\n      pop\n      dup2\n      swap1\n      sstore\n      pop\n        /* \"contracts/CMMDPolicy.sol\":9701:9713  transactions */\n      0x01\n        /* \"contracts/CMMDPolicy.sol\":9719:9780  TransferStruct(msg.sender, receiver, amount, block.timestamp) */\n      mload(0x40)\n      dup1\n      0x80\n      add\n      0x40\n      mstore\n      dup1\n        /* \"contracts/CMMDPolicy.sol\":9734:9744  msg.sender */\n      caller\n        /* \"contracts/CMMDPolicy.sol\":9719:9780  TransferStruct(msg.sender, receiver, amount, block.timestamp) */\n      0xffffffffffffffffffffffffffffffffffffffff\n      and\n      dup2\n      mstore\n      0x20\n      add\n        /* \"contracts/CMMDPolicy.sol\":9746:9754  receiver */\n      dup5\n        /* \"contracts/CMMDPolicy.sol\":9719:9780  TransferStruct(msg.sender, receiver, amount, block.timestamp) */\n      0xffffffffffffffffffffffffffffffffffffffff\n      and\n      dup2\n      mstore\n      0x20\n      add\n        /* \"contracts/CMMDPolicy.sol\":9756:9762  amount */\n      dup4\n        /* \"contracts/CMMDPolicy.sol\":9719:9780  TransferStruct(msg.sender, receiver, amount, block.timestamp) */\n      dup2\n      mstore\n      0x20\n      add\n        /* \"contracts/CMMDPolicy.sol\":9764:9779  block.timestamp */\n      timestamp\n        /* \"contracts/CMMDPolicy.sol\":9719:9780  TransferStruct(msg.sender, receiver, amount, block.timestamp) */\n      dup2\n      mstore\n      pop\n        /* \"contracts/CMMDPolicy.sol\":9701:9781  transactions.push(TransferStruct(msg.sender, receiver, amount, block.timestamp)) */\n      swap1\n      dup1\n      0x01\n      dup2\n      sload\n      add\n      dup1\n      dup3\n      sstore\n      dup1\n      swap2\n      pop\n      pop\n      0x01\n      swap1\n      sub\n      swap1\n      0x00\n      mstore\n      keccak256(0x00, 0x20)\n      swap1\n      0x04\n      mul\n      add\n      0x00\n      swap1\n      swap2\n      swap1\n      swap2\n      swap1\n      swap2\n      pop\n      0x00\n      dup3\n      add\n      mload\n      dup2\n      0x00\n      add\n      exp(0x0100, 0x00)\n      dup2\n      sload\n      dup2\n      0xffffffffffffffffffffffffffffffffffffffff\n      mul\n      not\n      and\n      swap1\n      dup4\n      0xffffffffffffffffffffffffffffffffffffffff\n      and\n      mul\n      or\n      swap1\n      sstore\n      pop\n      0x20\n      dup3\n      add\n      mload\n      dup2\n      0x01\n      add\n      exp(0x0100, 0x00)\n      dup2\n      sload\n      dup2\n      0xffffffffffffffffffffffffffffffffffffffff\n      mul\n      not\n      and\n      swap1\n      dup4\n      0xffffffffffffffffffffffffffffffffffffffff\n      and\n      mul\n      or\n      swap1\n      sstore\n      pop\n      0x40\n      dup3\n      add\n      mload\n      dup2\n      0x02\n      add\n      sstore\n      0x60\n      dup3\n      add\n      mload\n      dup2\n      0x03\n      add\n      sstore\n      pop\n      pop\n        /* \"contracts/CMMDPolicy.sol\":9796:9851  Transfer(msg.sender, receiver, amount, block.timestamp) */\n      0x9ed053bb818ff08b8353cd46f78db1f0799f31c9e4458fdb425c10eccd2efc44\n        /* \"contracts/CMMDPolicy.sol\":9805:9815  msg.sender */\n      caller\n        /* \"contracts/CMMDPolicy.sol\":9817:9825  receiver */\n      dup4\n        /* \"contracts/CMMDPolicy.sol\":9827:9833  amount */\n      dup4\n        /* \"contracts/CMMDPolicy.sol\":9835:9850  block.timestamp */\n      timestamp\n        /* \"contracts/CMMDPolicy.sol\":9796:9851  Transfer(msg.sender, receiver, amount, block.timestamp) */\n      mload(0x40)\n      tag_141\n      swap5\n      swap4\n      swap3\n      swap2\n      swap1\n      tag_142\n      jump\t// in\n    tag_141:\n      mload(0x40)\n      dup1\n      swap2\n      sub\n      swap1\n      log1\n        /* \"contracts/CMMDPolicy.sol\":9603:9858  function faucet(address payable receiver, uint amount) public {... */\n      pop\n      pop\n      jump\t// out\n        /* \"contracts/CMMDPolicy.sol\":4269:4445  function setRebaseFunctionGrowth(int256 rebaseFunctionGrowth_) public {... */\n    tag_64:\n        /* \"contracts/CMMDPolicy.sol\":4382:4383  0 */\n      0x00\n        /* \"contracts/CMMDPolicy.sol\":4357:4378  rebaseFunctionGrowth_ */\n      dup2\n        /* \"contracts/CMMDPolicy.sol\":4357:4383  rebaseFunctionGrowth_ >= 0 */\n      slt\n      iszero\n        /* \"contracts/CMMDPolicy.sol\":4349:4384  require(rebaseFunctionGrowth_ >= 0) */\n      tag_144\n      jumpi\n      0x00\n      dup1\n      revert\n    tag_144:\n        /* \"contracts/CMMDPolicy.sol\":4417:4438  rebaseFunctionGrowth_ */\n      dup1\n        /* \"contracts/CMMDPolicy.sol\":4394:4414  rebaseFunctionGrowth */\n      0x0a\n        /* \"contracts/CMMDPolicy.sol\":4394:4438  rebaseFunctionGrowth = rebaseFunctionGrowth_ */\n      dup2\n      swap1\n      sstore\n      pop\n        /* \"contracts/CMMDPolicy.sol\":4269:4445  function setRebaseFunctionGrowth(int256 rebaseFunctionGrowth_) public {... */\n      pop\n      jump\t// out\n        /* \"contracts/CMMDPolicy.sol\":1868:1888  uint256 public epoch */\n    tag_66:\n      sload(0x07)\n      dup2\n      jump\t// out\n        /* \"contracts/CMMDPolicy.sol\":2458:2501  int256 public rebaseFunctionUpperPercentage */\n    tag_70:\n      sload(0x09)\n      dup2\n      jump\t// out\n        /* \"contracts/CMMDPolicy.sol\":4162:4262  function setMarketOracle(IOracle marketOracle_) public {... */\n    tag_74:\n        /* \"contracts/CMMDPolicy.sol\":4242:4255  marketOracle_ */\n      dup1\n        /* \"contracts/CMMDPolicy.sol\":4227:4239  marketOracle */\n      0x04\n      0x00\n        /* \"contracts/CMMDPolicy.sol\":4227:4255  marketOracle = marketOracle_ */\n      0x0100\n      exp\n      dup2\n      sload\n      dup2\n      0xffffffffffffffffffffffffffffffffffffffff\n      mul\n      not\n      and\n      swap1\n      dup4\n      0xffffffffffffffffffffffffffffffffffffffff\n      and\n      mul\n      or\n      swap1\n      sstore\n      pop\n        /* \"contracts/CMMDPolicy.sol\":4162:4262  function setMarketOracle(IOracle marketOracle_) public {... */\n      pop\n      jump\t// out\n        /* \"contracts/CMMDPolicy.sol\":1448:1470  uint256 public baseCpi */\n    tag_76:\n      sload(0x05)\n      dup2\n      jump\t// out\n        /* \"contracts/CMMDPolicy.sol\":1229:1253  IOracle public cpiOracle */\n    tag_79:\n      0x03\n      0x00\n      swap1\n      sload\n      swap1\n      0x0100\n      exp\n      swap1\n      div\n      0xffffffffffffffffffffffffffffffffffffffff\n      and\n      dup2\n      jump\t// out\n        /* \"contracts/CMMDPolicy.sol\":2844:3784  function rebase() public {... */\n    tag_82:\n        /* \"contracts/CMMDPolicy.sol\":2895:2896  1 */\n      0x01\n        /* \"contracts/CMMDPolicy.sol\":2887:2892  epoch */\n      sload(0x07)\n        /* \"contracts/CMMDPolicy.sol\":2887:2896  epoch + 1 */\n      tag_147\n      swap2\n      swap1\n      tag_139\n      jump\t// in\n    tag_147:\n        /* \"contracts/CMMDPolicy.sol\":2879:2884  epoch */\n      0x07\n        /* \"contracts/CMMDPolicy.sol\":2879:2896  epoch = epoch + 1 */\n      dup2\n      swap1\n      sstore\n      pop\n        /* \"contracts/CMMDPolicy.sol\":2907:2918  uint256 cpi */\n      0x00\n        /* \"contracts/CMMDPolicy.sol\":2928:2941  bool cpiValid */\n      dup1\n        /* \"contracts/CMMDPolicy.sol\":2969:2978  cpiOracle */\n      0x03\n      0x00\n      swap1\n      sload\n      swap1\n      0x0100\n      exp\n      swap1\n      div\n      0xffffffffffffffffffffffffffffffffffffffff\n      and\n        /* \"contracts/CMMDPolicy.sol\":2969:2986  cpiOracle.getData */\n      0xffffffffffffffffffffffffffffffffffffffff\n      and\n      0x3bc5de30\n        /* \"contracts/CMMDPolicy.sol\":2969:2988  cpiOracle.getData() */\n      mload(0x40)\n      dup2\n      0xffffffff\n      and\n      0xe0\n      shl\n      dup2\n      mstore\n      0x04\n      add\n      0x40\n      dup1\n      mload\n      dup1\n      dup4\n      sub\n      dup2\n      0x00\n      dup8\n      dup1\n      extcodesize\n      iszero\n      dup1\n      iszero\n      tag_148\n      jumpi\n      0x00\n      dup1\n      revert\n    tag_148:\n      pop\n      gas\n      call\n      iszero\n      dup1\n      iszero\n      tag_150\n      jumpi\n      returndatasize\n      0x00\n      dup1\n      returndatacopy\n      revert(0x00, returndatasize)\n    tag_150:\n      pop\n      pop\n      pop\n      pop\n      mload(0x40)\n      returndatasize\n      not(0x1f)\n      0x1f\n      dup3\n      add\n      and\n      dup3\n      add\n      dup1\n      0x40\n      mstore\n      pop\n      dup2\n      add\n      swap1\n      tag_151\n      swap2\n      swap1\n      tag_152\n      jump\t// in\n    tag_151:\n        /* \"contracts/CMMDPolicy.sol\":2951:2988  (cpi, cpiValid) = cpiOracle.getData() */\n      dup1\n      swap3\n      pop\n      dup2\n      swap4\n      pop\n      pop\n      pop\n        /* \"contracts/CMMDPolicy.sol\":3006:3014  cpiValid */\n      dup1\n        /* \"contracts/CMMDPolicy.sol\":2998:3015  require(cpiValid) */\n      tag_153\n      jumpi\n      0x00\n      dup1\n      revert\n    tag_153:\n        /* \"contracts/CMMDPolicy.sol\":3026:3044  uint256 targetRate */\n      0x00\n        /* \"contracts/CMMDPolicy.sol\":3047:3101  SafeMath.div(SafeMath.mul(cpi,10**DECIMALS),(baseCpi)) */\n      tag_154\n        /* \"contracts/CMMDPolicy.sol\":3060:3090  SafeMath.mul(cpi,10**DECIMALS) */\n      tag_155\n        /* \"contracts/CMMDPolicy.sol\":3073:3076  cpi */\n      dup5\n        /* \"contracts/CMMDPolicy.sol\":1931:1933  18 */\n      0x12\n        /* \"contracts/CMMDPolicy.sol\":3077:3079  10 */\n      0x0a\n        /* \"contracts/CMMDPolicy.sol\":3077:3089  10**DECIMALS */\n      tag_156\n      swap2\n      swap1\n      tag_99\n      jump\t// in\n    tag_156:\n        /* \"contracts/CMMDPolicy.sol\":3060:3072  SafeMath.mul */\n      tag_157\n        /* \"contracts/CMMDPolicy.sol\":3060:3090  SafeMath.mul(cpi,10**DECIMALS) */\n      jump\t// in\n    tag_155:\n        /* \"contracts/CMMDPolicy.sol\":3092:3099  baseCpi */\n      sload(0x05)\n        /* \"contracts/CMMDPolicy.sol\":3047:3059  SafeMath.div */\n      tag_158\n        /* \"contracts/CMMDPolicy.sol\":3047:3101  SafeMath.div(SafeMath.mul(cpi,10**DECIMALS),(baseCpi)) */\n      jump\t// in\n    tag_154:\n        /* \"contracts/CMMDPolicy.sol\":3026:3101  uint256 targetRate = SafeMath.div(SafeMath.mul(cpi,10**DECIMALS),(baseCpi)) */\n      swap1\n      pop\n        /* \"contracts/CMMDPolicy.sol\":3112:3132  uint256 exchangeRate */\n      0x00\n        /* \"contracts/CMMDPolicy.sol\":3142:3156  bool rateValid */\n      dup1\n        /* \"contracts/CMMDPolicy.sol\":3194:3206  marketOracle */\n      0x04\n      0x00\n      swap1\n      sload\n      swap1\n      0x0100\n      exp\n      swap1\n      div\n      0xffffffffffffffffffffffffffffffffffffffff\n      and\n        /* \"contracts/CMMDPolicy.sol\":3194:3214  marketOracle.getData */\n      0xffffffffffffffffffffffffffffffffffffffff\n      and\n      0x3bc5de30\n        /* \"contracts/CMMDPolicy.sol\":3194:3216  marketOracle.getData() */\n      mload(0x40)\n      dup2\n      0xffffffff\n      and\n      0xe0\n      shl\n      dup2\n      mstore\n      0x04\n      add\n      0x40\n      dup1\n      mload\n      dup1\n      dup4\n      sub\n      dup2\n      0x00\n      dup8\n      dup1\n      extcodesize\n      iszero\n      dup1\n      iszero\n      tag_159\n      jumpi\n      0x00\n      dup1\n      revert\n    tag_159:\n      pop\n      gas\n      call\n      iszero\n      dup1\n      iszero\n      tag_161\n      jumpi\n      returndatasize\n      0x00\n      dup1\n      returndatacopy\n      revert(0x00, returndatasize)\n    tag_161:\n      pop\n      pop\n      pop\n      pop\n      mload(0x40)\n      returndatasize\n      not(0x1f)\n      0x1f\n      dup3\n      add\n      and\n      dup3\n      add\n      dup1\n      0x40\n      mstore\n      pop\n      dup2\n      add\n      swap1\n      tag_162\n      swap2\n      swap1\n      tag_152\n      jump\t// in\n    tag_162:\n        /* \"contracts/CMMDPolicy.sol\":3166:3216  (exchangeRate, rateValid) = marketOracle.getData() */\n      dup1\n      swap3\n      pop\n      dup2\n      swap4\n      pop\n      pop\n      pop\n        /* \"contracts/CMMDPolicy.sol\":3234:3243  rateValid */\n      dup1\n        /* \"contracts/CMMDPolicy.sol\":3226:3244  require(rateValid) */\n      tag_163\n      jumpi\n      0x00\n      dup1\n      revert\n    tag_163:\n        /* \"contracts/CMMDPolicy.sol\":1931:1933  18 */\n      0x12\n        /* \"contracts/CMMDPolicy.sol\":2134:2136  10 */\n      0x0a\n        /* \"contracts/CMMDPolicy.sol\":2134:2146  10**DECIMALS */\n      tag_164\n      swap2\n      swap1\n      tag_99\n      jump\t// in\n    tag_164:\n        /* \"contracts/CMMDPolicy.sol\":2126:2131  10**6 */\n      0x0f4240\n        /* \"contracts/CMMDPolicy.sol\":2126:2146  10**6 * 10**DECIMALS */\n      tag_165\n      swap2\n      swap1\n      tag_166\n      jump\t// in\n    tag_165:\n        /* \"contracts/CMMDPolicy.sol\":3259:3271  exchangeRate */\n      dup3\n        /* \"contracts/CMMDPolicy.sol\":3259:3282  exchangeRate > MAX_RATE */\n      gt\n        /* \"contracts/CMMDPolicy.sol\":3255:3332  if (exchangeRate > MAX_RATE) {... */\n      iszero\n      tag_167\n      jumpi\n        /* \"contracts/CMMDPolicy.sol\":1931:1933  18 */\n      0x12\n        /* \"contracts/CMMDPolicy.sol\":2134:2136  10 */\n      0x0a\n        /* \"contracts/CMMDPolicy.sol\":2134:2146  10**DECIMALS */\n      tag_168\n      swap2\n      swap1\n      tag_99\n      jump\t// in\n    tag_168:\n        /* \"contracts/CMMDPolicy.sol\":2126:2131  10**6 */\n      0x0f4240\n        /* \"contracts/CMMDPolicy.sol\":2126:2146  10**6 * 10**DECIMALS */\n      tag_169\n      swap2\n      swap1\n      tag_166\n      jump\t// in\n    tag_169:\n        /* \"contracts/CMMDPolicy.sol\":3298:3321  exchangeRate = MAX_RATE */\n      swap2\n      pop\n        /* \"contracts/CMMDPolicy.sol\":3255:3332  if (exchangeRate > MAX_RATE) {... */\n    tag_167:\n        /* \"contracts/CMMDPolicy.sol\":3342:3360  int256 supplyDelta */\n      0x00\n        /* \"contracts/CMMDPolicy.sol\":3363:3407  computeSupplyDelta(exchangeRate, targetRate) */\n      tag_170\n        /* \"contracts/CMMDPolicy.sol\":3382:3394  exchangeRate */\n      dup4\n        /* \"contracts/CMMDPolicy.sol\":3396:3406  targetRate */\n      dup6\n        /* \"contracts/CMMDPolicy.sol\":3363:3381  computeSupplyDelta */\n      tag_171\n        /* \"contracts/CMMDPolicy.sol\":3363:3407  computeSupplyDelta(exchangeRate, targetRate) */\n      jump\t// in\n    tag_170:\n        /* \"contracts/CMMDPolicy.sol\":3342:3407  int256 supplyDelta = computeSupplyDelta(exchangeRate, targetRate) */\n      swap1\n      pop\n        /* \"contracts/CMMDPolicy.sol\":3436:3437  0 */\n      0x00\n        /* \"contracts/CMMDPolicy.sol\":3422:3433  supplyDelta */\n      dup2\n        /* \"contracts/CMMDPolicy.sol\":3422:3437  supplyDelta > 0 */\n      sgt\n        /* \"contracts/CMMDPolicy.sol\":3422:3497  supplyDelta > 0 && cmmd.totalSupply() + (uint256(supplyDelta)) > MAX_SUPPLY */\n      dup1\n      iszero\n      tag_172\n      jumpi\n      pop\n        /* \"contracts/CMMDPolicy.sol\":1931:1933  18 */\n      0x12\n        /* \"contracts/CMMDPolicy.sol\":2134:2136  10 */\n      0x0a\n        /* \"contracts/CMMDPolicy.sol\":2134:2146  10**DECIMALS */\n      tag_173\n      swap2\n      swap1\n      tag_99\n      jump\t// in\n    tag_173:\n        /* \"contracts/CMMDPolicy.sol\":2126:2131  10**6 */\n      0x0f4240\n        /* \"contracts/CMMDPolicy.sol\":2126:2146  10**6 * 10**DECIMALS */\n      tag_174\n      swap2\n      swap1\n      tag_166\n      jump\t// in\n    tag_174:\n        /* \"contracts/CMMDPolicy.sol\":2240:2256  type(int256).max */\n      0x7fffffffffffffffffffffffffffffffffffffffffffffffffffffffffffffff\n        /* \"contracts/CMMDPolicy.sol\":2232:2268  uint256(type(int256).max) / MAX_RATE */\n      tag_175\n      swap2\n      swap1\n      tag_176\n      jump\t// in\n    tag_175:\n        /* \"contracts/CMMDPolicy.sol\":3471:3482  supplyDelta */\n      dup2\n        /* \"contracts/CMMDPolicy.sol\":3441:3445  cmmd */\n      0x02\n      0x00\n      swap1\n      sload\n      swap1\n      0x0100\n      exp\n      swap1\n      div\n      0xffffffffffffffffffffffffffffffffffffffff\n      and\n        /* \"contracts/CMMDPolicy.sol\":3441:3457  cmmd.totalSupply */\n      0xffffffffffffffffffffffffffffffffffffffff\n      and\n      0x18160ddd\n        /* \"contracts/CMMDPolicy.sol\":3441:3459  cmmd.totalSupply() */\n      mload(0x40)\n      dup2\n      0xffffffff\n      and\n      0xe0\n      shl\n      dup2\n      mstore\n      0x04\n      add\n      0x20\n      mload(0x40)\n      dup1\n      dup4\n      sub\n      dup2\n      dup7\n      dup1\n      extcodesize\n      iszero\n      dup1\n      iszero\n      tag_177\n      jumpi\n      0x00\n      dup1\n      revert\n    tag_177:\n      pop\n      gas\n      staticcall\n      iszero\n      dup1\n      iszero\n      tag_179\n      jumpi\n      returndatasize\n      0x00\n      dup1\n      returndatacopy\n      revert(0x00, returndatasize)\n    tag_179:\n      pop\n      pop\n      pop\n      pop\n      mload(0x40)\n      returndatasize\n      not(0x1f)\n      0x1f\n      dup3\n      add\n      and\n      dup3\n      add\n      dup1\n      0x40\n      mstore\n      pop\n      dup2\n      add\n      swap1\n      tag_180\n      swap2\n      swap1\n      tag_181\n      jump\t// in\n    tag_180:\n        /* \"contracts/CMMDPolicy.sol\":3441:3484  cmmd.totalSupply() + (uint256(supplyDelta)) */\n      tag_182\n      swap2\n      swap1\n      tag_139\n      jump\t// in\n    tag_182:\n        /* \"contracts/CMMDPolicy.sol\":3441:3497  cmmd.totalSupply() + (uint256(supplyDelta)) > MAX_SUPPLY */\n      gt\n        /* \"contracts/CMMDPolicy.sol\":3422:3497  supplyDelta > 0 && cmmd.totalSupply() + (uint256(supplyDelta)) > MAX_SUPPLY */\n    tag_172:\n        /* \"contracts/CMMDPolicy.sol\":3418:3579  if (supplyDelta > 0 && cmmd.totalSupply() + (uint256(supplyDelta)) > MAX_SUPPLY) {... */\n      iszero\n      tag_183\n      jumpi\n        /* \"contracts/CMMDPolicy.sol\":3548:3552  cmmd */\n      0x02\n      0x00\n      swap1\n      sload\n      swap1\n      0x0100\n      exp\n      swap1\n      div\n      0xffffffffffffffffffffffffffffffffffffffff\n      and\n        /* \"contracts/CMMDPolicy.sol\":3548:3564  cmmd.totalSupply */\n      0xffffffffffffffffffffffffffffffffffffffff\n      and\n      0x18160ddd\n        /* \"contracts/CMMDPolicy.sol\":3548:3566  cmmd.totalSupply() */\n      mload(0x40)\n      dup2\n      0xffffffff\n      and\n      0xe0\n      shl\n      dup2\n      mstore\n      0x04\n      add\n      0x20\n      mload(0x40)\n      dup1\n      dup4\n      sub\n      dup2\n      dup7\n      dup1\n      extcodesize\n      iszero\n      dup1\n      iszero\n      tag_184\n      jumpi\n      0x00\n      dup1\n      revert\n    tag_184:\n      pop\n      gas\n      staticcall\n      iszero\n      dup1\n      iszero\n      tag_186\n      jumpi\n      returndatasize\n      0x00\n      dup1\n      returndatacopy\n      revert(0x00, returndatasize)\n    tag_186:\n      pop\n      pop\n      pop\n      pop\n      mload(0x40)\n      returndatasize\n      not(0x1f)\n      0x1f\n      dup3\n      add\n      and\n      dup3\n      add\n      dup1\n      0x40\n      mstore\n      pop\n      dup2\n      add\n      swap1\n      tag_187\n      swap2\n      swap1\n      tag_181\n      jump\t// in\n    tag_187:\n        /* \"contracts/CMMDPolicy.sol\":1931:1933  18 */\n      0x12\n        /* \"contracts/CMMDPolicy.sol\":2134:2136  10 */\n      0x0a\n        /* \"contracts/CMMDPolicy.sol\":2134:2146  10**DECIMALS */\n      tag_188\n      swap2\n      swap1\n      tag_99\n      jump\t// in\n    tag_188:\n        /* \"contracts/CMMDPolicy.sol\":2126:2131  10**6 */\n      0x0f4240\n        /* \"contracts/CMMDPolicy.sol\":2126:2146  10**6 * 10**DECIMALS */\n      tag_189\n      swap2\n      swap1\n      tag_166\n      jump\t// in\n    tag_189:\n        /* \"contracts/CMMDPolicy.sol\":2240:2256  type(int256).max */\n      0x7fffffffffffffffffffffffffffffffffffffffffffffffffffffffffffffff\n        /* \"contracts/CMMDPolicy.sol\":2232:2268  uint256(type(int256).max) / MAX_RATE */\n      tag_190\n      swap2\n      swap1\n      tag_176\n      jump\t// in\n    tag_190:\n        /* \"contracts/CMMDPolicy.sol\":3534:3567  MAX_SUPPLY - (cmmd.totalSupply()) */\n      tag_191\n      swap2\n      swap1\n      tag_192\n      jump\t// in\n    tag_191:\n        /* \"contracts/CMMDPolicy.sol\":3513:3568  supplyDelta = int256(MAX_SUPPLY - (cmmd.totalSupply())) */\n      swap1\n      pop\n        /* \"contracts/CMMDPolicy.sol\":3418:3579  if (supplyDelta > 0 && cmmd.totalSupply() + (uint256(supplyDelta)) > MAX_SUPPLY) {... */\n    tag_183:\n        /* \"contracts/CMMDPolicy.sol\":3589:3614  uint256 supplyAfterRebase */\n      0x00\n        /* \"contracts/CMMDPolicy.sol\":3617:3621  cmmd */\n      0x02\n      0x00\n      swap1\n      sload\n      swap1\n      0x0100\n      exp\n      swap1\n      div\n      0xffffffffffffffffffffffffffffffffffffffff\n      and\n        /* \"contracts/CMMDPolicy.sol\":3617:3628  cmmd.rebase */\n      0xffffffffffffffffffffffffffffffffffffffff\n      and\n      0x7a43e23f\n        /* \"contracts/CMMDPolicy.sol\":3629:3634  epoch */\n      sload(0x07)\n        /* \"contracts/CMMDPolicy.sol\":3636:3647  supplyDelta */\n      dup5\n        /* \"contracts/CMMDPolicy.sol\":3617:3648  cmmd.rebase(epoch, supplyDelta) */\n      mload(0x40)\n      dup4\n      0xffffffff\n      and\n      0xe0\n      shl\n      dup2\n      mstore\n      0x04\n      add\n      tag_193\n      swap3\n      swap2\n      swap1\n      tag_194\n      jump\t// in\n    tag_193:\n      0x20\n      mload(0x40)\n      dup1\n      dup4\n      sub\n      dup2\n      0x00\n      dup8\n      dup1\n      extcodesize\n      iszero\n      dup1\n      iszero\n      tag_195\n      jumpi\n      0x00\n      dup1\n      revert\n    tag_195:\n      pop\n      gas\n      call\n      iszero\n      dup1\n      iszero\n      tag_197\n      jumpi\n      returndatasize\n      0x00\n      dup1\n      returndatacopy\n      revert(0x00, returndatasize)\n    tag_197:\n      pop\n      pop\n      pop\n      pop\n      mload(0x40)\n      returndatasize\n      not(0x1f)\n      0x1f\n      dup3\n      add\n      and\n      dup3\n      add\n      dup1\n      0x40\n      mstore\n      pop\n      dup2\n      add\n      swap1\n      tag_198\n      swap2\n      swap1\n      tag_181\n      jump\t// in\n    tag_198:\n        /* \"contracts/CMMDPolicy.sol\":3589:3648  uint256 supplyAfterRebase = cmmd.rebase(epoch, supplyDelta) */\n      swap1\n      pop\n        /* \"contracts/CMMDPolicy.sol\":1931:1933  18 */\n      0x12\n        /* \"contracts/CMMDPolicy.sol\":2134:2136  10 */\n      0x0a\n        /* \"contracts/CMMDPolicy.sol\":2134:2146  10**DECIMALS */\n      tag_199\n      swap2\n      swap1\n      tag_99\n      jump\t// in\n    tag_199:\n        /* \"contracts/CMMDPolicy.sol\":2126:2131  10**6 */\n      0x0f4240\n        /* \"contracts/CMMDPolicy.sol\":2126:2146  10**6 * 10**DECIMALS */\n      tag_200\n      swap2\n      swap1\n      tag_166\n      jump\t// in\n    tag_200:\n        /* \"contracts/CMMDPolicy.sol\":2240:2256  type(int256).max */\n      0x7fffffffffffffffffffffffffffffffffffffffffffffffffffffffffffffff\n        /* \"contracts/CMMDPolicy.sol\":2232:2268  uint256(type(int256).max) / MAX_RATE */\n      tag_201\n      swap2\n      swap1\n      tag_176\n      jump\t// in\n    tag_201:\n        /* \"contracts/CMMDPolicy.sol\":3665:3682  supplyAfterRebase */\n      dup2\n        /* \"contracts/CMMDPolicy.sol\":3665:3696  supplyAfterRebase <= MAX_SUPPLY */\n      gt\n      iszero\n        /* \"contracts/CMMDPolicy.sol\":3658:3697  assert(supplyAfterRebase <= MAX_SUPPLY) */\n      tag_202\n      jumpi\n      tag_203\n      tag_204\n      jump\t// in\n    tag_203:\n    tag_202:\n        /* \"contracts/CMMDPolicy.sol\":3722:3727  epoch */\n      sload(0x07)\n        /* \"contracts/CMMDPolicy.sol\":3712:3777  LogRebase(epoch, exchangeRate, cpi, supplyDelta, block.timestamp) */\n      0x41d948a7f29cc695f5d4b3ec147f766bffa165ddd317470fbe05c86d0a9c3e04\n        /* \"contracts/CMMDPolicy.sol\":3729:3741  exchangeRate */\n      dup6\n        /* \"contracts/CMMDPolicy.sol\":3743:3746  cpi */\n      dup10\n        /* \"contracts/CMMDPolicy.sol\":3748:3759  supplyDelta */\n      dup6\n        /* \"contracts/CMMDPolicy.sol\":3761:3776  block.timestamp */\n      timestamp\n        /* \"contracts/CMMDPolicy.sol\":3712:3777  LogRebase(epoch, exchangeRate, cpi, supplyDelta, block.timestamp) */\n      mload(0x40)\n      tag_205\n      swap5\n      swap4\n      swap3\n      swap2\n      swap1\n      tag_206\n      jump\t// in\n    tag_205:\n      mload(0x40)\n      dup1\n      swap2\n      sub\n      swap1\n      log2\n        /* \"contracts/CMMDPolicy.sol\":2869:3784  {... */\n      pop\n      pop\n      pop\n      pop\n      pop\n      pop\n      pop\n        /* \"contracts/CMMDPolicy.sol\":2844:3784  function rebase() public {... */\n      jump\t// out\n        /* \"contracts/CMMDPolicy.sol\":5869:6362  function initialize(... */\n    tag_86:\n        /* \"contracts/CMMDPolicy.sol\":6048:6049  2 */\n      0x02\n        /* \"contracts/CMMDPolicy.sol\":1931:1933  18 */\n      0x12\n        /* \"contracts/CMMDPolicy.sol\":6037:6049  DECIMALS - 2 */\n      tag_208\n      swap2\n      swap1\n      tag_192\n      jump\t// in\n    tag_208:\n        /* \"contracts/CMMDPolicy.sol\":6032:6034  10 */\n      0x0a\n        /* \"contracts/CMMDPolicy.sol\":6032:6050  10**(DECIMALS - 2) */\n      tag_209\n      swap2\n      swap1\n      tag_99\n      jump\t// in\n    tag_209:\n        /* \"contracts/CMMDPolicy.sol\":6028:6029  5 */\n      0x05\n        /* \"contracts/CMMDPolicy.sol\":6028:6050  5 * 10**(DECIMALS - 2) */\n      tag_210\n      swap2\n      swap1\n      tag_166\n      jump\t// in\n    tag_210:\n        /* \"contracts/CMMDPolicy.sol\":6007:6025  deviationThreshold */\n      0x06\n        /* \"contracts/CMMDPolicy.sol\":6007:6050  deviationThreshold = 5 * 10**(DECIMALS - 2) */\n      dup2\n      swap1\n      sstore\n      pop\n        /* \"contracts/CMMDPolicy.sol\":1931:1933  18 */\n      0x12\n        /* \"contracts/CMMDPolicy.sol\":6096:6098  10 */\n      0x0a\n        /* \"contracts/CMMDPolicy.sol\":6096:6108  10**DECIMALS */\n      tag_211\n      swap2\n      swap1\n      tag_99\n      jump\t// in\n    tag_211:\n        /* \"contracts/CMMDPolicy.sol\":6091:6092  3 */\n      0x03\n        /* \"contracts/CMMDPolicy.sol\":6091:6109  3 * (10**DECIMALS) */\n      tag_212\n      swap2\n      swap1\n      tag_166\n      jump\t// in\n    tag_212:\n        /* \"contracts/CMMDPolicy.sol\":6061:6081  rebaseFunctionGrowth */\n      0x0a\n        /* \"contracts/CMMDPolicy.sol\":6061:6110  rebaseFunctionGrowth = int256(3 * (10**DECIMALS)) */\n      dup2\n      swap1\n      sstore\n      pop\n        /* \"contracts/CMMDPolicy.sol\":6181:6182  2 */\n      0x02\n        /* \"contracts/CMMDPolicy.sol\":1931:1933  18 */\n      0x12\n        /* \"contracts/CMMDPolicy.sol\":6170:6182  DECIMALS - 2 */\n      tag_213\n      swap2\n      swap1\n      tag_192\n      jump\t// in\n    tag_213:\n        /* \"contracts/CMMDPolicy.sol\":6165:6167  10 */\n      0x0a\n        /* \"contracts/CMMDPolicy.sol\":6165:6183  10**(DECIMALS - 2) */\n      tag_214\n      swap2\n      swap1\n      tag_99\n      jump\t// in\n    tag_214:\n        /* \"contracts/CMMDPolicy.sol\":6159:6161  10 */\n      0x0a\n        /* \"contracts/CMMDPolicy.sol\":6159:6184  10 * (10**(DECIMALS - 2)) */\n      tag_215\n      swap2\n      swap1\n      tag_166\n      jump\t// in\n    tag_215:\n        /* \"contracts/CMMDPolicy.sol\":6120:6149  rebaseFunctionUpperPercentage */\n      0x09\n        /* \"contracts/CMMDPolicy.sol\":6120:6185  rebaseFunctionUpperPercentage = int256(10 * (10**(DECIMALS - 2))) */\n      dup2\n      swap1\n      sstore\n      pop\n        /* \"contracts/CMMDPolicy.sol\":6272:6273  2 */\n      0x02\n        /* \"contracts/CMMDPolicy.sol\":1931:1933  18 */\n      0x12\n        /* \"contracts/CMMDPolicy.sol\":6261:6273  DECIMALS - 2 */\n      tag_216\n      swap2\n      swap1\n      tag_192\n      jump\t// in\n    tag_216:\n        /* \"contracts/CMMDPolicy.sol\":6256:6258  10 */\n      0x0a\n        /* \"contracts/CMMDPolicy.sol\":6256:6274  10**(DECIMALS - 2) */\n      tag_217\n      swap2\n      swap1\n      tag_99\n      jump\t// in\n    tag_217:\n        /* \"contracts/CMMDPolicy.sol\":6242:6245  -10 */\n      0xfffffffffffffffffffffffffffffffffffffffffffffffffffffffffffffff6\n        /* \"contracts/CMMDPolicy.sol\":6241:6275  (-10) * int256(10**(DECIMALS - 2)) */\n      tag_218\n      swap2\n      swap1\n      tag_219\n      jump\t// in\n    tag_218:\n        /* \"contracts/CMMDPolicy.sol\":6202:6231  rebaseFunctionLowerPercentage */\n      0x08\n        /* \"contracts/CMMDPolicy.sol\":6202:6276  rebaseFunctionLowerPercentage = int256((-10) * int256(10**(DECIMALS - 2))) */\n      dup2\n      swap1\n      sstore\n      pop\n        /* \"contracts/CMMDPolicy.sol\":6303:6304  0 */\n      0x00\n        /* \"contracts/CMMDPolicy.sol\":6295:6300  epoch */\n      0x07\n        /* \"contracts/CMMDPolicy.sol\":6295:6304  epoch = 0 */\n      dup2\n      swap1\n      sstore\n      pop\n        /* \"contracts/CMMDPolicy.sol\":6322:6327  cmmd_ */\n      dup2\n        /* \"contracts/CMMDPolicy.sol\":6315:6319  cmmd */\n      0x02\n      0x00\n        /* \"contracts/CMMDPolicy.sol\":6315:6327  cmmd = cmmd_ */\n      0x0100\n      exp\n      dup2\n      sload\n      dup2\n      0xffffffffffffffffffffffffffffffffffffffff\n      mul\n      not\n      and\n      swap1\n      dup4\n      0xffffffffffffffffffffffffffffffffffffffff\n      and\n      mul\n      or\n      swap1\n      sstore\n      pop\n        /* \"contracts/CMMDPolicy.sol\":6347:6355  baseCpi_ */\n      dup1\n        /* \"contracts/CMMDPolicy.sol\":6337:6344  baseCpi */\n      0x05\n        /* \"contracts/CMMDPolicy.sol\":6337:6355  baseCpi = baseCpi_ */\n      dup2\n      swap1\n      sstore\n      pop\n        /* \"contracts/CMMDPolicy.sol\":5869:6362  function initialize(... */\n      pop\n      pop\n      jump\t// out\n        /* \"contracts/CMMDPolicy.sol\":1777:1810  uint256 public deviationThreshold */\n    tag_88:\n      sload(0x06)\n      dup2\n      jump\t// out\n        /* \"contracts/CMMDPolicy.sol\":4451:4684  function setRebaseFunctionLowerPercentage(int256 rebaseFunctionLowerPercentage_)... */\n    tag_92:\n        /* \"contracts/CMMDPolicy.sol\":4603:4604  0 */\n      0x00\n        /* \"contracts/CMMDPolicy.sol\":4569:4599  rebaseFunctionLowerPercentage_ */\n      dup2\n        /* \"contracts/CMMDPolicy.sol\":4569:4604  rebaseFunctionLowerPercentage_ <= 0 */\n      sgt\n      iszero\n        /* \"contracts/CMMDPolicy.sol\":4561:4605  require(rebaseFunctionLowerPercentage_ <= 0) */\n      tag_221\n      jumpi\n      0x00\n      dup1\n      revert\n    tag_221:\n        /* \"contracts/CMMDPolicy.sol\":4647:4677  rebaseFunctionLowerPercentage_ */\n      dup1\n        /* \"contracts/CMMDPolicy.sol\":4615:4644  rebaseFunctionLowerPercentage */\n      0x08\n        /* \"contracts/CMMDPolicy.sol\":4615:4677  rebaseFunctionLowerPercentage = rebaseFunctionLowerPercentage_ */\n      dup2\n      swap1\n      sstore\n      pop\n        /* \"contracts/CMMDPolicy.sol\":4451:4684  function setRebaseFunctionLowerPercentage(int256 rebaseFunctionLowerPercentage_)... */\n      pop\n      jump\t// out\n        /* \"contracts/CMMDPolicy.sol\":4690:4923  function setRebaseFunctionUpperPercentage(int256 rebaseFunctionUpperPercentage_)... */\n    tag_95:\n        /* \"contracts/CMMDPolicy.sol\":4842:4843  0 */\n      0x00\n        /* \"contracts/CMMDPolicy.sol\":4808:4838  rebaseFunctionUpperPercentage_ */\n      dup2\n        /* \"contracts/CMMDPolicy.sol\":4808:4843  rebaseFunctionUpperPercentage_ >= 0 */\n      slt\n      iszero\n        /* \"contracts/CMMDPolicy.sol\":4800:4844  require(rebaseFunctionUpperPercentage_ >= 0) */\n      tag_223\n      jumpi\n      0x00\n      dup1\n      revert\n    tag_223:\n        /* \"contracts/CMMDPolicy.sol\":4886:4916  rebaseFunctionUpperPercentage_ */\n      dup1\n        /* \"contracts/CMMDPolicy.sol\":4854:4883  rebaseFunctionUpperPercentage */\n      0x09\n        /* \"contracts/CMMDPolicy.sol\":4854:4916  rebaseFunctionUpperPercentage = rebaseFunctionUpperPercentage_ */\n      dup2\n      swap1\n      sstore\n      pop\n        /* \"contracts/CMMDPolicy.sol\":4690:4923  function setRebaseFunctionUpperPercentage(int256 rebaseFunctionUpperPercentage_)... */\n      pop\n      jump\t// out\n        /* \"contracts/SafeMathInt.sol\":2230:2402  function sub(int256 a, int256 b) internal pure returns (int256) {... */\n    tag_100:\n        /* \"contracts/SafeMathInt.sol\":2286:2292  int256 */\n      0x00\n        /* \"contracts/SafeMathInt.sol\":2304:2312  int256 c */\n      dup1\n        /* \"contracts/SafeMathInt.sol\":2319:2320  b */\n      dup3\n        /* \"contracts/SafeMathInt.sol\":2315:2316  a */\n      dup5\n        /* \"contracts/SafeMathInt.sol\":2315:2320  a - b */\n      tag_225\n      swap2\n      swap1\n      tag_226\n      jump\t// in\n    tag_225:\n        /* \"contracts/SafeMathInt.sol\":2304:2320  int256 c = a - b */\n      swap1\n      pop\n        /* \"contracts/SafeMathInt.sol\":2344:2345  0 */\n      0x00\n        /* \"contracts/SafeMathInt.sol\":2339:2340  b */\n      dup4\n        /* \"contracts/SafeMathInt.sol\":2339:2345  b >= 0 */\n      slt\n      iszero\n        /* \"contracts/SafeMathInt.sol\":2339:2355  b >= 0 && c <= a */\n      dup1\n      iszero\n      tag_227\n      jumpi\n      pop\n        /* \"contracts/SafeMathInt.sol\":2354:2355  a */\n      dup4\n        /* \"contracts/SafeMathInt.sol\":2349:2350  c */\n      dup2\n        /* \"contracts/SafeMathInt.sol\":2349:2355  c <= a */\n      sgt\n      iszero\n        /* \"contracts/SafeMathInt.sol\":2339:2355  b >= 0 && c <= a */\n    tag_227:\n        /* \"contracts/SafeMathInt.sol\":2338:2376  (b >= 0 && c <= a) || (b < 0 && c > a) */\n      dup1\n      tag_228\n      jumpi\n      pop\n        /* \"contracts/SafeMathInt.sol\":2365:2366  0 */\n      0x00\n        /* \"contracts/SafeMathInt.sol\":2361:2362  b */\n      dup4\n        /* \"contracts/SafeMathInt.sol\":2361:2366  b < 0 */\n      slt\n        /* \"contracts/SafeMathInt.sol\":2361:2375  b < 0 && c > a */\n      dup1\n      iszero\n      tag_229\n      jumpi\n      pop\n        /* \"contracts/SafeMathInt.sol\":2374:2375  a */\n      dup4\n        /* \"contracts/SafeMathInt.sol\":2370:2371  c */\n      dup2\n        /* \"contracts/SafeMathInt.sol\":2370:2375  c > a */\n      sgt\n        /* \"contracts/SafeMathInt.sol\":2361:2375  b < 0 && c > a */\n    tag_229:\n        /* \"contracts/SafeMathInt.sol\":2338:2376  (b >= 0 && c <= a) || (b < 0 && c > a) */\n    tag_228:\n        /* \"contracts/SafeMathInt.sol\":2330:2377  require((b >= 0 && c <= a) || (b < 0 && c > a)) */\n      tag_230\n      jumpi\n      0x00\n      dup1\n      revert\n    tag_230:\n        /* \"contracts/SafeMathInt.sol\":2394:2395  c */\n      dup1\n        /* \"contracts/SafeMathInt.sol\":2387:2395  return c */\n      swap2\n      pop\n      pop\n        /* \"contracts/SafeMathInt.sol\":2230:2402  function sub(int256 a, int256 b) internal pure returns (int256) {... */\n      swap3\n      swap2\n      pop\n      pop\n      jump\t// out\n        /* \"contracts/SafeMathInt.sol\":1503:1799  function mul(int256 a, int256 b) internal pure returns (int256) {... */\n    tag_103:\n        /* \"contracts/SafeMathInt.sol\":1559:1565  int256 */\n      0x00\n        /* \"contracts/SafeMathInt.sol\":1577:1585  int256 c */\n      dup1\n        /* \"contracts/SafeMathInt.sol\":1592:1593  b */\n      dup3\n        /* \"contracts/SafeMathInt.sol\":1588:1589  a */\n      dup5\n        /* \"contracts/SafeMathInt.sol\":1588:1593  a * b */\n      tag_232\n      swap2\n      swap1\n      tag_219\n      jump\t// in\n    tag_232:\n        /* \"contracts/SafeMathInt.sol\":1577:1593  int256 c = a * b */\n      swap1\n      pop\n        /* \"contracts/SafeMathInt.sol\":1348:1351  255 */\n      0xff\n        /* \"contracts/SafeMathInt.sol\":1342:1343  1 */\n      0x01\n        /* \"contracts/SafeMathInt.sol\":1335:1351  int256(1) << 255 */\n      swap1\n      shl\n        /* \"contracts/SafeMathInt.sol\":1675:1676  c */\n      dup2\n        /* \"contracts/SafeMathInt.sol\":1675:1690  c != MIN_INT256 */\n      eq\n      iszero\n        /* \"contracts/SafeMathInt.sol\":1675:1730  c != MIN_INT256 || (a & MIN_INT256) != (b & MIN_INT256) */\n      dup1\n      tag_233\n      jumpi\n      pop\n        /* \"contracts/SafeMathInt.sol\":1348:1351  255 */\n      0xff\n        /* \"contracts/SafeMathInt.sol\":1342:1343  1 */\n      0x01\n        /* \"contracts/SafeMathInt.sol\":1335:1351  int256(1) << 255 */\n      swap1\n      shl\n        /* \"contracts/SafeMathInt.sol\":1715:1716  b */\n      dup4\n        /* \"contracts/SafeMathInt.sol\":1715:1729  b & MIN_INT256 */\n      and\n        /* \"contracts/SafeMathInt.sol\":1348:1351  255 */\n      0xff\n        /* \"contracts/SafeMathInt.sol\":1342:1343  1 */\n      0x01\n        /* \"contracts/SafeMathInt.sol\":1335:1351  int256(1) << 255 */\n      swap1\n      shl\n        /* \"contracts/SafeMathInt.sol\":1695:1696  a */\n      dup6\n        /* \"contracts/SafeMathInt.sol\":1695:1709  a & MIN_INT256 */\n      and\n        /* \"contracts/SafeMathInt.sol\":1694:1730  (a & MIN_INT256) != (b & MIN_INT256) */\n      eq\n      iszero\n        /* \"contracts/SafeMathInt.sol\":1675:1730  c != MIN_INT256 || (a & MIN_INT256) != (b & MIN_INT256) */\n    tag_233:\n        /* \"contracts/SafeMathInt.sol\":1667:1731  require(c != MIN_INT256 || (a & MIN_INT256) != (b & MIN_INT256)) */\n      tag_234\n      jumpi\n      0x00\n      dup1\n      revert\n    tag_234:\n        /* \"contracts/SafeMathInt.sol\":1755:1756  0 */\n      0x00\n        /* \"contracts/SafeMathInt.sol\":1750:1751  b */\n      dup4\n        /* \"contracts/SafeMathInt.sol\":1750:1756  b == 0 */\n      eq\n        /* \"contracts/SafeMathInt.sol\":1749:1773  (b == 0) || (c / b == a) */\n      dup1\n      tag_235\n      jumpi\n      pop\n        /* \"contracts/SafeMathInt.sol\":1771:1772  a */\n      dup4\n        /* \"contracts/SafeMathInt.sol\":1766:1767  b */\n      dup4\n        /* \"contracts/SafeMathInt.sol\":1762:1763  c */\n      dup3\n        /* \"contracts/SafeMathInt.sol\":1762:1767  c / b */\n      tag_236\n      swap2\n      swap1\n      tag_237\n      jump\t// in\n    tag_236:\n        /* \"contracts/SafeMathInt.sol\":1762:1772  c / b == a */\n      eq\n        /* \"contracts/SafeMathInt.sol\":1749:1773  (b == 0) || (c / b == a) */\n    tag_235:\n        /* \"contracts/SafeMathInt.sol\":1741:1774  require((b == 0) || (c / b == a)) */\n      tag_238\n      jumpi\n      0x00\n      dup1\n      revert\n    tag_238:\n        /* \"contracts/SafeMathInt.sol\":1791:1792  c */\n      dup1\n        /* \"contracts/SafeMathInt.sol\":1784:1792  return c */\n      swap2\n      pop\n      pop\n        /* \"contracts/SafeMathInt.sol\":1503:1799  function mul(int256 a, int256 b) internal pure returns (int256) {... */\n      swap3\n      swap2\n      pop\n      pop\n      jump\t// out\n        /* \"contracts/SafeMathInt.sol\":1889:2142  function div(int256 a, int256 b) internal pure returns (int256) {... */\n    tag_105:\n        /* \"contracts/SafeMathInt.sol\":1945:1951  int256 */\n      0x00\n        /* \"contracts/SafeMathInt.sol\":2035:2037  -1 */\n      0xffffffffffffffffffffffffffffffffffffffffffffffffffffffffffffffff\n        /* \"contracts/SafeMathInt.sol\":2030:2031  b */\n      dup3\n        /* \"contracts/SafeMathInt.sol\":2030:2037  b != -1 */\n      eq\n      iszero\n        /* \"contracts/SafeMathInt.sol\":2030:2056  b != -1 || a != MIN_INT256 */\n      dup1\n      tag_240\n      jumpi\n      pop\n        /* \"contracts/SafeMathInt.sol\":1348:1351  255 */\n      0xff\n        /* \"contracts/SafeMathInt.sol\":1342:1343  1 */\n      0x01\n        /* \"contracts/SafeMathInt.sol\":1335:1351  int256(1) << 255 */\n      swap1\n      shl\n        /* \"contracts/SafeMathInt.sol\":2041:2042  a */\n      dup4\n        /* \"contracts/SafeMathInt.sol\":2041:2056  a != MIN_INT256 */\n      eq\n      iszero\n        /* \"contracts/SafeMathInt.sol\":2030:2056  b != -1 || a != MIN_INT256 */\n    tag_240:\n        /* \"contracts/SafeMathInt.sol\":2022:2057  require(b != -1 || a != MIN_INT256) */\n      tag_241\n      jumpi\n      0x00\n      dup1\n      revert\n    tag_241:\n        /* \"contracts/SafeMathInt.sol\":2134:2135  b */\n      dup2\n        /* \"contracts/SafeMathInt.sol\":2130:2131  a */\n      dup4\n        /* \"contracts/SafeMathInt.sol\":2130:2135  a / b */\n      tag_242\n      swap2\n      swap1\n      tag_237\n      jump\t// in\n    tag_242:\n        /* \"contracts/SafeMathInt.sol\":2123:2135  return a / b */\n      swap1\n      pop\n        /* \"contracts/SafeMathInt.sol\":1889:2142  function div(int256 a, int256 b) internal pure returns (int256) {... */\n      swap3\n      swap2\n      pop\n      pop\n      jump\t// out\n        /* \"contracts/SafeMathInt.sol\":3202:4339  function twoPower(int256 exp, int256 one) internal pure returns (int256) {... */\n    tag_118:\n        /* \"contracts/SafeMathInt.sol\":3267:3273  int256 */\n      0x00\n        /* \"contracts/SafeMathInt.sol\":3285:3300  bool reciprocal */\n      dup1\n        /* \"contracts/SafeMathInt.sol\":3303:3308  false */\n      0x00\n        /* \"contracts/SafeMathInt.sol\":3285:3308  bool reciprocal = false */\n      swap1\n      pop\n        /* \"contracts/SafeMathInt.sol\":3328:3329  0 */\n      0x00\n        /* \"contracts/SafeMathInt.sol\":3322:3325  exp */\n      dup5\n        /* \"contracts/SafeMathInt.sol\":3322:3329  exp < 0 */\n      slt\n        /* \"contracts/SafeMathInt.sol\":3318:3401  if (exp < 0) {... */\n      iszero\n      tag_244\n      jumpi\n        /* \"contracts/SafeMathInt.sol\":3358:3362  true */\n      0x01\n        /* \"contracts/SafeMathInt.sol\":3345:3362  reciprocal = true */\n      swap1\n      pop\n        /* \"contracts/SafeMathInt.sol\":3382:3390  abs(exp) */\n      tag_245\n        /* \"contracts/SafeMathInt.sol\":3386:3389  exp */\n      dup5\n        /* \"contracts/SafeMathInt.sol\":3382:3385  abs */\n      tag_246\n        /* \"contracts/SafeMathInt.sol\":3382:3390  abs(exp) */\n      jump\t// in\n    tag_245:\n        /* \"contracts/SafeMathInt.sol\":3376:3390  exp = abs(exp) */\n      swap4\n      pop\n        /* \"contracts/SafeMathInt.sol\":3318:3401  if (exp < 0) {... */\n    tag_244:\n        /* \"contracts/SafeMathInt.sol\":3490:3509  int256[5] memory ks */\n      0x00\n        /* \"contracts/SafeMathInt.sol\":3490:3695  int256[5] memory ks = [... */\n      mload(0x40)\n      dup1\n      0xa0\n      add\n      0x40\n      mstore\n      dup1\n        /* \"contracts/SafeMathInt.sol\":3533:3552  1414213562373095049 */\n      0x13a04bbdfdc9be89\n        /* \"contracts/SafeMathInt.sol\":3490:3695  int256[5] memory ks = [... */\n      dup2\n      mstore\n      0x20\n      add\n        /* \"contracts/SafeMathInt.sol\":3567:3586  1189207115002721067 */\n      0x1080e992061ab32b\n        /* \"contracts/SafeMathInt.sol\":3490:3695  int256[5] memory ks = [... */\n      dup2\n      mstore\n      0x20\n      add\n        /* \"contracts/SafeMathInt.sol\":3600:3619  1090507732665257659 */\n      0x0f2243014e544ebb\n        /* \"contracts/SafeMathInt.sol\":3490:3695  int256[5] memory ks = [... */\n      dup2\n      mstore\n      0x20\n      add\n        /* \"contracts/SafeMathInt.sol\":3633:3652  1044273782427413840 */\n      0x0e7e0178e9d6ed50\n        /* \"contracts/SafeMathInt.sol\":3490:3695  int256[5] memory ks = [... */\n      dup2\n      mstore\n      0x20\n      add\n        /* \"contracts/SafeMathInt.sol\":3666:3685  1021897148654116678 */\n      0x0e2e820ade835f46\n        /* \"contracts/SafeMathInt.sol\":3490:3695  int256[5] memory ks = [... */\n      dup2\n      mstore\n      pop\n      swap1\n      pop\n        /* \"contracts/SafeMathInt.sol\":3705:3717  int256 whole */\n      0x00\n        /* \"contracts/SafeMathInt.sol\":3720:3733  div(exp, one) */\n      tag_247\n        /* \"contracts/SafeMathInt.sol\":3724:3727  exp */\n      dup7\n        /* \"contracts/SafeMathInt.sol\":3729:3732  one */\n      dup7\n        /* \"contracts/SafeMathInt.sol\":3720:3723  div */\n      tag_105\n        /* \"contracts/SafeMathInt.sol\":3720:3733  div(exp, one) */\n      jump\t// in\n    tag_247:\n        /* \"contracts/SafeMathInt.sol\":3705:3733  int256 whole = div(exp, one) */\n      swap1\n      pop\n        /* \"contracts/SafeMathInt.sol\":3760:3763  100 */\n      0x64\n        /* \"contracts/SafeMathInt.sol\":3751:3756  whole */\n      dup2\n        /* \"contracts/SafeMathInt.sol\":3751:3763  whole <= 100 */\n      sgt\n      iszero\n        /* \"contracts/SafeMathInt.sol\":3743:3764  require(whole <= 100) */\n      tag_248\n      jumpi\n      0x00\n      dup1\n      revert\n    tag_248:\n        /* \"contracts/SafeMathInt.sol\":3774:3787  int256 result */\n      0x00\n        /* \"contracts/SafeMathInt.sol\":3790:3836  mul(int256(uint256(1) << uint256(whole)), one) */\n      tag_249\n        /* \"contracts/SafeMathInt.sol\":3823:3828  whole */\n      dup3\n        /* \"contracts/SafeMathInt.sol\":3809:3810  1 */\n      0x01\n        /* \"contracts/SafeMathInt.sol\":3801:3829  uint256(1) << uint256(whole) */\n      swap1\n      shl\n        /* \"contracts/SafeMathInt.sol\":3832:3835  one */\n      dup8\n        /* \"contracts/SafeMathInt.sol\":3790:3793  mul */\n      tag_103\n        /* \"contracts/SafeMathInt.sol\":3790:3836  mul(int256(uint256(1) << uint256(whole)), one) */\n      jump\t// in\n    tag_249:\n        /* \"contracts/SafeMathInt.sol\":3774:3836  int256 result = mul(int256(uint256(1) << uint256(whole)), one) */\n      swap1\n      pop\n        /* \"contracts/SafeMathInt.sol\":3846:3862  int256 remaining */\n      0x00\n        /* \"contracts/SafeMathInt.sol\":3865:3890  sub(exp, mul(whole, one)) */\n      tag_250\n        /* \"contracts/SafeMathInt.sol\":3869:3872  exp */\n      dup9\n        /* \"contracts/SafeMathInt.sol\":3874:3889  mul(whole, one) */\n      tag_251\n        /* \"contracts/SafeMathInt.sol\":3878:3883  whole */\n      dup6\n        /* \"contracts/SafeMathInt.sol\":3885:3888  one */\n      dup11\n        /* \"contracts/SafeMathInt.sol\":3874:3877  mul */\n      tag_103\n        /* \"contracts/SafeMathInt.sol\":3874:3889  mul(whole, one) */\n      jump\t// in\n    tag_251:\n        /* \"contracts/SafeMathInt.sol\":3865:3868  sub */\n      tag_100\n        /* \"contracts/SafeMathInt.sol\":3865:3890  sub(exp, mul(whole, one)) */\n      jump\t// in\n    tag_250:\n        /* \"contracts/SafeMathInt.sol\":3846:3890  int256 remaining = sub(exp, mul(whole, one)) */\n      swap1\n      pop\n        /* \"contracts/SafeMathInt.sol\":3901:3915  int256 current */\n      0x00\n        /* \"contracts/SafeMathInt.sol\":3918:3929  div(one, 2) */\n      tag_252\n        /* \"contracts/SafeMathInt.sol\":3922:3925  one */\n      dup9\n        /* \"contracts/SafeMathInt.sol\":3927:3928  2 */\n      0x02\n        /* \"contracts/SafeMathInt.sol\":3918:3921  div */\n      tag_105\n        /* \"contracts/SafeMathInt.sol\":3918:3929  div(one, 2) */\n      jump\t// in\n    tag_252:\n        /* \"contracts/SafeMathInt.sol\":3901:3929  int256 current = div(one, 2) */\n      swap1\n      pop\n        /* \"contracts/SafeMathInt.sol\":3944:3953  uint256 i */\n      0x00\n        /* \"contracts/SafeMathInt.sol\":3939:4225  for (uint256 i = 0; i < 5; i++) {... */\n    tag_253:\n        /* \"contracts/SafeMathInt.sol\":3963:3964  5 */\n      0x05\n        /* \"contracts/SafeMathInt.sol\":3959:3960  i */\n      dup2\n        /* \"contracts/SafeMathInt.sol\":3959:3964  i < 5 */\n      lt\n        /* \"contracts/SafeMathInt.sol\":3939:4225  for (uint256 i = 0; i < 5; i++) {... */\n      iszero\n      tag_254\n      jumpi\n        /* \"contracts/SafeMathInt.sol\":4002:4009  current */\n      dup2\n        /* \"contracts/SafeMathInt.sol\":3989:3998  remaining */\n      dup4\n        /* \"contracts/SafeMathInt.sol\":3989:4009  remaining >= current */\n      slt\n        /* \"contracts/SafeMathInt.sol\":3985:4176  if (remaining >= current) {... */\n      tag_256\n      jumpi\n        /* \"contracts/SafeMathInt.sol\":4041:4064  sub(remaining, current) */\n      tag_257\n        /* \"contracts/SafeMathInt.sol\":4045:4054  remaining */\n      dup4\n        /* \"contracts/SafeMathInt.sol\":4056:4063  current */\n      dup4\n        /* \"contracts/SafeMathInt.sol\":4041:4044  sub */\n      tag_100\n        /* \"contracts/SafeMathInt.sol\":4041:4064  sub(remaining, current) */\n      jump\t// in\n    tag_257:\n        /* \"contracts/SafeMathInt.sol\":4029:4064  remaining = sub(remaining, current) */\n      swap3\n      pop\n        /* \"contracts/SafeMathInt.sol\":4091:4122  div(mul(result, ks[i]), 10**18) */\n      tag_258\n        /* \"contracts/SafeMathInt.sol\":4095:4113  mul(result, ks[i]) */\n      tag_259\n        /* \"contracts/SafeMathInt.sol\":4099:4105  result */\n      dup6\n        /* \"contracts/SafeMathInt.sol\":4107:4109  ks */\n      dup9\n        /* \"contracts/SafeMathInt.sol\":4110:4111  i */\n      dup5\n        /* \"contracts/SafeMathInt.sol\":4107:4112  ks[i] */\n      0x05\n      dup2\n      lt\n      tag_260\n      jumpi\n      tag_261\n      tag_262\n      jump\t// in\n    tag_261:\n    tag_260:\n      0x20\n      mul\n      add\n      mload\n        /* \"contracts/SafeMathInt.sol\":4095:4098  mul */\n      tag_103\n        /* \"contracts/SafeMathInt.sol\":4095:4113  mul(result, ks[i]) */\n      jump\t// in\n    tag_259:\n        /* \"contracts/SafeMathInt.sol\":4115:4121  10**18 */\n      0x0de0b6b3a7640000\n        /* \"contracts/SafeMathInt.sol\":4091:4094  div */\n      tag_105\n        /* \"contracts/SafeMathInt.sol\":4091:4122  div(mul(result, ks[i]), 10**18) */\n      jump\t// in\n    tag_258:\n        /* \"contracts/SafeMathInt.sol\":4082:4122  result = div(mul(result, ks[i]), 10**18) */\n      swap4\n      pop\n        /* \"contracts/SafeMathInt.sol\":3985:4176  if (remaining >= current) {... */\n    tag_256:\n        /* \"contracts/SafeMathInt.sol\":4199:4214  div(current, 2) */\n      tag_263\n        /* \"contracts/SafeMathInt.sol\":4203:4210  current */\n      dup3\n        /* \"contracts/SafeMathInt.sol\":4212:4213  2 */\n      0x02\n        /* \"contracts/SafeMathInt.sol\":4199:4202  div */\n      tag_105\n        /* \"contracts/SafeMathInt.sol\":4199:4214  div(current, 2) */\n      jump\t// in\n    tag_263:\n        /* \"contracts/SafeMathInt.sol\":4189:4214  current = div(current, 2) */\n      swap2\n      pop\n        /* \"contracts/SafeMathInt.sol\":3966:3969  i++ */\n      dup1\n      dup1\n      tag_264\n      swap1\n      tag_265\n      jump\t// in\n    tag_264:\n      swap2\n      pop\n      pop\n        /* \"contracts/SafeMathInt.sol\":3939:4225  for (uint256 i = 0; i < 5; i++) {... */\n      jump(tag_253)\n    tag_254:\n      pop\n        /* \"contracts/SafeMathInt.sol\":4238:4248  reciprocal */\n      dup6\n        /* \"contracts/SafeMathInt.sol\":4234:4310  if (reciprocal) {... */\n      iszero\n      tag_266\n      jumpi\n        /* \"contracts/SafeMathInt.sol\":4273:4299  div(mul(one, one), result) */\n      tag_267\n        /* \"contracts/SafeMathInt.sol\":4277:4290  mul(one, one) */\n      tag_268\n        /* \"contracts/SafeMathInt.sol\":4281:4284  one */\n      dup10\n        /* \"contracts/SafeMathInt.sol\":4286:4289  one */\n      dup11\n        /* \"contracts/SafeMathInt.sol\":4277:4280  mul */\n      tag_103\n        /* \"contracts/SafeMathInt.sol\":4277:4290  mul(one, one) */\n      jump\t// in\n    tag_268:\n        /* \"contracts/SafeMathInt.sol\":4292:4298  result */\n      dup5\n        /* \"contracts/SafeMathInt.sol\":4273:4276  div */\n      tag_105\n        /* \"contracts/SafeMathInt.sol\":4273:4299  div(mul(one, one), result) */\n      jump\t// in\n    tag_267:\n        /* \"contracts/SafeMathInt.sol\":4264:4299  result = div(mul(one, one), result) */\n      swap3\n      pop\n        /* \"contracts/SafeMathInt.sol\":4234:4310  if (reciprocal) {... */\n    tag_266:\n        /* \"contracts/SafeMathInt.sol\":4326:4332  result */\n      dup3\n        /* \"contracts/SafeMathInt.sol\":4319:4332  return result */\n      swap7\n      pop\n      pop\n      pop\n      pop\n      pop\n      pop\n      pop\n        /* \"contracts/SafeMathInt.sol\":3202:4339  function twoPower(int256 exp, int256 one) internal pure returns (int256) {... */\n      swap3\n      swap2\n      pop\n      pop\n      jump\t// out\n        /* \"contracts/SafeMath.sol\":211:632  function mul(uint256 a, uint256 b) internal pure returns (uint256) {... */\n    tag_157:\n        /* \"contracts/SafeMath.sol\":269:276  uint256 */\n      0x00\n        /* \"contracts/SafeMath.sol\":514:515  0 */\n      dup1\n        /* \"contracts/SafeMath.sol\":509:510  a */\n      dup4\n        /* \"contracts/SafeMath.sol\":509:515  a == 0 */\n      eq\n        /* \"contracts/SafeMath.sol\":505:550  if (a == 0) {... */\n      iszero\n      tag_270\n      jumpi\n        /* \"contracts/SafeMath.sol\":538:539  0 */\n      0x00\n        /* \"contracts/SafeMath.sol\":531:539  return 0 */\n      swap1\n      pop\n      jump(tag_269)\n        /* \"contracts/SafeMath.sol\":505:550  if (a == 0) {... */\n    tag_270:\n        /* \"contracts/SafeMath.sol\":560:569  uint256 c */\n      0x00\n        /* \"contracts/SafeMath.sol\":576:577  b */\n      dup3\n        /* \"contracts/SafeMath.sol\":572:573  a */\n      dup5\n        /* \"contracts/SafeMath.sol\":572:577  a * b */\n      tag_271\n      swap2\n      swap1\n      tag_166\n      jump\t// in\n    tag_271:\n        /* \"contracts/SafeMath.sol\":560:577  uint256 c = a * b */\n      swap1\n      pop\n        /* \"contracts/SafeMath.sol\":604:605  b */\n      dup3\n        /* \"contracts/SafeMath.sol\":599:600  a */\n      dup5\n        /* \"contracts/SafeMath.sol\":595:596  c */\n      dup3\n        /* \"contracts/SafeMath.sol\":595:600  c / a */\n      tag_272\n      swap2\n      swap1\n      tag_176\n      jump\t// in\n    tag_272:\n        /* \"contracts/SafeMath.sol\":595:605  c / a == b */\n      eq\n        /* \"contracts/SafeMath.sol\":587:606  require(c / a == b) */\n      tag_273\n      jumpi\n      0x00\n      dup1\n      revert\n    tag_273:\n        /* \"contracts/SafeMath.sol\":624:625  c */\n      dup1\n        /* \"contracts/SafeMath.sol\":617:625  return c */\n      swap2\n      pop\n      pop\n        /* \"contracts/SafeMath.sol\":211:632  function mul(uint256 a, uint256 b) internal pure returns (uint256) {... */\n    tag_269:\n      swap3\n      swap2\n      pop\n      pop\n      jump\t// out\n        /* \"contracts/SafeMath.sol\":752:1040  function div(uint256 a, uint256 b) internal pure returns (uint256) {... */\n    tag_158:\n        /* \"contracts/SafeMath.sol\":810:817  uint256 */\n      0x00\n        /* \"contracts/SafeMath.sol\":841:842  0 */\n      dup1\n        /* \"contracts/SafeMath.sol\":837:838  b */\n      dup3\n        /* \"contracts/SafeMath.sol\":837:842  b > 0 */\n      gt\n        /* \"contracts/SafeMath.sol\":829:843  require(b > 0) */\n      tag_275\n      jumpi\n      0x00\n      dup1\n      revert\n    tag_275:\n        /* \"contracts/SafeMath.sol\":911:920  uint256 c */\n      0x00\n        /* \"contracts/SafeMath.sol\":927:928  b */\n      dup3\n        /* \"contracts/SafeMath.sol\":923:924  a */\n      dup5\n        /* \"contracts/SafeMath.sol\":923:928  a / b */\n      tag_276\n      swap2\n      swap1\n      tag_176\n      jump\t// in\n    tag_276:\n        /* \"contracts/SafeMath.sol\":911:928  uint256 c = a / b */\n      swap1\n      pop\n        /* \"contracts/SafeMath.sol\":1032:1033  c */\n      dup1\n        /* \"contracts/SafeMath.sol\":1025:1033  return c */\n      swap2\n      pop\n      pop\n        /* \"contracts/SafeMath.sol\":752:1040  function div(uint256 a, uint256 b) internal pure returns (uint256) {... */\n      swap3\n      swap2\n      pop\n      pop\n      jump\t// out\n        /* \"contracts/CMMDPolicy.sol\":8149:8812  function computeSupplyDelta(uint256 rate, uint256 targetRate) internal view returns (int256) {... */\n    tag_171:\n        /* \"contracts/CMMDPolicy.sol\":8234:8240  int256 */\n      0x00\n        /* \"contracts/CMMDPolicy.sol\":8256:8298  withinDeviationThreshold(rate, targetRate) */\n      tag_278\n        /* \"contracts/CMMDPolicy.sol\":8281:8285  rate */\n      dup4\n        /* \"contracts/CMMDPolicy.sol\":8287:8297  targetRate */\n      dup4\n        /* \"contracts/CMMDPolicy.sol\":8256:8280  withinDeviationThreshold */\n      tag_279\n        /* \"contracts/CMMDPolicy.sol\":8256:8298  withinDeviationThreshold(rate, targetRate) */\n      jump\t// in\n    tag_278:\n        /* \"contracts/CMMDPolicy.sol\":8252:8333  if (withinDeviationThreshold(rate, targetRate)) {... */\n      iszero\n      tag_280\n      jumpi\n        /* \"contracts/CMMDPolicy.sol\":8321:8322  0 */\n      0x00\n        /* \"contracts/CMMDPolicy.sol\":8314:8322  return 0 */\n      swap1\n      pop\n      jump(tag_277)\n        /* \"contracts/CMMDPolicy.sol\":8252:8333  if (withinDeviationThreshold(rate, targetRate)) {... */\n    tag_280:\n        /* \"contracts/CMMDPolicy.sol\":8342:8365  int256 targetRateSigned */\n      0x00\n        /* \"contracts/CMMDPolicy.sol\":8375:8385  targetRate */\n      dup3\n        /* \"contracts/CMMDPolicy.sol\":8342:8386  int256 targetRateSigned = int256(targetRate) */\n      swap1\n      pop\n        /* \"contracts/CMMDPolicy.sol\":8396:8417  int256 normalizedRate */\n      0x00\n        /* \"contracts/CMMDPolicy.sol\":8420:8487  SafeMathInt.div(SafeMathInt.mul(int256(rate),ONE),targetRateSigned) */\n      tag_281\n        /* \"contracts/CMMDPolicy.sol\":8436:8469  SafeMathInt.mul(int256(rate),ONE) */\n      tag_282\n        /* \"contracts/CMMDPolicy.sol\":8459:8463  rate */\n      dup7\n        /* \"contracts/CMMDPolicy.sol\":1931:1933  18 */\n      0x12\n        /* \"contracts/CMMDPolicy.sol\":2585:2587  10 */\n      0x0a\n        /* \"contracts/CMMDPolicy.sol\":2585:2597  10**DECIMALS */\n      tag_283\n      swap2\n      swap1\n      tag_99\n      jump\t// in\n    tag_283:\n        /* \"contracts/CMMDPolicy.sol\":8436:8451  SafeMathInt.mul */\n      tag_103\n        /* \"contracts/CMMDPolicy.sol\":8436:8469  SafeMathInt.mul(int256(rate),ONE) */\n      jump\t// in\n    tag_282:\n        /* \"contracts/CMMDPolicy.sol\":8470:8486  targetRateSigned */\n      dup4\n        /* \"contracts/CMMDPolicy.sol\":8420:8435  SafeMathInt.div */\n      tag_105\n        /* \"contracts/CMMDPolicy.sol\":8420:8487  SafeMathInt.div(SafeMathInt.mul(int256(rate),ONE),targetRateSigned) */\n      jump\t// in\n    tag_281:\n        /* \"contracts/CMMDPolicy.sol\":8396:8487  int256 normalizedRate = SafeMathInt.div(SafeMathInt.mul(int256(rate),ONE),targetRateSigned) */\n      swap1\n      pop\n        /* \"contracts/CMMDPolicy.sol\":8497:8520  int256 rebasePercentage */\n      0x00\n        /* \"contracts/CMMDPolicy.sol\":8523:8704  computeRebasePercentage(... */\n      tag_284\n        /* \"contracts/CMMDPolicy.sol\":8560:8574  normalizedRate */\n      dup3\n        /* \"contracts/CMMDPolicy.sol\":8588:8617  rebaseFunctionLowerPercentage */\n      sload(0x08)\n        /* \"contracts/CMMDPolicy.sol\":8631:8660  rebaseFunctionUpperPercentage */\n      sload(0x09)\n        /* \"contracts/CMMDPolicy.sol\":8674:8694  rebaseFunctionGrowth */\n      sload(0x0a)\n        /* \"contracts/CMMDPolicy.sol\":8523:8546  computeRebasePercentage */\n      tag_29\n        /* \"contracts/CMMDPolicy.sol\":8523:8704  computeRebasePercentage(... */\n      jump\t// in\n    tag_284:\n        /* \"contracts/CMMDPolicy.sol\":8497:8704  int256 rebasePercentage = computeRebasePercentage(... */\n      swap1\n      pop\n        /* \"contracts/CMMDPolicy.sol\":8722:8805  SafeMathInt.div(SafeMathInt.mul(int256(cmmd.totalSupply()),rebasePercentage),(ONE)) */\n      tag_285\n        /* \"contracts/CMMDPolicy.sol\":8738:8798  SafeMathInt.mul(int256(cmmd.totalSupply()),rebasePercentage) */\n      tag_286\n        /* \"contracts/CMMDPolicy.sol\":8761:8765  cmmd */\n      0x02\n      0x00\n      swap1\n      sload\n      swap1\n      0x0100\n      exp\n      swap1\n      div\n      0xffffffffffffffffffffffffffffffffffffffff\n      and\n        /* \"contracts/CMMDPolicy.sol\":8761:8777  cmmd.totalSupply */\n      0xffffffffffffffffffffffffffffffffffffffff\n      and\n      0x18160ddd\n        /* \"contracts/CMMDPolicy.sol\":8761:8779  cmmd.totalSupply() */\n      mload(0x40)\n      dup2\n      0xffffffff\n      and\n      0xe0\n      shl\n      dup2\n      mstore\n      0x04\n      add\n      0x20\n      mload(0x40)\n      dup1\n      dup4\n      sub\n      dup2\n      dup7\n      dup1\n      extcodesize\n      iszero\n      dup1\n      iszero\n      tag_287\n      jumpi\n      0x00\n      dup1\n      revert\n    tag_287:\n      pop\n      gas\n      staticcall\n      iszero\n      dup1\n      iszero\n      tag_289\n      jumpi\n      returndatasize\n      0x00\n      dup1\n      returndatacopy\n      revert(0x00, returndatasize)\n    tag_289:\n      pop\n      pop\n      pop\n      pop\n      mload(0x40)\n      returndatasize\n      not(0x1f)\n      0x1f\n      dup3\n      add\n      and\n      dup3\n      add\n      dup1\n      0x40\n      mstore\n      pop\n      dup2\n      add\n      swap1\n      tag_290\n      swap2\n      swap1\n      tag_181\n      jump\t// in\n    tag_290:\n        /* \"contracts/CMMDPolicy.sol\":8781:8797  rebasePercentage */\n      dup4\n        /* \"contracts/CMMDPolicy.sol\":8738:8753  SafeMathInt.mul */\n      tag_103\n        /* \"contracts/CMMDPolicy.sol\":8738:8798  SafeMathInt.mul(int256(cmmd.totalSupply()),rebasePercentage) */\n      jump\t// in\n    tag_286:\n        /* \"contracts/CMMDPolicy.sol\":1931:1933  18 */\n      0x12\n        /* \"contracts/CMMDPolicy.sol\":2585:2587  10 */\n      0x0a\n        /* \"contracts/CMMDPolicy.sol\":2585:2597  10**DECIMALS */\n      tag_291\n      swap2\n      swap1\n      tag_99\n      jump\t// in\n    tag_291:\n        /* \"contracts/CMMDPolicy.sol\":8722:8737  SafeMathInt.div */\n      tag_105\n        /* \"contracts/CMMDPolicy.sol\":8722:8805  SafeMathInt.div(SafeMathInt.mul(int256(cmmd.totalSupply()),rebasePercentage),(ONE)) */\n      jump\t// in\n    tag_285:\n        /* \"contracts/CMMDPolicy.sol\":8715:8805  return SafeMathInt.div(SafeMathInt.mul(int256(cmmd.totalSupply()),rebasePercentage),(ONE)) */\n      swap4\n      pop\n      pop\n      pop\n      pop\n        /* \"contracts/CMMDPolicy.sol\":8149:8812  function computeSupplyDelta(uint256 rate, uint256 targetRate) internal view returns (int256) {... */\n    tag_277:\n      swap3\n      swap2\n      pop\n      pop\n      jump\t// out\n        /* \"contracts/SafeMathInt.sol\":2742:2868  function abs(int256 a) internal pure returns (int256) {... */\n    tag_246:\n        /* \"contracts/SafeMathInt.sol\":2788:2794  int256 */\n      0x00\n        /* \"contracts/SafeMathInt.sol\":1348:1351  255 */\n      0xff\n        /* \"contracts/SafeMathInt.sol\":1342:1343  1 */\n      0x01\n        /* \"contracts/SafeMathInt.sol\":1335:1351  int256(1) << 255 */\n      swap1\n      shl\n        /* \"contracts/SafeMathInt.sol\":2814:2815  a */\n      dup3\n        /* \"contracts/SafeMathInt.sol\":2814:2829  a != MIN_INT256 */\n      eq\n      iszero\n        /* \"contracts/SafeMathInt.sol\":2806:2830  require(a != MIN_INT256) */\n      tag_293\n      jumpi\n      0x00\n      dup1\n      revert\n    tag_293:\n        /* \"contracts/SafeMathInt.sol\":2851:2852  0 */\n      0x00\n        /* \"contracts/SafeMathInt.sol\":2847:2848  a */\n      dup3\n        /* \"contracts/SafeMathInt.sol\":2847:2852  a < 0 */\n      slt\n        /* \"contracts/SafeMathInt.sol\":2847:2861  a < 0 ? -a : a */\n      tag_294\n      jumpi\n        /* \"contracts/SafeMathInt.sol\":2860:2861  a */\n      dup2\n        /* \"contracts/SafeMathInt.sol\":2847:2861  a < 0 ? -a : a */\n      jump(tag_295)\n    tag_294:\n        /* \"contracts/SafeMathInt.sol\":2856:2857  a */\n      dup2\n        /* \"contracts/SafeMathInt.sol\":2855:2857  -a */\n      tag_296\n      swap1\n      tag_297\n      jump\t// in\n    tag_296:\n        /* \"contracts/SafeMathInt.sol\":2847:2861  a < 0 ? -a : a */\n    tag_295:\n        /* \"contracts/SafeMathInt.sol\":2840:2861  return a < 0 ? -a : a */\n      swap1\n      pop\n        /* \"contracts/SafeMathInt.sol\":2742:2868  function abs(int256 a) internal pure returns (int256) {... */\n      swap2\n      swap1\n      pop\n      jump\t// out\n        /* \"contracts/CMMDPolicy.sol\":9137:9597  function withinDeviationThreshold(uint256 rate, uint256 targetRate)... */\n    tag_279:\n        /* \"contracts/CMMDPolicy.sol\":9252:9256  bool */\n      0x00\n        /* \"contracts/CMMDPolicy.sol\":9272:9306  uint256 absoluteDeviationThreshold */\n      dup1\n        /* \"contracts/CMMDPolicy.sol\":9309:9379  SafeMath.div(SafeMath.mul(targetRate,deviationThreshold),10**DECIMALS) */\n      tag_299\n        /* \"contracts/CMMDPolicy.sol\":9322:9365  SafeMath.mul(targetRate,deviationThreshold) */\n      tag_300\n        /* \"contracts/CMMDPolicy.sol\":9335:9345  targetRate */\n      dup5\n        /* \"contracts/CMMDPolicy.sol\":9346:9364  deviationThreshold */\n      sload(0x06)\n        /* \"contracts/CMMDPolicy.sol\":9322:9334  SafeMath.mul */\n      tag_157\n        /* \"contracts/CMMDPolicy.sol\":9322:9365  SafeMath.mul(targetRate,deviationThreshold) */\n      jump\t// in\n    tag_300:\n        /* \"contracts/CMMDPolicy.sol\":1931:1933  18 */\n      0x12\n        /* \"contracts/CMMDPolicy.sol\":9366:9368  10 */\n      0x0a\n        /* \"contracts/CMMDPolicy.sol\":9366:9378  10**DECIMALS */\n      tag_301\n      swap2\n      swap1\n      tag_99\n      jump\t// in\n    tag_301:\n        /* \"contracts/CMMDPolicy.sol\":9309:9321  SafeMath.div */\n      tag_158\n        /* \"contracts/CMMDPolicy.sol\":9309:9379  SafeMath.div(SafeMath.mul(targetRate,deviationThreshold),10**DECIMALS) */\n      jump\t// in\n    tag_299:\n        /* \"contracts/CMMDPolicy.sol\":9272:9379  uint256 absoluteDeviationThreshold = SafeMath.div(SafeMath.mul(targetRate,deviationThreshold),10**DECIMALS) */\n      swap1\n      pop\n        /* \"contracts/CMMDPolicy.sol\":9420:9430  targetRate */\n      dup3\n        /* \"contracts/CMMDPolicy.sol\":9412:9416  rate */\n      dup5\n        /* \"contracts/CMMDPolicy.sol\":9412:9430  rate >= targetRate */\n      lt\n      iszero\n        /* \"contracts/CMMDPolicy.sol\":9412:9492  rate >= targetRate && SafeMath.sub(rate,targetRate) < absoluteDeviationThreshold */\n      dup1\n      iszero\n      tag_302\n      jumpi\n      pop\n        /* \"contracts/CMMDPolicy.sol\":9466:9492  absoluteDeviationThreshold */\n      dup1\n        /* \"contracts/CMMDPolicy.sol\":9434:9463  SafeMath.sub(rate,targetRate) */\n      tag_303\n        /* \"contracts/CMMDPolicy.sol\":9447:9451  rate */\n      dup6\n        /* \"contracts/CMMDPolicy.sol\":9452:9462  targetRate */\n      dup6\n        /* \"contracts/CMMDPolicy.sol\":9434:9446  SafeMath.sub */\n      tag_304\n        /* \"contracts/CMMDPolicy.sol\":9434:9463  SafeMath.sub(rate,targetRate) */\n      jump\t// in\n    tag_303:\n        /* \"contracts/CMMDPolicy.sol\":9434:9492  SafeMath.sub(rate,targetRate) < absoluteDeviationThreshold */\n      lt\n        /* \"contracts/CMMDPolicy.sol\":9412:9492  rate >= targetRate && SafeMath.sub(rate,targetRate) < absoluteDeviationThreshold */\n    tag_302:\n        /* \"contracts/CMMDPolicy.sol\":9411:9590  (rate >= targetRate && SafeMath.sub(rate,targetRate) < absoluteDeviationThreshold) ||... */\n      dup1\n      tag_305\n      jumpi\n      pop\n        /* \"contracts/CMMDPolicy.sol\":9517:9527  targetRate */\n      dup3\n        /* \"contracts/CMMDPolicy.sol\":9510:9514  rate */\n      dup5\n        /* \"contracts/CMMDPolicy.sol\":9510:9527  rate < targetRate */\n      lt\n        /* \"contracts/CMMDPolicy.sol\":9510:9589  rate < targetRate && SafeMath.sub(targetRate,rate) < absoluteDeviationThreshold */\n      dup1\n      iszero\n      tag_306\n      jumpi\n      pop\n        /* \"contracts/CMMDPolicy.sol\":9563:9589  absoluteDeviationThreshold */\n      dup1\n        /* \"contracts/CMMDPolicy.sol\":9531:9560  SafeMath.sub(targetRate,rate) */\n      tag_307\n        /* \"contracts/CMMDPolicy.sol\":9544:9554  targetRate */\n      dup5\n        /* \"contracts/CMMDPolicy.sol\":9555:9559  rate */\n      dup7\n        /* \"contracts/CMMDPolicy.sol\":9531:9543  SafeMath.sub */\n      tag_304\n        /* \"contracts/CMMDPolicy.sol\":9531:9560  SafeMath.sub(targetRate,rate) */\n      jump\t// in\n    tag_307:\n        /* \"contracts/CMMDPolicy.sol\":9531:9589  SafeMath.sub(targetRate,rate) < absoluteDeviationThreshold */\n      lt\n        /* \"contracts/CMMDPolicy.sol\":9510:9589  rate < targetRate && SafeMath.sub(targetRate,rate) < absoluteDeviationThreshold */\n    tag_306:\n        /* \"contracts/CMMDPolicy.sol\":9411:9590  (rate >= targetRate && SafeMath.sub(rate,targetRate) < absoluteDeviationThreshold) ||... */\n    tag_305:\n        /* \"contracts/CMMDPolicy.sol\":9392:9590  return... */\n      swap2\n      pop\n      pop\n        /* \"contracts/CMMDPolicy.sol\":9137:9597  function withinDeviationThreshold(uint256 rate, uint256 targetRate)... */\n      swap3\n      swap2\n      pop\n      pop\n      jump\t// out\n        /* \"contracts/SafeMath.sol\":1163:1308  function sub(uint256 a, uint256 b) internal pure returns (uint256) {... */\n    tag_304:\n        /* \"contracts/SafeMath.sol\":1221:1228  uint256 */\n      0x00\n        /* \"contracts/SafeMath.sol\":1253:1254  a */\n      dup3\n        /* \"contracts/SafeMath.sol\":1248:1249  b */\n      dup3\n        /* \"contracts/SafeMath.sol\":1248:1254  b <= a */\n      gt\n      iszero\n        /* \"contracts/SafeMath.sol\":1240:1255  require(b <= a) */\n      tag_309\n      jumpi\n      0x00\n      dup1\n      revert\n    tag_309:\n        /* \"contracts/SafeMath.sol\":1265:1274  uint256 c */\n      0x00\n        /* \"contracts/SafeMath.sol\":1281:1282  b */\n      dup3\n        /* \"contracts/SafeMath.sol\":1277:1278  a */\n      dup5\n        /* \"contracts/SafeMath.sol\":1277:1282  a - b */\n      tag_310\n      swap2\n      swap1\n      tag_192\n      jump\t// in\n    tag_310:\n        /* \"contracts/SafeMath.sol\":1265:1282  uint256 c = a - b */\n      swap1\n      pop\n        /* \"contracts/SafeMath.sol\":1300:1301  c */\n      dup1\n        /* \"contracts/SafeMath.sol\":1293:1301  return c */\n      swap2\n      pop\n      pop\n        /* \"contracts/SafeMath.sol\":1163:1308  function sub(uint256 a, uint256 b) internal pure returns (uint256) {... */\n      swap3\n      swap2\n      pop\n      pop\n      jump\t// out\n        /* \"#utility.yul\":7:162   */\n    tag_312:\n        /* \"#utility.yul\":61:66   */\n      0x00\n        /* \"#utility.yul\":99:105   */\n      dup2\n        /* \"#utility.yul\":86:106   */\n      calldataload\n        /* \"#utility.yul\":77:106   */\n      swap1\n      pop\n        /* \"#utility.yul\":115:156   */\n      tag_314\n        /* \"#utility.yul\":150:155   */\n      dup2\n        /* \"#utility.yul\":115:156   */\n      tag_315\n      jump\t// in\n    tag_314:\n        /* \"#utility.yul\":7:162   */\n      swap3\n      swap2\n      pop\n      pop\n      jump\t// out\n        /* \"#utility.yul\":168:305   */\n    tag_316:\n        /* \"#utility.yul\":222:227   */\n      0x00\n        /* \"#utility.yul\":253:259   */\n      dup2\n        /* \"#utility.yul\":247:260   */\n      mload\n        /* \"#utility.yul\":238:260   */\n      swap1\n      pop\n        /* \"#utility.yul\":269:299   */\n      tag_318\n        /* \"#utility.yul\":293:298   */\n      dup2\n        /* \"#utility.yul\":269:299   */\n      tag_319\n      jump\t// in\n    tag_318:\n        /* \"#utility.yul\":168:305   */\n      swap3\n      swap2\n      pop\n      pop\n      jump\t// out\n        /* \"#utility.yul\":311:474   */\n    tag_320:\n        /* \"#utility.yul\":369:374   */\n      0x00\n        /* \"#utility.yul\":407:413   */\n      dup2\n        /* \"#utility.yul\":394:414   */\n      calldataload\n        /* \"#utility.yul\":385:414   */\n      swap1\n      pop\n        /* \"#utility.yul\":423:468   */\n      tag_322\n        /* \"#utility.yul\":462:467   */\n      dup2\n        /* \"#utility.yul\":423:468   */\n      tag_323\n      jump\t// in\n    tag_322:\n        /* \"#utility.yul\":311:474   */\n      swap3\n      swap2\n      pop\n      pop\n      jump\t// out\n        /* \"#utility.yul\":480:647   */\n    tag_324:\n        /* \"#utility.yul\":540:545   */\n      0x00\n        /* \"#utility.yul\":578:584   */\n      dup2\n        /* \"#utility.yul\":565:585   */\n      calldataload\n        /* \"#utility.yul\":556:585   */\n      swap1\n      pop\n        /* \"#utility.yul\":594:641   */\n      tag_326\n        /* \"#utility.yul\":635:640   */\n      dup2\n        /* \"#utility.yul\":594:641   */\n      tag_327\n      jump\t// in\n    tag_326:\n        /* \"#utility.yul\":480:647   */\n      swap3\n      swap2\n      pop\n      pop\n      jump\t// out\n        /* \"#utility.yul\":653:790   */\n    tag_328:\n        /* \"#utility.yul\":698:703   */\n      0x00\n        /* \"#utility.yul\":736:742   */\n      dup2\n        /* \"#utility.yul\":723:743   */\n      calldataload\n        /* \"#utility.yul\":714:743   */\n      swap1\n      pop\n        /* \"#utility.yul\":752:784   */\n      tag_330\n        /* \"#utility.yul\":778:783   */\n      dup2\n        /* \"#utility.yul\":752:784   */\n      tag_331\n      jump\t// in\n    tag_330:\n        /* \"#utility.yul\":653:790   */\n      swap3\n      swap2\n      pop\n      pop\n      jump\t// out\n        /* \"#utility.yul\":796:935   */\n    tag_332:\n        /* \"#utility.yul\":842:847   */\n      0x00\n        /* \"#utility.yul\":880:886   */\n      dup2\n        /* \"#utility.yul\":867:887   */\n      calldataload\n        /* \"#utility.yul\":858:887   */\n      swap1\n      pop\n        /* \"#utility.yul\":896:929   */\n      tag_334\n        /* \"#utility.yul\":923:928   */\n      dup2\n        /* \"#utility.yul\":896:929   */\n      tag_335\n      jump\t// in\n    tag_334:\n        /* \"#utility.yul\":796:935   */\n      swap3\n      swap2\n      pop\n      pop\n      jump\t// out\n        /* \"#utility.yul\":941:1084   */\n    tag_336:\n        /* \"#utility.yul\":998:1003   */\n      0x00\n        /* \"#utility.yul\":1029:1035   */\n      dup2\n        /* \"#utility.yul\":1023:1036   */\n      mload\n        /* \"#utility.yul\":1014:1036   */\n      swap1\n      pop\n        /* \"#utility.yul\":1045:1078   */\n      tag_338\n        /* \"#utility.yul\":1072:1077   */\n      dup2\n        /* \"#utility.yul\":1045:1078   */\n      tag_335\n      jump\t// in\n    tag_338:\n        /* \"#utility.yul\":941:1084   */\n      swap3\n      swap2\n      pop\n      pop\n      jump\t// out\n        /* \"#utility.yul\":1090:1580   */\n    tag_59:\n        /* \"#utility.yul\":1166:1172   */\n      0x00\n        /* \"#utility.yul\":1174:1180   */\n      dup1\n        /* \"#utility.yul\":1223:1225   */\n      0x40\n        /* \"#utility.yul\":1211:1220   */\n      dup4\n        /* \"#utility.yul\":1202:1209   */\n      dup6\n        /* \"#utility.yul\":1198:1221   */\n      sub\n        /* \"#utility.yul\":1194:1226   */\n      slt\n        /* \"#utility.yul\":1191:1310   */\n      iszero\n      tag_340\n      jumpi\n        /* \"#utility.yul\":1229:1308   */\n      tag_341\n      tag_342\n      jump\t// in\n    tag_341:\n        /* \"#utility.yul\":1191:1310   */\n    tag_340:\n        /* \"#utility.yul\":1349:1350   */\n      0x00\n        /* \"#utility.yul\":1374:1435   */\n      tag_343\n        /* \"#utility.yul\":1427:1434   */\n      dup6\n        /* \"#utility.yul\":1418:1424   */\n      dup3\n        /* \"#utility.yul\":1407:1416   */\n      dup7\n        /* \"#utility.yul\":1403:1425   */\n      add\n        /* \"#utility.yul\":1374:1435   */\n      tag_312\n      jump\t// in\n    tag_343:\n        /* \"#utility.yul\":1364:1435   */\n      swap3\n      pop\n        /* \"#utility.yul\":1320:1445   */\n      pop\n        /* \"#utility.yul\":1484:1486   */\n      0x20\n        /* \"#utility.yul\":1510:1563   */\n      tag_344\n        /* \"#utility.yul\":1555:1562   */\n      dup6\n        /* \"#utility.yul\":1546:1552   */\n      dup3\n        /* \"#utility.yul\":1535:1544   */\n      dup7\n        /* \"#utility.yul\":1531:1553   */\n      add\n        /* \"#utility.yul\":1510:1563   */\n      tag_332\n      jump\t// in\n    tag_344:\n        /* \"#utility.yul\":1500:1563   */\n      swap2\n      pop\n        /* \"#utility.yul\":1455:1573   */\n      pop\n        /* \"#utility.yul\":1090:1580   */\n      swap3\n      pop\n      swap3\n      swap1\n      pop\n      jump\t// out\n        /* \"#utility.yul\":1586:2084   */\n    tag_85:\n        /* \"#utility.yul\":1666:1672   */\n      0x00\n        /* \"#utility.yul\":1674:1680   */\n      dup1\n        /* \"#utility.yul\":1723:1725   */\n      0x40\n        /* \"#utility.yul\":1711:1720   */\n      dup4\n        /* \"#utility.yul\":1702:1709   */\n      dup6\n        /* \"#utility.yul\":1698:1721   */\n      sub\n        /* \"#utility.yul\":1694:1726   */\n      slt\n        /* \"#utility.yul\":1691:1810   */\n      iszero\n      tag_346\n      jumpi\n        /* \"#utility.yul\":1729:1808   */\n      tag_347\n      tag_342\n      jump\t// in\n    tag_347:\n        /* \"#utility.yul\":1691:1810   */\n    tag_346:\n        /* \"#utility.yul\":1849:1850   */\n      0x00\n        /* \"#utility.yul\":1874:1939   */\n      tag_348\n        /* \"#utility.yul\":1931:1938   */\n      dup6\n        /* \"#utility.yul\":1922:1928   */\n      dup3\n        /* \"#utility.yul\":1911:1920   */\n      dup7\n        /* \"#utility.yul\":1907:1929   */\n      add\n        /* \"#utility.yul\":1874:1939   */\n      tag_320\n      jump\t// in\n    tag_348:\n        /* \"#utility.yul\":1864:1939   */\n      swap3\n      pop\n        /* \"#utility.yul\":1820:1949   */\n      pop\n        /* \"#utility.yul\":1988:1990   */\n      0x20\n        /* \"#utility.yul\":2014:2067   */\n      tag_349\n        /* \"#utility.yul\":2059:2066   */\n      dup6\n        /* \"#utility.yul\":2050:2056   */\n      dup3\n        /* \"#utility.yul\":2039:2048   */\n      dup7\n        /* \"#utility.yul\":2035:2057   */\n      add\n        /* \"#utility.yul\":2014:2067   */\n      tag_332\n      jump\t// in\n    tag_349:\n        /* \"#utility.yul\":2004:2067   */\n      swap2\n      pop\n        /* \"#utility.yul\":1959:2077   */\n      pop\n        /* \"#utility.yul\":1586:2084   */\n      swap3\n      pop\n      swap3\n      swap1\n      pop\n      jump\t// out\n        /* \"#utility.yul\":2090:2447   */\n    tag_34:\n        /* \"#utility.yul\":2163:2169   */\n      0x00\n        /* \"#utility.yul\":2212:2214   */\n      0x20\n        /* \"#utility.yul\":2200:2209   */\n      dup3\n        /* \"#utility.yul\":2191:2198   */\n      dup5\n        /* \"#utility.yul\":2187:2210   */\n      sub\n        /* \"#utility.yul\":2183:2215   */\n      slt\n        /* \"#utility.yul\":2180:2299   */\n      iszero\n      tag_351\n      jumpi\n        /* \"#utility.yul\":2218:2297   */\n      tag_352\n      tag_342\n      jump\t// in\n    tag_352:\n        /* \"#utility.yul\":2180:2299   */\n    tag_351:\n        /* \"#utility.yul\":2338:2339   */\n      0x00\n        /* \"#utility.yul\":2363:2430   */\n      tag_353\n        /* \"#utility.yul\":2422:2429   */\n      dup5\n        /* \"#utility.yul\":2413:2419   */\n      dup3\n        /* \"#utility.yul\":2402:2411   */\n      dup6\n        /* \"#utility.yul\":2398:2420   */\n      add\n        /* \"#utility.yul\":2363:2430   */\n      tag_324\n      jump\t// in\n    tag_353:\n        /* \"#utility.yul\":2353:2430   */\n      swap2\n      pop\n        /* \"#utility.yul\":2309:2440   */\n      pop\n        /* \"#utility.yul\":2090:2447   */\n      swap3\n      swap2\n      pop\n      pop\n      jump\t// out\n        /* \"#utility.yul\":2453:2780   */\n    tag_63:\n        /* \"#utility.yul\":2511:2517   */\n      0x00\n        /* \"#utility.yul\":2560:2562   */\n      0x20\n        /* \"#utility.yul\":2548:2557   */\n      dup3\n        /* \"#utility.yul\":2539:2546   */\n      dup5\n        /* \"#utility.yul\":2535:2558   */\n      sub\n        /* \"#utility.yul\":2531:2563   */\n      slt\n        /* \"#utility.yul\":2528:2647   */\n      iszero\n      tag_355\n      jumpi\n        /* \"#utility.yul\":2566:2645   */\n      tag_356\n      tag_342\n      jump\t// in\n    tag_356:\n        /* \"#utility.yul\":2528:2647   */\n    tag_355:\n        /* \"#utility.yul\":2686:2687   */\n      0x00\n        /* \"#utility.yul\":2711:2763   */\n      tag_357\n        /* \"#utility.yul\":2755:2762   */\n      dup5\n        /* \"#utility.yul\":2746:2752   */\n      dup3\n        /* \"#utility.yul\":2735:2744   */\n      dup6\n        /* \"#utility.yul\":2731:2753   */\n      add\n        /* \"#utility.yul\":2711:2763   */\n      tag_328\n      jump\t// in\n    tag_357:\n        /* \"#utility.yul\":2701:2763   */\n      swap2\n      pop\n        /* \"#utility.yul\":2657:2773   */\n      pop\n        /* \"#utility.yul\":2453:2780   */\n      swap3\n      swap2\n      pop\n      pop\n      jump\t// out\n        /* \"#utility.yul\":2786:3543   */\n    tag_28:\n        /* \"#utility.yul\":2868:2874   */\n      0x00\n        /* \"#utility.yul\":2876:2882   */\n      dup1\n        /* \"#utility.yul\":2884:2890   */\n      0x00\n        /* \"#utility.yul\":2892:2898   */\n      dup1\n        /* \"#utility.yul\":2941:2944   */\n      0x80\n        /* \"#utility.yul\":2929:2938   */\n      dup6\n        /* \"#utility.yul\":2920:2927   */\n      dup8\n        /* \"#utility.yul\":2916:2939   */\n      sub\n        /* \"#utility.yul\":2912:2945   */\n      slt\n        /* \"#utility.yul\":2909:3029   */\n      iszero\n      tag_359\n      jumpi\n        /* \"#utility.yul\":2948:3027   */\n      tag_360\n      tag_342\n      jump\t// in\n    tag_360:\n        /* \"#utility.yul\":2909:3029   */\n    tag_359:\n        /* \"#utility.yul\":3068:3069   */\n      0x00\n        /* \"#utility.yul\":3093:3145   */\n      tag_361\n        /* \"#utility.yul\":3137:3144   */\n      dup8\n        /* \"#utility.yul\":3128:3134   */\n      dup3\n        /* \"#utility.yul\":3117:3126   */\n      dup9\n        /* \"#utility.yul\":3113:3135   */\n      add\n        /* \"#utility.yul\":3093:3145   */\n      tag_328\n      jump\t// in\n    tag_361:\n        /* \"#utility.yul\":3083:3145   */\n      swap5\n      pop\n        /* \"#utility.yul\":3039:3155   */\n      pop\n        /* \"#utility.yul\":3194:3196   */\n      0x20\n        /* \"#utility.yul\":3220:3272   */\n      tag_362\n        /* \"#utility.yul\":3264:3271   */\n      dup8\n        /* \"#utility.yul\":3255:3261   */\n      dup3\n        /* \"#utility.yul\":3244:3253   */\n      dup9\n        /* \"#utility.yul\":3240:3262   */\n      add\n        /* \"#utility.yul\":3220:3272   */\n      tag_328\n      jump\t// in\n    tag_362:\n        /* \"#utility.yul\":3210:3272   */\n      swap4\n      pop\n        /* \"#utility.yul\":3165:3282   */\n      pop\n        /* \"#utility.yul\":3321:3323   */\n      0x40\n        /* \"#utility.yul\":3347:3399   */\n      tag_363\n        /* \"#utility.yul\":3391:3398   */\n      dup8\n        /* \"#utility.yul\":3382:3388   */\n      dup3\n        /* \"#utility.yul\":3371:3380   */\n      dup9\n        /* \"#utility.yul\":3367:3389   */\n      add\n        /* \"#utility.yul\":3347:3399   */\n      tag_328\n      jump\t// in\n    tag_363:\n        /* \"#utility.yul\":3337:3399   */\n      swap3\n      pop\n        /* \"#utility.yul\":3292:3409   */\n      pop\n        /* \"#utility.yul\":3448:3450   */\n      0x60\n        /* \"#utility.yul\":3474:3526   */\n      tag_364\n        /* \"#utility.yul\":3518:3525   */\n      dup8\n        /* \"#utility.yul\":3509:3515   */\n      dup3\n        /* \"#utility.yul\":3498:3507   */\n      dup9\n        /* \"#utility.yul\":3494:3516   */\n      add\n        /* \"#utility.yul\":3474:3526   */\n      tag_328\n      jump\t// in\n    tag_364:\n        /* \"#utility.yul\":3464:3526   */\n      swap2\n      pop\n        /* \"#utility.yul\":3419:3536   */\n      pop\n        /* \"#utility.yul\":2786:3543   */\n      swap3\n      swap6\n      swap2\n      swap5\n      pop\n      swap3\n      pop\n      jump\t// out\n        /* \"#utility.yul\":3549:3878   */\n    tag_42:\n        /* \"#utility.yul\":3608:3614   */\n      0x00\n        /* \"#utility.yul\":3657:3659   */\n      0x20\n        /* \"#utility.yul\":3645:3654   */\n      dup3\n        /* \"#utility.yul\":3636:3643   */\n      dup5\n        /* \"#utility.yul\":3632:3655   */\n      sub\n        /* \"#utility.yul\":3628:3660   */\n      slt\n        /* \"#utility.yul\":3625:3744   */\n      iszero\n      tag_366\n      jumpi\n        /* \"#utility.yul\":3663:3742   */\n      tag_367\n      tag_342\n      jump\t// in\n    tag_367:\n        /* \"#utility.yul\":3625:3744   */\n    tag_366:\n        /* \"#utility.yul\":3783:3784   */\n      0x00\n        /* \"#utility.yul\":3808:3861   */\n      tag_368\n        /* \"#utility.yul\":3853:3860   */\n      dup5\n        /* \"#utility.yul\":3844:3850   */\n      dup3\n        /* \"#utility.yul\":3833:3842   */\n      dup6\n        /* \"#utility.yul\":3829:3851   */\n      add\n        /* \"#utility.yul\":3808:3861   */\n      tag_332\n      jump\t// in\n    tag_368:\n        /* \"#utility.yul\":3798:3861   */\n      swap2\n      pop\n        /* \"#utility.yul\":3754:3871   */\n      pop\n        /* \"#utility.yul\":3549:3878   */\n      swap3\n      swap2\n      pop\n      pop\n      jump\t// out\n        /* \"#utility.yul\":3884:4235   */\n    tag_181:\n        /* \"#utility.yul\":3954:3960   */\n      0x00\n        /* \"#utility.yul\":4003:4005   */\n      0x20\n        /* \"#utility.yul\":3991:4000   */\n      dup3\n        /* \"#utility.yul\":3982:3989   */\n      dup5\n        /* \"#utility.yul\":3978:4001   */\n      sub\n        /* \"#utility.yul\":3974:4006   */\n      slt\n        /* \"#utility.yul\":3971:4090   */\n      iszero\n      tag_370\n      jumpi\n        /* \"#utility.yul\":4009:4088   */\n      tag_371\n      tag_342\n      jump\t// in\n    tag_371:\n        /* \"#utility.yul\":3971:4090   */\n    tag_370:\n        /* \"#utility.yul\":4129:4130   */\n      0x00\n        /* \"#utility.yul\":4154:4218   */\n      tag_372\n        /* \"#utility.yul\":4210:4217   */\n      dup5\n        /* \"#utility.yul\":4201:4207   */\n      dup3\n        /* \"#utility.yul\":4190:4199   */\n      dup6\n        /* \"#utility.yul\":4186:4208   */\n      add\n        /* \"#utility.yul\":4154:4218   */\n      tag_336\n      jump\t// in\n    tag_372:\n        /* \"#utility.yul\":4144:4218   */\n      swap2\n      pop\n        /* \"#utility.yul\":4100:4228   */\n      pop\n        /* \"#utility.yul\":3884:4235   */\n      swap3\n      swap2\n      pop\n      pop\n      jump\t// out\n        /* \"#utility.yul\":4241:4742   */\n    tag_152:\n        /* \"#utility.yul\":4317:4323   */\n      0x00\n        /* \"#utility.yul\":4325:4331   */\n      dup1\n        /* \"#utility.yul\":4374:4376   */\n      0x40\n        /* \"#utility.yul\":4362:4371   */\n      dup4\n        /* \"#utility.yul\":4353:4360   */\n      dup6\n        /* \"#utility.yul\":4349:4372   */\n      sub\n        /* \"#utility.yul\":4345:4377   */\n      slt\n        /* \"#utility.yul\":4342:4461   */\n      iszero\n      tag_374\n      jumpi\n        /* \"#utility.yul\":4380:4459   */\n      tag_375\n      tag_342\n      jump\t// in\n    tag_375:\n        /* \"#utility.yul\":4342:4461   */\n    tag_374:\n        /* \"#utility.yul\":4500:4501   */\n      0x00\n        /* \"#utility.yul\":4525:4589   */\n      tag_376\n        /* \"#utility.yul\":4581:4588   */\n      dup6\n        /* \"#utility.yul\":4572:4578   */\n      dup3\n        /* \"#utility.yul\":4561:4570   */\n      dup7\n        /* \"#utility.yul\":4557:4579   */\n      add\n        /* \"#utility.yul\":4525:4589   */\n      tag_336\n      jump\t// in\n    tag_376:\n        /* \"#utility.yul\":4515:4589   */\n      swap3\n      pop\n        /* \"#utility.yul\":4471:4599   */\n      pop\n        /* \"#utility.yul\":4638:4640   */\n      0x20\n        /* \"#utility.yul\":4664:4725   */\n      tag_377\n        /* \"#utility.yul\":4717:4724   */\n      dup6\n        /* \"#utility.yul\":4708:4714   */\n      dup3\n        /* \"#utility.yul\":4697:4706   */\n      dup7\n        /* \"#utility.yul\":4693:4715   */\n      add\n        /* \"#utility.yul\":4664:4725   */\n      tag_316\n      jump\t// in\n    tag_377:\n        /* \"#utility.yul\":4654:4725   */\n      swap2\n      pop\n        /* \"#utility.yul\":4609:4735   */\n      pop\n        /* \"#utility.yul\":4241:4742   */\n      swap3\n      pop\n      swap3\n      swap1\n      pop\n      jump\t// out\n        /* \"#utility.yul\":4748:4895   */\n    tag_378:\n        /* \"#utility.yul\":4843:4888   */\n      tag_380\n        /* \"#utility.yul\":4882:4887   */\n      dup2\n        /* \"#utility.yul\":4843:4888   */\n      tag_381\n      jump\t// in\n    tag_380:\n        /* \"#utility.yul\":4838:4841   */\n      dup3\n        /* \"#utility.yul\":4831:4889   */\n      mstore\n        /* \"#utility.yul\":4748:4895   */\n      pop\n      pop\n      jump\t// out\n        /* \"#utility.yul\":4901:5019   */\n    tag_382:\n        /* \"#utility.yul\":4988:5012   */\n      tag_384\n        /* \"#utility.yul\":5006:5011   */\n      dup2\n        /* \"#utility.yul\":4988:5012   */\n      tag_385\n      jump\t// in\n    tag_384:\n        /* \"#utility.yul\":4983:4986   */\n      dup3\n        /* \"#utility.yul\":4976:5013   */\n      mstore\n        /* \"#utility.yul\":4901:5019   */\n      pop\n      pop\n      jump\t// out\n        /* \"#utility.yul\":5025:5180   */\n    tag_386:\n        /* \"#utility.yul\":5124:5173   */\n      tag_388\n        /* \"#utility.yul\":5167:5172   */\n      dup2\n        /* \"#utility.yul\":5124:5173   */\n      tag_389\n      jump\t// in\n    tag_388:\n        /* \"#utility.yul\":5119:5122   */\n      dup3\n        /* \"#utility.yul\":5112:5174   */\n      mstore\n        /* \"#utility.yul\":5025:5180   */\n      pop\n      pop\n      jump\t// out\n        /* \"#utility.yul\":5186:5345   */\n    tag_390:\n        /* \"#utility.yul\":5287:5338   */\n      tag_392\n        /* \"#utility.yul\":5332:5337   */\n      dup2\n        /* \"#utility.yul\":5287:5338   */\n      tag_393\n      jump\t// in\n    tag_392:\n        /* \"#utility.yul\":5282:5285   */\n      dup3\n        /* \"#utility.yul\":5275:5339   */\n      mstore\n        /* \"#utility.yul\":5186:5345   */\n      pop\n      pop\n      jump\t// out\n        /* \"#utility.yul\":5351:5466   */\n    tag_394:\n        /* \"#utility.yul\":5436:5459   */\n      tag_396\n        /* \"#utility.yul\":5453:5458   */\n      dup2\n        /* \"#utility.yul\":5436:5459   */\n      tag_397\n      jump\t// in\n    tag_396:\n        /* \"#utility.yul\":5431:5434   */\n      dup3\n        /* \"#utility.yul\":5424:5460   */\n      mstore\n        /* \"#utility.yul\":5351:5466   */\n      pop\n      pop\n      jump\t// out\n        /* \"#utility.yul\":5472:5590   */\n    tag_398:\n        /* \"#utility.yul\":5559:5583   */\n      tag_400\n        /* \"#utility.yul\":5577:5582   */\n      dup2\n        /* \"#utility.yul\":5559:5583   */\n      tag_401\n      jump\t// in\n    tag_400:\n        /* \"#utility.yul\":5554:5557   */\n      dup3\n        /* \"#utility.yul\":5547:5584   */\n      mstore\n        /* \"#utility.yul\":5472:5590   */\n      pop\n      pop\n      jump\t// out\n        /* \"#utility.yul\":5596:6165   */\n    tag_142:\n        /* \"#utility.yul\":5781:5785   */\n      0x00\n        /* \"#utility.yul\":5819:5822   */\n      0x80\n        /* \"#utility.yul\":5808:5817   */\n      dup3\n        /* \"#utility.yul\":5804:5823   */\n      add\n        /* \"#utility.yul\":5796:5823   */\n      swap1\n      pop\n        /* \"#utility.yul\":5833:5904   */\n      tag_403\n        /* \"#utility.yul\":5901:5902   */\n      0x00\n        /* \"#utility.yul\":5890:5899   */\n      dup4\n        /* \"#utility.yul\":5886:5903   */\n      add\n        /* \"#utility.yul\":5877:5883   */\n      dup8\n        /* \"#utility.yul\":5833:5904   */\n      tag_382\n      jump\t// in\n    tag_403:\n        /* \"#utility.yul\":5914:5994   */\n      tag_404\n        /* \"#utility.yul\":5990:5992   */\n      0x20\n        /* \"#utility.yul\":5979:5988   */\n      dup4\n        /* \"#utility.yul\":5975:5993   */\n      add\n        /* \"#utility.yul\":5966:5972   */\n      dup7\n        /* \"#utility.yul\":5914:5994   */\n      tag_378\n      jump\t// in\n    tag_404:\n        /* \"#utility.yul\":6004:6076   */\n      tag_405\n        /* \"#utility.yul\":6072:6074   */\n      0x40\n        /* \"#utility.yul\":6061:6070   */\n      dup4\n        /* \"#utility.yul\":6057:6075   */\n      add\n        /* \"#utility.yul\":6048:6054   */\n      dup6\n        /* \"#utility.yul\":6004:6076   */\n      tag_398\n      jump\t// in\n    tag_405:\n        /* \"#utility.yul\":6086:6158   */\n      tag_406\n        /* \"#utility.yul\":6154:6156   */\n      0x60\n        /* \"#utility.yul\":6143:6152   */\n      dup4\n        /* \"#utility.yul\":6139:6157   */\n      add\n        /* \"#utility.yul\":6130:6136   */\n      dup5\n        /* \"#utility.yul\":6086:6158   */\n      tag_398\n      jump\t// in\n    tag_406:\n        /* \"#utility.yul\":5596:6165   */\n      swap6\n      swap5\n      pop\n      pop\n      pop\n      pop\n      pop\n      jump\t// out\n        /* \"#utility.yul\":6171:6417   */\n    tag_39:\n        /* \"#utility.yul\":6276:6280   */\n      0x00\n        /* \"#utility.yul\":6314:6316   */\n      0x20\n        /* \"#utility.yul\":6303:6312   */\n      dup3\n        /* \"#utility.yul\":6299:6317   */\n      add\n        /* \"#utility.yul\":6291:6317   */\n      swap1\n      pop\n        /* \"#utility.yul\":6327:6410   */\n      tag_408\n        /* \"#utility.yul\":6407:6408   */\n      0x00\n        /* \"#utility.yul\":6396:6405   */\n      dup4\n        /* \"#utility.yul\":6392:6409   */\n      add\n        /* \"#utility.yul\":6383:6389   */\n      dup5\n        /* \"#utility.yul\":6327:6410   */\n      tag_386\n      jump\t// in\n    tag_408:\n        /* \"#utility.yul\":6171:6417   */\n      swap3\n      swap2\n      pop\n      pop\n      jump\t// out\n        /* \"#utility.yul\":6423:6673   */\n    tag_50:\n        /* \"#utility.yul\":6530:6534   */\n      0x00\n        /* \"#utility.yul\":6568:6570   */\n      0x20\n        /* \"#utility.yul\":6557:6566   */\n      dup3\n        /* \"#utility.yul\":6553:6571   */\n      add\n        /* \"#utility.yul\":6545:6571   */\n      swap1\n      pop\n        /* \"#utility.yul\":6581:6666   */\n      tag_410\n        /* \"#utility.yul\":6663:6664   */\n      0x00\n        /* \"#utility.yul\":6652:6661   */\n      dup4\n        /* \"#utility.yul\":6648:6665   */\n      add\n        /* \"#utility.yul\":6639:6645   */\n      dup5\n        /* \"#utility.yul\":6581:6666   */\n      tag_390\n      jump\t// in\n    tag_410:\n        /* \"#utility.yul\":6423:6673   */\n      swap3\n      swap2\n      pop\n      pop\n      jump\t// out\n        /* \"#utility.yul\":6679:6897   */\n    tag_31:\n        /* \"#utility.yul\":6770:6774   */\n      0x00\n        /* \"#utility.yul\":6808:6810   */\n      0x20\n        /* \"#utility.yul\":6797:6806   */\n      dup3\n        /* \"#utility.yul\":6793:6811   */\n      add\n        /* \"#utility.yul\":6785:6811   */\n      swap1\n      pop\n        /* \"#utility.yul\":6821:6890   */\n      tag_412\n        /* \"#utility.yul\":6887:6888   */\n      0x00\n        /* \"#utility.yul\":6876:6885   */\n      dup4\n        /* \"#utility.yul\":6872:6889   */\n      add\n        /* \"#utility.yul\":6863:6869   */\n      dup5\n        /* \"#utility.yul\":6821:6890   */\n      tag_394\n      jump\t// in\n    tag_412:\n        /* \"#utility.yul\":6679:6897   */\n      swap3\n      swap2\n      pop\n      pop\n      jump\t// out\n        /* \"#utility.yul\":6903:7125   */\n    tag_68:\n        /* \"#utility.yul\":6996:7000   */\n      0x00\n        /* \"#utility.yul\":7034:7036   */\n      0x20\n        /* \"#utility.yul\":7023:7032   */\n      dup3\n        /* \"#utility.yul\":7019:7037   */\n      add\n        /* \"#utility.yul\":7011:7037   */\n      swap1\n      pop\n        /* \"#utility.yul\":7047:7118   */\n      tag_414\n        /* \"#utility.yul\":7115:7116   */\n      0x00\n        /* \"#utility.yul\":7104:7113   */\n      dup4\n        /* \"#utility.yul\":7100:7117   */\n      add\n        /* \"#utility.yul\":7091:7097   */\n      dup5\n        /* \"#utility.yul\":7047:7118   */\n      tag_398\n      jump\t// in\n    tag_414:\n        /* \"#utility.yul\":6903:7125   */\n      swap3\n      swap2\n      pop\n      pop\n      jump\t// out\n        /* \"#utility.yul\":7131:7459   */\n    tag_194:\n        /* \"#utility.yul\":7250:7254   */\n      0x00\n        /* \"#utility.yul\":7288:7290   */\n      0x40\n        /* \"#utility.yul\":7277:7286   */\n      dup3\n        /* \"#utility.yul\":7273:7291   */\n      add\n        /* \"#utility.yul\":7265:7291   */\n      swap1\n      pop\n        /* \"#utility.yul\":7301:7372   */\n      tag_416\n        /* \"#utility.yul\":7369:7370   */\n      0x00\n        /* \"#utility.yul\":7358:7367   */\n      dup4\n        /* \"#utility.yul\":7354:7371   */\n      add\n        /* \"#utility.yul\":7345:7351   */\n      dup6\n        /* \"#utility.yul\":7301:7372   */\n      tag_398\n      jump\t// in\n    tag_416:\n        /* \"#utility.yul\":7382:7452   */\n      tag_417\n        /* \"#utility.yul\":7448:7450   */\n      0x20\n        /* \"#utility.yul\":7437:7446   */\n      dup4\n        /* \"#utility.yul\":7433:7451   */\n      add\n        /* \"#utility.yul\":7424:7430   */\n      dup5\n        /* \"#utility.yul\":7382:7452   */\n      tag_394\n      jump\t// in\n    tag_417:\n        /* \"#utility.yul\":7131:7459   */\n      swap4\n      swap3\n      pop\n      pop\n      pop\n      jump\t// out\n        /* \"#utility.yul\":7465:8014   */\n    tag_206:\n        /* \"#utility.yul\":7640:7644   */\n      0x00\n        /* \"#utility.yul\":7678:7681   */\n      0x80\n        /* \"#utility.yul\":7667:7676   */\n      dup3\n        /* \"#utility.yul\":7663:7682   */\n      add\n        /* \"#utility.yul\":7655:7682   */\n      swap1\n      pop\n        /* \"#utility.yul\":7692:7763   */\n      tag_419\n        /* \"#utility.yul\":7760:7761   */\n      0x00\n        /* \"#utility.yul\":7749:7758   */\n      dup4\n        /* \"#utility.yul\":7745:7762   */\n      add\n        /* \"#utility.yul\":7736:7742   */\n      dup8\n        /* \"#utility.yul\":7692:7763   */\n      tag_398\n      jump\t// in\n    tag_419:\n        /* \"#utility.yul\":7773:7845   */\n      tag_420\n        /* \"#utility.yul\":7841:7843   */\n      0x20\n        /* \"#utility.yul\":7830:7839   */\n      dup4\n        /* \"#utility.yul\":7826:7844   */\n      add\n        /* \"#utility.yul\":7817:7823   */\n      dup7\n        /* \"#utility.yul\":7773:7845   */\n      tag_398\n      jump\t// in\n    tag_420:\n        /* \"#utility.yul\":7855:7925   */\n      tag_421\n        /* \"#utility.yul\":7921:7923   */\n      0x40\n        /* \"#utility.yul\":7910:7919   */\n      dup4\n        /* \"#utility.yul\":7906:7924   */\n      add\n        /* \"#utility.yul\":7897:7903   */\n      dup6\n        /* \"#utility.yul\":7855:7925   */\n      tag_394\n      jump\t// in\n    tag_421:\n        /* \"#utility.yul\":7935:8007   */\n      tag_422\n        /* \"#utility.yul\":8003:8005   */\n      0x60\n        /* \"#utility.yul\":7992:8001   */\n      dup4\n        /* \"#utility.yul\":7988:8006   */\n      add\n        /* \"#utility.yul\":7979:7985   */\n      dup5\n        /* \"#utility.yul\":7935:8007   */\n      tag_398\n      jump\t// in\n    tag_422:\n        /* \"#utility.yul\":7465:8014   */\n      swap6\n      swap5\n      pop\n      pop\n      pop\n      pop\n      pop\n      jump\t// out\n        /* \"#utility.yul\":8101:8626   */\n    tag_133:\n        /* \"#utility.yul\":8140:8143   */\n      0x00\n        /* \"#utility.yul\":8159:8178   */\n      tag_426\n        /* \"#utility.yul\":8176:8177   */\n      dup3\n        /* \"#utility.yul\":8159:8178   */\n      tag_397\n      jump\t// in\n    tag_426:\n        /* \"#utility.yul\":8154:8178   */\n      swap2\n      pop\n        /* \"#utility.yul\":8192:8211   */\n      tag_427\n        /* \"#utility.yul\":8209:8210   */\n      dup4\n        /* \"#utility.yul\":8192:8211   */\n      tag_397\n      jump\t// in\n    tag_427:\n        /* \"#utility.yul\":8187:8211   */\n      swap3\n      pop\n        /* \"#utility.yul\":8380:8381   */\n      dup2\n        /* \"#utility.yul\":8312:8378   */\n      0x7fffffffffffffffffffffffffffffffffffffffffffffffffffffffffffffff\n        /* \"#utility.yul\":8308:8382   */\n      sub\n        /* \"#utility.yul\":8305:8306   */\n      dup4\n        /* \"#utility.yul\":8301:8383   */\n      sgt\n        /* \"#utility.yul\":8296:8297   */\n      0x00\n        /* \"#utility.yul\":8293:8294   */\n      dup4\n        /* \"#utility.yul\":8289:8298   */\n      slt\n        /* \"#utility.yul\":8282:8299   */\n      iszero\n        /* \"#utility.yul\":8278:8384   */\n      and\n        /* \"#utility.yul\":8275:8407   */\n      iszero\n      tag_428\n      jumpi\n        /* \"#utility.yul\":8387:8405   */\n      tag_429\n      tag_430\n      jump\t// in\n    tag_429:\n        /* \"#utility.yul\":8275:8407   */\n    tag_428:\n        /* \"#utility.yul\":8567:8568   */\n      dup2\n        /* \"#utility.yul\":8499:8565   */\n      0x8000000000000000000000000000000000000000000000000000000000000000\n        /* \"#utility.yul\":8495:8569   */\n      sub\n        /* \"#utility.yul\":8492:8493   */\n      dup4\n        /* \"#utility.yul\":8488:8570   */\n      slt\n        /* \"#utility.yul\":8484:8485   */\n      0x00\n        /* \"#utility.yul\":8481:8482   */\n      dup4\n        /* \"#utility.yul\":8477:8486   */\n      slt\n        /* \"#utility.yul\":8473:8571   */\n      and\n        /* \"#utility.yul\":8470:8594   */\n      iszero\n      tag_431\n      jumpi\n        /* \"#utility.yul\":8574:8592   */\n      tag_432\n      tag_430\n      jump\t// in\n    tag_432:\n        /* \"#utility.yul\":8470:8594   */\n    tag_431:\n        /* \"#utility.yul\":8618:8619   */\n      dup3\n        /* \"#utility.yul\":8615:8616   */\n      dup3\n        /* \"#utility.yul\":8611:8620   */\n      add\n        /* \"#utility.yul\":8604:8620   */\n      swap1\n      pop\n        /* \"#utility.yul\":8101:8626   */\n      swap3\n      swap2\n      pop\n      pop\n      jump\t// out\n        /* \"#utility.yul\":8632:8937   */\n    tag_139:\n        /* \"#utility.yul\":8672:8675   */\n      0x00\n        /* \"#utility.yul\":8691:8711   */\n      tag_434\n        /* \"#utility.yul\":8709:8710   */\n      dup3\n        /* \"#utility.yul\":8691:8711   */\n      tag_401\n      jump\t// in\n    tag_434:\n        /* \"#utility.yul\":8686:8711   */\n      swap2\n      pop\n        /* \"#utility.yul\":8725:8745   */\n      tag_435\n        /* \"#utility.yul\":8743:8744   */\n      dup4\n        /* \"#utility.yul\":8725:8745   */\n      tag_401\n      jump\t// in\n    tag_435:\n        /* \"#utility.yul\":8720:8745   */\n      swap3\n      pop\n        /* \"#utility.yul\":8879:8880   */\n      dup3\n        /* \"#utility.yul\":8811:8877   */\n      0xffffffffffffffffffffffffffffffffffffffffffffffffffffffffffffffff\n        /* \"#utility.yul\":8807:8881   */\n      sub\n        /* \"#utility.yul\":8804:8805   */\n      dup3\n        /* \"#utility.yul\":8801:8882   */\n      gt\n        /* \"#utility.yul\":8798:8905   */\n      iszero\n      tag_436\n      jumpi\n        /* \"#utility.yul\":8885:8903   */\n      tag_437\n      tag_430\n      jump\t// in\n    tag_437:\n        /* \"#utility.yul\":8798:8905   */\n    tag_436:\n        /* \"#utility.yul\":8929:8930   */\n      dup3\n        /* \"#utility.yul\":8926:8927   */\n      dup3\n        /* \"#utility.yul\":8922:8931   */\n      add\n        /* \"#utility.yul\":8915:8931   */\n      swap1\n      pop\n        /* \"#utility.yul\":8632:8937   */\n      swap3\n      swap2\n      pop\n      pop\n      jump\t// out\n        /* \"#utility.yul\":8943:9328   */\n    tag_237:\n        /* \"#utility.yul\":8982:8983   */\n      0x00\n        /* \"#utility.yul\":8999:9018   */\n      tag_439\n        /* \"#utility.yul\":9016:9017   */\n      dup3\n        /* \"#utility.yul\":8999:9018   */\n      tag_397\n      jump\t// in\n    tag_439:\n        /* \"#utility.yul\":8994:9018   */\n      swap2\n      pop\n        /* \"#utility.yul\":9032:9051   */\n      tag_440\n        /* \"#utility.yul\":9049:9050   */\n      dup4\n        /* \"#utility.yul\":9032:9051   */\n      tag_397\n      jump\t// in\n    tag_440:\n        /* \"#utility.yul\":9027:9051   */\n      swap3\n      pop\n        /* \"#utility.yul\":9070:9071   */\n      dup3\n        /* \"#utility.yul\":9060:9095   */\n      tag_441\n      jumpi\n        /* \"#utility.yul\":9075:9093   */\n      tag_442\n      tag_443\n      jump\t// in\n    tag_442:\n        /* \"#utility.yul\":9060:9095   */\n    tag_441:\n        /* \"#utility.yul\":9261:9262   */\n      0x01\n        /* \"#utility.yul\":9258:9259   */\n      0x00\n        /* \"#utility.yul\":9254:9263   */\n      sub\n        /* \"#utility.yul\":9251:9252   */\n      dup4\n        /* \"#utility.yul\":9248:9264   */\n      eq\n        /* \"#utility.yul\":9167:9233   */\n      0x8000000000000000000000000000000000000000000000000000000000000000\n        /* \"#utility.yul\":9164:9165   */\n      dup4\n        /* \"#utility.yul\":9161:9234   */\n      eq\n        /* \"#utility.yul\":9144:9274   */\n      and\n        /* \"#utility.yul\":9141:9297   */\n      iszero\n      tag_444\n      jumpi\n        /* \"#utility.yul\":9277:9295   */\n      tag_445\n      tag_430\n      jump\t// in\n    tag_445:\n        /* \"#utility.yul\":9141:9297   */\n    tag_444:\n        /* \"#utility.yul\":9320:9321   */\n      dup3\n        /* \"#utility.yul\":9317:9318   */\n      dup3\n        /* \"#utility.yul\":9312:9322   */\n      sdiv\n        /* \"#utility.yul\":9307:9322   */\n      swap1\n      pop\n        /* \"#utility.yul\":8943:9328   */\n      swap3\n      swap2\n      pop\n      pop\n      jump\t// out\n        /* \"#utility.yul\":9334:9519   */\n    tag_176:\n        /* \"#utility.yul\":9374:9375   */\n      0x00\n        /* \"#utility.yul\":9391:9411   */\n      tag_447\n        /* \"#utility.yul\":9409:9410   */\n      dup3\n        /* \"#utility.yul\":9391:9411   */\n      tag_401\n      jump\t// in\n    tag_447:\n        /* \"#utility.yul\":9386:9411   */\n      swap2\n      pop\n        /* \"#utility.yul\":9425:9445   */\n      tag_448\n        /* \"#utility.yul\":9443:9444   */\n      dup4\n        /* \"#utility.yul\":9425:9445   */\n      tag_401\n      jump\t// in\n    tag_448:\n        /* \"#utility.yul\":9420:9445   */\n      swap3\n      pop\n        /* \"#utility.yul\":9464:9465   */\n      dup3\n        /* \"#utility.yul\":9454:9489   */\n      tag_449\n      jumpi\n        /* \"#utility.yul\":9469:9487   */\n      tag_450\n      tag_443\n      jump\t// in\n    tag_450:\n        /* \"#utility.yul\":9454:9489   */\n    tag_449:\n        /* \"#utility.yul\":9511:9512   */\n      dup3\n        /* \"#utility.yul\":9508:9509   */\n      dup3\n        /* \"#utility.yul\":9504:9513   */\n      div\n        /* \"#utility.yul\":9499:9513   */\n      swap1\n      pop\n        /* \"#utility.yul\":9334:9519   */\n      swap3\n      swap2\n      pop\n      pop\n      jump\t// out\n        /* \"#utility.yul\":9525:10373   */\n    tag_451:\n        /* \"#utility.yul\":9586:9591   */\n      0x00\n        /* \"#utility.yul\":9593:9597   */\n      dup1\n        /* \"#utility.yul\":9617:9623   */\n      dup3\n        /* \"#utility.yul\":9608:9623   */\n      swap2\n      pop\n        /* \"#utility.yul\":9641:9646   */\n      dup4\n        /* \"#utility.yul\":9632:9646   */\n      swap1\n      pop\n        /* \"#utility.yul\":9655:10367   */\n    tag_453:\n        /* \"#utility.yul\":9676:9677   */\n      0x01\n        /* \"#utility.yul\":9666:9674   */\n      dup6\n        /* \"#utility.yul\":9663:9678   */\n      gt\n        /* \"#utility.yul\":9655:10367   */\n      iszero\n      tag_455\n      jumpi\n        /* \"#utility.yul\":9771:9775   */\n      dup1\n        /* \"#utility.yul\":9766:9769   */\n      dup7\n        /* \"#utility.yul\":9762:9776   */\n      div\n        /* \"#utility.yul\":9756:9760   */\n      dup2\n        /* \"#utility.yul\":9753:9777   */\n      gt\n        /* \"#utility.yul\":9750:9800   */\n      iszero\n      tag_456\n      jumpi\n        /* \"#utility.yul\":9780:9798   */\n      tag_457\n      tag_430\n      jump\t// in\n    tag_457:\n        /* \"#utility.yul\":9750:9800   */\n    tag_456:\n        /* \"#utility.yul\":9830:9831   */\n      0x01\n        /* \"#utility.yul\":9820:9828   */\n      dup6\n        /* \"#utility.yul\":9816:9832   */\n      and\n        /* \"#utility.yul\":9813:10264   */\n      iszero\n      tag_458\n      jumpi\n        /* \"#utility.yul\":10245:10249   */\n      dup1\n        /* \"#utility.yul\":10238:10243   */\n      dup3\n        /* \"#utility.yul\":10234:10250   */\n      mul\n        /* \"#utility.yul\":10225:10250   */\n      swap2\n      pop\n        /* \"#utility.yul\":9813:10264   */\n    tag_458:\n        /* \"#utility.yul\":10295:10299   */\n      dup1\n        /* \"#utility.yul\":10289:10293   */\n      dup2\n        /* \"#utility.yul\":10285:10300   */\n      mul\n        /* \"#utility.yul\":10277:10300   */\n      swap1\n      pop\n        /* \"#utility.yul\":10325:10357   */\n      tag_459\n        /* \"#utility.yul\":10348:10356   */\n      dup6\n        /* \"#utility.yul\":10325:10357   */\n      tag_460\n      jump\t// in\n    tag_459:\n        /* \"#utility.yul\":10313:10357   */\n      swap5\n      pop\n        /* \"#utility.yul\":9655:10367   */\n      jump(tag_453)\n    tag_455:\n        /* \"#utility.yul\":9525:10373   */\n      swap5\n      pop\n      swap5\n      swap3\n      pop\n      pop\n      pop\n      jump\t// out\n        /* \"#utility.yul\":10379:10664   */\n    tag_99:\n        /* \"#utility.yul\":10439:10444   */\n      0x00\n        /* \"#utility.yul\":10463:10486   */\n      tag_462\n        /* \"#utility.yul\":10481:10485   */\n      dup3\n        /* \"#utility.yul\":10463:10486   */\n      tag_401\n      jump\t// in\n    tag_462:\n        /* \"#utility.yul\":10455:10486   */\n      swap2\n      pop\n        /* \"#utility.yul\":10507:10534   */\n      tag_463\n        /* \"#utility.yul\":10525:10533   */\n      dup4\n        /* \"#utility.yul\":10507:10534   */\n      tag_401\n      jump\t// in\n    tag_463:\n        /* \"#utility.yul\":10495:10534   */\n      swap3\n      pop\n        /* \"#utility.yul\":10553:10657   */\n      tag_464\n        /* \"#utility.yul\":10590:10656   */\n      0xffffffffffffffffffffffffffffffffffffffffffffffffffffffffffffffff\n        /* \"#utility.yul\":10580:10588   */\n      dup5\n        /* \"#utility.yul\":10574:10578   */\n      dup5\n        /* \"#utility.yul\":10553:10657   */\n      tag_465\n      jump\t// in\n    tag_464:\n        /* \"#utility.yul\":10544:10657   */\n      swap1\n      pop\n        /* \"#utility.yul\":10379:10664   */\n      swap3\n      swap2\n      pop\n      pop\n      jump\t// out\n        /* \"#utility.yul\":10670:11743   */\n    tag_465:\n        /* \"#utility.yul\":10724:10729   */\n      0x00\n        /* \"#utility.yul\":10915:10923   */\n      dup3\n        /* \"#utility.yul\":10905:10945   */\n      tag_467\n      jumpi\n        /* \"#utility.yul\":10936:10937   */\n      0x01\n        /* \"#utility.yul\":10927:10937   */\n      swap1\n      pop\n        /* \"#utility.yul\":10938:10943   */\n      jump(tag_466)\n        /* \"#utility.yul\":10905:10945   */\n    tag_467:\n        /* \"#utility.yul\":10964:10968   */\n      dup2\n        /* \"#utility.yul\":10954:10990   */\n      tag_468\n      jumpi\n        /* \"#utility.yul\":10981:10982   */\n      0x00\n        /* \"#utility.yul\":10972:10982   */\n      swap1\n      pop\n        /* \"#utility.yul\":10983:10988   */\n      jump(tag_466)\n        /* \"#utility.yul\":10954:10990   */\n    tag_468:\n        /* \"#utility.yul\":11050:11054   */\n      dup2\n        /* \"#utility.yul\":11098:11099   */\n      0x01\n        /* \"#utility.yul\":11093:11120   */\n      dup2\n      eq\n      tag_470\n      jumpi\n        /* \"#utility.yul\":11134:11135   */\n      0x02\n        /* \"#utility.yul\":11129:11320   */\n      dup2\n      eq\n      tag_471\n      jumpi\n        /* \"#utility.yul\":11043:11320   */\n      jump(tag_469)\n        /* \"#utility.yul\":11093:11120   */\n    tag_470:\n        /* \"#utility.yul\":11111:11112   */\n      0x01\n        /* \"#utility.yul\":11102:11112   */\n      swap2\n      pop\n        /* \"#utility.yul\":11113:11118   */\n      pop\n      jump(tag_466)\n        /* \"#utility.yul\":11129:11320   */\n    tag_471:\n        /* \"#utility.yul\":11174:11177   */\n      0xff\n        /* \"#utility.yul\":11164:11172   */\n      dup5\n        /* \"#utility.yul\":11161:11178   */\n      gt\n        /* \"#utility.yul\":11158:11201   */\n      iszero\n      tag_472\n      jumpi\n        /* \"#utility.yul\":11181:11199   */\n      tag_473\n      tag_430\n      jump\t// in\n    tag_473:\n        /* \"#utility.yul\":11158:11201   */\n    tag_472:\n        /* \"#utility.yul\":11230:11238   */\n      dup4\n        /* \"#utility.yul\":11227:11228   */\n      0x02\n        /* \"#utility.yul\":11223:11239   */\n      exp\n        /* \"#utility.yul\":11214:11239   */\n      swap2\n      pop\n        /* \"#utility.yul\":11265:11268   */\n      dup5\n        /* \"#utility.yul\":11258:11263   */\n      dup3\n        /* \"#utility.yul\":11255:11269   */\n      gt\n        /* \"#utility.yul\":11252:11292   */\n      iszero\n      tag_474\n      jumpi\n        /* \"#utility.yul\":11272:11290   */\n      tag_475\n      tag_430\n      jump\t// in\n    tag_475:\n        /* \"#utility.yul\":11252:11292   */\n    tag_474:\n        /* \"#utility.yul\":11305:11310   */\n      pop\n      jump(tag_466)\n        /* \"#utility.yul\":11043:11320   */\n    tag_469:\n      pop\n        /* \"#utility.yul\":11429:11431   */\n      0x20\n        /* \"#utility.yul\":11419:11427   */\n      dup4\n        /* \"#utility.yul\":11416:11432   */\n      lt\n        /* \"#utility.yul\":11410:11413   */\n      0x0133\n        /* \"#utility.yul\":11404:11408   */\n      dup4\n        /* \"#utility.yul\":11401:11414   */\n      lt\n        /* \"#utility.yul\":11397:11433   */\n      and\n        /* \"#utility.yul\":11379:11381   */\n      0x4e\n        /* \"#utility.yul\":11369:11377   */\n      dup5\n        /* \"#utility.yul\":11366:11382   */\n      lt\n        /* \"#utility.yul\":11361:11363   */\n      0x0b\n        /* \"#utility.yul\":11355:11359   */\n      dup5\n        /* \"#utility.yul\":11352:11364   */\n      lt\n        /* \"#utility.yul\":11348:11383   */\n      and\n        /* \"#utility.yul\":11332:11443   */\n      or\n        /* \"#utility.yul\":11329:11575   */\n      iszero\n      tag_476\n      jumpi\n        /* \"#utility.yul\":11485:11493   */\n      dup3\n        /* \"#utility.yul\":11479:11483   */\n      dup3\n        /* \"#utility.yul\":11475:11494   */\n      exp\n        /* \"#utility.yul\":11466:11494   */\n      swap1\n      pop\n        /* \"#utility.yul\":11520:11523   */\n      dup4\n        /* \"#utility.yul\":11513:11518   */\n      dup2\n        /* \"#utility.yul\":11510:11524   */\n      gt\n        /* \"#utility.yul\":11507:11547   */\n      iszero\n      tag_477\n      jumpi\n        /* \"#utility.yul\":11527:11545   */\n      tag_478\n      tag_430\n      jump\t// in\n    tag_478:\n        /* \"#utility.yul\":11507:11547   */\n    tag_477:\n        /* \"#utility.yul\":11560:11565   */\n      jump(tag_466)\n        /* \"#utility.yul\":11329:11575   */\n    tag_476:\n        /* \"#utility.yul\":11600:11642   */\n      tag_479\n        /* \"#utility.yul\":11638:11641   */\n      dup5\n        /* \"#utility.yul\":11628:11636   */\n      dup5\n        /* \"#utility.yul\":11622:11626   */\n      dup5\n        /* \"#utility.yul\":11619:11620   */\n      0x01\n        /* \"#utility.yul\":11600:11642   */\n      tag_451\n      jump\t// in\n    tag_479:\n        /* \"#utility.yul\":11585:11642   */\n      swap3\n      pop\n      swap1\n      pop\n        /* \"#utility.yul\":11674:11678   */\n      dup2\n        /* \"#utility.yul\":11669:11672   */\n      dup5\n        /* \"#utility.yul\":11665:11679   */\n      div\n        /* \"#utility.yul\":11658:11663   */\n      dup2\n        /* \"#utility.yul\":11655:11680   */\n      gt\n        /* \"#utility.yul\":11652:11703   */\n      iszero\n      tag_480\n      jumpi\n        /* \"#utility.yul\":11683:11701   */\n      tag_481\n      tag_430\n      jump\t// in\n    tag_481:\n        /* \"#utility.yul\":11652:11703   */\n    tag_480:\n        /* \"#utility.yul\":11732:11736   */\n      dup2\n        /* \"#utility.yul\":11725:11730   */\n      dup2\n        /* \"#utility.yul\":11721:11737   */\n      mul\n        /* \"#utility.yul\":11712:11737   */\n      swap1\n      pop\n        /* \"#utility.yul\":10670:11743   */\n    tag_466:\n      swap4\n      swap3\n      pop\n      pop\n      pop\n      jump\t// out\n        /* \"#utility.yul\":11749:12740   */\n    tag_219:\n        /* \"#utility.yul\":11788:11795   */\n      0x00\n        /* \"#utility.yul\":11811:11830   */\n      tag_483\n        /* \"#utility.yul\":11828:11829   */\n      dup3\n        /* \"#utility.yul\":11811:11830   */\n      tag_397\n      jump\t// in\n    tag_483:\n        /* \"#utility.yul\":11806:11830   */\n      swap2\n      pop\n        /* \"#utility.yul\":11844:11863   */\n      tag_484\n        /* \"#utility.yul\":11861:11862   */\n      dup4\n        /* \"#utility.yul\":11844:11863   */\n      tag_397\n      jump\t// in\n    tag_484:\n        /* \"#utility.yul\":11839:11863   */\n      swap3\n      pop\n        /* \"#utility.yul\":12045:12046   */\n      dup3\n        /* \"#utility.yul\":11977:12043   */\n      0x7fffffffffffffffffffffffffffffffffffffffffffffffffffffffffffffff\n        /* \"#utility.yul\":11973:12047   */\n      div\n        /* \"#utility.yul\":11970:11971   */\n      dup3\n        /* \"#utility.yul\":11967:12048   */\n      gt\n        /* \"#utility.yul\":11962:11963   */\n      0x00\n        /* \"#utility.yul\":11959:11960   */\n      dup5\n        /* \"#utility.yul\":11955:11964   */\n      sgt\n        /* \"#utility.yul\":11951:11952   */\n      0x00\n        /* \"#utility.yul\":11948:11949   */\n      dup5\n        /* \"#utility.yul\":11944:11953   */\n      sgt\n        /* \"#utility.yul\":11940:11965   */\n      and\n        /* \"#utility.yul\":11936:12049   */\n      and\n        /* \"#utility.yul\":11933:12072   */\n      iszero\n      tag_485\n      jumpi\n        /* \"#utility.yul\":12052:12070   */\n      tag_486\n      tag_430\n      jump\t// in\n    tag_486:\n        /* \"#utility.yul\":11933:12072   */\n    tag_485:\n        /* \"#utility.yul\":12256:12257   */\n      dup2\n        /* \"#utility.yul\":12188:12254   */\n      0x8000000000000000000000000000000000000000000000000000000000000000\n        /* \"#utility.yul\":12183:12258   */\n      sdiv\n        /* \"#utility.yul\":12180:12181   */\n      dup4\n        /* \"#utility.yul\":12176:12259   */\n      slt\n        /* \"#utility.yul\":12171:12172   */\n      0x00\n        /* \"#utility.yul\":12168:12169   */\n      dup5\n        /* \"#utility.yul\":12164:12173   */\n      slt\n        /* \"#utility.yul\":12160:12161   */\n      0x00\n        /* \"#utility.yul\":12157:12158   */\n      dup5\n        /* \"#utility.yul\":12153:12162   */\n      sgt\n        /* \"#utility.yul\":12149:12174   */\n      and\n        /* \"#utility.yul\":12145:12260   */\n      and\n        /* \"#utility.yul\":12142:12283   */\n      iszero\n      tag_487\n      jumpi\n        /* \"#utility.yul\":12263:12281   */\n      tag_488\n      tag_430\n      jump\t// in\n    tag_488:\n        /* \"#utility.yul\":12142:12283   */\n    tag_487:\n        /* \"#utility.yul\":12467:12468   */\n      dup3\n        /* \"#utility.yul\":12399:12465   */\n      0x8000000000000000000000000000000000000000000000000000000000000000\n        /* \"#utility.yul\":12394:12469   */\n      sdiv\n        /* \"#utility.yul\":12391:12392   */\n      dup3\n        /* \"#utility.yul\":12387:12470   */\n      slt\n        /* \"#utility.yul\":12382:12383   */\n      0x00\n        /* \"#utility.yul\":12379:12380   */\n      dup5\n        /* \"#utility.yul\":12375:12384   */\n      sgt\n        /* \"#utility.yul\":12371:12372   */\n      0x00\n        /* \"#utility.yul\":12368:12369   */\n      dup5\n        /* \"#utility.yul\":12364:12373   */\n      slt\n        /* \"#utility.yul\":12360:12385   */\n      and\n        /* \"#utility.yul\":12356:12471   */\n      and\n        /* \"#utility.yul\":12353:12494   */\n      iszero\n      tag_489\n      jumpi\n        /* \"#utility.yul\":12474:12492   */\n      tag_490\n      tag_430\n      jump\t// in\n    tag_490:\n        /* \"#utility.yul\":12353:12494   */\n    tag_489:\n        /* \"#utility.yul\":12677:12678   */\n      dup3\n        /* \"#utility.yul\":12609:12675   */\n      0x7fffffffffffffffffffffffffffffffffffffffffffffffffffffffffffffff\n        /* \"#utility.yul\":12604:12679   */\n      sdiv\n        /* \"#utility.yul\":12601:12602   */\n      dup3\n        /* \"#utility.yul\":12597:12680   */\n      slt\n        /* \"#utility.yul\":12592:12593   */\n      0x00\n        /* \"#utility.yul\":12589:12590   */\n      dup5\n        /* \"#utility.yul\":12585:12594   */\n      slt\n        /* \"#utility.yul\":12581:12582   */\n      0x00\n        /* \"#utility.yul\":12578:12579   */\n      dup5\n        /* \"#utility.yul\":12574:12583   */\n      slt\n        /* \"#utility.yul\":12570:12595   */\n      and\n        /* \"#utility.yul\":12566:12681   */\n      and\n        /* \"#utility.yul\":12563:12704   */\n      iszero\n      tag_491\n      jumpi\n        /* \"#utility.yul\":12684:12702   */\n      tag_492\n      tag_430\n      jump\t// in\n    tag_492:\n        /* \"#utility.yul\":12563:12704   */\n    tag_491:\n        /* \"#utility.yul\":12732:12733   */\n      dup3\n        /* \"#utility.yul\":12729:12730   */\n      dup3\n        /* \"#utility.yul\":12725:12734   */\n      mul\n        /* \"#utility.yul\":12714:12734   */\n      swap1\n      pop\n        /* \"#utility.yul\":11749:12740   */\n      swap3\n      swap2\n      pop\n      pop\n      jump\t// out\n        /* \"#utility.yul\":12746:13094   */\n    tag_166:\n        /* \"#utility.yul\":12786:12793   */\n      0x00\n        /* \"#utility.yul\":12809:12829   */\n      tag_494\n        /* \"#utility.yul\":12827:12828   */\n      dup3\n        /* \"#utility.yul\":12809:12829   */\n      tag_401\n      jump\t// in\n    tag_494:\n        /* \"#utility.yul\":12804:12829   */\n      swap2\n      pop\n        /* \"#utility.yul\":12843:12863   */\n      tag_495\n        /* \"#utility.yul\":12861:12862   */\n      dup4\n        /* \"#utility.yul\":12843:12863   */\n      tag_401\n      jump\t// in\n    tag_495:\n        /* \"#utility.yul\":12838:12863   */\n      swap3\n      pop\n        /* \"#utility.yul\":13031:13032   */\n      dup2\n        /* \"#utility.yul\":12963:13029   */\n      0xffffffffffffffffffffffffffffffffffffffffffffffffffffffffffffffff\n        /* \"#utility.yul\":12959:13033   */\n      div\n        /* \"#utility.yul\":12956:12957   */\n      dup4\n        /* \"#utility.yul\":12953:13034   */\n      gt\n        /* \"#utility.yul\":12948:12949   */\n      dup3\n        /* \"#utility.yul\":12941:12950   */\n      iszero\n        /* \"#utility.yul\":12934:12951   */\n      iszero\n        /* \"#utility.yul\":12930:13035   */\n      and\n        /* \"#utility.yul\":12927:13058   */\n      iszero\n      tag_496\n      jumpi\n        /* \"#utility.yul\":13038:13056   */\n      tag_497\n      tag_430\n      jump\t// in\n    tag_497:\n        /* \"#utility.yul\":12927:13058   */\n    tag_496:\n        /* \"#utility.yul\":13086:13087   */\n      dup3\n        /* \"#utility.yul\":13083:13084   */\n      dup3\n        /* \"#utility.yul\":13079:13088   */\n      mul\n        /* \"#utility.yul\":13068:13088   */\n      swap1\n      pop\n        /* \"#utility.yul\":12746:13094   */\n      swap3\n      swap2\n      pop\n      pop\n      jump\t// out\n        /* \"#utility.yul\":13100:13627   */\n    tag_226:\n        /* \"#utility.yul\":13139:13143   */\n      0x00\n        /* \"#utility.yul\":13159:13178   */\n      tag_499\n        /* \"#utility.yul\":13176:13177   */\n      dup3\n        /* \"#utility.yul\":13159:13178   */\n      tag_397\n      jump\t// in\n    tag_499:\n        /* \"#utility.yul\":13154:13178   */\n      swap2\n      pop\n        /* \"#utility.yul\":13192:13211   */\n      tag_500\n        /* \"#utility.yul\":13209:13210   */\n      dup4\n        /* \"#utility.yul\":13192:13211   */\n      tag_397\n      jump\t// in\n    tag_500:\n        /* \"#utility.yul\":13187:13211   */\n      swap3\n      pop\n        /* \"#utility.yul\":13381:13382   */\n      dup3\n        /* \"#utility.yul\":13313:13379   */\n      0x8000000000000000000000000000000000000000000000000000000000000000\n        /* \"#utility.yul\":13309:13383   */\n      add\n        /* \"#utility.yul\":13306:13307   */\n      dup3\n        /* \"#utility.yul\":13302:13384   */\n      slt\n        /* \"#utility.yul\":13297:13298   */\n      0x00\n        /* \"#utility.yul\":13294:13295   */\n      dup5\n        /* \"#utility.yul\":13290:13299   */\n      slt\n        /* \"#utility.yul\":13283:13300   */\n      iszero\n        /* \"#utility.yul\":13279:13385   */\n      and\n        /* \"#utility.yul\":13276:13408   */\n      iszero\n      tag_501\n      jumpi\n        /* \"#utility.yul\":13388:13406   */\n      tag_502\n      tag_430\n      jump\t// in\n    tag_502:\n        /* \"#utility.yul\":13276:13408   */\n    tag_501:\n        /* \"#utility.yul\":13567:13568   */\n      dup3\n        /* \"#utility.yul\":13499:13565   */\n      0x7fffffffffffffffffffffffffffffffffffffffffffffffffffffffffffffff\n        /* \"#utility.yul\":13495:13569   */\n      add\n        /* \"#utility.yul\":13492:13493   */\n      dup3\n        /* \"#utility.yul\":13488:13570   */\n      sgt\n        /* \"#utility.yul\":13484:13485   */\n      0x00\n        /* \"#utility.yul\":13481:13482   */\n      dup5\n        /* \"#utility.yul\":13477:13486   */\n      slt\n        /* \"#utility.yul\":13473:13571   */\n      and\n        /* \"#utility.yul\":13470:13594   */\n      iszero\n      tag_503\n      jumpi\n        /* \"#utility.yul\":13574:13592   */\n      tag_504\n      tag_430\n      jump\t// in\n    tag_504:\n        /* \"#utility.yul\":13470:13594   */\n    tag_503:\n        /* \"#utility.yul\":13619:13620   */\n      dup3\n        /* \"#utility.yul\":13616:13617   */\n      dup3\n        /* \"#utility.yul\":13612:13621   */\n      sub\n        /* \"#utility.yul\":13604:13621   */\n      swap1\n      pop\n        /* \"#utility.yul\":13100:13627   */\n      swap3\n      swap2\n      pop\n      pop\n      jump\t// out\n        /* \"#utility.yul\":13633:13824   */\n    tag_192:\n        /* \"#utility.yul\":13673:13677   */\n      0x00\n        /* \"#utility.yul\":13693:13713   */\n      tag_506\n        /* \"#utility.yul\":13711:13712   */\n      dup3\n        /* \"#utility.yul\":13693:13713   */\n      tag_401\n      jump\t// in\n    tag_506:\n        /* \"#utility.yul\":13688:13713   */\n      swap2\n      pop\n        /* \"#utility.yul\":13727:13747   */\n      tag_507\n        /* \"#utility.yul\":13745:13746   */\n      dup4\n        /* \"#utility.yul\":13727:13747   */\n      tag_401\n      jump\t// in\n    tag_507:\n        /* \"#utility.yul\":13722:13747   */\n      swap3\n      pop\n        /* \"#utility.yul\":13766:13767   */\n      dup3\n        /* \"#utility.yul\":13763:13764   */\n      dup3\n        /* \"#utility.yul\":13760:13768   */\n      lt\n        /* \"#utility.yul\":13757:13791   */\n      iszero\n      tag_508\n      jumpi\n        /* \"#utility.yul\":13771:13789   */\n      tag_509\n      tag_430\n      jump\t// in\n    tag_509:\n        /* \"#utility.yul\":13757:13791   */\n    tag_508:\n        /* \"#utility.yul\":13816:13817   */\n      dup3\n        /* \"#utility.yul\":13813:13814   */\n      dup3\n        /* \"#utility.yul\":13809:13818   */\n      sub\n        /* \"#utility.yul\":13801:13818   */\n      swap1\n      pop\n        /* \"#utility.yul\":13633:13824   */\n      swap3\n      swap2\n      pop\n      pop\n      jump\t// out\n        /* \"#utility.yul\":13830:13926   */\n    tag_385:\n        /* \"#utility.yul\":13867:13874   */\n      0x00\n        /* \"#utility.yul\":13896:13920   */\n      tag_511\n        /* \"#utility.yul\":13914:13919   */\n      dup3\n        /* \"#utility.yul\":13896:13920   */\n      tag_512\n      jump\t// in\n    tag_511:\n        /* \"#utility.yul\":13885:13920   */\n      swap1\n      pop\n        /* \"#utility.yul\":13830:13926   */\n      swap2\n      swap1\n      pop\n      jump\t// out\n        /* \"#utility.yul\":13932:14036   */\n    tag_513:\n        /* \"#utility.yul\":13977:13984   */\n      0x00\n        /* \"#utility.yul\":14006:14030   */\n      tag_515\n        /* \"#utility.yul\":14024:14029   */\n      dup3\n        /* \"#utility.yul\":14006:14030   */\n      tag_512\n      jump\t// in\n    tag_515:\n        /* \"#utility.yul\":13995:14030   */\n      swap1\n      pop\n        /* \"#utility.yul\":13932:14036   */\n      swap2\n      swap1\n      pop\n      jump\t// out\n        /* \"#utility.yul\":14042:14132   */\n    tag_516:\n        /* \"#utility.yul\":14076:14083   */\n      0x00\n        /* \"#utility.yul\":14119:14124   */\n      dup2\n        /* \"#utility.yul\":14112:14125   */\n      iszero\n        /* \"#utility.yul\":14105:14126   */\n      iszero\n        /* \"#utility.yul\":14094:14126   */\n      swap1\n      pop\n        /* \"#utility.yul\":14042:14132   */\n      swap2\n      swap1\n      pop\n      jump\t// out\n        /* \"#utility.yul\":14138:14246   */\n    tag_518:\n        /* \"#utility.yul\":14187:14194   */\n      0x00\n        /* \"#utility.yul\":14216:14240   */\n      tag_520\n        /* \"#utility.yul\":14234:14239   */\n      dup3\n        /* \"#utility.yul\":14216:14240   */\n      tag_385\n      jump\t// in\n    tag_520:\n        /* \"#utility.yul\":14205:14240   */\n      swap1\n      pop\n        /* \"#utility.yul\":14138:14246   */\n      swap2\n      swap1\n      pop\n      jump\t// out\n        /* \"#utility.yul\":14252:14362   */\n    tag_521:\n        /* \"#utility.yul\":14303:14310   */\n      0x00\n        /* \"#utility.yul\":14332:14356   */\n      tag_523\n        /* \"#utility.yul\":14350:14355   */\n      dup3\n        /* \"#utility.yul\":14332:14356   */\n      tag_385\n      jump\t// in\n    tag_523:\n        /* \"#utility.yul\":14321:14356   */\n      swap1\n      pop\n        /* \"#utility.yul\":14252:14362   */\n      swap2\n      swap1\n      pop\n      jump\t// out\n        /* \"#utility.yul\":14368:14444   */\n    tag_397:\n        /* \"#utility.yul\":14404:14411   */\n      0x00\n        /* \"#utility.yul\":14433:14438   */\n      dup2\n        /* \"#utility.yul\":14422:14438   */\n      swap1\n      pop\n        /* \"#utility.yul\":14368:14444   */\n      swap2\n      swap1\n      pop\n      jump\t// out\n        /* \"#utility.yul\":14450:14576   */\n    tag_512:\n        /* \"#utility.yul\":14487:14494   */\n      0x00\n        /* \"#utility.yul\":14527:14569   */\n      0xffffffffffffffffffffffffffffffffffffffff\n        /* \"#utility.yul\":14520:14525   */\n      dup3\n        /* \"#utility.yul\":14516:14570   */\n      and\n        /* \"#utility.yul\":14505:14570   */\n      swap1\n      pop\n        /* \"#utility.yul\":14450:14576   */\n      swap2\n      swap1\n      pop\n      jump\t// out\n        /* \"#utility.yul\":14582:14659   */\n    tag_401:\n        /* \"#utility.yul\":14619:14626   */\n      0x00\n        /* \"#utility.yul\":14648:14653   */\n      dup2\n        /* \"#utility.yul\":14637:14653   */\n      swap1\n      pop\n        /* \"#utility.yul\":14582:14659   */\n      swap2\n      swap1\n      pop\n      jump\t// out\n        /* \"#utility.yul\":14665:14799   */\n    tag_381:\n        /* \"#utility.yul\":14723:14732   */\n      0x00\n        /* \"#utility.yul\":14756:14793   */\n      tag_528\n        /* \"#utility.yul\":14787:14792   */\n      dup3\n        /* \"#utility.yul\":14756:14793   */\n      tag_529\n      jump\t// in\n    tag_528:\n        /* \"#utility.yul\":14743:14793   */\n      swap1\n      pop\n        /* \"#utility.yul\":14665:14799   */\n      swap2\n      swap1\n      pop\n      jump\t// out\n        /* \"#utility.yul\":14805:14943   */\n    tag_389:\n        /* \"#utility.yul\":14867:14876   */\n      0x00\n        /* \"#utility.yul\":14900:14937   */\n      tag_531\n        /* \"#utility.yul\":14931:14936   */\n      dup3\n        /* \"#utility.yul\":14900:14937   */\n      tag_529\n      jump\t// in\n    tag_531:\n        /* \"#utility.yul\":14887:14937   */\n      swap1\n      pop\n        /* \"#utility.yul\":14805:14943   */\n      swap2\n      swap1\n      pop\n      jump\t// out\n        /* \"#utility.yul\":14949:15089   */\n    tag_393:\n        /* \"#utility.yul\":15013:15022   */\n      0x00\n        /* \"#utility.yul\":15046:15083   */\n      tag_533\n        /* \"#utility.yul\":15077:15082   */\n      dup3\n        /* \"#utility.yul\":15046:15083   */\n      tag_529\n      jump\t// in\n    tag_533:\n        /* \"#utility.yul\":15033:15083   */\n      swap1\n      pop\n        /* \"#utility.yul\":14949:15089   */\n      swap2\n      swap1\n      pop\n      jump\t// out\n        /* \"#utility.yul\":15095:15221   */\n    tag_529:\n        /* \"#utility.yul\":15145:15154   */\n      0x00\n        /* \"#utility.yul\":15178:15215   */\n      tag_535\n        /* \"#utility.yul\":15209:15214   */\n      dup3\n        /* \"#utility.yul\":15178:15215   */\n      tag_536\n      jump\t// in\n    tag_535:\n        /* \"#utility.yul\":15165:15215   */\n      swap1\n      pop\n        /* \"#utility.yul\":15095:15221   */\n      swap2\n      swap1\n      pop\n      jump\t// out\n        /* \"#utility.yul\":15227:15340   */\n    tag_536:\n        /* \"#utility.yul\":15277:15286   */\n      0x00\n        /* \"#utility.yul\":15310:15334   */\n      tag_538\n        /* \"#utility.yul\":15328:15333   */\n      dup3\n        /* \"#utility.yul\":15310:15334   */\n      tag_512\n      jump\t// in\n    tag_538:\n        /* \"#utility.yul\":15297:15334   */\n      swap1\n      pop\n        /* \"#utility.yul\":15227:15340   */\n      swap2\n      swap1\n      pop\n      jump\t// out\n        /* \"#utility.yul\":15346:15579   */\n    tag_265:\n        /* \"#utility.yul\":15385:15388   */\n      0x00\n        /* \"#utility.yul\":15408:15432   */\n      tag_540\n        /* \"#utility.yul\":15426:15431   */\n      dup3\n        /* \"#utility.yul\":15408:15432   */\n      tag_401\n      jump\t// in\n    tag_540:\n        /* \"#utility.yul\":15399:15432   */\n      swap2\n      pop\n        /* \"#utility.yul\":15454:15520   */\n      0xffffffffffffffffffffffffffffffffffffffffffffffffffffffffffffffff\n        /* \"#utility.yul\":15447:15452   */\n      dup3\n        /* \"#utility.yul\":15444:15521   */\n      eq\n        /* \"#utility.yul\":15441:15544   */\n      iszero\n      tag_541\n      jumpi\n        /* \"#utility.yul\":15524:15542   */\n      tag_542\n      tag_430\n      jump\t// in\n    tag_542:\n        /* \"#utility.yul\":15441:15544   */\n    tag_541:\n        /* \"#utility.yul\":15571:15572   */\n      0x01\n        /* \"#utility.yul\":15564:15569   */\n      dup3\n        /* \"#utility.yul\":15560:15573   */\n      add\n        /* \"#utility.yul\":15553:15573   */\n      swap1\n      pop\n        /* \"#utility.yul\":15346:15579   */\n      swap2\n      swap1\n      pop\n      jump\t// out\n        /* \"#utility.yul\":15585:15813   */\n    tag_297:\n        /* \"#utility.yul\":15620:15623   */\n      0x00\n        /* \"#utility.yul\":15643:15666   */\n      tag_544\n        /* \"#utility.yul\":15660:15665   */\n      dup3\n        /* \"#utility.yul\":15643:15666   */\n      tag_397\n      jump\t// in\n    tag_544:\n        /* \"#utility.yul\":15634:15666   */\n      swap2\n      pop\n        /* \"#utility.yul\":15688:15754   */\n      0x8000000000000000000000000000000000000000000000000000000000000000\n        /* \"#utility.yul\":15681:15686   */\n      dup3\n        /* \"#utility.yul\":15678:15755   */\n      eq\n        /* \"#utility.yul\":15675:15778   */\n      iszero\n      tag_545\n      jumpi\n        /* \"#utility.yul\":15758:15776   */\n      tag_546\n      tag_430\n      jump\t// in\n    tag_546:\n        /* \"#utility.yul\":15675:15778   */\n    tag_545:\n        /* \"#utility.yul\":15801:15806   */\n      dup2\n        /* \"#utility.yul\":15798:15799   */\n      0x00\n        /* \"#utility.yul\":15794:15807   */\n      sub\n        /* \"#utility.yul\":15787:15807   */\n      swap1\n      pop\n        /* \"#utility.yul\":15585:15813   */\n      swap2\n      swap1\n      pop\n      jump\t// out\n        /* \"#utility.yul\":15819:15999   */\n    tag_204:\n        /* \"#utility.yul\":15867:15944   */\n      0x4e487b7100000000000000000000000000000000000000000000000000000000\n        /* \"#utility.yul\":15864:15865   */\n      0x00\n        /* \"#utility.yul\":15857:15945   */\n      mstore\n        /* \"#utility.yul\":15964:15968   */\n      0x01\n        /* \"#utility.yul\":15961:15962   */\n      0x04\n        /* \"#utility.yul\":15954:15969   */\n      mstore\n        /* \"#utility.yul\":15988:15992   */\n      0x24\n        /* \"#utility.yul\":15985:15986   */\n      0x00\n        /* \"#utility.yul\":15978:15993   */\n      revert\n        /* \"#utility.yul\":16005:16185   */\n    tag_430:\n        /* \"#utility.yul\":16053:16130   */\n      0x4e487b7100000000000000000000000000000000000000000000000000000000\n        /* \"#utility.yul\":16050:16051   */\n      0x00\n        /* \"#utility.yul\":16043:16131   */\n      mstore\n        /* \"#utility.yul\":16150:16154   */\n      0x11\n        /* \"#utility.yul\":16147:16148   */\n      0x04\n        /* \"#utility.yul\":16140:16155   */\n      mstore\n        /* \"#utility.yul\":16174:16178   */\n      0x24\n        /* \"#utility.yul\":16171:16172   */\n      0x00\n        /* \"#utility.yul\":16164:16179   */\n      revert\n        /* \"#utility.yul\":16191:16371   */\n    tag_443:\n        /* \"#utility.yul\":16239:16316   */\n      0x4e487b7100000000000000000000000000000000000000000000000000000000\n        /* \"#utility.yul\":16236:16237   */\n      0x00\n        /* \"#utility.yul\":16229:16317   */\n      mstore\n        /* \"#utility.yul\":16336:16340   */\n      0x12\n        /* \"#utility.yul\":16333:16334   */\n      0x04\n        /* \"#utility.yul\":16326:16341   */\n      mstore\n        /* \"#utility.yul\":16360:16364   */\n      0x24\n        /* \"#utility.yul\":16357:16358   */\n      0x00\n        /* \"#utility.yul\":16350:16365   */\n      revert\n        /* \"#utility.yul\":16377:16557   */\n    tag_262:\n        /* \"#utility.yul\":16425:16502   */\n      0x4e487b7100000000000000000000000000000000000000000000000000000000\n        /* \"#utility.yul\":16422:16423   */\n      0x00\n        /* \"#utility.yul\":16415:16503   */\n      mstore\n        /* \"#utility.yul\":16522:16526   */\n      0x32\n        /* \"#utility.yul\":16519:16520   */\n      0x04\n        /* \"#utility.yul\":16512:16527   */\n      mstore\n        /* \"#utility.yul\":16546:16550   */\n      0x24\n        /* \"#utility.yul\":16543:16544   */\n      0x00\n        /* \"#utility.yul\":16536:16551   */\n      revert\n        /* \"#utility.yul\":16686:16803   */\n    tag_342:\n        /* \"#utility.yul\":16795:16796   */\n      0x00\n        /* \"#utility.yul\":16792:16793   */\n      dup1\n        /* \"#utility.yul\":16785:16797   */\n      revert\n        /* \"#utility.yul\":16809:16911   */\n    tag_460:\n        /* \"#utility.yul\":16851:16859   */\n      0x00\n        /* \"#utility.yul\":16898:16903   */\n      dup2\n        /* \"#utility.yul\":16895:16896   */\n      0x01\n        /* \"#utility.yul\":16891:16904   */\n      shr\n        /* \"#utility.yul\":16870:16904   */\n      swap1\n      pop\n        /* \"#utility.yul\":16809:16911   */\n      swap2\n      swap1\n      pop\n      jump\t// out\n        /* \"#utility.yul\":16917:17055   */\n    tag_315:\n        /* \"#utility.yul\":16998:17030   */\n      tag_556\n        /* \"#utility.yul\":17024:17029   */\n      dup2\n        /* \"#utility.yul\":16998:17030   */\n      tag_513\n      jump\t// in\n    tag_556:\n        /* \"#utility.yul\":16991:16996   */\n      dup2\n        /* \"#utility.yul\":16988:17031   */\n      eq\n        /* \"#utility.yul\":16978:17049   */\n      tag_557\n      jumpi\n        /* \"#utility.yul\":17045:17046   */\n      0x00\n        /* \"#utility.yul\":17042:17043   */\n      dup1\n        /* \"#utility.yul\":17035:17047   */\n      revert\n        /* \"#utility.yul\":16978:17049   */\n    tag_557:\n        /* \"#utility.yul\":16917:17055   */\n      pop\n      jump\t// out\n        /* \"#utility.yul\":17061:17177   */\n    tag_319:\n        /* \"#utility.yul\":17131:17152   */\n      tag_559\n        /* \"#utility.yul\":17146:17151   */\n      dup2\n        /* \"#utility.yul\":17131:17152   */\n      tag_516\n      jump\t// in\n    tag_559:\n        /* \"#utility.yul\":17124:17129   */\n      dup2\n        /* \"#utility.yul\":17121:17153   */\n      eq\n        /* \"#utility.yul\":17111:17171   */\n      tag_560\n      jumpi\n        /* \"#utility.yul\":17167:17168   */\n      0x00\n        /* \"#utility.yul\":17164:17165   */\n      dup1\n        /* \"#utility.yul\":17157:17169   */\n      revert\n        /* \"#utility.yul\":17111:17171   */\n    tag_560:\n        /* \"#utility.yul\":17061:17177   */\n      pop\n      jump\t// out\n        /* \"#utility.yul\":17183:17329   */\n    tag_323:\n        /* \"#utility.yul\":17268:17304   */\n      tag_562\n        /* \"#utility.yul\":17298:17303   */\n      dup2\n        /* \"#utility.yul\":17268:17304   */\n      tag_518\n      jump\t// in\n    tag_562:\n        /* \"#utility.yul\":17261:17266   */\n      dup2\n        /* \"#utility.yul\":17258:17305   */\n      eq\n        /* \"#utility.yul\":17248:17323   */\n      tag_563\n      jumpi\n        /* \"#utility.yul\":17319:17320   */\n      0x00\n        /* \"#utility.yul\":17316:17317   */\n      dup1\n        /* \"#utility.yul\":17309:17321   */\n      revert\n        /* \"#utility.yul\":17248:17323   */\n    tag_563:\n        /* \"#utility.yul\":17183:17329   */\n      pop\n      jump\t// out\n        /* \"#utility.yul\":17335:17485   */\n    tag_327:\n        /* \"#utility.yul\":17422:17460   */\n      tag_565\n        /* \"#utility.yul\":17454:17459   */\n      dup2\n        /* \"#utility.yul\":17422:17460   */\n      tag_521\n      jump\t// in\n    tag_565:\n        /* \"#utility.yul\":17415:17420   */\n      dup2\n        /* \"#utility.yul\":17412:17461   */\n      eq\n        /* \"#utility.yul\":17402:17479   */\n      tag_566\n      jumpi\n        /* \"#utility.yul\":17475:17476   */\n      0x00\n        /* \"#utility.yul\":17472:17473   */\n      dup1\n        /* \"#utility.yul\":17465:17477   */\n      revert\n        /* \"#utility.yul\":17402:17479   */\n    tag_566:\n        /* \"#utility.yul\":17335:17485   */\n      pop\n      jump\t// out\n        /* \"#utility.yul\":17491:17611   */\n    tag_331:\n        /* \"#utility.yul\":17563:17586   */\n      tag_568\n        /* \"#utility.yul\":17580:17585   */\n      dup2\n        /* \"#utility.yul\":17563:17586   */\n      tag_397\n      jump\t// in\n    tag_568:\n        /* \"#utility.yul\":17556:17561   */\n      dup2\n        /* \"#utility.yul\":17553:17587   */\n      eq\n        /* \"#utility.yul\":17543:17605   */\n      tag_569\n      jumpi\n        /* \"#utility.yul\":17601:17602   */\n      0x00\n        /* \"#utility.yul\":17598:17599   */\n      dup1\n        /* \"#utility.yul\":17591:17603   */\n      revert\n        /* \"#utility.yul\":17543:17605   */\n    tag_569:\n        /* \"#utility.yul\":17491:17611   */\n      pop\n      jump\t// out\n        /* \"#utility.yul\":17617:17739   */\n    tag_335:\n        /* \"#utility.yul\":17690:17714   */\n      tag_571\n        /* \"#utility.yul\":17708:17713   */\n      dup2\n        /* \"#utility.yul\":17690:17714   */\n      tag_401\n      jump\t// in\n    tag_571:\n        /* \"#utility.yul\":17683:17688   */\n      dup2\n        /* \"#utility.yul\":17680:17715   */\n      eq\n        /* \"#utility.yul\":17670:17733   */\n      tag_572\n      jumpi\n        /* \"#utility.yul\":17729:17730   */\n      0x00\n        /* \"#utility.yul\":17726:17727   */\n      dup1\n        /* \"#utility.yul\":17719:17731   */\n      revert\n        /* \"#utility.yul\":17670:17733   */\n    tag_572:\n        /* \"#utility.yul\":17617:17739   */\n      pop\n      jump\t// out\n\n    auxdata: 0xa2646970667358221220725d1362d699ad28253183ba856b1873e2651471173857098e3cacad05bd377c64736f6c63430008070033\n}\n",
				"bytecode": {
					"linkReferences": {},
					"object": "608060405234801561001057600080fd5b50611f6b806100206000396000f3fe608060405234801561001057600080fd5b506004361061012c5760003560e01c8063900cf0cf116100ad578063af14052c11610071578063af14052c146102f9578063cd6dc68714610303578063d94ad8371461031f578063e9fa88a41461033d578063f4fefa49146103595761012c565b8063900cf0cf146102655780639db59b2f146102835780639e30bac5146102a1578063a37069ee146102bd578063ab33c5ca146102db5761012c565b806360961528116100f457806360961528146101d55780636de729db146101f35780637486cdea1461020f5780637b56c2b21461022d5780638001066d146102495761012c565b80633a785af1146101315780633d6a46e5146101615780634dafa35e1461017d57806353a15edc1461019b5780635ee01540146101b7575b600080fd5b61014b600480360381019061014691906114c0565b610375565b6040516101589190611696565b60405180910390f35b61017b60048036038101906101769190611466565b610547565b005b61018561058b565b6040516101929190611660565b60405180910390f35b6101b560048036038101906101b09190611527565b6105b1565b005b6101bf6105bb565b6040516101cc9190611696565b60405180910390f35b6101dd6105c1565b6040516101ea919061167b565b60405180910390f35b61020d60048036038101906102089190611527565b6105e7565b005b6102176105f1565b6040516102249190611696565b60405180910390f35b610247600480360381019061024291906113e6565b6105f7565b005b610263600480360381019061025e9190611493565b61076d565b005b61026d610785565b60405161027a91906116b1565b60405180910390f35b61028b61078b565b6040516102989190611696565b60405180910390f35b6102bb60048036038101906102b69190611466565b610791565b005b6102c56107d5565b6040516102d291906116b1565b60405180910390f35b6102e36107db565b6040516102f0919061167b565b60405180910390f35b610301610801565b005b61031d60048036038101906103189190611426565b610d45565b005b610327610e5c565b60405161033491906116b1565b60405180910390f35b61035760048036038101906103529190611493565b610e62565b005b610373600480360381019061036e9190611493565b610e7a565b005b60008061038f866012600a61038a9190611912565b610e92565b905060006103b36103a08584610edd565b6012600a6103ae9190611912565b610f45565b90506103cd6012600a6103c69190611912565b6064610edd565b8113156103ef576103ec6012600a6103e59190611912565b6064610edd565b90505b6104266012600a6104009190611912565b7fffffffffffffffffffffffffffffffffffffffffffffffffffffffffffffff9c610edd565b811215610467576104646012600a61043e9190611912565b7fffffffffffffffffffffffffffffffffffffffffffffffffffffffffffffff9c610edd565b90505b6000610480826012600a61047b9190611912565b610f98565b905060008114156104965786935050505061053f565b60006104a28789610e92565b905060006104c66104c0896012600a6104bb9190611912565b610edd565b8a610f45565b90506104e86104e2826012600a6104dd9190611912565b610edd565b84610f45565b905060006105036012600a6104fd9190611912565b83610e92565b905060008a610528610522866012600a61051d9190611912565b610edd565b84610f45565b610532919061173a565b9050809750505050505050505b949350505050565b80600360006101000a81548173ffffffffffffffffffffffffffffffffffffffff021916908373ffffffffffffffffffffffffffffffffffffffff16021790555050565b600260009054906101000a900473ffffffffffffffffffffffffffffffffffffffff1681565b8060068190555050565b60085481565b600460009054906101000a900473ffffffffffffffffffffffffffffffffffffffff1681565b8060058190555050565b600a5481565b600160008082825461060991906117ce565b92505081905550600160405180608001604052803373ffffffffffffffffffffffffffffffffffffffff1681526020018473ffffffffffffffffffffffffffffffffffffffff16815260200183815260200142815250908060018154018082558091505060019003906000526020600020906004020160009091909190915060008201518160000160006101000a81548173ffffffffffffffffffffffffffffffffffffffff021916908373ffffffffffffffffffffffffffffffffffffffff16021790555060208201518160010160006101000a81548173ffffffffffffffffffffffffffffffffffffffff021916908373ffffffffffffffffffffffffffffffffffffffff160217905550604082015181600201556060820151816003015550507f9ed053bb818ff08b8353cd46f78db1f0799f31c9e4458fdb425c10eccd2efc4433838342604051610761949392919061161b565b60405180910390a15050565b600081121561077b57600080fd5b80600a8190555050565b60075481565b60095481565b80600460006101000a81548173ffffffffffffffffffffffffffffffffffffffff021916908373ffffffffffffffffffffffffffffffffffffffff16021790555050565b60055481565b600360009054906101000a900473ffffffffffffffffffffffffffffffffffffffff1681565b600160075461081091906117ce565b600781905550600080600360009054906101000a900473ffffffffffffffffffffffffffffffffffffffff1673ffffffffffffffffffffffffffffffffffffffff16633bc5de306040518163ffffffff1660e01b81526004016040805180830381600087803b15801561088257600080fd5b505af1158015610896573d6000803e3d6000fd5b505050506040513d601f19601f820116820180604052508101906108ba9190611581565b8092508193505050806108cc57600080fd5b60006108f06108e8846012600a6108e39190611912565b6110ff565b600554611144565b9050600080600460009054906101000a900473ffffffffffffffffffffffffffffffffffffffff1673ffffffffffffffffffffffffffffffffffffffff16633bc5de306040518163ffffffff1660e01b81526004016040805180830381600087803b15801561095e57600080fd5b505af1158015610972573d6000803e3d6000fd5b505050506040513d601f19601f820116820180604052508101906109969190611581565b8092508193505050806109a857600080fd5b6012600a6109b69190611912565b620f42406109c49190611b47565b8211156109ea576012600a6109d99190611912565b620f42406109e79190611b47565b91505b60006109f6838561116c565b9050600081138015610af757506012600a610a119190611912565b620f4240610a1f9190611b47565b7f7fffffffffffffffffffffffffffffffffffffffffffffffffffffffffffffff610a4a919061188e565b81600260009054906101000a900473ffffffffffffffffffffffffffffffffffffffff1673ffffffffffffffffffffffffffffffffffffffff166318160ddd6040518163ffffffff1660e01b815260040160206040518083038186803b158015610ab357600080fd5b505afa158015610ac7573d6000803e3d6000fd5b505050506040513d601f19601f82011682018060405250810190610aeb9190611554565b610af591906117ce565b115b15610bf057600260009054906101000a900473ffffffffffffffffffffffffffffffffffffffff1673ffffffffffffffffffffffffffffffffffffffff166318160ddd6040518163ffffffff1660e01b815260040160206040518083038186803b158015610b6457600080fd5b505afa158015610b78573d6000803e3d6000fd5b505050506040513d601f19601f82011682018060405250810190610b9c9190611554565b6012600a610baa9190611912565b620f4240610bb89190611b47565b7f7fffffffffffffffffffffffffffffffffffffffffffffffffffffffffffffff610be3919061188e565b610bed9190611c35565b90505b6000600260009054906101000a900473ffffffffffffffffffffffffffffffffffffffff1673ffffffffffffffffffffffffffffffffffffffff16637a43e23f600754846040518363ffffffff1660e01b8152600401610c519291906116cc565b602060405180830381600087803b158015610c6b57600080fd5b505af1158015610c7f573d6000803e3d6000fd5b505050506040513d601f19601f82011682018060405250810190610ca39190611554565b90506012600a610cb39190611912565b620f4240610cc19190611b47565b7f7fffffffffffffffffffffffffffffffffffffffffffffffffffffffffffffff610cec919061188e565b811115610cfc57610cfb611ddd565b5b6007547f41d948a7f29cc695f5d4b3ec147f766bffa165ddd317470fbe05c86d0a9c3e0485898542604051610d3494939291906116f5565b60405180910390a250505050505050565b60026012610d539190611c35565b600a610d5f9190611912565b6005610d6b9190611b47565b6006819055506012600a610d7f9190611912565b6003610d8b9190611b47565b600a8190555060026012610d9f9190611c35565b600a610dab9190611912565b600a610db79190611b47565b60098190555060026012610dcb9190611c35565b600a610dd79190611912565b7ffffffffffffffffffffffffffffffffffffffffffffffffffffffffffffffff6610e029190611a30565b600881905550600060078190555081600260006101000a81548173ffffffffffffffffffffffffffffffffffffffff021916908373ffffffffffffffffffffffffffffffffffffffff160217905550806005819055505050565b60065481565b6000811315610e7057600080fd5b8060088190555050565b6000811215610e8857600080fd5b8060098190555050565b6000808284610ea19190611ba1565b905060008312158015610eb45750838113155b80610eca5750600083128015610ec957508381135b5b610ed357600080fd5b8091505092915050565b6000808284610eec9190611a30565b905060ff6001901b81141580610f10575060ff6001901b831660ff6001901b851614155b610f1957600080fd5b6000831480610f325750838382610f309190611824565b145b610f3b57600080fd5b8091505092915050565b60007fffffffffffffffffffffffffffffffffffffffffffffffffffffffffffffffff82141580610f7b575060ff6001901b8314155b610f8457600080fd5b8183610f909190611824565b905092915050565b600080600090506000841215610fb85760019050610fb584611290565b93505b60006040518060a001604052806713a04bbdfdc9be898152602001671080e992061ab32b8152602001670f2243014e544ebb8152602001670e7e0178e9d6ed508152602001670e2e820ade835f46815250905060006110178686610f45565b9050606481131561102757600080fd5b6000611037826001901b87610edd565b9050600061104e88611049858a610edd565b610e92565b9050600061105d886002610f45565b905060005b60058110156110d3578183126110b35761107c8383610e92565b92506110b06110a28588846005811061109857611097611e6a565b5b6020020151610edd565b670de0b6b3a7640000610f45565b93505b6110be826002610f45565b915080806110cb90611d4b565b915050611062565b5085156110f0576110ed6110e7898a610edd565b84610f45565b92505b82965050505050505092915050565b600080831415611112576000905061113e565b600082846111209190611b47565b905082848261112f919061188e565b1461113957600080fd5b809150505b92915050565b600080821161115257600080fd5b60008284611160919061188e565b90508091505092915050565b600061117883836112c4565b15611186576000905061128a565b600082905060006111ad6111a7866012600a6111a29190611912565b610edd565b83610f45565b905060006111c382600854600954600a54610375565b9050611284611271600260009054906101000a900473ffffffffffffffffffffffffffffffffffffffff1673ffffffffffffffffffffffffffffffffffffffff166318160ddd6040518163ffffffff1660e01b815260040160206040518083038186803b15801561123357600080fd5b505afa158015611247573d6000803e3d6000fd5b505050506040513d601f19601f8201168201806040525081019061126b9190611554565b83610edd565b6012600a61127f9190611912565b610f45565b93505050505b92915050565b600060ff6001901b8214156112a457600080fd5b600082126112b257816112bd565b816112bc90611d94565b5b9050919050565b6000806112e96112d6846006546110ff565b6012600a6112e49190611912565b611144565b9050828410158015611303575080611301858561132a565b105b806113215750828410801561132057508061131e848661132a565b105b5b91505092915050565b60008282111561133957600080fd5b600082846113479190611c35565b90508091505092915050565b60008135905061136281611eab565b92915050565b60008151905061137781611ec2565b92915050565b60008135905061138c81611ed9565b92915050565b6000813590506113a181611ef0565b92915050565b6000813590506113b681611f07565b92915050565b6000813590506113cb81611f1e565b92915050565b6000815190506113e081611f1e565b92915050565b600080604083850312156113fd576113fc611e99565b5b600061140b85828601611353565b925050602061141c858286016113bc565b9150509250929050565b6000806040838503121561143d5761143c611e99565b5b600061144b8582860161137d565b925050602061145c858286016113bc565b9150509250929050565b60006020828403121561147c5761147b611e99565b5b600061148a84828501611392565b91505092915050565b6000602082840312156114a9576114a8611e99565b5b60006114b7848285016113a7565b91505092915050565b600080600080608085870312156114da576114d9611e99565b5b60006114e8878288016113a7565b94505060206114f9878288016113a7565b935050604061150a878288016113a7565b925050606061151b878288016113a7565b91505092959194509250565b60006020828403121561153d5761153c611e99565b5b600061154b848285016113bc565b91505092915050565b60006020828403121561156a57611569611e99565b5b6000611578848285016113d1565b91505092915050565b6000806040838503121561159857611597611e99565b5b60006115a6858286016113d1565b92505060206115b785828601611368565b9150509250929050565b6115ca81611cf1565b82525050565b6115d981611c69565b82525050565b6115e881611d03565b82525050565b6115f781611d15565b82525050565b61160681611cbd565b82525050565b61161581611ce7565b82525050565b600060808201905061163060008301876115d0565b61163d60208301866115c1565b61164a604083018561160c565b611657606083018461160c565b95945050505050565b600060208201905061167560008301846115df565b92915050565b600060208201905061169060008301846115ee565b92915050565b60006020820190506116ab60008301846115fd565b92915050565b60006020820190506116c6600083018461160c565b92915050565b60006040820190506116e1600083018561160c565b6116ee60208301846115fd565b9392505050565b600060808201905061170a600083018761160c565b611717602083018661160c565b61172460408301856115fd565b611731606083018461160c565b95945050505050565b600061174582611cbd565b915061175083611cbd565b9250817f7fffffffffffffffffffffffffffffffffffffffffffffffffffffffffffffff0383136000831215161561178b5761178a611e0c565b5b817f80000000000000000000000000000000000000000000000000000000000000000383126000831216156117c3576117c2611e0c565b5b828201905092915050565b60006117d982611ce7565b91506117e483611ce7565b9250827fffffffffffffffffffffffffffffffffffffffffffffffffffffffffffffffff0382111561181957611818611e0c565b5b828201905092915050565b600061182f82611cbd565b915061183a83611cbd565b92508261184a57611849611e3b565b5b600160000383147f80000000000000000000000000000000000000000000000000000000000000008314161561188357611882611e0c565b5b828205905092915050565b600061189982611ce7565b91506118a483611ce7565b9250826118b4576118b3611e3b565b5b828204905092915050565b6000808291508390505b6001851115611909578086048111156118e5576118e4611e0c565b5b60018516156118f45780820291505b808102905061190285611e9e565b94506118c9565b94509492505050565b600061191d82611ce7565b915061192883611ce7565b92506119557fffffffffffffffffffffffffffffffffffffffffffffffffffffffffffffffff848461195d565b905092915050565b60008261196d5760019050611a29565b8161197b5760009050611a29565b8160018114611991576002811461199b576119ca565b6001915050611a29565b60ff8411156119ad576119ac611e0c565b5b8360020a9150848211156119c4576119c3611e0c565b5b50611a29565b5060208310610133831016604e8410600b84101617156119ff5782820a9050838111156119fa576119f9611e0c565b5b611a29565b611a0c84848460016118bf565b92509050818404811115611a2357611a22611e0c565b5b81810290505b9392505050565b6000611a3b82611cbd565b9150611a4683611cbd565b9250827f7fffffffffffffffffffffffffffffffffffffffffffffffffffffffffffffff0482116000841360008413161615611a8557611a84611e0c565b5b817f80000000000000000000000000000000000000000000000000000000000000000583126000841260008413161615611ac257611ac1611e0c565b5b827f80000000000000000000000000000000000000000000000000000000000000000582126000841360008412161615611aff57611afe611e0c565b5b827f7fffffffffffffffffffffffffffffffffffffffffffffffffffffffffffffff0582126000841260008412161615611b3c57611b3b611e0c565b5b828202905092915050565b6000611b5282611ce7565b9150611b5d83611ce7565b9250817fffffffffffffffffffffffffffffffffffffffffffffffffffffffffffffffff0483118215151615611b9657611b95611e0c565b5b828202905092915050565b6000611bac82611cbd565b9150611bb783611cbd565b9250827f800000000000000000000000000000000000000000000000000000000000000001821260008412151615611bf257611bf1611e0c565b5b827f7fffffffffffffffffffffffffffffffffffffffffffffffffffffffffffffff018213600084121615611c2a57611c29611e0c565b5b828203905092915050565b6000611c4082611ce7565b9150611c4b83611ce7565b925082821015611c5e57611c5d611e0c565b5b828203905092915050565b6000611c7482611cc7565b9050919050565b6000611c8682611cc7565b9050919050565b60008115159050919050565b6000611ca482611c69565b9050919050565b6000611cb682611c69565b9050919050565b6000819050919050565b600073ffffffffffffffffffffffffffffffffffffffff82169050919050565b6000819050919050565b6000611cfc82611d27565b9050919050565b6000611d0e82611d27565b9050919050565b6000611d2082611d27565b9050919050565b6000611d3282611d39565b9050919050565b6000611d4482611cc7565b9050919050565b6000611d5682611ce7565b91507fffffffffffffffffffffffffffffffffffffffffffffffffffffffffffffffff821415611d8957611d88611e0c565b5b600182019050919050565b6000611d9f82611cbd565b91507f8000000000000000000000000000000000000000000000000000000000000000821415611dd257611dd1611e0c565b5b816000039050919050565b7f4e487b7100000000000000000000000000000000000000000000000000000000600052600160045260246000fd5b7f4e487b7100000000000000000000000000000000000000000000000000000000600052601160045260246000fd5b7f4e487b7100000000000000000000000000000000000000000000000000000000600052601260045260246000fd5b7f4e487b7100000000000000000000000000000000000000000000000000000000600052603260045260246000fd5b600080fd5b60008160011c9050919050565b611eb481611c7b565b8114611ebf57600080fd5b50565b611ecb81611c8d565b8114611ed657600080fd5b50565b611ee281611c99565b8114611eed57600080fd5b50565b611ef981611cab565b8114611f0457600080fd5b50565b611f1081611cbd565b8114611f1b57600080fd5b50565b611f2781611ce7565b8114611f3257600080fd5b5056fea2646970667358221220725d1362d699ad28253183ba856b1873e2651471173857098e3cacad05bd377c64736f6c63430008070033",
					"opcodes": "PUSH1 0x80 PUSH1 0x40 MSTORE CALLVALUE DUP1 ISZERO PUSH2 0x10 JUMPI PUSH1 0x0 DUP1 REVERT JUMPDEST POP PUSH2 0x1F6B DUP1 PUSH2 0x20 PUSH1 0x0 CODECOPY PUSH1 0x0 RETURN INVALID PUSH1 0x80 PUSH1 0x40 MSTORE CALLVALUE DUP1 ISZERO PUSH2 0x10 JUMPI PUSH1 0x0 DUP1 REVERT JUMPDEST POP PUSH1 0x4 CALLDATASIZE LT PUSH2 0x12C JUMPI PUSH1 0x0 CALLDATALOAD PUSH1 0xE0 SHR DUP1 PUSH4 0x900CF0CF GT PUSH2 0xAD JUMPI DUP1 PUSH4 0xAF14052C GT PUSH2 0x71 JUMPI DUP1 PUSH4 0xAF14052C EQ PUSH2 0x2F9 JUMPI DUP1 PUSH4 0xCD6DC687 EQ PUSH2 0x303 JUMPI DUP1 PUSH4 0xD94AD837 EQ PUSH2 0x31F JUMPI DUP1 PUSH4 0xE9FA88A4 EQ PUSH2 0x33D JUMPI DUP1 PUSH4 0xF4FEFA49 EQ PUSH2 0x359 JUMPI PUSH2 0x12C JUMP JUMPDEST DUP1 PUSH4 0x900CF0CF EQ PUSH2 0x265 JUMPI DUP1 PUSH4 0x9DB59B2F EQ PUSH2 0x283 JUMPI DUP1 PUSH4 0x9E30BAC5 EQ PUSH2 0x2A1 JUMPI DUP1 PUSH4 0xA37069EE EQ PUSH2 0x2BD JUMPI DUP1 PUSH4 0xAB33C5CA EQ PUSH2 0x2DB JUMPI PUSH2 0x12C JUMP JUMPDEST DUP1 PUSH4 0x60961528 GT PUSH2 0xF4 JUMPI DUP1 PUSH4 0x60961528 EQ PUSH2 0x1D5 JUMPI DUP1 PUSH4 0x6DE729DB EQ PUSH2 0x1F3 JUMPI DUP1 PUSH4 0x7486CDEA EQ PUSH2 0x20F JUMPI DUP1 PUSH4 0x7B56C2B2 EQ PUSH2 0x22D JUMPI DUP1 PUSH4 0x8001066D EQ PUSH2 0x249 JUMPI PUSH2 0x12C JUMP JUMPDEST DUP1 PUSH4 0x3A785AF1 EQ PUSH2 0x131 JUMPI DUP1 PUSH4 0x3D6A46E5 EQ PUSH2 0x161 JUMPI DUP1 PUSH4 0x4DAFA35E EQ PUSH2 0x17D JUMPI DUP1 PUSH4 0x53A15EDC EQ PUSH2 0x19B JUMPI DUP1 PUSH4 0x5EE01540 EQ PUSH2 0x1B7 JUMPI JUMPDEST PUSH1 0x0 DUP1 REVERT JUMPDEST PUSH2 0x14B PUSH1 0x4 DUP1 CALLDATASIZE SUB DUP2 ADD SWAP1 PUSH2 0x146 SWAP2 SWAP1 PUSH2 0x14C0 JUMP JUMPDEST PUSH2 0x375 JUMP JUMPDEST PUSH1 0x40 MLOAD PUSH2 0x158 SWAP2 SWAP1 PUSH2 0x1696 JUMP JUMPDEST PUSH1 0x40 MLOAD DUP1 SWAP2 SUB SWAP1 RETURN JUMPDEST PUSH2 0x17B PUSH1 0x4 DUP1 CALLDATASIZE SUB DUP2 ADD SWAP1 PUSH2 0x176 SWAP2 SWAP1 PUSH2 0x1466 JUMP JUMPDEST PUSH2 0x547 JUMP JUMPDEST STOP JUMPDEST PUSH2 0x185 PUSH2 0x58B JUMP JUMPDEST PUSH1 0x40 MLOAD PUSH2 0x192 SWAP2 SWAP1 PUSH2 0x1660 JUMP JUMPDEST PUSH1 0x40 MLOAD DUP1 SWAP2 SUB SWAP1 RETURN JUMPDEST PUSH2 0x1B5 PUSH1 0x4 DUP1 CALLDATASIZE SUB DUP2 ADD SWAP1 PUSH2 0x1B0 SWAP2 SWAP1 PUSH2 0x1527 JUMP JUMPDEST PUSH2 0x5B1 JUMP JUMPDEST STOP JUMPDEST PUSH2 0x1BF PUSH2 0x5BB JUMP JUMPDEST PUSH1 0x40 MLOAD PUSH2 0x1CC SWAP2 SWAP1 PUSH2 0x1696 JUMP JUMPDEST PUSH1 0x40 MLOAD DUP1 SWAP2 SUB SWAP1 RETURN JUMPDEST PUSH2 0x1DD PUSH2 0x5C1 JUMP JUMPDEST PUSH1 0x40 MLOAD PUSH2 0x1EA SWAP2 SWAP1 PUSH2 0x167B JUMP JUMPDEST PUSH1 0x40 MLOAD DUP1 SWAP2 SUB SWAP1 RETURN JUMPDEST PUSH2 0x20D PUSH1 0x4 DUP1 CALLDATASIZE SUB DUP2 ADD SWAP1 PUSH2 0x208 SWAP2 SWAP1 PUSH2 0x1527 JUMP JUMPDEST PUSH2 0x5E7 JUMP JUMPDEST STOP JUMPDEST PUSH2 0x217 PUSH2 0x5F1 JUMP JUMPDEST PUSH1 0x40 MLOAD PUSH2 0x224 SWAP2 SWAP1 PUSH2 0x1696 JUMP JUMPDEST PUSH1 0x40 MLOAD DUP1 SWAP2 SUB SWAP1 RETURN JUMPDEST PUSH2 0x247 PUSH1 0x4 DUP1 CALLDATASIZE SUB DUP2 ADD SWAP1 PUSH2 0x242 SWAP2 SWAP1 PUSH2 0x13E6 JUMP JUMPDEST PUSH2 0x5F7 JUMP JUMPDEST STOP JUMPDEST PUSH2 0x263 PUSH1 0x4 DUP1 CALLDATASIZE SUB DUP2 ADD SWAP1 PUSH2 0x25E SWAP2 SWAP1 PUSH2 0x1493 JUMP JUMPDEST PUSH2 0x76D JUMP JUMPDEST STOP JUMPDEST PUSH2 0x26D PUSH2 0x785 JUMP JUMPDEST PUSH1 0x40 MLOAD PUSH2 0x27A SWAP2 SWAP1 PUSH2 0x16B1 JUMP JUMPDEST PUSH1 0x40 MLOAD DUP1 SWAP2 SUB SWAP1 RETURN JUMPDEST PUSH2 0x28B PUSH2 0x78B JUMP JUMPDEST PUSH1 0x40 MLOAD PUSH2 0x298 SWAP2 SWAP1 PUSH2 0x1696 JUMP JUMPDEST PUSH1 0x40 MLOAD DUP1 SWAP2 SUB SWAP1 RETURN JUMPDEST PUSH2 0x2BB PUSH1 0x4 DUP1 CALLDATASIZE SUB DUP2 ADD SWAP1 PUSH2 0x2B6 SWAP2 SWAP1 PUSH2 0x1466 JUMP JUMPDEST PUSH2 0x791 JUMP JUMPDEST STOP JUMPDEST PUSH2 0x2C5 PUSH2 0x7D5 JUMP JUMPDEST PUSH1 0x40 MLOAD PUSH2 0x2D2 SWAP2 SWAP1 PUSH2 0x16B1 JUMP JUMPDEST PUSH1 0x40 MLOAD DUP1 SWAP2 SUB SWAP1 RETURN JUMPDEST PUSH2 0x2E3 PUSH2 0x7DB JUMP JUMPDEST PUSH1 0x40 MLOAD PUSH2 0x2F0 SWAP2 SWAP1 PUSH2 0x167B JUMP JUMPDEST PUSH1 0x40 MLOAD DUP1 SWAP2 SUB SWAP1 RETURN JUMPDEST PUSH2 0x301 PUSH2 0x801 JUMP JUMPDEST STOP JUMPDEST PUSH2 0x31D PUSH1 0x4 DUP1 CALLDATASIZE SUB DUP2 ADD SWAP1 PUSH2 0x318 SWAP2 SWAP1 PUSH2 0x1426 JUMP JUMPDEST PUSH2 0xD45 JUMP JUMPDEST STOP JUMPDEST PUSH2 0x327 PUSH2 0xE5C JUMP JUMPDEST PUSH1 0x40 MLOAD PUSH2 0x334 SWAP2 SWAP1 PUSH2 0x16B1 JUMP JUMPDEST PUSH1 0x40 MLOAD DUP1 SWAP2 SUB SWAP1 RETURN JUMPDEST PUSH2 0x357 PUSH1 0x4 DUP1 CALLDATASIZE SUB DUP2 ADD SWAP1 PUSH2 0x352 SWAP2 SWAP1 PUSH2 0x1493 JUMP JUMPDEST PUSH2 0xE62 JUMP JUMPDEST STOP JUMPDEST PUSH2 0x373 PUSH1 0x4 DUP1 CALLDATASIZE SUB DUP2 ADD SWAP1 PUSH2 0x36E SWAP2 SWAP1 PUSH2 0x1493 JUMP JUMPDEST PUSH2 0xE7A JUMP JUMPDEST STOP JUMPDEST PUSH1 0x0 DUP1 PUSH2 0x38F DUP7 PUSH1 0x12 PUSH1 0xA PUSH2 0x38A SWAP2 SWAP1 PUSH2 0x1912 JUMP JUMPDEST PUSH2 0xE92 JUMP JUMPDEST SWAP1 POP PUSH1 0x0 PUSH2 0x3B3 PUSH2 0x3A0 DUP6 DUP5 PUSH2 0xEDD JUMP JUMPDEST PUSH1 0x12 PUSH1 0xA PUSH2 0x3AE SWAP2 SWAP1 PUSH2 0x1912 JUMP JUMPDEST PUSH2 0xF45 JUMP JUMPDEST SWAP1 POP PUSH2 0x3CD PUSH1 0x12 PUSH1 0xA PUSH2 0x3C6 SWAP2 SWAP1 PUSH2 0x1912 JUMP JUMPDEST PUSH1 0x64 PUSH2 0xEDD JUMP JUMPDEST DUP2 SGT ISZERO PUSH2 0x3EF JUMPI PUSH2 0x3EC PUSH1 0x12 PUSH1 0xA PUSH2 0x3E5 SWAP2 SWAP1 PUSH2 0x1912 JUMP JUMPDEST PUSH1 0x64 PUSH2 0xEDD JUMP JUMPDEST SWAP1 POP JUMPDEST PUSH2 0x426 PUSH1 0x12 PUSH1 0xA PUSH2 0x400 SWAP2 SWAP1 PUSH2 0x1912 JUMP JUMPDEST PUSH32 0xFFFFFFFFFFFFFFFFFFFFFFFFFFFFFFFFFFFFFFFFFFFFFFFFFFFFFFFFFFFFFF9C PUSH2 0xEDD JUMP JUMPDEST DUP2 SLT ISZERO PUSH2 0x467 JUMPI PUSH2 0x464 PUSH1 0x12 PUSH1 0xA PUSH2 0x43E SWAP2 SWAP1 PUSH2 0x1912 JUMP JUMPDEST PUSH32 0xFFFFFFFFFFFFFFFFFFFFFFFFFFFFFFFFFFFFFFFFFFFFFFFFFFFFFFFFFFFFFF9C PUSH2 0xEDD JUMP JUMPDEST SWAP1 POP JUMPDEST PUSH1 0x0 PUSH2 0x480 DUP3 PUSH1 0x12 PUSH1 0xA PUSH2 0x47B SWAP2 SWAP1 PUSH2 0x1912 JUMP JUMPDEST PUSH2 0xF98 JUMP JUMPDEST SWAP1 POP PUSH1 0x0 DUP2 EQ ISZERO PUSH2 0x496 JUMPI DUP7 SWAP4 POP POP POP POP PUSH2 0x53F JUMP JUMPDEST PUSH1 0x0 PUSH2 0x4A2 DUP8 DUP10 PUSH2 0xE92 JUMP JUMPDEST SWAP1 POP PUSH1 0x0 PUSH2 0x4C6 PUSH2 0x4C0 DUP10 PUSH1 0x12 PUSH1 0xA PUSH2 0x4BB SWAP2 SWAP1 PUSH2 0x1912 JUMP JUMPDEST PUSH2 0xEDD JUMP JUMPDEST DUP11 PUSH2 0xF45 JUMP JUMPDEST SWAP1 POP PUSH2 0x4E8 PUSH2 0x4E2 DUP3 PUSH1 0x12 PUSH1 0xA PUSH2 0x4DD SWAP2 SWAP1 PUSH2 0x1912 JUMP JUMPDEST PUSH2 0xEDD JUMP JUMPDEST DUP5 PUSH2 0xF45 JUMP JUMPDEST SWAP1 POP PUSH1 0x0 PUSH2 0x503 PUSH1 0x12 PUSH1 0xA PUSH2 0x4FD SWAP2 SWAP1 PUSH2 0x1912 JUMP JUMPDEST DUP4 PUSH2 0xE92 JUMP JUMPDEST SWAP1 POP PUSH1 0x0 DUP11 PUSH2 0x528 PUSH2 0x522 DUP7 PUSH1 0x12 PUSH1 0xA PUSH2 0x51D SWAP2 SWAP1 PUSH2 0x1912 JUMP JUMPDEST PUSH2 0xEDD JUMP JUMPDEST DUP5 PUSH2 0xF45 JUMP JUMPDEST PUSH2 0x532 SWAP2 SWAP1 PUSH2 0x173A JUMP JUMPDEST SWAP1 POP DUP1 SWAP8 POP POP POP POP POP POP POP POP JUMPDEST SWAP5 SWAP4 POP POP POP POP JUMP JUMPDEST DUP1 PUSH1 0x3 PUSH1 0x0 PUSH2 0x100 EXP DUP2 SLOAD DUP2 PUSH20 0xFFFFFFFFFFFFFFFFFFFFFFFFFFFFFFFFFFFFFFFF MUL NOT AND SWAP1 DUP4 PUSH20 0xFFFFFFFFFFFFFFFFFFFFFFFFFFFFFFFFFFFFFFFF AND MUL OR SWAP1 SSTORE POP POP JUMP JUMPDEST PUSH1 0x2 PUSH1 0x0 SWAP1 SLOAD SWAP1 PUSH2 0x100 EXP SWAP1 DIV PUSH20 0xFFFFFFFFFFFFFFFFFFFFFFFFFFFFFFFFFFFFFFFF AND DUP2 JUMP JUMPDEST DUP1 PUSH1 0x6 DUP2 SWAP1 SSTORE POP POP JUMP JUMPDEST PUSH1 0x8 SLOAD DUP2 JUMP JUMPDEST PUSH1 0x4 PUSH1 0x0 SWAP1 SLOAD SWAP1 PUSH2 0x100 EXP SWAP1 DIV PUSH20 0xFFFFFFFFFFFFFFFFFFFFFFFFFFFFFFFFFFFFFFFF AND DUP2 JUMP JUMPDEST DUP1 PUSH1 0x5 DUP2 SWAP1 SSTORE POP POP JUMP JUMPDEST PUSH1 0xA SLOAD DUP2 JUMP JUMPDEST PUSH1 0x1 PUSH1 0x0 DUP1 DUP3 DUP3 SLOAD PUSH2 0x609 SWAP2 SWAP1 PUSH2 0x17CE JUMP JUMPDEST SWAP3 POP POP DUP2 SWAP1 SSTORE POP PUSH1 0x1 PUSH1 0x40 MLOAD DUP1 PUSH1 0x80 ADD PUSH1 0x40 MSTORE DUP1 CALLER PUSH20 0xFFFFFFFFFFFFFFFFFFFFFFFFFFFFFFFFFFFFFFFF AND DUP2 MSTORE PUSH1 0x20 ADD DUP5 PUSH20 0xFFFFFFFFFFFFFFFFFFFFFFFFFFFFFFFFFFFFFFFF AND DUP2 MSTORE PUSH1 0x20 ADD DUP4 DUP2 MSTORE PUSH1 0x20 ADD TIMESTAMP DUP2 MSTORE POP SWAP1 DUP1 PUSH1 0x1 DUP2 SLOAD ADD DUP1 DUP3 SSTORE DUP1 SWAP2 POP POP PUSH1 0x1 SWAP1 SUB SWAP1 PUSH1 0x0 MSTORE PUSH1 0x20 PUSH1 0x0 KECCAK256 SWAP1 PUSH1 0x4 MUL ADD PUSH1 0x0 SWAP1 SWAP2 SWAP1 SWAP2 SWAP1 SWAP2 POP PUSH1 0x0 DUP3 ADD MLOAD DUP2 PUSH1 0x0 ADD PUSH1 0x0 PUSH2 0x100 EXP DUP2 SLOAD DUP2 PUSH20 0xFFFFFFFFFFFFFFFFFFFFFFFFFFFFFFFFFFFFFFFF MUL NOT AND SWAP1 DUP4 PUSH20 0xFFFFFFFFFFFFFFFFFFFFFFFFFFFFFFFFFFFFFFFF AND MUL OR SWAP1 SSTORE POP PUSH1 0x20 DUP3 ADD MLOAD DUP2 PUSH1 0x1 ADD PUSH1 0x0 PUSH2 0x100 EXP DUP2 SLOAD DUP2 PUSH20 0xFFFFFFFFFFFFFFFFFFFFFFFFFFFFFFFFFFFFFFFF MUL NOT AND SWAP1 DUP4 PUSH20 0xFFFFFFFFFFFFFFFFFFFFFFFFFFFFFFFFFFFFFFFF AND MUL OR SWAP1 SSTORE POP PUSH1 0x40 DUP3 ADD MLOAD DUP2 PUSH1 0x2 ADD SSTORE PUSH1 0x60 DUP3 ADD MLOAD DUP2 PUSH1 0x3 ADD SSTORE POP POP PUSH32 0x9ED053BB818FF08B8353CD46F78DB1F0799F31C9E4458FDB425C10ECCD2EFC44 CALLER DUP4 DUP4 TIMESTAMP PUSH1 0x40 MLOAD PUSH2 0x761 SWAP5 SWAP4 SWAP3 SWAP2 SWAP1 PUSH2 0x161B JUMP JUMPDEST PUSH1 0x40 MLOAD DUP1 SWAP2 SUB SWAP1 LOG1 POP POP JUMP JUMPDEST PUSH1 0x0 DUP2 SLT ISZERO PUSH2 0x77B JUMPI PUSH1 0x0 DUP1 REVERT JUMPDEST DUP1 PUSH1 0xA DUP2 SWAP1 SSTORE POP POP JUMP JUMPDEST PUSH1 0x7 SLOAD DUP2 JUMP JUMPDEST PUSH1 0x9 SLOAD DUP2 JUMP JUMPDEST DUP1 PUSH1 0x4 PUSH1 0x0 PUSH2 0x100 EXP DUP2 SLOAD DUP2 PUSH20 0xFFFFFFFFFFFFFFFFFFFFFFFFFFFFFFFFFFFFFFFF MUL NOT AND SWAP1 DUP4 PUSH20 0xFFFFFFFFFFFFFFFFFFFFFFFFFFFFFFFFFFFFFFFF AND MUL OR SWAP1 SSTORE POP POP JUMP JUMPDEST PUSH1 0x5 SLOAD DUP2 JUMP JUMPDEST PUSH1 0x3 PUSH1 0x0 SWAP1 SLOAD SWAP1 PUSH2 0x100 EXP SWAP1 DIV PUSH20 0xFFFFFFFFFFFFFFFFFFFFFFFFFFFFFFFFFFFFFFFF AND DUP2 JUMP JUMPDEST PUSH1 0x1 PUSH1 0x7 SLOAD PUSH2 0x810 SWAP2 SWAP1 PUSH2 0x17CE JUMP JUMPDEST PUSH1 0x7 DUP2 SWAP1 SSTORE POP PUSH1 0x0 DUP1 PUSH1 0x3 PUSH1 0x0 SWAP1 SLOAD SWAP1 PUSH2 0x100 EXP SWAP1 DIV PUSH20 0xFFFFFFFFFFFFFFFFFFFFFFFFFFFFFFFFFFFFFFFF AND PUSH20 0xFFFFFFFFFFFFFFFFFFFFFFFFFFFFFFFFFFFFFFFF AND PUSH4 0x3BC5DE30 PUSH1 0x40 MLOAD DUP2 PUSH4 0xFFFFFFFF AND PUSH1 0xE0 SHL DUP2 MSTORE PUSH1 0x4 ADD PUSH1 0x40 DUP1 MLOAD DUP1 DUP4 SUB DUP2 PUSH1 0x0 DUP8 DUP1 EXTCODESIZE ISZERO DUP1 ISZERO PUSH2 0x882 JUMPI PUSH1 0x0 DUP1 REVERT JUMPDEST POP GAS CALL ISZERO DUP1 ISZERO PUSH2 0x896 JUMPI RETURNDATASIZE PUSH1 0x0 DUP1 RETURNDATACOPY RETURNDATASIZE PUSH1 0x0 REVERT JUMPDEST POP POP POP POP PUSH1 0x40 MLOAD RETURNDATASIZE PUSH1 0x1F NOT PUSH1 0x1F DUP3 ADD AND DUP3 ADD DUP1 PUSH1 0x40 MSTORE POP DUP2 ADD SWAP1 PUSH2 0x8BA SWAP2 SWAP1 PUSH2 0x1581 JUMP JUMPDEST DUP1 SWAP3 POP DUP2 SWAP4 POP POP POP DUP1 PUSH2 0x8CC JUMPI PUSH1 0x0 DUP1 REVERT JUMPDEST PUSH1 0x0 PUSH2 0x8F0 PUSH2 0x8E8 DUP5 PUSH1 0x12 PUSH1 0xA PUSH2 0x8E3 SWAP2 SWAP1 PUSH2 0x1912 JUMP JUMPDEST PUSH2 0x10FF JUMP JUMPDEST PUSH1 0x5 SLOAD PUSH2 0x1144 JUMP JUMPDEST SWAP1 POP PUSH1 0x0 DUP1 PUSH1 0x4 PUSH1 0x0 SWAP1 SLOAD SWAP1 PUSH2 0x100 EXP SWAP1 DIV PUSH20 0xFFFFFFFFFFFFFFFFFFFFFFFFFFFFFFFFFFFFFFFF AND PUSH20 0xFFFFFFFFFFFFFFFFFFFFFFFFFFFFFFFFFFFFFFFF AND PUSH4 0x3BC5DE30 PUSH1 0x40 MLOAD DUP2 PUSH4 0xFFFFFFFF AND PUSH1 0xE0 SHL DUP2 MSTORE PUSH1 0x4 ADD PUSH1 0x40 DUP1 MLOAD DUP1 DUP4 SUB DUP2 PUSH1 0x0 DUP8 DUP1 EXTCODESIZE ISZERO DUP1 ISZERO PUSH2 0x95E JUMPI PUSH1 0x0 DUP1 REVERT JUMPDEST POP GAS CALL ISZERO DUP1 ISZERO PUSH2 0x972 JUMPI RETURNDATASIZE PUSH1 0x0 DUP1 RETURNDATACOPY RETURNDATASIZE PUSH1 0x0 REVERT JUMPDEST POP POP POP POP PUSH1 0x40 MLOAD RETURNDATASIZE PUSH1 0x1F NOT PUSH1 0x1F DUP3 ADD AND DUP3 ADD DUP1 PUSH1 0x40 MSTORE POP DUP2 ADD SWAP1 PUSH2 0x996 SWAP2 SWAP1 PUSH2 0x1581 JUMP JUMPDEST DUP1 SWAP3 POP DUP2 SWAP4 POP POP POP DUP1 PUSH2 0x9A8 JUMPI PUSH1 0x0 DUP1 REVERT JUMPDEST PUSH1 0x12 PUSH1 0xA PUSH2 0x9B6 SWAP2 SWAP1 PUSH2 0x1912 JUMP JUMPDEST PUSH3 0xF4240 PUSH2 0x9C4 SWAP2 SWAP1 PUSH2 0x1B47 JUMP JUMPDEST DUP3 GT ISZERO PUSH2 0x9EA JUMPI PUSH1 0x12 PUSH1 0xA PUSH2 0x9D9 SWAP2 SWAP1 PUSH2 0x1912 JUMP JUMPDEST PUSH3 0xF4240 PUSH2 0x9E7 SWAP2 SWAP1 PUSH2 0x1B47 JUMP JUMPDEST SWAP2 POP JUMPDEST PUSH1 0x0 PUSH2 0x9F6 DUP4 DUP6 PUSH2 0x116C JUMP JUMPDEST SWAP1 POP PUSH1 0x0 DUP2 SGT DUP1 ISZERO PUSH2 0xAF7 JUMPI POP PUSH1 0x12 PUSH1 0xA PUSH2 0xA11 SWAP2 SWAP1 PUSH2 0x1912 JUMP JUMPDEST PUSH3 0xF4240 PUSH2 0xA1F SWAP2 SWAP1 PUSH2 0x1B47 JUMP JUMPDEST PUSH32 0x7FFFFFFFFFFFFFFFFFFFFFFFFFFFFFFFFFFFFFFFFFFFFFFFFFFFFFFFFFFFFFFF PUSH2 0xA4A SWAP2 SWAP1 PUSH2 0x188E JUMP JUMPDEST DUP2 PUSH1 0x2 PUSH1 0x0 SWAP1 SLOAD SWAP1 PUSH2 0x100 EXP SWAP1 DIV PUSH20 0xFFFFFFFFFFFFFFFFFFFFFFFFFFFFFFFFFFFFFFFF AND PUSH20 0xFFFFFFFFFFFFFFFFFFFFFFFFFFFFFFFFFFFFFFFF AND PUSH4 0x18160DDD PUSH1 0x40 MLOAD DUP2 PUSH4 0xFFFFFFFF AND PUSH1 0xE0 SHL DUP2 MSTORE PUSH1 0x4 ADD PUSH1 0x20 PUSH1 0x40 MLOAD DUP1 DUP4 SUB DUP2 DUP7 DUP1 EXTCODESIZE ISZERO DUP1 ISZERO PUSH2 0xAB3 JUMPI PUSH1 0x0 DUP1 REVERT JUMPDEST POP GAS STATICCALL ISZERO DUP1 ISZERO PUSH2 0xAC7 JUMPI RETURNDATASIZE PUSH1 0x0 DUP1 RETURNDATACOPY RETURNDATASIZE PUSH1 0x0 REVERT JUMPDEST POP POP POP POP PUSH1 0x40 MLOAD RETURNDATASIZE PUSH1 0x1F NOT PUSH1 0x1F DUP3 ADD AND DUP3 ADD DUP1 PUSH1 0x40 MSTORE POP DUP2 ADD SWAP1 PUSH2 0xAEB SWAP2 SWAP1 PUSH2 0x1554 JUMP JUMPDEST PUSH2 0xAF5 SWAP2 SWAP1 PUSH2 0x17CE JUMP JUMPDEST GT JUMPDEST ISZERO PUSH2 0xBF0 JUMPI PUSH1 0x2 PUSH1 0x0 SWAP1 SLOAD SWAP1 PUSH2 0x100 EXP SWAP1 DIV PUSH20 0xFFFFFFFFFFFFFFFFFFFFFFFFFFFFFFFFFFFFFFFF AND PUSH20 0xFFFFFFFFFFFFFFFFFFFFFFFFFFFFFFFFFFFFFFFF AND PUSH4 0x18160DDD PUSH1 0x40 MLOAD DUP2 PUSH4 0xFFFFFFFF AND PUSH1 0xE0 SHL DUP2 MSTORE PUSH1 0x4 ADD PUSH1 0x20 PUSH1 0x40 MLOAD DUP1 DUP4 SUB DUP2 DUP7 DUP1 EXTCODESIZE ISZERO DUP1 ISZERO PUSH2 0xB64 JUMPI PUSH1 0x0 DUP1 REVERT JUMPDEST POP GAS STATICCALL ISZERO DUP1 ISZERO PUSH2 0xB78 JUMPI RETURNDATASIZE PUSH1 0x0 DUP1 RETURNDATACOPY RETURNDATASIZE PUSH1 0x0 REVERT JUMPDEST POP POP POP POP PUSH1 0x40 MLOAD RETURNDATASIZE PUSH1 0x1F NOT PUSH1 0x1F DUP3 ADD AND DUP3 ADD DUP1 PUSH1 0x40 MSTORE POP DUP2 ADD SWAP1 PUSH2 0xB9C SWAP2 SWAP1 PUSH2 0x1554 JUMP JUMPDEST PUSH1 0x12 PUSH1 0xA PUSH2 0xBAA SWAP2 SWAP1 PUSH2 0x1912 JUMP JUMPDEST PUSH3 0xF4240 PUSH2 0xBB8 SWAP2 SWAP1 PUSH2 0x1B47 JUMP JUMPDEST PUSH32 0x7FFFFFFFFFFFFFFFFFFFFFFFFFFFFFFFFFFFFFFFFFFFFFFFFFFFFFFFFFFFFFFF PUSH2 0xBE3 SWAP2 SWAP1 PUSH2 0x188E JUMP JUMPDEST PUSH2 0xBED SWAP2 SWAP1 PUSH2 0x1C35 JUMP JUMPDEST SWAP1 POP JUMPDEST PUSH1 0x0 PUSH1 0x2 PUSH1 0x0 SWAP1 SLOAD SWAP1 PUSH2 0x100 EXP SWAP1 DIV PUSH20 0xFFFFFFFFFFFFFFFFFFFFFFFFFFFFFFFFFFFFFFFF AND PUSH20 0xFFFFFFFFFFFFFFFFFFFFFFFFFFFFFFFFFFFFFFFF AND PUSH4 0x7A43E23F PUSH1 0x7 SLOAD DUP5 PUSH1 0x40 MLOAD DUP4 PUSH4 0xFFFFFFFF AND PUSH1 0xE0 SHL DUP2 MSTORE PUSH1 0x4 ADD PUSH2 0xC51 SWAP3 SWAP2 SWAP1 PUSH2 0x16CC JUMP JUMPDEST PUSH1 0x20 PUSH1 0x40 MLOAD DUP1 DUP4 SUB DUP2 PUSH1 0x0 DUP8 DUP1 EXTCODESIZE ISZERO DUP1 ISZERO PUSH2 0xC6B JUMPI PUSH1 0x0 DUP1 REVERT JUMPDEST POP GAS CALL ISZERO DUP1 ISZERO PUSH2 0xC7F JUMPI RETURNDATASIZE PUSH1 0x0 DUP1 RETURNDATACOPY RETURNDATASIZE PUSH1 0x0 REVERT JUMPDEST POP POP POP POP PUSH1 0x40 MLOAD RETURNDATASIZE PUSH1 0x1F NOT PUSH1 0x1F DUP3 ADD AND DUP3 ADD DUP1 PUSH1 0x40 MSTORE POP DUP2 ADD SWAP1 PUSH2 0xCA3 SWAP2 SWAP1 PUSH2 0x1554 JUMP JUMPDEST SWAP1 POP PUSH1 0x12 PUSH1 0xA PUSH2 0xCB3 SWAP2 SWAP1 PUSH2 0x1912 JUMP JUMPDEST PUSH3 0xF4240 PUSH2 0xCC1 SWAP2 SWAP1 PUSH2 0x1B47 JUMP JUMPDEST PUSH32 0x7FFFFFFFFFFFFFFFFFFFFFFFFFFFFFFFFFFFFFFFFFFFFFFFFFFFFFFFFFFFFFFF PUSH2 0xCEC SWAP2 SWAP1 PUSH2 0x188E JUMP JUMPDEST DUP2 GT ISZERO PUSH2 0xCFC JUMPI PUSH2 0xCFB PUSH2 0x1DDD JUMP JUMPDEST JUMPDEST PUSH1 0x7 SLOAD PUSH32 0x41D948A7F29CC695F5D4B3EC147F766BFFA165DDD317470FBE05C86D0A9C3E04 DUP6 DUP10 DUP6 TIMESTAMP PUSH1 0x40 MLOAD PUSH2 0xD34 SWAP5 SWAP4 SWAP3 SWAP2 SWAP1 PUSH2 0x16F5 JUMP JUMPDEST PUSH1 0x40 MLOAD DUP1 SWAP2 SUB SWAP1 LOG2 POP POP POP POP POP POP POP JUMP JUMPDEST PUSH1 0x2 PUSH1 0x12 PUSH2 0xD53 SWAP2 SWAP1 PUSH2 0x1C35 JUMP JUMPDEST PUSH1 0xA PUSH2 0xD5F SWAP2 SWAP1 PUSH2 0x1912 JUMP JUMPDEST PUSH1 0x5 PUSH2 0xD6B SWAP2 SWAP1 PUSH2 0x1B47 JUMP JUMPDEST PUSH1 0x6 DUP2 SWAP1 SSTORE POP PUSH1 0x12 PUSH1 0xA PUSH2 0xD7F SWAP2 SWAP1 PUSH2 0x1912 JUMP JUMPDEST PUSH1 0x3 PUSH2 0xD8B SWAP2 SWAP1 PUSH2 0x1B47 JUMP JUMPDEST PUSH1 0xA DUP2 SWAP1 SSTORE POP PUSH1 0x2 PUSH1 0x12 PUSH2 0xD9F SWAP2 SWAP1 PUSH2 0x1C35 JUMP JUMPDEST PUSH1 0xA PUSH2 0xDAB SWAP2 SWAP1 PUSH2 0x1912 JUMP JUMPDEST PUSH1 0xA PUSH2 0xDB7 SWAP2 SWAP1 PUSH2 0x1B47 JUMP JUMPDEST PUSH1 0x9 DUP2 SWAP1 SSTORE POP PUSH1 0x2 PUSH1 0x12 PUSH2 0xDCB SWAP2 SWAP1 PUSH2 0x1C35 JUMP JUMPDEST PUSH1 0xA PUSH2 0xDD7 SWAP2 SWAP1 PUSH2 0x1912 JUMP JUMPDEST PUSH32 0xFFFFFFFFFFFFFFFFFFFFFFFFFFFFFFFFFFFFFFFFFFFFFFFFFFFFFFFFFFFFFFF6 PUSH2 0xE02 SWAP2 SWAP1 PUSH2 0x1A30 JUMP JUMPDEST PUSH1 0x8 DUP2 SWAP1 SSTORE POP PUSH1 0x0 PUSH1 0x7 DUP2 SWAP1 SSTORE POP DUP2 PUSH1 0x2 PUSH1 0x0 PUSH2 0x100 EXP DUP2 SLOAD DUP2 PUSH20 0xFFFFFFFFFFFFFFFFFFFFFFFFFFFFFFFFFFFFFFFF MUL NOT AND SWAP1 DUP4 PUSH20 0xFFFFFFFFFFFFFFFFFFFFFFFFFFFFFFFFFFFFFFFF AND MUL OR SWAP1 SSTORE POP DUP1 PUSH1 0x5 DUP2 SWAP1 SSTORE POP POP POP JUMP JUMPDEST PUSH1 0x6 SLOAD DUP2 JUMP JUMPDEST PUSH1 0x0 DUP2 SGT ISZERO PUSH2 0xE70 JUMPI PUSH1 0x0 DUP1 REVERT JUMPDEST DUP1 PUSH1 0x8 DUP2 SWAP1 SSTORE POP POP JUMP JUMPDEST PUSH1 0x0 DUP2 SLT ISZERO PUSH2 0xE88 JUMPI PUSH1 0x0 DUP1 REVERT JUMPDEST DUP1 PUSH1 0x9 DUP2 SWAP1 SSTORE POP POP JUMP JUMPDEST PUSH1 0x0 DUP1 DUP3 DUP5 PUSH2 0xEA1 SWAP2 SWAP1 PUSH2 0x1BA1 JUMP JUMPDEST SWAP1 POP PUSH1 0x0 DUP4 SLT ISZERO DUP1 ISZERO PUSH2 0xEB4 JUMPI POP DUP4 DUP2 SGT ISZERO JUMPDEST DUP1 PUSH2 0xECA JUMPI POP PUSH1 0x0 DUP4 SLT DUP1 ISZERO PUSH2 0xEC9 JUMPI POP DUP4 DUP2 SGT JUMPDEST JUMPDEST PUSH2 0xED3 JUMPI PUSH1 0x0 DUP1 REVERT JUMPDEST DUP1 SWAP2 POP POP SWAP3 SWAP2 POP POP JUMP JUMPDEST PUSH1 0x0 DUP1 DUP3 DUP5 PUSH2 0xEEC SWAP2 SWAP1 PUSH2 0x1A30 JUMP JUMPDEST SWAP1 POP PUSH1 0xFF PUSH1 0x1 SWAP1 SHL DUP2 EQ ISZERO DUP1 PUSH2 0xF10 JUMPI POP PUSH1 0xFF PUSH1 0x1 SWAP1 SHL DUP4 AND PUSH1 0xFF PUSH1 0x1 SWAP1 SHL DUP6 AND EQ ISZERO JUMPDEST PUSH2 0xF19 JUMPI PUSH1 0x0 DUP1 REVERT JUMPDEST PUSH1 0x0 DUP4 EQ DUP1 PUSH2 0xF32 JUMPI POP DUP4 DUP4 DUP3 PUSH2 0xF30 SWAP2 SWAP1 PUSH2 0x1824 JUMP JUMPDEST EQ JUMPDEST PUSH2 0xF3B JUMPI PUSH1 0x0 DUP1 REVERT JUMPDEST DUP1 SWAP2 POP POP SWAP3 SWAP2 POP POP JUMP JUMPDEST PUSH1 0x0 PUSH32 0xFFFFFFFFFFFFFFFFFFFFFFFFFFFFFFFFFFFFFFFFFFFFFFFFFFFFFFFFFFFFFFFF DUP3 EQ ISZERO DUP1 PUSH2 0xF7B JUMPI POP PUSH1 0xFF PUSH1 0x1 SWAP1 SHL DUP4 EQ ISZERO JUMPDEST PUSH2 0xF84 JUMPI PUSH1 0x0 DUP1 REVERT JUMPDEST DUP2 DUP4 PUSH2 0xF90 SWAP2 SWAP1 PUSH2 0x1824 JUMP JUMPDEST SWAP1 POP SWAP3 SWAP2 POP POP JUMP JUMPDEST PUSH1 0x0 DUP1 PUSH1 0x0 SWAP1 POP PUSH1 0x0 DUP5 SLT ISZERO PUSH2 0xFB8 JUMPI PUSH1 0x1 SWAP1 POP PUSH2 0xFB5 DUP5 PUSH2 0x1290 JUMP JUMPDEST SWAP4 POP JUMPDEST PUSH1 0x0 PUSH1 0x40 MLOAD DUP1 PUSH1 0xA0 ADD PUSH1 0x40 MSTORE DUP1 PUSH8 0x13A04BBDFDC9BE89 DUP2 MSTORE PUSH1 0x20 ADD PUSH8 0x1080E992061AB32B DUP2 MSTORE PUSH1 0x20 ADD PUSH8 0xF2243014E544EBB DUP2 MSTORE PUSH1 0x20 ADD PUSH8 0xE7E0178E9D6ED50 DUP2 MSTORE PUSH1 0x20 ADD PUSH8 0xE2E820ADE835F46 DUP2 MSTORE POP SWAP1 POP PUSH1 0x0 PUSH2 0x1017 DUP7 DUP7 PUSH2 0xF45 JUMP JUMPDEST SWAP1 POP PUSH1 0x64 DUP2 SGT ISZERO PUSH2 0x1027 JUMPI PUSH1 0x0 DUP1 REVERT JUMPDEST PUSH1 0x0 PUSH2 0x1037 DUP3 PUSH1 0x1 SWAP1 SHL DUP8 PUSH2 0xEDD JUMP JUMPDEST SWAP1 POP PUSH1 0x0 PUSH2 0x104E DUP9 PUSH2 0x1049 DUP6 DUP11 PUSH2 0xEDD JUMP JUMPDEST PUSH2 0xE92 JUMP JUMPDEST SWAP1 POP PUSH1 0x0 PUSH2 0x105D DUP9 PUSH1 0x2 PUSH2 0xF45 JUMP JUMPDEST SWAP1 POP PUSH1 0x0 JUMPDEST PUSH1 0x5 DUP2 LT ISZERO PUSH2 0x10D3 JUMPI DUP2 DUP4 SLT PUSH2 0x10B3 JUMPI PUSH2 0x107C DUP4 DUP4 PUSH2 0xE92 JUMP JUMPDEST SWAP3 POP PUSH2 0x10B0 PUSH2 0x10A2 DUP6 DUP9 DUP5 PUSH1 0x5 DUP2 LT PUSH2 0x1098 JUMPI PUSH2 0x1097 PUSH2 0x1E6A JUMP JUMPDEST JUMPDEST PUSH1 0x20 MUL ADD MLOAD PUSH2 0xEDD JUMP JUMPDEST PUSH8 0xDE0B6B3A7640000 PUSH2 0xF45 JUMP JUMPDEST SWAP4 POP JUMPDEST PUSH2 0x10BE DUP3 PUSH1 0x2 PUSH2 0xF45 JUMP JUMPDEST SWAP2 POP DUP1 DUP1 PUSH2 0x10CB SWAP1 PUSH2 0x1D4B JUMP JUMPDEST SWAP2 POP POP PUSH2 0x1062 JUMP JUMPDEST POP DUP6 ISZERO PUSH2 0x10F0 JUMPI PUSH2 0x10ED PUSH2 0x10E7 DUP10 DUP11 PUSH2 0xEDD JUMP JUMPDEST DUP5 PUSH2 0xF45 JUMP JUMPDEST SWAP3 POP JUMPDEST DUP3 SWAP7 POP POP POP POP POP POP POP SWAP3 SWAP2 POP POP JUMP JUMPDEST PUSH1 0x0 DUP1 DUP4 EQ ISZERO PUSH2 0x1112 JUMPI PUSH1 0x0 SWAP1 POP PUSH2 0x113E JUMP JUMPDEST PUSH1 0x0 DUP3 DUP5 PUSH2 0x1120 SWAP2 SWAP1 PUSH2 0x1B47 JUMP JUMPDEST SWAP1 POP DUP3 DUP5 DUP3 PUSH2 0x112F SWAP2 SWAP1 PUSH2 0x188E JUMP JUMPDEST EQ PUSH2 0x1139 JUMPI PUSH1 0x0 DUP1 REVERT JUMPDEST DUP1 SWAP2 POP POP JUMPDEST SWAP3 SWAP2 POP POP JUMP JUMPDEST PUSH1 0x0 DUP1 DUP3 GT PUSH2 0x1152 JUMPI PUSH1 0x0 DUP1 REVERT JUMPDEST PUSH1 0x0 DUP3 DUP5 PUSH2 0x1160 SWAP2 SWAP1 PUSH2 0x188E JUMP JUMPDEST SWAP1 POP DUP1 SWAP2 POP POP SWAP3 SWAP2 POP POP JUMP JUMPDEST PUSH1 0x0 PUSH2 0x1178 DUP4 DUP4 PUSH2 0x12C4 JUMP JUMPDEST ISZERO PUSH2 0x1186 JUMPI PUSH1 0x0 SWAP1 POP PUSH2 0x128A JUMP JUMPDEST PUSH1 0x0 DUP3 SWAP1 POP PUSH1 0x0 PUSH2 0x11AD PUSH2 0x11A7 DUP7 PUSH1 0x12 PUSH1 0xA PUSH2 0x11A2 SWAP2 SWAP1 PUSH2 0x1912 JUMP JUMPDEST PUSH2 0xEDD JUMP JUMPDEST DUP4 PUSH2 0xF45 JUMP JUMPDEST SWAP1 POP PUSH1 0x0 PUSH2 0x11C3 DUP3 PUSH1 0x8 SLOAD PUSH1 0x9 SLOAD PUSH1 0xA SLOAD PUSH2 0x375 JUMP JUMPDEST SWAP1 POP PUSH2 0x1284 PUSH2 0x1271 PUSH1 0x2 PUSH1 0x0 SWAP1 SLOAD SWAP1 PUSH2 0x100 EXP SWAP1 DIV PUSH20 0xFFFFFFFFFFFFFFFFFFFFFFFFFFFFFFFFFFFFFFFF AND PUSH20 0xFFFFFFFFFFFFFFFFFFFFFFFFFFFFFFFFFFFFFFFF AND PUSH4 0x18160DDD PUSH1 0x40 MLOAD DUP2 PUSH4 0xFFFFFFFF AND PUSH1 0xE0 SHL DUP2 MSTORE PUSH1 0x4 ADD PUSH1 0x20 PUSH1 0x40 MLOAD DUP1 DUP4 SUB DUP2 DUP7 DUP1 EXTCODESIZE ISZERO DUP1 ISZERO PUSH2 0x1233 JUMPI PUSH1 0x0 DUP1 REVERT JUMPDEST POP GAS STATICCALL ISZERO DUP1 ISZERO PUSH2 0x1247 JUMPI RETURNDATASIZE PUSH1 0x0 DUP1 RETURNDATACOPY RETURNDATASIZE PUSH1 0x0 REVERT JUMPDEST POP POP POP POP PUSH1 0x40 MLOAD RETURNDATASIZE PUSH1 0x1F NOT PUSH1 0x1F DUP3 ADD AND DUP3 ADD DUP1 PUSH1 0x40 MSTORE POP DUP2 ADD SWAP1 PUSH2 0x126B SWAP2 SWAP1 PUSH2 0x1554 JUMP JUMPDEST DUP4 PUSH2 0xEDD JUMP JUMPDEST PUSH1 0x12 PUSH1 0xA PUSH2 0x127F SWAP2 SWAP1 PUSH2 0x1912 JUMP JUMPDEST PUSH2 0xF45 JUMP JUMPDEST SWAP4 POP POP POP POP JUMPDEST SWAP3 SWAP2 POP POP JUMP JUMPDEST PUSH1 0x0 PUSH1 0xFF PUSH1 0x1 SWAP1 SHL DUP3 EQ ISZERO PUSH2 0x12A4 JUMPI PUSH1 0x0 DUP1 REVERT JUMPDEST PUSH1 0x0 DUP3 SLT PUSH2 0x12B2 JUMPI DUP2 PUSH2 0x12BD JUMP JUMPDEST DUP2 PUSH2 0x12BC SWAP1 PUSH2 0x1D94 JUMP JUMPDEST JUMPDEST SWAP1 POP SWAP2 SWAP1 POP JUMP JUMPDEST PUSH1 0x0 DUP1 PUSH2 0x12E9 PUSH2 0x12D6 DUP5 PUSH1 0x6 SLOAD PUSH2 0x10FF JUMP JUMPDEST PUSH1 0x12 PUSH1 0xA PUSH2 0x12E4 SWAP2 SWAP1 PUSH2 0x1912 JUMP JUMPDEST PUSH2 0x1144 JUMP JUMPDEST SWAP1 POP DUP3 DUP5 LT ISZERO DUP1 ISZERO PUSH2 0x1303 JUMPI POP DUP1 PUSH2 0x1301 DUP6 DUP6 PUSH2 0x132A JUMP JUMPDEST LT JUMPDEST DUP1 PUSH2 0x1321 JUMPI POP DUP3 DUP5 LT DUP1 ISZERO PUSH2 0x1320 JUMPI POP DUP1 PUSH2 0x131E DUP5 DUP7 PUSH2 0x132A JUMP JUMPDEST LT JUMPDEST JUMPDEST SWAP2 POP POP SWAP3 SWAP2 POP POP JUMP JUMPDEST PUSH1 0x0 DUP3 DUP3 GT ISZERO PUSH2 0x1339 JUMPI PUSH1 0x0 DUP1 REVERT JUMPDEST PUSH1 0x0 DUP3 DUP5 PUSH2 0x1347 SWAP2 SWAP1 PUSH2 0x1C35 JUMP JUMPDEST SWAP1 POP DUP1 SWAP2 POP POP SWAP3 SWAP2 POP POP JUMP JUMPDEST PUSH1 0x0 DUP2 CALLDATALOAD SWAP1 POP PUSH2 0x1362 DUP2 PUSH2 0x1EAB JUMP JUMPDEST SWAP3 SWAP2 POP POP JUMP JUMPDEST PUSH1 0x0 DUP2 MLOAD SWAP1 POP PUSH2 0x1377 DUP2 PUSH2 0x1EC2 JUMP JUMPDEST SWAP3 SWAP2 POP POP JUMP JUMPDEST PUSH1 0x0 DUP2 CALLDATALOAD SWAP1 POP PUSH2 0x138C DUP2 PUSH2 0x1ED9 JUMP JUMPDEST SWAP3 SWAP2 POP POP JUMP JUMPDEST PUSH1 0x0 DUP2 CALLDATALOAD SWAP1 POP PUSH2 0x13A1 DUP2 PUSH2 0x1EF0 JUMP JUMPDEST SWAP3 SWAP2 POP POP JUMP JUMPDEST PUSH1 0x0 DUP2 CALLDATALOAD SWAP1 POP PUSH2 0x13B6 DUP2 PUSH2 0x1F07 JUMP JUMPDEST SWAP3 SWAP2 POP POP JUMP JUMPDEST PUSH1 0x0 DUP2 CALLDATALOAD SWAP1 POP PUSH2 0x13CB DUP2 PUSH2 0x1F1E JUMP JUMPDEST SWAP3 SWAP2 POP POP JUMP JUMPDEST PUSH1 0x0 DUP2 MLOAD SWAP1 POP PUSH2 0x13E0 DUP2 PUSH2 0x1F1E JUMP JUMPDEST SWAP3 SWAP2 POP POP JUMP JUMPDEST PUSH1 0x0 DUP1 PUSH1 0x40 DUP4 DUP6 SUB SLT ISZERO PUSH2 0x13FD JUMPI PUSH2 0x13FC PUSH2 0x1E99 JUMP JUMPDEST JUMPDEST PUSH1 0x0 PUSH2 0x140B DUP6 DUP3 DUP7 ADD PUSH2 0x1353 JUMP JUMPDEST SWAP3 POP POP PUSH1 0x20 PUSH2 0x141C DUP6 DUP3 DUP7 ADD PUSH2 0x13BC JUMP JUMPDEST SWAP2 POP POP SWAP3 POP SWAP3 SWAP1 POP JUMP JUMPDEST PUSH1 0x0 DUP1 PUSH1 0x40 DUP4 DUP6 SUB SLT ISZERO PUSH2 0x143D JUMPI PUSH2 0x143C PUSH2 0x1E99 JUMP JUMPDEST JUMPDEST PUSH1 0x0 PUSH2 0x144B DUP6 DUP3 DUP7 ADD PUSH2 0x137D JUMP JUMPDEST SWAP3 POP POP PUSH1 0x20 PUSH2 0x145C DUP6 DUP3 DUP7 ADD PUSH2 0x13BC JUMP JUMPDEST SWAP2 POP POP SWAP3 POP SWAP3 SWAP1 POP JUMP JUMPDEST PUSH1 0x0 PUSH1 0x20 DUP3 DUP5 SUB SLT ISZERO PUSH2 0x147C JUMPI PUSH2 0x147B PUSH2 0x1E99 JUMP JUMPDEST JUMPDEST PUSH1 0x0 PUSH2 0x148A DUP5 DUP3 DUP6 ADD PUSH2 0x1392 JUMP JUMPDEST SWAP2 POP POP SWAP3 SWAP2 POP POP JUMP JUMPDEST PUSH1 0x0 PUSH1 0x20 DUP3 DUP5 SUB SLT ISZERO PUSH2 0x14A9 JUMPI PUSH2 0x14A8 PUSH2 0x1E99 JUMP JUMPDEST JUMPDEST PUSH1 0x0 PUSH2 0x14B7 DUP5 DUP3 DUP6 ADD PUSH2 0x13A7 JUMP JUMPDEST SWAP2 POP POP SWAP3 SWAP2 POP POP JUMP JUMPDEST PUSH1 0x0 DUP1 PUSH1 0x0 DUP1 PUSH1 0x80 DUP6 DUP8 SUB SLT ISZERO PUSH2 0x14DA JUMPI PUSH2 0x14D9 PUSH2 0x1E99 JUMP JUMPDEST JUMPDEST PUSH1 0x0 PUSH2 0x14E8 DUP8 DUP3 DUP9 ADD PUSH2 0x13A7 JUMP JUMPDEST SWAP5 POP POP PUSH1 0x20 PUSH2 0x14F9 DUP8 DUP3 DUP9 ADD PUSH2 0x13A7 JUMP JUMPDEST SWAP4 POP POP PUSH1 0x40 PUSH2 0x150A DUP8 DUP3 DUP9 ADD PUSH2 0x13A7 JUMP JUMPDEST SWAP3 POP POP PUSH1 0x60 PUSH2 0x151B DUP8 DUP3 DUP9 ADD PUSH2 0x13A7 JUMP JUMPDEST SWAP2 POP POP SWAP3 SWAP6 SWAP2 SWAP5 POP SWAP3 POP JUMP JUMPDEST PUSH1 0x0 PUSH1 0x20 DUP3 DUP5 SUB SLT ISZERO PUSH2 0x153D JUMPI PUSH2 0x153C PUSH2 0x1E99 JUMP JUMPDEST JUMPDEST PUSH1 0x0 PUSH2 0x154B DUP5 DUP3 DUP6 ADD PUSH2 0x13BC JUMP JUMPDEST SWAP2 POP POP SWAP3 SWAP2 POP POP JUMP JUMPDEST PUSH1 0x0 PUSH1 0x20 DUP3 DUP5 SUB SLT ISZERO PUSH2 0x156A JUMPI PUSH2 0x1569 PUSH2 0x1E99 JUMP JUMPDEST JUMPDEST PUSH1 0x0 PUSH2 0x1578 DUP5 DUP3 DUP6 ADD PUSH2 0x13D1 JUMP JUMPDEST SWAP2 POP POP SWAP3 SWAP2 POP POP JUMP JUMPDEST PUSH1 0x0 DUP1 PUSH1 0x40 DUP4 DUP6 SUB SLT ISZERO PUSH2 0x1598 JUMPI PUSH2 0x1597 PUSH2 0x1E99 JUMP JUMPDEST JUMPDEST PUSH1 0x0 PUSH2 0x15A6 DUP6 DUP3 DUP7 ADD PUSH2 0x13D1 JUMP JUMPDEST SWAP3 POP POP PUSH1 0x20 PUSH2 0x15B7 DUP6 DUP3 DUP7 ADD PUSH2 0x1368 JUMP JUMPDEST SWAP2 POP POP SWAP3 POP SWAP3 SWAP1 POP JUMP JUMPDEST PUSH2 0x15CA DUP2 PUSH2 0x1CF1 JUMP JUMPDEST DUP3 MSTORE POP POP JUMP JUMPDEST PUSH2 0x15D9 DUP2 PUSH2 0x1C69 JUMP JUMPDEST DUP3 MSTORE POP POP JUMP JUMPDEST PUSH2 0x15E8 DUP2 PUSH2 0x1D03 JUMP JUMPDEST DUP3 MSTORE POP POP JUMP JUMPDEST PUSH2 0x15F7 DUP2 PUSH2 0x1D15 JUMP JUMPDEST DUP3 MSTORE POP POP JUMP JUMPDEST PUSH2 0x1606 DUP2 PUSH2 0x1CBD JUMP JUMPDEST DUP3 MSTORE POP POP JUMP JUMPDEST PUSH2 0x1615 DUP2 PUSH2 0x1CE7 JUMP JUMPDEST DUP3 MSTORE POP POP JUMP JUMPDEST PUSH1 0x0 PUSH1 0x80 DUP3 ADD SWAP1 POP PUSH2 0x1630 PUSH1 0x0 DUP4 ADD DUP8 PUSH2 0x15D0 JUMP JUMPDEST PUSH2 0x163D PUSH1 0x20 DUP4 ADD DUP7 PUSH2 0x15C1 JUMP JUMPDEST PUSH2 0x164A PUSH1 0x40 DUP4 ADD DUP6 PUSH2 0x160C JUMP JUMPDEST PUSH2 0x1657 PUSH1 0x60 DUP4 ADD DUP5 PUSH2 0x160C JUMP JUMPDEST SWAP6 SWAP5 POP POP POP POP POP JUMP JUMPDEST PUSH1 0x0 PUSH1 0x20 DUP3 ADD SWAP1 POP PUSH2 0x1675 PUSH1 0x0 DUP4 ADD DUP5 PUSH2 0x15DF JUMP JUMPDEST SWAP3 SWAP2 POP POP JUMP JUMPDEST PUSH1 0x0 PUSH1 0x20 DUP3 ADD SWAP1 POP PUSH2 0x1690 PUSH1 0x0 DUP4 ADD DUP5 PUSH2 0x15EE JUMP JUMPDEST SWAP3 SWAP2 POP POP JUMP JUMPDEST PUSH1 0x0 PUSH1 0x20 DUP3 ADD SWAP1 POP PUSH2 0x16AB PUSH1 0x0 DUP4 ADD DUP5 PUSH2 0x15FD JUMP JUMPDEST SWAP3 SWAP2 POP POP JUMP JUMPDEST PUSH1 0x0 PUSH1 0x20 DUP3 ADD SWAP1 POP PUSH2 0x16C6 PUSH1 0x0 DUP4 ADD DUP5 PUSH2 0x160C JUMP JUMPDEST SWAP3 SWAP2 POP POP JUMP JUMPDEST PUSH1 0x0 PUSH1 0x40 DUP3 ADD SWAP1 POP PUSH2 0x16E1 PUSH1 0x0 DUP4 ADD DUP6 PUSH2 0x160C JUMP JUMPDEST PUSH2 0x16EE PUSH1 0x20 DUP4 ADD DUP5 PUSH2 0x15FD JUMP JUMPDEST SWAP4 SWAP3 POP POP POP JUMP JUMPDEST PUSH1 0x0 PUSH1 0x80 DUP3 ADD SWAP1 POP PUSH2 0x170A PUSH1 0x0 DUP4 ADD DUP8 PUSH2 0x160C JUMP JUMPDEST PUSH2 0x1717 PUSH1 0x20 DUP4 ADD DUP7 PUSH2 0x160C JUMP JUMPDEST PUSH2 0x1724 PUSH1 0x40 DUP4 ADD DUP6 PUSH2 0x15FD JUMP JUMPDEST PUSH2 0x1731 PUSH1 0x60 DUP4 ADD DUP5 PUSH2 0x160C JUMP JUMPDEST SWAP6 SWAP5 POP POP POP POP POP JUMP JUMPDEST PUSH1 0x0 PUSH2 0x1745 DUP3 PUSH2 0x1CBD JUMP JUMPDEST SWAP2 POP PUSH2 0x1750 DUP4 PUSH2 0x1CBD JUMP JUMPDEST SWAP3 POP DUP2 PUSH32 0x7FFFFFFFFFFFFFFFFFFFFFFFFFFFFFFFFFFFFFFFFFFFFFFFFFFFFFFFFFFFFFFF SUB DUP4 SGT PUSH1 0x0 DUP4 SLT ISZERO AND ISZERO PUSH2 0x178B JUMPI PUSH2 0x178A PUSH2 0x1E0C JUMP JUMPDEST JUMPDEST DUP2 PUSH32 0x8000000000000000000000000000000000000000000000000000000000000000 SUB DUP4 SLT PUSH1 0x0 DUP4 SLT AND ISZERO PUSH2 0x17C3 JUMPI PUSH2 0x17C2 PUSH2 0x1E0C JUMP JUMPDEST JUMPDEST DUP3 DUP3 ADD SWAP1 POP SWAP3 SWAP2 POP POP JUMP JUMPDEST PUSH1 0x0 PUSH2 0x17D9 DUP3 PUSH2 0x1CE7 JUMP JUMPDEST SWAP2 POP PUSH2 0x17E4 DUP4 PUSH2 0x1CE7 JUMP JUMPDEST SWAP3 POP DUP3 PUSH32 0xFFFFFFFFFFFFFFFFFFFFFFFFFFFFFFFFFFFFFFFFFFFFFFFFFFFFFFFFFFFFFFFF SUB DUP3 GT ISZERO PUSH2 0x1819 JUMPI PUSH2 0x1818 PUSH2 0x1E0C JUMP JUMPDEST JUMPDEST DUP3 DUP3 ADD SWAP1 POP SWAP3 SWAP2 POP POP JUMP JUMPDEST PUSH1 0x0 PUSH2 0x182F DUP3 PUSH2 0x1CBD JUMP JUMPDEST SWAP2 POP PUSH2 0x183A DUP4 PUSH2 0x1CBD JUMP JUMPDEST SWAP3 POP DUP3 PUSH2 0x184A JUMPI PUSH2 0x1849 PUSH2 0x1E3B JUMP JUMPDEST JUMPDEST PUSH1 0x1 PUSH1 0x0 SUB DUP4 EQ PUSH32 0x8000000000000000000000000000000000000000000000000000000000000000 DUP4 EQ AND ISZERO PUSH2 0x1883 JUMPI PUSH2 0x1882 PUSH2 0x1E0C JUMP JUMPDEST JUMPDEST DUP3 DUP3 SDIV SWAP1 POP SWAP3 SWAP2 POP POP JUMP JUMPDEST PUSH1 0x0 PUSH2 0x1899 DUP3 PUSH2 0x1CE7 JUMP JUMPDEST SWAP2 POP PUSH2 0x18A4 DUP4 PUSH2 0x1CE7 JUMP JUMPDEST SWAP3 POP DUP3 PUSH2 0x18B4 JUMPI PUSH2 0x18B3 PUSH2 0x1E3B JUMP JUMPDEST JUMPDEST DUP3 DUP3 DIV SWAP1 POP SWAP3 SWAP2 POP POP JUMP JUMPDEST PUSH1 0x0 DUP1 DUP3 SWAP2 POP DUP4 SWAP1 POP JUMPDEST PUSH1 0x1 DUP6 GT ISZERO PUSH2 0x1909 JUMPI DUP1 DUP7 DIV DUP2 GT ISZERO PUSH2 0x18E5 JUMPI PUSH2 0x18E4 PUSH2 0x1E0C JUMP JUMPDEST JUMPDEST PUSH1 0x1 DUP6 AND ISZERO PUSH2 0x18F4 JUMPI DUP1 DUP3 MUL SWAP2 POP JUMPDEST DUP1 DUP2 MUL SWAP1 POP PUSH2 0x1902 DUP6 PUSH2 0x1E9E JUMP JUMPDEST SWAP5 POP PUSH2 0x18C9 JUMP JUMPDEST SWAP5 POP SWAP5 SWAP3 POP POP POP JUMP JUMPDEST PUSH1 0x0 PUSH2 0x191D DUP3 PUSH2 0x1CE7 JUMP JUMPDEST SWAP2 POP PUSH2 0x1928 DUP4 PUSH2 0x1CE7 JUMP JUMPDEST SWAP3 POP PUSH2 0x1955 PUSH32 0xFFFFFFFFFFFFFFFFFFFFFFFFFFFFFFFFFFFFFFFFFFFFFFFFFFFFFFFFFFFFFFFF DUP5 DUP5 PUSH2 0x195D JUMP JUMPDEST SWAP1 POP SWAP3 SWAP2 POP POP JUMP JUMPDEST PUSH1 0x0 DUP3 PUSH2 0x196D JUMPI PUSH1 0x1 SWAP1 POP PUSH2 0x1A29 JUMP JUMPDEST DUP2 PUSH2 0x197B JUMPI PUSH1 0x0 SWAP1 POP PUSH2 0x1A29 JUMP JUMPDEST DUP2 PUSH1 0x1 DUP2 EQ PUSH2 0x1991 JUMPI PUSH1 0x2 DUP2 EQ PUSH2 0x199B JUMPI PUSH2 0x19CA JUMP JUMPDEST PUSH1 0x1 SWAP2 POP POP PUSH2 0x1A29 JUMP JUMPDEST PUSH1 0xFF DUP5 GT ISZERO PUSH2 0x19AD JUMPI PUSH2 0x19AC PUSH2 0x1E0C JUMP JUMPDEST JUMPDEST DUP4 PUSH1 0x2 EXP SWAP2 POP DUP5 DUP3 GT ISZERO PUSH2 0x19C4 JUMPI PUSH2 0x19C3 PUSH2 0x1E0C JUMP JUMPDEST JUMPDEST POP PUSH2 0x1A29 JUMP JUMPDEST POP PUSH1 0x20 DUP4 LT PUSH2 0x133 DUP4 LT AND PUSH1 0x4E DUP5 LT PUSH1 0xB DUP5 LT AND OR ISZERO PUSH2 0x19FF JUMPI DUP3 DUP3 EXP SWAP1 POP DUP4 DUP2 GT ISZERO PUSH2 0x19FA JUMPI PUSH2 0x19F9 PUSH2 0x1E0C JUMP JUMPDEST JUMPDEST PUSH2 0x1A29 JUMP JUMPDEST PUSH2 0x1A0C DUP5 DUP5 DUP5 PUSH1 0x1 PUSH2 0x18BF JUMP JUMPDEST SWAP3 POP SWAP1 POP DUP2 DUP5 DIV DUP2 GT ISZERO PUSH2 0x1A23 JUMPI PUSH2 0x1A22 PUSH2 0x1E0C JUMP JUMPDEST JUMPDEST DUP2 DUP2 MUL SWAP1 POP JUMPDEST SWAP4 SWAP3 POP POP POP JUMP JUMPDEST PUSH1 0x0 PUSH2 0x1A3B DUP3 PUSH2 0x1CBD JUMP JUMPDEST SWAP2 POP PUSH2 0x1A46 DUP4 PUSH2 0x1CBD JUMP JUMPDEST SWAP3 POP DUP3 PUSH32 0x7FFFFFFFFFFFFFFFFFFFFFFFFFFFFFFFFFFFFFFFFFFFFFFFFFFFFFFFFFFFFFFF DIV DUP3 GT PUSH1 0x0 DUP5 SGT PUSH1 0x0 DUP5 SGT AND AND ISZERO PUSH2 0x1A85 JUMPI PUSH2 0x1A84 PUSH2 0x1E0C JUMP JUMPDEST JUMPDEST DUP2 PUSH32 0x8000000000000000000000000000000000000000000000000000000000000000 SDIV DUP4 SLT PUSH1 0x0 DUP5 SLT PUSH1 0x0 DUP5 SGT AND AND ISZERO PUSH2 0x1AC2 JUMPI PUSH2 0x1AC1 PUSH2 0x1E0C JUMP JUMPDEST JUMPDEST DUP3 PUSH32 0x8000000000000000000000000000000000000000000000000000000000000000 SDIV DUP3 SLT PUSH1 0x0 DUP5 SGT PUSH1 0x0 DUP5 SLT AND AND ISZERO PUSH2 0x1AFF JUMPI PUSH2 0x1AFE PUSH2 0x1E0C JUMP JUMPDEST JUMPDEST DUP3 PUSH32 0x7FFFFFFFFFFFFFFFFFFFFFFFFFFFFFFFFFFFFFFFFFFFFFFFFFFFFFFFFFFFFFFF SDIV DUP3 SLT PUSH1 0x0 DUP5 SLT PUSH1 0x0 DUP5 SLT AND AND ISZERO PUSH2 0x1B3C JUMPI PUSH2 0x1B3B PUSH2 0x1E0C JUMP JUMPDEST JUMPDEST DUP3 DUP3 MUL SWAP1 POP SWAP3 SWAP2 POP POP JUMP JUMPDEST PUSH1 0x0 PUSH2 0x1B52 DUP3 PUSH2 0x1CE7 JUMP JUMPDEST SWAP2 POP PUSH2 0x1B5D DUP4 PUSH2 0x1CE7 JUMP JUMPDEST SWAP3 POP DUP2 PUSH32 0xFFFFFFFFFFFFFFFFFFFFFFFFFFFFFFFFFFFFFFFFFFFFFFFFFFFFFFFFFFFFFFFF DIV DUP4 GT DUP3 ISZERO ISZERO AND ISZERO PUSH2 0x1B96 JUMPI PUSH2 0x1B95 PUSH2 0x1E0C JUMP JUMPDEST JUMPDEST DUP3 DUP3 MUL SWAP1 POP SWAP3 SWAP2 POP POP JUMP JUMPDEST PUSH1 0x0 PUSH2 0x1BAC DUP3 PUSH2 0x1CBD JUMP JUMPDEST SWAP2 POP PUSH2 0x1BB7 DUP4 PUSH2 0x1CBD JUMP JUMPDEST SWAP3 POP DUP3 PUSH32 0x8000000000000000000000000000000000000000000000000000000000000000 ADD DUP3 SLT PUSH1 0x0 DUP5 SLT ISZERO AND ISZERO PUSH2 0x1BF2 JUMPI PUSH2 0x1BF1 PUSH2 0x1E0C JUMP JUMPDEST JUMPDEST DUP3 PUSH32 0x7FFFFFFFFFFFFFFFFFFFFFFFFFFFFFFFFFFFFFFFFFFFFFFFFFFFFFFFFFFFFFFF ADD DUP3 SGT PUSH1 0x0 DUP5 SLT AND ISZERO PUSH2 0x1C2A JUMPI PUSH2 0x1C29 PUSH2 0x1E0C JUMP JUMPDEST JUMPDEST DUP3 DUP3 SUB SWAP1 POP SWAP3 SWAP2 POP POP JUMP JUMPDEST PUSH1 0x0 PUSH2 0x1C40 DUP3 PUSH2 0x1CE7 JUMP JUMPDEST SWAP2 POP PUSH2 0x1C4B DUP4 PUSH2 0x1CE7 JUMP JUMPDEST SWAP3 POP DUP3 DUP3 LT ISZERO PUSH2 0x1C5E JUMPI PUSH2 0x1C5D PUSH2 0x1E0C JUMP JUMPDEST JUMPDEST DUP3 DUP3 SUB SWAP1 POP SWAP3 SWAP2 POP POP JUMP JUMPDEST PUSH1 0x0 PUSH2 0x1C74 DUP3 PUSH2 0x1CC7 JUMP JUMPDEST SWAP1 POP SWAP2 SWAP1 POP JUMP JUMPDEST PUSH1 0x0 PUSH2 0x1C86 DUP3 PUSH2 0x1CC7 JUMP JUMPDEST SWAP1 POP SWAP2 SWAP1 POP JUMP JUMPDEST PUSH1 0x0 DUP2 ISZERO ISZERO SWAP1 POP SWAP2 SWAP1 POP JUMP JUMPDEST PUSH1 0x0 PUSH2 0x1CA4 DUP3 PUSH2 0x1C69 JUMP JUMPDEST SWAP1 POP SWAP2 SWAP1 POP JUMP JUMPDEST PUSH1 0x0 PUSH2 0x1CB6 DUP3 PUSH2 0x1C69 JUMP JUMPDEST SWAP1 POP SWAP2 SWAP1 POP JUMP JUMPDEST PUSH1 0x0 DUP2 SWAP1 POP SWAP2 SWAP1 POP JUMP JUMPDEST PUSH1 0x0 PUSH20 0xFFFFFFFFFFFFFFFFFFFFFFFFFFFFFFFFFFFFFFFF DUP3 AND SWAP1 POP SWAP2 SWAP1 POP JUMP JUMPDEST PUSH1 0x0 DUP2 SWAP1 POP SWAP2 SWAP1 POP JUMP JUMPDEST PUSH1 0x0 PUSH2 0x1CFC DUP3 PUSH2 0x1D27 JUMP JUMPDEST SWAP1 POP SWAP2 SWAP1 POP JUMP JUMPDEST PUSH1 0x0 PUSH2 0x1D0E DUP3 PUSH2 0x1D27 JUMP JUMPDEST SWAP1 POP SWAP2 SWAP1 POP JUMP JUMPDEST PUSH1 0x0 PUSH2 0x1D20 DUP3 PUSH2 0x1D27 JUMP JUMPDEST SWAP1 POP SWAP2 SWAP1 POP JUMP JUMPDEST PUSH1 0x0 PUSH2 0x1D32 DUP3 PUSH2 0x1D39 JUMP JUMPDEST SWAP1 POP SWAP2 SWAP1 POP JUMP JUMPDEST PUSH1 0x0 PUSH2 0x1D44 DUP3 PUSH2 0x1CC7 JUMP JUMPDEST SWAP1 POP SWAP2 SWAP1 POP JUMP JUMPDEST PUSH1 0x0 PUSH2 0x1D56 DUP3 PUSH2 0x1CE7 JUMP JUMPDEST SWAP2 POP PUSH32 0xFFFFFFFFFFFFFFFFFFFFFFFFFFFFFFFFFFFFFFFFFFFFFFFFFFFFFFFFFFFFFFFF DUP3 EQ ISZERO PUSH2 0x1D89 JUMPI PUSH2 0x1D88 PUSH2 0x1E0C JUMP JUMPDEST JUMPDEST PUSH1 0x1 DUP3 ADD SWAP1 POP SWAP2 SWAP1 POP JUMP JUMPDEST PUSH1 0x0 PUSH2 0x1D9F DUP3 PUSH2 0x1CBD JUMP JUMPDEST SWAP2 POP PUSH32 0x8000000000000000000000000000000000000000000000000000000000000000 DUP3 EQ ISZERO PUSH2 0x1DD2 JUMPI PUSH2 0x1DD1 PUSH2 0x1E0C JUMP JUMPDEST JUMPDEST DUP2 PUSH1 0x0 SUB SWAP1 POP SWAP2 SWAP1 POP JUMP JUMPDEST PUSH32 0x4E487B7100000000000000000000000000000000000000000000000000000000 PUSH1 0x0 MSTORE PUSH1 0x1 PUSH1 0x4 MSTORE PUSH1 0x24 PUSH1 0x0 REVERT JUMPDEST PUSH32 0x4E487B7100000000000000000000000000000000000000000000000000000000 PUSH1 0x0 MSTORE PUSH1 0x11 PUSH1 0x4 MSTORE PUSH1 0x24 PUSH1 0x0 REVERT JUMPDEST PUSH32 0x4E487B7100000000000000000000000000000000000000000000000000000000 PUSH1 0x0 MSTORE PUSH1 0x12 PUSH1 0x4 MSTORE PUSH1 0x24 PUSH1 0x0 REVERT JUMPDEST PUSH32 0x4E487B7100000000000000000000000000000000000000000000000000000000 PUSH1 0x0 MSTORE PUSH1 0x32 PUSH1 0x4 MSTORE PUSH1 0x24 PUSH1 0x0 REVERT JUMPDEST PUSH1 0x0 DUP1 REVERT JUMPDEST PUSH1 0x0 DUP2 PUSH1 0x1 SHR SWAP1 POP SWAP2 SWAP1 POP JUMP JUMPDEST PUSH2 0x1EB4 DUP2 PUSH2 0x1C7B JUMP JUMPDEST DUP2 EQ PUSH2 0x1EBF JUMPI PUSH1 0x0 DUP1 REVERT JUMPDEST POP JUMP JUMPDEST PUSH2 0x1ECB DUP2 PUSH2 0x1C8D JUMP JUMPDEST DUP2 EQ PUSH2 0x1ED6 JUMPI PUSH1 0x0 DUP1 REVERT JUMPDEST POP JUMP JUMPDEST PUSH2 0x1EE2 DUP2 PUSH2 0x1C99 JUMP JUMPDEST DUP2 EQ PUSH2 0x1EED JUMPI PUSH1 0x0 DUP1 REVERT JUMPDEST POP JUMP JUMPDEST PUSH2 0x1EF9 DUP2 PUSH2 0x1CAB JUMP JUMPDEST DUP2 EQ PUSH2 0x1F04 JUMPI PUSH1 0x0 DUP1 REVERT JUMPDEST POP JUMP JUMPDEST PUSH2 0x1F10 DUP2 PUSH2 0x1CBD JUMP JUMPDEST DUP2 EQ PUSH2 0x1F1B JUMPI PUSH1 0x0 DUP1 REVERT JUMPDEST POP JUMP JUMPDEST PUSH2 0x1F27 DUP2 PUSH2 0x1CE7 JUMP JUMPDEST DUP2 EQ PUSH2 0x1F32 JUMPI PUSH1 0x0 DUP1 REVERT JUMPDEST POP JUMP INVALID LOG2 PUSH5 0x6970667358 0x22 SLT KECCAK256 PUSH19 0x5D1362D699AD28253183BA856B1873E2651471 OR CODESIZE JUMPI MULMOD DUP15 EXTCODECOPY 0xAC 0xAD SDIV 0xBD CALLDATACOPY PUSH29 0x64736F6C63430008070033000000000000000000000000000000000000 "
				},
				"gasEstimates": {
					"creation": {
						"codeDepositCost": "1608600",
						"executionCost": "1687",
						"totalCost": "1610287"
					},
					"external": {
						"baseCpi()": "2518",
						"cmmd()": "2668",
						"computeRebasePercentage(int256,int256,int256,int256)": "infinite",
						"cpiOracle()": "2711",
						"deviationThreshold()": "2495",
						"epoch()": "2452",
						"faucet(address,uint256)": "infinite",
						"initialize(address,uint256)": "infinite",
						"marketOracle()": "2623",
						"rebase()": "infinite",
						"rebaseFunctionGrowth()": "2496",
						"rebaseFunctionLowerPercentage()": "2541",
						"rebaseFunctionUpperPercentage()": "2474",
						"setBaseCpi(uint256)": "22565",
						"setCpiOracle(address)": "24811",
						"setDeviationThreshold(uint256)": "22610",
						"setMarketOracle(address)": "24832",
						"setRebaseFunctionGrowth(int256)": "22657",
						"setRebaseFunctionLowerPercentage(int256)": "22634",
						"setRebaseFunctionUpperPercentage(int256)": "22656"
					},
					"internal": {
						"computeSupplyDelta(uint256,uint256)": "infinite",
						"withinDeviationThreshold(uint256,uint256)": "infinite"
					}
				},
				"methodIdentifiers": {
					"baseCpi()": "a37069ee",
					"cmmd()": "4dafa35e",
					"computeRebasePercentage(int256,int256,int256,int256)": "3a785af1",
					"cpiOracle()": "ab33c5ca",
					"deviationThreshold()": "d94ad837",
					"epoch()": "900cf0cf",
					"faucet(address,uint256)": "7b56c2b2",
					"initialize(address,uint256)": "cd6dc687",
					"marketOracle()": "60961528",
					"rebase()": "af14052c",
					"rebaseFunctionGrowth()": "7486cdea",
					"rebaseFunctionLowerPercentage()": "5ee01540",
					"rebaseFunctionUpperPercentage()": "9db59b2f",
					"setBaseCpi(uint256)": "6de729db",
					"setCpiOracle(address)": "3d6a46e5",
					"setDeviationThreshold(uint256)": "53a15edc",
					"setMarketOracle(address)": "9e30bac5",
					"setRebaseFunctionGrowth(int256)": "8001066d",
					"setRebaseFunctionLowerPercentage(int256)": "e9fa88a4",
					"setRebaseFunctionUpperPercentage(int256)": "f4fefa49"
				}
			},
			"storageLayout": {
				"storage": [
					{
						"astId": 51,
						"contract": "contracts/CMMDPolicy.sol:CMMDPolicy",
						"label": "faucetCount",
						"offset": 0,
						"slot": "0",
						"type": "t_uint256"
					},
					{
						"astId": 64,
						"contract": "contracts/CMMDPolicy.sol:CMMDPolicy",
						"label": "transactions",
						"offset": 0,
						"slot": "1",
						"type": "t_array(t_struct(TransferStruct)60_storage)dyn_storage"
					},
					{
						"astId": 67,
						"contract": "contracts/CMMDPolicy.sol:CMMDPolicy",
						"label": "cmmd",
						"offset": 0,
						"slot": "2",
						"type": "t_contract(ICMMD)18"
					},
					{
						"astId": 70,
						"contract": "contracts/CMMDPolicy.sol:CMMDPolicy",
						"label": "cpiOracle",
						"offset": 0,
						"slot": "3",
						"type": "t_contract(IOracle)26"
					},
					{
						"astId": 73,
						"contract": "contracts/CMMDPolicy.sol:CMMDPolicy",
						"label": "marketOracle",
						"offset": 0,
						"slot": "4",
						"type": "t_contract(IOracle)26"
					},
					{
						"astId": 75,
						"contract": "contracts/CMMDPolicy.sol:CMMDPolicy",
						"label": "baseCpi",
						"offset": 0,
						"slot": "5",
						"type": "t_uint256"
					},
					{
						"astId": 77,
						"contract": "contracts/CMMDPolicy.sol:CMMDPolicy",
						"label": "deviationThreshold",
						"offset": 0,
						"slot": "6",
						"type": "t_uint256"
					},
					{
						"astId": 79,
						"contract": "contracts/CMMDPolicy.sol:CMMDPolicy",
						"label": "epoch",
						"offset": 0,
						"slot": "7",
						"type": "t_uint256"
					},
					{
						"astId": 105,
						"contract": "contracts/CMMDPolicy.sol:CMMDPolicy",
						"label": "rebaseFunctionLowerPercentage",
						"offset": 0,
						"slot": "8",
						"type": "t_int256"
					},
					{
						"astId": 107,
						"contract": "contracts/CMMDPolicy.sol:CMMDPolicy",
						"label": "rebaseFunctionUpperPercentage",
						"offset": 0,
						"slot": "9",
						"type": "t_int256"
					},
					{
						"astId": 109,
						"contract": "contracts/CMMDPolicy.sol:CMMDPolicy",
						"label": "rebaseFunctionGrowth",
						"offset": 0,
						"slot": "10",
						"type": "t_int256"
					}
				],
				"types": {
					"t_address": {
						"encoding": "inplace",
						"label": "address",
						"numberOfBytes": "20"
					},
					"t_array(t_struct(TransferStruct)60_storage)dyn_storage": {
						"base": "t_struct(TransferStruct)60_storage",
						"encoding": "dynamic_array",
						"label": "struct CMMDPolicy.TransferStruct[]",
						"numberOfBytes": "32"
					},
					"t_contract(ICMMD)18": {
						"encoding": "inplace",
						"label": "contract ICMMD",
						"numberOfBytes": "20"
					},
					"t_contract(IOracle)26": {
						"encoding": "inplace",
						"label": "contract IOracle",
						"numberOfBytes": "20"
					},
					"t_int256": {
						"encoding": "inplace",
						"label": "int256",
						"numberOfBytes": "32"
					},
					"t_struct(TransferStruct)60_storage": {
						"encoding": "inplace",
						"label": "struct CMMDPolicy.TransferStruct",
						"members": [
							{
								"astId": 53,
								"contract": "contracts/CMMDPolicy.sol:CMMDPolicy",
								"label": "sender",
								"offset": 0,
								"slot": "0",
								"type": "t_address"
							},
							{
								"astId": 55,
								"contract": "contracts/CMMDPolicy.sol:CMMDPolicy",
								"label": "receiver",
								"offset": 0,
								"slot": "1",
								"type": "t_address"
							},
							{
								"astId": 57,
								"contract": "contracts/CMMDPolicy.sol:CMMDPolicy",
								"label": "amount",
								"offset": 0,
								"slot": "2",
								"type": "t_uint256"
							},
							{
								"astId": 59,
								"contract": "contracts/CMMDPolicy.sol:CMMDPolicy",
								"label": "timestamp",
								"offset": 0,
								"slot": "3",
								"type": "t_uint256"
							}
						],
						"numberOfBytes": "128"
					},
					"t_uint256": {
						"encoding": "inplace",
						"label": "uint256",
						"numberOfBytes": "32"
					}
				}
			},
			"userdoc": {
				"kind": "user",
				"methods": {
					"computeRebasePercentage(int256,int256,int256,int256)": {
						"notice": "Computes the percentage of supply to be added or removed: Using the function in https://github.com/ampleforth/AIPs/blob/master/AIPs/aip-5.md"
					},
					"rebase()": {
						"notice": "Initiates a new rebase operation, provided the minimum time period has elapsed."
					},
					"setBaseCpi(uint256)": {
						"notice": "Sets the Base CPI - for ease of demo and testing "
					},
					"setCpiOracle(address)": {
						"notice": "Sets the reference to the CPI oracle."
					},
					"setDeviationThreshold(uint256)": {
						"notice": "Sets the deviation threshold fraction. If the exchange rate given by the market         oracle is within this fractional distance from the targetRate, then no supply         modifications are made. DECIMALS fixed point number."
					},
					"setMarketOracle(address)": {
						"notice": "Sets the reference to the Market oracle."
					}
				},
				"version": 1
			}
		}
	}
}