{
	"contracts/CMMDPolicy.sol": {
		"CMMDPolicy": {
			"abi": [
				{
					"anonymous": false,
					"inputs": [
						{
							"indexed": true,
							"internalType": "uint256",
							"name": "epoch",
							"type": "uint256"
						},
						{
							"indexed": false,
							"internalType": "uint256",
							"name": "exchangeRate",
							"type": "uint256"
						},
						{
							"indexed": false,
							"internalType": "uint256",
							"name": "cpi",
							"type": "uint256"
						},
						{
							"indexed": false,
							"internalType": "int256",
							"name": "requestedSupplyAdjustment",
							"type": "int256"
						},
						{
							"indexed": false,
							"internalType": "uint256",
							"name": "timestampSec",
							"type": "uint256"
						}
					],
					"name": "LogRebase",
					"type": "event"
				},
				{
					"inputs": [],
					"name": "cmmd",
					"outputs": [
						{
							"internalType": "contract ICMMD",
							"name": "",
							"type": "address"
						}
					],
					"stateMutability": "view",
					"type": "function"
				},
				{
					"inputs": [
						{
							"internalType": "int256",
							"name": "normalizedRate",
							"type": "int256"
						},
						{
							"internalType": "int256",
							"name": "lower",
							"type": "int256"
						},
						{
							"internalType": "int256",
							"name": "upper",
							"type": "int256"
						},
						{
							"internalType": "int256",
							"name": "growth",
							"type": "int256"
						}
					],
					"name": "computeRebasePercentage",
					"outputs": [
						{
							"internalType": "int256",
							"name": "",
							"type": "int256"
						}
					],
					"stateMutability": "pure",
					"type": "function"
				},
				{
					"inputs": [],
					"name": "cpiOracle",
					"outputs": [
						{
							"internalType": "contract IOracle",
							"name": "",
							"type": "address"
						}
					],
					"stateMutability": "view",
					"type": "function"
				},
				{
					"inputs": [],
					"name": "deviationThreshold",
					"outputs": [
						{
							"internalType": "uint256",
							"name": "",
							"type": "uint256"
						}
					],
					"stateMutability": "view",
					"type": "function"
				},
				{
					"inputs": [],
					"name": "epoch",
					"outputs": [
						{
							"internalType": "uint256",
							"name": "",
							"type": "uint256"
						}
					],
					"stateMutability": "view",
					"type": "function"
				},
				{
					"inputs": [
						{
							"internalType": "contract ICMMD",
							"name": "cmmd_",
							"type": "address"
						},
						{
							"internalType": "uint256",
							"name": "baseCpi_",
							"type": "uint256"
						}
					],
					"name": "initialize",
					"outputs": [],
					"stateMutability": "nonpayable",
					"type": "function"
				},
				{
					"inputs": [],
					"name": "marketOracle",
					"outputs": [
						{
							"internalType": "contract IOracle",
							"name": "",
							"type": "address"
						}
					],
					"stateMutability": "view",
					"type": "function"
				},
				{
					"inputs": [],
					"name": "rebase",
					"outputs": [],
					"stateMutability": "nonpayable",
					"type": "function"
				},
				{
					"inputs": [],
					"name": "rebaseFunctionGrowth",
					"outputs": [
						{
							"internalType": "int256",
							"name": "",
							"type": "int256"
						}
					],
					"stateMutability": "view",
					"type": "function"
				},
				{
					"inputs": [],
					"name": "rebaseFunctionLowerPercentage",
					"outputs": [
						{
							"internalType": "int256",
							"name": "",
							"type": "int256"
						}
					],
					"stateMutability": "view",
					"type": "function"
				},
				{
					"inputs": [],
					"name": "rebaseFunctionUpperPercentage",
					"outputs": [
						{
							"internalType": "int256",
							"name": "",
							"type": "int256"
						}
					],
					"stateMutability": "view",
					"type": "function"
				},
				{
					"inputs": [
						{
							"internalType": "contract IOracle",
							"name": "cpiOracle_",
							"type": "address"
						}
					],
					"name": "setCpiOracle",
					"outputs": [],
					"stateMutability": "nonpayable",
					"type": "function"
				},
				{
					"inputs": [
						{
							"internalType": "uint256",
							"name": "deviationThreshold_",
							"type": "uint256"
						}
					],
					"name": "setDeviationThreshold",
					"outputs": [],
					"stateMutability": "nonpayable",
					"type": "function"
				},
				{
					"inputs": [
						{
							"internalType": "contract IOracle",
							"name": "marketOracle_",
							"type": "address"
						}
					],
					"name": "setMarketOracle",
					"outputs": [],
					"stateMutability": "nonpayable",
					"type": "function"
				},
				{
					"inputs": [
						{
							"internalType": "int256",
							"name": "rebaseFunctionGrowth_",
							"type": "int256"
						}
					],
					"name": "setRebaseFunctionGrowth",
					"outputs": [],
					"stateMutability": "nonpayable",
					"type": "function"
				},
				{
					"inputs": [
						{
							"internalType": "int256",
							"name": "rebaseFunctionLowerPercentage_",
							"type": "int256"
						}
					],
					"name": "setRebaseFunctionLowerPercentage",
					"outputs": [],
					"stateMutability": "nonpayable",
					"type": "function"
				},
				{
					"inputs": [
						{
							"internalType": "int256",
							"name": "rebaseFunctionUpperPercentage_",
							"type": "int256"
						}
					],
					"name": "setRebaseFunctionUpperPercentage",
					"outputs": [],
					"stateMutability": "nonpayable",
					"type": "function"
				}
			],
			"devdoc": {
				"details": "This is an implementation of the CMMD Ideal Money protocol.      This component regulates the token supply of the CMMD ERC20 token in response to      market oracles.",
				"kind": "dev",
				"methods": {
					"computeRebasePercentage(int256,int256,int256,int256)": {
						"params": {
							"normalizedRate": "value of rate/targetRate in DECIMALS decimal fixed point number"
						},
						"returns": {
							"_0": "The percentage of supply to be added or removed."
						}
					},
					"initialize(address,uint256)": {
						"details": "ZOS upgradable contract initialization method.      It is called at the time of contract creation to invoke parent class initializers and      initialize the contract's state variables."
					},
					"rebase()": {
						"details": "Changes supply with percentage of:  (Upper-Lower)/(1-(Upper/Lower)/2^(Growth*NormalizedPriceDelta))) + Lower"
					},
					"setCpiOracle(address)": {
						"params": {
							"cpiOracle_": "The address of the cpi oracle contract."
						}
					},
					"setDeviationThreshold(uint256)": {
						"params": {
							"deviationThreshold_": "The new exchange rate threshold fraction."
						}
					},
					"setMarketOracle(address)": {
						"params": {
							"marketOracle_": "The address of the market oracle contract."
						}
					}
				},
				"title": "CMMD Monetary Supply Policy",
				"version": 1
			},
			"evm": {
				"assembly": "    /* \"contracts/CMMDPolicy.sol\":643:9083  contract CMMDPolicy {... */\n  mstore(0x40, 0x80)\n  callvalue\n  dup1\n  iszero\n  tag_1\n  jumpi\n  0x00\n  dup1\n  revert\ntag_1:\n  pop\n  dataSize(sub_0)\n  dup1\n  dataOffset(sub_0)\n  0x00\n  codecopy\n  0x00\n  return\nstop\n\nsub_0: assembly {\n        /* \"contracts/CMMDPolicy.sol\":643:9083  contract CMMDPolicy {... */\n      mstore(0x40, 0x80)\n      callvalue\n      dup1\n      iszero\n      tag_1\n      jumpi\n      0x00\n      dup1\n      revert\n    tag_1:\n      pop\n      jumpi(tag_2, lt(calldatasize, 0x04))\n      shr(0xe0, calldataload(0x00))\n      dup1\n      0x900cf0cf\n      gt\n      tag_20\n      jumpi\n      dup1\n      0xaf14052c\n      gt\n      tag_21\n      jumpi\n      dup1\n      0xaf14052c\n      eq\n      tag_15\n      jumpi\n      dup1\n      0xcd6dc687\n      eq\n      tag_16\n      jumpi\n      dup1\n      0xd94ad837\n      eq\n      tag_17\n      jumpi\n      dup1\n      0xe9fa88a4\n      eq\n      tag_18\n      jumpi\n      dup1\n      0xf4fefa49\n      eq\n      tag_19\n      jumpi\n      jump(tag_2)\n    tag_21:\n      dup1\n      0x900cf0cf\n      eq\n      tag_11\n      jumpi\n      dup1\n      0x9db59b2f\n      eq\n      tag_12\n      jumpi\n      dup1\n      0x9e30bac5\n      eq\n      tag_13\n      jumpi\n      dup1\n      0xab33c5ca\n      eq\n      tag_14\n      jumpi\n      jump(tag_2)\n    tag_20:\n      dup1\n      0x5ee01540\n      gt\n      tag_22\n      jumpi\n      dup1\n      0x5ee01540\n      eq\n      tag_7\n      jumpi\n      dup1\n      0x60961528\n      eq\n      tag_8\n      jumpi\n      dup1\n      0x7486cdea\n      eq\n      tag_9\n      jumpi\n      dup1\n      0x8001066d\n      eq\n      tag_10\n      jumpi\n      jump(tag_2)\n    tag_22:\n      dup1\n      0x3a785af1\n      eq\n      tag_3\n      jumpi\n      dup1\n      0x3d6a46e5\n      eq\n      tag_4\n      jumpi\n      dup1\n      0x4dafa35e\n      eq\n      tag_5\n      jumpi\n      dup1\n      0x53a15edc\n      eq\n      tag_6\n      jumpi\n    tag_2:\n      0x00\n      dup1\n      revert\n        /* \"contracts/CMMDPolicy.sol\":6179:7490  function computeRebasePercentage(... */\n    tag_3:\n      tag_23\n      0x04\n      dup1\n      calldatasize\n      sub\n      dup2\n      add\n      swap1\n      tag_24\n      swap2\n      swap1\n      tag_25\n      jump\t// in\n    tag_24:\n      tag_26\n      jump\t// in\n    tag_23:\n      mload(0x40)\n      tag_27\n      swap2\n      swap1\n      tag_28\n      jump\t// in\n    tag_27:\n      mload(0x40)\n      dup1\n      swap2\n      sub\n      swap1\n      return\n        /* \"contracts/CMMDPolicy.sol\":3641:3729  function setCpiOracle(IOracle cpiOracle_) public {... */\n    tag_4:\n      tag_29\n      0x04\n      dup1\n      calldatasize\n      sub\n      dup2\n      add\n      swap1\n      tag_30\n      swap2\n      swap1\n      tag_31\n      jump\t// in\n    tag_30:\n      tag_32\n      jump\t// in\n    tag_29:\n      stop\n        /* \"contracts/CMMDPolicy.sol\":851:868  ICMMD public cmmd */\n    tag_5:\n      tag_33\n      tag_34\n      jump\t// in\n    tag_33:\n      mload(0x40)\n      tag_35\n      swap2\n      swap1\n      tag_36\n      jump\t// in\n    tag_35:\n      mload(0x40)\n      dup1\n      swap2\n      sub\n      swap1\n      return\n        /* \"contracts/CMMDPolicy.sol\":4994:5118  function setDeviationThreshold(uint256 deviationThreshold_) public {... */\n    tag_6:\n      tag_37\n      0x04\n      dup1\n      calldatasize\n      sub\n      dup2\n      add\n      swap1\n      tag_38\n      swap2\n      swap1\n      tag_39\n      jump\t// in\n    tag_38:\n      tag_40\n      jump\t// in\n    tag_37:\n      stop\n        /* \"contracts/CMMDPolicy.sol\":2126:2169  int256 public rebaseFunctionLowerPercentage */\n    tag_7:\n      tag_41\n      tag_42\n      jump\t// in\n    tag_41:\n      mload(0x40)\n      tag_43\n      swap2\n      swap1\n      tag_28\n      jump\t// in\n    tag_43:\n      mload(0x40)\n      dup1\n      swap2\n      sub\n      swap1\n      return\n        /* \"contracts/CMMDPolicy.sol\":1053:1080  IOracle public marketOracle */\n    tag_8:\n      tag_44\n      tag_45\n      jump\t// in\n    tag_44:\n      mload(0x40)\n      tag_46\n      swap2\n      swap1\n      tag_47\n      jump\t// in\n    tag_46:\n      mload(0x40)\n      dup1\n      swap2\n      sub\n      swap1\n      return\n        /* \"contracts/CMMDPolicy.sol\":2224:2258  int256 public rebaseFunctionGrowth */\n    tag_9:\n      tag_48\n      tag_49\n      jump\t// in\n    tag_48:\n      mload(0x40)\n      tag_50\n      swap2\n      swap1\n      tag_28\n      jump\t// in\n    tag_50:\n      mload(0x40)\n      dup1\n      swap2\n      sub\n      swap1\n      return\n        /* \"contracts/CMMDPolicy.sol\":3986:4162  function setRebaseFunctionGrowth(int256 rebaseFunctionGrowth_) public {... */\n    tag_10:\n      tag_51\n      0x04\n      dup1\n      calldatasize\n      sub\n      dup2\n      add\n      swap1\n      tag_52\n      swap2\n      swap1\n      tag_53\n      jump\t// in\n    tag_52:\n      tag_54\n      jump\t// in\n    tag_51:\n      stop\n        /* \"contracts/CMMDPolicy.sol\":1585:1605  uint256 public epoch */\n    tag_11:\n      tag_55\n      tag_56\n      jump\t// in\n    tag_55:\n      mload(0x40)\n      tag_57\n      swap2\n      swap1\n      tag_58\n      jump\t// in\n    tag_57:\n      mload(0x40)\n      dup1\n      swap2\n      sub\n      swap1\n      return\n        /* \"contracts/CMMDPolicy.sol\":2175:2218  int256 public rebaseFunctionUpperPercentage */\n    tag_12:\n      tag_59\n      tag_60\n      jump\t// in\n    tag_59:\n      mload(0x40)\n      tag_61\n      swap2\n      swap1\n      tag_28\n      jump\t// in\n    tag_61:\n      mload(0x40)\n      dup1\n      swap2\n      sub\n      swap1\n      return\n        /* \"contracts/CMMDPolicy.sol\":3879:3979  function setMarketOracle(IOracle marketOracle_) public {... */\n    tag_13:\n      tag_62\n      0x04\n      dup1\n      calldatasize\n      sub\n      dup2\n      add\n      swap1\n      tag_63\n      swap2\n      swap1\n      tag_31\n      jump\t// in\n    tag_63:\n      tag_64\n      jump\t// in\n    tag_62:\n      stop\n        /* \"contracts/CMMDPolicy.sol\":945:969  IOracle public cpiOracle */\n    tag_14:\n      tag_65\n      tag_66\n      jump\t// in\n    tag_65:\n      mload(0x40)\n      tag_67\n      swap2\n      swap1\n      tag_47\n      jump\t// in\n    tag_67:\n      mload(0x40)\n      dup1\n      swap2\n      sub\n      swap1\n      return\n        /* \"contracts/CMMDPolicy.sol\":2561:3501  function rebase() public {... */\n    tag_15:\n      tag_68\n      tag_69\n      jump\t// in\n    tag_68:\n      stop\n        /* \"contracts/CMMDPolicy.sol\":5352:5845  function initialize(... */\n    tag_16:\n      tag_70\n      0x04\n      dup1\n      calldatasize\n      sub\n      dup2\n      add\n      swap1\n      tag_71\n      swap2\n      swap1\n      tag_72\n      jump\t// in\n    tag_71:\n      tag_73\n      jump\t// in\n    tag_70:\n      stop\n        /* \"contracts/CMMDPolicy.sol\":1494:1527  uint256 public deviationThreshold */\n    tag_17:\n      tag_74\n      tag_75\n      jump\t// in\n    tag_74:\n      mload(0x40)\n      tag_76\n      swap2\n      swap1\n      tag_58\n      jump\t// in\n    tag_76:\n      mload(0x40)\n      dup1\n      swap2\n      sub\n      swap1\n      return\n        /* \"contracts/CMMDPolicy.sol\":4168:4401  function setRebaseFunctionLowerPercentage(int256 rebaseFunctionLowerPercentage_)... */\n    tag_18:\n      tag_77\n      0x04\n      dup1\n      calldatasize\n      sub\n      dup2\n      add\n      swap1\n      tag_78\n      swap2\n      swap1\n      tag_53\n      jump\t// in\n    tag_78:\n      tag_79\n      jump\t// in\n    tag_77:\n      stop\n        /* \"contracts/CMMDPolicy.sol\":4407:4640  function setRebaseFunctionUpperPercentage(int256 rebaseFunctionUpperPercentage_)... */\n    tag_19:\n      tag_80\n      0x04\n      dup1\n      calldatasize\n      sub\n      dup2\n      add\n      swap1\n      tag_81\n      swap2\n      swap1\n      tag_53\n      jump\t// in\n    tag_81:\n      tag_82\n      jump\t// in\n    tag_80:\n      stop\n        /* \"contracts/CMMDPolicy.sol\":6179:7490  function computeRebasePercentage(... */\n    tag_26:\n        /* \"contracts/CMMDPolicy.sol\":6337:6343  int256 */\n      0x00\n        /* \"contracts/CMMDPolicy.sol\":6355:6367  int256 delta */\n      dup1\n        /* \"contracts/CMMDPolicy.sol\":6386:6421  SafeMathInt.sub(normalizedRate,ONE) */\n      tag_84\n        /* \"contracts/CMMDPolicy.sol\":6402:6416  normalizedRate */\n      dup7\n        /* \"contracts/CMMDPolicy.sol\":1648:1650  18 */\n      0x12\n        /* \"contracts/CMMDPolicy.sol\":2302:2304  10 */\n      0x0a\n        /* \"contracts/CMMDPolicy.sol\":2302:2314  10**DECIMALS */\n      tag_85\n      swap2\n      swap1\n      tag_86\n      jump\t// in\n    tag_85:\n        /* \"contracts/CMMDPolicy.sol\":6386:6401  SafeMathInt.sub */\n      tag_87\n        /* \"contracts/CMMDPolicy.sol\":6386:6421  SafeMathInt.sub(normalizedRate,ONE) */\n      jump\t// in\n    tag_84:\n        /* \"contracts/CMMDPolicy.sol\":6378:6421  delta = SafeMathInt.sub(normalizedRate,ONE) */\n      swap1\n      pop\n        /* \"contracts/CMMDPolicy.sol\":6511:6526  int256 exponent */\n      0x00\n        /* \"contracts/CMMDPolicy.sol\":6529:6579  SafeMathInt.div(SafeMathInt.mul(growth,delta),ONE) */\n      tag_88\n        /* \"contracts/CMMDPolicy.sol\":6545:6574  SafeMathInt.mul(growth,delta) */\n      tag_89\n        /* \"contracts/CMMDPolicy.sol\":6561:6567  growth */\n      dup6\n        /* \"contracts/CMMDPolicy.sol\":6568:6573  delta */\n      dup5\n        /* \"contracts/CMMDPolicy.sol\":6545:6560  SafeMathInt.mul */\n      tag_90\n        /* \"contracts/CMMDPolicy.sol\":6545:6574  SafeMathInt.mul(growth,delta) */\n      jump\t// in\n    tag_89:\n        /* \"contracts/CMMDPolicy.sol\":1648:1650  18 */\n      0x12\n        /* \"contracts/CMMDPolicy.sol\":2302:2304  10 */\n      0x0a\n        /* \"contracts/CMMDPolicy.sol\":2302:2314  10**DECIMALS */\n      tag_91\n      swap2\n      swap1\n      tag_86\n      jump\t// in\n    tag_91:\n        /* \"contracts/CMMDPolicy.sol\":6529:6544  SafeMathInt.div */\n      tag_92\n        /* \"contracts/CMMDPolicy.sol\":6529:6579  SafeMathInt.div(SafeMathInt.mul(growth,delta),ONE) */\n      jump\t// in\n    tag_88:\n        /* \"contracts/CMMDPolicy.sol\":6511:6579  int256 exponent = SafeMathInt.div(SafeMathInt.mul(growth,delta),ONE) */\n      swap1\n      pop\n        /* \"contracts/CMMDPolicy.sol\":6672:6696  SafeMathInt.mul(ONE,100) */\n      tag_93\n        /* \"contracts/CMMDPolicy.sol\":1648:1650  18 */\n      0x12\n        /* \"contracts/CMMDPolicy.sol\":2302:2304  10 */\n      0x0a\n        /* \"contracts/CMMDPolicy.sol\":2302:2314  10**DECIMALS */\n      tag_94\n      swap2\n      swap1\n      tag_86\n      jump\t// in\n    tag_94:\n        /* \"contracts/CMMDPolicy.sol\":6692:6695  100 */\n      0x64\n        /* \"contracts/CMMDPolicy.sol\":6672:6687  SafeMathInt.mul */\n      tag_90\n        /* \"contracts/CMMDPolicy.sol\":6672:6696  SafeMathInt.mul(ONE,100) */\n      jump\t// in\n    tag_93:\n        /* \"contracts/CMMDPolicy.sol\":6661:6669  exponent */\n      dup2\n        /* \"contracts/CMMDPolicy.sol\":6661:6696  exponent > SafeMathInt.mul(ONE,100) */\n      sgt\n        /* \"contracts/CMMDPolicy.sol\":6657:6758  if (exponent > SafeMathInt.mul(ONE,100)) {... */\n      iszero\n      tag_95\n      jumpi\n        /* \"contracts/CMMDPolicy.sol\":6723:6747  SafeMathInt.mul(ONE,100) */\n      tag_96\n        /* \"contracts/CMMDPolicy.sol\":1648:1650  18 */\n      0x12\n        /* \"contracts/CMMDPolicy.sol\":2302:2304  10 */\n      0x0a\n        /* \"contracts/CMMDPolicy.sol\":2302:2314  10**DECIMALS */\n      tag_97\n      swap2\n      swap1\n      tag_86\n      jump\t// in\n    tag_97:\n        /* \"contracts/CMMDPolicy.sol\":6743:6746  100 */\n      0x64\n        /* \"contracts/CMMDPolicy.sol\":6723:6738  SafeMathInt.mul */\n      tag_90\n        /* \"contracts/CMMDPolicy.sol\":6723:6747  SafeMathInt.mul(ONE,100) */\n      jump\t// in\n    tag_96:\n        /* \"contracts/CMMDPolicy.sol\":6712:6747  exponent = SafeMathInt.mul(ONE,100) */\n      swap1\n      pop\n        /* \"contracts/CMMDPolicy.sol\":6657:6758  if (exponent > SafeMathInt.mul(ONE,100)) {... */\n    tag_95:\n        /* \"contracts/CMMDPolicy.sol\":6782:6807  SafeMathInt.mul(ONE,-100) */\n      tag_98\n        /* \"contracts/CMMDPolicy.sol\":1648:1650  18 */\n      0x12\n        /* \"contracts/CMMDPolicy.sol\":2302:2304  10 */\n      0x0a\n        /* \"contracts/CMMDPolicy.sol\":2302:2314  10**DECIMALS */\n      tag_99\n      swap2\n      swap1\n      tag_86\n      jump\t// in\n    tag_99:\n        /* \"contracts/CMMDPolicy.sol\":6802:6806  -100 */\n      0xffffffffffffffffffffffffffffffffffffffffffffffffffffffffffffff9c\n        /* \"contracts/CMMDPolicy.sol\":6782:6797  SafeMathInt.mul */\n      tag_90\n        /* \"contracts/CMMDPolicy.sol\":6782:6807  SafeMathInt.mul(ONE,-100) */\n      jump\t// in\n    tag_98:\n        /* \"contracts/CMMDPolicy.sol\":6771:6779  exponent */\n      dup2\n        /* \"contracts/CMMDPolicy.sol\":6771:6807  exponent < SafeMathInt.mul(ONE,-100) */\n      slt\n        /* \"contracts/CMMDPolicy.sol\":6767:6870  if (exponent < SafeMathInt.mul(ONE,-100)) {... */\n      iszero\n      tag_100\n      jumpi\n        /* \"contracts/CMMDPolicy.sol\":6834:6859  SafeMathInt.mul(ONE,-100) */\n      tag_101\n        /* \"contracts/CMMDPolicy.sol\":1648:1650  18 */\n      0x12\n        /* \"contracts/CMMDPolicy.sol\":2302:2304  10 */\n      0x0a\n        /* \"contracts/CMMDPolicy.sol\":2302:2314  10**DECIMALS */\n      tag_102\n      swap2\n      swap1\n      tag_86\n      jump\t// in\n    tag_102:\n        /* \"contracts/CMMDPolicy.sol\":6854:6858  -100 */\n      0xffffffffffffffffffffffffffffffffffffffffffffffffffffffffffffff9c\n        /* \"contracts/CMMDPolicy.sol\":6834:6849  SafeMathInt.mul */\n      tag_90\n        /* \"contracts/CMMDPolicy.sol\":6834:6859  SafeMathInt.mul(ONE,-100) */\n      jump\t// in\n    tag_101:\n        /* \"contracts/CMMDPolicy.sol\":6823:6859  exponent = SafeMathInt.mul(ONE,-100) */\n      swap1\n      pop\n        /* \"contracts/CMMDPolicy.sol\":6767:6870  if (exponent < SafeMathInt.mul(ONE,-100)) {... */\n    tag_100:\n        /* \"contracts/CMMDPolicy.sol\":6880:6890  int256 pow */\n      0x00\n        /* \"contracts/CMMDPolicy.sol\":6893:6928  SafeMathInt.twoPower(exponent, ONE) */\n      tag_103\n        /* \"contracts/CMMDPolicy.sol\":6914:6922  exponent */\n      dup3\n        /* \"contracts/CMMDPolicy.sol\":1648:1650  18 */\n      0x12\n        /* \"contracts/CMMDPolicy.sol\":2302:2304  10 */\n      0x0a\n        /* \"contracts/CMMDPolicy.sol\":2302:2314  10**DECIMALS */\n      tag_104\n      swap2\n      swap1\n      tag_86\n      jump\t// in\n    tag_104:\n        /* \"contracts/CMMDPolicy.sol\":6893:6913  SafeMathInt.twoPower */\n      tag_105\n        /* \"contracts/CMMDPolicy.sol\":6893:6928  SafeMathInt.twoPower(exponent, ONE) */\n      jump\t// in\n    tag_103:\n        /* \"contracts/CMMDPolicy.sol\":6880:6928  int256 pow = SafeMathInt.twoPower(exponent, ONE) */\n      swap1\n      pop\n        /* \"contracts/CMMDPolicy.sol\":6969:6970  0 */\n      0x00\n        /* \"contracts/CMMDPolicy.sol\":6962:6965  pow */\n      dup2\n        /* \"contracts/CMMDPolicy.sol\":6962:6970  pow == 0 */\n      eq\n        /* \"contracts/CMMDPolicy.sol\":6958:7009  if (pow == 0) {... */\n      iszero\n      tag_106\n      jumpi\n        /* \"contracts/CMMDPolicy.sol\":6993:6998  lower */\n      dup7\n        /* \"contracts/CMMDPolicy.sol\":6986:6998  return lower */\n      swap4\n      pop\n      pop\n      pop\n      pop\n      jump(tag_83)\n        /* \"contracts/CMMDPolicy.sol\":6958:7009  if (pow == 0) {... */\n    tag_106:\n        /* \"contracts/CMMDPolicy.sol\":7018:7034  int256 numerator */\n      0x00\n        /* \"contracts/CMMDPolicy.sol\":7037:7065  SafeMathInt.sub(upper,lower) */\n      tag_107\n        /* \"contracts/CMMDPolicy.sol\":7053:7058  upper */\n      dup8\n        /* \"contracts/CMMDPolicy.sol\":7059:7064  lower */\n      dup10\n        /* \"contracts/CMMDPolicy.sol\":7037:7052  SafeMathInt.sub */\n      tag_87\n        /* \"contracts/CMMDPolicy.sol\":7037:7065  SafeMathInt.sub(upper,lower) */\n      jump\t// in\n    tag_107:\n        /* \"contracts/CMMDPolicy.sol\":7018:7065  int256 numerator = SafeMathInt.sub(upper,lower) */\n      swap1\n      pop\n        /* \"contracts/CMMDPolicy.sol\":7091:7110  int256 intermediate */\n      0x00\n        /* \"contracts/CMMDPolicy.sol\":7113:7162  SafeMathInt.div(SafeMathInt.mul(upper,ONE),lower) */\n      tag_108\n        /* \"contracts/CMMDPolicy.sol\":7129:7155  SafeMathInt.mul(upper,ONE) */\n      tag_109\n        /* \"contracts/CMMDPolicy.sol\":7145:7150  upper */\n      dup10\n        /* \"contracts/CMMDPolicy.sol\":1648:1650  18 */\n      0x12\n        /* \"contracts/CMMDPolicy.sol\":2302:2304  10 */\n      0x0a\n        /* \"contracts/CMMDPolicy.sol\":2302:2314  10**DECIMALS */\n      tag_110\n      swap2\n      swap1\n      tag_86\n      jump\t// in\n    tag_110:\n        /* \"contracts/CMMDPolicy.sol\":7129:7144  SafeMathInt.mul */\n      tag_90\n        /* \"contracts/CMMDPolicy.sol\":7129:7155  SafeMathInt.mul(upper,ONE) */\n      jump\t// in\n    tag_109:\n        /* \"contracts/CMMDPolicy.sol\":7156:7161  lower */\n      dup11\n        /* \"contracts/CMMDPolicy.sol\":7113:7128  SafeMathInt.div */\n      tag_92\n        /* \"contracts/CMMDPolicy.sol\":7113:7162  SafeMathInt.div(SafeMathInt.mul(upper,ONE),lower) */\n      jump\t// in\n    tag_108:\n        /* \"contracts/CMMDPolicy.sol\":7091:7162  int256 intermediate = SafeMathInt.div(SafeMathInt.mul(upper,ONE),lower) */\n      swap1\n      pop\n        /* \"contracts/CMMDPolicy.sol\":7187:7241  SafeMathInt.div(SafeMathInt.mul(intermediate,ONE),pow) */\n      tag_111\n        /* \"contracts/CMMDPolicy.sol\":7203:7236  SafeMathInt.mul(intermediate,ONE) */\n      tag_112\n        /* \"contracts/CMMDPolicy.sol\":7219:7231  intermediate */\n      dup3\n        /* \"contracts/CMMDPolicy.sol\":1648:1650  18 */\n      0x12\n        /* \"contracts/CMMDPolicy.sol\":2302:2304  10 */\n      0x0a\n        /* \"contracts/CMMDPolicy.sol\":2302:2314  10**DECIMALS */\n      tag_113\n      swap2\n      swap1\n      tag_86\n      jump\t// in\n    tag_113:\n        /* \"contracts/CMMDPolicy.sol\":7203:7218  SafeMathInt.mul */\n      tag_90\n        /* \"contracts/CMMDPolicy.sol\":7203:7236  SafeMathInt.mul(intermediate,ONE) */\n      jump\t// in\n    tag_112:\n        /* \"contracts/CMMDPolicy.sol\":7237:7240  pow */\n      dup5\n        /* \"contracts/CMMDPolicy.sol\":7187:7202  SafeMathInt.div */\n      tag_92\n        /* \"contracts/CMMDPolicy.sol\":7187:7241  SafeMathInt.div(SafeMathInt.mul(intermediate,ONE),pow) */\n      jump\t// in\n    tag_111:\n        /* \"contracts/CMMDPolicy.sol\":7172:7241  intermediate = SafeMathInt.div(SafeMathInt.mul(intermediate,ONE),pow) */\n      swap1\n      pop\n        /* \"contracts/CMMDPolicy.sol\":7251:7269  int256 denominator */\n      0x00\n        /* \"contracts/CMMDPolicy.sol\":7272:7305  SafeMathInt.sub(ONE,intermediate) */\n      tag_114\n        /* \"contracts/CMMDPolicy.sol\":1648:1650  18 */\n      0x12\n        /* \"contracts/CMMDPolicy.sol\":2302:2304  10 */\n      0x0a\n        /* \"contracts/CMMDPolicy.sol\":2302:2314  10**DECIMALS */\n      tag_115\n      swap2\n      swap1\n      tag_86\n      jump\t// in\n    tag_115:\n        /* \"contracts/CMMDPolicy.sol\":7292:7304  intermediate */\n      dup4\n        /* \"contracts/CMMDPolicy.sol\":7272:7287  SafeMathInt.sub */\n      tag_87\n        /* \"contracts/CMMDPolicy.sol\":7272:7305  SafeMathInt.sub(ONE,intermediate) */\n      jump\t// in\n    tag_114:\n        /* \"contracts/CMMDPolicy.sol\":7251:7305  int256 denominator = SafeMathInt.sub(ONE,intermediate) */\n      swap1\n      pop\n        /* \"contracts/CMMDPolicy.sol\":7355:7378  int256 rebasePercentage */\n      0x00\n        /* \"contracts/CMMDPolicy.sol\":7445:7450  lower */\n      dup11\n        /* \"contracts/CMMDPolicy.sol\":7382:7441  SafeMathInt.div(SafeMathInt.mul(numerator,ONE),denominator) */\n      tag_116\n        /* \"contracts/CMMDPolicy.sol\":7398:7428  SafeMathInt.mul(numerator,ONE) */\n      tag_117\n        /* \"contracts/CMMDPolicy.sol\":7414:7423  numerator */\n      dup7\n        /* \"contracts/CMMDPolicy.sol\":1648:1650  18 */\n      0x12\n        /* \"contracts/CMMDPolicy.sol\":2302:2304  10 */\n      0x0a\n        /* \"contracts/CMMDPolicy.sol\":2302:2314  10**DECIMALS */\n      tag_118\n      swap2\n      swap1\n      tag_86\n      jump\t// in\n    tag_118:\n        /* \"contracts/CMMDPolicy.sol\":7398:7413  SafeMathInt.mul */\n      tag_90\n        /* \"contracts/CMMDPolicy.sol\":7398:7428  SafeMathInt.mul(numerator,ONE) */\n      jump\t// in\n    tag_117:\n        /* \"contracts/CMMDPolicy.sol\":7429:7440  denominator */\n      dup5\n        /* \"contracts/CMMDPolicy.sol\":7382:7397  SafeMathInt.div */\n      tag_92\n        /* \"contracts/CMMDPolicy.sol\":7382:7441  SafeMathInt.div(SafeMathInt.mul(numerator,ONE),denominator) */\n      jump\t// in\n    tag_116:\n        /* \"contracts/CMMDPolicy.sol\":7381:7450  (SafeMathInt.div(SafeMathInt.mul(numerator,ONE),denominator)) + lower */\n      tag_119\n      swap2\n      swap1\n      tag_120\n      jump\t// in\n    tag_119:\n        /* \"contracts/CMMDPolicy.sol\":7355:7450  int256 rebasePercentage = (SafeMathInt.div(SafeMathInt.mul(numerator,ONE),denominator)) + lower */\n      swap1\n      pop\n        /* \"contracts/CMMDPolicy.sol\":7467:7483  rebasePercentage */\n      dup1\n        /* \"contracts/CMMDPolicy.sol\":7460:7483  return rebasePercentage */\n      swap8\n      pop\n      pop\n      pop\n      pop\n      pop\n      pop\n      pop\n      pop\n        /* \"contracts/CMMDPolicy.sol\":6179:7490  function computeRebasePercentage(... */\n    tag_83:\n      swap5\n      swap4\n      pop\n      pop\n      pop\n      pop\n      jump\t// out\n        /* \"contracts/CMMDPolicy.sol\":3641:3729  function setCpiOracle(IOracle cpiOracle_) public {... */\n    tag_32:\n        /* \"contracts/CMMDPolicy.sol\":3712:3722  cpiOracle_ */\n      dup1\n        /* \"contracts/CMMDPolicy.sol\":3700:3709  cpiOracle */\n      0x01\n      0x00\n        /* \"contracts/CMMDPolicy.sol\":3700:3722  cpiOracle = cpiOracle_ */\n      0x0100\n      exp\n      dup2\n      sload\n      dup2\n      0xffffffffffffffffffffffffffffffffffffffff\n      mul\n      not\n      and\n      swap1\n      dup4\n      0xffffffffffffffffffffffffffffffffffffffff\n      and\n      mul\n      or\n      swap1\n      sstore\n      pop\n        /* \"contracts/CMMDPolicy.sol\":3641:3729  function setCpiOracle(IOracle cpiOracle_) public {... */\n      pop\n      jump\t// out\n        /* \"contracts/CMMDPolicy.sol\":851:868  ICMMD public cmmd */\n    tag_34:\n      0x00\n      dup1\n      sload\n      swap1\n      0x0100\n      exp\n      swap1\n      div\n      0xffffffffffffffffffffffffffffffffffffffff\n      and\n      dup2\n      jump\t// out\n        /* \"contracts/CMMDPolicy.sol\":4994:5118  function setDeviationThreshold(uint256 deviationThreshold_) public {... */\n    tag_40:\n        /* \"contracts/CMMDPolicy.sol\":5092:5111  deviationThreshold_ */\n      dup1\n        /* \"contracts/CMMDPolicy.sol\":5071:5089  deviationThreshold */\n      0x04\n        /* \"contracts/CMMDPolicy.sol\":5071:5111  deviationThreshold = deviationThreshold_ */\n      dup2\n      swap1\n      sstore\n      pop\n        /* \"contracts/CMMDPolicy.sol\":4994:5118  function setDeviationThreshold(uint256 deviationThreshold_) public {... */\n      pop\n      jump\t// out\n        /* \"contracts/CMMDPolicy.sol\":2126:2169  int256 public rebaseFunctionLowerPercentage */\n    tag_42:\n      sload(0x06)\n      dup2\n      jump\t// out\n        /* \"contracts/CMMDPolicy.sol\":1053:1080  IOracle public marketOracle */\n    tag_45:\n      0x02\n      0x00\n      swap1\n      sload\n      swap1\n      0x0100\n      exp\n      swap1\n      div\n      0xffffffffffffffffffffffffffffffffffffffff\n      and\n      dup2\n      jump\t// out\n        /* \"contracts/CMMDPolicy.sol\":2224:2258  int256 public rebaseFunctionGrowth */\n    tag_49:\n      sload(0x08)\n      dup2\n      jump\t// out\n        /* \"contracts/CMMDPolicy.sol\":3986:4162  function setRebaseFunctionGrowth(int256 rebaseFunctionGrowth_) public {... */\n    tag_54:\n        /* \"contracts/CMMDPolicy.sol\":4099:4100  0 */\n      0x00\n        /* \"contracts/CMMDPolicy.sol\":4074:4095  rebaseFunctionGrowth_ */\n      dup2\n        /* \"contracts/CMMDPolicy.sol\":4074:4100  rebaseFunctionGrowth_ >= 0 */\n      slt\n      iszero\n        /* \"contracts/CMMDPolicy.sol\":4066:4101  require(rebaseFunctionGrowth_ >= 0) */\n      tag_124\n      jumpi\n      0x00\n      dup1\n      revert\n    tag_124:\n        /* \"contracts/CMMDPolicy.sol\":4134:4155  rebaseFunctionGrowth_ */\n      dup1\n        /* \"contracts/CMMDPolicy.sol\":4111:4131  rebaseFunctionGrowth */\n      0x08\n        /* \"contracts/CMMDPolicy.sol\":4111:4155  rebaseFunctionGrowth = rebaseFunctionGrowth_ */\n      dup2\n      swap1\n      sstore\n      pop\n        /* \"contracts/CMMDPolicy.sol\":3986:4162  function setRebaseFunctionGrowth(int256 rebaseFunctionGrowth_) public {... */\n      pop\n      jump\t// out\n        /* \"contracts/CMMDPolicy.sol\":1585:1605  uint256 public epoch */\n    tag_56:\n      sload(0x05)\n      dup2\n      jump\t// out\n        /* \"contracts/CMMDPolicy.sol\":2175:2218  int256 public rebaseFunctionUpperPercentage */\n    tag_60:\n      sload(0x07)\n      dup2\n      jump\t// out\n        /* \"contracts/CMMDPolicy.sol\":3879:3979  function setMarketOracle(IOracle marketOracle_) public {... */\n    tag_64:\n        /* \"contracts/CMMDPolicy.sol\":3959:3972  marketOracle_ */\n      dup1\n        /* \"contracts/CMMDPolicy.sol\":3944:3956  marketOracle */\n      0x02\n      0x00\n        /* \"contracts/CMMDPolicy.sol\":3944:3972  marketOracle = marketOracle_ */\n      0x0100\n      exp\n      dup2\n      sload\n      dup2\n      0xffffffffffffffffffffffffffffffffffffffff\n      mul\n      not\n      and\n      swap1\n      dup4\n      0xffffffffffffffffffffffffffffffffffffffff\n      and\n      mul\n      or\n      swap1\n      sstore\n      pop\n        /* \"contracts/CMMDPolicy.sol\":3879:3979  function setMarketOracle(IOracle marketOracle_) public {... */\n      pop\n      jump\t// out\n        /* \"contracts/CMMDPolicy.sol\":945:969  IOracle public cpiOracle */\n    tag_66:\n      0x01\n      0x00\n      swap1\n      sload\n      swap1\n      0x0100\n      exp\n      swap1\n      div\n      0xffffffffffffffffffffffffffffffffffffffff\n      and\n      dup2\n      jump\t// out\n        /* \"contracts/CMMDPolicy.sol\":2561:3501  function rebase() public {... */\n    tag_69:\n        /* \"contracts/CMMDPolicy.sol\":2612:2613  1 */\n      0x01\n        /* \"contracts/CMMDPolicy.sol\":2604:2609  epoch */\n      sload(0x05)\n        /* \"contracts/CMMDPolicy.sol\":2604:2613  epoch + 1 */\n      tag_127\n      swap2\n      swap1\n      tag_128\n      jump\t// in\n    tag_127:\n        /* \"contracts/CMMDPolicy.sol\":2596:2601  epoch */\n      0x05\n        /* \"contracts/CMMDPolicy.sol\":2596:2613  epoch = epoch + 1 */\n      dup2\n      swap1\n      sstore\n      pop\n        /* \"contracts/CMMDPolicy.sol\":2624:2635  uint256 cpi */\n      0x00\n        /* \"contracts/CMMDPolicy.sol\":2645:2658  bool cpiValid */\n      dup1\n        /* \"contracts/CMMDPolicy.sol\":2686:2695  cpiOracle */\n      0x01\n      0x00\n      swap1\n      sload\n      swap1\n      0x0100\n      exp\n      swap1\n      div\n      0xffffffffffffffffffffffffffffffffffffffff\n      and\n        /* \"contracts/CMMDPolicy.sol\":2686:2703  cpiOracle.getData */\n      0xffffffffffffffffffffffffffffffffffffffff\n      and\n      0x3bc5de30\n        /* \"contracts/CMMDPolicy.sol\":2686:2705  cpiOracle.getData() */\n      mload(0x40)\n      dup2\n      0xffffffff\n      and\n      0xe0\n      shl\n      dup2\n      mstore\n      0x04\n      add\n      0x40\n      dup1\n      mload\n      dup1\n      dup4\n      sub\n      dup2\n      0x00\n      dup8\n      dup1\n      extcodesize\n      iszero\n      dup1\n      iszero\n      tag_129\n      jumpi\n      0x00\n      dup1\n      revert\n    tag_129:\n      pop\n      gas\n      call\n      iszero\n      dup1\n      iszero\n      tag_131\n      jumpi\n      returndatasize\n      0x00\n      dup1\n      returndatacopy\n      revert(0x00, returndatasize)\n    tag_131:\n      pop\n      pop\n      pop\n      pop\n      mload(0x40)\n      returndatasize\n      not(0x1f)\n      0x1f\n      dup3\n      add\n      and\n      dup3\n      add\n      dup1\n      0x40\n      mstore\n      pop\n      dup2\n      add\n      swap1\n      tag_132\n      swap2\n      swap1\n      tag_133\n      jump\t// in\n    tag_132:\n        /* \"contracts/CMMDPolicy.sol\":2668:2705  (cpi, cpiValid) = cpiOracle.getData() */\n      dup1\n      swap3\n      pop\n      dup2\n      swap4\n      pop\n      pop\n      pop\n        /* \"contracts/CMMDPolicy.sol\":2723:2731  cpiValid */\n      dup1\n        /* \"contracts/CMMDPolicy.sol\":2715:2732  require(cpiValid) */\n      tag_134\n      jumpi\n      0x00\n      dup1\n      revert\n    tag_134:\n        /* \"contracts/CMMDPolicy.sol\":2743:2761  uint256 targetRate */\n      0x00\n        /* \"contracts/CMMDPolicy.sol\":2764:2818  SafeMath.div(SafeMath.mul(cpi,10**DECIMALS),(baseCpi)) */\n      tag_135\n        /* \"contracts/CMMDPolicy.sol\":2777:2807  SafeMath.mul(cpi,10**DECIMALS) */\n      tag_136\n        /* \"contracts/CMMDPolicy.sol\":2790:2793  cpi */\n      dup5\n        /* \"contracts/CMMDPolicy.sol\":1648:1650  18 */\n      0x12\n        /* \"contracts/CMMDPolicy.sol\":2794:2796  10 */\n      0x0a\n        /* \"contracts/CMMDPolicy.sol\":2794:2806  10**DECIMALS */\n      tag_137\n      swap2\n      swap1\n      tag_86\n      jump\t// in\n    tag_137:\n        /* \"contracts/CMMDPolicy.sol\":2777:2789  SafeMath.mul */\n      tag_138\n        /* \"contracts/CMMDPolicy.sol\":2777:2807  SafeMath.mul(cpi,10**DECIMALS) */\n      jump\t// in\n    tag_136:\n        /* \"contracts/CMMDPolicy.sol\":2809:2816  baseCpi */\n      sload(0x03)\n        /* \"contracts/CMMDPolicy.sol\":2764:2776  SafeMath.div */\n      tag_139\n        /* \"contracts/CMMDPolicy.sol\":2764:2818  SafeMath.div(SafeMath.mul(cpi,10**DECIMALS),(baseCpi)) */\n      jump\t// in\n    tag_135:\n        /* \"contracts/CMMDPolicy.sol\":2743:2818  uint256 targetRate = SafeMath.div(SafeMath.mul(cpi,10**DECIMALS),(baseCpi)) */\n      swap1\n      pop\n        /* \"contracts/CMMDPolicy.sol\":2829:2849  uint256 exchangeRate */\n      0x00\n        /* \"contracts/CMMDPolicy.sol\":2859:2873  bool rateValid */\n      dup1\n        /* \"contracts/CMMDPolicy.sol\":2911:2923  marketOracle */\n      0x02\n      0x00\n      swap1\n      sload\n      swap1\n      0x0100\n      exp\n      swap1\n      div\n      0xffffffffffffffffffffffffffffffffffffffff\n      and\n        /* \"contracts/CMMDPolicy.sol\":2911:2931  marketOracle.getData */\n      0xffffffffffffffffffffffffffffffffffffffff\n      and\n      0x3bc5de30\n        /* \"contracts/CMMDPolicy.sol\":2911:2933  marketOracle.getData() */\n      mload(0x40)\n      dup2\n      0xffffffff\n      and\n      0xe0\n      shl\n      dup2\n      mstore\n      0x04\n      add\n      0x40\n      dup1\n      mload\n      dup1\n      dup4\n      sub\n      dup2\n      0x00\n      dup8\n      dup1\n      extcodesize\n      iszero\n      dup1\n      iszero\n      tag_140\n      jumpi\n      0x00\n      dup1\n      revert\n    tag_140:\n      pop\n      gas\n      call\n      iszero\n      dup1\n      iszero\n      tag_142\n      jumpi\n      returndatasize\n      0x00\n      dup1\n      returndatacopy\n      revert(0x00, returndatasize)\n    tag_142:\n      pop\n      pop\n      pop\n      pop\n      mload(0x40)\n      returndatasize\n      not(0x1f)\n      0x1f\n      dup3\n      add\n      and\n      dup3\n      add\n      dup1\n      0x40\n      mstore\n      pop\n      dup2\n      add\n      swap1\n      tag_143\n      swap2\n      swap1\n      tag_133\n      jump\t// in\n    tag_143:\n        /* \"contracts/CMMDPolicy.sol\":2883:2933  (exchangeRate, rateValid) = marketOracle.getData() */\n      dup1\n      swap3\n      pop\n      dup2\n      swap4\n      pop\n      pop\n      pop\n        /* \"contracts/CMMDPolicy.sol\":2951:2960  rateValid */\n      dup1\n        /* \"contracts/CMMDPolicy.sol\":2943:2961  require(rateValid) */\n      tag_144\n      jumpi\n      0x00\n      dup1\n      revert\n    tag_144:\n        /* \"contracts/CMMDPolicy.sol\":1648:1650  18 */\n      0x12\n        /* \"contracts/CMMDPolicy.sol\":1851:1853  10 */\n      0x0a\n        /* \"contracts/CMMDPolicy.sol\":1851:1863  10**DECIMALS */\n      tag_145\n      swap2\n      swap1\n      tag_86\n      jump\t// in\n    tag_145:\n        /* \"contracts/CMMDPolicy.sol\":1843:1848  10**6 */\n      0x0f4240\n        /* \"contracts/CMMDPolicy.sol\":1843:1863  10**6 * 10**DECIMALS */\n      tag_146\n      swap2\n      swap1\n      tag_147\n      jump\t// in\n    tag_146:\n        /* \"contracts/CMMDPolicy.sol\":2976:2988  exchangeRate */\n      dup3\n        /* \"contracts/CMMDPolicy.sol\":2976:2999  exchangeRate > MAX_RATE */\n      gt\n        /* \"contracts/CMMDPolicy.sol\":2972:3049  if (exchangeRate > MAX_RATE) {... */\n      iszero\n      tag_148\n      jumpi\n        /* \"contracts/CMMDPolicy.sol\":1648:1650  18 */\n      0x12\n        /* \"contracts/CMMDPolicy.sol\":1851:1853  10 */\n      0x0a\n        /* \"contracts/CMMDPolicy.sol\":1851:1863  10**DECIMALS */\n      tag_149\n      swap2\n      swap1\n      tag_86\n      jump\t// in\n    tag_149:\n        /* \"contracts/CMMDPolicy.sol\":1843:1848  10**6 */\n      0x0f4240\n        /* \"contracts/CMMDPolicy.sol\":1843:1863  10**6 * 10**DECIMALS */\n      tag_150\n      swap2\n      swap1\n      tag_147\n      jump\t// in\n    tag_150:\n        /* \"contracts/CMMDPolicy.sol\":3015:3038  exchangeRate = MAX_RATE */\n      swap2\n      pop\n        /* \"contracts/CMMDPolicy.sol\":2972:3049  if (exchangeRate > MAX_RATE) {... */\n    tag_148:\n        /* \"contracts/CMMDPolicy.sol\":3059:3077  int256 supplyDelta */\n      0x00\n        /* \"contracts/CMMDPolicy.sol\":3080:3124  computeSupplyDelta(exchangeRate, targetRate) */\n      tag_151\n        /* \"contracts/CMMDPolicy.sol\":3099:3111  exchangeRate */\n      dup4\n        /* \"contracts/CMMDPolicy.sol\":3113:3123  targetRate */\n      dup6\n        /* \"contracts/CMMDPolicy.sol\":3080:3098  computeSupplyDelta */\n      tag_152\n        /* \"contracts/CMMDPolicy.sol\":3080:3124  computeSupplyDelta(exchangeRate, targetRate) */\n      jump\t// in\n    tag_151:\n        /* \"contracts/CMMDPolicy.sol\":3059:3124  int256 supplyDelta = computeSupplyDelta(exchangeRate, targetRate) */\n      swap1\n      pop\n        /* \"contracts/CMMDPolicy.sol\":3153:3154  0 */\n      0x00\n        /* \"contracts/CMMDPolicy.sol\":3139:3150  supplyDelta */\n      dup2\n        /* \"contracts/CMMDPolicy.sol\":3139:3154  supplyDelta > 0 */\n      sgt\n        /* \"contracts/CMMDPolicy.sol\":3139:3214  supplyDelta > 0 && cmmd.totalSupply() + (uint256(supplyDelta)) > MAX_SUPPLY */\n      dup1\n      iszero\n      tag_153\n      jumpi\n      pop\n        /* \"contracts/CMMDPolicy.sol\":1648:1650  18 */\n      0x12\n        /* \"contracts/CMMDPolicy.sol\":1851:1853  10 */\n      0x0a\n        /* \"contracts/CMMDPolicy.sol\":1851:1863  10**DECIMALS */\n      tag_154\n      swap2\n      swap1\n      tag_86\n      jump\t// in\n    tag_154:\n        /* \"contracts/CMMDPolicy.sol\":1843:1848  10**6 */\n      0x0f4240\n        /* \"contracts/CMMDPolicy.sol\":1843:1863  10**6 * 10**DECIMALS */\n      tag_155\n      swap2\n      swap1\n      tag_147\n      jump\t// in\n    tag_155:\n        /* \"contracts/CMMDPolicy.sol\":1957:1973  type(int256).max */\n      0x7fffffffffffffffffffffffffffffffffffffffffffffffffffffffffffffff\n        /* \"contracts/CMMDPolicy.sol\":1949:1985  uint256(type(int256).max) / MAX_RATE */\n      tag_156\n      swap2\n      swap1\n      tag_157\n      jump\t// in\n    tag_156:\n        /* \"contracts/CMMDPolicy.sol\":3188:3199  supplyDelta */\n      dup2\n        /* \"contracts/CMMDPolicy.sol\":3158:3162  cmmd */\n      0x00\n      dup1\n      sload\n      swap1\n      0x0100\n      exp\n      swap1\n      div\n      0xffffffffffffffffffffffffffffffffffffffff\n      and\n        /* \"contracts/CMMDPolicy.sol\":3158:3174  cmmd.totalSupply */\n      0xffffffffffffffffffffffffffffffffffffffff\n      and\n      0x18160ddd\n        /* \"contracts/CMMDPolicy.sol\":3158:3176  cmmd.totalSupply() */\n      mload(0x40)\n      dup2\n      0xffffffff\n      and\n      0xe0\n      shl\n      dup2\n      mstore\n      0x04\n      add\n      0x20\n      mload(0x40)\n      dup1\n      dup4\n      sub\n      dup2\n      dup7\n      dup1\n      extcodesize\n      iszero\n      dup1\n      iszero\n      tag_158\n      jumpi\n      0x00\n      dup1\n      revert\n    tag_158:\n      pop\n      gas\n      staticcall\n      iszero\n      dup1\n      iszero\n      tag_160\n      jumpi\n      returndatasize\n      0x00\n      dup1\n      returndatacopy\n      revert(0x00, returndatasize)\n    tag_160:\n      pop\n      pop\n      pop\n      pop\n      mload(0x40)\n      returndatasize\n      not(0x1f)\n      0x1f\n      dup3\n      add\n      and\n      dup3\n      add\n      dup1\n      0x40\n      mstore\n      pop\n      dup2\n      add\n      swap1\n      tag_161\n      swap2\n      swap1\n      tag_162\n      jump\t// in\n    tag_161:\n        /* \"contracts/CMMDPolicy.sol\":3158:3201  cmmd.totalSupply() + (uint256(supplyDelta)) */\n      tag_163\n      swap2\n      swap1\n      tag_128\n      jump\t// in\n    tag_163:\n        /* \"contracts/CMMDPolicy.sol\":3158:3214  cmmd.totalSupply() + (uint256(supplyDelta)) > MAX_SUPPLY */\n      gt\n        /* \"contracts/CMMDPolicy.sol\":3139:3214  supplyDelta > 0 && cmmd.totalSupply() + (uint256(supplyDelta)) > MAX_SUPPLY */\n    tag_153:\n        /* \"contracts/CMMDPolicy.sol\":3135:3296  if (supplyDelta > 0 && cmmd.totalSupply() + (uint256(supplyDelta)) > MAX_SUPPLY) {... */\n      iszero\n      tag_164\n      jumpi\n        /* \"contracts/CMMDPolicy.sol\":3265:3269  cmmd */\n      0x00\n      dup1\n      sload\n      swap1\n      0x0100\n      exp\n      swap1\n      div\n      0xffffffffffffffffffffffffffffffffffffffff\n      and\n        /* \"contracts/CMMDPolicy.sol\":3265:3281  cmmd.totalSupply */\n      0xffffffffffffffffffffffffffffffffffffffff\n      and\n      0x18160ddd\n        /* \"contracts/CMMDPolicy.sol\":3265:3283  cmmd.totalSupply() */\n      mload(0x40)\n      dup2\n      0xffffffff\n      and\n      0xe0\n      shl\n      dup2\n      mstore\n      0x04\n      add\n      0x20\n      mload(0x40)\n      dup1\n      dup4\n      sub\n      dup2\n      dup7\n      dup1\n      extcodesize\n      iszero\n      dup1\n      iszero\n      tag_165\n      jumpi\n      0x00\n      dup1\n      revert\n    tag_165:\n      pop\n      gas\n      staticcall\n      iszero\n      dup1\n      iszero\n      tag_167\n      jumpi\n      returndatasize\n      0x00\n      dup1\n      returndatacopy\n      revert(0x00, returndatasize)\n    tag_167:\n      pop\n      pop\n      pop\n      pop\n      mload(0x40)\n      returndatasize\n      not(0x1f)\n      0x1f\n      dup3\n      add\n      and\n      dup3\n      add\n      dup1\n      0x40\n      mstore\n      pop\n      dup2\n      add\n      swap1\n      tag_168\n      swap2\n      swap1\n      tag_162\n      jump\t// in\n    tag_168:\n        /* \"contracts/CMMDPolicy.sol\":1648:1650  18 */\n      0x12\n        /* \"contracts/CMMDPolicy.sol\":1851:1853  10 */\n      0x0a\n        /* \"contracts/CMMDPolicy.sol\":1851:1863  10**DECIMALS */\n      tag_169\n      swap2\n      swap1\n      tag_86\n      jump\t// in\n    tag_169:\n        /* \"contracts/CMMDPolicy.sol\":1843:1848  10**6 */\n      0x0f4240\n        /* \"contracts/CMMDPolicy.sol\":1843:1863  10**6 * 10**DECIMALS */\n      tag_170\n      swap2\n      swap1\n      tag_147\n      jump\t// in\n    tag_170:\n        /* \"contracts/CMMDPolicy.sol\":1957:1973  type(int256).max */\n      0x7fffffffffffffffffffffffffffffffffffffffffffffffffffffffffffffff\n        /* \"contracts/CMMDPolicy.sol\":1949:1985  uint256(type(int256).max) / MAX_RATE */\n      tag_171\n      swap2\n      swap1\n      tag_157\n      jump\t// in\n    tag_171:\n        /* \"contracts/CMMDPolicy.sol\":3251:3284  MAX_SUPPLY - (cmmd.totalSupply()) */\n      tag_172\n      swap2\n      swap1\n      tag_173\n      jump\t// in\n    tag_172:\n        /* \"contracts/CMMDPolicy.sol\":3230:3285  supplyDelta = int256(MAX_SUPPLY - (cmmd.totalSupply())) */\n      swap1\n      pop\n        /* \"contracts/CMMDPolicy.sol\":3135:3296  if (supplyDelta > 0 && cmmd.totalSupply() + (uint256(supplyDelta)) > MAX_SUPPLY) {... */\n    tag_164:\n        /* \"contracts/CMMDPolicy.sol\":3306:3331  uint256 supplyAfterRebase */\n      0x00\n        /* \"contracts/CMMDPolicy.sol\":3334:3338  cmmd */\n      dup1\n      0x00\n      swap1\n      sload\n      swap1\n      0x0100\n      exp\n      swap1\n      div\n      0xffffffffffffffffffffffffffffffffffffffff\n      and\n        /* \"contracts/CMMDPolicy.sol\":3334:3345  cmmd.rebase */\n      0xffffffffffffffffffffffffffffffffffffffff\n      and\n      0x7a43e23f\n        /* \"contracts/CMMDPolicy.sol\":3346:3351  epoch */\n      sload(0x05)\n        /* \"contracts/CMMDPolicy.sol\":3353:3364  supplyDelta */\n      dup5\n        /* \"contracts/CMMDPolicy.sol\":3334:3365  cmmd.rebase(epoch, supplyDelta) */\n      mload(0x40)\n      dup4\n      0xffffffff\n      and\n      0xe0\n      shl\n      dup2\n      mstore\n      0x04\n      add\n      tag_174\n      swap3\n      swap2\n      swap1\n      tag_175\n      jump\t// in\n    tag_174:\n      0x20\n      mload(0x40)\n      dup1\n      dup4\n      sub\n      dup2\n      0x00\n      dup8\n      dup1\n      extcodesize\n      iszero\n      dup1\n      iszero\n      tag_176\n      jumpi\n      0x00\n      dup1\n      revert\n    tag_176:\n      pop\n      gas\n      call\n      iszero\n      dup1\n      iszero\n      tag_178\n      jumpi\n      returndatasize\n      0x00\n      dup1\n      returndatacopy\n      revert(0x00, returndatasize)\n    tag_178:\n      pop\n      pop\n      pop\n      pop\n      mload(0x40)\n      returndatasize\n      not(0x1f)\n      0x1f\n      dup3\n      add\n      and\n      dup3\n      add\n      dup1\n      0x40\n      mstore\n      pop\n      dup2\n      add\n      swap1\n      tag_179\n      swap2\n      swap1\n      tag_162\n      jump\t// in\n    tag_179:\n        /* \"contracts/CMMDPolicy.sol\":3306:3365  uint256 supplyAfterRebase = cmmd.rebase(epoch, supplyDelta) */\n      swap1\n      pop\n        /* \"contracts/CMMDPolicy.sol\":1648:1650  18 */\n      0x12\n        /* \"contracts/CMMDPolicy.sol\":1851:1853  10 */\n      0x0a\n        /* \"contracts/CMMDPolicy.sol\":1851:1863  10**DECIMALS */\n      tag_180\n      swap2\n      swap1\n      tag_86\n      jump\t// in\n    tag_180:\n        /* \"contracts/CMMDPolicy.sol\":1843:1848  10**6 */\n      0x0f4240\n        /* \"contracts/CMMDPolicy.sol\":1843:1863  10**6 * 10**DECIMALS */\n      tag_181\n      swap2\n      swap1\n      tag_147\n      jump\t// in\n    tag_181:\n        /* \"contracts/CMMDPolicy.sol\":1957:1973  type(int256).max */\n      0x7fffffffffffffffffffffffffffffffffffffffffffffffffffffffffffffff\n        /* \"contracts/CMMDPolicy.sol\":1949:1985  uint256(type(int256).max) / MAX_RATE */\n      tag_182\n      swap2\n      swap1\n      tag_157\n      jump\t// in\n    tag_182:\n        /* \"contracts/CMMDPolicy.sol\":3382:3399  supplyAfterRebase */\n      dup2\n        /* \"contracts/CMMDPolicy.sol\":3382:3413  supplyAfterRebase <= MAX_SUPPLY */\n      gt\n      iszero\n        /* \"contracts/CMMDPolicy.sol\":3375:3414  assert(supplyAfterRebase <= MAX_SUPPLY) */\n      tag_183\n      jumpi\n      tag_184\n      tag_185\n      jump\t// in\n    tag_184:\n    tag_183:\n        /* \"contracts/CMMDPolicy.sol\":3439:3444  epoch */\n      sload(0x05)\n        /* \"contracts/CMMDPolicy.sol\":3429:3494  LogRebase(epoch, exchangeRate, cpi, supplyDelta, block.timestamp) */\n      0x41d948a7f29cc695f5d4b3ec147f766bffa165ddd317470fbe05c86d0a9c3e04\n        /* \"contracts/CMMDPolicy.sol\":3446:3458  exchangeRate */\n      dup6\n        /* \"contracts/CMMDPolicy.sol\":3460:3463  cpi */\n      dup10\n        /* \"contracts/CMMDPolicy.sol\":3465:3476  supplyDelta */\n      dup6\n        /* \"contracts/CMMDPolicy.sol\":3478:3493  block.timestamp */\n      timestamp\n        /* \"contracts/CMMDPolicy.sol\":3429:3494  LogRebase(epoch, exchangeRate, cpi, supplyDelta, block.timestamp) */\n      mload(0x40)\n      tag_186\n      swap5\n      swap4\n      swap3\n      swap2\n      swap1\n      tag_187\n      jump\t// in\n    tag_186:\n      mload(0x40)\n      dup1\n      swap2\n      sub\n      swap1\n      log2\n        /* \"contracts/CMMDPolicy.sol\":2586:3501  {... */\n      pop\n      pop\n      pop\n      pop\n      pop\n      pop\n      pop\n        /* \"contracts/CMMDPolicy.sol\":2561:3501  function rebase() public {... */\n      jump\t// out\n        /* \"contracts/CMMDPolicy.sol\":5352:5845  function initialize(... */\n    tag_73:\n        /* \"contracts/CMMDPolicy.sol\":5531:5532  2 */\n      0x02\n        /* \"contracts/CMMDPolicy.sol\":1648:1650  18 */\n      0x12\n        /* \"contracts/CMMDPolicy.sol\":5520:5532  DECIMALS - 2 */\n      tag_189\n      swap2\n      swap1\n      tag_173\n      jump\t// in\n    tag_189:\n        /* \"contracts/CMMDPolicy.sol\":5515:5517  10 */\n      0x0a\n        /* \"contracts/CMMDPolicy.sol\":5515:5533  10**(DECIMALS - 2) */\n      tag_190\n      swap2\n      swap1\n      tag_86\n      jump\t// in\n    tag_190:\n        /* \"contracts/CMMDPolicy.sol\":5511:5512  5 */\n      0x05\n        /* \"contracts/CMMDPolicy.sol\":5511:5533  5 * 10**(DECIMALS - 2) */\n      tag_191\n      swap2\n      swap1\n      tag_147\n      jump\t// in\n    tag_191:\n        /* \"contracts/CMMDPolicy.sol\":5490:5508  deviationThreshold */\n      0x04\n        /* \"contracts/CMMDPolicy.sol\":5490:5533  deviationThreshold = 5 * 10**(DECIMALS - 2) */\n      dup2\n      swap1\n      sstore\n      pop\n        /* \"contracts/CMMDPolicy.sol\":1648:1650  18 */\n      0x12\n        /* \"contracts/CMMDPolicy.sol\":5579:5581  10 */\n      0x0a\n        /* \"contracts/CMMDPolicy.sol\":5579:5591  10**DECIMALS */\n      tag_192\n      swap2\n      swap1\n      tag_86\n      jump\t// in\n    tag_192:\n        /* \"contracts/CMMDPolicy.sol\":5574:5575  3 */\n      0x03\n        /* \"contracts/CMMDPolicy.sol\":5574:5592  3 * (10**DECIMALS) */\n      tag_193\n      swap2\n      swap1\n      tag_147\n      jump\t// in\n    tag_193:\n        /* \"contracts/CMMDPolicy.sol\":5544:5564  rebaseFunctionGrowth */\n      0x08\n        /* \"contracts/CMMDPolicy.sol\":5544:5593  rebaseFunctionGrowth = int256(3 * (10**DECIMALS)) */\n      dup2\n      swap1\n      sstore\n      pop\n        /* \"contracts/CMMDPolicy.sol\":5664:5665  2 */\n      0x02\n        /* \"contracts/CMMDPolicy.sol\":1648:1650  18 */\n      0x12\n        /* \"contracts/CMMDPolicy.sol\":5653:5665  DECIMALS - 2 */\n      tag_194\n      swap2\n      swap1\n      tag_173\n      jump\t// in\n    tag_194:\n        /* \"contracts/CMMDPolicy.sol\":5648:5650  10 */\n      0x0a\n        /* \"contracts/CMMDPolicy.sol\":5648:5666  10**(DECIMALS - 2) */\n      tag_195\n      swap2\n      swap1\n      tag_86\n      jump\t// in\n    tag_195:\n        /* \"contracts/CMMDPolicy.sol\":5642:5644  10 */\n      0x0a\n        /* \"contracts/CMMDPolicy.sol\":5642:5667  10 * (10**(DECIMALS - 2)) */\n      tag_196\n      swap2\n      swap1\n      tag_147\n      jump\t// in\n    tag_196:\n        /* \"contracts/CMMDPolicy.sol\":5603:5632  rebaseFunctionUpperPercentage */\n      0x07\n        /* \"contracts/CMMDPolicy.sol\":5603:5668  rebaseFunctionUpperPercentage = int256(10 * (10**(DECIMALS - 2))) */\n      dup2\n      swap1\n      sstore\n      pop\n        /* \"contracts/CMMDPolicy.sol\":5755:5756  2 */\n      0x02\n        /* \"contracts/CMMDPolicy.sol\":1648:1650  18 */\n      0x12\n        /* \"contracts/CMMDPolicy.sol\":5744:5756  DECIMALS - 2 */\n      tag_197\n      swap2\n      swap1\n      tag_173\n      jump\t// in\n    tag_197:\n        /* \"contracts/CMMDPolicy.sol\":5739:5741  10 */\n      0x0a\n        /* \"contracts/CMMDPolicy.sol\":5739:5757  10**(DECIMALS - 2) */\n      tag_198\n      swap2\n      swap1\n      tag_86\n      jump\t// in\n    tag_198:\n        /* \"contracts/CMMDPolicy.sol\":5725:5728  -10 */\n      0xfffffffffffffffffffffffffffffffffffffffffffffffffffffffffffffff6\n        /* \"contracts/CMMDPolicy.sol\":5724:5758  (-10) * int256(10**(DECIMALS - 2)) */\n      tag_199\n      swap2\n      swap1\n      tag_200\n      jump\t// in\n    tag_199:\n        /* \"contracts/CMMDPolicy.sol\":5685:5714  rebaseFunctionLowerPercentage */\n      0x06\n        /* \"contracts/CMMDPolicy.sol\":5685:5759  rebaseFunctionLowerPercentage = int256((-10) * int256(10**(DECIMALS - 2))) */\n      dup2\n      swap1\n      sstore\n      pop\n        /* \"contracts/CMMDPolicy.sol\":5786:5787  0 */\n      0x00\n        /* \"contracts/CMMDPolicy.sol\":5778:5783  epoch */\n      0x05\n        /* \"contracts/CMMDPolicy.sol\":5778:5787  epoch = 0 */\n      dup2\n      swap1\n      sstore\n      pop\n        /* \"contracts/CMMDPolicy.sol\":5805:5810  cmmd_ */\n      dup2\n        /* \"contracts/CMMDPolicy.sol\":5798:5802  cmmd */\n      0x00\n      dup1\n        /* \"contracts/CMMDPolicy.sol\":5798:5810  cmmd = cmmd_ */\n      0x0100\n      exp\n      dup2\n      sload\n      dup2\n      0xffffffffffffffffffffffffffffffffffffffff\n      mul\n      not\n      and\n      swap1\n      dup4\n      0xffffffffffffffffffffffffffffffffffffffff\n      and\n      mul\n      or\n      swap1\n      sstore\n      pop\n        /* \"contracts/CMMDPolicy.sol\":5830:5838  baseCpi_ */\n      dup1\n        /* \"contracts/CMMDPolicy.sol\":5820:5827  baseCpi */\n      0x03\n        /* \"contracts/CMMDPolicy.sol\":5820:5838  baseCpi = baseCpi_ */\n      dup2\n      swap1\n      sstore\n      pop\n        /* \"contracts/CMMDPolicy.sol\":5352:5845  function initialize(... */\n      pop\n      pop\n      jump\t// out\n        /* \"contracts/CMMDPolicy.sol\":1494:1527  uint256 public deviationThreshold */\n    tag_75:\n      sload(0x04)\n      dup2\n      jump\t// out\n        /* \"contracts/CMMDPolicy.sol\":4168:4401  function setRebaseFunctionLowerPercentage(int256 rebaseFunctionLowerPercentage_)... */\n    tag_79:\n        /* \"contracts/CMMDPolicy.sol\":4320:4321  0 */\n      0x00\n        /* \"contracts/CMMDPolicy.sol\":4286:4316  rebaseFunctionLowerPercentage_ */\n      dup2\n        /* \"contracts/CMMDPolicy.sol\":4286:4321  rebaseFunctionLowerPercentage_ <= 0 */\n      sgt\n      iszero\n        /* \"contracts/CMMDPolicy.sol\":4278:4322  require(rebaseFunctionLowerPercentage_ <= 0) */\n      tag_202\n      jumpi\n      0x00\n      dup1\n      revert\n    tag_202:\n        /* \"contracts/CMMDPolicy.sol\":4364:4394  rebaseFunctionLowerPercentage_ */\n      dup1\n        /* \"contracts/CMMDPolicy.sol\":4332:4361  rebaseFunctionLowerPercentage */\n      0x06\n        /* \"contracts/CMMDPolicy.sol\":4332:4394  rebaseFunctionLowerPercentage = rebaseFunctionLowerPercentage_ */\n      dup2\n      swap1\n      sstore\n      pop\n        /* \"contracts/CMMDPolicy.sol\":4168:4401  function setRebaseFunctionLowerPercentage(int256 rebaseFunctionLowerPercentage_)... */\n      pop\n      jump\t// out\n        /* \"contracts/CMMDPolicy.sol\":4407:4640  function setRebaseFunctionUpperPercentage(int256 rebaseFunctionUpperPercentage_)... */\n    tag_82:\n        /* \"contracts/CMMDPolicy.sol\":4559:4560  0 */\n      0x00\n        /* \"contracts/CMMDPolicy.sol\":4525:4555  rebaseFunctionUpperPercentage_ */\n      dup2\n        /* \"contracts/CMMDPolicy.sol\":4525:4560  rebaseFunctionUpperPercentage_ >= 0 */\n      slt\n      iszero\n        /* \"contracts/CMMDPolicy.sol\":4517:4561  require(rebaseFunctionUpperPercentage_ >= 0) */\n      tag_204\n      jumpi\n      0x00\n      dup1\n      revert\n    tag_204:\n        /* \"contracts/CMMDPolicy.sol\":4603:4633  rebaseFunctionUpperPercentage_ */\n      dup1\n        /* \"contracts/CMMDPolicy.sol\":4571:4600  rebaseFunctionUpperPercentage */\n      0x07\n        /* \"contracts/CMMDPolicy.sol\":4571:4633  rebaseFunctionUpperPercentage = rebaseFunctionUpperPercentage_ */\n      dup2\n      swap1\n      sstore\n      pop\n        /* \"contracts/CMMDPolicy.sol\":4407:4640  function setRebaseFunctionUpperPercentage(int256 rebaseFunctionUpperPercentage_)... */\n      pop\n      jump\t// out\n        /* \"contracts/SafeMathInt.sol\":2230:2402  function sub(int256 a, int256 b) internal pure returns (int256) {... */\n    tag_87:\n        /* \"contracts/SafeMathInt.sol\":2286:2292  int256 */\n      0x00\n        /* \"contracts/SafeMathInt.sol\":2304:2312  int256 c */\n      dup1\n        /* \"contracts/SafeMathInt.sol\":2319:2320  b */\n      dup3\n        /* \"contracts/SafeMathInt.sol\":2315:2316  a */\n      dup5\n        /* \"contracts/SafeMathInt.sol\":2315:2320  a - b */\n      tag_206\n      swap2\n      swap1\n      tag_207\n      jump\t// in\n    tag_206:\n        /* \"contracts/SafeMathInt.sol\":2304:2320  int256 c = a - b */\n      swap1\n      pop\n        /* \"contracts/SafeMathInt.sol\":2344:2345  0 */\n      0x00\n        /* \"contracts/SafeMathInt.sol\":2339:2340  b */\n      dup4\n        /* \"contracts/SafeMathInt.sol\":2339:2345  b >= 0 */\n      slt\n      iszero\n        /* \"contracts/SafeMathInt.sol\":2339:2355  b >= 0 && c <= a */\n      dup1\n      iszero\n      tag_208\n      jumpi\n      pop\n        /* \"contracts/SafeMathInt.sol\":2354:2355  a */\n      dup4\n        /* \"contracts/SafeMathInt.sol\":2349:2350  c */\n      dup2\n        /* \"contracts/SafeMathInt.sol\":2349:2355  c <= a */\n      sgt\n      iszero\n        /* \"contracts/SafeMathInt.sol\":2339:2355  b >= 0 && c <= a */\n    tag_208:\n        /* \"contracts/SafeMathInt.sol\":2338:2376  (b >= 0 && c <= a) || (b < 0 && c > a) */\n      dup1\n      tag_209\n      jumpi\n      pop\n        /* \"contracts/SafeMathInt.sol\":2365:2366  0 */\n      0x00\n        /* \"contracts/SafeMathInt.sol\":2361:2362  b */\n      dup4\n        /* \"contracts/SafeMathInt.sol\":2361:2366  b < 0 */\n      slt\n        /* \"contracts/SafeMathInt.sol\":2361:2375  b < 0 && c > a */\n      dup1\n      iszero\n      tag_210\n      jumpi\n      pop\n        /* \"contracts/SafeMathInt.sol\":2374:2375  a */\n      dup4\n        /* \"contracts/SafeMathInt.sol\":2370:2371  c */\n      dup2\n        /* \"contracts/SafeMathInt.sol\":2370:2375  c > a */\n      sgt\n        /* \"contracts/SafeMathInt.sol\":2361:2375  b < 0 && c > a */\n    tag_210:\n        /* \"contracts/SafeMathInt.sol\":2338:2376  (b >= 0 && c <= a) || (b < 0 && c > a) */\n    tag_209:\n        /* \"contracts/SafeMathInt.sol\":2330:2377  require((b >= 0 && c <= a) || (b < 0 && c > a)) */\n      tag_211\n      jumpi\n      0x00\n      dup1\n      revert\n    tag_211:\n        /* \"contracts/SafeMathInt.sol\":2394:2395  c */\n      dup1\n        /* \"contracts/SafeMathInt.sol\":2387:2395  return c */\n      swap2\n      pop\n      pop\n        /* \"contracts/SafeMathInt.sol\":2230:2402  function sub(int256 a, int256 b) internal pure returns (int256) {... */\n      swap3\n      swap2\n      pop\n      pop\n      jump\t// out\n        /* \"contracts/SafeMathInt.sol\":1503:1799  function mul(int256 a, int256 b) internal pure returns (int256) {... */\n    tag_90:\n        /* \"contracts/SafeMathInt.sol\":1559:1565  int256 */\n      0x00\n        /* \"contracts/SafeMathInt.sol\":1577:1585  int256 c */\n      dup1\n        /* \"contracts/SafeMathInt.sol\":1592:1593  b */\n      dup3\n        /* \"contracts/SafeMathInt.sol\":1588:1589  a */\n      dup5\n        /* \"contracts/SafeMathInt.sol\":1588:1593  a * b */\n      tag_213\n      swap2\n      swap1\n      tag_200\n      jump\t// in\n    tag_213:\n        /* \"contracts/SafeMathInt.sol\":1577:1593  int256 c = a * b */\n      swap1\n      pop\n        /* \"contracts/SafeMathInt.sol\":1348:1351  255 */\n      0xff\n        /* \"contracts/SafeMathInt.sol\":1342:1343  1 */\n      0x01\n        /* \"contracts/SafeMathInt.sol\":1335:1351  int256(1) << 255 */\n      swap1\n      shl\n        /* \"contracts/SafeMathInt.sol\":1675:1676  c */\n      dup2\n        /* \"contracts/SafeMathInt.sol\":1675:1690  c != MIN_INT256 */\n      eq\n      iszero\n        /* \"contracts/SafeMathInt.sol\":1675:1730  c != MIN_INT256 || (a & MIN_INT256) != (b & MIN_INT256) */\n      dup1\n      tag_214\n      jumpi\n      pop\n        /* \"contracts/SafeMathInt.sol\":1348:1351  255 */\n      0xff\n        /* \"contracts/SafeMathInt.sol\":1342:1343  1 */\n      0x01\n        /* \"contracts/SafeMathInt.sol\":1335:1351  int256(1) << 255 */\n      swap1\n      shl\n        /* \"contracts/SafeMathInt.sol\":1715:1716  b */\n      dup4\n        /* \"contracts/SafeMathInt.sol\":1715:1729  b & MIN_INT256 */\n      and\n        /* \"contracts/SafeMathInt.sol\":1348:1351  255 */\n      0xff\n        /* \"contracts/SafeMathInt.sol\":1342:1343  1 */\n      0x01\n        /* \"contracts/SafeMathInt.sol\":1335:1351  int256(1) << 255 */\n      swap1\n      shl\n        /* \"contracts/SafeMathInt.sol\":1695:1696  a */\n      dup6\n        /* \"contracts/SafeMathInt.sol\":1695:1709  a & MIN_INT256 */\n      and\n        /* \"contracts/SafeMathInt.sol\":1694:1730  (a & MIN_INT256) != (b & MIN_INT256) */\n      eq\n      iszero\n        /* \"contracts/SafeMathInt.sol\":1675:1730  c != MIN_INT256 || (a & MIN_INT256) != (b & MIN_INT256) */\n    tag_214:\n        /* \"contracts/SafeMathInt.sol\":1667:1731  require(c != MIN_INT256 || (a & MIN_INT256) != (b & MIN_INT256)) */\n      tag_215\n      jumpi\n      0x00\n      dup1\n      revert\n    tag_215:\n        /* \"contracts/SafeMathInt.sol\":1755:1756  0 */\n      0x00\n        /* \"contracts/SafeMathInt.sol\":1750:1751  b */\n      dup4\n        /* \"contracts/SafeMathInt.sol\":1750:1756  b == 0 */\n      eq\n        /* \"contracts/SafeMathInt.sol\":1749:1773  (b == 0) || (c / b == a) */\n      dup1\n      tag_216\n      jumpi\n      pop\n        /* \"contracts/SafeMathInt.sol\":1771:1772  a */\n      dup4\n        /* \"contracts/SafeMathInt.sol\":1766:1767  b */\n      dup4\n        /* \"contracts/SafeMathInt.sol\":1762:1763  c */\n      dup3\n        /* \"contracts/SafeMathInt.sol\":1762:1767  c / b */\n      tag_217\n      swap2\n      swap1\n      tag_218\n      jump\t// in\n    tag_217:\n        /* \"contracts/SafeMathInt.sol\":1762:1772  c / b == a */\n      eq\n        /* \"contracts/SafeMathInt.sol\":1749:1773  (b == 0) || (c / b == a) */\n    tag_216:\n        /* \"contracts/SafeMathInt.sol\":1741:1774  require((b == 0) || (c / b == a)) */\n      tag_219\n      jumpi\n      0x00\n      dup1\n      revert\n    tag_219:\n        /* \"contracts/SafeMathInt.sol\":1791:1792  c */\n      dup1\n        /* \"contracts/SafeMathInt.sol\":1784:1792  return c */\n      swap2\n      pop\n      pop\n        /* \"contracts/SafeMathInt.sol\":1503:1799  function mul(int256 a, int256 b) internal pure returns (int256) {... */\n      swap3\n      swap2\n      pop\n      pop\n      jump\t// out\n        /* \"contracts/SafeMathInt.sol\":1889:2142  function div(int256 a, int256 b) internal pure returns (int256) {... */\n    tag_92:\n        /* \"contracts/SafeMathInt.sol\":1945:1951  int256 */\n      0x00\n        /* \"contracts/SafeMathInt.sol\":2035:2037  -1 */\n      0xffffffffffffffffffffffffffffffffffffffffffffffffffffffffffffffff\n        /* \"contracts/SafeMathInt.sol\":2030:2031  b */\n      dup3\n        /* \"contracts/SafeMathInt.sol\":2030:2037  b != -1 */\n      eq\n      iszero\n        /* \"contracts/SafeMathInt.sol\":2030:2056  b != -1 || a != MIN_INT256 */\n      dup1\n      tag_221\n      jumpi\n      pop\n        /* \"contracts/SafeMathInt.sol\":1348:1351  255 */\n      0xff\n        /* \"contracts/SafeMathInt.sol\":1342:1343  1 */\n      0x01\n        /* \"contracts/SafeMathInt.sol\":1335:1351  int256(1) << 255 */\n      swap1\n      shl\n        /* \"contracts/SafeMathInt.sol\":2041:2042  a */\n      dup4\n        /* \"contracts/SafeMathInt.sol\":2041:2056  a != MIN_INT256 */\n      eq\n      iszero\n        /* \"contracts/SafeMathInt.sol\":2030:2056  b != -1 || a != MIN_INT256 */\n    tag_221:\n        /* \"contracts/SafeMathInt.sol\":2022:2057  require(b != -1 || a != MIN_INT256) */\n      tag_222\n      jumpi\n      0x00\n      dup1\n      revert\n    tag_222:\n        /* \"contracts/SafeMathInt.sol\":2134:2135  b */\n      dup2\n        /* \"contracts/SafeMathInt.sol\":2130:2131  a */\n      dup4\n        /* \"contracts/SafeMathInt.sol\":2130:2135  a / b */\n      tag_223\n      swap2\n      swap1\n      tag_218\n      jump\t// in\n    tag_223:\n        /* \"contracts/SafeMathInt.sol\":2123:2135  return a / b */\n      swap1\n      pop\n        /* \"contracts/SafeMathInt.sol\":1889:2142  function div(int256 a, int256 b) internal pure returns (int256) {... */\n      swap3\n      swap2\n      pop\n      pop\n      jump\t// out\n        /* \"contracts/SafeMathInt.sol\":3202:4339  function twoPower(int256 exp, int256 one) internal pure returns (int256) {... */\n    tag_105:\n        /* \"contracts/SafeMathInt.sol\":3267:3273  int256 */\n      0x00\n        /* \"contracts/SafeMathInt.sol\":3285:3300  bool reciprocal */\n      dup1\n        /* \"contracts/SafeMathInt.sol\":3303:3308  false */\n      0x00\n        /* \"contracts/SafeMathInt.sol\":3285:3308  bool reciprocal = false */\n      swap1\n      pop\n        /* \"contracts/SafeMathInt.sol\":3328:3329  0 */\n      0x00\n        /* \"contracts/SafeMathInt.sol\":3322:3325  exp */\n      dup5\n        /* \"contracts/SafeMathInt.sol\":3322:3329  exp < 0 */\n      slt\n        /* \"contracts/SafeMathInt.sol\":3318:3401  if (exp < 0) {... */\n      iszero\n      tag_225\n      jumpi\n        /* \"contracts/SafeMathInt.sol\":3358:3362  true */\n      0x01\n        /* \"contracts/SafeMathInt.sol\":3345:3362  reciprocal = true */\n      swap1\n      pop\n        /* \"contracts/SafeMathInt.sol\":3382:3390  abs(exp) */\n      tag_226\n        /* \"contracts/SafeMathInt.sol\":3386:3389  exp */\n      dup5\n        /* \"contracts/SafeMathInt.sol\":3382:3385  abs */\n      tag_227\n        /* \"contracts/SafeMathInt.sol\":3382:3390  abs(exp) */\n      jump\t// in\n    tag_226:\n        /* \"contracts/SafeMathInt.sol\":3376:3390  exp = abs(exp) */\n      swap4\n      pop\n        /* \"contracts/SafeMathInt.sol\":3318:3401  if (exp < 0) {... */\n    tag_225:\n        /* \"contracts/SafeMathInt.sol\":3490:3509  int256[5] memory ks */\n      0x00\n        /* \"contracts/SafeMathInt.sol\":3490:3695  int256[5] memory ks = [... */\n      mload(0x40)\n      dup1\n      0xa0\n      add\n      0x40\n      mstore\n      dup1\n        /* \"contracts/SafeMathInt.sol\":3533:3552  1414213562373095049 */\n      0x13a04bbdfdc9be89\n        /* \"contracts/SafeMathInt.sol\":3490:3695  int256[5] memory ks = [... */\n      dup2\n      mstore\n      0x20\n      add\n        /* \"contracts/SafeMathInt.sol\":3567:3586  1189207115002721067 */\n      0x1080e992061ab32b\n        /* \"contracts/SafeMathInt.sol\":3490:3695  int256[5] memory ks = [... */\n      dup2\n      mstore\n      0x20\n      add\n        /* \"contracts/SafeMathInt.sol\":3600:3619  1090507732665257659 */\n      0x0f2243014e544ebb\n        /* \"contracts/SafeMathInt.sol\":3490:3695  int256[5] memory ks = [... */\n      dup2\n      mstore\n      0x20\n      add\n        /* \"contracts/SafeMathInt.sol\":3633:3652  1044273782427413840 */\n      0x0e7e0178e9d6ed50\n        /* \"contracts/SafeMathInt.sol\":3490:3695  int256[5] memory ks = [... */\n      dup2\n      mstore\n      0x20\n      add\n        /* \"contracts/SafeMathInt.sol\":3666:3685  1021897148654116678 */\n      0x0e2e820ade835f46\n        /* \"contracts/SafeMathInt.sol\":3490:3695  int256[5] memory ks = [... */\n      dup2\n      mstore\n      pop\n      swap1\n      pop\n        /* \"contracts/SafeMathInt.sol\":3705:3717  int256 whole */\n      0x00\n        /* \"contracts/SafeMathInt.sol\":3720:3733  div(exp, one) */\n      tag_228\n        /* \"contracts/SafeMathInt.sol\":3724:3727  exp */\n      dup7\n        /* \"contracts/SafeMathInt.sol\":3729:3732  one */\n      dup7\n        /* \"contracts/SafeMathInt.sol\":3720:3723  div */\n      tag_92\n        /* \"contracts/SafeMathInt.sol\":3720:3733  div(exp, one) */\n      jump\t// in\n    tag_228:\n        /* \"contracts/SafeMathInt.sol\":3705:3733  int256 whole = div(exp, one) */\n      swap1\n      pop\n        /* \"contracts/SafeMathInt.sol\":3760:3763  100 */\n      0x64\n        /* \"contracts/SafeMathInt.sol\":3751:3756  whole */\n      dup2\n        /* \"contracts/SafeMathInt.sol\":3751:3763  whole <= 100 */\n      sgt\n      iszero\n        /* \"contracts/SafeMathInt.sol\":3743:3764  require(whole <= 100) */\n      tag_229\n      jumpi\n      0x00\n      dup1\n      revert\n    tag_229:\n        /* \"contracts/SafeMathInt.sol\":3774:3787  int256 result */\n      0x00\n        /* \"contracts/SafeMathInt.sol\":3790:3836  mul(int256(uint256(1) << uint256(whole)), one) */\n      tag_230\n        /* \"contracts/SafeMathInt.sol\":3823:3828  whole */\n      dup3\n        /* \"contracts/SafeMathInt.sol\":3809:3810  1 */\n      0x01\n        /* \"contracts/SafeMathInt.sol\":3801:3829  uint256(1) << uint256(whole) */\n      swap1\n      shl\n        /* \"contracts/SafeMathInt.sol\":3832:3835  one */\n      dup8\n        /* \"contracts/SafeMathInt.sol\":3790:3793  mul */\n      tag_90\n        /* \"contracts/SafeMathInt.sol\":3790:3836  mul(int256(uint256(1) << uint256(whole)), one) */\n      jump\t// in\n    tag_230:\n        /* \"contracts/SafeMathInt.sol\":3774:3836  int256 result = mul(int256(uint256(1) << uint256(whole)), one) */\n      swap1\n      pop\n        /* \"contracts/SafeMathInt.sol\":3846:3862  int256 remaining */\n      0x00\n        /* \"contracts/SafeMathInt.sol\":3865:3890  sub(exp, mul(whole, one)) */\n      tag_231\n        /* \"contracts/SafeMathInt.sol\":3869:3872  exp */\n      dup9\n        /* \"contracts/SafeMathInt.sol\":3874:3889  mul(whole, one) */\n      tag_232\n        /* \"contracts/SafeMathInt.sol\":3878:3883  whole */\n      dup6\n        /* \"contracts/SafeMathInt.sol\":3885:3888  one */\n      dup11\n        /* \"contracts/SafeMathInt.sol\":3874:3877  mul */\n      tag_90\n        /* \"contracts/SafeMathInt.sol\":3874:3889  mul(whole, one) */\n      jump\t// in\n    tag_232:\n        /* \"contracts/SafeMathInt.sol\":3865:3868  sub */\n      tag_87\n        /* \"contracts/SafeMathInt.sol\":3865:3890  sub(exp, mul(whole, one)) */\n      jump\t// in\n    tag_231:\n        /* \"contracts/SafeMathInt.sol\":3846:3890  int256 remaining = sub(exp, mul(whole, one)) */\n      swap1\n      pop\n        /* \"contracts/SafeMathInt.sol\":3901:3915  int256 current */\n      0x00\n        /* \"contracts/SafeMathInt.sol\":3918:3929  div(one, 2) */\n      tag_233\n        /* \"contracts/SafeMathInt.sol\":3922:3925  one */\n      dup9\n        /* \"contracts/SafeMathInt.sol\":3927:3928  2 */\n      0x02\n        /* \"contracts/SafeMathInt.sol\":3918:3921  div */\n      tag_92\n        /* \"contracts/SafeMathInt.sol\":3918:3929  div(one, 2) */\n      jump\t// in\n    tag_233:\n        /* \"contracts/SafeMathInt.sol\":3901:3929  int256 current = div(one, 2) */\n      swap1\n      pop\n        /* \"contracts/SafeMathInt.sol\":3944:3953  uint256 i */\n      0x00\n        /* \"contracts/SafeMathInt.sol\":3939:4225  for (uint256 i = 0; i < 5; i++) {... */\n    tag_234:\n        /* \"contracts/SafeMathInt.sol\":3963:3964  5 */\n      0x05\n        /* \"contracts/SafeMathInt.sol\":3959:3960  i */\n      dup2\n        /* \"contracts/SafeMathInt.sol\":3959:3964  i < 5 */\n      lt\n        /* \"contracts/SafeMathInt.sol\":3939:4225  for (uint256 i = 0; i < 5; i++) {... */\n      iszero\n      tag_235\n      jumpi\n        /* \"contracts/SafeMathInt.sol\":4002:4009  current */\n      dup2\n        /* \"contracts/SafeMathInt.sol\":3989:3998  remaining */\n      dup4\n        /* \"contracts/SafeMathInt.sol\":3989:4009  remaining >= current */\n      slt\n        /* \"contracts/SafeMathInt.sol\":3985:4176  if (remaining >= current) {... */\n      tag_237\n      jumpi\n        /* \"contracts/SafeMathInt.sol\":4041:4064  sub(remaining, current) */\n      tag_238\n        /* \"contracts/SafeMathInt.sol\":4045:4054  remaining */\n      dup4\n        /* \"contracts/SafeMathInt.sol\":4056:4063  current */\n      dup4\n        /* \"contracts/SafeMathInt.sol\":4041:4044  sub */\n      tag_87\n        /* \"contracts/SafeMathInt.sol\":4041:4064  sub(remaining, current) */\n      jump\t// in\n    tag_238:\n        /* \"contracts/SafeMathInt.sol\":4029:4064  remaining = sub(remaining, current) */\n      swap3\n      pop\n        /* \"contracts/SafeMathInt.sol\":4091:4122  div(mul(result, ks[i]), 10**18) */\n      tag_239\n        /* \"contracts/SafeMathInt.sol\":4095:4113  mul(result, ks[i]) */\n      tag_240\n        /* \"contracts/SafeMathInt.sol\":4099:4105  result */\n      dup6\n        /* \"contracts/SafeMathInt.sol\":4107:4109  ks */\n      dup9\n        /* \"contracts/SafeMathInt.sol\":4110:4111  i */\n      dup5\n        /* \"contracts/SafeMathInt.sol\":4107:4112  ks[i] */\n      0x05\n      dup2\n      lt\n      tag_241\n      jumpi\n      tag_242\n      tag_243\n      jump\t// in\n    tag_242:\n    tag_241:\n      0x20\n      mul\n      add\n      mload\n        /* \"contracts/SafeMathInt.sol\":4095:4098  mul */\n      tag_90\n        /* \"contracts/SafeMathInt.sol\":4095:4113  mul(result, ks[i]) */\n      jump\t// in\n    tag_240:\n        /* \"contracts/SafeMathInt.sol\":4115:4121  10**18 */\n      0x0de0b6b3a7640000\n        /* \"contracts/SafeMathInt.sol\":4091:4094  div */\n      tag_92\n        /* \"contracts/SafeMathInt.sol\":4091:4122  div(mul(result, ks[i]), 10**18) */\n      jump\t// in\n    tag_239:\n        /* \"contracts/SafeMathInt.sol\":4082:4122  result = div(mul(result, ks[i]), 10**18) */\n      swap4\n      pop\n        /* \"contracts/SafeMathInt.sol\":3985:4176  if (remaining >= current) {... */\n    tag_237:\n        /* \"contracts/SafeMathInt.sol\":4199:4214  div(current, 2) */\n      tag_244\n        /* \"contracts/SafeMathInt.sol\":4203:4210  current */\n      dup3\n        /* \"contracts/SafeMathInt.sol\":4212:4213  2 */\n      0x02\n        /* \"contracts/SafeMathInt.sol\":4199:4202  div */\n      tag_92\n        /* \"contracts/SafeMathInt.sol\":4199:4214  div(current, 2) */\n      jump\t// in\n    tag_244:\n        /* \"contracts/SafeMathInt.sol\":4189:4214  current = div(current, 2) */\n      swap2\n      pop\n        /* \"contracts/SafeMathInt.sol\":3966:3969  i++ */\n      dup1\n      dup1\n      tag_245\n      swap1\n      tag_246\n      jump\t// in\n    tag_245:\n      swap2\n      pop\n      pop\n        /* \"contracts/SafeMathInt.sol\":3939:4225  for (uint256 i = 0; i < 5; i++) {... */\n      jump(tag_234)\n    tag_235:\n      pop\n        /* \"contracts/SafeMathInt.sol\":4238:4248  reciprocal */\n      dup6\n        /* \"contracts/SafeMathInt.sol\":4234:4310  if (reciprocal) {... */\n      iszero\n      tag_247\n      jumpi\n        /* \"contracts/SafeMathInt.sol\":4273:4299  div(mul(one, one), result) */\n      tag_248\n        /* \"contracts/SafeMathInt.sol\":4277:4290  mul(one, one) */\n      tag_249\n        /* \"contracts/SafeMathInt.sol\":4281:4284  one */\n      dup10\n        /* \"contracts/SafeMathInt.sol\":4286:4289  one */\n      dup11\n        /* \"contracts/SafeMathInt.sol\":4277:4280  mul */\n      tag_90\n        /* \"contracts/SafeMathInt.sol\":4277:4290  mul(one, one) */\n      jump\t// in\n    tag_249:\n        /* \"contracts/SafeMathInt.sol\":4292:4298  result */\n      dup5\n        /* \"contracts/SafeMathInt.sol\":4273:4276  div */\n      tag_92\n        /* \"contracts/SafeMathInt.sol\":4273:4299  div(mul(one, one), result) */\n      jump\t// in\n    tag_248:\n        /* \"contracts/SafeMathInt.sol\":4264:4299  result = div(mul(one, one), result) */\n      swap3\n      pop\n        /* \"contracts/SafeMathInt.sol\":4234:4310  if (reciprocal) {... */\n    tag_247:\n        /* \"contracts/SafeMathInt.sol\":4326:4332  result */\n      dup3\n        /* \"contracts/SafeMathInt.sol\":4319:4332  return result */\n      swap7\n      pop\n      pop\n      pop\n      pop\n      pop\n      pop\n      pop\n        /* \"contracts/SafeMathInt.sol\":3202:4339  function twoPower(int256 exp, int256 one) internal pure returns (int256) {... */\n      swap3\n      swap2\n      pop\n      pop\n      jump\t// out\n        /* \"contracts/SafeMath.sol\":211:632  function mul(uint256 a, uint256 b) internal pure returns (uint256) {... */\n    tag_138:\n        /* \"contracts/SafeMath.sol\":269:276  uint256 */\n      0x00\n        /* \"contracts/SafeMath.sol\":514:515  0 */\n      dup1\n        /* \"contracts/SafeMath.sol\":509:510  a */\n      dup4\n        /* \"contracts/SafeMath.sol\":509:515  a == 0 */\n      eq\n        /* \"contracts/SafeMath.sol\":505:550  if (a == 0) {... */\n      iszero\n      tag_251\n      jumpi\n        /* \"contracts/SafeMath.sol\":538:539  0 */\n      0x00\n        /* \"contracts/SafeMath.sol\":531:539  return 0 */\n      swap1\n      pop\n      jump(tag_250)\n        /* \"contracts/SafeMath.sol\":505:550  if (a == 0) {... */\n    tag_251:\n        /* \"contracts/SafeMath.sol\":560:569  uint256 c */\n      0x00\n        /* \"contracts/SafeMath.sol\":576:577  b */\n      dup3\n        /* \"contracts/SafeMath.sol\":572:573  a */\n      dup5\n        /* \"contracts/SafeMath.sol\":572:577  a * b */\n      tag_252\n      swap2\n      swap1\n      tag_147\n      jump\t// in\n    tag_252:\n        /* \"contracts/SafeMath.sol\":560:577  uint256 c = a * b */\n      swap1\n      pop\n        /* \"contracts/SafeMath.sol\":604:605  b */\n      dup3\n        /* \"contracts/SafeMath.sol\":599:600  a */\n      dup5\n        /* \"contracts/SafeMath.sol\":595:596  c */\n      dup3\n        /* \"contracts/SafeMath.sol\":595:600  c / a */\n      tag_253\n      swap2\n      swap1\n      tag_157\n      jump\t// in\n    tag_253:\n        /* \"contracts/SafeMath.sol\":595:605  c / a == b */\n      eq\n        /* \"contracts/SafeMath.sol\":587:606  require(c / a == b) */\n      tag_254\n      jumpi\n      0x00\n      dup1\n      revert\n    tag_254:\n        /* \"contracts/SafeMath.sol\":624:625  c */\n      dup1\n        /* \"contracts/SafeMath.sol\":617:625  return c */\n      swap2\n      pop\n      pop\n        /* \"contracts/SafeMath.sol\":211:632  function mul(uint256 a, uint256 b) internal pure returns (uint256) {... */\n    tag_250:\n      swap3\n      swap2\n      pop\n      pop\n      jump\t// out\n        /* \"contracts/SafeMath.sol\":752:1040  function div(uint256 a, uint256 b) internal pure returns (uint256) {... */\n    tag_139:\n        /* \"contracts/SafeMath.sol\":810:817  uint256 */\n      0x00\n        /* \"contracts/SafeMath.sol\":841:842  0 */\n      dup1\n        /* \"contracts/SafeMath.sol\":837:838  b */\n      dup3\n        /* \"contracts/SafeMath.sol\":837:842  b > 0 */\n      gt\n        /* \"contracts/SafeMath.sol\":829:843  require(b > 0) */\n      tag_256\n      jumpi\n      0x00\n      dup1\n      revert\n    tag_256:\n        /* \"contracts/SafeMath.sol\":911:920  uint256 c */\n      0x00\n        /* \"contracts/SafeMath.sol\":927:928  b */\n      dup3\n        /* \"contracts/SafeMath.sol\":923:924  a */\n      dup5\n        /* \"contracts/SafeMath.sol\":923:928  a / b */\n      tag_257\n      swap2\n      swap1\n      tag_157\n      jump\t// in\n    tag_257:\n        /* \"contracts/SafeMath.sol\":911:928  uint256 c = a / b */\n      swap1\n      pop\n        /* \"contracts/SafeMath.sol\":1032:1033  c */\n      dup1\n        /* \"contracts/SafeMath.sol\":1025:1033  return c */\n      swap2\n      pop\n      pop\n        /* \"contracts/SafeMath.sol\":752:1040  function div(uint256 a, uint256 b) internal pure returns (uint256) {... */\n      swap3\n      swap2\n      pop\n      pop\n      jump\t// out\n        /* \"contracts/CMMDPolicy.sol\":7632:8295  function computeSupplyDelta(uint256 rate, uint256 targetRate) internal view returns (int256) {... */\n    tag_152:\n        /* \"contracts/CMMDPolicy.sol\":7717:7723  int256 */\n      0x00\n        /* \"contracts/CMMDPolicy.sol\":7739:7781  withinDeviationThreshold(rate, targetRate) */\n      tag_259\n        /* \"contracts/CMMDPolicy.sol\":7764:7768  rate */\n      dup4\n        /* \"contracts/CMMDPolicy.sol\":7770:7780  targetRate */\n      dup4\n        /* \"contracts/CMMDPolicy.sol\":7739:7763  withinDeviationThreshold */\n      tag_260\n        /* \"contracts/CMMDPolicy.sol\":7739:7781  withinDeviationThreshold(rate, targetRate) */\n      jump\t// in\n    tag_259:\n        /* \"contracts/CMMDPolicy.sol\":7735:7816  if (withinDeviationThreshold(rate, targetRate)) {... */\n      iszero\n      tag_261\n      jumpi\n        /* \"contracts/CMMDPolicy.sol\":7804:7805  0 */\n      0x00\n        /* \"contracts/CMMDPolicy.sol\":7797:7805  return 0 */\n      swap1\n      pop\n      jump(tag_258)\n        /* \"contracts/CMMDPolicy.sol\":7735:7816  if (withinDeviationThreshold(rate, targetRate)) {... */\n    tag_261:\n        /* \"contracts/CMMDPolicy.sol\":7825:7848  int256 targetRateSigned */\n      0x00\n        /* \"contracts/CMMDPolicy.sol\":7858:7868  targetRate */\n      dup3\n        /* \"contracts/CMMDPolicy.sol\":7825:7869  int256 targetRateSigned = int256(targetRate) */\n      swap1\n      pop\n        /* \"contracts/CMMDPolicy.sol\":7879:7900  int256 normalizedRate */\n      0x00\n        /* \"contracts/CMMDPolicy.sol\":7903:7970  SafeMathInt.div(SafeMathInt.mul(int256(rate),ONE),targetRateSigned) */\n      tag_262\n        /* \"contracts/CMMDPolicy.sol\":7919:7952  SafeMathInt.mul(int256(rate),ONE) */\n      tag_263\n        /* \"contracts/CMMDPolicy.sol\":7942:7946  rate */\n      dup7\n        /* \"contracts/CMMDPolicy.sol\":1648:1650  18 */\n      0x12\n        /* \"contracts/CMMDPolicy.sol\":2302:2304  10 */\n      0x0a\n        /* \"contracts/CMMDPolicy.sol\":2302:2314  10**DECIMALS */\n      tag_264\n      swap2\n      swap1\n      tag_86\n      jump\t// in\n    tag_264:\n        /* \"contracts/CMMDPolicy.sol\":7919:7934  SafeMathInt.mul */\n      tag_90\n        /* \"contracts/CMMDPolicy.sol\":7919:7952  SafeMathInt.mul(int256(rate),ONE) */\n      jump\t// in\n    tag_263:\n        /* \"contracts/CMMDPolicy.sol\":7953:7969  targetRateSigned */\n      dup4\n        /* \"contracts/CMMDPolicy.sol\":7903:7918  SafeMathInt.div */\n      tag_92\n        /* \"contracts/CMMDPolicy.sol\":7903:7970  SafeMathInt.div(SafeMathInt.mul(int256(rate),ONE),targetRateSigned) */\n      jump\t// in\n    tag_262:\n        /* \"contracts/CMMDPolicy.sol\":7879:7970  int256 normalizedRate = SafeMathInt.div(SafeMathInt.mul(int256(rate),ONE),targetRateSigned) */\n      swap1\n      pop\n        /* \"contracts/CMMDPolicy.sol\":7980:8003  int256 rebasePercentage */\n      0x00\n        /* \"contracts/CMMDPolicy.sol\":8006:8187  computeRebasePercentage(... */\n      tag_265\n        /* \"contracts/CMMDPolicy.sol\":8043:8057  normalizedRate */\n      dup3\n        /* \"contracts/CMMDPolicy.sol\":8071:8100  rebaseFunctionLowerPercentage */\n      sload(0x06)\n        /* \"contracts/CMMDPolicy.sol\":8114:8143  rebaseFunctionUpperPercentage */\n      sload(0x07)\n        /* \"contracts/CMMDPolicy.sol\":8157:8177  rebaseFunctionGrowth */\n      sload(0x08)\n        /* \"contracts/CMMDPolicy.sol\":8006:8029  computeRebasePercentage */\n      tag_26\n        /* \"contracts/CMMDPolicy.sol\":8006:8187  computeRebasePercentage(... */\n      jump\t// in\n    tag_265:\n        /* \"contracts/CMMDPolicy.sol\":7980:8187  int256 rebasePercentage = computeRebasePercentage(... */\n      swap1\n      pop\n        /* \"contracts/CMMDPolicy.sol\":8205:8288  SafeMathInt.div(SafeMathInt.mul(int256(cmmd.totalSupply()),rebasePercentage),(ONE)) */\n      tag_266\n        /* \"contracts/CMMDPolicy.sol\":8221:8281  SafeMathInt.mul(int256(cmmd.totalSupply()),rebasePercentage) */\n      tag_267\n        /* \"contracts/CMMDPolicy.sol\":8244:8248  cmmd */\n      0x00\n      dup1\n      sload\n      swap1\n      0x0100\n      exp\n      swap1\n      div\n      0xffffffffffffffffffffffffffffffffffffffff\n      and\n        /* \"contracts/CMMDPolicy.sol\":8244:8260  cmmd.totalSupply */\n      0xffffffffffffffffffffffffffffffffffffffff\n      and\n      0x18160ddd\n        /* \"contracts/CMMDPolicy.sol\":8244:8262  cmmd.totalSupply() */\n      mload(0x40)\n      dup2\n      0xffffffff\n      and\n      0xe0\n      shl\n      dup2\n      mstore\n      0x04\n      add\n      0x20\n      mload(0x40)\n      dup1\n      dup4\n      sub\n      dup2\n      dup7\n      dup1\n      extcodesize\n      iszero\n      dup1\n      iszero\n      tag_268\n      jumpi\n      0x00\n      dup1\n      revert\n    tag_268:\n      pop\n      gas\n      staticcall\n      iszero\n      dup1\n      iszero\n      tag_270\n      jumpi\n      returndatasize\n      0x00\n      dup1\n      returndatacopy\n      revert(0x00, returndatasize)\n    tag_270:\n      pop\n      pop\n      pop\n      pop\n      mload(0x40)\n      returndatasize\n      not(0x1f)\n      0x1f\n      dup3\n      add\n      and\n      dup3\n      add\n      dup1\n      0x40\n      mstore\n      pop\n      dup2\n      add\n      swap1\n      tag_271\n      swap2\n      swap1\n      tag_162\n      jump\t// in\n    tag_271:\n        /* \"contracts/CMMDPolicy.sol\":8264:8280  rebasePercentage */\n      dup4\n        /* \"contracts/CMMDPolicy.sol\":8221:8236  SafeMathInt.mul */\n      tag_90\n        /* \"contracts/CMMDPolicy.sol\":8221:8281  SafeMathInt.mul(int256(cmmd.totalSupply()),rebasePercentage) */\n      jump\t// in\n    tag_267:\n        /* \"contracts/CMMDPolicy.sol\":1648:1650  18 */\n      0x12\n        /* \"contracts/CMMDPolicy.sol\":2302:2304  10 */\n      0x0a\n        /* \"contracts/CMMDPolicy.sol\":2302:2314  10**DECIMALS */\n      tag_272\n      swap2\n      swap1\n      tag_86\n      jump\t// in\n    tag_272:\n        /* \"contracts/CMMDPolicy.sol\":8205:8220  SafeMathInt.div */\n      tag_92\n        /* \"contracts/CMMDPolicy.sol\":8205:8288  SafeMathInt.div(SafeMathInt.mul(int256(cmmd.totalSupply()),rebasePercentage),(ONE)) */\n      jump\t// in\n    tag_266:\n        /* \"contracts/CMMDPolicy.sol\":8198:8288  return SafeMathInt.div(SafeMathInt.mul(int256(cmmd.totalSupply()),rebasePercentage),(ONE)) */\n      swap4\n      pop\n      pop\n      pop\n      pop\n        /* \"contracts/CMMDPolicy.sol\":7632:8295  function computeSupplyDelta(uint256 rate, uint256 targetRate) internal view returns (int256) {... */\n    tag_258:\n      swap3\n      swap2\n      pop\n      pop\n      jump\t// out\n        /* \"contracts/SafeMathInt.sol\":2742:2868  function abs(int256 a) internal pure returns (int256) {... */\n    tag_227:\n        /* \"contracts/SafeMathInt.sol\":2788:2794  int256 */\n      0x00\n        /* \"contracts/SafeMathInt.sol\":1348:1351  255 */\n      0xff\n        /* \"contracts/SafeMathInt.sol\":1342:1343  1 */\n      0x01\n        /* \"contracts/SafeMathInt.sol\":1335:1351  int256(1) << 255 */\n      swap1\n      shl\n        /* \"contracts/SafeMathInt.sol\":2814:2815  a */\n      dup3\n        /* \"contracts/SafeMathInt.sol\":2814:2829  a != MIN_INT256 */\n      eq\n      iszero\n        /* \"contracts/SafeMathInt.sol\":2806:2830  require(a != MIN_INT256) */\n      tag_274\n      jumpi\n      0x00\n      dup1\n      revert\n    tag_274:\n        /* \"contracts/SafeMathInt.sol\":2851:2852  0 */\n      0x00\n        /* \"contracts/SafeMathInt.sol\":2847:2848  a */\n      dup3\n        /* \"contracts/SafeMathInt.sol\":2847:2852  a < 0 */\n      slt\n        /* \"contracts/SafeMathInt.sol\":2847:2861  a < 0 ? -a : a */\n      tag_275\n      jumpi\n        /* \"contracts/SafeMathInt.sol\":2860:2861  a */\n      dup2\n        /* \"contracts/SafeMathInt.sol\":2847:2861  a < 0 ? -a : a */\n      jump(tag_276)\n    tag_275:\n        /* \"contracts/SafeMathInt.sol\":2856:2857  a */\n      dup2\n        /* \"contracts/SafeMathInt.sol\":2855:2857  -a */\n      tag_277\n      swap1\n      tag_278\n      jump\t// in\n    tag_277:\n        /* \"contracts/SafeMathInt.sol\":2847:2861  a < 0 ? -a : a */\n    tag_276:\n        /* \"contracts/SafeMathInt.sol\":2840:2861  return a < 0 ? -a : a */\n      swap1\n      pop\n        /* \"contracts/SafeMathInt.sol\":2742:2868  function abs(int256 a) internal pure returns (int256) {... */\n      swap2\n      swap1\n      pop\n      jump\t// out\n        /* \"contracts/CMMDPolicy.sol\":8620:9080  function withinDeviationThreshold(uint256 rate, uint256 targetRate)... */\n    tag_260:\n        /* \"contracts/CMMDPolicy.sol\":8735:8739  bool */\n      0x00\n        /* \"contracts/CMMDPolicy.sol\":8755:8789  uint256 absoluteDeviationThreshold */\n      dup1\n        /* \"contracts/CMMDPolicy.sol\":8792:8862  SafeMath.div(SafeMath.mul(targetRate,deviationThreshold),10**DECIMALS) */\n      tag_280\n        /* \"contracts/CMMDPolicy.sol\":8805:8848  SafeMath.mul(targetRate,deviationThreshold) */\n      tag_281\n        /* \"contracts/CMMDPolicy.sol\":8818:8828  targetRate */\n      dup5\n        /* \"contracts/CMMDPolicy.sol\":8829:8847  deviationThreshold */\n      sload(0x04)\n        /* \"contracts/CMMDPolicy.sol\":8805:8817  SafeMath.mul */\n      tag_138\n        /* \"contracts/CMMDPolicy.sol\":8805:8848  SafeMath.mul(targetRate,deviationThreshold) */\n      jump\t// in\n    tag_281:\n        /* \"contracts/CMMDPolicy.sol\":1648:1650  18 */\n      0x12\n        /* \"contracts/CMMDPolicy.sol\":8849:8851  10 */\n      0x0a\n        /* \"contracts/CMMDPolicy.sol\":8849:8861  10**DECIMALS */\n      tag_282\n      swap2\n      swap1\n      tag_86\n      jump\t// in\n    tag_282:\n        /* \"contracts/CMMDPolicy.sol\":8792:8804  SafeMath.div */\n      tag_139\n        /* \"contracts/CMMDPolicy.sol\":8792:8862  SafeMath.div(SafeMath.mul(targetRate,deviationThreshold),10**DECIMALS) */\n      jump\t// in\n    tag_280:\n        /* \"contracts/CMMDPolicy.sol\":8755:8862  uint256 absoluteDeviationThreshold = SafeMath.div(SafeMath.mul(targetRate,deviationThreshold),10**DECIMALS) */\n      swap1\n      pop\n        /* \"contracts/CMMDPolicy.sol\":8903:8913  targetRate */\n      dup3\n        /* \"contracts/CMMDPolicy.sol\":8895:8899  rate */\n      dup5\n        /* \"contracts/CMMDPolicy.sol\":8895:8913  rate >= targetRate */\n      lt\n      iszero\n        /* \"contracts/CMMDPolicy.sol\":8895:8975  rate >= targetRate && SafeMath.sub(rate,targetRate) < absoluteDeviationThreshold */\n      dup1\n      iszero\n      tag_283\n      jumpi\n      pop\n        /* \"contracts/CMMDPolicy.sol\":8949:8975  absoluteDeviationThreshold */\n      dup1\n        /* \"contracts/CMMDPolicy.sol\":8917:8946  SafeMath.sub(rate,targetRate) */\n      tag_284\n        /* \"contracts/CMMDPolicy.sol\":8930:8934  rate */\n      dup6\n        /* \"contracts/CMMDPolicy.sol\":8935:8945  targetRate */\n      dup6\n        /* \"contracts/CMMDPolicy.sol\":8917:8929  SafeMath.sub */\n      tag_285\n        /* \"contracts/CMMDPolicy.sol\":8917:8946  SafeMath.sub(rate,targetRate) */\n      jump\t// in\n    tag_284:\n        /* \"contracts/CMMDPolicy.sol\":8917:8975  SafeMath.sub(rate,targetRate) < absoluteDeviationThreshold */\n      lt\n        /* \"contracts/CMMDPolicy.sol\":8895:8975  rate >= targetRate && SafeMath.sub(rate,targetRate) < absoluteDeviationThreshold */\n    tag_283:\n        /* \"contracts/CMMDPolicy.sol\":8894:9073  (rate >= targetRate && SafeMath.sub(rate,targetRate) < absoluteDeviationThreshold) ||... */\n      dup1\n      tag_286\n      jumpi\n      pop\n        /* \"contracts/CMMDPolicy.sol\":9000:9010  targetRate */\n      dup3\n        /* \"contracts/CMMDPolicy.sol\":8993:8997  rate */\n      dup5\n        /* \"contracts/CMMDPolicy.sol\":8993:9010  rate < targetRate */\n      lt\n        /* \"contracts/CMMDPolicy.sol\":8993:9072  rate < targetRate && SafeMath.sub(targetRate,rate) < absoluteDeviationThreshold */\n      dup1\n      iszero\n      tag_287\n      jumpi\n      pop\n        /* \"contracts/CMMDPolicy.sol\":9046:9072  absoluteDeviationThreshold */\n      dup1\n        /* \"contracts/CMMDPolicy.sol\":9014:9043  SafeMath.sub(targetRate,rate) */\n      tag_288\n        /* \"contracts/CMMDPolicy.sol\":9027:9037  targetRate */\n      dup5\n        /* \"contracts/CMMDPolicy.sol\":9038:9042  rate */\n      dup7\n        /* \"contracts/CMMDPolicy.sol\":9014:9026  SafeMath.sub */\n      tag_285\n        /* \"contracts/CMMDPolicy.sol\":9014:9043  SafeMath.sub(targetRate,rate) */\n      jump\t// in\n    tag_288:\n        /* \"contracts/CMMDPolicy.sol\":9014:9072  SafeMath.sub(targetRate,rate) < absoluteDeviationThreshold */\n      lt\n        /* \"contracts/CMMDPolicy.sol\":8993:9072  rate < targetRate && SafeMath.sub(targetRate,rate) < absoluteDeviationThreshold */\n    tag_287:\n        /* \"contracts/CMMDPolicy.sol\":8894:9073  (rate >= targetRate && SafeMath.sub(rate,targetRate) < absoluteDeviationThreshold) ||... */\n    tag_286:\n        /* \"contracts/CMMDPolicy.sol\":8875:9073  return... */\n      swap2\n      pop\n      pop\n        /* \"contracts/CMMDPolicy.sol\":8620:9080  function withinDeviationThreshold(uint256 rate, uint256 targetRate)... */\n      swap3\n      swap2\n      pop\n      pop\n      jump\t// out\n        /* \"contracts/SafeMath.sol\":1163:1308  function sub(uint256 a, uint256 b) internal pure returns (uint256) {... */\n    tag_285:\n        /* \"contracts/SafeMath.sol\":1221:1228  uint256 */\n      0x00\n        /* \"contracts/SafeMath.sol\":1253:1254  a */\n      dup3\n        /* \"contracts/SafeMath.sol\":1248:1249  b */\n      dup3\n        /* \"contracts/SafeMath.sol\":1248:1254  b <= a */\n      gt\n      iszero\n        /* \"contracts/SafeMath.sol\":1240:1255  require(b <= a) */\n      tag_290\n      jumpi\n      0x00\n      dup1\n      revert\n    tag_290:\n        /* \"contracts/SafeMath.sol\":1265:1274  uint256 c */\n      0x00\n        /* \"contracts/SafeMath.sol\":1281:1282  b */\n      dup3\n        /* \"contracts/SafeMath.sol\":1277:1278  a */\n      dup5\n        /* \"contracts/SafeMath.sol\":1277:1282  a - b */\n      tag_291\n      swap2\n      swap1\n      tag_173\n      jump\t// in\n    tag_291:\n        /* \"contracts/SafeMath.sol\":1265:1282  uint256 c = a - b */\n      swap1\n      pop\n        /* \"contracts/SafeMath.sol\":1300:1301  c */\n      dup1\n        /* \"contracts/SafeMath.sol\":1293:1301  return c */\n      swap2\n      pop\n      pop\n        /* \"contracts/SafeMath.sol\":1163:1308  function sub(uint256 a, uint256 b) internal pure returns (uint256) {... */\n      swap3\n      swap2\n      pop\n      pop\n      jump\t// out\n        /* \"#utility.yul\":7:144   */\n    tag_293:\n        /* \"#utility.yul\":61:66   */\n      0x00\n        /* \"#utility.yul\":92:98   */\n      dup2\n        /* \"#utility.yul\":86:99   */\n      mload\n        /* \"#utility.yul\":77:99   */\n      swap1\n      pop\n        /* \"#utility.yul\":108:138   */\n      tag_295\n        /* \"#utility.yul\":132:137   */\n      dup2\n        /* \"#utility.yul\":108:138   */\n      tag_296\n      jump\t// in\n    tag_295:\n        /* \"#utility.yul\":7:144   */\n      swap3\n      swap2\n      pop\n      pop\n      jump\t// out\n        /* \"#utility.yul\":150:313   */\n    tag_297:\n        /* \"#utility.yul\":208:213   */\n      0x00\n        /* \"#utility.yul\":246:252   */\n      dup2\n        /* \"#utility.yul\":233:253   */\n      calldataload\n        /* \"#utility.yul\":224:253   */\n      swap1\n      pop\n        /* \"#utility.yul\":262:307   */\n      tag_299\n        /* \"#utility.yul\":301:306   */\n      dup2\n        /* \"#utility.yul\":262:307   */\n      tag_300\n      jump\t// in\n    tag_299:\n        /* \"#utility.yul\":150:313   */\n      swap3\n      swap2\n      pop\n      pop\n      jump\t// out\n        /* \"#utility.yul\":319:486   */\n    tag_301:\n        /* \"#utility.yul\":379:384   */\n      0x00\n        /* \"#utility.yul\":417:423   */\n      dup2\n        /* \"#utility.yul\":404:424   */\n      calldataload\n        /* \"#utility.yul\":395:424   */\n      swap1\n      pop\n        /* \"#utility.yul\":433:480   */\n      tag_303\n        /* \"#utility.yul\":474:479   */\n      dup2\n        /* \"#utility.yul\":433:480   */\n      tag_304\n      jump\t// in\n    tag_303:\n        /* \"#utility.yul\":319:486   */\n      swap3\n      swap2\n      pop\n      pop\n      jump\t// out\n        /* \"#utility.yul\":492:629   */\n    tag_305:\n        /* \"#utility.yul\":537:542   */\n      0x00\n        /* \"#utility.yul\":575:581   */\n      dup2\n        /* \"#utility.yul\":562:582   */\n      calldataload\n        /* \"#utility.yul\":553:582   */\n      swap1\n      pop\n        /* \"#utility.yul\":591:623   */\n      tag_307\n        /* \"#utility.yul\":617:622   */\n      dup2\n        /* \"#utility.yul\":591:623   */\n      tag_308\n      jump\t// in\n    tag_307:\n        /* \"#utility.yul\":492:629   */\n      swap3\n      swap2\n      pop\n      pop\n      jump\t// out\n        /* \"#utility.yul\":635:774   */\n    tag_309:\n        /* \"#utility.yul\":681:686   */\n      0x00\n        /* \"#utility.yul\":719:725   */\n      dup2\n        /* \"#utility.yul\":706:726   */\n      calldataload\n        /* \"#utility.yul\":697:726   */\n      swap1\n      pop\n        /* \"#utility.yul\":735:768   */\n      tag_311\n        /* \"#utility.yul\":762:767   */\n      dup2\n        /* \"#utility.yul\":735:768   */\n      tag_312\n      jump\t// in\n    tag_311:\n        /* \"#utility.yul\":635:774   */\n      swap3\n      swap2\n      pop\n      pop\n      jump\t// out\n        /* \"#utility.yul\":780:923   */\n    tag_313:\n        /* \"#utility.yul\":837:842   */\n      0x00\n        /* \"#utility.yul\":868:874   */\n      dup2\n        /* \"#utility.yul\":862:875   */\n      mload\n        /* \"#utility.yul\":853:875   */\n      swap1\n      pop\n        /* \"#utility.yul\":884:917   */\n      tag_315\n        /* \"#utility.yul\":911:916   */\n      dup2\n        /* \"#utility.yul\":884:917   */\n      tag_312\n      jump\t// in\n    tag_315:\n        /* \"#utility.yul\":780:923   */\n      swap3\n      swap2\n      pop\n      pop\n      jump\t// out\n        /* \"#utility.yul\":929:1427   */\n    tag_72:\n        /* \"#utility.yul\":1009:1015   */\n      0x00\n        /* \"#utility.yul\":1017:1023   */\n      dup1\n        /* \"#utility.yul\":1066:1068   */\n      0x40\n        /* \"#utility.yul\":1054:1063   */\n      dup4\n        /* \"#utility.yul\":1045:1052   */\n      dup6\n        /* \"#utility.yul\":1041:1064   */\n      sub\n        /* \"#utility.yul\":1037:1069   */\n      slt\n        /* \"#utility.yul\":1034:1153   */\n      iszero\n      tag_317\n      jumpi\n        /* \"#utility.yul\":1072:1151   */\n      tag_318\n      tag_319\n      jump\t// in\n    tag_318:\n        /* \"#utility.yul\":1034:1153   */\n    tag_317:\n        /* \"#utility.yul\":1192:1193   */\n      0x00\n        /* \"#utility.yul\":1217:1282   */\n      tag_320\n        /* \"#utility.yul\":1274:1281   */\n      dup6\n        /* \"#utility.yul\":1265:1271   */\n      dup3\n        /* \"#utility.yul\":1254:1263   */\n      dup7\n        /* \"#utility.yul\":1250:1272   */\n      add\n        /* \"#utility.yul\":1217:1282   */\n      tag_297\n      jump\t// in\n    tag_320:\n        /* \"#utility.yul\":1207:1282   */\n      swap3\n      pop\n        /* \"#utility.yul\":1163:1292   */\n      pop\n        /* \"#utility.yul\":1331:1333   */\n      0x20\n        /* \"#utility.yul\":1357:1410   */\n      tag_321\n        /* \"#utility.yul\":1402:1409   */\n      dup6\n        /* \"#utility.yul\":1393:1399   */\n      dup3\n        /* \"#utility.yul\":1382:1391   */\n      dup7\n        /* \"#utility.yul\":1378:1400   */\n      add\n        /* \"#utility.yul\":1357:1410   */\n      tag_309\n      jump\t// in\n    tag_321:\n        /* \"#utility.yul\":1347:1410   */\n      swap2\n      pop\n        /* \"#utility.yul\":1302:1420   */\n      pop\n        /* \"#utility.yul\":929:1427   */\n      swap3\n      pop\n      swap3\n      swap1\n      pop\n      jump\t// out\n        /* \"#utility.yul\":1433:1790   */\n    tag_31:\n        /* \"#utility.yul\":1506:1512   */\n      0x00\n        /* \"#utility.yul\":1555:1557   */\n      0x20\n        /* \"#utility.yul\":1543:1552   */\n      dup3\n        /* \"#utility.yul\":1534:1541   */\n      dup5\n        /* \"#utility.yul\":1530:1553   */\n      sub\n        /* \"#utility.yul\":1526:1558   */\n      slt\n        /* \"#utility.yul\":1523:1642   */\n      iszero\n      tag_323\n      jumpi\n        /* \"#utility.yul\":1561:1640   */\n      tag_324\n      tag_319\n      jump\t// in\n    tag_324:\n        /* \"#utility.yul\":1523:1642   */\n    tag_323:\n        /* \"#utility.yul\":1681:1682   */\n      0x00\n        /* \"#utility.yul\":1706:1773   */\n      tag_325\n        /* \"#utility.yul\":1765:1772   */\n      dup5\n        /* \"#utility.yul\":1756:1762   */\n      dup3\n        /* \"#utility.yul\":1745:1754   */\n      dup6\n        /* \"#utility.yul\":1741:1763   */\n      add\n        /* \"#utility.yul\":1706:1773   */\n      tag_301\n      jump\t// in\n    tag_325:\n        /* \"#utility.yul\":1696:1773   */\n      swap2\n      pop\n        /* \"#utility.yul\":1652:1783   */\n      pop\n        /* \"#utility.yul\":1433:1790   */\n      swap3\n      swap2\n      pop\n      pop\n      jump\t// out\n        /* \"#utility.yul\":1796:2123   */\n    tag_53:\n        /* \"#utility.yul\":1854:1860   */\n      0x00\n        /* \"#utility.yul\":1903:1905   */\n      0x20\n        /* \"#utility.yul\":1891:1900   */\n      dup3\n        /* \"#utility.yul\":1882:1889   */\n      dup5\n        /* \"#utility.yul\":1878:1901   */\n      sub\n        /* \"#utility.yul\":1874:1906   */\n      slt\n        /* \"#utility.yul\":1871:1990   */\n      iszero\n      tag_327\n      jumpi\n        /* \"#utility.yul\":1909:1988   */\n      tag_328\n      tag_319\n      jump\t// in\n    tag_328:\n        /* \"#utility.yul\":1871:1990   */\n    tag_327:\n        /* \"#utility.yul\":2029:2030   */\n      0x00\n        /* \"#utility.yul\":2054:2106   */\n      tag_329\n        /* \"#utility.yul\":2098:2105   */\n      dup5\n        /* \"#utility.yul\":2089:2095   */\n      dup3\n        /* \"#utility.yul\":2078:2087   */\n      dup6\n        /* \"#utility.yul\":2074:2096   */\n      add\n        /* \"#utility.yul\":2054:2106   */\n      tag_305\n      jump\t// in\n    tag_329:\n        /* \"#utility.yul\":2044:2106   */\n      swap2\n      pop\n        /* \"#utility.yul\":2000:2116   */\n      pop\n        /* \"#utility.yul\":1796:2123   */\n      swap3\n      swap2\n      pop\n      pop\n      jump\t// out\n        /* \"#utility.yul\":2129:2886   */\n    tag_25:\n        /* \"#utility.yul\":2211:2217   */\n      0x00\n        /* \"#utility.yul\":2219:2225   */\n      dup1\n        /* \"#utility.yul\":2227:2233   */\n      0x00\n        /* \"#utility.yul\":2235:2241   */\n      dup1\n        /* \"#utility.yul\":2284:2287   */\n      0x80\n        /* \"#utility.yul\":2272:2281   */\n      dup6\n        /* \"#utility.yul\":2263:2270   */\n      dup8\n        /* \"#utility.yul\":2259:2282   */\n      sub\n        /* \"#utility.yul\":2255:2288   */\n      slt\n        /* \"#utility.yul\":2252:2372   */\n      iszero\n      tag_331\n      jumpi\n        /* \"#utility.yul\":2291:2370   */\n      tag_332\n      tag_319\n      jump\t// in\n    tag_332:\n        /* \"#utility.yul\":2252:2372   */\n    tag_331:\n        /* \"#utility.yul\":2411:2412   */\n      0x00\n        /* \"#utility.yul\":2436:2488   */\n      tag_333\n        /* \"#utility.yul\":2480:2487   */\n      dup8\n        /* \"#utility.yul\":2471:2477   */\n      dup3\n        /* \"#utility.yul\":2460:2469   */\n      dup9\n        /* \"#utility.yul\":2456:2478   */\n      add\n        /* \"#utility.yul\":2436:2488   */\n      tag_305\n      jump\t// in\n    tag_333:\n        /* \"#utility.yul\":2426:2488   */\n      swap5\n      pop\n        /* \"#utility.yul\":2382:2498   */\n      pop\n        /* \"#utility.yul\":2537:2539   */\n      0x20\n        /* \"#utility.yul\":2563:2615   */\n      tag_334\n        /* \"#utility.yul\":2607:2614   */\n      dup8\n        /* \"#utility.yul\":2598:2604   */\n      dup3\n        /* \"#utility.yul\":2587:2596   */\n      dup9\n        /* \"#utility.yul\":2583:2605   */\n      add\n        /* \"#utility.yul\":2563:2615   */\n      tag_305\n      jump\t// in\n    tag_334:\n        /* \"#utility.yul\":2553:2615   */\n      swap4\n      pop\n        /* \"#utility.yul\":2508:2625   */\n      pop\n        /* \"#utility.yul\":2664:2666   */\n      0x40\n        /* \"#utility.yul\":2690:2742   */\n      tag_335\n        /* \"#utility.yul\":2734:2741   */\n      dup8\n        /* \"#utility.yul\":2725:2731   */\n      dup3\n        /* \"#utility.yul\":2714:2723   */\n      dup9\n        /* \"#utility.yul\":2710:2732   */\n      add\n        /* \"#utility.yul\":2690:2742   */\n      tag_305\n      jump\t// in\n    tag_335:\n        /* \"#utility.yul\":2680:2742   */\n      swap3\n      pop\n        /* \"#utility.yul\":2635:2752   */\n      pop\n        /* \"#utility.yul\":2791:2793   */\n      0x60\n        /* \"#utility.yul\":2817:2869   */\n      tag_336\n        /* \"#utility.yul\":2861:2868   */\n      dup8\n        /* \"#utility.yul\":2852:2858   */\n      dup3\n        /* \"#utility.yul\":2841:2850   */\n      dup9\n        /* \"#utility.yul\":2837:2859   */\n      add\n        /* \"#utility.yul\":2817:2869   */\n      tag_305\n      jump\t// in\n    tag_336:\n        /* \"#utility.yul\":2807:2869   */\n      swap2\n      pop\n        /* \"#utility.yul\":2762:2879   */\n      pop\n        /* \"#utility.yul\":2129:2886   */\n      swap3\n      swap6\n      swap2\n      swap5\n      pop\n      swap3\n      pop\n      jump\t// out\n        /* \"#utility.yul\":2892:3221   */\n    tag_39:\n        /* \"#utility.yul\":2951:2957   */\n      0x00\n        /* \"#utility.yul\":3000:3002   */\n      0x20\n        /* \"#utility.yul\":2988:2997   */\n      dup3\n        /* \"#utility.yul\":2979:2986   */\n      dup5\n        /* \"#utility.yul\":2975:2998   */\n      sub\n        /* \"#utility.yul\":2971:3003   */\n      slt\n        /* \"#utility.yul\":2968:3087   */\n      iszero\n      tag_338\n      jumpi\n        /* \"#utility.yul\":3006:3085   */\n      tag_339\n      tag_319\n      jump\t// in\n    tag_339:\n        /* \"#utility.yul\":2968:3087   */\n    tag_338:\n        /* \"#utility.yul\":3126:3127   */\n      0x00\n        /* \"#utility.yul\":3151:3204   */\n      tag_340\n        /* \"#utility.yul\":3196:3203   */\n      dup5\n        /* \"#utility.yul\":3187:3193   */\n      dup3\n        /* \"#utility.yul\":3176:3185   */\n      dup6\n        /* \"#utility.yul\":3172:3194   */\n      add\n        /* \"#utility.yul\":3151:3204   */\n      tag_309\n      jump\t// in\n    tag_340:\n        /* \"#utility.yul\":3141:3204   */\n      swap2\n      pop\n        /* \"#utility.yul\":3097:3214   */\n      pop\n        /* \"#utility.yul\":2892:3221   */\n      swap3\n      swap2\n      pop\n      pop\n      jump\t// out\n        /* \"#utility.yul\":3227:3578   */\n    tag_162:\n        /* \"#utility.yul\":3297:3303   */\n      0x00\n        /* \"#utility.yul\":3346:3348   */\n      0x20\n        /* \"#utility.yul\":3334:3343   */\n      dup3\n        /* \"#utility.yul\":3325:3332   */\n      dup5\n        /* \"#utility.yul\":3321:3344   */\n      sub\n        /* \"#utility.yul\":3317:3349   */\n      slt\n        /* \"#utility.yul\":3314:3433   */\n      iszero\n      tag_342\n      jumpi\n        /* \"#utility.yul\":3352:3431   */\n      tag_343\n      tag_319\n      jump\t// in\n    tag_343:\n        /* \"#utility.yul\":3314:3433   */\n    tag_342:\n        /* \"#utility.yul\":3472:3473   */\n      0x00\n        /* \"#utility.yul\":3497:3561   */\n      tag_344\n        /* \"#utility.yul\":3553:3560   */\n      dup5\n        /* \"#utility.yul\":3544:3550   */\n      dup3\n        /* \"#utility.yul\":3533:3542   */\n      dup6\n        /* \"#utility.yul\":3529:3551   */\n      add\n        /* \"#utility.yul\":3497:3561   */\n      tag_313\n      jump\t// in\n    tag_344:\n        /* \"#utility.yul\":3487:3561   */\n      swap2\n      pop\n        /* \"#utility.yul\":3443:3571   */\n      pop\n        /* \"#utility.yul\":3227:3578   */\n      swap3\n      swap2\n      pop\n      pop\n      jump\t// out\n        /* \"#utility.yul\":3584:4085   */\n    tag_133:\n        /* \"#utility.yul\":3660:3666   */\n      0x00\n        /* \"#utility.yul\":3668:3674   */\n      dup1\n        /* \"#utility.yul\":3717:3719   */\n      0x40\n        /* \"#utility.yul\":3705:3714   */\n      dup4\n        /* \"#utility.yul\":3696:3703   */\n      dup6\n        /* \"#utility.yul\":3692:3715   */\n      sub\n        /* \"#utility.yul\":3688:3720   */\n      slt\n        /* \"#utility.yul\":3685:3804   */\n      iszero\n      tag_346\n      jumpi\n        /* \"#utility.yul\":3723:3802   */\n      tag_347\n      tag_319\n      jump\t// in\n    tag_347:\n        /* \"#utility.yul\":3685:3804   */\n    tag_346:\n        /* \"#utility.yul\":3843:3844   */\n      0x00\n        /* \"#utility.yul\":3868:3932   */\n      tag_348\n        /* \"#utility.yul\":3924:3931   */\n      dup6\n        /* \"#utility.yul\":3915:3921   */\n      dup3\n        /* \"#utility.yul\":3904:3913   */\n      dup7\n        /* \"#utility.yul\":3900:3922   */\n      add\n        /* \"#utility.yul\":3868:3932   */\n      tag_313\n      jump\t// in\n    tag_348:\n        /* \"#utility.yul\":3858:3932   */\n      swap3\n      pop\n        /* \"#utility.yul\":3814:3942   */\n      pop\n        /* \"#utility.yul\":3981:3983   */\n      0x20\n        /* \"#utility.yul\":4007:4068   */\n      tag_349\n        /* \"#utility.yul\":4060:4067   */\n      dup6\n        /* \"#utility.yul\":4051:4057   */\n      dup3\n        /* \"#utility.yul\":4040:4049   */\n      dup7\n        /* \"#utility.yul\":4036:4058   */\n      add\n        /* \"#utility.yul\":4007:4068   */\n      tag_293\n      jump\t// in\n    tag_349:\n        /* \"#utility.yul\":3997:4068   */\n      swap2\n      pop\n        /* \"#utility.yul\":3952:4078   */\n      pop\n        /* \"#utility.yul\":3584:4085   */\n      swap3\n      pop\n      swap3\n      swap1\n      pop\n      jump\t// out\n        /* \"#utility.yul\":4091:4246   */\n    tag_350:\n        /* \"#utility.yul\":4190:4239   */\n      tag_352\n        /* \"#utility.yul\":4233:4238   */\n      dup2\n        /* \"#utility.yul\":4190:4239   */\n      tag_353\n      jump\t// in\n    tag_352:\n        /* \"#utility.yul\":4185:4188   */\n      dup3\n        /* \"#utility.yul\":4178:4240   */\n      mstore\n        /* \"#utility.yul\":4091:4246   */\n      pop\n      pop\n      jump\t// out\n        /* \"#utility.yul\":4252:4411   */\n    tag_354:\n        /* \"#utility.yul\":4353:4404   */\n      tag_356\n        /* \"#utility.yul\":4398:4403   */\n      dup2\n        /* \"#utility.yul\":4353:4404   */\n      tag_357\n      jump\t// in\n    tag_356:\n        /* \"#utility.yul\":4348:4351   */\n      dup3\n        /* \"#utility.yul\":4341:4405   */\n      mstore\n        /* \"#utility.yul\":4252:4411   */\n      pop\n      pop\n      jump\t// out\n        /* \"#utility.yul\":4417:4532   */\n    tag_358:\n        /* \"#utility.yul\":4502:4525   */\n      tag_360\n        /* \"#utility.yul\":4519:4524   */\n      dup2\n        /* \"#utility.yul\":4502:4525   */\n      tag_361\n      jump\t// in\n    tag_360:\n        /* \"#utility.yul\":4497:4500   */\n      dup3\n        /* \"#utility.yul\":4490:4526   */\n      mstore\n        /* \"#utility.yul\":4417:4532   */\n      pop\n      pop\n      jump\t// out\n        /* \"#utility.yul\":4538:4656   */\n    tag_362:\n        /* \"#utility.yul\":4625:4649   */\n      tag_364\n        /* \"#utility.yul\":4643:4648   */\n      dup2\n        /* \"#utility.yul\":4625:4649   */\n      tag_365\n      jump\t// in\n    tag_364:\n        /* \"#utility.yul\":4620:4623   */\n      dup3\n        /* \"#utility.yul\":4613:4650   */\n      mstore\n        /* \"#utility.yul\":4538:4656   */\n      pop\n      pop\n      jump\t// out\n        /* \"#utility.yul\":4662:4908   */\n    tag_36:\n        /* \"#utility.yul\":4767:4771   */\n      0x00\n        /* \"#utility.yul\":4805:4807   */\n      0x20\n        /* \"#utility.yul\":4794:4803   */\n      dup3\n        /* \"#utility.yul\":4790:4808   */\n      add\n        /* \"#utility.yul\":4782:4808   */\n      swap1\n      pop\n        /* \"#utility.yul\":4818:4901   */\n      tag_367\n        /* \"#utility.yul\":4898:4899   */\n      0x00\n        /* \"#utility.yul\":4887:4896   */\n      dup4\n        /* \"#utility.yul\":4883:4900   */\n      add\n        /* \"#utility.yul\":4874:4880   */\n      dup5\n        /* \"#utility.yul\":4818:4901   */\n      tag_350\n      jump\t// in\n    tag_367:\n        /* \"#utility.yul\":4662:4908   */\n      swap3\n      swap2\n      pop\n      pop\n      jump\t// out\n        /* \"#utility.yul\":4914:5164   */\n    tag_47:\n        /* \"#utility.yul\":5021:5025   */\n      0x00\n        /* \"#utility.yul\":5059:5061   */\n      0x20\n        /* \"#utility.yul\":5048:5057   */\n      dup3\n        /* \"#utility.yul\":5044:5062   */\n      add\n        /* \"#utility.yul\":5036:5062   */\n      swap1\n      pop\n        /* \"#utility.yul\":5072:5157   */\n      tag_369\n        /* \"#utility.yul\":5154:5155   */\n      0x00\n        /* \"#utility.yul\":5143:5152   */\n      dup4\n        /* \"#utility.yul\":5139:5156   */\n      add\n        /* \"#utility.yul\":5130:5136   */\n      dup5\n        /* \"#utility.yul\":5072:5157   */\n      tag_354\n      jump\t// in\n    tag_369:\n        /* \"#utility.yul\":4914:5164   */\n      swap3\n      swap2\n      pop\n      pop\n      jump\t// out\n        /* \"#utility.yul\":5170:5388   */\n    tag_28:\n        /* \"#utility.yul\":5261:5265   */\n      0x00\n        /* \"#utility.yul\":5299:5301   */\n      0x20\n        /* \"#utility.yul\":5288:5297   */\n      dup3\n        /* \"#utility.yul\":5284:5302   */\n      add\n        /* \"#utility.yul\":5276:5302   */\n      swap1\n      pop\n        /* \"#utility.yul\":5312:5381   */\n      tag_371\n        /* \"#utility.yul\":5378:5379   */\n      0x00\n        /* \"#utility.yul\":5367:5376   */\n      dup4\n        /* \"#utility.yul\":5363:5380   */\n      add\n        /* \"#utility.yul\":5354:5360   */\n      dup5\n        /* \"#utility.yul\":5312:5381   */\n      tag_358\n      jump\t// in\n    tag_371:\n        /* \"#utility.yul\":5170:5388   */\n      swap3\n      swap2\n      pop\n      pop\n      jump\t// out\n        /* \"#utility.yul\":5394:5616   */\n    tag_58:\n        /* \"#utility.yul\":5487:5491   */\n      0x00\n        /* \"#utility.yul\":5525:5527   */\n      0x20\n        /* \"#utility.yul\":5514:5523   */\n      dup3\n        /* \"#utility.yul\":5510:5528   */\n      add\n        /* \"#utility.yul\":5502:5528   */\n      swap1\n      pop\n        /* \"#utility.yul\":5538:5609   */\n      tag_373\n        /* \"#utility.yul\":5606:5607   */\n      0x00\n        /* \"#utility.yul\":5595:5604   */\n      dup4\n        /* \"#utility.yul\":5591:5608   */\n      add\n        /* \"#utility.yul\":5582:5588   */\n      dup5\n        /* \"#utility.yul\":5538:5609   */\n      tag_362\n      jump\t// in\n    tag_373:\n        /* \"#utility.yul\":5394:5616   */\n      swap3\n      swap2\n      pop\n      pop\n      jump\t// out\n        /* \"#utility.yul\":5622:5950   */\n    tag_175:\n        /* \"#utility.yul\":5741:5745   */\n      0x00\n        /* \"#utility.yul\":5779:5781   */\n      0x40\n        /* \"#utility.yul\":5768:5777   */\n      dup3\n        /* \"#utility.yul\":5764:5782   */\n      add\n        /* \"#utility.yul\":5756:5782   */\n      swap1\n      pop\n        /* \"#utility.yul\":5792:5863   */\n      tag_375\n        /* \"#utility.yul\":5860:5861   */\n      0x00\n        /* \"#utility.yul\":5849:5858   */\n      dup4\n        /* \"#utility.yul\":5845:5862   */\n      add\n        /* \"#utility.yul\":5836:5842   */\n      dup6\n        /* \"#utility.yul\":5792:5863   */\n      tag_362\n      jump\t// in\n    tag_375:\n        /* \"#utility.yul\":5873:5943   */\n      tag_376\n        /* \"#utility.yul\":5939:5941   */\n      0x20\n        /* \"#utility.yul\":5928:5937   */\n      dup4\n        /* \"#utility.yul\":5924:5942   */\n      add\n        /* \"#utility.yul\":5915:5921   */\n      dup5\n        /* \"#utility.yul\":5873:5943   */\n      tag_358\n      jump\t// in\n    tag_376:\n        /* \"#utility.yul\":5622:5950   */\n      swap4\n      swap3\n      pop\n      pop\n      pop\n      jump\t// out\n        /* \"#utility.yul\":5956:6505   */\n    tag_187:\n        /* \"#utility.yul\":6131:6135   */\n      0x00\n        /* \"#utility.yul\":6169:6172   */\n      0x80\n        /* \"#utility.yul\":6158:6167   */\n      dup3\n        /* \"#utility.yul\":6154:6173   */\n      add\n        /* \"#utility.yul\":6146:6173   */\n      swap1\n      pop\n        /* \"#utility.yul\":6183:6254   */\n      tag_378\n        /* \"#utility.yul\":6251:6252   */\n      0x00\n        /* \"#utility.yul\":6240:6249   */\n      dup4\n        /* \"#utility.yul\":6236:6253   */\n      add\n        /* \"#utility.yul\":6227:6233   */\n      dup8\n        /* \"#utility.yul\":6183:6254   */\n      tag_362\n      jump\t// in\n    tag_378:\n        /* \"#utility.yul\":6264:6336   */\n      tag_379\n        /* \"#utility.yul\":6332:6334   */\n      0x20\n        /* \"#utility.yul\":6321:6330   */\n      dup4\n        /* \"#utility.yul\":6317:6335   */\n      add\n        /* \"#utility.yul\":6308:6314   */\n      dup7\n        /* \"#utility.yul\":6264:6336   */\n      tag_362\n      jump\t// in\n    tag_379:\n        /* \"#utility.yul\":6346:6416   */\n      tag_380\n        /* \"#utility.yul\":6412:6414   */\n      0x40\n        /* \"#utility.yul\":6401:6410   */\n      dup4\n        /* \"#utility.yul\":6397:6415   */\n      add\n        /* \"#utility.yul\":6388:6394   */\n      dup6\n        /* \"#utility.yul\":6346:6416   */\n      tag_358\n      jump\t// in\n    tag_380:\n        /* \"#utility.yul\":6426:6498   */\n      tag_381\n        /* \"#utility.yul\":6494:6496   */\n      0x60\n        /* \"#utility.yul\":6483:6492   */\n      dup4\n        /* \"#utility.yul\":6479:6497   */\n      add\n        /* \"#utility.yul\":6470:6476   */\n      dup5\n        /* \"#utility.yul\":6426:6498   */\n      tag_362\n      jump\t// in\n    tag_381:\n        /* \"#utility.yul\":5956:6505   */\n      swap6\n      swap5\n      pop\n      pop\n      pop\n      pop\n      pop\n      jump\t// out\n        /* \"#utility.yul\":6592:7117   */\n    tag_120:\n        /* \"#utility.yul\":6631:6634   */\n      0x00\n        /* \"#utility.yul\":6650:6669   */\n      tag_385\n        /* \"#utility.yul\":6667:6668   */\n      dup3\n        /* \"#utility.yul\":6650:6669   */\n      tag_361\n      jump\t// in\n    tag_385:\n        /* \"#utility.yul\":6645:6669   */\n      swap2\n      pop\n        /* \"#utility.yul\":6683:6702   */\n      tag_386\n        /* \"#utility.yul\":6700:6701   */\n      dup4\n        /* \"#utility.yul\":6683:6702   */\n      tag_361\n      jump\t// in\n    tag_386:\n        /* \"#utility.yul\":6678:6702   */\n      swap3\n      pop\n        /* \"#utility.yul\":6871:6872   */\n      dup2\n        /* \"#utility.yul\":6803:6869   */\n      0x7fffffffffffffffffffffffffffffffffffffffffffffffffffffffffffffff\n        /* \"#utility.yul\":6799:6873   */\n      sub\n        /* \"#utility.yul\":6796:6797   */\n      dup4\n        /* \"#utility.yul\":6792:6874   */\n      sgt\n        /* \"#utility.yul\":6787:6788   */\n      0x00\n        /* \"#utility.yul\":6784:6785   */\n      dup4\n        /* \"#utility.yul\":6780:6789   */\n      slt\n        /* \"#utility.yul\":6773:6790   */\n      iszero\n        /* \"#utility.yul\":6769:6875   */\n      and\n        /* \"#utility.yul\":6766:6898   */\n      iszero\n      tag_387\n      jumpi\n        /* \"#utility.yul\":6878:6896   */\n      tag_388\n      tag_389\n      jump\t// in\n    tag_388:\n        /* \"#utility.yul\":6766:6898   */\n    tag_387:\n        /* \"#utility.yul\":7058:7059   */\n      dup2\n        /* \"#utility.yul\":6990:7056   */\n      0x8000000000000000000000000000000000000000000000000000000000000000\n        /* \"#utility.yul\":6986:7060   */\n      sub\n        /* \"#utility.yul\":6983:6984   */\n      dup4\n        /* \"#utility.yul\":6979:7061   */\n      slt\n        /* \"#utility.yul\":6975:6976   */\n      0x00\n        /* \"#utility.yul\":6972:6973   */\n      dup4\n        /* \"#utility.yul\":6968:6977   */\n      slt\n        /* \"#utility.yul\":6964:7062   */\n      and\n        /* \"#utility.yul\":6961:7085   */\n      iszero\n      tag_390\n      jumpi\n        /* \"#utility.yul\":7065:7083   */\n      tag_391\n      tag_389\n      jump\t// in\n    tag_391:\n        /* \"#utility.yul\":6961:7085   */\n    tag_390:\n        /* \"#utility.yul\":7109:7110   */\n      dup3\n        /* \"#utility.yul\":7106:7107   */\n      dup3\n        /* \"#utility.yul\":7102:7111   */\n      add\n        /* \"#utility.yul\":7095:7111   */\n      swap1\n      pop\n        /* \"#utility.yul\":6592:7117   */\n      swap3\n      swap2\n      pop\n      pop\n      jump\t// out\n        /* \"#utility.yul\":7123:7428   */\n    tag_128:\n        /* \"#utility.yul\":7163:7166   */\n      0x00\n        /* \"#utility.yul\":7182:7202   */\n      tag_393\n        /* \"#utility.yul\":7200:7201   */\n      dup3\n        /* \"#utility.yul\":7182:7202   */\n      tag_365\n      jump\t// in\n    tag_393:\n        /* \"#utility.yul\":7177:7202   */\n      swap2\n      pop\n        /* \"#utility.yul\":7216:7236   */\n      tag_394\n        /* \"#utility.yul\":7234:7235   */\n      dup4\n        /* \"#utility.yul\":7216:7236   */\n      tag_365\n      jump\t// in\n    tag_394:\n        /* \"#utility.yul\":7211:7236   */\n      swap3\n      pop\n        /* \"#utility.yul\":7370:7371   */\n      dup3\n        /* \"#utility.yul\":7302:7368   */\n      0xffffffffffffffffffffffffffffffffffffffffffffffffffffffffffffffff\n        /* \"#utility.yul\":7298:7372   */\n      sub\n        /* \"#utility.yul\":7295:7296   */\n      dup3\n        /* \"#utility.yul\":7292:7373   */\n      gt\n        /* \"#utility.yul\":7289:7396   */\n      iszero\n      tag_395\n      jumpi\n        /* \"#utility.yul\":7376:7394   */\n      tag_396\n      tag_389\n      jump\t// in\n    tag_396:\n        /* \"#utility.yul\":7289:7396   */\n    tag_395:\n        /* \"#utility.yul\":7420:7421   */\n      dup3\n        /* \"#utility.yul\":7417:7418   */\n      dup3\n        /* \"#utility.yul\":7413:7422   */\n      add\n        /* \"#utility.yul\":7406:7422   */\n      swap1\n      pop\n        /* \"#utility.yul\":7123:7428   */\n      swap3\n      swap2\n      pop\n      pop\n      jump\t// out\n        /* \"#utility.yul\":7434:7819   */\n    tag_218:\n        /* \"#utility.yul\":7473:7474   */\n      0x00\n        /* \"#utility.yul\":7490:7509   */\n      tag_398\n        /* \"#utility.yul\":7507:7508   */\n      dup3\n        /* \"#utility.yul\":7490:7509   */\n      tag_361\n      jump\t// in\n    tag_398:\n        /* \"#utility.yul\":7485:7509   */\n      swap2\n      pop\n        /* \"#utility.yul\":7523:7542   */\n      tag_399\n        /* \"#utility.yul\":7540:7541   */\n      dup4\n        /* \"#utility.yul\":7523:7542   */\n      tag_361\n      jump\t// in\n    tag_399:\n        /* \"#utility.yul\":7518:7542   */\n      swap3\n      pop\n        /* \"#utility.yul\":7561:7562   */\n      dup3\n        /* \"#utility.yul\":7551:7586   */\n      tag_400\n      jumpi\n        /* \"#utility.yul\":7566:7584   */\n      tag_401\n      tag_402\n      jump\t// in\n    tag_401:\n        /* \"#utility.yul\":7551:7586   */\n    tag_400:\n        /* \"#utility.yul\":7752:7753   */\n      0x01\n        /* \"#utility.yul\":7749:7750   */\n      0x00\n        /* \"#utility.yul\":7745:7754   */\n      sub\n        /* \"#utility.yul\":7742:7743   */\n      dup4\n        /* \"#utility.yul\":7739:7755   */\n      eq\n        /* \"#utility.yul\":7658:7724   */\n      0x8000000000000000000000000000000000000000000000000000000000000000\n        /* \"#utility.yul\":7655:7656   */\n      dup4\n        /* \"#utility.yul\":7652:7725   */\n      eq\n        /* \"#utility.yul\":7635:7765   */\n      and\n        /* \"#utility.yul\":7632:7788   */\n      iszero\n      tag_403\n      jumpi\n        /* \"#utility.yul\":7768:7786   */\n      tag_404\n      tag_389\n      jump\t// in\n    tag_404:\n        /* \"#utility.yul\":7632:7788   */\n    tag_403:\n        /* \"#utility.yul\":7811:7812   */\n      dup3\n        /* \"#utility.yul\":7808:7809   */\n      dup3\n        /* \"#utility.yul\":7803:7813   */\n      sdiv\n        /* \"#utility.yul\":7798:7813   */\n      swap1\n      pop\n        /* \"#utility.yul\":7434:7819   */\n      swap3\n      swap2\n      pop\n      pop\n      jump\t// out\n        /* \"#utility.yul\":7825:8010   */\n    tag_157:\n        /* \"#utility.yul\":7865:7866   */\n      0x00\n        /* \"#utility.yul\":7882:7902   */\n      tag_406\n        /* \"#utility.yul\":7900:7901   */\n      dup3\n        /* \"#utility.yul\":7882:7902   */\n      tag_365\n      jump\t// in\n    tag_406:\n        /* \"#utility.yul\":7877:7902   */\n      swap2\n      pop\n        /* \"#utility.yul\":7916:7936   */\n      tag_407\n        /* \"#utility.yul\":7934:7935   */\n      dup4\n        /* \"#utility.yul\":7916:7936   */\n      tag_365\n      jump\t// in\n    tag_407:\n        /* \"#utility.yul\":7911:7936   */\n      swap3\n      pop\n        /* \"#utility.yul\":7955:7956   */\n      dup3\n        /* \"#utility.yul\":7945:7980   */\n      tag_408\n      jumpi\n        /* \"#utility.yul\":7960:7978   */\n      tag_409\n      tag_402\n      jump\t// in\n    tag_409:\n        /* \"#utility.yul\":7945:7980   */\n    tag_408:\n        /* \"#utility.yul\":8002:8003   */\n      dup3\n        /* \"#utility.yul\":7999:8000   */\n      dup3\n        /* \"#utility.yul\":7995:8004   */\n      div\n        /* \"#utility.yul\":7990:8004   */\n      swap1\n      pop\n        /* \"#utility.yul\":7825:8010   */\n      swap3\n      swap2\n      pop\n      pop\n      jump\t// out\n        /* \"#utility.yul\":8016:8864   */\n    tag_410:\n        /* \"#utility.yul\":8077:8082   */\n      0x00\n        /* \"#utility.yul\":8084:8088   */\n      dup1\n        /* \"#utility.yul\":8108:8114   */\n      dup3\n        /* \"#utility.yul\":8099:8114   */\n      swap2\n      pop\n        /* \"#utility.yul\":8132:8137   */\n      dup4\n        /* \"#utility.yul\":8123:8137   */\n      swap1\n      pop\n        /* \"#utility.yul\":8146:8858   */\n    tag_412:\n        /* \"#utility.yul\":8167:8168   */\n      0x01\n        /* \"#utility.yul\":8157:8165   */\n      dup6\n        /* \"#utility.yul\":8154:8169   */\n      gt\n        /* \"#utility.yul\":8146:8858   */\n      iszero\n      tag_414\n      jumpi\n        /* \"#utility.yul\":8262:8266   */\n      dup1\n        /* \"#utility.yul\":8257:8260   */\n      dup7\n        /* \"#utility.yul\":8253:8267   */\n      div\n        /* \"#utility.yul\":8247:8251   */\n      dup2\n        /* \"#utility.yul\":8244:8268   */\n      gt\n        /* \"#utility.yul\":8241:8291   */\n      iszero\n      tag_415\n      jumpi\n        /* \"#utility.yul\":8271:8289   */\n      tag_416\n      tag_389\n      jump\t// in\n    tag_416:\n        /* \"#utility.yul\":8241:8291   */\n    tag_415:\n        /* \"#utility.yul\":8321:8322   */\n      0x01\n        /* \"#utility.yul\":8311:8319   */\n      dup6\n        /* \"#utility.yul\":8307:8323   */\n      and\n        /* \"#utility.yul\":8304:8755   */\n      iszero\n      tag_417\n      jumpi\n        /* \"#utility.yul\":8736:8740   */\n      dup1\n        /* \"#utility.yul\":8729:8734   */\n      dup3\n        /* \"#utility.yul\":8725:8741   */\n      mul\n        /* \"#utility.yul\":8716:8741   */\n      swap2\n      pop\n        /* \"#utility.yul\":8304:8755   */\n    tag_417:\n        /* \"#utility.yul\":8786:8790   */\n      dup1\n        /* \"#utility.yul\":8780:8784   */\n      dup2\n        /* \"#utility.yul\":8776:8791   */\n      mul\n        /* \"#utility.yul\":8768:8791   */\n      swap1\n      pop\n        /* \"#utility.yul\":8816:8848   */\n      tag_418\n        /* \"#utility.yul\":8839:8847   */\n      dup6\n        /* \"#utility.yul\":8816:8848   */\n      tag_419\n      jump\t// in\n    tag_418:\n        /* \"#utility.yul\":8804:8848   */\n      swap5\n      pop\n        /* \"#utility.yul\":8146:8858   */\n      jump(tag_412)\n    tag_414:\n        /* \"#utility.yul\":8016:8864   */\n      swap5\n      pop\n      swap5\n      swap3\n      pop\n      pop\n      pop\n      jump\t// out\n        /* \"#utility.yul\":8870:9155   */\n    tag_86:\n        /* \"#utility.yul\":8930:8935   */\n      0x00\n        /* \"#utility.yul\":8954:8977   */\n      tag_421\n        /* \"#utility.yul\":8972:8976   */\n      dup3\n        /* \"#utility.yul\":8954:8977   */\n      tag_365\n      jump\t// in\n    tag_421:\n        /* \"#utility.yul\":8946:8977   */\n      swap2\n      pop\n        /* \"#utility.yul\":8998:9025   */\n      tag_422\n        /* \"#utility.yul\":9016:9024   */\n      dup4\n        /* \"#utility.yul\":8998:9025   */\n      tag_365\n      jump\t// in\n    tag_422:\n        /* \"#utility.yul\":8986:9025   */\n      swap3\n      pop\n        /* \"#utility.yul\":9044:9148   */\n      tag_423\n        /* \"#utility.yul\":9081:9147   */\n      0xffffffffffffffffffffffffffffffffffffffffffffffffffffffffffffffff\n        /* \"#utility.yul\":9071:9079   */\n      dup5\n        /* \"#utility.yul\":9065:9069   */\n      dup5\n        /* \"#utility.yul\":9044:9148   */\n      tag_424\n      jump\t// in\n    tag_423:\n        /* \"#utility.yul\":9035:9148   */\n      swap1\n      pop\n        /* \"#utility.yul\":8870:9155   */\n      swap3\n      swap2\n      pop\n      pop\n      jump\t// out\n        /* \"#utility.yul\":9161:10234   */\n    tag_424:\n        /* \"#utility.yul\":9215:9220   */\n      0x00\n        /* \"#utility.yul\":9406:9414   */\n      dup3\n        /* \"#utility.yul\":9396:9436   */\n      tag_426\n      jumpi\n        /* \"#utility.yul\":9427:9428   */\n      0x01\n        /* \"#utility.yul\":9418:9428   */\n      swap1\n      pop\n        /* \"#utility.yul\":9429:9434   */\n      jump(tag_425)\n        /* \"#utility.yul\":9396:9436   */\n    tag_426:\n        /* \"#utility.yul\":9455:9459   */\n      dup2\n        /* \"#utility.yul\":9445:9481   */\n      tag_427\n      jumpi\n        /* \"#utility.yul\":9472:9473   */\n      0x00\n        /* \"#utility.yul\":9463:9473   */\n      swap1\n      pop\n        /* \"#utility.yul\":9474:9479   */\n      jump(tag_425)\n        /* \"#utility.yul\":9445:9481   */\n    tag_427:\n        /* \"#utility.yul\":9541:9545   */\n      dup2\n        /* \"#utility.yul\":9589:9590   */\n      0x01\n        /* \"#utility.yul\":9584:9611   */\n      dup2\n      eq\n      tag_429\n      jumpi\n        /* \"#utility.yul\":9625:9626   */\n      0x02\n        /* \"#utility.yul\":9620:9811   */\n      dup2\n      eq\n      tag_430\n      jumpi\n        /* \"#utility.yul\":9534:9811   */\n      jump(tag_428)\n        /* \"#utility.yul\":9584:9611   */\n    tag_429:\n        /* \"#utility.yul\":9602:9603   */\n      0x01\n        /* \"#utility.yul\":9593:9603   */\n      swap2\n      pop\n        /* \"#utility.yul\":9604:9609   */\n      pop\n      jump(tag_425)\n        /* \"#utility.yul\":9620:9811   */\n    tag_430:\n        /* \"#utility.yul\":9665:9668   */\n      0xff\n        /* \"#utility.yul\":9655:9663   */\n      dup5\n        /* \"#utility.yul\":9652:9669   */\n      gt\n        /* \"#utility.yul\":9649:9692   */\n      iszero\n      tag_431\n      jumpi\n        /* \"#utility.yul\":9672:9690   */\n      tag_432\n      tag_389\n      jump\t// in\n    tag_432:\n        /* \"#utility.yul\":9649:9692   */\n    tag_431:\n        /* \"#utility.yul\":9721:9729   */\n      dup4\n        /* \"#utility.yul\":9718:9719   */\n      0x02\n        /* \"#utility.yul\":9714:9730   */\n      exp\n        /* \"#utility.yul\":9705:9730   */\n      swap2\n      pop\n        /* \"#utility.yul\":9756:9759   */\n      dup5\n        /* \"#utility.yul\":9749:9754   */\n      dup3\n        /* \"#utility.yul\":9746:9760   */\n      gt\n        /* \"#utility.yul\":9743:9783   */\n      iszero\n      tag_433\n      jumpi\n        /* \"#utility.yul\":9763:9781   */\n      tag_434\n      tag_389\n      jump\t// in\n    tag_434:\n        /* \"#utility.yul\":9743:9783   */\n    tag_433:\n        /* \"#utility.yul\":9796:9801   */\n      pop\n      jump(tag_425)\n        /* \"#utility.yul\":9534:9811   */\n    tag_428:\n      pop\n        /* \"#utility.yul\":9920:9922   */\n      0x20\n        /* \"#utility.yul\":9910:9918   */\n      dup4\n        /* \"#utility.yul\":9907:9923   */\n      lt\n        /* \"#utility.yul\":9901:9904   */\n      0x0133\n        /* \"#utility.yul\":9895:9899   */\n      dup4\n        /* \"#utility.yul\":9892:9905   */\n      lt\n        /* \"#utility.yul\":9888:9924   */\n      and\n        /* \"#utility.yul\":9870:9872   */\n      0x4e\n        /* \"#utility.yul\":9860:9868   */\n      dup5\n        /* \"#utility.yul\":9857:9873   */\n      lt\n        /* \"#utility.yul\":9852:9854   */\n      0x0b\n        /* \"#utility.yul\":9846:9850   */\n      dup5\n        /* \"#utility.yul\":9843:9855   */\n      lt\n        /* \"#utility.yul\":9839:9874   */\n      and\n        /* \"#utility.yul\":9823:9934   */\n      or\n        /* \"#utility.yul\":9820:10066   */\n      iszero\n      tag_435\n      jumpi\n        /* \"#utility.yul\":9976:9984   */\n      dup3\n        /* \"#utility.yul\":9970:9974   */\n      dup3\n        /* \"#utility.yul\":9966:9985   */\n      exp\n        /* \"#utility.yul\":9957:9985   */\n      swap1\n      pop\n        /* \"#utility.yul\":10011:10014   */\n      dup4\n        /* \"#utility.yul\":10004:10009   */\n      dup2\n        /* \"#utility.yul\":10001:10015   */\n      gt\n        /* \"#utility.yul\":9998:10038   */\n      iszero\n      tag_436\n      jumpi\n        /* \"#utility.yul\":10018:10036   */\n      tag_437\n      tag_389\n      jump\t// in\n    tag_437:\n        /* \"#utility.yul\":9998:10038   */\n    tag_436:\n        /* \"#utility.yul\":10051:10056   */\n      jump(tag_425)\n        /* \"#utility.yul\":9820:10066   */\n    tag_435:\n        /* \"#utility.yul\":10091:10133   */\n      tag_438\n        /* \"#utility.yul\":10129:10132   */\n      dup5\n        /* \"#utility.yul\":10119:10127   */\n      dup5\n        /* \"#utility.yul\":10113:10117   */\n      dup5\n        /* \"#utility.yul\":10110:10111   */\n      0x01\n        /* \"#utility.yul\":10091:10133   */\n      tag_410\n      jump\t// in\n    tag_438:\n        /* \"#utility.yul\":10076:10133   */\n      swap3\n      pop\n      swap1\n      pop\n        /* \"#utility.yul\":10165:10169   */\n      dup2\n        /* \"#utility.yul\":10160:10163   */\n      dup5\n        /* \"#utility.yul\":10156:10170   */\n      div\n        /* \"#utility.yul\":10149:10154   */\n      dup2\n        /* \"#utility.yul\":10146:10171   */\n      gt\n        /* \"#utility.yul\":10143:10194   */\n      iszero\n      tag_439\n      jumpi\n        /* \"#utility.yul\":10174:10192   */\n      tag_440\n      tag_389\n      jump\t// in\n    tag_440:\n        /* \"#utility.yul\":10143:10194   */\n    tag_439:\n        /* \"#utility.yul\":10223:10227   */\n      dup2\n        /* \"#utility.yul\":10216:10221   */\n      dup2\n        /* \"#utility.yul\":10212:10228   */\n      mul\n        /* \"#utility.yul\":10203:10228   */\n      swap1\n      pop\n        /* \"#utility.yul\":9161:10234   */\n    tag_425:\n      swap4\n      swap3\n      pop\n      pop\n      pop\n      jump\t// out\n        /* \"#utility.yul\":10240:11231   */\n    tag_200:\n        /* \"#utility.yul\":10279:10286   */\n      0x00\n        /* \"#utility.yul\":10302:10321   */\n      tag_442\n        /* \"#utility.yul\":10319:10320   */\n      dup3\n        /* \"#utility.yul\":10302:10321   */\n      tag_361\n      jump\t// in\n    tag_442:\n        /* \"#utility.yul\":10297:10321   */\n      swap2\n      pop\n        /* \"#utility.yul\":10335:10354   */\n      tag_443\n        /* \"#utility.yul\":10352:10353   */\n      dup4\n        /* \"#utility.yul\":10335:10354   */\n      tag_361\n      jump\t// in\n    tag_443:\n        /* \"#utility.yul\":10330:10354   */\n      swap3\n      pop\n        /* \"#utility.yul\":10536:10537   */\n      dup3\n        /* \"#utility.yul\":10468:10534   */\n      0x7fffffffffffffffffffffffffffffffffffffffffffffffffffffffffffffff\n        /* \"#utility.yul\":10464:10538   */\n      div\n        /* \"#utility.yul\":10461:10462   */\n      dup3\n        /* \"#utility.yul\":10458:10539   */\n      gt\n        /* \"#utility.yul\":10453:10454   */\n      0x00\n        /* \"#utility.yul\":10450:10451   */\n      dup5\n        /* \"#utility.yul\":10446:10455   */\n      sgt\n        /* \"#utility.yul\":10442:10443   */\n      0x00\n        /* \"#utility.yul\":10439:10440   */\n      dup5\n        /* \"#utility.yul\":10435:10444   */\n      sgt\n        /* \"#utility.yul\":10431:10456   */\n      and\n        /* \"#utility.yul\":10427:10540   */\n      and\n        /* \"#utility.yul\":10424:10563   */\n      iszero\n      tag_444\n      jumpi\n        /* \"#utility.yul\":10543:10561   */\n      tag_445\n      tag_389\n      jump\t// in\n    tag_445:\n        /* \"#utility.yul\":10424:10563   */\n    tag_444:\n        /* \"#utility.yul\":10747:10748   */\n      dup2\n        /* \"#utility.yul\":10679:10745   */\n      0x8000000000000000000000000000000000000000000000000000000000000000\n        /* \"#utility.yul\":10674:10749   */\n      sdiv\n        /* \"#utility.yul\":10671:10672   */\n      dup4\n        /* \"#utility.yul\":10667:10750   */\n      slt\n        /* \"#utility.yul\":10662:10663   */\n      0x00\n        /* \"#utility.yul\":10659:10660   */\n      dup5\n        /* \"#utility.yul\":10655:10664   */\n      slt\n        /* \"#utility.yul\":10651:10652   */\n      0x00\n        /* \"#utility.yul\":10648:10649   */\n      dup5\n        /* \"#utility.yul\":10644:10653   */\n      sgt\n        /* \"#utility.yul\":10640:10665   */\n      and\n        /* \"#utility.yul\":10636:10751   */\n      and\n        /* \"#utility.yul\":10633:10774   */\n      iszero\n      tag_446\n      jumpi\n        /* \"#utility.yul\":10754:10772   */\n      tag_447\n      tag_389\n      jump\t// in\n    tag_447:\n        /* \"#utility.yul\":10633:10774   */\n    tag_446:\n        /* \"#utility.yul\":10958:10959   */\n      dup3\n        /* \"#utility.yul\":10890:10956   */\n      0x8000000000000000000000000000000000000000000000000000000000000000\n        /* \"#utility.yul\":10885:10960   */\n      sdiv\n        /* \"#utility.yul\":10882:10883   */\n      dup3\n        /* \"#utility.yul\":10878:10961   */\n      slt\n        /* \"#utility.yul\":10873:10874   */\n      0x00\n        /* \"#utility.yul\":10870:10871   */\n      dup5\n        /* \"#utility.yul\":10866:10875   */\n      sgt\n        /* \"#utility.yul\":10862:10863   */\n      0x00\n        /* \"#utility.yul\":10859:10860   */\n      dup5\n        /* \"#utility.yul\":10855:10864   */\n      slt\n        /* \"#utility.yul\":10851:10876   */\n      and\n        /* \"#utility.yul\":10847:10962   */\n      and\n        /* \"#utility.yul\":10844:10985   */\n      iszero\n      tag_448\n      jumpi\n        /* \"#utility.yul\":10965:10983   */\n      tag_449\n      tag_389\n      jump\t// in\n    tag_449:\n        /* \"#utility.yul\":10844:10985   */\n    tag_448:\n        /* \"#utility.yul\":11168:11169   */\n      dup3\n        /* \"#utility.yul\":11100:11166   */\n      0x7fffffffffffffffffffffffffffffffffffffffffffffffffffffffffffffff\n        /* \"#utility.yul\":11095:11170   */\n      sdiv\n        /* \"#utility.yul\":11092:11093   */\n      dup3\n        /* \"#utility.yul\":11088:11171   */\n      slt\n        /* \"#utility.yul\":11083:11084   */\n      0x00\n        /* \"#utility.yul\":11080:11081   */\n      dup5\n        /* \"#utility.yul\":11076:11085   */\n      slt\n        /* \"#utility.yul\":11072:11073   */\n      0x00\n        /* \"#utility.yul\":11069:11070   */\n      dup5\n        /* \"#utility.yul\":11065:11074   */\n      slt\n        /* \"#utility.yul\":11061:11086   */\n      and\n        /* \"#utility.yul\":11057:11172   */\n      and\n        /* \"#utility.yul\":11054:11195   */\n      iszero\n      tag_450\n      jumpi\n        /* \"#utility.yul\":11175:11193   */\n      tag_451\n      tag_389\n      jump\t// in\n    tag_451:\n        /* \"#utility.yul\":11054:11195   */\n    tag_450:\n        /* \"#utility.yul\":11223:11224   */\n      dup3\n        /* \"#utility.yul\":11220:11221   */\n      dup3\n        /* \"#utility.yul\":11216:11225   */\n      mul\n        /* \"#utility.yul\":11205:11225   */\n      swap1\n      pop\n        /* \"#utility.yul\":10240:11231   */\n      swap3\n      swap2\n      pop\n      pop\n      jump\t// out\n        /* \"#utility.yul\":11237:11585   */\n    tag_147:\n        /* \"#utility.yul\":11277:11284   */\n      0x00\n        /* \"#utility.yul\":11300:11320   */\n      tag_453\n        /* \"#utility.yul\":11318:11319   */\n      dup3\n        /* \"#utility.yul\":11300:11320   */\n      tag_365\n      jump\t// in\n    tag_453:\n        /* \"#utility.yul\":11295:11320   */\n      swap2\n      pop\n        /* \"#utility.yul\":11334:11354   */\n      tag_454\n        /* \"#utility.yul\":11352:11353   */\n      dup4\n        /* \"#utility.yul\":11334:11354   */\n      tag_365\n      jump\t// in\n    tag_454:\n        /* \"#utility.yul\":11329:11354   */\n      swap3\n      pop\n        /* \"#utility.yul\":11522:11523   */\n      dup2\n        /* \"#utility.yul\":11454:11520   */\n      0xffffffffffffffffffffffffffffffffffffffffffffffffffffffffffffffff\n        /* \"#utility.yul\":11450:11524   */\n      div\n        /* \"#utility.yul\":11447:11448   */\n      dup4\n        /* \"#utility.yul\":11444:11525   */\n      gt\n        /* \"#utility.yul\":11439:11440   */\n      dup3\n        /* \"#utility.yul\":11432:11441   */\n      iszero\n        /* \"#utility.yul\":11425:11442   */\n      iszero\n        /* \"#utility.yul\":11421:11526   */\n      and\n        /* \"#utility.yul\":11418:11549   */\n      iszero\n      tag_455\n      jumpi\n        /* \"#utility.yul\":11529:11547   */\n      tag_456\n      tag_389\n      jump\t// in\n    tag_456:\n        /* \"#utility.yul\":11418:11549   */\n    tag_455:\n        /* \"#utility.yul\":11577:11578   */\n      dup3\n        /* \"#utility.yul\":11574:11575   */\n      dup3\n        /* \"#utility.yul\":11570:11579   */\n      mul\n        /* \"#utility.yul\":11559:11579   */\n      swap1\n      pop\n        /* \"#utility.yul\":11237:11585   */\n      swap3\n      swap2\n      pop\n      pop\n      jump\t// out\n        /* \"#utility.yul\":11591:12118   */\n    tag_207:\n        /* \"#utility.yul\":11630:11634   */\n      0x00\n        /* \"#utility.yul\":11650:11669   */\n      tag_458\n        /* \"#utility.yul\":11667:11668   */\n      dup3\n        /* \"#utility.yul\":11650:11669   */\n      tag_361\n      jump\t// in\n    tag_458:\n        /* \"#utility.yul\":11645:11669   */\n      swap2\n      pop\n        /* \"#utility.yul\":11683:11702   */\n      tag_459\n        /* \"#utility.yul\":11700:11701   */\n      dup4\n        /* \"#utility.yul\":11683:11702   */\n      tag_361\n      jump\t// in\n    tag_459:\n        /* \"#utility.yul\":11678:11702   */\n      swap3\n      pop\n        /* \"#utility.yul\":11872:11873   */\n      dup3\n        /* \"#utility.yul\":11804:11870   */\n      0x8000000000000000000000000000000000000000000000000000000000000000\n        /* \"#utility.yul\":11800:11874   */\n      add\n        /* \"#utility.yul\":11797:11798   */\n      dup3\n        /* \"#utility.yul\":11793:11875   */\n      slt\n        /* \"#utility.yul\":11788:11789   */\n      0x00\n        /* \"#utility.yul\":11785:11786   */\n      dup5\n        /* \"#utility.yul\":11781:11790   */\n      slt\n        /* \"#utility.yul\":11774:11791   */\n      iszero\n        /* \"#utility.yul\":11770:11876   */\n      and\n        /* \"#utility.yul\":11767:11899   */\n      iszero\n      tag_460\n      jumpi\n        /* \"#utility.yul\":11879:11897   */\n      tag_461\n      tag_389\n      jump\t// in\n    tag_461:\n        /* \"#utility.yul\":11767:11899   */\n    tag_460:\n        /* \"#utility.yul\":12058:12059   */\n      dup3\n        /* \"#utility.yul\":11990:12056   */\n      0x7fffffffffffffffffffffffffffffffffffffffffffffffffffffffffffffff\n        /* \"#utility.yul\":11986:12060   */\n      add\n        /* \"#utility.yul\":11983:11984   */\n      dup3\n        /* \"#utility.yul\":11979:12061   */\n      sgt\n        /* \"#utility.yul\":11975:11976   */\n      0x00\n        /* \"#utility.yul\":11972:11973   */\n      dup5\n        /* \"#utility.yul\":11968:11977   */\n      slt\n        /* \"#utility.yul\":11964:12062   */\n      and\n        /* \"#utility.yul\":11961:12085   */\n      iszero\n      tag_462\n      jumpi\n        /* \"#utility.yul\":12065:12083   */\n      tag_463\n      tag_389\n      jump\t// in\n    tag_463:\n        /* \"#utility.yul\":11961:12085   */\n    tag_462:\n        /* \"#utility.yul\":12110:12111   */\n      dup3\n        /* \"#utility.yul\":12107:12108   */\n      dup3\n        /* \"#utility.yul\":12103:12112   */\n      sub\n        /* \"#utility.yul\":12095:12112   */\n      swap1\n      pop\n        /* \"#utility.yul\":11591:12118   */\n      swap3\n      swap2\n      pop\n      pop\n      jump\t// out\n        /* \"#utility.yul\":12124:12315   */\n    tag_173:\n        /* \"#utility.yul\":12164:12168   */\n      0x00\n        /* \"#utility.yul\":12184:12204   */\n      tag_465\n        /* \"#utility.yul\":12202:12203   */\n      dup3\n        /* \"#utility.yul\":12184:12204   */\n      tag_365\n      jump\t// in\n    tag_465:\n        /* \"#utility.yul\":12179:12204   */\n      swap2\n      pop\n        /* \"#utility.yul\":12218:12238   */\n      tag_466\n        /* \"#utility.yul\":12236:12237   */\n      dup4\n        /* \"#utility.yul\":12218:12238   */\n      tag_365\n      jump\t// in\n    tag_466:\n        /* \"#utility.yul\":12213:12238   */\n      swap3\n      pop\n        /* \"#utility.yul\":12257:12258   */\n      dup3\n        /* \"#utility.yul\":12254:12255   */\n      dup3\n        /* \"#utility.yul\":12251:12259   */\n      lt\n        /* \"#utility.yul\":12248:12282   */\n      iszero\n      tag_467\n      jumpi\n        /* \"#utility.yul\":12262:12280   */\n      tag_468\n      tag_389\n      jump\t// in\n    tag_468:\n        /* \"#utility.yul\":12248:12282   */\n    tag_467:\n        /* \"#utility.yul\":12307:12308   */\n      dup3\n        /* \"#utility.yul\":12304:12305   */\n      dup3\n        /* \"#utility.yul\":12300:12309   */\n      sub\n        /* \"#utility.yul\":12292:12309   */\n      swap1\n      pop\n        /* \"#utility.yul\":12124:12315   */\n      swap3\n      swap2\n      pop\n      pop\n      jump\t// out\n        /* \"#utility.yul\":12321:12417   */\n    tag_469:\n        /* \"#utility.yul\":12358:12365   */\n      0x00\n        /* \"#utility.yul\":12387:12411   */\n      tag_471\n        /* \"#utility.yul\":12405:12410   */\n      dup3\n        /* \"#utility.yul\":12387:12411   */\n      tag_472\n      jump\t// in\n    tag_471:\n        /* \"#utility.yul\":12376:12411   */\n      swap1\n      pop\n        /* \"#utility.yul\":12321:12417   */\n      swap2\n      swap1\n      pop\n      jump\t// out\n        /* \"#utility.yul\":12423:12513   */\n    tag_473:\n        /* \"#utility.yul\":12457:12464   */\n      0x00\n        /* \"#utility.yul\":12500:12505   */\n      dup2\n        /* \"#utility.yul\":12493:12506   */\n      iszero\n        /* \"#utility.yul\":12486:12507   */\n      iszero\n        /* \"#utility.yul\":12475:12507   */\n      swap1\n      pop\n        /* \"#utility.yul\":12423:12513   */\n      swap2\n      swap1\n      pop\n      jump\t// out\n        /* \"#utility.yul\":12519:12627   */\n    tag_475:\n        /* \"#utility.yul\":12568:12575   */\n      0x00\n        /* \"#utility.yul\":12597:12621   */\n      tag_477\n        /* \"#utility.yul\":12615:12620   */\n      dup3\n        /* \"#utility.yul\":12597:12621   */\n      tag_469\n      jump\t// in\n    tag_477:\n        /* \"#utility.yul\":12586:12621   */\n      swap1\n      pop\n        /* \"#utility.yul\":12519:12627   */\n      swap2\n      swap1\n      pop\n      jump\t// out\n        /* \"#utility.yul\":12633:12743   */\n    tag_478:\n        /* \"#utility.yul\":12684:12691   */\n      0x00\n        /* \"#utility.yul\":12713:12737   */\n      tag_480\n        /* \"#utility.yul\":12731:12736   */\n      dup3\n        /* \"#utility.yul\":12713:12737   */\n      tag_469\n      jump\t// in\n    tag_480:\n        /* \"#utility.yul\":12702:12737   */\n      swap1\n      pop\n        /* \"#utility.yul\":12633:12743   */\n      swap2\n      swap1\n      pop\n      jump\t// out\n        /* \"#utility.yul\":12749:12825   */\n    tag_361:\n        /* \"#utility.yul\":12785:12792   */\n      0x00\n        /* \"#utility.yul\":12814:12819   */\n      dup2\n        /* \"#utility.yul\":12803:12819   */\n      swap1\n      pop\n        /* \"#utility.yul\":12749:12825   */\n      swap2\n      swap1\n      pop\n      jump\t// out\n        /* \"#utility.yul\":12831:12957   */\n    tag_472:\n        /* \"#utility.yul\":12868:12875   */\n      0x00\n        /* \"#utility.yul\":12908:12950   */\n      0xffffffffffffffffffffffffffffffffffffffff\n        /* \"#utility.yul\":12901:12906   */\n      dup3\n        /* \"#utility.yul\":12897:12951   */\n      and\n        /* \"#utility.yul\":12886:12951   */\n      swap1\n      pop\n        /* \"#utility.yul\":12831:12957   */\n      swap2\n      swap1\n      pop\n      jump\t// out\n        /* \"#utility.yul\":12963:13040   */\n    tag_365:\n        /* \"#utility.yul\":13000:13007   */\n      0x00\n        /* \"#utility.yul\":13029:13034   */\n      dup2\n        /* \"#utility.yul\":13018:13034   */\n      swap1\n      pop\n        /* \"#utility.yul\":12963:13040   */\n      swap2\n      swap1\n      pop\n      jump\t// out\n        /* \"#utility.yul\":13046:13184   */\n    tag_353:\n        /* \"#utility.yul\":13108:13117   */\n      0x00\n        /* \"#utility.yul\":13141:13178   */\n      tag_485\n        /* \"#utility.yul\":13172:13177   */\n      dup3\n        /* \"#utility.yul\":13141:13178   */\n      tag_486\n      jump\t// in\n    tag_485:\n        /* \"#utility.yul\":13128:13178   */\n      swap1\n      pop\n        /* \"#utility.yul\":13046:13184   */\n      swap2\n      swap1\n      pop\n      jump\t// out\n        /* \"#utility.yul\":13190:13330   */\n    tag_357:\n        /* \"#utility.yul\":13254:13263   */\n      0x00\n        /* \"#utility.yul\":13287:13324   */\n      tag_488\n        /* \"#utility.yul\":13318:13323   */\n      dup3\n        /* \"#utility.yul\":13287:13324   */\n      tag_486\n      jump\t// in\n    tag_488:\n        /* \"#utility.yul\":13274:13324   */\n      swap1\n      pop\n        /* \"#utility.yul\":13190:13330   */\n      swap2\n      swap1\n      pop\n      jump\t// out\n        /* \"#utility.yul\":13336:13462   */\n    tag_486:\n        /* \"#utility.yul\":13386:13395   */\n      0x00\n        /* \"#utility.yul\":13419:13456   */\n      tag_490\n        /* \"#utility.yul\":13450:13455   */\n      dup3\n        /* \"#utility.yul\":13419:13456   */\n      tag_491\n      jump\t// in\n    tag_490:\n        /* \"#utility.yul\":13406:13456   */\n      swap1\n      pop\n        /* \"#utility.yul\":13336:13462   */\n      swap2\n      swap1\n      pop\n      jump\t// out\n        /* \"#utility.yul\":13468:13581   */\n    tag_491:\n        /* \"#utility.yul\":13518:13527   */\n      0x00\n        /* \"#utility.yul\":13551:13575   */\n      tag_493\n        /* \"#utility.yul\":13569:13574   */\n      dup3\n        /* \"#utility.yul\":13551:13575   */\n      tag_472\n      jump\t// in\n    tag_493:\n        /* \"#utility.yul\":13538:13575   */\n      swap1\n      pop\n        /* \"#utility.yul\":13468:13581   */\n      swap2\n      swap1\n      pop\n      jump\t// out\n        /* \"#utility.yul\":13587:13820   */\n    tag_246:\n        /* \"#utility.yul\":13626:13629   */\n      0x00\n        /* \"#utility.yul\":13649:13673   */\n      tag_495\n        /* \"#utility.yul\":13667:13672   */\n      dup3\n        /* \"#utility.yul\":13649:13673   */\n      tag_365\n      jump\t// in\n    tag_495:\n        /* \"#utility.yul\":13640:13673   */\n      swap2\n      pop\n        /* \"#utility.yul\":13695:13761   */\n      0xffffffffffffffffffffffffffffffffffffffffffffffffffffffffffffffff\n        /* \"#utility.yul\":13688:13693   */\n      dup3\n        /* \"#utility.yul\":13685:13762   */\n      eq\n        /* \"#utility.yul\":13682:13785   */\n      iszero\n      tag_496\n      jumpi\n        /* \"#utility.yul\":13765:13783   */\n      tag_497\n      tag_389\n      jump\t// in\n    tag_497:\n        /* \"#utility.yul\":13682:13785   */\n    tag_496:\n        /* \"#utility.yul\":13812:13813   */\n      0x01\n        /* \"#utility.yul\":13805:13810   */\n      dup3\n        /* \"#utility.yul\":13801:13814   */\n      add\n        /* \"#utility.yul\":13794:13814   */\n      swap1\n      pop\n        /* \"#utility.yul\":13587:13820   */\n      swap2\n      swap1\n      pop\n      jump\t// out\n        /* \"#utility.yul\":13826:14054   */\n    tag_278:\n        /* \"#utility.yul\":13861:13864   */\n      0x00\n        /* \"#utility.yul\":13884:13907   */\n      tag_499\n        /* \"#utility.yul\":13901:13906   */\n      dup3\n        /* \"#utility.yul\":13884:13907   */\n      tag_361\n      jump\t// in\n    tag_499:\n        /* \"#utility.yul\":13875:13907   */\n      swap2\n      pop\n        /* \"#utility.yul\":13929:13995   */\n      0x8000000000000000000000000000000000000000000000000000000000000000\n        /* \"#utility.yul\":13922:13927   */\n      dup3\n        /* \"#utility.yul\":13919:13996   */\n      eq\n        /* \"#utility.yul\":13916:14019   */\n      iszero\n      tag_500\n      jumpi\n        /* \"#utility.yul\":13999:14017   */\n      tag_501\n      tag_389\n      jump\t// in\n    tag_501:\n        /* \"#utility.yul\":13916:14019   */\n    tag_500:\n        /* \"#utility.yul\":14042:14047   */\n      dup2\n        /* \"#utility.yul\":14039:14040   */\n      0x00\n        /* \"#utility.yul\":14035:14048   */\n      sub\n        /* \"#utility.yul\":14028:14048   */\n      swap1\n      pop\n        /* \"#utility.yul\":13826:14054   */\n      swap2\n      swap1\n      pop\n      jump\t// out\n        /* \"#utility.yul\":14060:14240   */\n    tag_185:\n        /* \"#utility.yul\":14108:14185   */\n      0x4e487b7100000000000000000000000000000000000000000000000000000000\n        /* \"#utility.yul\":14105:14106   */\n      0x00\n        /* \"#utility.yul\":14098:14186   */\n      mstore\n        /* \"#utility.yul\":14205:14209   */\n      0x01\n        /* \"#utility.yul\":14202:14203   */\n      0x04\n        /* \"#utility.yul\":14195:14210   */\n      mstore\n        /* \"#utility.yul\":14229:14233   */\n      0x24\n        /* \"#utility.yul\":14226:14227   */\n      0x00\n        /* \"#utility.yul\":14219:14234   */\n      revert\n        /* \"#utility.yul\":14246:14426   */\n    tag_389:\n        /* \"#utility.yul\":14294:14371   */\n      0x4e487b7100000000000000000000000000000000000000000000000000000000\n        /* \"#utility.yul\":14291:14292   */\n      0x00\n        /* \"#utility.yul\":14284:14372   */\n      mstore\n        /* \"#utility.yul\":14391:14395   */\n      0x11\n        /* \"#utility.yul\":14388:14389   */\n      0x04\n        /* \"#utility.yul\":14381:14396   */\n      mstore\n        /* \"#utility.yul\":14415:14419   */\n      0x24\n        /* \"#utility.yul\":14412:14413   */\n      0x00\n        /* \"#utility.yul\":14405:14420   */\n      revert\n        /* \"#utility.yul\":14432:14612   */\n    tag_402:\n        /* \"#utility.yul\":14480:14557   */\n      0x4e487b7100000000000000000000000000000000000000000000000000000000\n        /* \"#utility.yul\":14477:14478   */\n      0x00\n        /* \"#utility.yul\":14470:14558   */\n      mstore\n        /* \"#utility.yul\":14577:14581   */\n      0x12\n        /* \"#utility.yul\":14574:14575   */\n      0x04\n        /* \"#utility.yul\":14567:14582   */\n      mstore\n        /* \"#utility.yul\":14601:14605   */\n      0x24\n        /* \"#utility.yul\":14598:14599   */\n      0x00\n        /* \"#utility.yul\":14591:14606   */\n      revert\n        /* \"#utility.yul\":14618:14798   */\n    tag_243:\n        /* \"#utility.yul\":14666:14743   */\n      0x4e487b7100000000000000000000000000000000000000000000000000000000\n        /* \"#utility.yul\":14663:14664   */\n      0x00\n        /* \"#utility.yul\":14656:14744   */\n      mstore\n        /* \"#utility.yul\":14763:14767   */\n      0x32\n        /* \"#utility.yul\":14760:14761   */\n      0x04\n        /* \"#utility.yul\":14753:14768   */\n      mstore\n        /* \"#utility.yul\":14787:14791   */\n      0x24\n        /* \"#utility.yul\":14784:14785   */\n      0x00\n        /* \"#utility.yul\":14777:14792   */\n      revert\n        /* \"#utility.yul\":14927:15044   */\n    tag_319:\n        /* \"#utility.yul\":15036:15037   */\n      0x00\n        /* \"#utility.yul\":15033:15034   */\n      dup1\n        /* \"#utility.yul\":15026:15038   */\n      revert\n        /* \"#utility.yul\":15050:15152   */\n    tag_419:\n        /* \"#utility.yul\":15092:15100   */\n      0x00\n        /* \"#utility.yul\":15139:15144   */\n      dup2\n        /* \"#utility.yul\":15136:15137   */\n      0x01\n        /* \"#utility.yul\":15132:15145   */\n      shr\n        /* \"#utility.yul\":15111:15145   */\n      swap1\n      pop\n        /* \"#utility.yul\":15050:15152   */\n      swap2\n      swap1\n      pop\n      jump\t// out\n        /* \"#utility.yul\":15158:15274   */\n    tag_296:\n        /* \"#utility.yul\":15228:15249   */\n      tag_511\n        /* \"#utility.yul\":15243:15248   */\n      dup2\n        /* \"#utility.yul\":15228:15249   */\n      tag_473\n      jump\t// in\n    tag_511:\n        /* \"#utility.yul\":15221:15226   */\n      dup2\n        /* \"#utility.yul\":15218:15250   */\n      eq\n        /* \"#utility.yul\":15208:15268   */\n      tag_512\n      jumpi\n        /* \"#utility.yul\":15264:15265   */\n      0x00\n        /* \"#utility.yul\":15261:15262   */\n      dup1\n        /* \"#utility.yul\":15254:15266   */\n      revert\n        /* \"#utility.yul\":15208:15268   */\n    tag_512:\n        /* \"#utility.yul\":15158:15274   */\n      pop\n      jump\t// out\n        /* \"#utility.yul\":15280:15426   */\n    tag_300:\n        /* \"#utility.yul\":15365:15401   */\n      tag_514\n        /* \"#utility.yul\":15395:15400   */\n      dup2\n        /* \"#utility.yul\":15365:15401   */\n      tag_475\n      jump\t// in\n    tag_514:\n        /* \"#utility.yul\":15358:15363   */\n      dup2\n        /* \"#utility.yul\":15355:15402   */\n      eq\n        /* \"#utility.yul\":15345:15420   */\n      tag_515\n      jumpi\n        /* \"#utility.yul\":15416:15417   */\n      0x00\n        /* \"#utility.yul\":15413:15414   */\n      dup1\n        /* \"#utility.yul\":15406:15418   */\n      revert\n        /* \"#utility.yul\":15345:15420   */\n    tag_515:\n        /* \"#utility.yul\":15280:15426   */\n      pop\n      jump\t// out\n        /* \"#utility.yul\":15432:15582   */\n    tag_304:\n        /* \"#utility.yul\":15519:15557   */\n      tag_517\n        /* \"#utility.yul\":15551:15556   */\n      dup2\n        /* \"#utility.yul\":15519:15557   */\n      tag_478\n      jump\t// in\n    tag_517:\n        /* \"#utility.yul\":15512:15517   */\n      dup2\n        /* \"#utility.yul\":15509:15558   */\n      eq\n        /* \"#utility.yul\":15499:15576   */\n      tag_518\n      jumpi\n        /* \"#utility.yul\":15572:15573   */\n      0x00\n        /* \"#utility.yul\":15569:15570   */\n      dup1\n        /* \"#utility.yul\":15562:15574   */\n      revert\n        /* \"#utility.yul\":15499:15576   */\n    tag_518:\n        /* \"#utility.yul\":15432:15582   */\n      pop\n      jump\t// out\n        /* \"#utility.yul\":15588:15708   */\n    tag_308:\n        /* \"#utility.yul\":15660:15683   */\n      tag_520\n        /* \"#utility.yul\":15677:15682   */\n      dup2\n        /* \"#utility.yul\":15660:15683   */\n      tag_361\n      jump\t// in\n    tag_520:\n        /* \"#utility.yul\":15653:15658   */\n      dup2\n        /* \"#utility.yul\":15650:15684   */\n      eq\n        /* \"#utility.yul\":15640:15702   */\n      tag_521\n      jumpi\n        /* \"#utility.yul\":15698:15699   */\n      0x00\n        /* \"#utility.yul\":15695:15696   */\n      dup1\n        /* \"#utility.yul\":15688:15700   */\n      revert\n        /* \"#utility.yul\":15640:15702   */\n    tag_521:\n        /* \"#utility.yul\":15588:15708   */\n      pop\n      jump\t// out\n        /* \"#utility.yul\":15714:15836   */\n    tag_312:\n        /* \"#utility.yul\":15787:15811   */\n      tag_523\n        /* \"#utility.yul\":15805:15810   */\n      dup2\n        /* \"#utility.yul\":15787:15811   */\n      tag_365\n      jump\t// in\n    tag_523:\n        /* \"#utility.yul\":15780:15785   */\n      dup2\n        /* \"#utility.yul\":15777:15812   */\n      eq\n        /* \"#utility.yul\":15767:15830   */\n      tag_524\n      jumpi\n        /* \"#utility.yul\":15826:15827   */\n      0x00\n        /* \"#utility.yul\":15823:15824   */\n      dup1\n        /* \"#utility.yul\":15816:15828   */\n      revert\n        /* \"#utility.yul\":15767:15830   */\n    tag_524:\n        /* \"#utility.yul\":15714:15836   */\n      pop\n      jump\t// out\n\n    auxdata: 0xa2646970667358221220a268477565d2245838e11e38b3e54a7fda01963ec568880ddab160fea849878f64736f6c63430008070033\n}\n",
				"bytecode": {
					"linkReferences": {},
					"object": "608060405234801561001057600080fd5b50611c71806100206000396000f3fe608060405234801561001057600080fd5b506004361061010b5760003560e01c8063900cf0cf116100a2578063af14052c11610071578063af14052c14610282578063cd6dc6871461028c578063d94ad837146102a8578063e9fa88a4146102c6578063f4fefa49146102e25761010b565b8063900cf0cf1461020c5780639db59b2f1461022a5780639e30bac514610248578063ab33c5ca146102645761010b565b80635ee01540116100de5780635ee015401461019657806360961528146101b45780637486cdea146101d25780638001066d146101f05761010b565b80633a785af1146101105780633d6a46e5146101405780634dafa35e1461015c57806353a15edc1461017a575b600080fd5b61012a60048036038101906101259190611264565b6102fe565b60405161013791906113d7565b60405180910390f35b61015a6004803603810190610155919061120a565b6104d0565b005b610164610514565b60405161017191906113a1565b60405180910390f35b610194600480360381019061018f91906112cb565b610538565b005b61019e610542565b6040516101ab91906113d7565b60405180910390f35b6101bc610548565b6040516101c991906113bc565b60405180910390f35b6101da61056e565b6040516101e791906113d7565b60405180910390f35b61020a60048036038101906102059190611237565b610574565b005b61021461058c565b60405161022191906113f2565b60405180910390f35b610232610592565b60405161023f91906113d7565b60405180910390f35b610262600480360381019061025d919061120a565b610598565b005b61026c6105dc565b60405161027991906113bc565b60405180910390f35b61028a610602565b005b6102a660048036038101906102a191906111ca565b610b41565b005b6102b0610c57565b6040516102bd91906113f2565b60405180910390f35b6102e060048036038101906102db9190611237565b610c5d565b005b6102fc60048036038101906102f79190611237565b610c75565b005b600080610318866012600a6103139190611653565b610c8d565b9050600061033c6103298584610cd8565b6012600a6103379190611653565b610d40565b90506103566012600a61034f9190611653565b6064610cd8565b811315610378576103756012600a61036e9190611653565b6064610cd8565b90505b6103af6012600a6103899190611653565b7fffffffffffffffffffffffffffffffffffffffffffffffffffffffffffffff9c610cd8565b8112156103f0576103ed6012600a6103c79190611653565b7fffffffffffffffffffffffffffffffffffffffffffffffffffffffffffffff9c610cd8565b90505b6000610409826012600a6104049190611653565b610d93565b9050600081141561041f578693505050506104c8565b600061042b8789610c8d565b9050600061044f610449896012600a6104449190611653565b610cd8565b8a610d40565b905061047161046b826012600a6104669190611653565b610cd8565b84610d40565b9050600061048c6012600a6104869190611653565b83610c8d565b905060008a6104b16104ab866012600a6104a69190611653565b610cd8565b84610d40565b6104bb919061147b565b9050809750505050505050505b949350505050565b80600160006101000a81548173ffffffffffffffffffffffffffffffffffffffff021916908373ffffffffffffffffffffffffffffffffffffffff16021790555050565b60008054906101000a900473ffffffffffffffffffffffffffffffffffffffff1681565b8060048190555050565b60065481565b600260009054906101000a900473ffffffffffffffffffffffffffffffffffffffff1681565b60085481565b600081121561058257600080fd5b8060088190555050565b60055481565b60075481565b80600260006101000a81548173ffffffffffffffffffffffffffffffffffffffff021916908373ffffffffffffffffffffffffffffffffffffffff16021790555050565b600160009054906101000a900473ffffffffffffffffffffffffffffffffffffffff1681565b6001600554610611919061150f565b600581905550600080600160009054906101000a900473ffffffffffffffffffffffffffffffffffffffff1673ffffffffffffffffffffffffffffffffffffffff16633bc5de306040518163ffffffff1660e01b81526004016040805180830381600087803b15801561068357600080fd5b505af1158015610697573d6000803e3d6000fd5b505050506040513d601f19601f820116820180604052508101906106bb9190611325565b8092508193505050806106cd57600080fd5b60006106f16106e9846012600a6106e49190611653565b610efa565b600354610f3f565b9050600080600260009054906101000a900473ffffffffffffffffffffffffffffffffffffffff1673ffffffffffffffffffffffffffffffffffffffff16633bc5de306040518163ffffffff1660e01b81526004016040805180830381600087803b15801561075f57600080fd5b505af1158015610773573d6000803e3d6000fd5b505050506040513d601f19601f820116820180604052508101906107979190611325565b8092508193505050806107a957600080fd5b6012600a6107b79190611653565b620f42406107c59190611888565b8211156107eb576012600a6107da9190611653565b620f42406107e89190611888565b91505b60006107f78385610f67565b90506000811380156108f657506012600a6108129190611653565b620f42406108209190611888565b7f7fffffffffffffffffffffffffffffffffffffffffffffffffffffffffffffff61084b91906115cf565b8160008054906101000a900473ffffffffffffffffffffffffffffffffffffffff1673ffffffffffffffffffffffffffffffffffffffff166318160ddd6040518163ffffffff1660e01b815260040160206040518083038186803b1580156108b257600080fd5b505afa1580156108c6573d6000803e3d6000fd5b505050506040513d601f19601f820116820180604052508101906108ea91906112f8565b6108f4919061150f565b115b156109ed5760008054906101000a900473ffffffffffffffffffffffffffffffffffffffff1673ffffffffffffffffffffffffffffffffffffffff166318160ddd6040518163ffffffff1660e01b815260040160206040518083038186803b15801561096157600080fd5b505afa158015610975573d6000803e3d6000fd5b505050506040513d601f19601f8201168201806040525081019061099991906112f8565b6012600a6109a79190611653565b620f42406109b59190611888565b7f7fffffffffffffffffffffffffffffffffffffffffffffffffffffffffffffff6109e091906115cf565b6109ea9190611976565b90505b60008060009054906101000a900473ffffffffffffffffffffffffffffffffffffffff1673ffffffffffffffffffffffffffffffffffffffff16637a43e23f600554846040518363ffffffff1660e01b8152600401610a4d92919061140d565b602060405180830381600087803b158015610a6757600080fd5b505af1158015610a7b573d6000803e3d6000fd5b505050506040513d601f19601f82011682018060405250810190610a9f91906112f8565b90506012600a610aaf9190611653565b620f4240610abd9190611888565b7f7fffffffffffffffffffffffffffffffffffffffffffffffffffffffffffffff610ae891906115cf565b811115610af857610af7611afa565b5b6005547f41d948a7f29cc695f5d4b3ec147f766bffa165ddd317470fbe05c86d0a9c3e0485898542604051610b309493929190611436565b60405180910390a250505050505050565b60026012610b4f9190611976565b600a610b5b9190611653565b6005610b679190611888565b6004819055506012600a610b7b9190611653565b6003610b879190611888565b60088190555060026012610b9b9190611976565b600a610ba79190611653565b600a610bb39190611888565b60078190555060026012610bc79190611976565b600a610bd39190611653565b7ffffffffffffffffffffffffffffffffffffffffffffffffffffffffffffffff6610bfe9190611771565b6006819055506000600581905550816000806101000a81548173ffffffffffffffffffffffffffffffffffffffff021916908373ffffffffffffffffffffffffffffffffffffffff160217905550806003819055505050565b60045481565b6000811315610c6b57600080fd5b8060068190555050565b6000811215610c8357600080fd5b8060078190555050565b6000808284610c9c91906118e2565b905060008312158015610caf5750838113155b80610cc55750600083128015610cc457508381135b5b610cce57600080fd5b8091505092915050565b6000808284610ce79190611771565b905060ff6001901b81141580610d0b575060ff6001901b831660ff6001901b851614155b610d1457600080fd5b6000831480610d2d5750838382610d2b9190611565565b145b610d3657600080fd5b8091505092915050565b60007fffffffffffffffffffffffffffffffffffffffffffffffffffffffffffffffff82141580610d76575060ff6001901b8314155b610d7f57600080fd5b8183610d8b9190611565565b905092915050565b600080600090506000841215610db35760019050610db084611089565b93505b60006040518060a001604052806713a04bbdfdc9be898152602001671080e992061ab32b8152602001670f2243014e544ebb8152602001670e7e0178e9d6ed508152602001670e2e820ade835f4681525090506000610e128686610d40565b90506064811315610e2257600080fd5b6000610e32826001901b87610cd8565b90506000610e4988610e44858a610cd8565b610c8d565b90506000610e58886002610d40565b905060005b6005811015610ece57818312610eae57610e778383610c8d565b9250610eab610e9d85888460058110610e9357610e92611b87565b5b6020020151610cd8565b670de0b6b3a7640000610d40565b93505b610eb9826002610d40565b91508080610ec690611a68565b915050610e5d565b508515610eeb57610ee8610ee2898a610cd8565b84610d40565b92505b82965050505050505092915050565b600080831415610f0d5760009050610f39565b60008284610f1b9190611888565b9050828482610f2a91906115cf565b14610f3457600080fd5b809150505b92915050565b6000808211610f4d57600080fd5b60008284610f5b91906115cf565b90508091505092915050565b6000610f7383836110bd565b15610f815760009050611083565b60008290506000610fa8610fa2866012600a610f9d9190611653565b610cd8565b83610d40565b90506000610fbe826006546007546008546102fe565b905061107d61106a60008054906101000a900473ffffffffffffffffffffffffffffffffffffffff1673ffffffffffffffffffffffffffffffffffffffff166318160ddd6040518163ffffffff1660e01b815260040160206040518083038186803b15801561102c57600080fd5b505afa158015611040573d6000803e3d6000fd5b505050506040513d601f19601f8201168201806040525081019061106491906112f8565b83610cd8565b6012600a6110789190611653565b610d40565b93505050505b92915050565b600060ff6001901b82141561109d57600080fd5b600082126110ab57816110b6565b816110b590611ab1565b5b9050919050565b6000806110e26110cf84600454610efa565b6012600a6110dd9190611653565b610f3f565b90508284101580156110fc5750806110fa8585611123565b105b8061111a575082841080156111195750806111178486611123565b105b5b91505092915050565b60008282111561113257600080fd5b600082846111409190611976565b90508091505092915050565b60008151905061115b81611bc8565b92915050565b60008135905061117081611bdf565b92915050565b60008135905061118581611bf6565b92915050565b60008135905061119a81611c0d565b92915050565b6000813590506111af81611c24565b92915050565b6000815190506111c481611c24565b92915050565b600080604083850312156111e1576111e0611bb6565b5b60006111ef85828601611161565b9250506020611200858286016111a0565b9150509250929050565b6000602082840312156112205761121f611bb6565b5b600061122e84828501611176565b91505092915050565b60006020828403121561124d5761124c611bb6565b5b600061125b8482850161118b565b91505092915050565b6000806000806080858703121561127e5761127d611bb6565b5b600061128c8782880161118b565b945050602061129d8782880161118b565b93505060406112ae8782880161118b565b92505060606112bf8782880161118b565b91505092959194509250565b6000602082840312156112e1576112e0611bb6565b5b60006112ef848285016111a0565b91505092915050565b60006020828403121561130e5761130d611bb6565b5b600061131c848285016111b5565b91505092915050565b6000806040838503121561133c5761133b611bb6565b5b600061134a858286016111b5565b925050602061135b8582860161114c565b9150509250929050565b61136e81611a20565b82525050565b61137d81611a32565b82525050565b61138c816119ec565b82525050565b61139b81611a16565b82525050565b60006020820190506113b66000830184611365565b92915050565b60006020820190506113d16000830184611374565b92915050565b60006020820190506113ec6000830184611383565b92915050565b60006020820190506114076000830184611392565b92915050565b60006040820190506114226000830185611392565b61142f6020830184611383565b9392505050565b600060808201905061144b6000830187611392565b6114586020830186611392565b6114656040830185611383565b6114726060830184611392565b95945050505050565b6000611486826119ec565b9150611491836119ec565b9250817f7fffffffffffffffffffffffffffffffffffffffffffffffffffffffffffffff038313600083121516156114cc576114cb611b29565b5b817f800000000000000000000000000000000000000000000000000000000000000003831260008312161561150457611503611b29565b5b828201905092915050565b600061151a82611a16565b915061152583611a16565b9250827fffffffffffffffffffffffffffffffffffffffffffffffffffffffffffffffff0382111561155a57611559611b29565b5b828201905092915050565b6000611570826119ec565b915061157b836119ec565b92508261158b5761158a611b58565b5b600160000383147f8000000000000000000000000000000000000000000000000000000000000000831416156115c4576115c3611b29565b5b828205905092915050565b60006115da82611a16565b91506115e583611a16565b9250826115f5576115f4611b58565b5b828204905092915050565b6000808291508390505b600185111561164a5780860481111561162657611625611b29565b5b60018516156116355780820291505b808102905061164385611bbb565b945061160a565b94509492505050565b600061165e82611a16565b915061166983611a16565b92506116967fffffffffffffffffffffffffffffffffffffffffffffffffffffffffffffffff848461169e565b905092915050565b6000826116ae576001905061176a565b816116bc576000905061176a565b81600181146116d257600281146116dc5761170b565b600191505061176a565b60ff8411156116ee576116ed611b29565b5b8360020a91508482111561170557611704611b29565b5b5061176a565b5060208310610133831016604e8410600b84101617156117405782820a90508381111561173b5761173a611b29565b5b61176a565b61174d8484846001611600565b9250905081840481111561176457611763611b29565b5b81810290505b9392505050565b600061177c826119ec565b9150611787836119ec565b9250827f7fffffffffffffffffffffffffffffffffffffffffffffffffffffffffffffff04821160008413600084131616156117c6576117c5611b29565b5b817f8000000000000000000000000000000000000000000000000000000000000000058312600084126000841316161561180357611802611b29565b5b827f800000000000000000000000000000000000000000000000000000000000000005821260008413600084121616156118405761183f611b29565b5b827f7fffffffffffffffffffffffffffffffffffffffffffffffffffffffffffffff058212600084126000841216161561187d5761187c611b29565b5b828202905092915050565b600061189382611a16565b915061189e83611a16565b9250817fffffffffffffffffffffffffffffffffffffffffffffffffffffffffffffffff04831182151516156118d7576118d6611b29565b5b828202905092915050565b60006118ed826119ec565b91506118f8836119ec565b9250827f80000000000000000000000000000000000000000000000000000000000000000182126000841215161561193357611932611b29565b5b827f7fffffffffffffffffffffffffffffffffffffffffffffffffffffffffffffff01821360008412161561196b5761196a611b29565b5b828203905092915050565b600061198182611a16565b915061198c83611a16565b92508282101561199f5761199e611b29565b5b828203905092915050565b60006119b5826119f6565b9050919050565b60008115159050919050565b60006119d3826119aa565b9050919050565b60006119e5826119aa565b9050919050565b6000819050919050565b600073ffffffffffffffffffffffffffffffffffffffff82169050919050565b6000819050919050565b6000611a2b82611a44565b9050919050565b6000611a3d82611a44565b9050919050565b6000611a4f82611a56565b9050919050565b6000611a61826119f6565b9050919050565b6000611a7382611a16565b91507fffffffffffffffffffffffffffffffffffffffffffffffffffffffffffffffff821415611aa657611aa5611b29565b5b600182019050919050565b6000611abc826119ec565b91507f8000000000000000000000000000000000000000000000000000000000000000821415611aef57611aee611b29565b5b816000039050919050565b7f4e487b7100000000000000000000000000000000000000000000000000000000600052600160045260246000fd5b7f4e487b7100000000000000000000000000000000000000000000000000000000600052601160045260246000fd5b7f4e487b7100000000000000000000000000000000000000000000000000000000600052601260045260246000fd5b7f4e487b7100000000000000000000000000000000000000000000000000000000600052603260045260246000fd5b600080fd5b60008160011c9050919050565b611bd1816119bc565b8114611bdc57600080fd5b50565b611be8816119c8565b8114611bf357600080fd5b50565b611bff816119da565b8114611c0a57600080fd5b50565b611c16816119ec565b8114611c2157600080fd5b50565b611c2d81611a16565b8114611c3857600080fd5b5056fea2646970667358221220a268477565d2245838e11e38b3e54a7fda01963ec568880ddab160fea849878f64736f6c63430008070033",
					"opcodes": "PUSH1 0x80 PUSH1 0x40 MSTORE CALLVALUE DUP1 ISZERO PUSH2 0x10 JUMPI PUSH1 0x0 DUP1 REVERT JUMPDEST POP PUSH2 0x1C71 DUP1 PUSH2 0x20 PUSH1 0x0 CODECOPY PUSH1 0x0 RETURN INVALID PUSH1 0x80 PUSH1 0x40 MSTORE CALLVALUE DUP1 ISZERO PUSH2 0x10 JUMPI PUSH1 0x0 DUP1 REVERT JUMPDEST POP PUSH1 0x4 CALLDATASIZE LT PUSH2 0x10B JUMPI PUSH1 0x0 CALLDATALOAD PUSH1 0xE0 SHR DUP1 PUSH4 0x900CF0CF GT PUSH2 0xA2 JUMPI DUP1 PUSH4 0xAF14052C GT PUSH2 0x71 JUMPI DUP1 PUSH4 0xAF14052C EQ PUSH2 0x282 JUMPI DUP1 PUSH4 0xCD6DC687 EQ PUSH2 0x28C JUMPI DUP1 PUSH4 0xD94AD837 EQ PUSH2 0x2A8 JUMPI DUP1 PUSH4 0xE9FA88A4 EQ PUSH2 0x2C6 JUMPI DUP1 PUSH4 0xF4FEFA49 EQ PUSH2 0x2E2 JUMPI PUSH2 0x10B JUMP JUMPDEST DUP1 PUSH4 0x900CF0CF EQ PUSH2 0x20C JUMPI DUP1 PUSH4 0x9DB59B2F EQ PUSH2 0x22A JUMPI DUP1 PUSH4 0x9E30BAC5 EQ PUSH2 0x248 JUMPI DUP1 PUSH4 0xAB33C5CA EQ PUSH2 0x264 JUMPI PUSH2 0x10B JUMP JUMPDEST DUP1 PUSH4 0x5EE01540 GT PUSH2 0xDE JUMPI DUP1 PUSH4 0x5EE01540 EQ PUSH2 0x196 JUMPI DUP1 PUSH4 0x60961528 EQ PUSH2 0x1B4 JUMPI DUP1 PUSH4 0x7486CDEA EQ PUSH2 0x1D2 JUMPI DUP1 PUSH4 0x8001066D EQ PUSH2 0x1F0 JUMPI PUSH2 0x10B JUMP JUMPDEST DUP1 PUSH4 0x3A785AF1 EQ PUSH2 0x110 JUMPI DUP1 PUSH4 0x3D6A46E5 EQ PUSH2 0x140 JUMPI DUP1 PUSH4 0x4DAFA35E EQ PUSH2 0x15C JUMPI DUP1 PUSH4 0x53A15EDC EQ PUSH2 0x17A JUMPI JUMPDEST PUSH1 0x0 DUP1 REVERT JUMPDEST PUSH2 0x12A PUSH1 0x4 DUP1 CALLDATASIZE SUB DUP2 ADD SWAP1 PUSH2 0x125 SWAP2 SWAP1 PUSH2 0x1264 JUMP JUMPDEST PUSH2 0x2FE JUMP JUMPDEST PUSH1 0x40 MLOAD PUSH2 0x137 SWAP2 SWAP1 PUSH2 0x13D7 JUMP JUMPDEST PUSH1 0x40 MLOAD DUP1 SWAP2 SUB SWAP1 RETURN JUMPDEST PUSH2 0x15A PUSH1 0x4 DUP1 CALLDATASIZE SUB DUP2 ADD SWAP1 PUSH2 0x155 SWAP2 SWAP1 PUSH2 0x120A JUMP JUMPDEST PUSH2 0x4D0 JUMP JUMPDEST STOP JUMPDEST PUSH2 0x164 PUSH2 0x514 JUMP JUMPDEST PUSH1 0x40 MLOAD PUSH2 0x171 SWAP2 SWAP1 PUSH2 0x13A1 JUMP JUMPDEST PUSH1 0x40 MLOAD DUP1 SWAP2 SUB SWAP1 RETURN JUMPDEST PUSH2 0x194 PUSH1 0x4 DUP1 CALLDATASIZE SUB DUP2 ADD SWAP1 PUSH2 0x18F SWAP2 SWAP1 PUSH2 0x12CB JUMP JUMPDEST PUSH2 0x538 JUMP JUMPDEST STOP JUMPDEST PUSH2 0x19E PUSH2 0x542 JUMP JUMPDEST PUSH1 0x40 MLOAD PUSH2 0x1AB SWAP2 SWAP1 PUSH2 0x13D7 JUMP JUMPDEST PUSH1 0x40 MLOAD DUP1 SWAP2 SUB SWAP1 RETURN JUMPDEST PUSH2 0x1BC PUSH2 0x548 JUMP JUMPDEST PUSH1 0x40 MLOAD PUSH2 0x1C9 SWAP2 SWAP1 PUSH2 0x13BC JUMP JUMPDEST PUSH1 0x40 MLOAD DUP1 SWAP2 SUB SWAP1 RETURN JUMPDEST PUSH2 0x1DA PUSH2 0x56E JUMP JUMPDEST PUSH1 0x40 MLOAD PUSH2 0x1E7 SWAP2 SWAP1 PUSH2 0x13D7 JUMP JUMPDEST PUSH1 0x40 MLOAD DUP1 SWAP2 SUB SWAP1 RETURN JUMPDEST PUSH2 0x20A PUSH1 0x4 DUP1 CALLDATASIZE SUB DUP2 ADD SWAP1 PUSH2 0x205 SWAP2 SWAP1 PUSH2 0x1237 JUMP JUMPDEST PUSH2 0x574 JUMP JUMPDEST STOP JUMPDEST PUSH2 0x214 PUSH2 0x58C JUMP JUMPDEST PUSH1 0x40 MLOAD PUSH2 0x221 SWAP2 SWAP1 PUSH2 0x13F2 JUMP JUMPDEST PUSH1 0x40 MLOAD DUP1 SWAP2 SUB SWAP1 RETURN JUMPDEST PUSH2 0x232 PUSH2 0x592 JUMP JUMPDEST PUSH1 0x40 MLOAD PUSH2 0x23F SWAP2 SWAP1 PUSH2 0x13D7 JUMP JUMPDEST PUSH1 0x40 MLOAD DUP1 SWAP2 SUB SWAP1 RETURN JUMPDEST PUSH2 0x262 PUSH1 0x4 DUP1 CALLDATASIZE SUB DUP2 ADD SWAP1 PUSH2 0x25D SWAP2 SWAP1 PUSH2 0x120A JUMP JUMPDEST PUSH2 0x598 JUMP JUMPDEST STOP JUMPDEST PUSH2 0x26C PUSH2 0x5DC JUMP JUMPDEST PUSH1 0x40 MLOAD PUSH2 0x279 SWAP2 SWAP1 PUSH2 0x13BC JUMP JUMPDEST PUSH1 0x40 MLOAD DUP1 SWAP2 SUB SWAP1 RETURN JUMPDEST PUSH2 0x28A PUSH2 0x602 JUMP JUMPDEST STOP JUMPDEST PUSH2 0x2A6 PUSH1 0x4 DUP1 CALLDATASIZE SUB DUP2 ADD SWAP1 PUSH2 0x2A1 SWAP2 SWAP1 PUSH2 0x11CA JUMP JUMPDEST PUSH2 0xB41 JUMP JUMPDEST STOP JUMPDEST PUSH2 0x2B0 PUSH2 0xC57 JUMP JUMPDEST PUSH1 0x40 MLOAD PUSH2 0x2BD SWAP2 SWAP1 PUSH2 0x13F2 JUMP JUMPDEST PUSH1 0x40 MLOAD DUP1 SWAP2 SUB SWAP1 RETURN JUMPDEST PUSH2 0x2E0 PUSH1 0x4 DUP1 CALLDATASIZE SUB DUP2 ADD SWAP1 PUSH2 0x2DB SWAP2 SWAP1 PUSH2 0x1237 JUMP JUMPDEST PUSH2 0xC5D JUMP JUMPDEST STOP JUMPDEST PUSH2 0x2FC PUSH1 0x4 DUP1 CALLDATASIZE SUB DUP2 ADD SWAP1 PUSH2 0x2F7 SWAP2 SWAP1 PUSH2 0x1237 JUMP JUMPDEST PUSH2 0xC75 JUMP JUMPDEST STOP JUMPDEST PUSH1 0x0 DUP1 PUSH2 0x318 DUP7 PUSH1 0x12 PUSH1 0xA PUSH2 0x313 SWAP2 SWAP1 PUSH2 0x1653 JUMP JUMPDEST PUSH2 0xC8D JUMP JUMPDEST SWAP1 POP PUSH1 0x0 PUSH2 0x33C PUSH2 0x329 DUP6 DUP5 PUSH2 0xCD8 JUMP JUMPDEST PUSH1 0x12 PUSH1 0xA PUSH2 0x337 SWAP2 SWAP1 PUSH2 0x1653 JUMP JUMPDEST PUSH2 0xD40 JUMP JUMPDEST SWAP1 POP PUSH2 0x356 PUSH1 0x12 PUSH1 0xA PUSH2 0x34F SWAP2 SWAP1 PUSH2 0x1653 JUMP JUMPDEST PUSH1 0x64 PUSH2 0xCD8 JUMP JUMPDEST DUP2 SGT ISZERO PUSH2 0x378 JUMPI PUSH2 0x375 PUSH1 0x12 PUSH1 0xA PUSH2 0x36E SWAP2 SWAP1 PUSH2 0x1653 JUMP JUMPDEST PUSH1 0x64 PUSH2 0xCD8 JUMP JUMPDEST SWAP1 POP JUMPDEST PUSH2 0x3AF PUSH1 0x12 PUSH1 0xA PUSH2 0x389 SWAP2 SWAP1 PUSH2 0x1653 JUMP JUMPDEST PUSH32 0xFFFFFFFFFFFFFFFFFFFFFFFFFFFFFFFFFFFFFFFFFFFFFFFFFFFFFFFFFFFFFF9C PUSH2 0xCD8 JUMP JUMPDEST DUP2 SLT ISZERO PUSH2 0x3F0 JUMPI PUSH2 0x3ED PUSH1 0x12 PUSH1 0xA PUSH2 0x3C7 SWAP2 SWAP1 PUSH2 0x1653 JUMP JUMPDEST PUSH32 0xFFFFFFFFFFFFFFFFFFFFFFFFFFFFFFFFFFFFFFFFFFFFFFFFFFFFFFFFFFFFFF9C PUSH2 0xCD8 JUMP JUMPDEST SWAP1 POP JUMPDEST PUSH1 0x0 PUSH2 0x409 DUP3 PUSH1 0x12 PUSH1 0xA PUSH2 0x404 SWAP2 SWAP1 PUSH2 0x1653 JUMP JUMPDEST PUSH2 0xD93 JUMP JUMPDEST SWAP1 POP PUSH1 0x0 DUP2 EQ ISZERO PUSH2 0x41F JUMPI DUP7 SWAP4 POP POP POP POP PUSH2 0x4C8 JUMP JUMPDEST PUSH1 0x0 PUSH2 0x42B DUP8 DUP10 PUSH2 0xC8D JUMP JUMPDEST SWAP1 POP PUSH1 0x0 PUSH2 0x44F PUSH2 0x449 DUP10 PUSH1 0x12 PUSH1 0xA PUSH2 0x444 SWAP2 SWAP1 PUSH2 0x1653 JUMP JUMPDEST PUSH2 0xCD8 JUMP JUMPDEST DUP11 PUSH2 0xD40 JUMP JUMPDEST SWAP1 POP PUSH2 0x471 PUSH2 0x46B DUP3 PUSH1 0x12 PUSH1 0xA PUSH2 0x466 SWAP2 SWAP1 PUSH2 0x1653 JUMP JUMPDEST PUSH2 0xCD8 JUMP JUMPDEST DUP5 PUSH2 0xD40 JUMP JUMPDEST SWAP1 POP PUSH1 0x0 PUSH2 0x48C PUSH1 0x12 PUSH1 0xA PUSH2 0x486 SWAP2 SWAP1 PUSH2 0x1653 JUMP JUMPDEST DUP4 PUSH2 0xC8D JUMP JUMPDEST SWAP1 POP PUSH1 0x0 DUP11 PUSH2 0x4B1 PUSH2 0x4AB DUP7 PUSH1 0x12 PUSH1 0xA PUSH2 0x4A6 SWAP2 SWAP1 PUSH2 0x1653 JUMP JUMPDEST PUSH2 0xCD8 JUMP JUMPDEST DUP5 PUSH2 0xD40 JUMP JUMPDEST PUSH2 0x4BB SWAP2 SWAP1 PUSH2 0x147B JUMP JUMPDEST SWAP1 POP DUP1 SWAP8 POP POP POP POP POP POP POP POP JUMPDEST SWAP5 SWAP4 POP POP POP POP JUMP JUMPDEST DUP1 PUSH1 0x1 PUSH1 0x0 PUSH2 0x100 EXP DUP2 SLOAD DUP2 PUSH20 0xFFFFFFFFFFFFFFFFFFFFFFFFFFFFFFFFFFFFFFFF MUL NOT AND SWAP1 DUP4 PUSH20 0xFFFFFFFFFFFFFFFFFFFFFFFFFFFFFFFFFFFFFFFF AND MUL OR SWAP1 SSTORE POP POP JUMP JUMPDEST PUSH1 0x0 DUP1 SLOAD SWAP1 PUSH2 0x100 EXP SWAP1 DIV PUSH20 0xFFFFFFFFFFFFFFFFFFFFFFFFFFFFFFFFFFFFFFFF AND DUP2 JUMP JUMPDEST DUP1 PUSH1 0x4 DUP2 SWAP1 SSTORE POP POP JUMP JUMPDEST PUSH1 0x6 SLOAD DUP2 JUMP JUMPDEST PUSH1 0x2 PUSH1 0x0 SWAP1 SLOAD SWAP1 PUSH2 0x100 EXP SWAP1 DIV PUSH20 0xFFFFFFFFFFFFFFFFFFFFFFFFFFFFFFFFFFFFFFFF AND DUP2 JUMP JUMPDEST PUSH1 0x8 SLOAD DUP2 JUMP JUMPDEST PUSH1 0x0 DUP2 SLT ISZERO PUSH2 0x582 JUMPI PUSH1 0x0 DUP1 REVERT JUMPDEST DUP1 PUSH1 0x8 DUP2 SWAP1 SSTORE POP POP JUMP JUMPDEST PUSH1 0x5 SLOAD DUP2 JUMP JUMPDEST PUSH1 0x7 SLOAD DUP2 JUMP JUMPDEST DUP1 PUSH1 0x2 PUSH1 0x0 PUSH2 0x100 EXP DUP2 SLOAD DUP2 PUSH20 0xFFFFFFFFFFFFFFFFFFFFFFFFFFFFFFFFFFFFFFFF MUL NOT AND SWAP1 DUP4 PUSH20 0xFFFFFFFFFFFFFFFFFFFFFFFFFFFFFFFFFFFFFFFF AND MUL OR SWAP1 SSTORE POP POP JUMP JUMPDEST PUSH1 0x1 PUSH1 0x0 SWAP1 SLOAD SWAP1 PUSH2 0x100 EXP SWAP1 DIV PUSH20 0xFFFFFFFFFFFFFFFFFFFFFFFFFFFFFFFFFFFFFFFF AND DUP2 JUMP JUMPDEST PUSH1 0x1 PUSH1 0x5 SLOAD PUSH2 0x611 SWAP2 SWAP1 PUSH2 0x150F JUMP JUMPDEST PUSH1 0x5 DUP2 SWAP1 SSTORE POP PUSH1 0x0 DUP1 PUSH1 0x1 PUSH1 0x0 SWAP1 SLOAD SWAP1 PUSH2 0x100 EXP SWAP1 DIV PUSH20 0xFFFFFFFFFFFFFFFFFFFFFFFFFFFFFFFFFFFFFFFF AND PUSH20 0xFFFFFFFFFFFFFFFFFFFFFFFFFFFFFFFFFFFFFFFF AND PUSH4 0x3BC5DE30 PUSH1 0x40 MLOAD DUP2 PUSH4 0xFFFFFFFF AND PUSH1 0xE0 SHL DUP2 MSTORE PUSH1 0x4 ADD PUSH1 0x40 DUP1 MLOAD DUP1 DUP4 SUB DUP2 PUSH1 0x0 DUP8 DUP1 EXTCODESIZE ISZERO DUP1 ISZERO PUSH2 0x683 JUMPI PUSH1 0x0 DUP1 REVERT JUMPDEST POP GAS CALL ISZERO DUP1 ISZERO PUSH2 0x697 JUMPI RETURNDATASIZE PUSH1 0x0 DUP1 RETURNDATACOPY RETURNDATASIZE PUSH1 0x0 REVERT JUMPDEST POP POP POP POP PUSH1 0x40 MLOAD RETURNDATASIZE PUSH1 0x1F NOT PUSH1 0x1F DUP3 ADD AND DUP3 ADD DUP1 PUSH1 0x40 MSTORE POP DUP2 ADD SWAP1 PUSH2 0x6BB SWAP2 SWAP1 PUSH2 0x1325 JUMP JUMPDEST DUP1 SWAP3 POP DUP2 SWAP4 POP POP POP DUP1 PUSH2 0x6CD JUMPI PUSH1 0x0 DUP1 REVERT JUMPDEST PUSH1 0x0 PUSH2 0x6F1 PUSH2 0x6E9 DUP5 PUSH1 0x12 PUSH1 0xA PUSH2 0x6E4 SWAP2 SWAP1 PUSH2 0x1653 JUMP JUMPDEST PUSH2 0xEFA JUMP JUMPDEST PUSH1 0x3 SLOAD PUSH2 0xF3F JUMP JUMPDEST SWAP1 POP PUSH1 0x0 DUP1 PUSH1 0x2 PUSH1 0x0 SWAP1 SLOAD SWAP1 PUSH2 0x100 EXP SWAP1 DIV PUSH20 0xFFFFFFFFFFFFFFFFFFFFFFFFFFFFFFFFFFFFFFFF AND PUSH20 0xFFFFFFFFFFFFFFFFFFFFFFFFFFFFFFFFFFFFFFFF AND PUSH4 0x3BC5DE30 PUSH1 0x40 MLOAD DUP2 PUSH4 0xFFFFFFFF AND PUSH1 0xE0 SHL DUP2 MSTORE PUSH1 0x4 ADD PUSH1 0x40 DUP1 MLOAD DUP1 DUP4 SUB DUP2 PUSH1 0x0 DUP8 DUP1 EXTCODESIZE ISZERO DUP1 ISZERO PUSH2 0x75F JUMPI PUSH1 0x0 DUP1 REVERT JUMPDEST POP GAS CALL ISZERO DUP1 ISZERO PUSH2 0x773 JUMPI RETURNDATASIZE PUSH1 0x0 DUP1 RETURNDATACOPY RETURNDATASIZE PUSH1 0x0 REVERT JUMPDEST POP POP POP POP PUSH1 0x40 MLOAD RETURNDATASIZE PUSH1 0x1F NOT PUSH1 0x1F DUP3 ADD AND DUP3 ADD DUP1 PUSH1 0x40 MSTORE POP DUP2 ADD SWAP1 PUSH2 0x797 SWAP2 SWAP1 PUSH2 0x1325 JUMP JUMPDEST DUP1 SWAP3 POP DUP2 SWAP4 POP POP POP DUP1 PUSH2 0x7A9 JUMPI PUSH1 0x0 DUP1 REVERT JUMPDEST PUSH1 0x12 PUSH1 0xA PUSH2 0x7B7 SWAP2 SWAP1 PUSH2 0x1653 JUMP JUMPDEST PUSH3 0xF4240 PUSH2 0x7C5 SWAP2 SWAP1 PUSH2 0x1888 JUMP JUMPDEST DUP3 GT ISZERO PUSH2 0x7EB JUMPI PUSH1 0x12 PUSH1 0xA PUSH2 0x7DA SWAP2 SWAP1 PUSH2 0x1653 JUMP JUMPDEST PUSH3 0xF4240 PUSH2 0x7E8 SWAP2 SWAP1 PUSH2 0x1888 JUMP JUMPDEST SWAP2 POP JUMPDEST PUSH1 0x0 PUSH2 0x7F7 DUP4 DUP6 PUSH2 0xF67 JUMP JUMPDEST SWAP1 POP PUSH1 0x0 DUP2 SGT DUP1 ISZERO PUSH2 0x8F6 JUMPI POP PUSH1 0x12 PUSH1 0xA PUSH2 0x812 SWAP2 SWAP1 PUSH2 0x1653 JUMP JUMPDEST PUSH3 0xF4240 PUSH2 0x820 SWAP2 SWAP1 PUSH2 0x1888 JUMP JUMPDEST PUSH32 0x7FFFFFFFFFFFFFFFFFFFFFFFFFFFFFFFFFFFFFFFFFFFFFFFFFFFFFFFFFFFFFFF PUSH2 0x84B SWAP2 SWAP1 PUSH2 0x15CF JUMP JUMPDEST DUP2 PUSH1 0x0 DUP1 SLOAD SWAP1 PUSH2 0x100 EXP SWAP1 DIV PUSH20 0xFFFFFFFFFFFFFFFFFFFFFFFFFFFFFFFFFFFFFFFF AND PUSH20 0xFFFFFFFFFFFFFFFFFFFFFFFFFFFFFFFFFFFFFFFF AND PUSH4 0x18160DDD PUSH1 0x40 MLOAD DUP2 PUSH4 0xFFFFFFFF AND PUSH1 0xE0 SHL DUP2 MSTORE PUSH1 0x4 ADD PUSH1 0x20 PUSH1 0x40 MLOAD DUP1 DUP4 SUB DUP2 DUP7 DUP1 EXTCODESIZE ISZERO DUP1 ISZERO PUSH2 0x8B2 JUMPI PUSH1 0x0 DUP1 REVERT JUMPDEST POP GAS STATICCALL ISZERO DUP1 ISZERO PUSH2 0x8C6 JUMPI RETURNDATASIZE PUSH1 0x0 DUP1 RETURNDATACOPY RETURNDATASIZE PUSH1 0x0 REVERT JUMPDEST POP POP POP POP PUSH1 0x40 MLOAD RETURNDATASIZE PUSH1 0x1F NOT PUSH1 0x1F DUP3 ADD AND DUP3 ADD DUP1 PUSH1 0x40 MSTORE POP DUP2 ADD SWAP1 PUSH2 0x8EA SWAP2 SWAP1 PUSH2 0x12F8 JUMP JUMPDEST PUSH2 0x8F4 SWAP2 SWAP1 PUSH2 0x150F JUMP JUMPDEST GT JUMPDEST ISZERO PUSH2 0x9ED JUMPI PUSH1 0x0 DUP1 SLOAD SWAP1 PUSH2 0x100 EXP SWAP1 DIV PUSH20 0xFFFFFFFFFFFFFFFFFFFFFFFFFFFFFFFFFFFFFFFF AND PUSH20 0xFFFFFFFFFFFFFFFFFFFFFFFFFFFFFFFFFFFFFFFF AND PUSH4 0x18160DDD PUSH1 0x40 MLOAD DUP2 PUSH4 0xFFFFFFFF AND PUSH1 0xE0 SHL DUP2 MSTORE PUSH1 0x4 ADD PUSH1 0x20 PUSH1 0x40 MLOAD DUP1 DUP4 SUB DUP2 DUP7 DUP1 EXTCODESIZE ISZERO DUP1 ISZERO PUSH2 0x961 JUMPI PUSH1 0x0 DUP1 REVERT JUMPDEST POP GAS STATICCALL ISZERO DUP1 ISZERO PUSH2 0x975 JUMPI RETURNDATASIZE PUSH1 0x0 DUP1 RETURNDATACOPY RETURNDATASIZE PUSH1 0x0 REVERT JUMPDEST POP POP POP POP PUSH1 0x40 MLOAD RETURNDATASIZE PUSH1 0x1F NOT PUSH1 0x1F DUP3 ADD AND DUP3 ADD DUP1 PUSH1 0x40 MSTORE POP DUP2 ADD SWAP1 PUSH2 0x999 SWAP2 SWAP1 PUSH2 0x12F8 JUMP JUMPDEST PUSH1 0x12 PUSH1 0xA PUSH2 0x9A7 SWAP2 SWAP1 PUSH2 0x1653 JUMP JUMPDEST PUSH3 0xF4240 PUSH2 0x9B5 SWAP2 SWAP1 PUSH2 0x1888 JUMP JUMPDEST PUSH32 0x7FFFFFFFFFFFFFFFFFFFFFFFFFFFFFFFFFFFFFFFFFFFFFFFFFFFFFFFFFFFFFFF PUSH2 0x9E0 SWAP2 SWAP1 PUSH2 0x15CF JUMP JUMPDEST PUSH2 0x9EA SWAP2 SWAP1 PUSH2 0x1976 JUMP JUMPDEST SWAP1 POP JUMPDEST PUSH1 0x0 DUP1 PUSH1 0x0 SWAP1 SLOAD SWAP1 PUSH2 0x100 EXP SWAP1 DIV PUSH20 0xFFFFFFFFFFFFFFFFFFFFFFFFFFFFFFFFFFFFFFFF AND PUSH20 0xFFFFFFFFFFFFFFFFFFFFFFFFFFFFFFFFFFFFFFFF AND PUSH4 0x7A43E23F PUSH1 0x5 SLOAD DUP5 PUSH1 0x40 MLOAD DUP4 PUSH4 0xFFFFFFFF AND PUSH1 0xE0 SHL DUP2 MSTORE PUSH1 0x4 ADD PUSH2 0xA4D SWAP3 SWAP2 SWAP1 PUSH2 0x140D JUMP JUMPDEST PUSH1 0x20 PUSH1 0x40 MLOAD DUP1 DUP4 SUB DUP2 PUSH1 0x0 DUP8 DUP1 EXTCODESIZE ISZERO DUP1 ISZERO PUSH2 0xA67 JUMPI PUSH1 0x0 DUP1 REVERT JUMPDEST POP GAS CALL ISZERO DUP1 ISZERO PUSH2 0xA7B JUMPI RETURNDATASIZE PUSH1 0x0 DUP1 RETURNDATACOPY RETURNDATASIZE PUSH1 0x0 REVERT JUMPDEST POP POP POP POP PUSH1 0x40 MLOAD RETURNDATASIZE PUSH1 0x1F NOT PUSH1 0x1F DUP3 ADD AND DUP3 ADD DUP1 PUSH1 0x40 MSTORE POP DUP2 ADD SWAP1 PUSH2 0xA9F SWAP2 SWAP1 PUSH2 0x12F8 JUMP JUMPDEST SWAP1 POP PUSH1 0x12 PUSH1 0xA PUSH2 0xAAF SWAP2 SWAP1 PUSH2 0x1653 JUMP JUMPDEST PUSH3 0xF4240 PUSH2 0xABD SWAP2 SWAP1 PUSH2 0x1888 JUMP JUMPDEST PUSH32 0x7FFFFFFFFFFFFFFFFFFFFFFFFFFFFFFFFFFFFFFFFFFFFFFFFFFFFFFFFFFFFFFF PUSH2 0xAE8 SWAP2 SWAP1 PUSH2 0x15CF JUMP JUMPDEST DUP2 GT ISZERO PUSH2 0xAF8 JUMPI PUSH2 0xAF7 PUSH2 0x1AFA JUMP JUMPDEST JUMPDEST PUSH1 0x5 SLOAD PUSH32 0x41D948A7F29CC695F5D4B3EC147F766BFFA165DDD317470FBE05C86D0A9C3E04 DUP6 DUP10 DUP6 TIMESTAMP PUSH1 0x40 MLOAD PUSH2 0xB30 SWAP5 SWAP4 SWAP3 SWAP2 SWAP1 PUSH2 0x1436 JUMP JUMPDEST PUSH1 0x40 MLOAD DUP1 SWAP2 SUB SWAP1 LOG2 POP POP POP POP POP POP POP JUMP JUMPDEST PUSH1 0x2 PUSH1 0x12 PUSH2 0xB4F SWAP2 SWAP1 PUSH2 0x1976 JUMP JUMPDEST PUSH1 0xA PUSH2 0xB5B SWAP2 SWAP1 PUSH2 0x1653 JUMP JUMPDEST PUSH1 0x5 PUSH2 0xB67 SWAP2 SWAP1 PUSH2 0x1888 JUMP JUMPDEST PUSH1 0x4 DUP2 SWAP1 SSTORE POP PUSH1 0x12 PUSH1 0xA PUSH2 0xB7B SWAP2 SWAP1 PUSH2 0x1653 JUMP JUMPDEST PUSH1 0x3 PUSH2 0xB87 SWAP2 SWAP1 PUSH2 0x1888 JUMP JUMPDEST PUSH1 0x8 DUP2 SWAP1 SSTORE POP PUSH1 0x2 PUSH1 0x12 PUSH2 0xB9B SWAP2 SWAP1 PUSH2 0x1976 JUMP JUMPDEST PUSH1 0xA PUSH2 0xBA7 SWAP2 SWAP1 PUSH2 0x1653 JUMP JUMPDEST PUSH1 0xA PUSH2 0xBB3 SWAP2 SWAP1 PUSH2 0x1888 JUMP JUMPDEST PUSH1 0x7 DUP2 SWAP1 SSTORE POP PUSH1 0x2 PUSH1 0x12 PUSH2 0xBC7 SWAP2 SWAP1 PUSH2 0x1976 JUMP JUMPDEST PUSH1 0xA PUSH2 0xBD3 SWAP2 SWAP1 PUSH2 0x1653 JUMP JUMPDEST PUSH32 0xFFFFFFFFFFFFFFFFFFFFFFFFFFFFFFFFFFFFFFFFFFFFFFFFFFFFFFFFFFFFFFF6 PUSH2 0xBFE SWAP2 SWAP1 PUSH2 0x1771 JUMP JUMPDEST PUSH1 0x6 DUP2 SWAP1 SSTORE POP PUSH1 0x0 PUSH1 0x5 DUP2 SWAP1 SSTORE POP DUP2 PUSH1 0x0 DUP1 PUSH2 0x100 EXP DUP2 SLOAD DUP2 PUSH20 0xFFFFFFFFFFFFFFFFFFFFFFFFFFFFFFFFFFFFFFFF MUL NOT AND SWAP1 DUP4 PUSH20 0xFFFFFFFFFFFFFFFFFFFFFFFFFFFFFFFFFFFFFFFF AND MUL OR SWAP1 SSTORE POP DUP1 PUSH1 0x3 DUP2 SWAP1 SSTORE POP POP POP JUMP JUMPDEST PUSH1 0x4 SLOAD DUP2 JUMP JUMPDEST PUSH1 0x0 DUP2 SGT ISZERO PUSH2 0xC6B JUMPI PUSH1 0x0 DUP1 REVERT JUMPDEST DUP1 PUSH1 0x6 DUP2 SWAP1 SSTORE POP POP JUMP JUMPDEST PUSH1 0x0 DUP2 SLT ISZERO PUSH2 0xC83 JUMPI PUSH1 0x0 DUP1 REVERT JUMPDEST DUP1 PUSH1 0x7 DUP2 SWAP1 SSTORE POP POP JUMP JUMPDEST PUSH1 0x0 DUP1 DUP3 DUP5 PUSH2 0xC9C SWAP2 SWAP1 PUSH2 0x18E2 JUMP JUMPDEST SWAP1 POP PUSH1 0x0 DUP4 SLT ISZERO DUP1 ISZERO PUSH2 0xCAF JUMPI POP DUP4 DUP2 SGT ISZERO JUMPDEST DUP1 PUSH2 0xCC5 JUMPI POP PUSH1 0x0 DUP4 SLT DUP1 ISZERO PUSH2 0xCC4 JUMPI POP DUP4 DUP2 SGT JUMPDEST JUMPDEST PUSH2 0xCCE JUMPI PUSH1 0x0 DUP1 REVERT JUMPDEST DUP1 SWAP2 POP POP SWAP3 SWAP2 POP POP JUMP JUMPDEST PUSH1 0x0 DUP1 DUP3 DUP5 PUSH2 0xCE7 SWAP2 SWAP1 PUSH2 0x1771 JUMP JUMPDEST SWAP1 POP PUSH1 0xFF PUSH1 0x1 SWAP1 SHL DUP2 EQ ISZERO DUP1 PUSH2 0xD0B JUMPI POP PUSH1 0xFF PUSH1 0x1 SWAP1 SHL DUP4 AND PUSH1 0xFF PUSH1 0x1 SWAP1 SHL DUP6 AND EQ ISZERO JUMPDEST PUSH2 0xD14 JUMPI PUSH1 0x0 DUP1 REVERT JUMPDEST PUSH1 0x0 DUP4 EQ DUP1 PUSH2 0xD2D JUMPI POP DUP4 DUP4 DUP3 PUSH2 0xD2B SWAP2 SWAP1 PUSH2 0x1565 JUMP JUMPDEST EQ JUMPDEST PUSH2 0xD36 JUMPI PUSH1 0x0 DUP1 REVERT JUMPDEST DUP1 SWAP2 POP POP SWAP3 SWAP2 POP POP JUMP JUMPDEST PUSH1 0x0 PUSH32 0xFFFFFFFFFFFFFFFFFFFFFFFFFFFFFFFFFFFFFFFFFFFFFFFFFFFFFFFFFFFFFFFF DUP3 EQ ISZERO DUP1 PUSH2 0xD76 JUMPI POP PUSH1 0xFF PUSH1 0x1 SWAP1 SHL DUP4 EQ ISZERO JUMPDEST PUSH2 0xD7F JUMPI PUSH1 0x0 DUP1 REVERT JUMPDEST DUP2 DUP4 PUSH2 0xD8B SWAP2 SWAP1 PUSH2 0x1565 JUMP JUMPDEST SWAP1 POP SWAP3 SWAP2 POP POP JUMP JUMPDEST PUSH1 0x0 DUP1 PUSH1 0x0 SWAP1 POP PUSH1 0x0 DUP5 SLT ISZERO PUSH2 0xDB3 JUMPI PUSH1 0x1 SWAP1 POP PUSH2 0xDB0 DUP5 PUSH2 0x1089 JUMP JUMPDEST SWAP4 POP JUMPDEST PUSH1 0x0 PUSH1 0x40 MLOAD DUP1 PUSH1 0xA0 ADD PUSH1 0x40 MSTORE DUP1 PUSH8 0x13A04BBDFDC9BE89 DUP2 MSTORE PUSH1 0x20 ADD PUSH8 0x1080E992061AB32B DUP2 MSTORE PUSH1 0x20 ADD PUSH8 0xF2243014E544EBB DUP2 MSTORE PUSH1 0x20 ADD PUSH8 0xE7E0178E9D6ED50 DUP2 MSTORE PUSH1 0x20 ADD PUSH8 0xE2E820ADE835F46 DUP2 MSTORE POP SWAP1 POP PUSH1 0x0 PUSH2 0xE12 DUP7 DUP7 PUSH2 0xD40 JUMP JUMPDEST SWAP1 POP PUSH1 0x64 DUP2 SGT ISZERO PUSH2 0xE22 JUMPI PUSH1 0x0 DUP1 REVERT JUMPDEST PUSH1 0x0 PUSH2 0xE32 DUP3 PUSH1 0x1 SWAP1 SHL DUP8 PUSH2 0xCD8 JUMP JUMPDEST SWAP1 POP PUSH1 0x0 PUSH2 0xE49 DUP9 PUSH2 0xE44 DUP6 DUP11 PUSH2 0xCD8 JUMP JUMPDEST PUSH2 0xC8D JUMP JUMPDEST SWAP1 POP PUSH1 0x0 PUSH2 0xE58 DUP9 PUSH1 0x2 PUSH2 0xD40 JUMP JUMPDEST SWAP1 POP PUSH1 0x0 JUMPDEST PUSH1 0x5 DUP2 LT ISZERO PUSH2 0xECE JUMPI DUP2 DUP4 SLT PUSH2 0xEAE JUMPI PUSH2 0xE77 DUP4 DUP4 PUSH2 0xC8D JUMP JUMPDEST SWAP3 POP PUSH2 0xEAB PUSH2 0xE9D DUP6 DUP9 DUP5 PUSH1 0x5 DUP2 LT PUSH2 0xE93 JUMPI PUSH2 0xE92 PUSH2 0x1B87 JUMP JUMPDEST JUMPDEST PUSH1 0x20 MUL ADD MLOAD PUSH2 0xCD8 JUMP JUMPDEST PUSH8 0xDE0B6B3A7640000 PUSH2 0xD40 JUMP JUMPDEST SWAP4 POP JUMPDEST PUSH2 0xEB9 DUP3 PUSH1 0x2 PUSH2 0xD40 JUMP JUMPDEST SWAP2 POP DUP1 DUP1 PUSH2 0xEC6 SWAP1 PUSH2 0x1A68 JUMP JUMPDEST SWAP2 POP POP PUSH2 0xE5D JUMP JUMPDEST POP DUP6 ISZERO PUSH2 0xEEB JUMPI PUSH2 0xEE8 PUSH2 0xEE2 DUP10 DUP11 PUSH2 0xCD8 JUMP JUMPDEST DUP5 PUSH2 0xD40 JUMP JUMPDEST SWAP3 POP JUMPDEST DUP3 SWAP7 POP POP POP POP POP POP POP SWAP3 SWAP2 POP POP JUMP JUMPDEST PUSH1 0x0 DUP1 DUP4 EQ ISZERO PUSH2 0xF0D JUMPI PUSH1 0x0 SWAP1 POP PUSH2 0xF39 JUMP JUMPDEST PUSH1 0x0 DUP3 DUP5 PUSH2 0xF1B SWAP2 SWAP1 PUSH2 0x1888 JUMP JUMPDEST SWAP1 POP DUP3 DUP5 DUP3 PUSH2 0xF2A SWAP2 SWAP1 PUSH2 0x15CF JUMP JUMPDEST EQ PUSH2 0xF34 JUMPI PUSH1 0x0 DUP1 REVERT JUMPDEST DUP1 SWAP2 POP POP JUMPDEST SWAP3 SWAP2 POP POP JUMP JUMPDEST PUSH1 0x0 DUP1 DUP3 GT PUSH2 0xF4D JUMPI PUSH1 0x0 DUP1 REVERT JUMPDEST PUSH1 0x0 DUP3 DUP5 PUSH2 0xF5B SWAP2 SWAP1 PUSH2 0x15CF JUMP JUMPDEST SWAP1 POP DUP1 SWAP2 POP POP SWAP3 SWAP2 POP POP JUMP JUMPDEST PUSH1 0x0 PUSH2 0xF73 DUP4 DUP4 PUSH2 0x10BD JUMP JUMPDEST ISZERO PUSH2 0xF81 JUMPI PUSH1 0x0 SWAP1 POP PUSH2 0x1083 JUMP JUMPDEST PUSH1 0x0 DUP3 SWAP1 POP PUSH1 0x0 PUSH2 0xFA8 PUSH2 0xFA2 DUP7 PUSH1 0x12 PUSH1 0xA PUSH2 0xF9D SWAP2 SWAP1 PUSH2 0x1653 JUMP JUMPDEST PUSH2 0xCD8 JUMP JUMPDEST DUP4 PUSH2 0xD40 JUMP JUMPDEST SWAP1 POP PUSH1 0x0 PUSH2 0xFBE DUP3 PUSH1 0x6 SLOAD PUSH1 0x7 SLOAD PUSH1 0x8 SLOAD PUSH2 0x2FE JUMP JUMPDEST SWAP1 POP PUSH2 0x107D PUSH2 0x106A PUSH1 0x0 DUP1 SLOAD SWAP1 PUSH2 0x100 EXP SWAP1 DIV PUSH20 0xFFFFFFFFFFFFFFFFFFFFFFFFFFFFFFFFFFFFFFFF AND PUSH20 0xFFFFFFFFFFFFFFFFFFFFFFFFFFFFFFFFFFFFFFFF AND PUSH4 0x18160DDD PUSH1 0x40 MLOAD DUP2 PUSH4 0xFFFFFFFF AND PUSH1 0xE0 SHL DUP2 MSTORE PUSH1 0x4 ADD PUSH1 0x20 PUSH1 0x40 MLOAD DUP1 DUP4 SUB DUP2 DUP7 DUP1 EXTCODESIZE ISZERO DUP1 ISZERO PUSH2 0x102C JUMPI PUSH1 0x0 DUP1 REVERT JUMPDEST POP GAS STATICCALL ISZERO DUP1 ISZERO PUSH2 0x1040 JUMPI RETURNDATASIZE PUSH1 0x0 DUP1 RETURNDATACOPY RETURNDATASIZE PUSH1 0x0 REVERT JUMPDEST POP POP POP POP PUSH1 0x40 MLOAD RETURNDATASIZE PUSH1 0x1F NOT PUSH1 0x1F DUP3 ADD AND DUP3 ADD DUP1 PUSH1 0x40 MSTORE POP DUP2 ADD SWAP1 PUSH2 0x1064 SWAP2 SWAP1 PUSH2 0x12F8 JUMP JUMPDEST DUP4 PUSH2 0xCD8 JUMP JUMPDEST PUSH1 0x12 PUSH1 0xA PUSH2 0x1078 SWAP2 SWAP1 PUSH2 0x1653 JUMP JUMPDEST PUSH2 0xD40 JUMP JUMPDEST SWAP4 POP POP POP POP JUMPDEST SWAP3 SWAP2 POP POP JUMP JUMPDEST PUSH1 0x0 PUSH1 0xFF PUSH1 0x1 SWAP1 SHL DUP3 EQ ISZERO PUSH2 0x109D JUMPI PUSH1 0x0 DUP1 REVERT JUMPDEST PUSH1 0x0 DUP3 SLT PUSH2 0x10AB JUMPI DUP2 PUSH2 0x10B6 JUMP JUMPDEST DUP2 PUSH2 0x10B5 SWAP1 PUSH2 0x1AB1 JUMP JUMPDEST JUMPDEST SWAP1 POP SWAP2 SWAP1 POP JUMP JUMPDEST PUSH1 0x0 DUP1 PUSH2 0x10E2 PUSH2 0x10CF DUP5 PUSH1 0x4 SLOAD PUSH2 0xEFA JUMP JUMPDEST PUSH1 0x12 PUSH1 0xA PUSH2 0x10DD SWAP2 SWAP1 PUSH2 0x1653 JUMP JUMPDEST PUSH2 0xF3F JUMP JUMPDEST SWAP1 POP DUP3 DUP5 LT ISZERO DUP1 ISZERO PUSH2 0x10FC JUMPI POP DUP1 PUSH2 0x10FA DUP6 DUP6 PUSH2 0x1123 JUMP JUMPDEST LT JUMPDEST DUP1 PUSH2 0x111A JUMPI POP DUP3 DUP5 LT DUP1 ISZERO PUSH2 0x1119 JUMPI POP DUP1 PUSH2 0x1117 DUP5 DUP7 PUSH2 0x1123 JUMP JUMPDEST LT JUMPDEST JUMPDEST SWAP2 POP POP SWAP3 SWAP2 POP POP JUMP JUMPDEST PUSH1 0x0 DUP3 DUP3 GT ISZERO PUSH2 0x1132 JUMPI PUSH1 0x0 DUP1 REVERT JUMPDEST PUSH1 0x0 DUP3 DUP5 PUSH2 0x1140 SWAP2 SWAP1 PUSH2 0x1976 JUMP JUMPDEST SWAP1 POP DUP1 SWAP2 POP POP SWAP3 SWAP2 POP POP JUMP JUMPDEST PUSH1 0x0 DUP2 MLOAD SWAP1 POP PUSH2 0x115B DUP2 PUSH2 0x1BC8 JUMP JUMPDEST SWAP3 SWAP2 POP POP JUMP JUMPDEST PUSH1 0x0 DUP2 CALLDATALOAD SWAP1 POP PUSH2 0x1170 DUP2 PUSH2 0x1BDF JUMP JUMPDEST SWAP3 SWAP2 POP POP JUMP JUMPDEST PUSH1 0x0 DUP2 CALLDATALOAD SWAP1 POP PUSH2 0x1185 DUP2 PUSH2 0x1BF6 JUMP JUMPDEST SWAP3 SWAP2 POP POP JUMP JUMPDEST PUSH1 0x0 DUP2 CALLDATALOAD SWAP1 POP PUSH2 0x119A DUP2 PUSH2 0x1C0D JUMP JUMPDEST SWAP3 SWAP2 POP POP JUMP JUMPDEST PUSH1 0x0 DUP2 CALLDATALOAD SWAP1 POP PUSH2 0x11AF DUP2 PUSH2 0x1C24 JUMP JUMPDEST SWAP3 SWAP2 POP POP JUMP JUMPDEST PUSH1 0x0 DUP2 MLOAD SWAP1 POP PUSH2 0x11C4 DUP2 PUSH2 0x1C24 JUMP JUMPDEST SWAP3 SWAP2 POP POP JUMP JUMPDEST PUSH1 0x0 DUP1 PUSH1 0x40 DUP4 DUP6 SUB SLT ISZERO PUSH2 0x11E1 JUMPI PUSH2 0x11E0 PUSH2 0x1BB6 JUMP JUMPDEST JUMPDEST PUSH1 0x0 PUSH2 0x11EF DUP6 DUP3 DUP7 ADD PUSH2 0x1161 JUMP JUMPDEST SWAP3 POP POP PUSH1 0x20 PUSH2 0x1200 DUP6 DUP3 DUP7 ADD PUSH2 0x11A0 JUMP JUMPDEST SWAP2 POP POP SWAP3 POP SWAP3 SWAP1 POP JUMP JUMPDEST PUSH1 0x0 PUSH1 0x20 DUP3 DUP5 SUB SLT ISZERO PUSH2 0x1220 JUMPI PUSH2 0x121F PUSH2 0x1BB6 JUMP JUMPDEST JUMPDEST PUSH1 0x0 PUSH2 0x122E DUP5 DUP3 DUP6 ADD PUSH2 0x1176 JUMP JUMPDEST SWAP2 POP POP SWAP3 SWAP2 POP POP JUMP JUMPDEST PUSH1 0x0 PUSH1 0x20 DUP3 DUP5 SUB SLT ISZERO PUSH2 0x124D JUMPI PUSH2 0x124C PUSH2 0x1BB6 JUMP JUMPDEST JUMPDEST PUSH1 0x0 PUSH2 0x125B DUP5 DUP3 DUP6 ADD PUSH2 0x118B JUMP JUMPDEST SWAP2 POP POP SWAP3 SWAP2 POP POP JUMP JUMPDEST PUSH1 0x0 DUP1 PUSH1 0x0 DUP1 PUSH1 0x80 DUP6 DUP8 SUB SLT ISZERO PUSH2 0x127E JUMPI PUSH2 0x127D PUSH2 0x1BB6 JUMP JUMPDEST JUMPDEST PUSH1 0x0 PUSH2 0x128C DUP8 DUP3 DUP9 ADD PUSH2 0x118B JUMP JUMPDEST SWAP5 POP POP PUSH1 0x20 PUSH2 0x129D DUP8 DUP3 DUP9 ADD PUSH2 0x118B JUMP JUMPDEST SWAP4 POP POP PUSH1 0x40 PUSH2 0x12AE DUP8 DUP3 DUP9 ADD PUSH2 0x118B JUMP JUMPDEST SWAP3 POP POP PUSH1 0x60 PUSH2 0x12BF DUP8 DUP3 DUP9 ADD PUSH2 0x118B JUMP JUMPDEST SWAP2 POP POP SWAP3 SWAP6 SWAP2 SWAP5 POP SWAP3 POP JUMP JUMPDEST PUSH1 0x0 PUSH1 0x20 DUP3 DUP5 SUB SLT ISZERO PUSH2 0x12E1 JUMPI PUSH2 0x12E0 PUSH2 0x1BB6 JUMP JUMPDEST JUMPDEST PUSH1 0x0 PUSH2 0x12EF DUP5 DUP3 DUP6 ADD PUSH2 0x11A0 JUMP JUMPDEST SWAP2 POP POP SWAP3 SWAP2 POP POP JUMP JUMPDEST PUSH1 0x0 PUSH1 0x20 DUP3 DUP5 SUB SLT ISZERO PUSH2 0x130E JUMPI PUSH2 0x130D PUSH2 0x1BB6 JUMP JUMPDEST JUMPDEST PUSH1 0x0 PUSH2 0x131C DUP5 DUP3 DUP6 ADD PUSH2 0x11B5 JUMP JUMPDEST SWAP2 POP POP SWAP3 SWAP2 POP POP JUMP JUMPDEST PUSH1 0x0 DUP1 PUSH1 0x40 DUP4 DUP6 SUB SLT ISZERO PUSH2 0x133C JUMPI PUSH2 0x133B PUSH2 0x1BB6 JUMP JUMPDEST JUMPDEST PUSH1 0x0 PUSH2 0x134A DUP6 DUP3 DUP7 ADD PUSH2 0x11B5 JUMP JUMPDEST SWAP3 POP POP PUSH1 0x20 PUSH2 0x135B DUP6 DUP3 DUP7 ADD PUSH2 0x114C JUMP JUMPDEST SWAP2 POP POP SWAP3 POP SWAP3 SWAP1 POP JUMP JUMPDEST PUSH2 0x136E DUP2 PUSH2 0x1A20 JUMP JUMPDEST DUP3 MSTORE POP POP JUMP JUMPDEST PUSH2 0x137D DUP2 PUSH2 0x1A32 JUMP JUMPDEST DUP3 MSTORE POP POP JUMP JUMPDEST PUSH2 0x138C DUP2 PUSH2 0x19EC JUMP JUMPDEST DUP3 MSTORE POP POP JUMP JUMPDEST PUSH2 0x139B DUP2 PUSH2 0x1A16 JUMP JUMPDEST DUP3 MSTORE POP POP JUMP JUMPDEST PUSH1 0x0 PUSH1 0x20 DUP3 ADD SWAP1 POP PUSH2 0x13B6 PUSH1 0x0 DUP4 ADD DUP5 PUSH2 0x1365 JUMP JUMPDEST SWAP3 SWAP2 POP POP JUMP JUMPDEST PUSH1 0x0 PUSH1 0x20 DUP3 ADD SWAP1 POP PUSH2 0x13D1 PUSH1 0x0 DUP4 ADD DUP5 PUSH2 0x1374 JUMP JUMPDEST SWAP3 SWAP2 POP POP JUMP JUMPDEST PUSH1 0x0 PUSH1 0x20 DUP3 ADD SWAP1 POP PUSH2 0x13EC PUSH1 0x0 DUP4 ADD DUP5 PUSH2 0x1383 JUMP JUMPDEST SWAP3 SWAP2 POP POP JUMP JUMPDEST PUSH1 0x0 PUSH1 0x20 DUP3 ADD SWAP1 POP PUSH2 0x1407 PUSH1 0x0 DUP4 ADD DUP5 PUSH2 0x1392 JUMP JUMPDEST SWAP3 SWAP2 POP POP JUMP JUMPDEST PUSH1 0x0 PUSH1 0x40 DUP3 ADD SWAP1 POP PUSH2 0x1422 PUSH1 0x0 DUP4 ADD DUP6 PUSH2 0x1392 JUMP JUMPDEST PUSH2 0x142F PUSH1 0x20 DUP4 ADD DUP5 PUSH2 0x1383 JUMP JUMPDEST SWAP4 SWAP3 POP POP POP JUMP JUMPDEST PUSH1 0x0 PUSH1 0x80 DUP3 ADD SWAP1 POP PUSH2 0x144B PUSH1 0x0 DUP4 ADD DUP8 PUSH2 0x1392 JUMP JUMPDEST PUSH2 0x1458 PUSH1 0x20 DUP4 ADD DUP7 PUSH2 0x1392 JUMP JUMPDEST PUSH2 0x1465 PUSH1 0x40 DUP4 ADD DUP6 PUSH2 0x1383 JUMP JUMPDEST PUSH2 0x1472 PUSH1 0x60 DUP4 ADD DUP5 PUSH2 0x1392 JUMP JUMPDEST SWAP6 SWAP5 POP POP POP POP POP JUMP JUMPDEST PUSH1 0x0 PUSH2 0x1486 DUP3 PUSH2 0x19EC JUMP JUMPDEST SWAP2 POP PUSH2 0x1491 DUP4 PUSH2 0x19EC JUMP JUMPDEST SWAP3 POP DUP2 PUSH32 0x7FFFFFFFFFFFFFFFFFFFFFFFFFFFFFFFFFFFFFFFFFFFFFFFFFFFFFFFFFFFFFFF SUB DUP4 SGT PUSH1 0x0 DUP4 SLT ISZERO AND ISZERO PUSH2 0x14CC JUMPI PUSH2 0x14CB PUSH2 0x1B29 JUMP JUMPDEST JUMPDEST DUP2 PUSH32 0x8000000000000000000000000000000000000000000000000000000000000000 SUB DUP4 SLT PUSH1 0x0 DUP4 SLT AND ISZERO PUSH2 0x1504 JUMPI PUSH2 0x1503 PUSH2 0x1B29 JUMP JUMPDEST JUMPDEST DUP3 DUP3 ADD SWAP1 POP SWAP3 SWAP2 POP POP JUMP JUMPDEST PUSH1 0x0 PUSH2 0x151A DUP3 PUSH2 0x1A16 JUMP JUMPDEST SWAP2 POP PUSH2 0x1525 DUP4 PUSH2 0x1A16 JUMP JUMPDEST SWAP3 POP DUP3 PUSH32 0xFFFFFFFFFFFFFFFFFFFFFFFFFFFFFFFFFFFFFFFFFFFFFFFFFFFFFFFFFFFFFFFF SUB DUP3 GT ISZERO PUSH2 0x155A JUMPI PUSH2 0x1559 PUSH2 0x1B29 JUMP JUMPDEST JUMPDEST DUP3 DUP3 ADD SWAP1 POP SWAP3 SWAP2 POP POP JUMP JUMPDEST PUSH1 0x0 PUSH2 0x1570 DUP3 PUSH2 0x19EC JUMP JUMPDEST SWAP2 POP PUSH2 0x157B DUP4 PUSH2 0x19EC JUMP JUMPDEST SWAP3 POP DUP3 PUSH2 0x158B JUMPI PUSH2 0x158A PUSH2 0x1B58 JUMP JUMPDEST JUMPDEST PUSH1 0x1 PUSH1 0x0 SUB DUP4 EQ PUSH32 0x8000000000000000000000000000000000000000000000000000000000000000 DUP4 EQ AND ISZERO PUSH2 0x15C4 JUMPI PUSH2 0x15C3 PUSH2 0x1B29 JUMP JUMPDEST JUMPDEST DUP3 DUP3 SDIV SWAP1 POP SWAP3 SWAP2 POP POP JUMP JUMPDEST PUSH1 0x0 PUSH2 0x15DA DUP3 PUSH2 0x1A16 JUMP JUMPDEST SWAP2 POP PUSH2 0x15E5 DUP4 PUSH2 0x1A16 JUMP JUMPDEST SWAP3 POP DUP3 PUSH2 0x15F5 JUMPI PUSH2 0x15F4 PUSH2 0x1B58 JUMP JUMPDEST JUMPDEST DUP3 DUP3 DIV SWAP1 POP SWAP3 SWAP2 POP POP JUMP JUMPDEST PUSH1 0x0 DUP1 DUP3 SWAP2 POP DUP4 SWAP1 POP JUMPDEST PUSH1 0x1 DUP6 GT ISZERO PUSH2 0x164A JUMPI DUP1 DUP7 DIV DUP2 GT ISZERO PUSH2 0x1626 JUMPI PUSH2 0x1625 PUSH2 0x1B29 JUMP JUMPDEST JUMPDEST PUSH1 0x1 DUP6 AND ISZERO PUSH2 0x1635 JUMPI DUP1 DUP3 MUL SWAP2 POP JUMPDEST DUP1 DUP2 MUL SWAP1 POP PUSH2 0x1643 DUP6 PUSH2 0x1BBB JUMP JUMPDEST SWAP5 POP PUSH2 0x160A JUMP JUMPDEST SWAP5 POP SWAP5 SWAP3 POP POP POP JUMP JUMPDEST PUSH1 0x0 PUSH2 0x165E DUP3 PUSH2 0x1A16 JUMP JUMPDEST SWAP2 POP PUSH2 0x1669 DUP4 PUSH2 0x1A16 JUMP JUMPDEST SWAP3 POP PUSH2 0x1696 PUSH32 0xFFFFFFFFFFFFFFFFFFFFFFFFFFFFFFFFFFFFFFFFFFFFFFFFFFFFFFFFFFFFFFFF DUP5 DUP5 PUSH2 0x169E JUMP JUMPDEST SWAP1 POP SWAP3 SWAP2 POP POP JUMP JUMPDEST PUSH1 0x0 DUP3 PUSH2 0x16AE JUMPI PUSH1 0x1 SWAP1 POP PUSH2 0x176A JUMP JUMPDEST DUP2 PUSH2 0x16BC JUMPI PUSH1 0x0 SWAP1 POP PUSH2 0x176A JUMP JUMPDEST DUP2 PUSH1 0x1 DUP2 EQ PUSH2 0x16D2 JUMPI PUSH1 0x2 DUP2 EQ PUSH2 0x16DC JUMPI PUSH2 0x170B JUMP JUMPDEST PUSH1 0x1 SWAP2 POP POP PUSH2 0x176A JUMP JUMPDEST PUSH1 0xFF DUP5 GT ISZERO PUSH2 0x16EE JUMPI PUSH2 0x16ED PUSH2 0x1B29 JUMP JUMPDEST JUMPDEST DUP4 PUSH1 0x2 EXP SWAP2 POP DUP5 DUP3 GT ISZERO PUSH2 0x1705 JUMPI PUSH2 0x1704 PUSH2 0x1B29 JUMP JUMPDEST JUMPDEST POP PUSH2 0x176A JUMP JUMPDEST POP PUSH1 0x20 DUP4 LT PUSH2 0x133 DUP4 LT AND PUSH1 0x4E DUP5 LT PUSH1 0xB DUP5 LT AND OR ISZERO PUSH2 0x1740 JUMPI DUP3 DUP3 EXP SWAP1 POP DUP4 DUP2 GT ISZERO PUSH2 0x173B JUMPI PUSH2 0x173A PUSH2 0x1B29 JUMP JUMPDEST JUMPDEST PUSH2 0x176A JUMP JUMPDEST PUSH2 0x174D DUP5 DUP5 DUP5 PUSH1 0x1 PUSH2 0x1600 JUMP JUMPDEST SWAP3 POP SWAP1 POP DUP2 DUP5 DIV DUP2 GT ISZERO PUSH2 0x1764 JUMPI PUSH2 0x1763 PUSH2 0x1B29 JUMP JUMPDEST JUMPDEST DUP2 DUP2 MUL SWAP1 POP JUMPDEST SWAP4 SWAP3 POP POP POP JUMP JUMPDEST PUSH1 0x0 PUSH2 0x177C DUP3 PUSH2 0x19EC JUMP JUMPDEST SWAP2 POP PUSH2 0x1787 DUP4 PUSH2 0x19EC JUMP JUMPDEST SWAP3 POP DUP3 PUSH32 0x7FFFFFFFFFFFFFFFFFFFFFFFFFFFFFFFFFFFFFFFFFFFFFFFFFFFFFFFFFFFFFFF DIV DUP3 GT PUSH1 0x0 DUP5 SGT PUSH1 0x0 DUP5 SGT AND AND ISZERO PUSH2 0x17C6 JUMPI PUSH2 0x17C5 PUSH2 0x1B29 JUMP JUMPDEST JUMPDEST DUP2 PUSH32 0x8000000000000000000000000000000000000000000000000000000000000000 SDIV DUP4 SLT PUSH1 0x0 DUP5 SLT PUSH1 0x0 DUP5 SGT AND AND ISZERO PUSH2 0x1803 JUMPI PUSH2 0x1802 PUSH2 0x1B29 JUMP JUMPDEST JUMPDEST DUP3 PUSH32 0x8000000000000000000000000000000000000000000000000000000000000000 SDIV DUP3 SLT PUSH1 0x0 DUP5 SGT PUSH1 0x0 DUP5 SLT AND AND ISZERO PUSH2 0x1840 JUMPI PUSH2 0x183F PUSH2 0x1B29 JUMP JUMPDEST JUMPDEST DUP3 PUSH32 0x7FFFFFFFFFFFFFFFFFFFFFFFFFFFFFFFFFFFFFFFFFFFFFFFFFFFFFFFFFFFFFFF SDIV DUP3 SLT PUSH1 0x0 DUP5 SLT PUSH1 0x0 DUP5 SLT AND AND ISZERO PUSH2 0x187D JUMPI PUSH2 0x187C PUSH2 0x1B29 JUMP JUMPDEST JUMPDEST DUP3 DUP3 MUL SWAP1 POP SWAP3 SWAP2 POP POP JUMP JUMPDEST PUSH1 0x0 PUSH2 0x1893 DUP3 PUSH2 0x1A16 JUMP JUMPDEST SWAP2 POP PUSH2 0x189E DUP4 PUSH2 0x1A16 JUMP JUMPDEST SWAP3 POP DUP2 PUSH32 0xFFFFFFFFFFFFFFFFFFFFFFFFFFFFFFFFFFFFFFFFFFFFFFFFFFFFFFFFFFFFFFFF DIV DUP4 GT DUP3 ISZERO ISZERO AND ISZERO PUSH2 0x18D7 JUMPI PUSH2 0x18D6 PUSH2 0x1B29 JUMP JUMPDEST JUMPDEST DUP3 DUP3 MUL SWAP1 POP SWAP3 SWAP2 POP POP JUMP JUMPDEST PUSH1 0x0 PUSH2 0x18ED DUP3 PUSH2 0x19EC JUMP JUMPDEST SWAP2 POP PUSH2 0x18F8 DUP4 PUSH2 0x19EC JUMP JUMPDEST SWAP3 POP DUP3 PUSH32 0x8000000000000000000000000000000000000000000000000000000000000000 ADD DUP3 SLT PUSH1 0x0 DUP5 SLT ISZERO AND ISZERO PUSH2 0x1933 JUMPI PUSH2 0x1932 PUSH2 0x1B29 JUMP JUMPDEST JUMPDEST DUP3 PUSH32 0x7FFFFFFFFFFFFFFFFFFFFFFFFFFFFFFFFFFFFFFFFFFFFFFFFFFFFFFFFFFFFFFF ADD DUP3 SGT PUSH1 0x0 DUP5 SLT AND ISZERO PUSH2 0x196B JUMPI PUSH2 0x196A PUSH2 0x1B29 JUMP JUMPDEST JUMPDEST DUP3 DUP3 SUB SWAP1 POP SWAP3 SWAP2 POP POP JUMP JUMPDEST PUSH1 0x0 PUSH2 0x1981 DUP3 PUSH2 0x1A16 JUMP JUMPDEST SWAP2 POP PUSH2 0x198C DUP4 PUSH2 0x1A16 JUMP JUMPDEST SWAP3 POP DUP3 DUP3 LT ISZERO PUSH2 0x199F JUMPI PUSH2 0x199E PUSH2 0x1B29 JUMP JUMPDEST JUMPDEST DUP3 DUP3 SUB SWAP1 POP SWAP3 SWAP2 POP POP JUMP JUMPDEST PUSH1 0x0 PUSH2 0x19B5 DUP3 PUSH2 0x19F6 JUMP JUMPDEST SWAP1 POP SWAP2 SWAP1 POP JUMP JUMPDEST PUSH1 0x0 DUP2 ISZERO ISZERO SWAP1 POP SWAP2 SWAP1 POP JUMP JUMPDEST PUSH1 0x0 PUSH2 0x19D3 DUP3 PUSH2 0x19AA JUMP JUMPDEST SWAP1 POP SWAP2 SWAP1 POP JUMP JUMPDEST PUSH1 0x0 PUSH2 0x19E5 DUP3 PUSH2 0x19AA JUMP JUMPDEST SWAP1 POP SWAP2 SWAP1 POP JUMP JUMPDEST PUSH1 0x0 DUP2 SWAP1 POP SWAP2 SWAP1 POP JUMP JUMPDEST PUSH1 0x0 PUSH20 0xFFFFFFFFFFFFFFFFFFFFFFFFFFFFFFFFFFFFFFFF DUP3 AND SWAP1 POP SWAP2 SWAP1 POP JUMP JUMPDEST PUSH1 0x0 DUP2 SWAP1 POP SWAP2 SWAP1 POP JUMP JUMPDEST PUSH1 0x0 PUSH2 0x1A2B DUP3 PUSH2 0x1A44 JUMP JUMPDEST SWAP1 POP SWAP2 SWAP1 POP JUMP JUMPDEST PUSH1 0x0 PUSH2 0x1A3D DUP3 PUSH2 0x1A44 JUMP JUMPDEST SWAP1 POP SWAP2 SWAP1 POP JUMP JUMPDEST PUSH1 0x0 PUSH2 0x1A4F DUP3 PUSH2 0x1A56 JUMP JUMPDEST SWAP1 POP SWAP2 SWAP1 POP JUMP JUMPDEST PUSH1 0x0 PUSH2 0x1A61 DUP3 PUSH2 0x19F6 JUMP JUMPDEST SWAP1 POP SWAP2 SWAP1 POP JUMP JUMPDEST PUSH1 0x0 PUSH2 0x1A73 DUP3 PUSH2 0x1A16 JUMP JUMPDEST SWAP2 POP PUSH32 0xFFFFFFFFFFFFFFFFFFFFFFFFFFFFFFFFFFFFFFFFFFFFFFFFFFFFFFFFFFFFFFFF DUP3 EQ ISZERO PUSH2 0x1AA6 JUMPI PUSH2 0x1AA5 PUSH2 0x1B29 JUMP JUMPDEST JUMPDEST PUSH1 0x1 DUP3 ADD SWAP1 POP SWAP2 SWAP1 POP JUMP JUMPDEST PUSH1 0x0 PUSH2 0x1ABC DUP3 PUSH2 0x19EC JUMP JUMPDEST SWAP2 POP PUSH32 0x8000000000000000000000000000000000000000000000000000000000000000 DUP3 EQ ISZERO PUSH2 0x1AEF JUMPI PUSH2 0x1AEE PUSH2 0x1B29 JUMP JUMPDEST JUMPDEST DUP2 PUSH1 0x0 SUB SWAP1 POP SWAP2 SWAP1 POP JUMP JUMPDEST PUSH32 0x4E487B7100000000000000000000000000000000000000000000000000000000 PUSH1 0x0 MSTORE PUSH1 0x1 PUSH1 0x4 MSTORE PUSH1 0x24 PUSH1 0x0 REVERT JUMPDEST PUSH32 0x4E487B7100000000000000000000000000000000000000000000000000000000 PUSH1 0x0 MSTORE PUSH1 0x11 PUSH1 0x4 MSTORE PUSH1 0x24 PUSH1 0x0 REVERT JUMPDEST PUSH32 0x4E487B7100000000000000000000000000000000000000000000000000000000 PUSH1 0x0 MSTORE PUSH1 0x12 PUSH1 0x4 MSTORE PUSH1 0x24 PUSH1 0x0 REVERT JUMPDEST PUSH32 0x4E487B7100000000000000000000000000000000000000000000000000000000 PUSH1 0x0 MSTORE PUSH1 0x32 PUSH1 0x4 MSTORE PUSH1 0x24 PUSH1 0x0 REVERT JUMPDEST PUSH1 0x0 DUP1 REVERT JUMPDEST PUSH1 0x0 DUP2 PUSH1 0x1 SHR SWAP1 POP SWAP2 SWAP1 POP JUMP JUMPDEST PUSH2 0x1BD1 DUP2 PUSH2 0x19BC JUMP JUMPDEST DUP2 EQ PUSH2 0x1BDC JUMPI PUSH1 0x0 DUP1 REVERT JUMPDEST POP JUMP JUMPDEST PUSH2 0x1BE8 DUP2 PUSH2 0x19C8 JUMP JUMPDEST DUP2 EQ PUSH2 0x1BF3 JUMPI PUSH1 0x0 DUP1 REVERT JUMPDEST POP JUMP JUMPDEST PUSH2 0x1BFF DUP2 PUSH2 0x19DA JUMP JUMPDEST DUP2 EQ PUSH2 0x1C0A JUMPI PUSH1 0x0 DUP1 REVERT JUMPDEST POP JUMP JUMPDEST PUSH2 0x1C16 DUP2 PUSH2 0x19EC JUMP JUMPDEST DUP2 EQ PUSH2 0x1C21 JUMPI PUSH1 0x0 DUP1 REVERT JUMPDEST POP JUMP JUMPDEST PUSH2 0x1C2D DUP2 PUSH2 0x1A16 JUMP JUMPDEST DUP2 EQ PUSH2 0x1C38 JUMPI PUSH1 0x0 DUP1 REVERT JUMPDEST POP JUMP INVALID LOG2 PUSH5 0x6970667358 0x22 SLT KECCAK256 LOG2 PUSH9 0x477565D2245838E11E CODESIZE 0xB3 0xE5 0x4A PUSH32 0xDA01963EC568880DDAB160FEA849878F64736F6C634300080700330000000000 "
				},
				"gasEstimates": {
					"creation": {
						"codeDepositCost": "1456200",
						"executionCost": "1520",
						"totalCost": "1457720"
					},
					"external": {
						"cmmd()": "2665",
						"computeRebasePercentage(int256,int256,int256,int256)": "infinite",
						"cpiOracle()": "2689",
						"deviationThreshold()": "2495",
						"epoch()": "2452",
						"initialize(address,uint256)": "infinite",
						"marketOracle()": "2645",
						"rebase()": "infinite",
						"rebaseFunctionGrowth()": "2496",
						"rebaseFunctionLowerPercentage()": "2452",
						"rebaseFunctionUpperPercentage()": "2474",
						"setCpiOracle(address)": "24811",
						"setDeviationThreshold(uint256)": "22610",
						"setMarketOracle(address)": "24832",
						"setRebaseFunctionGrowth(int256)": "22635",
						"setRebaseFunctionLowerPercentage(int256)": "22634",
						"setRebaseFunctionUpperPercentage(int256)": "22656"
					},
					"internal": {
						"computeSupplyDelta(uint256,uint256)": "infinite",
						"withinDeviationThreshold(uint256,uint256)": "infinite"
					}
				},
				"methodIdentifiers": {
					"cmmd()": "4dafa35e",
					"computeRebasePercentage(int256,int256,int256,int256)": "3a785af1",
					"cpiOracle()": "ab33c5ca",
					"deviationThreshold()": "d94ad837",
					"epoch()": "900cf0cf",
					"initialize(address,uint256)": "cd6dc687",
					"marketOracle()": "60961528",
					"rebase()": "af14052c",
					"rebaseFunctionGrowth()": "7486cdea",
					"rebaseFunctionLowerPercentage()": "5ee01540",
					"rebaseFunctionUpperPercentage()": "9db59b2f",
					"setCpiOracle(address)": "3d6a46e5",
					"setDeviationThreshold(uint256)": "53a15edc",
					"setMarketOracle(address)": "9e30bac5",
					"setRebaseFunctionGrowth(int256)": "8001066d",
					"setRebaseFunctionLowerPercentage(int256)": "e9fa88a4",
					"setRebaseFunctionUpperPercentage(int256)": "f4fefa49"
				}
			},
			"storageLayout": {
				"storage": [
					{
						"astId": 42,
						"contract": "contracts/CMMDPolicy.sol:CMMDPolicy",
						"label": "cmmd",
						"offset": 0,
						"slot": "0",
						"type": "t_contract(ICMMD)18"
					},
					{
						"astId": 45,
						"contract": "contracts/CMMDPolicy.sol:CMMDPolicy",
						"label": "cpiOracle",
						"offset": 0,
						"slot": "1",
						"type": "t_contract(IOracle)26"
					},
					{
						"astId": 48,
						"contract": "contracts/CMMDPolicy.sol:CMMDPolicy",
						"label": "marketOracle",
						"offset": 0,
						"slot": "2",
						"type": "t_contract(IOracle)26"
					},
					{
						"astId": 50,
						"contract": "contracts/CMMDPolicy.sol:CMMDPolicy",
						"label": "baseCpi",
						"offset": 0,
						"slot": "3",
						"type": "t_uint256"
					},
					{
						"astId": 52,
						"contract": "contracts/CMMDPolicy.sol:CMMDPolicy",
						"label": "deviationThreshold",
						"offset": 0,
						"slot": "4",
						"type": "t_uint256"
					},
					{
						"astId": 54,
						"contract": "contracts/CMMDPolicy.sol:CMMDPolicy",
						"label": "epoch",
						"offset": 0,
						"slot": "5",
						"type": "t_uint256"
					},
					{
						"astId": 80,
						"contract": "contracts/CMMDPolicy.sol:CMMDPolicy",
						"label": "rebaseFunctionLowerPercentage",
						"offset": 0,
						"slot": "6",
						"type": "t_int256"
					},
					{
						"astId": 82,
						"contract": "contracts/CMMDPolicy.sol:CMMDPolicy",
						"label": "rebaseFunctionUpperPercentage",
						"offset": 0,
						"slot": "7",
						"type": "t_int256"
					},
					{
						"astId": 84,
						"contract": "contracts/CMMDPolicy.sol:CMMDPolicy",
						"label": "rebaseFunctionGrowth",
						"offset": 0,
						"slot": "8",
						"type": "t_int256"
					}
				],
				"types": {
					"t_contract(ICMMD)18": {
						"encoding": "inplace",
						"label": "contract ICMMD",
						"numberOfBytes": "20"
					},
					"t_contract(IOracle)26": {
						"encoding": "inplace",
						"label": "contract IOracle",
						"numberOfBytes": "20"
					},
					"t_int256": {
						"encoding": "inplace",
						"label": "int256",
						"numberOfBytes": "32"
					},
					"t_uint256": {
						"encoding": "inplace",
						"label": "uint256",
						"numberOfBytes": "32"
					}
				}
			},
			"userdoc": {
				"kind": "user",
				"methods": {
					"computeRebasePercentage(int256,int256,int256,int256)": {
						"notice": "Computes the percentage of supply to be added or removed: Using the function in https://github.com/ampleforth/AIPs/blob/master/AIPs/aip-5.md"
					},
					"rebase()": {
						"notice": "Initiates a new rebase operation, provided the minimum time period has elapsed."
					},
					"setCpiOracle(address)": {
						"notice": "Sets the reference to the CPI oracle."
					},
					"setDeviationThreshold(uint256)": {
						"notice": "Sets the deviation threshold fraction. If the exchange rate given by the market         oracle is within this fractional distance from the targetRate, then no supply         modifications are made. DECIMALS fixed point number."
					},
					"setMarketOracle(address)": {
						"notice": "Sets the reference to the Market oracle."
					}
				},
				"version": 1
			}
		}
	}
}