{
	"contracts/Oracle.sol": {
		"Oracle": {
			"abi": [
				{
					"anonymous": false,
					"inputs": [
						{
							"indexed": false,
							"internalType": "uint256",
							"name": "price",
							"type": "uint256"
						}
					],
					"name": "PrintData",
					"type": "event"
				},
				{
					"anonymous": false,
					"inputs": [
						{
							"indexed": false,
							"internalType": "address",
							"name": "provider",
							"type": "address"
						}
					],
					"name": "ProviderAdded",
					"type": "event"
				},
				{
					"anonymous": false,
					"inputs": [
						{
							"indexed": false,
							"internalType": "address",
							"name": "provider",
							"type": "address"
						}
					],
					"name": "ProviderRemoved",
					"type": "event"
				},
				{
					"anonymous": false,
					"inputs": [
						{
							"indexed": true,
							"internalType": "address",
							"name": "provider",
							"type": "address"
						},
						{
							"indexed": false,
							"internalType": "uint256",
							"name": "payload",
							"type": "uint256"
						},
						{
							"indexed": false,
							"internalType": "uint256",
							"name": "timestamp",
							"type": "uint256"
						}
					],
					"name": "ProviderReportPushed",
					"type": "event"
				},
				{
					"inputs": [
						{
							"internalType": "address",
							"name": "provider",
							"type": "address"
						}
					],
					"name": "addProvider",
					"outputs": [],
					"stateMutability": "nonpayable",
					"type": "function"
				},
				{
					"inputs": [],
					"name": "getData",
					"outputs": [
						{
							"internalType": "uint256",
							"name": "",
							"type": "uint256"
						},
						{
							"internalType": "bool",
							"name": "",
							"type": "bool"
						}
					],
					"stateMutability": "view",
					"type": "function"
				},
				{
					"inputs": [],
					"name": "minimumProviders",
					"outputs": [
						{
							"internalType": "uint256",
							"name": "",
							"type": "uint256"
						}
					],
					"stateMutability": "view",
					"type": "function"
				},
				{
					"inputs": [],
					"name": "printData",
					"outputs": [],
					"stateMutability": "nonpayable",
					"type": "function"
				},
				{
					"inputs": [
						{
							"internalType": "address",
							"name": "",
							"type": "address"
						},
						{
							"internalType": "uint256",
							"name": "",
							"type": "uint256"
						}
					],
					"name": "providerReports",
					"outputs": [
						{
							"internalType": "uint256",
							"name": "timestamp",
							"type": "uint256"
						},
						{
							"internalType": "uint256",
							"name": "payload",
							"type": "uint256"
						}
					],
					"stateMutability": "view",
					"type": "function"
				},
				{
					"inputs": [
						{
							"internalType": "uint256",
							"name": "",
							"type": "uint256"
						}
					],
					"name": "providers",
					"outputs": [
						{
							"internalType": "address",
							"name": "",
							"type": "address"
						}
					],
					"stateMutability": "view",
					"type": "function"
				},
				{
					"inputs": [],
					"name": "providersSize",
					"outputs": [
						{
							"internalType": "uint256",
							"name": "",
							"type": "uint256"
						}
					],
					"stateMutability": "view",
					"type": "function"
				},
				{
					"inputs": [],
					"name": "purgeReports",
					"outputs": [],
					"stateMutability": "nonpayable",
					"type": "function"
				},
				{
					"inputs": [
						{
							"internalType": "uint256",
							"name": "payload",
							"type": "uint256"
						}
					],
					"name": "pushReport",
					"outputs": [],
					"stateMutability": "nonpayable",
					"type": "function"
				},
				{
					"inputs": [
						{
							"internalType": "address",
							"name": "provider",
							"type": "address"
						}
					],
					"name": "removeProvider",
					"outputs": [],
					"stateMutability": "nonpayable",
					"type": "function"
				},
				{
					"inputs": [
						{
							"internalType": "uint256",
							"name": "minimumProviders_",
							"type": "uint256"
						}
					],
					"name": "setMinimumProviders",
					"outputs": [],
					"stateMutability": "nonpayable",
					"type": "function"
				}
			],
			"devdoc": {
				"kind": "dev",
				"methods": {
					"addProvider(address)": {
						"params": {
							"provider": "Address of the provider."
						}
					},
					"getData()": {
						"returns": {
							"_0": "Price for now, don't need to do any calculation"
						}
					},
					"providersSize()": {
						"returns": {
							"_0": "The number of authorized providers."
						}
					},
					"pushReport(uint256)": {
						"params": {
							"payload": "is expected to be 18 decimal fixed point number."
						}
					},
					"removeProvider(address)": {
						"params": {
							"provider": "Address of the provider."
						}
					},
					"setMinimumProviders(uint256)": {
						"params": {
							"minimumProviders_": "The new minimum number of providers."
						}
					}
				},
				"version": 1
			},
			"evm": {
				"assembly": "    /* \"contracts/Oracle.sol\":415:4921  contract Oracle is IOracle {... */\n  mstore(0x40, 0x80)\n    /* \"contracts/Oracle.sol\":1137:1138  1 */\n  0x01\n    /* \"contracts/Oracle.sol\":1103:1138  uint256 public minimumProviders = 1 */\n  0x02\n  sstore\n    /* \"contracts/Oracle.sol\":415:4921  contract Oracle is IOracle {... */\n  callvalue\n  dup1\n  iszero\n  tag_1\n  jumpi\n  0x00\n  dup1\n  revert\ntag_1:\n  pop\n  dataSize(sub_0)\n  dup1\n  dataOffset(sub_0)\n  0x00\n  codecopy\n  0x00\n  return\nstop\n\nsub_0: assembly {\n        /* \"contracts/Oracle.sol\":415:4921  contract Oracle is IOracle {... */\n      mstore(0x40, 0x80)\n      callvalue\n      dup1\n      iszero\n      tag_1\n      jumpi\n      0x00\n      dup1\n      revert\n    tag_1:\n      pop\n      jumpi(tag_2, lt(calldatasize, 0x04))\n      shr(0xe0, calldataload(0x00))\n      dup1\n      0xb577c0c7\n      gt\n      tag_14\n      jumpi\n      dup1\n      0xb577c0c7\n      eq\n      tag_8\n      jumpi\n      dup1\n      0xd13d5971\n      eq\n      tag_9\n      jumpi\n      dup1\n      0xdcbb8253\n      eq\n      tag_10\n      jumpi\n      dup1\n      0xe81bd2a4\n      eq\n      tag_11\n      jumpi\n      dup1\n      0xef35bcce\n      eq\n      tag_12\n      jumpi\n      dup1\n      0xf10864b6\n      eq\n      tag_13\n      jumpi\n      jump(tag_2)\n    tag_14:\n      dup1\n      0x1e20d14b\n      eq\n      tag_3\n      jumpi\n      dup1\n      0x3bc5de30\n      eq\n      tag_4\n      jumpi\n      dup1\n      0x46e2577a\n      eq\n      tag_5\n      jumpi\n      dup1\n      0x50f3fc81\n      eq\n      tag_6\n      jumpi\n      dup1\n      0x8a355a57\n      eq\n      tag_7\n      jumpi\n    tag_2:\n      0x00\n      dup1\n      revert\n        /* \"contracts/Oracle.sol\":2047:2476  function pushReport(uint256 payload) public override {... */\n    tag_3:\n      tag_15\n      0x04\n      dup1\n      calldatasize\n      sub\n      dup2\n      add\n      swap1\n      tag_16\n      swap2\n      swap1\n      tag_17\n      jump\t// in\n    tag_16:\n      tag_18\n      jump\t// in\n    tag_15:\n      stop\n        /* \"contracts/Oracle.sol\":2979:3359  function getData() public view override returns (uint256, bool) {... */\n    tag_4:\n      tag_19\n      tag_20\n      jump\t// in\n    tag_19:\n      mload(0x40)\n      tag_21\n      swap3\n      swap2\n      swap1\n      tag_22\n      jump\t// in\n    tag_21:\n      mload(0x40)\n      dup1\n      swap2\n      sub\n      swap1\n      return\n        /* \"contracts/Oracle.sol\":3995:4172  function addProvider(address provider) public {... */\n    tag_5:\n      tag_23\n      0x04\n      dup1\n      calldatasize\n      sub\n      dup2\n      add\n      swap1\n      tag_24\n      swap2\n      swap1\n      tag_25\n      jump\t// in\n    tag_24:\n      tag_26\n      jump\t// in\n    tag_23:\n      stop\n        /* \"contracts/Oracle.sol\":585:611  address[] public providers */\n    tag_6:\n      tag_27\n      0x04\n      dup1\n      calldatasize\n      sub\n      dup2\n      add\n      swap1\n      tag_28\n      swap2\n      swap1\n      tag_17\n      jump\t// in\n    tag_28:\n      tag_29\n      jump\t// in\n    tag_27:\n      mload(0x40)\n      tag_30\n      swap2\n      swap1\n      tag_31\n      jump\t// in\n    tag_30:\n      mload(0x40)\n      dup1\n      swap2\n      sub\n      swap1\n      return\n        /* \"contracts/Oracle.sol\":4289:4751  function removeProvider(address provider) public {... */\n    tag_7:\n      tag_32\n      0x04\n      dup1\n      calldatasize\n      sub\n      dup2\n      add\n      swap1\n      tag_33\n      swap2\n      swap1\n      tag_25\n      jump\t// in\n    tag_33:\n      tag_34\n      jump\t// in\n    tag_32:\n      stop\n        /* \"contracts/Oracle.sol\":1103:1138  uint256 public minimumProviders = 1 */\n    tag_8:\n      tag_35\n      tag_36\n      jump\t// in\n    tag_35:\n      mload(0x40)\n      tag_37\n      swap2\n      swap1\n      tag_38\n      jump\t// in\n    tag_37:\n      mload(0x40)\n      dup1\n      swap2\n      sub\n      swap1\n      return\n        /* \"contracts/Oracle.sol\":2562:2832  function purgeReports() public {... */\n    tag_9:\n      tag_39\n      tag_40\n      jump\t// in\n    tag_39:\n      stop\n        /* \"contracts/Oracle.sol\":4824:4919  function providersSize() public view returns (uint256) {... */\n    tag_10:\n      tag_41\n      tag_42\n      jump\t// in\n    tag_41:\n      mload(0x40)\n      tag_43\n      swap2\n      swap1\n      tag_38\n      jump\t// in\n    tag_43:\n      mload(0x40)\n      dup1\n      swap2\n      sub\n      swap1\n      return\n        /* \"contracts/Oracle.sol\":3365:3887  function printData() public {... */\n    tag_11:\n      tag_44\n      tag_45\n      jump\t// in\n    tag_44:\n      stop\n        /* \"contracts/Oracle.sol\":1741:1897  function setMinimumProviders(uint256 minimumProviders_) public {... */\n    tag_12:\n      tag_46\n      0x04\n      dup1\n      calldatasize\n      sub\n      dup2\n      add\n      swap1\n      tag_47\n      swap2\n      swap1\n      tag_17\n      jump\t// in\n    tag_47:\n      tag_48\n      jump\t// in\n    tag_46:\n      stop\n        /* \"contracts/Oracle.sol\":723:775  mapping(address => Report[2]) public providerReports */\n    tag_13:\n      tag_49\n      0x04\n      dup1\n      calldatasize\n      sub\n      dup2\n      add\n      swap1\n      tag_50\n      swap2\n      swap1\n      tag_51\n      jump\t// in\n    tag_50:\n      tag_52\n      jump\t// in\n    tag_49:\n      mload(0x40)\n      tag_53\n      swap3\n      swap2\n      swap1\n      tag_54\n      jump\t// in\n    tag_53:\n      mload(0x40)\n      dup1\n      swap2\n      sub\n      swap1\n      return\n        /* \"contracts/Oracle.sol\":2047:2476  function pushReport(uint256 payload) public override {... */\n    tag_18:\n        /* \"contracts/Oracle.sol\":2110:2133  address providerAddress */\n      0x00\n        /* \"contracts/Oracle.sol\":2136:2146  msg.sender */\n      caller\n        /* \"contracts/Oracle.sol\":2110:2146  address providerAddress = msg.sender */\n      swap1\n      pop\n        /* \"contracts/Oracle.sol\":2156:2181  Report[2] storage reports */\n      0x00\n        /* \"contracts/Oracle.sol\":2184:2199  providerReports */\n      0x01\n        /* \"contracts/Oracle.sol\":2184:2216  providerReports[providerAddress] */\n      0x00\n        /* \"contracts/Oracle.sol\":2200:2215  providerAddress */\n      dup4\n        /* \"contracts/Oracle.sol\":2184:2216  providerReports[providerAddress] */\n      0xffffffffffffffffffffffffffffffffffffffff\n      and\n      0xffffffffffffffffffffffffffffffffffffffff\n      and\n      dup2\n      mstore\n      0x20\n      add\n      swap1\n      dup2\n      mstore\n      0x20\n      add\n      0x00\n      keccak256\n        /* \"contracts/Oracle.sol\":2156:2216  Report[2] storage reports = providerReports[providerAddress] */\n      swap1\n      pop\n        /* \"contracts/Oracle.sol\":2250:2265  block.timestamp */\n      timestamp\n        /* \"contracts/Oracle.sol\":2227:2234  reports */\n      dup2\n        /* \"contracts/Oracle.sol\":2235:2236  0 */\n      0x00\n        /* \"contracts/Oracle.sol\":2227:2237  reports[0] */\n      0x02\n      dup2\n      lt\n      tag_56\n      jumpi\n      tag_57\n      tag_58\n      jump\t// in\n    tag_57:\n    tag_56:\n      0x02\n      mul\n      add\n        /* \"contracts/Oracle.sol\":2227:2247  reports[0].timestamp */\n      0x00\n      add\n        /* \"contracts/Oracle.sol\":2227:2265  reports[0].timestamp = block.timestamp */\n      dup2\n      swap1\n      sstore\n      pop\n        /* \"contracts/Oracle.sol\":2296:2303  payload */\n      dup3\n        /* \"contracts/Oracle.sol\":2275:2282  reports */\n      dup2\n        /* \"contracts/Oracle.sol\":2283:2284  0 */\n      0x00\n        /* \"contracts/Oracle.sol\":2275:2285  reports[0] */\n      0x02\n      dup2\n      lt\n      tag_60\n      jumpi\n      tag_61\n      tag_58\n      jump\t// in\n    tag_61:\n    tag_60:\n      0x02\n      mul\n      add\n        /* \"contracts/Oracle.sol\":2275:2293  reports[0].payload */\n      0x01\n      add\n        /* \"contracts/Oracle.sol\":2275:2303  reports[0].payload = payload */\n      dup2\n      swap1\n      sstore\n      pop\n        /* \"contracts/Oracle.sol\":2337:2352  block.timestamp */\n      timestamp\n        /* \"contracts/Oracle.sol\":2314:2321  reports */\n      dup2\n        /* \"contracts/Oracle.sol\":2322:2323  1 */\n      0x01\n        /* \"contracts/Oracle.sol\":2314:2324  reports[1] */\n      0x02\n      dup2\n      lt\n      tag_63\n      jumpi\n      tag_64\n      tag_58\n      jump\t// in\n    tag_64:\n    tag_63:\n      0x02\n      mul\n      add\n        /* \"contracts/Oracle.sol\":2314:2334  reports[1].timestamp */\n      0x00\n      add\n        /* \"contracts/Oracle.sol\":2314:2352  reports[1].timestamp = block.timestamp */\n      dup2\n      swap1\n      sstore\n      pop\n        /* \"contracts/Oracle.sol\":2383:2390  payload */\n      dup3\n        /* \"contracts/Oracle.sol\":2362:2369  reports */\n      dup2\n        /* \"contracts/Oracle.sol\":2370:2371  1 */\n      0x01\n        /* \"contracts/Oracle.sol\":2362:2372  reports[1] */\n      0x02\n      dup2\n      lt\n      tag_66\n      jumpi\n      tag_67\n      tag_58\n      jump\t// in\n    tag_67:\n    tag_66:\n      0x02\n      mul\n      add\n        /* \"contracts/Oracle.sol\":2362:2380  reports[1].payload */\n      0x01\n      add\n        /* \"contracts/Oracle.sol\":2362:2390  reports[1].payload = payload */\n      dup2\n      swap1\n      sstore\n      pop\n        /* \"contracts/Oracle.sol\":2427:2442  providerAddress */\n      dup2\n        /* \"contracts/Oracle.sol\":2406:2469  ProviderReportPushed(providerAddress, payload, block.timestamp) */\n      0xffffffffffffffffffffffffffffffffffffffff\n      and\n      0x460fcc5a1888965d48c2cab000fe20da51b1297d995af79a1924e2312d0d82b3\n        /* \"contracts/Oracle.sol\":2444:2451  payload */\n      dup5\n        /* \"contracts/Oracle.sol\":2453:2468  block.timestamp */\n      timestamp\n        /* \"contracts/Oracle.sol\":2406:2469  ProviderReportPushed(providerAddress, payload, block.timestamp) */\n      mload(0x40)\n      tag_69\n      swap3\n      swap2\n      swap1\n      tag_54\n      jump\t// in\n    tag_69:\n      mload(0x40)\n      dup1\n      swap2\n      sub\n      swap1\n      log2\n        /* \"contracts/Oracle.sol\":2100:2476  {... */\n      pop\n      pop\n        /* \"contracts/Oracle.sol\":2047:2476  function pushReport(uint256 payload) public override {... */\n      pop\n      jump\t// out\n        /* \"contracts/Oracle.sol\":2979:3359  function getData() public view override returns (uint256, bool) {... */\n    tag_20:\n        /* \"contracts/Oracle.sol\":3028:3035  uint256 */\n      0x00\n        /* \"contracts/Oracle.sol\":3037:3041  bool */\n      dup1\n        /* \"contracts/Oracle.sol\":3053:3073  uint256 reportsCount */\n      0x00\n        /* \"contracts/Oracle.sol\":3076:3085  providers */\n      dup1\n        /* \"contracts/Oracle.sol\":3076:3092  providers.length */\n      dup1\n      sload\n      swap1\n      pop\n        /* \"contracts/Oracle.sol\":3053:3092  uint256 reportsCount = providers.length */\n      swap1\n      pop\n        /* \"contracts/Oracle.sol\":3102:3122  uint256 latestReport */\n      0x00\n        /* \"contracts/Oracle.sol\":3142:3151  uint256 i */\n      dup1\n        /* \"contracts/Oracle.sol\":3137:3315  for (uint256 i = 0; i < reportsCount; i++) {... */\n    tag_71:\n        /* \"contracts/Oracle.sol\":3161:3173  reportsCount */\n      dup3\n        /* \"contracts/Oracle.sol\":3157:3158  i */\n      dup2\n        /* \"contracts/Oracle.sol\":3157:3173  i < reportsCount */\n      lt\n        /* \"contracts/Oracle.sol\":3137:3315  for (uint256 i = 0; i < reportsCount; i++) {... */\n      iszero\n      tag_72\n      jumpi\n        /* \"contracts/Oracle.sol\":3194:3217  address providerAddress */\n      0x00\n        /* \"contracts/Oracle.sol\":3220:3229  providers */\n      dup1\n        /* \"contracts/Oracle.sol\":3230:3231  i */\n      dup3\n        /* \"contracts/Oracle.sol\":3220:3232  providers[i] */\n      dup2\n      sload\n      dup2\n      lt\n      tag_74\n      jumpi\n      tag_75\n      tag_58\n      jump\t// in\n    tag_75:\n    tag_74:\n      swap1\n      0x00\n      mstore\n      keccak256(0x00, 0x20)\n      add\n      0x00\n      swap1\n      sload\n      swap1\n      0x0100\n      exp\n      swap1\n      div\n      0xffffffffffffffffffffffffffffffffffffffff\n      and\n        /* \"contracts/Oracle.sol\":3194:3232  address providerAddress = providers[i] */\n      swap1\n      pop\n        /* \"contracts/Oracle.sol\":3261:3276  providerReports */\n      0x01\n        /* \"contracts/Oracle.sol\":3261:3293  providerReports[providerAddress] */\n      0x00\n        /* \"contracts/Oracle.sol\":3277:3292  providerAddress */\n      dup3\n        /* \"contracts/Oracle.sol\":3261:3293  providerReports[providerAddress] */\n      0xffffffffffffffffffffffffffffffffffffffff\n      and\n      0xffffffffffffffffffffffffffffffffffffffff\n      and\n      dup2\n      mstore\n      0x20\n      add\n      swap1\n      dup2\n      mstore\n      0x20\n      add\n      0x00\n      keccak256\n        /* \"contracts/Oracle.sol\":3294:3295  1 */\n      0x01\n        /* \"contracts/Oracle.sol\":3261:3296  providerReports[providerAddress][1] */\n      0x02\n      dup2\n      lt\n      tag_77\n      jumpi\n      tag_78\n      tag_58\n      jump\t// in\n    tag_78:\n    tag_77:\n      0x02\n      mul\n      add\n        /* \"contracts/Oracle.sol\":3261:3304  providerReports[providerAddress][1].payload */\n      0x01\n      add\n      sload\n        /* \"contracts/Oracle.sol\":3246:3304  latestReport = providerReports[providerAddress][1].payload */\n      swap3\n      pop\n        /* \"contracts/Oracle.sol\":3180:3315  {... */\n      pop\n        /* \"contracts/Oracle.sol\":3175:3178  i++ */\n      dup1\n      dup1\n      tag_80\n      swap1\n      tag_81\n      jump\t// in\n    tag_80:\n      swap2\n      pop\n      pop\n        /* \"contracts/Oracle.sol\":3137:3315  for (uint256 i = 0; i < reportsCount; i++) {... */\n      jump(tag_71)\n    tag_72:\n      pop\n        /* \"contracts/Oracle.sol\":3333:3345  latestReport */\n      dup1\n        /* \"contracts/Oracle.sol\":3347:3351  true */\n      0x01\n        /* \"contracts/Oracle.sol\":3325:3352  return (latestReport, true) */\n      swap4\n      pop\n      swap4\n      pop\n      pop\n      pop\n        /* \"contracts/Oracle.sol\":2979:3359  function getData() public view override returns (uint256, bool) {... */\n      swap1\n      swap2\n      jump\t// out\n        /* \"contracts/Oracle.sol\":3995:4172  function addProvider(address provider) public {... */\n    tag_26:\n        /* \"contracts/Oracle.sol\":4051:4060  providers */\n      0x00\n        /* \"contracts/Oracle.sol\":4066:4074  provider */\n      dup2\n        /* \"contracts/Oracle.sol\":4051:4075  providers.push(provider) */\n      swap1\n      dup1\n      0x01\n      dup2\n      sload\n      add\n      dup1\n      dup3\n      sstore\n      dup1\n      swap2\n      pop\n      pop\n      0x01\n      swap1\n      sub\n      swap1\n      0x00\n      mstore\n      keccak256(0x00, 0x20)\n      add\n      0x00\n      swap1\n      swap2\n      swap1\n      swap2\n      swap1\n      swap2\n      0x0100\n      exp\n      dup2\n      sload\n      dup2\n      0xffffffffffffffffffffffffffffffffffffffff\n      mul\n      not\n      and\n      swap1\n      dup4\n      0xffffffffffffffffffffffffffffffffffffffff\n      and\n      mul\n      or\n      swap1\n      sstore\n      pop\n        /* \"contracts/Oracle.sol\":4126:4127  1 */\n      0x01\n        /* \"contracts/Oracle.sol\":4085:4100  providerReports */\n      dup1\n        /* \"contracts/Oracle.sol\":4085:4110  providerReports[provider] */\n      0x00\n        /* \"contracts/Oracle.sol\":4101:4109  provider */\n      dup4\n        /* \"contracts/Oracle.sol\":4085:4110  providerReports[provider] */\n      0xffffffffffffffffffffffffffffffffffffffff\n      and\n      0xffffffffffffffffffffffffffffffffffffffff\n      and\n      dup2\n      mstore\n      0x20\n      add\n      swap1\n      dup2\n      mstore\n      0x20\n      add\n      0x00\n      keccak256\n        /* \"contracts/Oracle.sol\":4111:4112  0 */\n      0x00\n        /* \"contracts/Oracle.sol\":4085:4113  providerReports[provider][0] */\n      0x02\n      dup2\n      lt\n      tag_84\n      jumpi\n      tag_85\n      tag_58\n      jump\t// in\n    tag_85:\n    tag_84:\n      0x02\n      mul\n      add\n        /* \"contracts/Oracle.sol\":4085:4123  providerReports[provider][0].timestamp */\n      0x00\n      add\n        /* \"contracts/Oracle.sol\":4085:4127  providerReports[provider][0].timestamp = 1 */\n      dup2\n      swap1\n      sstore\n      pop\n        /* \"contracts/Oracle.sol\":4142:4165  ProviderAdded(provider) */\n      0xae9c2c6481964847714ce58f65a7f6dcc41d0d8394449bacdf161b5920c4744a\n        /* \"contracts/Oracle.sol\":4156:4164  provider */\n      dup2\n        /* \"contracts/Oracle.sol\":4142:4165  ProviderAdded(provider) */\n      mload(0x40)\n      tag_87\n      swap2\n      swap1\n      tag_31\n      jump\t// in\n    tag_87:\n      mload(0x40)\n      dup1\n      swap2\n      sub\n      swap1\n      log1\n        /* \"contracts/Oracle.sol\":3995:4172  function addProvider(address provider) public {... */\n      pop\n      jump\t// out\n        /* \"contracts/Oracle.sol\":585:611  address[] public providers */\n    tag_29:\n      0x00\n      dup2\n      dup2\n      sload\n      dup2\n      lt\n      tag_88\n      jumpi\n      0x00\n      dup1\n      revert\n    tag_88:\n      swap1\n      0x00\n      mstore\n      keccak256(0x00, 0x20)\n      add\n      0x00\n      swap2\n      pop\n      sload\n      swap1\n      0x0100\n      exp\n      swap1\n      div\n      0xffffffffffffffffffffffffffffffffffffffff\n      and\n      dup2\n      jump\t// out\n        /* \"contracts/Oracle.sol\":4289:4751  function removeProvider(address provider) public {... */\n    tag_34:\n        /* \"contracts/Oracle.sol\":4355:4370  providerReports */\n      0x01\n        /* \"contracts/Oracle.sol\":4355:4380  providerReports[provider] */\n      0x00\n        /* \"contracts/Oracle.sol\":4371:4379  provider */\n      dup3\n        /* \"contracts/Oracle.sol\":4355:4380  providerReports[provider] */\n      0xffffffffffffffffffffffffffffffffffffffff\n      and\n      0xffffffffffffffffffffffffffffffffffffffff\n      and\n      dup2\n      mstore\n      0x20\n      add\n      swap1\n      dup2\n      mstore\n      0x20\n      add\n      0x00\n      keccak256\n      0x00\n        /* \"contracts/Oracle.sol\":4348:4380  delete providerReports[provider] */\n      tag_91\n      swap2\n      swap1\n      tag_92\n      jump\t// in\n    tag_91:\n        /* \"contracts/Oracle.sol\":4395:4404  uint256 i */\n      0x00\n        /* \"contracts/Oracle.sol\":4390:4745  for (uint256 i = 0; i < providers.length; i++) {... */\n    tag_93:\n        /* \"contracts/Oracle.sol\":4414:4423  providers */\n      0x00\n        /* \"contracts/Oracle.sol\":4414:4430  providers.length */\n      dup1\n      sload\n      swap1\n      pop\n        /* \"contracts/Oracle.sol\":4410:4411  i */\n      dup2\n        /* \"contracts/Oracle.sol\":4410:4430  i < providers.length */\n      lt\n        /* \"contracts/Oracle.sol\":4390:4745  for (uint256 i = 0; i < providers.length; i++) {... */\n      iszero\n      tag_94\n      jumpi\n        /* \"contracts/Oracle.sol\":4471:4479  provider */\n      dup2\n        /* \"contracts/Oracle.sol\":4455:4479  providers[i] == provider */\n      0xffffffffffffffffffffffffffffffffffffffff\n      and\n        /* \"contracts/Oracle.sol\":4455:4464  providers */\n      0x00\n        /* \"contracts/Oracle.sol\":4465:4466  i */\n      dup3\n        /* \"contracts/Oracle.sol\":4455:4467  providers[i] */\n      dup2\n      sload\n      dup2\n      lt\n      tag_96\n      jumpi\n      tag_97\n      tag_58\n      jump\t// in\n    tag_97:\n    tag_96:\n      swap1\n      0x00\n      mstore\n      keccak256(0x00, 0x20)\n      add\n      0x00\n      swap1\n      sload\n      swap1\n      0x0100\n      exp\n      swap1\n      div\n      0xffffffffffffffffffffffffffffffffffffffff\n      and\n        /* \"contracts/Oracle.sol\":4455:4479  providers[i] == provider */\n      0xffffffffffffffffffffffffffffffffffffffff\n      and\n      eq\n        /* \"contracts/Oracle.sol\":4451:4735  if (providers[i] == provider) {... */\n      iszero\n      tag_99\n      jumpi\n        /* \"contracts/Oracle.sol\":4512:4521  providers */\n      0x00\n        /* \"contracts/Oracle.sol\":4512:4528  providers.length */\n      dup1\n      sload\n      swap1\n      pop\n        /* \"contracts/Oracle.sol\":4507:4508  1 */\n      0x01\n        /* \"contracts/Oracle.sol\":4503:4504  i */\n      dup3\n        /* \"contracts/Oracle.sol\":4503:4508  i + 1 */\n      tag_100\n      swap2\n      swap1\n      tag_101\n      jump\t// in\n    tag_100:\n        /* \"contracts/Oracle.sol\":4503:4528  i + 1 != providers.length */\n      eq\n        /* \"contracts/Oracle.sol\":4499:4617  if (i + 1 != providers.length) {... */\n      tag_102\n      jumpi\n        /* \"contracts/Oracle.sol\":4567:4576  providers */\n      0x00\n        /* \"contracts/Oracle.sol\":4596:4597  1 */\n      0x01\n        /* \"contracts/Oracle.sol\":4577:4586  providers */\n      0x00\n        /* \"contracts/Oracle.sol\":4577:4593  providers.length */\n      dup1\n      sload\n      swap1\n      pop\n        /* \"contracts/Oracle.sol\":4577:4597  providers.length - 1 */\n      tag_103\n      swap2\n      swap1\n      tag_104\n      jump\t// in\n    tag_103:\n        /* \"contracts/Oracle.sol\":4567:4598  providers[providers.length - 1] */\n      dup2\n      sload\n      dup2\n      lt\n      tag_105\n      jumpi\n      tag_106\n      tag_58\n      jump\t// in\n    tag_106:\n    tag_105:\n      swap1\n      0x00\n      mstore\n      keccak256(0x00, 0x20)\n      add\n      0x00\n      swap1\n      sload\n      swap1\n      0x0100\n      exp\n      swap1\n      div\n      0xffffffffffffffffffffffffffffffffffffffff\n      and\n        /* \"contracts/Oracle.sol\":4552:4561  providers */\n      0x00\n        /* \"contracts/Oracle.sol\":4562:4563  i */\n      dup3\n        /* \"contracts/Oracle.sol\":4552:4564  providers[i] */\n      dup2\n      sload\n      dup2\n      lt\n      tag_108\n      jumpi\n      tag_109\n      tag_58\n      jump\t// in\n    tag_109:\n    tag_108:\n      swap1\n      0x00\n      mstore\n      keccak256(0x00, 0x20)\n      add\n      0x00\n        /* \"contracts/Oracle.sol\":4552:4598  providers[i] = providers[providers.length - 1] */\n      0x0100\n      exp\n      dup2\n      sload\n      dup2\n      0xffffffffffffffffffffffffffffffffffffffff\n      mul\n      not\n      and\n      swap1\n      dup4\n      0xffffffffffffffffffffffffffffffffffffffff\n      and\n      mul\n      or\n      swap1\n      sstore\n      pop\n        /* \"contracts/Oracle.sol\":4499:4617  if (i + 1 != providers.length) {... */\n    tag_102:\n        /* \"contracts/Oracle.sol\":4634:4643  providers */\n      0x00\n        /* \"contracts/Oracle.sol\":4634:4649  providers.pop() */\n      dup1\n      sload\n      dup1\n      tag_111\n      jumpi\n      tag_112\n      tag_113\n      jump\t// in\n    tag_112:\n    tag_111:\n      0x01\n      swap1\n      sub\n      dup2\n      dup2\n      swap1\n      0x00\n      mstore\n      keccak256(0x00, 0x20)\n      add\n      exp(0x0100, 0x00)\n      dup2\n      sload\n      swap1\n      0xffffffffffffffffffffffffffffffffffffffff\n      mul\n      not\n      and\n      swap1\n      sstore\n      swap1\n      sstore\n        /* \"contracts/Oracle.sol\":4672:4697  ProviderRemoved(provider) */\n      0x1589f8555933761a3cff8aa925061be3b46e2dd43f621322ab611d300f62b1d9\n        /* \"contracts/Oracle.sol\":4688:4696  provider */\n      dup3\n        /* \"contracts/Oracle.sol\":4672:4697  ProviderRemoved(provider) */\n      mload(0x40)\n      tag_115\n      swap2\n      swap1\n      tag_31\n      jump\t// in\n    tag_115:\n      mload(0x40)\n      dup1\n      swap2\n      sub\n      swap1\n      log1\n        /* \"contracts/Oracle.sol\":4715:4720  break */\n      jump(tag_94)\n        /* \"contracts/Oracle.sol\":4451:4735  if (providers[i] == provider) {... */\n    tag_99:\n        /* \"contracts/Oracle.sol\":4432:4435  i++ */\n      dup1\n      dup1\n      tag_116\n      swap1\n      tag_81\n      jump\t// in\n    tag_116:\n      swap2\n      pop\n      pop\n        /* \"contracts/Oracle.sol\":4390:4745  for (uint256 i = 0; i < providers.length; i++) {... */\n      jump(tag_93)\n    tag_94:\n      pop\n        /* \"contracts/Oracle.sol\":4289:4751  function removeProvider(address provider) public {... */\n      pop\n      jump\t// out\n        /* \"contracts/Oracle.sol\":1103:1138  uint256 public minimumProviders = 1 */\n    tag_36:\n      sload(0x02)\n      dup2\n      jump\t// out\n        /* \"contracts/Oracle.sol\":2562:2832  function purgeReports() public {... */\n    tag_40:\n        /* \"contracts/Oracle.sol\":2603:2626  address providerAddress */\n      0x00\n        /* \"contracts/Oracle.sol\":2629:2639  msg.sender */\n      caller\n        /* \"contracts/Oracle.sol\":2603:2639  address providerAddress = msg.sender */\n      swap1\n      pop\n        /* \"contracts/Oracle.sol\":2705:2706  0 */\n      0x00\n        /* \"contracts/Oracle.sol\":2657:2672  providerReports */\n      0x01\n        /* \"contracts/Oracle.sol\":2657:2689  providerReports[providerAddress] */\n      0x00\n        /* \"contracts/Oracle.sol\":2673:2688  providerAddress */\n      dup4\n        /* \"contracts/Oracle.sol\":2657:2689  providerReports[providerAddress] */\n      0xffffffffffffffffffffffffffffffffffffffff\n      and\n      0xffffffffffffffffffffffffffffffffffffffff\n      and\n      dup2\n      mstore\n      0x20\n      add\n      swap1\n      dup2\n      mstore\n      0x20\n      add\n      0x00\n      keccak256\n        /* \"contracts/Oracle.sol\":2690:2691  0 */\n      0x00\n        /* \"contracts/Oracle.sol\":2657:2692  providerReports[providerAddress][0] */\n      0x02\n      dup2\n      lt\n      tag_118\n      jumpi\n      tag_119\n      tag_58\n      jump\t// in\n    tag_119:\n    tag_118:\n      0x02\n      mul\n      add\n        /* \"contracts/Oracle.sol\":2657:2702  providerReports[providerAddress][0].timestamp */\n      0x00\n      add\n      sload\n        /* \"contracts/Oracle.sol\":2657:2706  providerReports[providerAddress][0].timestamp > 0 */\n      gt\n        /* \"contracts/Oracle.sol\":2649:2707  require(providerReports[providerAddress][0].timestamp > 0) */\n      tag_121\n      jumpi\n      0x00\n      dup1\n      revert\n    tag_121:\n        /* \"contracts/Oracle.sol\":2765:2766  1 */\n      0x01\n        /* \"contracts/Oracle.sol\":2717:2732  providerReports */\n      dup1\n        /* \"contracts/Oracle.sol\":2717:2749  providerReports[providerAddress] */\n      0x00\n        /* \"contracts/Oracle.sol\":2733:2748  providerAddress */\n      dup4\n        /* \"contracts/Oracle.sol\":2717:2749  providerReports[providerAddress] */\n      0xffffffffffffffffffffffffffffffffffffffff\n      and\n      0xffffffffffffffffffffffffffffffffffffffff\n      and\n      dup2\n      mstore\n      0x20\n      add\n      swap1\n      dup2\n      mstore\n      0x20\n      add\n      0x00\n      keccak256\n        /* \"contracts/Oracle.sol\":2750:2751  0 */\n      0x00\n        /* \"contracts/Oracle.sol\":2717:2752  providerReports[providerAddress][0] */\n      0x02\n      dup2\n      lt\n      tag_122\n      jumpi\n      tag_123\n      tag_58\n      jump\t// in\n    tag_123:\n    tag_122:\n      0x02\n      mul\n      add\n        /* \"contracts/Oracle.sol\":2717:2762  providerReports[providerAddress][0].timestamp */\n      0x00\n      add\n        /* \"contracts/Oracle.sol\":2717:2766  providerReports[providerAddress][0].timestamp = 1 */\n      dup2\n      swap1\n      sstore\n      pop\n        /* \"contracts/Oracle.sol\":2824:2825  1 */\n      0x01\n        /* \"contracts/Oracle.sol\":2776:2791  providerReports */\n      dup1\n        /* \"contracts/Oracle.sol\":2776:2808  providerReports[providerAddress] */\n      0x00\n        /* \"contracts/Oracle.sol\":2792:2807  providerAddress */\n      dup4\n        /* \"contracts/Oracle.sol\":2776:2808  providerReports[providerAddress] */\n      0xffffffffffffffffffffffffffffffffffffffff\n      and\n      0xffffffffffffffffffffffffffffffffffffffff\n      and\n      dup2\n      mstore\n      0x20\n      add\n      swap1\n      dup2\n      mstore\n      0x20\n      add\n      0x00\n      keccak256\n        /* \"contracts/Oracle.sol\":2809:2810  1 */\n      0x01\n        /* \"contracts/Oracle.sol\":2776:2811  providerReports[providerAddress][1] */\n      0x02\n      dup2\n      lt\n      tag_125\n      jumpi\n      tag_126\n      tag_58\n      jump\t// in\n    tag_126:\n    tag_125:\n      0x02\n      mul\n      add\n        /* \"contracts/Oracle.sol\":2776:2821  providerReports[providerAddress][1].timestamp */\n      0x00\n      add\n        /* \"contracts/Oracle.sol\":2776:2825  providerReports[providerAddress][1].timestamp = 1 */\n      dup2\n      swap1\n      sstore\n      pop\n        /* \"contracts/Oracle.sol\":2593:2832  {... */\n      pop\n        /* \"contracts/Oracle.sol\":2562:2832  function purgeReports() public {... */\n      jump\t// out\n        /* \"contracts/Oracle.sol\":4824:4919  function providersSize() public view returns (uint256) {... */\n    tag_42:\n        /* \"contracts/Oracle.sol\":4870:4877  uint256 */\n      0x00\n        /* \"contracts/Oracle.sol\":4896:4905  providers */\n      dup1\n        /* \"contracts/Oracle.sol\":4896:4912  providers.length */\n      dup1\n      sload\n      swap1\n      pop\n        /* \"contracts/Oracle.sol\":4889:4912  return providers.length */\n      swap1\n      pop\n        /* \"contracts/Oracle.sol\":4824:4919  function providersSize() public view returns (uint256) {... */\n      swap1\n      jump\t// out\n        /* \"contracts/Oracle.sol\":3365:3887  function printData() public {... */\n    tag_45:\n        /* \"contracts/Oracle.sol\":3403:3423  uint256 reportsCount */\n      0x00\n        /* \"contracts/Oracle.sol\":3426:3435  providers */\n      dup1\n        /* \"contracts/Oracle.sol\":3426:3442  providers.length */\n      dup1\n      sload\n      swap1\n      pop\n        /* \"contracts/Oracle.sol\":3403:3442  uint256 reportsCount = providers.length */\n      swap1\n      pop\n        /* \"contracts/Oracle.sol\":3452:3481  uint256[] memory validReports */\n      0x00\n        /* \"contracts/Oracle.sol\":3498:3510  reportsCount */\n      dup2\n        /* \"contracts/Oracle.sol\":3484:3511  new uint256[](reportsCount) */\n      0xffffffffffffffff\n      dup2\n      gt\n      iszero\n      tag_130\n      jumpi\n      tag_131\n      tag_132\n      jump\t// in\n    tag_131:\n    tag_130:\n      mload(0x40)\n      swap1\n      dup1\n      dup3\n      mstore\n      dup1\n      0x20\n      mul\n      0x20\n      add\n      dup3\n      add\n      0x40\n      mstore\n      dup1\n      iszero\n      tag_133\n      jumpi\n      dup2\n      0x20\n      add\n      0x20\n      dup3\n      mul\n      dup1\n      calldatasize\n      dup4\n      calldatacopy\n      dup1\n      dup3\n      add\n      swap2\n      pop\n      pop\n      swap1\n      pop\n    tag_133:\n      pop\n        /* \"contracts/Oracle.sol\":3452:3511  uint256[] memory validReports = new uint256[](reportsCount) */\n      swap1\n      pop\n        /* \"contracts/Oracle.sol\":3521:3533  uint256 size */\n      0x00\n        /* \"contracts/Oracle.sol\":3547:3567  uint256 latestReport */\n      dup1\n        /* \"contracts/Oracle.sol\":3596:3605  uint256 i */\n      0x00\n        /* \"contracts/Oracle.sol\":3591:3842  for (uint256 i = 0; i < reportsCount; i++) {... */\n    tag_134:\n        /* \"contracts/Oracle.sol\":3615:3627  reportsCount */\n      dup5\n        /* \"contracts/Oracle.sol\":3611:3612  i */\n      dup2\n        /* \"contracts/Oracle.sol\":3611:3627  i < reportsCount */\n      lt\n        /* \"contracts/Oracle.sol\":3591:3842  for (uint256 i = 0; i < reportsCount; i++) {... */\n      iszero\n      tag_135\n      jumpi\n        /* \"contracts/Oracle.sol\":3648:3671  address providerAddress */\n      0x00\n        /* \"contracts/Oracle.sol\":3674:3683  providers */\n      dup1\n        /* \"contracts/Oracle.sol\":3684:3685  i */\n      dup3\n        /* \"contracts/Oracle.sol\":3674:3686  providers[i] */\n      dup2\n      sload\n      dup2\n      lt\n      tag_137\n      jumpi\n      tag_138\n      tag_58\n      jump\t// in\n    tag_138:\n    tag_137:\n      swap1\n      0x00\n      mstore\n      keccak256(0x00, 0x20)\n      add\n      0x00\n      swap1\n      sload\n      swap1\n      0x0100\n      exp\n      swap1\n      div\n      0xffffffffffffffffffffffffffffffffffffffff\n      and\n        /* \"contracts/Oracle.sol\":3648:3686  address providerAddress = providers[i] */\n      swap1\n      pop\n        /* \"contracts/Oracle.sol\":3700:3724  Report[2] memory reports */\n      0x00\n        /* \"contracts/Oracle.sol\":3727:3742  providerReports */\n      0x01\n        /* \"contracts/Oracle.sol\":3727:3759  providerReports[providerAddress] */\n      0x00\n        /* \"contracts/Oracle.sol\":3743:3758  providerAddress */\n      dup4\n        /* \"contracts/Oracle.sol\":3727:3759  providerReports[providerAddress] */\n      0xffffffffffffffffffffffffffffffffffffffff\n      and\n      0xffffffffffffffffffffffffffffffffffffffff\n      and\n      dup2\n      mstore\n      0x20\n      add\n      swap1\n      dup2\n      mstore\n      0x20\n      add\n      0x00\n      keccak256\n        /* \"contracts/Oracle.sol\":3700:3759  Report[2] memory reports = providerReports[providerAddress] */\n      0x02\n      dup1\n      0x20\n      mul\n      mload(0x40)\n      swap1\n      dup2\n      add\n      0x40\n      mstore\n      dup1\n      swap3\n      swap2\n      swap1\n      0x00\n      swap1\n    tag_140:\n      dup3\n      dup3\n      lt\n      iszero\n      tag_141\n      jumpi\n      dup4\n      dup3\n      0x02\n      mul\n      add\n      mload(0x40)\n      dup1\n      0x40\n      add\n      0x40\n      mstore\n      swap1\n      dup2\n      0x00\n      dup3\n      add\n      sload\n      dup2\n      mstore\n      0x20\n      add\n      0x01\n      dup3\n      add\n      sload\n      dup2\n      mstore\n      pop\n      pop\n      dup2\n      mstore\n      0x20\n      add\n      swap1\n      0x01\n      add\n      swap1\n      jump(tag_140)\n    tag_141:\n      pop\n      pop\n      pop\n      pop\n      swap1\n      pop\n        /* \"contracts/Oracle.sol\":3788:3803  providerReports */\n      0x01\n        /* \"contracts/Oracle.sol\":3788:3820  providerReports[providerAddress] */\n      0x00\n        /* \"contracts/Oracle.sol\":3804:3819  providerAddress */\n      dup4\n        /* \"contracts/Oracle.sol\":3788:3820  providerReports[providerAddress] */\n      0xffffffffffffffffffffffffffffffffffffffff\n      and\n      0xffffffffffffffffffffffffffffffffffffffff\n      and\n      dup2\n      mstore\n      0x20\n      add\n      swap1\n      dup2\n      mstore\n      0x20\n      add\n      0x00\n      keccak256\n        /* \"contracts/Oracle.sol\":3821:3822  1 */\n      0x01\n        /* \"contracts/Oracle.sol\":3788:3823  providerReports[providerAddress][1] */\n      0x02\n      dup2\n      lt\n      tag_143\n      jumpi\n      tag_144\n      tag_58\n      jump\t// in\n    tag_144:\n    tag_143:\n      0x02\n      mul\n      add\n        /* \"contracts/Oracle.sol\":3788:3831  providerReports[providerAddress][1].payload */\n      0x01\n      add\n      sload\n        /* \"contracts/Oracle.sol\":3773:3831  latestReport = providerReports[providerAddress][1].payload */\n      swap4\n      pop\n        /* \"contracts/Oracle.sol\":3634:3842  {... */\n      pop\n      pop\n        /* \"contracts/Oracle.sol\":3629:3632  i++ */\n      dup1\n      dup1\n      tag_146\n      swap1\n      tag_81\n      jump\t// in\n    tag_146:\n      swap2\n      pop\n      pop\n        /* \"contracts/Oracle.sol\":3591:3842  for (uint256 i = 0; i < reportsCount; i++) {... */\n      jump(tag_134)\n    tag_135:\n      pop\n        /* \"contracts/Oracle.sol\":3857:3880  PrintData(latestReport) */\n      0xf022f7b9fbe5b772aa573c8d2de18a83071c7190f20575d377afcb1f9af79614\n        /* \"contracts/Oracle.sol\":3867:3879  latestReport */\n      dup2\n        /* \"contracts/Oracle.sol\":3857:3880  PrintData(latestReport) */\n      mload(0x40)\n      tag_147\n      swap2\n      swap1\n      tag_38\n      jump\t// in\n    tag_147:\n      mload(0x40)\n      dup1\n      swap2\n      sub\n      swap1\n      log1\n        /* \"contracts/Oracle.sol\":3393:3887  {... */\n      pop\n      pop\n      pop\n      pop\n        /* \"contracts/Oracle.sol\":3365:3887  function printData() public {... */\n      jump\t// out\n        /* \"contracts/Oracle.sol\":1741:1897  function setMinimumProviders(uint256 minimumProviders_) public {... */\n    tag_48:\n        /* \"contracts/Oracle.sol\":1842:1843  0 */\n      0x00\n        /* \"contracts/Oracle.sol\":1822:1839  minimumProviders_ */\n      dup2\n        /* \"contracts/Oracle.sol\":1822:1843  minimumProviders_ > 0 */\n      gt\n        /* \"contracts/Oracle.sol\":1814:1844  require(minimumProviders_ > 0) */\n      tag_149\n      jumpi\n      0x00\n      dup1\n      revert\n    tag_149:\n        /* \"contracts/Oracle.sol\":1873:1890  minimumProviders_ */\n      dup1\n        /* \"contracts/Oracle.sol\":1854:1870  minimumProviders */\n      0x02\n        /* \"contracts/Oracle.sol\":1854:1890  minimumProviders = minimumProviders_ */\n      dup2\n      swap1\n      sstore\n      pop\n        /* \"contracts/Oracle.sol\":1741:1897  function setMinimumProviders(uint256 minimumProviders_) public {... */\n      pop\n      jump\t// out\n        /* \"contracts/Oracle.sol\":723:775  mapping(address => Report[2]) public providerReports */\n    tag_52:\n      mstore(0x20, 0x01)\n      dup2\n      0x00\n      mstore\n      keccak256(0x00, 0x40)\n      dup2\n      0x02\n      dup2\n      lt\n      tag_150\n      jumpi\n      0x00\n      dup1\n      revert\n    tag_150:\n      0x02\n      mul\n      add\n      0x00\n      swap2\n      pop\n      swap2\n      pop\n      pop\n      dup1\n      0x00\n      add\n      sload\n      swap1\n      dup1\n      0x01\n      add\n      sload\n      swap1\n      pop\n      dup3\n      jump\t// out\n    tag_92:\n      pop\n      0x00\n      dup1\n      dup3\n      add\n      0x00\n      swap1\n      sstore\n      0x01\n      dup3\n      add\n      0x00\n      swap1\n      sstore\n      pop\n      0x02\n      add\n      0x00\n      dup1\n      dup3\n      add\n      0x00\n      swap1\n      sstore\n      0x01\n      dup3\n      add\n      0x00\n      swap1\n      sstore\n      pop\n      pop\n      jump\t// out\n        /* \"#utility.yul\":7:146   */\n    tag_153:\n        /* \"#utility.yul\":53:58   */\n      0x00\n        /* \"#utility.yul\":91:97   */\n      dup2\n        /* \"#utility.yul\":78:98   */\n      calldataload\n        /* \"#utility.yul\":69:98   */\n      swap1\n      pop\n        /* \"#utility.yul\":107:140   */\n      tag_155\n        /* \"#utility.yul\":134:139   */\n      dup2\n        /* \"#utility.yul\":107:140   */\n      tag_156\n      jump\t// in\n    tag_155:\n        /* \"#utility.yul\":7:146   */\n      swap3\n      swap2\n      pop\n      pop\n      jump\t// out\n        /* \"#utility.yul\":152:291   */\n    tag_157:\n        /* \"#utility.yul\":198:203   */\n      0x00\n        /* \"#utility.yul\":236:242   */\n      dup2\n        /* \"#utility.yul\":223:243   */\n      calldataload\n        /* \"#utility.yul\":214:243   */\n      swap1\n      pop\n        /* \"#utility.yul\":252:285   */\n      tag_159\n        /* \"#utility.yul\":279:284   */\n      dup2\n        /* \"#utility.yul\":252:285   */\n      tag_160\n      jump\t// in\n    tag_159:\n        /* \"#utility.yul\":152:291   */\n      swap3\n      swap2\n      pop\n      pop\n      jump\t// out\n        /* \"#utility.yul\":297:626   */\n    tag_25:\n        /* \"#utility.yul\":356:362   */\n      0x00\n        /* \"#utility.yul\":405:407   */\n      0x20\n        /* \"#utility.yul\":393:402   */\n      dup3\n        /* \"#utility.yul\":384:391   */\n      dup5\n        /* \"#utility.yul\":380:403   */\n      sub\n        /* \"#utility.yul\":376:408   */\n      slt\n        /* \"#utility.yul\":373:492   */\n      iszero\n      tag_162\n      jumpi\n        /* \"#utility.yul\":411:490   */\n      tag_163\n      tag_164\n      jump\t// in\n    tag_163:\n        /* \"#utility.yul\":373:492   */\n    tag_162:\n        /* \"#utility.yul\":531:532   */\n      0x00\n        /* \"#utility.yul\":556:609   */\n      tag_165\n        /* \"#utility.yul\":601:608   */\n      dup5\n        /* \"#utility.yul\":592:598   */\n      dup3\n        /* \"#utility.yul\":581:590   */\n      dup6\n        /* \"#utility.yul\":577:599   */\n      add\n        /* \"#utility.yul\":556:609   */\n      tag_153\n      jump\t// in\n    tag_165:\n        /* \"#utility.yul\":546:609   */\n      swap2\n      pop\n        /* \"#utility.yul\":502:619   */\n      pop\n        /* \"#utility.yul\":297:626   */\n      swap3\n      swap2\n      pop\n      pop\n      jump\t// out\n        /* \"#utility.yul\":632:1106   */\n    tag_51:\n        /* \"#utility.yul\":700:706   */\n      0x00\n        /* \"#utility.yul\":708:714   */\n      dup1\n        /* \"#utility.yul\":757:759   */\n      0x40\n        /* \"#utility.yul\":745:754   */\n      dup4\n        /* \"#utility.yul\":736:743   */\n      dup6\n        /* \"#utility.yul\":732:755   */\n      sub\n        /* \"#utility.yul\":728:760   */\n      slt\n        /* \"#utility.yul\":725:844   */\n      iszero\n      tag_167\n      jumpi\n        /* \"#utility.yul\":763:842   */\n      tag_168\n      tag_164\n      jump\t// in\n    tag_168:\n        /* \"#utility.yul\":725:844   */\n    tag_167:\n        /* \"#utility.yul\":883:884   */\n      0x00\n        /* \"#utility.yul\":908:961   */\n      tag_169\n        /* \"#utility.yul\":953:960   */\n      dup6\n        /* \"#utility.yul\":944:950   */\n      dup3\n        /* \"#utility.yul\":933:942   */\n      dup7\n        /* \"#utility.yul\":929:951   */\n      add\n        /* \"#utility.yul\":908:961   */\n      tag_153\n      jump\t// in\n    tag_169:\n        /* \"#utility.yul\":898:961   */\n      swap3\n      pop\n        /* \"#utility.yul\":854:971   */\n      pop\n        /* \"#utility.yul\":1010:1012   */\n      0x20\n        /* \"#utility.yul\":1036:1089   */\n      tag_170\n        /* \"#utility.yul\":1081:1088   */\n      dup6\n        /* \"#utility.yul\":1072:1078   */\n      dup3\n        /* \"#utility.yul\":1061:1070   */\n      dup7\n        /* \"#utility.yul\":1057:1079   */\n      add\n        /* \"#utility.yul\":1036:1089   */\n      tag_157\n      jump\t// in\n    tag_170:\n        /* \"#utility.yul\":1026:1089   */\n      swap2\n      pop\n        /* \"#utility.yul\":981:1099   */\n      pop\n        /* \"#utility.yul\":632:1106   */\n      swap3\n      pop\n      swap3\n      swap1\n      pop\n      jump\t// out\n        /* \"#utility.yul\":1112:1441   */\n    tag_17:\n        /* \"#utility.yul\":1171:1177   */\n      0x00\n        /* \"#utility.yul\":1220:1222   */\n      0x20\n        /* \"#utility.yul\":1208:1217   */\n      dup3\n        /* \"#utility.yul\":1199:1206   */\n      dup5\n        /* \"#utility.yul\":1195:1218   */\n      sub\n        /* \"#utility.yul\":1191:1223   */\n      slt\n        /* \"#utility.yul\":1188:1307   */\n      iszero\n      tag_172\n      jumpi\n        /* \"#utility.yul\":1226:1305   */\n      tag_173\n      tag_164\n      jump\t// in\n    tag_173:\n        /* \"#utility.yul\":1188:1307   */\n    tag_172:\n        /* \"#utility.yul\":1346:1347   */\n      0x00\n        /* \"#utility.yul\":1371:1424   */\n      tag_174\n        /* \"#utility.yul\":1416:1423   */\n      dup5\n        /* \"#utility.yul\":1407:1413   */\n      dup3\n        /* \"#utility.yul\":1396:1405   */\n      dup6\n        /* \"#utility.yul\":1392:1414   */\n      add\n        /* \"#utility.yul\":1371:1424   */\n      tag_157\n      jump\t// in\n    tag_174:\n        /* \"#utility.yul\":1361:1424   */\n      swap2\n      pop\n        /* \"#utility.yul\":1317:1434   */\n      pop\n        /* \"#utility.yul\":1112:1441   */\n      swap3\n      swap2\n      pop\n      pop\n      jump\t// out\n        /* \"#utility.yul\":1447:1565   */\n    tag_175:\n        /* \"#utility.yul\":1534:1558   */\n      tag_177\n        /* \"#utility.yul\":1552:1557   */\n      dup2\n        /* \"#utility.yul\":1534:1558   */\n      tag_178\n      jump\t// in\n    tag_177:\n        /* \"#utility.yul\":1529:1532   */\n      dup3\n        /* \"#utility.yul\":1522:1559   */\n      mstore\n        /* \"#utility.yul\":1447:1565   */\n      pop\n      pop\n      jump\t// out\n        /* \"#utility.yul\":1571:1680   */\n    tag_179:\n        /* \"#utility.yul\":1652:1673   */\n      tag_181\n        /* \"#utility.yul\":1667:1672   */\n      dup2\n        /* \"#utility.yul\":1652:1673   */\n      tag_182\n      jump\t// in\n    tag_181:\n        /* \"#utility.yul\":1647:1650   */\n      dup3\n        /* \"#utility.yul\":1640:1674   */\n      mstore\n        /* \"#utility.yul\":1571:1680   */\n      pop\n      pop\n      jump\t// out\n        /* \"#utility.yul\":1686:1804   */\n    tag_183:\n        /* \"#utility.yul\":1773:1797   */\n      tag_185\n        /* \"#utility.yul\":1791:1796   */\n      dup2\n        /* \"#utility.yul\":1773:1797   */\n      tag_186\n      jump\t// in\n    tag_185:\n        /* \"#utility.yul\":1768:1771   */\n      dup3\n        /* \"#utility.yul\":1761:1798   */\n      mstore\n        /* \"#utility.yul\":1686:1804   */\n      pop\n      pop\n      jump\t// out\n        /* \"#utility.yul\":1810:2032   */\n    tag_31:\n        /* \"#utility.yul\":1903:1907   */\n      0x00\n        /* \"#utility.yul\":1941:1943   */\n      0x20\n        /* \"#utility.yul\":1930:1939   */\n      dup3\n        /* \"#utility.yul\":1926:1944   */\n      add\n        /* \"#utility.yul\":1918:1944   */\n      swap1\n      pop\n        /* \"#utility.yul\":1954:2025   */\n      tag_188\n        /* \"#utility.yul\":2022:2023   */\n      0x00\n        /* \"#utility.yul\":2011:2020   */\n      dup4\n        /* \"#utility.yul\":2007:2024   */\n      add\n        /* \"#utility.yul\":1998:2004   */\n      dup5\n        /* \"#utility.yul\":1954:2025   */\n      tag_175\n      jump\t// in\n    tag_188:\n        /* \"#utility.yul\":1810:2032   */\n      swap3\n      swap2\n      pop\n      pop\n      jump\t// out\n        /* \"#utility.yul\":2038:2260   */\n    tag_38:\n        /* \"#utility.yul\":2131:2135   */\n      0x00\n        /* \"#utility.yul\":2169:2171   */\n      0x20\n        /* \"#utility.yul\":2158:2167   */\n      dup3\n        /* \"#utility.yul\":2154:2172   */\n      add\n        /* \"#utility.yul\":2146:2172   */\n      swap1\n      pop\n        /* \"#utility.yul\":2182:2253   */\n      tag_190\n        /* \"#utility.yul\":2250:2251   */\n      0x00\n        /* \"#utility.yul\":2239:2248   */\n      dup4\n        /* \"#utility.yul\":2235:2252   */\n      add\n        /* \"#utility.yul\":2226:2232   */\n      dup5\n        /* \"#utility.yul\":2182:2253   */\n      tag_183\n      jump\t// in\n    tag_190:\n        /* \"#utility.yul\":2038:2260   */\n      swap3\n      swap2\n      pop\n      pop\n      jump\t// out\n        /* \"#utility.yul\":2266:2586   */\n    tag_22:\n        /* \"#utility.yul\":2381:2385   */\n      0x00\n        /* \"#utility.yul\":2419:2421   */\n      0x40\n        /* \"#utility.yul\":2408:2417   */\n      dup3\n        /* \"#utility.yul\":2404:2422   */\n      add\n        /* \"#utility.yul\":2396:2422   */\n      swap1\n      pop\n        /* \"#utility.yul\":2432:2503   */\n      tag_192\n        /* \"#utility.yul\":2500:2501   */\n      0x00\n        /* \"#utility.yul\":2489:2498   */\n      dup4\n        /* \"#utility.yul\":2485:2502   */\n      add\n        /* \"#utility.yul\":2476:2482   */\n      dup6\n        /* \"#utility.yul\":2432:2503   */\n      tag_183\n      jump\t// in\n    tag_192:\n        /* \"#utility.yul\":2513:2579   */\n      tag_193\n        /* \"#utility.yul\":2575:2577   */\n      0x20\n        /* \"#utility.yul\":2564:2573   */\n      dup4\n        /* \"#utility.yul\":2560:2578   */\n      add\n        /* \"#utility.yul\":2551:2557   */\n      dup5\n        /* \"#utility.yul\":2513:2579   */\n      tag_179\n      jump\t// in\n    tag_193:\n        /* \"#utility.yul\":2266:2586   */\n      swap4\n      swap3\n      pop\n      pop\n      pop\n      jump\t// out\n        /* \"#utility.yul\":2592:2924   */\n    tag_54:\n        /* \"#utility.yul\":2713:2717   */\n      0x00\n        /* \"#utility.yul\":2751:2753   */\n      0x40\n        /* \"#utility.yul\":2740:2749   */\n      dup3\n        /* \"#utility.yul\":2736:2754   */\n      add\n        /* \"#utility.yul\":2728:2754   */\n      swap1\n      pop\n        /* \"#utility.yul\":2764:2835   */\n      tag_195\n        /* \"#utility.yul\":2832:2833   */\n      0x00\n        /* \"#utility.yul\":2821:2830   */\n      dup4\n        /* \"#utility.yul\":2817:2834   */\n      add\n        /* \"#utility.yul\":2808:2814   */\n      dup6\n        /* \"#utility.yul\":2764:2835   */\n      tag_183\n      jump\t// in\n    tag_195:\n        /* \"#utility.yul\":2845:2917   */\n      tag_196\n        /* \"#utility.yul\":2913:2915   */\n      0x20\n        /* \"#utility.yul\":2902:2911   */\n      dup4\n        /* \"#utility.yul\":2898:2916   */\n      add\n        /* \"#utility.yul\":2889:2895   */\n      dup5\n        /* \"#utility.yul\":2845:2917   */\n      tag_183\n      jump\t// in\n    tag_196:\n        /* \"#utility.yul\":2592:2924   */\n      swap4\n      swap3\n      pop\n      pop\n      pop\n      jump\t// out\n        /* \"#utility.yul\":3011:3316   */\n    tag_101:\n        /* \"#utility.yul\":3051:3054   */\n      0x00\n        /* \"#utility.yul\":3070:3090   */\n      tag_200\n        /* \"#utility.yul\":3088:3089   */\n      dup3\n        /* \"#utility.yul\":3070:3090   */\n      tag_186\n      jump\t// in\n    tag_200:\n        /* \"#utility.yul\":3065:3090   */\n      swap2\n      pop\n        /* \"#utility.yul\":3104:3124   */\n      tag_201\n        /* \"#utility.yul\":3122:3123   */\n      dup4\n        /* \"#utility.yul\":3104:3124   */\n      tag_186\n      jump\t// in\n    tag_201:\n        /* \"#utility.yul\":3099:3124   */\n      swap3\n      pop\n        /* \"#utility.yul\":3258:3259   */\n      dup3\n        /* \"#utility.yul\":3190:3256   */\n      0xffffffffffffffffffffffffffffffffffffffffffffffffffffffffffffffff\n        /* \"#utility.yul\":3186:3260   */\n      sub\n        /* \"#utility.yul\":3183:3184   */\n      dup3\n        /* \"#utility.yul\":3180:3261   */\n      gt\n        /* \"#utility.yul\":3177:3284   */\n      iszero\n      tag_202\n      jumpi\n        /* \"#utility.yul\":3264:3282   */\n      tag_203\n      tag_204\n      jump\t// in\n    tag_203:\n        /* \"#utility.yul\":3177:3284   */\n    tag_202:\n        /* \"#utility.yul\":3308:3309   */\n      dup3\n        /* \"#utility.yul\":3305:3306   */\n      dup3\n        /* \"#utility.yul\":3301:3310   */\n      add\n        /* \"#utility.yul\":3294:3310   */\n      swap1\n      pop\n        /* \"#utility.yul\":3011:3316   */\n      swap3\n      swap2\n      pop\n      pop\n      jump\t// out\n        /* \"#utility.yul\":3322:3513   */\n    tag_104:\n        /* \"#utility.yul\":3362:3366   */\n      0x00\n        /* \"#utility.yul\":3382:3402   */\n      tag_206\n        /* \"#utility.yul\":3400:3401   */\n      dup3\n        /* \"#utility.yul\":3382:3402   */\n      tag_186\n      jump\t// in\n    tag_206:\n        /* \"#utility.yul\":3377:3402   */\n      swap2\n      pop\n        /* \"#utility.yul\":3416:3436   */\n      tag_207\n        /* \"#utility.yul\":3434:3435   */\n      dup4\n        /* \"#utility.yul\":3416:3436   */\n      tag_186\n      jump\t// in\n    tag_207:\n        /* \"#utility.yul\":3411:3436   */\n      swap3\n      pop\n        /* \"#utility.yul\":3455:3456   */\n      dup3\n        /* \"#utility.yul\":3452:3453   */\n      dup3\n        /* \"#utility.yul\":3449:3457   */\n      lt\n        /* \"#utility.yul\":3446:3480   */\n      iszero\n      tag_208\n      jumpi\n        /* \"#utility.yul\":3460:3478   */\n      tag_209\n      tag_204\n      jump\t// in\n    tag_209:\n        /* \"#utility.yul\":3446:3480   */\n    tag_208:\n        /* \"#utility.yul\":3505:3506   */\n      dup3\n        /* \"#utility.yul\":3502:3503   */\n      dup3\n        /* \"#utility.yul\":3498:3507   */\n      sub\n        /* \"#utility.yul\":3490:3507   */\n      swap1\n      pop\n        /* \"#utility.yul\":3322:3513   */\n      swap3\n      swap2\n      pop\n      pop\n      jump\t// out\n        /* \"#utility.yul\":3519:3615   */\n    tag_178:\n        /* \"#utility.yul\":3556:3563   */\n      0x00\n        /* \"#utility.yul\":3585:3609   */\n      tag_211\n        /* \"#utility.yul\":3603:3608   */\n      dup3\n        /* \"#utility.yul\":3585:3609   */\n      tag_212\n      jump\t// in\n    tag_211:\n        /* \"#utility.yul\":3574:3609   */\n      swap1\n      pop\n        /* \"#utility.yul\":3519:3615   */\n      swap2\n      swap1\n      pop\n      jump\t// out\n        /* \"#utility.yul\":3621:3711   */\n    tag_182:\n        /* \"#utility.yul\":3655:3662   */\n      0x00\n        /* \"#utility.yul\":3698:3703   */\n      dup2\n        /* \"#utility.yul\":3691:3704   */\n      iszero\n        /* \"#utility.yul\":3684:3705   */\n      iszero\n        /* \"#utility.yul\":3673:3705   */\n      swap1\n      pop\n        /* \"#utility.yul\":3621:3711   */\n      swap2\n      swap1\n      pop\n      jump\t// out\n        /* \"#utility.yul\":3717:3843   */\n    tag_212:\n        /* \"#utility.yul\":3754:3761   */\n      0x00\n        /* \"#utility.yul\":3794:3836   */\n      0xffffffffffffffffffffffffffffffffffffffff\n        /* \"#utility.yul\":3787:3792   */\n      dup3\n        /* \"#utility.yul\":3783:3837   */\n      and\n        /* \"#utility.yul\":3772:3837   */\n      swap1\n      pop\n        /* \"#utility.yul\":3717:3843   */\n      swap2\n      swap1\n      pop\n      jump\t// out\n        /* \"#utility.yul\":3849:3926   */\n    tag_186:\n        /* \"#utility.yul\":3886:3893   */\n      0x00\n        /* \"#utility.yul\":3915:3920   */\n      dup2\n        /* \"#utility.yul\":3904:3920   */\n      swap1\n      pop\n        /* \"#utility.yul\":3849:3926   */\n      swap2\n      swap1\n      pop\n      jump\t// out\n        /* \"#utility.yul\":3932:4165   */\n    tag_81:\n        /* \"#utility.yul\":3971:3974   */\n      0x00\n        /* \"#utility.yul\":3994:4018   */\n      tag_217\n        /* \"#utility.yul\":4012:4017   */\n      dup3\n        /* \"#utility.yul\":3994:4018   */\n      tag_186\n      jump\t// in\n    tag_217:\n        /* \"#utility.yul\":3985:4018   */\n      swap2\n      pop\n        /* \"#utility.yul\":4040:4106   */\n      0xffffffffffffffffffffffffffffffffffffffffffffffffffffffffffffffff\n        /* \"#utility.yul\":4033:4038   */\n      dup3\n        /* \"#utility.yul\":4030:4107   */\n      eq\n        /* \"#utility.yul\":4027:4130   */\n      iszero\n      tag_218\n      jumpi\n        /* \"#utility.yul\":4110:4128   */\n      tag_219\n      tag_204\n      jump\t// in\n    tag_219:\n        /* \"#utility.yul\":4027:4130   */\n    tag_218:\n        /* \"#utility.yul\":4157:4158   */\n      0x01\n        /* \"#utility.yul\":4150:4155   */\n      dup3\n        /* \"#utility.yul\":4146:4159   */\n      add\n        /* \"#utility.yul\":4139:4159   */\n      swap1\n      pop\n        /* \"#utility.yul\":3932:4165   */\n      swap2\n      swap1\n      pop\n      jump\t// out\n        /* \"#utility.yul\":4171:4351   */\n    tag_204:\n        /* \"#utility.yul\":4219:4296   */\n      0x4e487b7100000000000000000000000000000000000000000000000000000000\n        /* \"#utility.yul\":4216:4217   */\n      0x00\n        /* \"#utility.yul\":4209:4297   */\n      mstore\n        /* \"#utility.yul\":4316:4320   */\n      0x11\n        /* \"#utility.yul\":4313:4314   */\n      0x04\n        /* \"#utility.yul\":4306:4321   */\n      mstore\n        /* \"#utility.yul\":4340:4344   */\n      0x24\n        /* \"#utility.yul\":4337:4338   */\n      0x00\n        /* \"#utility.yul\":4330:4345   */\n      revert\n        /* \"#utility.yul\":4357:4537   */\n    tag_113:\n        /* \"#utility.yul\":4405:4482   */\n      0x4e487b7100000000000000000000000000000000000000000000000000000000\n        /* \"#utility.yul\":4402:4403   */\n      0x00\n        /* \"#utility.yul\":4395:4483   */\n      mstore\n        /* \"#utility.yul\":4502:4506   */\n      0x31\n        /* \"#utility.yul\":4499:4500   */\n      0x04\n        /* \"#utility.yul\":4492:4507   */\n      mstore\n        /* \"#utility.yul\":4526:4530   */\n      0x24\n        /* \"#utility.yul\":4523:4524   */\n      0x00\n        /* \"#utility.yul\":4516:4531   */\n      revert\n        /* \"#utility.yul\":4543:4723   */\n    tag_58:\n        /* \"#utility.yul\":4591:4668   */\n      0x4e487b7100000000000000000000000000000000000000000000000000000000\n        /* \"#utility.yul\":4588:4589   */\n      0x00\n        /* \"#utility.yul\":4581:4669   */\n      mstore\n        /* \"#utility.yul\":4688:4692   */\n      0x32\n        /* \"#utility.yul\":4685:4686   */\n      0x04\n        /* \"#utility.yul\":4678:4693   */\n      mstore\n        /* \"#utility.yul\":4712:4716   */\n      0x24\n        /* \"#utility.yul\":4709:4710   */\n      0x00\n        /* \"#utility.yul\":4702:4717   */\n      revert\n        /* \"#utility.yul\":4729:4909   */\n    tag_132:\n        /* \"#utility.yul\":4777:4854   */\n      0x4e487b7100000000000000000000000000000000000000000000000000000000\n        /* \"#utility.yul\":4774:4775   */\n      0x00\n        /* \"#utility.yul\":4767:4855   */\n      mstore\n        /* \"#utility.yul\":4874:4878   */\n      0x41\n        /* \"#utility.yul\":4871:4872   */\n      0x04\n        /* \"#utility.yul\":4864:4879   */\n      mstore\n        /* \"#utility.yul\":4898:4902   */\n      0x24\n        /* \"#utility.yul\":4895:4896   */\n      0x00\n        /* \"#utility.yul\":4888:4903   */\n      revert\n        /* \"#utility.yul\":5038:5155   */\n    tag_164:\n        /* \"#utility.yul\":5147:5148   */\n      0x00\n        /* \"#utility.yul\":5144:5145   */\n      dup1\n        /* \"#utility.yul\":5137:5149   */\n      revert\n        /* \"#utility.yul\":5161:5283   */\n    tag_156:\n        /* \"#utility.yul\":5234:5258   */\n      tag_228\n        /* \"#utility.yul\":5252:5257   */\n      dup2\n        /* \"#utility.yul\":5234:5258   */\n      tag_178\n      jump\t// in\n    tag_228:\n        /* \"#utility.yul\":5227:5232   */\n      dup2\n        /* \"#utility.yul\":5224:5259   */\n      eq\n        /* \"#utility.yul\":5214:5277   */\n      tag_229\n      jumpi\n        /* \"#utility.yul\":5273:5274   */\n      0x00\n        /* \"#utility.yul\":5270:5271   */\n      dup1\n        /* \"#utility.yul\":5263:5275   */\n      revert\n        /* \"#utility.yul\":5214:5277   */\n    tag_229:\n        /* \"#utility.yul\":5161:5283   */\n      pop\n      jump\t// out\n        /* \"#utility.yul\":5289:5411   */\n    tag_160:\n        /* \"#utility.yul\":5362:5386   */\n      tag_231\n        /* \"#utility.yul\":5380:5385   */\n      dup2\n        /* \"#utility.yul\":5362:5386   */\n      tag_186\n      jump\t// in\n    tag_231:\n        /* \"#utility.yul\":5355:5360   */\n      dup2\n        /* \"#utility.yul\":5352:5387   */\n      eq\n        /* \"#utility.yul\":5342:5405   */\n      tag_232\n      jumpi\n        /* \"#utility.yul\":5401:5402   */\n      0x00\n        /* \"#utility.yul\":5398:5399   */\n      dup1\n        /* \"#utility.yul\":5391:5403   */\n      revert\n        /* \"#utility.yul\":5342:5405   */\n    tag_232:\n        /* \"#utility.yul\":5289:5411   */\n      pop\n      jump\t// out\n\n    auxdata: 0xa26469706673582212206e2a28d540cf3d3c4494f002f6991b490eaa4cc15b77cb4bde7d19602b3093ec64736f6c63430008070033\n}\n",
				"bytecode": {
					"linkReferences": {},
					"object": "6080604052600160025534801561001557600080fd5b50610ea6806100256000396000f3fe608060405234801561001057600080fd5b50600436106100a95760003560e01c8063b577c0c711610071578063b577c0c714610151578063d13d59711461016f578063dcbb825314610179578063e81bd2a414610197578063ef35bcce146101a1578063f10864b6146101bd576100a9565b80631e20d14b146100ae5780633bc5de30146100ca57806346e2577a146100e957806350f3fc81146101055780638a355a5714610135575b600080fd5b6100c860048036038101906100c39190610b84565b6101ee565b005b6100d261030b565b6040516100e0929190610c14565b60405180910390f35b61010360048036038101906100fe9190610b17565b6103e3565b005b61011f600480360381019061011a9190610b84565b6104de565b60405161012c9190610bde565b60405180910390f35b61014f600480360381019061014a9190610b17565b61051d565b005b610159610749565b6040516101669190610bf9565b60405180910390f35b61017761074f565b005b610181610879565b60405161018e9190610bf9565b60405180910390f35b61019f610885565b005b6101bb60048036038101906101b69190610b84565b610a74565b005b6101d760048036038101906101d29190610b44565b610a8b565b6040516101e5929190610c3d565b60405180910390f35b60003390506000600160008373ffffffffffffffffffffffffffffffffffffffff1673ffffffffffffffffffffffffffffffffffffffff1681526020019081526020016000209050428160006002811061024b5761024a610ddf565b5b6002020160000181905550828160006002811061026b5761026a610ddf565b5b6002020160010181905550428160016002811061028b5761028a610ddf565b5b600202016000018190555082816001600281106102ab576102aa610ddf565b5b60020201600101819055508173ffffffffffffffffffffffffffffffffffffffff167f460fcc5a1888965d48c2cab000fe20da51b1297d995af79a1924e2312d0d82b384426040516102fe929190610c3d565b60405180910390a2505050565b6000806000808054905090506000805b828110156103d557600080828154811061033857610337610ddf565b5b9060005260206000200160009054906101000a900473ffffffffffffffffffffffffffffffffffffffff169050600160008273ffffffffffffffffffffffffffffffffffffffff1673ffffffffffffffffffffffffffffffffffffffff1681526020019081526020016000206001600281106103b7576103b6610ddf565b5b600202016001015492505080806103cd90610d38565b91505061031b565b508060019350935050509091565b6000819080600181540180825580915050600190039060005260206000200160009091909190916101000a81548173ffffffffffffffffffffffffffffffffffffffff021916908373ffffffffffffffffffffffffffffffffffffffff16021790555060018060008373ffffffffffffffffffffffffffffffffffffffff1673ffffffffffffffffffffffffffffffffffffffff16815260200190815260200160002060006002811061049957610498610ddf565b5b60020201600001819055507fae9c2c6481964847714ce58f65a7f6dcc41d0d8394449bacdf161b5920c4744a816040516104d39190610bde565b60405180910390a150565b600081815481106104ee57600080fd5b906000526020600020016000915054906101000a900473ffffffffffffffffffffffffffffffffffffffff1681565b600160008273ffffffffffffffffffffffffffffffffffffffff1673ffffffffffffffffffffffffffffffffffffffff16815260200190815260200160002060006105689190610ac2565b60005b600080549050811015610745578173ffffffffffffffffffffffffffffffffffffffff16600082815481106105a3576105a2610ddf565b5b9060005260206000200160009054906101000a900473ffffffffffffffffffffffffffffffffffffffff1673ffffffffffffffffffffffffffffffffffffffff161415610732576000805490506001826105fd9190610c66565b146106af57600060016000805490506106169190610cbc565b8154811061062757610626610ddf565b5b9060005260206000200160009054906101000a900473ffffffffffffffffffffffffffffffffffffffff166000828154811061066657610665610ddf565b5b9060005260206000200160006101000a81548173ffffffffffffffffffffffffffffffffffffffff021916908373ffffffffffffffffffffffffffffffffffffffff1602179055505b60008054806106c1576106c0610db0565b5b6001900381819060005260206000200160006101000a81549073ffffffffffffffffffffffffffffffffffffffff021916905590557f1589f8555933761a3cff8aa925061be3b46e2dd43f621322ab611d300f62b1d9826040516107259190610bde565b60405180910390a1610745565b808061073d90610d38565b91505061056b565b5050565b60025481565b60003390506000600160008373ffffffffffffffffffffffffffffffffffffffff1673ffffffffffffffffffffffffffffffffffffffff1681526020019081526020016000206000600281106107a8576107a7610ddf565b5b6002020160000154116107ba57600080fd5b60018060008373ffffffffffffffffffffffffffffffffffffffff1673ffffffffffffffffffffffffffffffffffffffff16815260200190815260200160002060006002811061080d5761080c610ddf565b5b600202016000018190555060018060008373ffffffffffffffffffffffffffffffffffffffff1673ffffffffffffffffffffffffffffffffffffffff16815260200190815260200160002060016002811061086b5761086a610ddf565b5b600202016000018190555050565b60008080549050905090565b60008080549050905060008167ffffffffffffffff8111156108aa576108a9610e0e565b5b6040519080825280602002602001820160405280156108d85781602001602082028036833780820191505090505b50905060008060005b84811015610a365760008082815481106108fe576108fd610ddf565b5b9060005260206000200160009054906101000a900473ffffffffffffffffffffffffffffffffffffffff1690506000600160008373ffffffffffffffffffffffffffffffffffffffff1673ffffffffffffffffffffffffffffffffffffffff168152602001908152602001600020600280602002604051908101604052809291906000905b828210156109bf578382600202016040518060400160405290816000820154815260200160018201548152505081526020019060010190610983565b505050509050600160008373ffffffffffffffffffffffffffffffffffffffff1673ffffffffffffffffffffffffffffffffffffffff168152602001908152602001600020600160028110610a1757610a16610ddf565b5b6002020160010154935050508080610a2e90610d38565b9150506108e1565b507ff022f7b9fbe5b772aa573c8d2de18a83071c7190f20575d377afcb1f9af7961481604051610a669190610bf9565b60405180910390a150505050565b60008111610a8157600080fd5b8060028190555050565b60016020528160005260406000208160028110610aa757600080fd5b60020201600091509150508060000154908060010154905082565b5060008082016000905560018201600090555060020160008082016000905560018201600090555050565b600081359050610afc81610e42565b92915050565b600081359050610b1181610e59565b92915050565b600060208284031215610b2d57610b2c610e3d565b5b6000610b3b84828501610aed565b91505092915050565b60008060408385031215610b5b57610b5a610e3d565b5b6000610b6985828601610aed565b9250506020610b7a85828601610b02565b9150509250929050565b600060208284031215610b9a57610b99610e3d565b5b6000610ba884828501610b02565b91505092915050565b610bba81610cf0565b82525050565b610bc981610d02565b82525050565b610bd881610d2e565b82525050565b6000602082019050610bf36000830184610bb1565b92915050565b6000602082019050610c0e6000830184610bcf565b92915050565b6000604082019050610c296000830185610bcf565b610c366020830184610bc0565b9392505050565b6000604082019050610c526000830185610bcf565b610c5f6020830184610bcf565b9392505050565b6000610c7182610d2e565b9150610c7c83610d2e565b9250827fffffffffffffffffffffffffffffffffffffffffffffffffffffffffffffffff03821115610cb157610cb0610d81565b5b828201905092915050565b6000610cc782610d2e565b9150610cd283610d2e565b925082821015610ce557610ce4610d81565b5b828203905092915050565b6000610cfb82610d0e565b9050919050565b60008115159050919050565b600073ffffffffffffffffffffffffffffffffffffffff82169050919050565b6000819050919050565b6000610d4382610d2e565b91507fffffffffffffffffffffffffffffffffffffffffffffffffffffffffffffffff821415610d7657610d75610d81565b5b600182019050919050565b7f4e487b7100000000000000000000000000000000000000000000000000000000600052601160045260246000fd5b7f4e487b7100000000000000000000000000000000000000000000000000000000600052603160045260246000fd5b7f4e487b7100000000000000000000000000000000000000000000000000000000600052603260045260246000fd5b7f4e487b7100000000000000000000000000000000000000000000000000000000600052604160045260246000fd5b600080fd5b610e4b81610cf0565b8114610e5657600080fd5b50565b610e6281610d2e565b8114610e6d57600080fd5b5056fea26469706673582212206e2a28d540cf3d3c4494f002f6991b490eaa4cc15b77cb4bde7d19602b3093ec64736f6c63430008070033",
					"opcodes": "PUSH1 0x80 PUSH1 0x40 MSTORE PUSH1 0x1 PUSH1 0x2 SSTORE CALLVALUE DUP1 ISZERO PUSH2 0x15 JUMPI PUSH1 0x0 DUP1 REVERT JUMPDEST POP PUSH2 0xEA6 DUP1 PUSH2 0x25 PUSH1 0x0 CODECOPY PUSH1 0x0 RETURN INVALID PUSH1 0x80 PUSH1 0x40 MSTORE CALLVALUE DUP1 ISZERO PUSH2 0x10 JUMPI PUSH1 0x0 DUP1 REVERT JUMPDEST POP PUSH1 0x4 CALLDATASIZE LT PUSH2 0xA9 JUMPI PUSH1 0x0 CALLDATALOAD PUSH1 0xE0 SHR DUP1 PUSH4 0xB577C0C7 GT PUSH2 0x71 JUMPI DUP1 PUSH4 0xB577C0C7 EQ PUSH2 0x151 JUMPI DUP1 PUSH4 0xD13D5971 EQ PUSH2 0x16F JUMPI DUP1 PUSH4 0xDCBB8253 EQ PUSH2 0x179 JUMPI DUP1 PUSH4 0xE81BD2A4 EQ PUSH2 0x197 JUMPI DUP1 PUSH4 0xEF35BCCE EQ PUSH2 0x1A1 JUMPI DUP1 PUSH4 0xF10864B6 EQ PUSH2 0x1BD JUMPI PUSH2 0xA9 JUMP JUMPDEST DUP1 PUSH4 0x1E20D14B EQ PUSH2 0xAE JUMPI DUP1 PUSH4 0x3BC5DE30 EQ PUSH2 0xCA JUMPI DUP1 PUSH4 0x46E2577A EQ PUSH2 0xE9 JUMPI DUP1 PUSH4 0x50F3FC81 EQ PUSH2 0x105 JUMPI DUP1 PUSH4 0x8A355A57 EQ PUSH2 0x135 JUMPI JUMPDEST PUSH1 0x0 DUP1 REVERT JUMPDEST PUSH2 0xC8 PUSH1 0x4 DUP1 CALLDATASIZE SUB DUP2 ADD SWAP1 PUSH2 0xC3 SWAP2 SWAP1 PUSH2 0xB84 JUMP JUMPDEST PUSH2 0x1EE JUMP JUMPDEST STOP JUMPDEST PUSH2 0xD2 PUSH2 0x30B JUMP JUMPDEST PUSH1 0x40 MLOAD PUSH2 0xE0 SWAP3 SWAP2 SWAP1 PUSH2 0xC14 JUMP JUMPDEST PUSH1 0x40 MLOAD DUP1 SWAP2 SUB SWAP1 RETURN JUMPDEST PUSH2 0x103 PUSH1 0x4 DUP1 CALLDATASIZE SUB DUP2 ADD SWAP1 PUSH2 0xFE SWAP2 SWAP1 PUSH2 0xB17 JUMP JUMPDEST PUSH2 0x3E3 JUMP JUMPDEST STOP JUMPDEST PUSH2 0x11F PUSH1 0x4 DUP1 CALLDATASIZE SUB DUP2 ADD SWAP1 PUSH2 0x11A SWAP2 SWAP1 PUSH2 0xB84 JUMP JUMPDEST PUSH2 0x4DE JUMP JUMPDEST PUSH1 0x40 MLOAD PUSH2 0x12C SWAP2 SWAP1 PUSH2 0xBDE JUMP JUMPDEST PUSH1 0x40 MLOAD DUP1 SWAP2 SUB SWAP1 RETURN JUMPDEST PUSH2 0x14F PUSH1 0x4 DUP1 CALLDATASIZE SUB DUP2 ADD SWAP1 PUSH2 0x14A SWAP2 SWAP1 PUSH2 0xB17 JUMP JUMPDEST PUSH2 0x51D JUMP JUMPDEST STOP JUMPDEST PUSH2 0x159 PUSH2 0x749 JUMP JUMPDEST PUSH1 0x40 MLOAD PUSH2 0x166 SWAP2 SWAP1 PUSH2 0xBF9 JUMP JUMPDEST PUSH1 0x40 MLOAD DUP1 SWAP2 SUB SWAP1 RETURN JUMPDEST PUSH2 0x177 PUSH2 0x74F JUMP JUMPDEST STOP JUMPDEST PUSH2 0x181 PUSH2 0x879 JUMP JUMPDEST PUSH1 0x40 MLOAD PUSH2 0x18E SWAP2 SWAP1 PUSH2 0xBF9 JUMP JUMPDEST PUSH1 0x40 MLOAD DUP1 SWAP2 SUB SWAP1 RETURN JUMPDEST PUSH2 0x19F PUSH2 0x885 JUMP JUMPDEST STOP JUMPDEST PUSH2 0x1BB PUSH1 0x4 DUP1 CALLDATASIZE SUB DUP2 ADD SWAP1 PUSH2 0x1B6 SWAP2 SWAP1 PUSH2 0xB84 JUMP JUMPDEST PUSH2 0xA74 JUMP JUMPDEST STOP JUMPDEST PUSH2 0x1D7 PUSH1 0x4 DUP1 CALLDATASIZE SUB DUP2 ADD SWAP1 PUSH2 0x1D2 SWAP2 SWAP1 PUSH2 0xB44 JUMP JUMPDEST PUSH2 0xA8B JUMP JUMPDEST PUSH1 0x40 MLOAD PUSH2 0x1E5 SWAP3 SWAP2 SWAP1 PUSH2 0xC3D JUMP JUMPDEST PUSH1 0x40 MLOAD DUP1 SWAP2 SUB SWAP1 RETURN JUMPDEST PUSH1 0x0 CALLER SWAP1 POP PUSH1 0x0 PUSH1 0x1 PUSH1 0x0 DUP4 PUSH20 0xFFFFFFFFFFFFFFFFFFFFFFFFFFFFFFFFFFFFFFFF AND PUSH20 0xFFFFFFFFFFFFFFFFFFFFFFFFFFFFFFFFFFFFFFFF AND DUP2 MSTORE PUSH1 0x20 ADD SWAP1 DUP2 MSTORE PUSH1 0x20 ADD PUSH1 0x0 KECCAK256 SWAP1 POP TIMESTAMP DUP2 PUSH1 0x0 PUSH1 0x2 DUP2 LT PUSH2 0x24B JUMPI PUSH2 0x24A PUSH2 0xDDF JUMP JUMPDEST JUMPDEST PUSH1 0x2 MUL ADD PUSH1 0x0 ADD DUP2 SWAP1 SSTORE POP DUP3 DUP2 PUSH1 0x0 PUSH1 0x2 DUP2 LT PUSH2 0x26B JUMPI PUSH2 0x26A PUSH2 0xDDF JUMP JUMPDEST JUMPDEST PUSH1 0x2 MUL ADD PUSH1 0x1 ADD DUP2 SWAP1 SSTORE POP TIMESTAMP DUP2 PUSH1 0x1 PUSH1 0x2 DUP2 LT PUSH2 0x28B JUMPI PUSH2 0x28A PUSH2 0xDDF JUMP JUMPDEST JUMPDEST PUSH1 0x2 MUL ADD PUSH1 0x0 ADD DUP2 SWAP1 SSTORE POP DUP3 DUP2 PUSH1 0x1 PUSH1 0x2 DUP2 LT PUSH2 0x2AB JUMPI PUSH2 0x2AA PUSH2 0xDDF JUMP JUMPDEST JUMPDEST PUSH1 0x2 MUL ADD PUSH1 0x1 ADD DUP2 SWAP1 SSTORE POP DUP2 PUSH20 0xFFFFFFFFFFFFFFFFFFFFFFFFFFFFFFFFFFFFFFFF AND PUSH32 0x460FCC5A1888965D48C2CAB000FE20DA51B1297D995AF79A1924E2312D0D82B3 DUP5 TIMESTAMP PUSH1 0x40 MLOAD PUSH2 0x2FE SWAP3 SWAP2 SWAP1 PUSH2 0xC3D JUMP JUMPDEST PUSH1 0x40 MLOAD DUP1 SWAP2 SUB SWAP1 LOG2 POP POP POP JUMP JUMPDEST PUSH1 0x0 DUP1 PUSH1 0x0 DUP1 DUP1 SLOAD SWAP1 POP SWAP1 POP PUSH1 0x0 DUP1 JUMPDEST DUP3 DUP2 LT ISZERO PUSH2 0x3D5 JUMPI PUSH1 0x0 DUP1 DUP3 DUP2 SLOAD DUP2 LT PUSH2 0x338 JUMPI PUSH2 0x337 PUSH2 0xDDF JUMP JUMPDEST JUMPDEST SWAP1 PUSH1 0x0 MSTORE PUSH1 0x20 PUSH1 0x0 KECCAK256 ADD PUSH1 0x0 SWAP1 SLOAD SWAP1 PUSH2 0x100 EXP SWAP1 DIV PUSH20 0xFFFFFFFFFFFFFFFFFFFFFFFFFFFFFFFFFFFFFFFF AND SWAP1 POP PUSH1 0x1 PUSH1 0x0 DUP3 PUSH20 0xFFFFFFFFFFFFFFFFFFFFFFFFFFFFFFFFFFFFFFFF AND PUSH20 0xFFFFFFFFFFFFFFFFFFFFFFFFFFFFFFFFFFFFFFFF AND DUP2 MSTORE PUSH1 0x20 ADD SWAP1 DUP2 MSTORE PUSH1 0x20 ADD PUSH1 0x0 KECCAK256 PUSH1 0x1 PUSH1 0x2 DUP2 LT PUSH2 0x3B7 JUMPI PUSH2 0x3B6 PUSH2 0xDDF JUMP JUMPDEST JUMPDEST PUSH1 0x2 MUL ADD PUSH1 0x1 ADD SLOAD SWAP3 POP POP DUP1 DUP1 PUSH2 0x3CD SWAP1 PUSH2 0xD38 JUMP JUMPDEST SWAP2 POP POP PUSH2 0x31B JUMP JUMPDEST POP DUP1 PUSH1 0x1 SWAP4 POP SWAP4 POP POP POP SWAP1 SWAP2 JUMP JUMPDEST PUSH1 0x0 DUP2 SWAP1 DUP1 PUSH1 0x1 DUP2 SLOAD ADD DUP1 DUP3 SSTORE DUP1 SWAP2 POP POP PUSH1 0x1 SWAP1 SUB SWAP1 PUSH1 0x0 MSTORE PUSH1 0x20 PUSH1 0x0 KECCAK256 ADD PUSH1 0x0 SWAP1 SWAP2 SWAP1 SWAP2 SWAP1 SWAP2 PUSH2 0x100 EXP DUP2 SLOAD DUP2 PUSH20 0xFFFFFFFFFFFFFFFFFFFFFFFFFFFFFFFFFFFFFFFF MUL NOT AND SWAP1 DUP4 PUSH20 0xFFFFFFFFFFFFFFFFFFFFFFFFFFFFFFFFFFFFFFFF AND MUL OR SWAP1 SSTORE POP PUSH1 0x1 DUP1 PUSH1 0x0 DUP4 PUSH20 0xFFFFFFFFFFFFFFFFFFFFFFFFFFFFFFFFFFFFFFFF AND PUSH20 0xFFFFFFFFFFFFFFFFFFFFFFFFFFFFFFFFFFFFFFFF AND DUP2 MSTORE PUSH1 0x20 ADD SWAP1 DUP2 MSTORE PUSH1 0x20 ADD PUSH1 0x0 KECCAK256 PUSH1 0x0 PUSH1 0x2 DUP2 LT PUSH2 0x499 JUMPI PUSH2 0x498 PUSH2 0xDDF JUMP JUMPDEST JUMPDEST PUSH1 0x2 MUL ADD PUSH1 0x0 ADD DUP2 SWAP1 SSTORE POP PUSH32 0xAE9C2C6481964847714CE58F65A7F6DCC41D0D8394449BACDF161B5920C4744A DUP2 PUSH1 0x40 MLOAD PUSH2 0x4D3 SWAP2 SWAP1 PUSH2 0xBDE JUMP JUMPDEST PUSH1 0x40 MLOAD DUP1 SWAP2 SUB SWAP1 LOG1 POP JUMP JUMPDEST PUSH1 0x0 DUP2 DUP2 SLOAD DUP2 LT PUSH2 0x4EE JUMPI PUSH1 0x0 DUP1 REVERT JUMPDEST SWAP1 PUSH1 0x0 MSTORE PUSH1 0x20 PUSH1 0x0 KECCAK256 ADD PUSH1 0x0 SWAP2 POP SLOAD SWAP1 PUSH2 0x100 EXP SWAP1 DIV PUSH20 0xFFFFFFFFFFFFFFFFFFFFFFFFFFFFFFFFFFFFFFFF AND DUP2 JUMP JUMPDEST PUSH1 0x1 PUSH1 0x0 DUP3 PUSH20 0xFFFFFFFFFFFFFFFFFFFFFFFFFFFFFFFFFFFFFFFF AND PUSH20 0xFFFFFFFFFFFFFFFFFFFFFFFFFFFFFFFFFFFFFFFF AND DUP2 MSTORE PUSH1 0x20 ADD SWAP1 DUP2 MSTORE PUSH1 0x20 ADD PUSH1 0x0 KECCAK256 PUSH1 0x0 PUSH2 0x568 SWAP2 SWAP1 PUSH2 0xAC2 JUMP JUMPDEST PUSH1 0x0 JUMPDEST PUSH1 0x0 DUP1 SLOAD SWAP1 POP DUP2 LT ISZERO PUSH2 0x745 JUMPI DUP2 PUSH20 0xFFFFFFFFFFFFFFFFFFFFFFFFFFFFFFFFFFFFFFFF AND PUSH1 0x0 DUP3 DUP2 SLOAD DUP2 LT PUSH2 0x5A3 JUMPI PUSH2 0x5A2 PUSH2 0xDDF JUMP JUMPDEST JUMPDEST SWAP1 PUSH1 0x0 MSTORE PUSH1 0x20 PUSH1 0x0 KECCAK256 ADD PUSH1 0x0 SWAP1 SLOAD SWAP1 PUSH2 0x100 EXP SWAP1 DIV PUSH20 0xFFFFFFFFFFFFFFFFFFFFFFFFFFFFFFFFFFFFFFFF AND PUSH20 0xFFFFFFFFFFFFFFFFFFFFFFFFFFFFFFFFFFFFFFFF AND EQ ISZERO PUSH2 0x732 JUMPI PUSH1 0x0 DUP1 SLOAD SWAP1 POP PUSH1 0x1 DUP3 PUSH2 0x5FD SWAP2 SWAP1 PUSH2 0xC66 JUMP JUMPDEST EQ PUSH2 0x6AF JUMPI PUSH1 0x0 PUSH1 0x1 PUSH1 0x0 DUP1 SLOAD SWAP1 POP PUSH2 0x616 SWAP2 SWAP1 PUSH2 0xCBC JUMP JUMPDEST DUP2 SLOAD DUP2 LT PUSH2 0x627 JUMPI PUSH2 0x626 PUSH2 0xDDF JUMP JUMPDEST JUMPDEST SWAP1 PUSH1 0x0 MSTORE PUSH1 0x20 PUSH1 0x0 KECCAK256 ADD PUSH1 0x0 SWAP1 SLOAD SWAP1 PUSH2 0x100 EXP SWAP1 DIV PUSH20 0xFFFFFFFFFFFFFFFFFFFFFFFFFFFFFFFFFFFFFFFF AND PUSH1 0x0 DUP3 DUP2 SLOAD DUP2 LT PUSH2 0x666 JUMPI PUSH2 0x665 PUSH2 0xDDF JUMP JUMPDEST JUMPDEST SWAP1 PUSH1 0x0 MSTORE PUSH1 0x20 PUSH1 0x0 KECCAK256 ADD PUSH1 0x0 PUSH2 0x100 EXP DUP2 SLOAD DUP2 PUSH20 0xFFFFFFFFFFFFFFFFFFFFFFFFFFFFFFFFFFFFFFFF MUL NOT AND SWAP1 DUP4 PUSH20 0xFFFFFFFFFFFFFFFFFFFFFFFFFFFFFFFFFFFFFFFF AND MUL OR SWAP1 SSTORE POP JUMPDEST PUSH1 0x0 DUP1 SLOAD DUP1 PUSH2 0x6C1 JUMPI PUSH2 0x6C0 PUSH2 0xDB0 JUMP JUMPDEST JUMPDEST PUSH1 0x1 SWAP1 SUB DUP2 DUP2 SWAP1 PUSH1 0x0 MSTORE PUSH1 0x20 PUSH1 0x0 KECCAK256 ADD PUSH1 0x0 PUSH2 0x100 EXP DUP2 SLOAD SWAP1 PUSH20 0xFFFFFFFFFFFFFFFFFFFFFFFFFFFFFFFFFFFFFFFF MUL NOT AND SWAP1 SSTORE SWAP1 SSTORE PUSH32 0x1589F8555933761A3CFF8AA925061BE3B46E2DD43F621322AB611D300F62B1D9 DUP3 PUSH1 0x40 MLOAD PUSH2 0x725 SWAP2 SWAP1 PUSH2 0xBDE JUMP JUMPDEST PUSH1 0x40 MLOAD DUP1 SWAP2 SUB SWAP1 LOG1 PUSH2 0x745 JUMP JUMPDEST DUP1 DUP1 PUSH2 0x73D SWAP1 PUSH2 0xD38 JUMP JUMPDEST SWAP2 POP POP PUSH2 0x56B JUMP JUMPDEST POP POP JUMP JUMPDEST PUSH1 0x2 SLOAD DUP2 JUMP JUMPDEST PUSH1 0x0 CALLER SWAP1 POP PUSH1 0x0 PUSH1 0x1 PUSH1 0x0 DUP4 PUSH20 0xFFFFFFFFFFFFFFFFFFFFFFFFFFFFFFFFFFFFFFFF AND PUSH20 0xFFFFFFFFFFFFFFFFFFFFFFFFFFFFFFFFFFFFFFFF AND DUP2 MSTORE PUSH1 0x20 ADD SWAP1 DUP2 MSTORE PUSH1 0x20 ADD PUSH1 0x0 KECCAK256 PUSH1 0x0 PUSH1 0x2 DUP2 LT PUSH2 0x7A8 JUMPI PUSH2 0x7A7 PUSH2 0xDDF JUMP JUMPDEST JUMPDEST PUSH1 0x2 MUL ADD PUSH1 0x0 ADD SLOAD GT PUSH2 0x7BA JUMPI PUSH1 0x0 DUP1 REVERT JUMPDEST PUSH1 0x1 DUP1 PUSH1 0x0 DUP4 PUSH20 0xFFFFFFFFFFFFFFFFFFFFFFFFFFFFFFFFFFFFFFFF AND PUSH20 0xFFFFFFFFFFFFFFFFFFFFFFFFFFFFFFFFFFFFFFFF AND DUP2 MSTORE PUSH1 0x20 ADD SWAP1 DUP2 MSTORE PUSH1 0x20 ADD PUSH1 0x0 KECCAK256 PUSH1 0x0 PUSH1 0x2 DUP2 LT PUSH2 0x80D JUMPI PUSH2 0x80C PUSH2 0xDDF JUMP JUMPDEST JUMPDEST PUSH1 0x2 MUL ADD PUSH1 0x0 ADD DUP2 SWAP1 SSTORE POP PUSH1 0x1 DUP1 PUSH1 0x0 DUP4 PUSH20 0xFFFFFFFFFFFFFFFFFFFFFFFFFFFFFFFFFFFFFFFF AND PUSH20 0xFFFFFFFFFFFFFFFFFFFFFFFFFFFFFFFFFFFFFFFF AND DUP2 MSTORE PUSH1 0x20 ADD SWAP1 DUP2 MSTORE PUSH1 0x20 ADD PUSH1 0x0 KECCAK256 PUSH1 0x1 PUSH1 0x2 DUP2 LT PUSH2 0x86B JUMPI PUSH2 0x86A PUSH2 0xDDF JUMP JUMPDEST JUMPDEST PUSH1 0x2 MUL ADD PUSH1 0x0 ADD DUP2 SWAP1 SSTORE POP POP JUMP JUMPDEST PUSH1 0x0 DUP1 DUP1 SLOAD SWAP1 POP SWAP1 POP SWAP1 JUMP JUMPDEST PUSH1 0x0 DUP1 DUP1 SLOAD SWAP1 POP SWAP1 POP PUSH1 0x0 DUP2 PUSH8 0xFFFFFFFFFFFFFFFF DUP2 GT ISZERO PUSH2 0x8AA JUMPI PUSH2 0x8A9 PUSH2 0xE0E JUMP JUMPDEST JUMPDEST PUSH1 0x40 MLOAD SWAP1 DUP1 DUP3 MSTORE DUP1 PUSH1 0x20 MUL PUSH1 0x20 ADD DUP3 ADD PUSH1 0x40 MSTORE DUP1 ISZERO PUSH2 0x8D8 JUMPI DUP2 PUSH1 0x20 ADD PUSH1 0x20 DUP3 MUL DUP1 CALLDATASIZE DUP4 CALLDATACOPY DUP1 DUP3 ADD SWAP2 POP POP SWAP1 POP JUMPDEST POP SWAP1 POP PUSH1 0x0 DUP1 PUSH1 0x0 JUMPDEST DUP5 DUP2 LT ISZERO PUSH2 0xA36 JUMPI PUSH1 0x0 DUP1 DUP3 DUP2 SLOAD DUP2 LT PUSH2 0x8FE JUMPI PUSH2 0x8FD PUSH2 0xDDF JUMP JUMPDEST JUMPDEST SWAP1 PUSH1 0x0 MSTORE PUSH1 0x20 PUSH1 0x0 KECCAK256 ADD PUSH1 0x0 SWAP1 SLOAD SWAP1 PUSH2 0x100 EXP SWAP1 DIV PUSH20 0xFFFFFFFFFFFFFFFFFFFFFFFFFFFFFFFFFFFFFFFF AND SWAP1 POP PUSH1 0x0 PUSH1 0x1 PUSH1 0x0 DUP4 PUSH20 0xFFFFFFFFFFFFFFFFFFFFFFFFFFFFFFFFFFFFFFFF AND PUSH20 0xFFFFFFFFFFFFFFFFFFFFFFFFFFFFFFFFFFFFFFFF AND DUP2 MSTORE PUSH1 0x20 ADD SWAP1 DUP2 MSTORE PUSH1 0x20 ADD PUSH1 0x0 KECCAK256 PUSH1 0x2 DUP1 PUSH1 0x20 MUL PUSH1 0x40 MLOAD SWAP1 DUP2 ADD PUSH1 0x40 MSTORE DUP1 SWAP3 SWAP2 SWAP1 PUSH1 0x0 SWAP1 JUMPDEST DUP3 DUP3 LT ISZERO PUSH2 0x9BF JUMPI DUP4 DUP3 PUSH1 0x2 MUL ADD PUSH1 0x40 MLOAD DUP1 PUSH1 0x40 ADD PUSH1 0x40 MSTORE SWAP1 DUP2 PUSH1 0x0 DUP3 ADD SLOAD DUP2 MSTORE PUSH1 0x20 ADD PUSH1 0x1 DUP3 ADD SLOAD DUP2 MSTORE POP POP DUP2 MSTORE PUSH1 0x20 ADD SWAP1 PUSH1 0x1 ADD SWAP1 PUSH2 0x983 JUMP JUMPDEST POP POP POP POP SWAP1 POP PUSH1 0x1 PUSH1 0x0 DUP4 PUSH20 0xFFFFFFFFFFFFFFFFFFFFFFFFFFFFFFFFFFFFFFFF AND PUSH20 0xFFFFFFFFFFFFFFFFFFFFFFFFFFFFFFFFFFFFFFFF AND DUP2 MSTORE PUSH1 0x20 ADD SWAP1 DUP2 MSTORE PUSH1 0x20 ADD PUSH1 0x0 KECCAK256 PUSH1 0x1 PUSH1 0x2 DUP2 LT PUSH2 0xA17 JUMPI PUSH2 0xA16 PUSH2 0xDDF JUMP JUMPDEST JUMPDEST PUSH1 0x2 MUL ADD PUSH1 0x1 ADD SLOAD SWAP4 POP POP POP DUP1 DUP1 PUSH2 0xA2E SWAP1 PUSH2 0xD38 JUMP JUMPDEST SWAP2 POP POP PUSH2 0x8E1 JUMP JUMPDEST POP PUSH32 0xF022F7B9FBE5B772AA573C8D2DE18A83071C7190F20575D377AFCB1F9AF79614 DUP2 PUSH1 0x40 MLOAD PUSH2 0xA66 SWAP2 SWAP1 PUSH2 0xBF9 JUMP JUMPDEST PUSH1 0x40 MLOAD DUP1 SWAP2 SUB SWAP1 LOG1 POP POP POP POP JUMP JUMPDEST PUSH1 0x0 DUP2 GT PUSH2 0xA81 JUMPI PUSH1 0x0 DUP1 REVERT JUMPDEST DUP1 PUSH1 0x2 DUP2 SWAP1 SSTORE POP POP JUMP JUMPDEST PUSH1 0x1 PUSH1 0x20 MSTORE DUP2 PUSH1 0x0 MSTORE PUSH1 0x40 PUSH1 0x0 KECCAK256 DUP2 PUSH1 0x2 DUP2 LT PUSH2 0xAA7 JUMPI PUSH1 0x0 DUP1 REVERT JUMPDEST PUSH1 0x2 MUL ADD PUSH1 0x0 SWAP2 POP SWAP2 POP POP DUP1 PUSH1 0x0 ADD SLOAD SWAP1 DUP1 PUSH1 0x1 ADD SLOAD SWAP1 POP DUP3 JUMP JUMPDEST POP PUSH1 0x0 DUP1 DUP3 ADD PUSH1 0x0 SWAP1 SSTORE PUSH1 0x1 DUP3 ADD PUSH1 0x0 SWAP1 SSTORE POP PUSH1 0x2 ADD PUSH1 0x0 DUP1 DUP3 ADD PUSH1 0x0 SWAP1 SSTORE PUSH1 0x1 DUP3 ADD PUSH1 0x0 SWAP1 SSTORE POP POP JUMP JUMPDEST PUSH1 0x0 DUP2 CALLDATALOAD SWAP1 POP PUSH2 0xAFC DUP2 PUSH2 0xE42 JUMP JUMPDEST SWAP3 SWAP2 POP POP JUMP JUMPDEST PUSH1 0x0 DUP2 CALLDATALOAD SWAP1 POP PUSH2 0xB11 DUP2 PUSH2 0xE59 JUMP JUMPDEST SWAP3 SWAP2 POP POP JUMP JUMPDEST PUSH1 0x0 PUSH1 0x20 DUP3 DUP5 SUB SLT ISZERO PUSH2 0xB2D JUMPI PUSH2 0xB2C PUSH2 0xE3D JUMP JUMPDEST JUMPDEST PUSH1 0x0 PUSH2 0xB3B DUP5 DUP3 DUP6 ADD PUSH2 0xAED JUMP JUMPDEST SWAP2 POP POP SWAP3 SWAP2 POP POP JUMP JUMPDEST PUSH1 0x0 DUP1 PUSH1 0x40 DUP4 DUP6 SUB SLT ISZERO PUSH2 0xB5B JUMPI PUSH2 0xB5A PUSH2 0xE3D JUMP JUMPDEST JUMPDEST PUSH1 0x0 PUSH2 0xB69 DUP6 DUP3 DUP7 ADD PUSH2 0xAED JUMP JUMPDEST SWAP3 POP POP PUSH1 0x20 PUSH2 0xB7A DUP6 DUP3 DUP7 ADD PUSH2 0xB02 JUMP JUMPDEST SWAP2 POP POP SWAP3 POP SWAP3 SWAP1 POP JUMP JUMPDEST PUSH1 0x0 PUSH1 0x20 DUP3 DUP5 SUB SLT ISZERO PUSH2 0xB9A JUMPI PUSH2 0xB99 PUSH2 0xE3D JUMP JUMPDEST JUMPDEST PUSH1 0x0 PUSH2 0xBA8 DUP5 DUP3 DUP6 ADD PUSH2 0xB02 JUMP JUMPDEST SWAP2 POP POP SWAP3 SWAP2 POP POP JUMP JUMPDEST PUSH2 0xBBA DUP2 PUSH2 0xCF0 JUMP JUMPDEST DUP3 MSTORE POP POP JUMP JUMPDEST PUSH2 0xBC9 DUP2 PUSH2 0xD02 JUMP JUMPDEST DUP3 MSTORE POP POP JUMP JUMPDEST PUSH2 0xBD8 DUP2 PUSH2 0xD2E JUMP JUMPDEST DUP3 MSTORE POP POP JUMP JUMPDEST PUSH1 0x0 PUSH1 0x20 DUP3 ADD SWAP1 POP PUSH2 0xBF3 PUSH1 0x0 DUP4 ADD DUP5 PUSH2 0xBB1 JUMP JUMPDEST SWAP3 SWAP2 POP POP JUMP JUMPDEST PUSH1 0x0 PUSH1 0x20 DUP3 ADD SWAP1 POP PUSH2 0xC0E PUSH1 0x0 DUP4 ADD DUP5 PUSH2 0xBCF JUMP JUMPDEST SWAP3 SWAP2 POP POP JUMP JUMPDEST PUSH1 0x0 PUSH1 0x40 DUP3 ADD SWAP1 POP PUSH2 0xC29 PUSH1 0x0 DUP4 ADD DUP6 PUSH2 0xBCF JUMP JUMPDEST PUSH2 0xC36 PUSH1 0x20 DUP4 ADD DUP5 PUSH2 0xBC0 JUMP JUMPDEST SWAP4 SWAP3 POP POP POP JUMP JUMPDEST PUSH1 0x0 PUSH1 0x40 DUP3 ADD SWAP1 POP PUSH2 0xC52 PUSH1 0x0 DUP4 ADD DUP6 PUSH2 0xBCF JUMP JUMPDEST PUSH2 0xC5F PUSH1 0x20 DUP4 ADD DUP5 PUSH2 0xBCF JUMP JUMPDEST SWAP4 SWAP3 POP POP POP JUMP JUMPDEST PUSH1 0x0 PUSH2 0xC71 DUP3 PUSH2 0xD2E JUMP JUMPDEST SWAP2 POP PUSH2 0xC7C DUP4 PUSH2 0xD2E JUMP JUMPDEST SWAP3 POP DUP3 PUSH32 0xFFFFFFFFFFFFFFFFFFFFFFFFFFFFFFFFFFFFFFFFFFFFFFFFFFFFFFFFFFFFFFFF SUB DUP3 GT ISZERO PUSH2 0xCB1 JUMPI PUSH2 0xCB0 PUSH2 0xD81 JUMP JUMPDEST JUMPDEST DUP3 DUP3 ADD SWAP1 POP SWAP3 SWAP2 POP POP JUMP JUMPDEST PUSH1 0x0 PUSH2 0xCC7 DUP3 PUSH2 0xD2E JUMP JUMPDEST SWAP2 POP PUSH2 0xCD2 DUP4 PUSH2 0xD2E JUMP JUMPDEST SWAP3 POP DUP3 DUP3 LT ISZERO PUSH2 0xCE5 JUMPI PUSH2 0xCE4 PUSH2 0xD81 JUMP JUMPDEST JUMPDEST DUP3 DUP3 SUB SWAP1 POP SWAP3 SWAP2 POP POP JUMP JUMPDEST PUSH1 0x0 PUSH2 0xCFB DUP3 PUSH2 0xD0E JUMP JUMPDEST SWAP1 POP SWAP2 SWAP1 POP JUMP JUMPDEST PUSH1 0x0 DUP2 ISZERO ISZERO SWAP1 POP SWAP2 SWAP1 POP JUMP JUMPDEST PUSH1 0x0 PUSH20 0xFFFFFFFFFFFFFFFFFFFFFFFFFFFFFFFFFFFFFFFF DUP3 AND SWAP1 POP SWAP2 SWAP1 POP JUMP JUMPDEST PUSH1 0x0 DUP2 SWAP1 POP SWAP2 SWAP1 POP JUMP JUMPDEST PUSH1 0x0 PUSH2 0xD43 DUP3 PUSH2 0xD2E JUMP JUMPDEST SWAP2 POP PUSH32 0xFFFFFFFFFFFFFFFFFFFFFFFFFFFFFFFFFFFFFFFFFFFFFFFFFFFFFFFFFFFFFFFF DUP3 EQ ISZERO PUSH2 0xD76 JUMPI PUSH2 0xD75 PUSH2 0xD81 JUMP JUMPDEST JUMPDEST PUSH1 0x1 DUP3 ADD SWAP1 POP SWAP2 SWAP1 POP JUMP JUMPDEST PUSH32 0x4E487B7100000000000000000000000000000000000000000000000000000000 PUSH1 0x0 MSTORE PUSH1 0x11 PUSH1 0x4 MSTORE PUSH1 0x24 PUSH1 0x0 REVERT JUMPDEST PUSH32 0x4E487B7100000000000000000000000000000000000000000000000000000000 PUSH1 0x0 MSTORE PUSH1 0x31 PUSH1 0x4 MSTORE PUSH1 0x24 PUSH1 0x0 REVERT JUMPDEST PUSH32 0x4E487B7100000000000000000000000000000000000000000000000000000000 PUSH1 0x0 MSTORE PUSH1 0x32 PUSH1 0x4 MSTORE PUSH1 0x24 PUSH1 0x0 REVERT JUMPDEST PUSH32 0x4E487B7100000000000000000000000000000000000000000000000000000000 PUSH1 0x0 MSTORE PUSH1 0x41 PUSH1 0x4 MSTORE PUSH1 0x24 PUSH1 0x0 REVERT JUMPDEST PUSH1 0x0 DUP1 REVERT JUMPDEST PUSH2 0xE4B DUP2 PUSH2 0xCF0 JUMP JUMPDEST DUP2 EQ PUSH2 0xE56 JUMPI PUSH1 0x0 DUP1 REVERT JUMPDEST POP JUMP JUMPDEST PUSH2 0xE62 DUP2 PUSH2 0xD2E JUMP JUMPDEST DUP2 EQ PUSH2 0xE6D JUMPI PUSH1 0x0 DUP1 REVERT JUMPDEST POP JUMP INVALID LOG2 PUSH5 0x6970667358 0x22 SLT KECCAK256 PUSH15 0x2A28D540CF3D3C4494F002F6991B49 0xE 0xAA 0x4C 0xC1 JUMPDEST PUSH24 0xCB4BDE7D19602B3093EC64736F6C63430008070033000000 "
				},
				"gasEstimates": {
					"creation": {
						"codeDepositCost": "750000",
						"executionCost": "22892",
						"totalCost": "772892"
					},
					"external": {
						"addProvider(address)": "infinite",
						"getData()": "infinite",
						"minimumProviders()": "2429",
						"printData()": "infinite",
						"providerReports(address,uint256)": "infinite",
						"providers(uint256)": "5023",
						"providersSize()": "2489",
						"purgeReports()": "46928",
						"pushReport(uint256)": "infinite",
						"removeProvider(address)": "infinite",
						"setMinimumProviders(uint256)": "22631"
					},
					"internal": {
						"init(uint256)": "infinite"
					}
				},
				"methodIdentifiers": {
					"addProvider(address)": "46e2577a",
					"getData()": "3bc5de30",
					"minimumProviders()": "b577c0c7",
					"printData()": "e81bd2a4",
					"providerReports(address,uint256)": "f10864b6",
					"providers(uint256)": "50f3fc81",
					"providersSize()": "dcbb8253",
					"purgeReports()": "d13d5971",
					"pushReport(uint256)": "1e20d14b",
					"removeProvider(address)": "8a355a57",
					"setMinimumProviders(uint256)": "ef35bcce"
				}
			},
			"storageLayout": {
				"storage": [
					{
						"astId": 25,
						"contract": "contracts/Oracle.sol:Oracle",
						"label": "providers",
						"offset": 0,
						"slot": "0",
						"type": "t_array(t_address)dyn_storage"
					},
					{
						"astId": 32,
						"contract": "contracts/Oracle.sol:Oracle",
						"label": "providerReports",
						"offset": 0,
						"slot": "1",
						"type": "t_mapping(t_address,t_array(t_struct(Report)22_storage)2_storage)"
					},
					{
						"astId": 55,
						"contract": "contracts/Oracle.sol:Oracle",
						"label": "minimumProviders",
						"offset": 0,
						"slot": "2",
						"type": "t_uint256"
					}
				],
				"types": {
					"t_address": {
						"encoding": "inplace",
						"label": "address",
						"numberOfBytes": "20"
					},
					"t_array(t_address)dyn_storage": {
						"base": "t_address",
						"encoding": "dynamic_array",
						"label": "address[]",
						"numberOfBytes": "32"
					},
					"t_array(t_struct(Report)22_storage)2_storage": {
						"base": "t_struct(Report)22_storage",
						"encoding": "inplace",
						"label": "struct Oracle.Report[2]",
						"numberOfBytes": "128"
					},
					"t_mapping(t_address,t_array(t_struct(Report)22_storage)2_storage)": {
						"encoding": "mapping",
						"key": "t_address",
						"label": "mapping(address => struct Oracle.Report[2])",
						"numberOfBytes": "32",
						"value": "t_array(t_struct(Report)22_storage)2_storage"
					},
					"t_struct(Report)22_storage": {
						"encoding": "inplace",
						"label": "struct Oracle.Report",
						"members": [
							{
								"astId": 19,
								"contract": "contracts/Oracle.sol:Oracle",
								"label": "timestamp",
								"offset": 0,
								"slot": "0",
								"type": "t_uint256"
							},
							{
								"astId": 21,
								"contract": "contracts/Oracle.sol:Oracle",
								"label": "payload",
								"offset": 0,
								"slot": "1",
								"type": "t_uint256"
							}
						],
						"numberOfBytes": "64"
					},
					"t_uint256": {
						"encoding": "inplace",
						"label": "uint256",
						"numberOfBytes": "32"
					}
				}
			},
			"userdoc": {
				"kind": "user",
				"methods": {
					"addProvider(address)": {
						"notice": "Authorizes a provider."
					},
					"getData()": {
						"notice": "Allows me to push a report and return the data"
					},
					"purgeReports()": {
						"notice": "Invalidates the reports of the calling provider."
					},
					"pushReport(uint256)": {
						"notice": "Pushes a report for the calling provider."
					},
					"removeProvider(address)": {
						"notice": "Revokes provider authorization."
					},
					"setMinimumProviders(uint256)": {
						"notice": "Sets the minimum number of providers with valid reports to         consider the aggregate report valid."
					}
				},
				"notice": "Provides a value onchain that's aggregated from a whitelisted set of         providers.",
				"version": 1
			}
		}
	}
}