{
	"contracts/CMMD.sol": {
		"CMMD": {
			"abi": [
				{
					"inputs": [
						{
							"internalType": "uint256",
							"name": "initialSupply",
							"type": "uint256"
						}
					],
					"stateMutability": "nonpayable",
					"type": "constructor"
				},
				{
					"anonymous": false,
					"inputs": [
						{
							"indexed": true,
							"internalType": "address",
							"name": "owner",
							"type": "address"
						},
						{
							"indexed": true,
							"internalType": "address",
							"name": "spender",
							"type": "address"
						},
						{
							"indexed": false,
							"internalType": "uint256",
							"name": "value",
							"type": "uint256"
						}
					],
					"name": "Approval",
					"type": "event"
				},
				{
					"anonymous": false,
					"inputs": [
						{
							"indexed": false,
							"internalType": "address",
							"name": "monetaryPolicy",
							"type": "address"
						}
					],
					"name": "LogMonetaryPolicyUpdated",
					"type": "event"
				},
				{
					"anonymous": false,
					"inputs": [
						{
							"indexed": true,
							"internalType": "uint256",
							"name": "epoch",
							"type": "uint256"
						},
						{
							"indexed": false,
							"internalType": "uint256",
							"name": "totalSupply",
							"type": "uint256"
						}
					],
					"name": "LogRebase",
					"type": "event"
				},
				{
					"anonymous": false,
					"inputs": [
						{
							"indexed": true,
							"internalType": "address",
							"name": "from",
							"type": "address"
						},
						{
							"indexed": true,
							"internalType": "address",
							"name": "to",
							"type": "address"
						},
						{
							"indexed": false,
							"internalType": "uint256",
							"name": "value",
							"type": "uint256"
						}
					],
					"name": "Transfer",
					"type": "event"
				},
				{
					"inputs": [],
					"name": "DOMAIN_SEPARATOR",
					"outputs": [
						{
							"internalType": "bytes32",
							"name": "",
							"type": "bytes32"
						}
					],
					"stateMutability": "view",
					"type": "function"
				},
				{
					"inputs": [],
					"name": "EIP712_DOMAIN",
					"outputs": [
						{
							"internalType": "bytes32",
							"name": "",
							"type": "bytes32"
						}
					],
					"stateMutability": "view",
					"type": "function"
				},
				{
					"inputs": [],
					"name": "EIP712_REVISION",
					"outputs": [
						{
							"internalType": "string",
							"name": "",
							"type": "string"
						}
					],
					"stateMutability": "view",
					"type": "function"
				},
				{
					"inputs": [],
					"name": "PERMIT_TYPEHASH",
					"outputs": [
						{
							"internalType": "bytes32",
							"name": "",
							"type": "bytes32"
						}
					],
					"stateMutability": "view",
					"type": "function"
				},
				{
					"inputs": [
						{
							"internalType": "address",
							"name": "owner_",
							"type": "address"
						},
						{
							"internalType": "address",
							"name": "spender",
							"type": "address"
						}
					],
					"name": "allowance",
					"outputs": [
						{
							"internalType": "uint256",
							"name": "",
							"type": "uint256"
						}
					],
					"stateMutability": "view",
					"type": "function"
				},
				{
					"inputs": [
						{
							"internalType": "address",
							"name": "spender",
							"type": "address"
						},
						{
							"internalType": "uint256",
							"name": "value",
							"type": "uint256"
						}
					],
					"name": "approve",
					"outputs": [
						{
							"internalType": "bool",
							"name": "",
							"type": "bool"
						}
					],
					"stateMutability": "nonpayable",
					"type": "function"
				},
				{
					"inputs": [
						{
							"internalType": "address",
							"name": "who",
							"type": "address"
						}
					],
					"name": "balanceOf",
					"outputs": [
						{
							"internalType": "uint256",
							"name": "",
							"type": "uint256"
						}
					],
					"stateMutability": "view",
					"type": "function"
				},
				{
					"inputs": [],
					"name": "decimals",
					"outputs": [
						{
							"internalType": "uint8",
							"name": "",
							"type": "uint8"
						}
					],
					"stateMutability": "view",
					"type": "function"
				},
				{
					"inputs": [
						{
							"internalType": "address",
							"name": "spender",
							"type": "address"
						},
						{
							"internalType": "uint256",
							"name": "subtractedValue",
							"type": "uint256"
						}
					],
					"name": "decreaseAllowance",
					"outputs": [
						{
							"internalType": "bool",
							"name": "",
							"type": "bool"
						}
					],
					"stateMutability": "nonpayable",
					"type": "function"
				},
				{
					"inputs": [
						{
							"internalType": "address",
							"name": "spender",
							"type": "address"
						},
						{
							"internalType": "uint256",
							"name": "addedValue",
							"type": "uint256"
						}
					],
					"name": "increaseAllowance",
					"outputs": [
						{
							"internalType": "bool",
							"name": "",
							"type": "bool"
						}
					],
					"stateMutability": "nonpayable",
					"type": "function"
				},
				{
					"inputs": [],
					"name": "monetaryPolicy",
					"outputs": [
						{
							"internalType": "address",
							"name": "",
							"type": "address"
						}
					],
					"stateMutability": "view",
					"type": "function"
				},
				{
					"inputs": [],
					"name": "name",
					"outputs": [
						{
							"internalType": "string",
							"name": "",
							"type": "string"
						}
					],
					"stateMutability": "view",
					"type": "function"
				},
				{
					"inputs": [
						{
							"internalType": "address",
							"name": "who",
							"type": "address"
						}
					],
					"name": "nonces",
					"outputs": [
						{
							"internalType": "uint256",
							"name": "",
							"type": "uint256"
						}
					],
					"stateMutability": "view",
					"type": "function"
				},
				{
					"inputs": [
						{
							"internalType": "uint256",
							"name": "epoch",
							"type": "uint256"
						},
						{
							"internalType": "int256",
							"name": "supplyDelta",
							"type": "int256"
						}
					],
					"name": "rebase",
					"outputs": [
						{
							"internalType": "uint256",
							"name": "",
							"type": "uint256"
						}
					],
					"stateMutability": "nonpayable",
					"type": "function"
				},
				{
					"inputs": [
						{
							"internalType": "address",
							"name": "requestor",
							"type": "address"
						},
						{
							"internalType": "uint256",
							"name": "amount",
							"type": "uint256"
						}
					],
					"name": "requestTokens",
					"outputs": [],
					"stateMutability": "nonpayable",
					"type": "function"
				},
				{
					"inputs": [
						{
							"internalType": "address",
							"name": "who",
							"type": "address"
						}
					],
					"name": "scaledBalanceOf",
					"outputs": [
						{
							"internalType": "uint256",
							"name": "",
							"type": "uint256"
						}
					],
					"stateMutability": "view",
					"type": "function"
				},
				{
					"inputs": [],
					"name": "scaledTotalSupply",
					"outputs": [
						{
							"internalType": "uint256",
							"name": "",
							"type": "uint256"
						}
					],
					"stateMutability": "pure",
					"type": "function"
				},
				{
					"inputs": [],
					"name": "symbol",
					"outputs": [
						{
							"internalType": "string",
							"name": "",
							"type": "string"
						}
					],
					"stateMutability": "view",
					"type": "function"
				},
				{
					"inputs": [],
					"name": "totalSupply",
					"outputs": [
						{
							"internalType": "uint256",
							"name": "",
							"type": "uint256"
						}
					],
					"stateMutability": "view",
					"type": "function"
				},
				{
					"inputs": [
						{
							"internalType": "address",
							"name": "to",
							"type": "address"
						},
						{
							"internalType": "uint256",
							"name": "value",
							"type": "uint256"
						}
					],
					"name": "transfer",
					"outputs": [
						{
							"internalType": "bool",
							"name": "",
							"type": "bool"
						}
					],
					"stateMutability": "nonpayable",
					"type": "function"
				},
				{
					"inputs": [
						{
							"internalType": "address",
							"name": "to",
							"type": "address"
						}
					],
					"name": "transferAll",
					"outputs": [
						{
							"internalType": "bool",
							"name": "",
							"type": "bool"
						}
					],
					"stateMutability": "nonpayable",
					"type": "function"
				},
				{
					"inputs": [
						{
							"internalType": "address",
							"name": "from",
							"type": "address"
						},
						{
							"internalType": "address",
							"name": "to",
							"type": "address"
						}
					],
					"name": "transferAllFrom",
					"outputs": [
						{
							"internalType": "bool",
							"name": "",
							"type": "bool"
						}
					],
					"stateMutability": "nonpayable",
					"type": "function"
				},
				{
					"inputs": [
						{
							"internalType": "address",
							"name": "from",
							"type": "address"
						},
						{
							"internalType": "address",
							"name": "to",
							"type": "address"
						},
						{
							"internalType": "uint256",
							"name": "value",
							"type": "uint256"
						}
					],
					"name": "transferFrom",
					"outputs": [
						{
							"internalType": "bool",
							"name": "",
							"type": "bool"
						}
					],
					"stateMutability": "nonpayable",
					"type": "function"
				}
			],
			"devdoc": {
				"kind": "dev",
				"methods": {
					"DOMAIN_SEPARATOR()": {
						"returns": {
							"_0": "The computed DOMAIN_SEPARATOR to be used off-chain services         which implement EIP-712.         https://eips.ethereum.org/EIPS/eip-2612"
						}
					},
					"allowance(address,address)": {
						"details": "Function to check the amount of tokens that an owner has allowed to a spender.",
						"params": {
							"owner_": "The address which owns the funds.",
							"spender": "The address which will spend the funds."
						},
						"returns": {
							"_0": "The number of tokens still available for the spender."
						}
					},
					"approve(address,uint256)": {
						"details": "Approve the passed address to spend the specified amount of tokens on behalf of msg.sender. This method is included for ERC20 compatibility. increaseAllowance and decreaseAllowance should be used instead. Changing an allowance with this method brings the risk that someone may transfer both the old and the new allowance - if they are both greater than zero - if a transfer transaction is mined before the later approve() call is mined.",
						"params": {
							"spender": "The address which will spend the funds.",
							"value": "The amount of tokens to be spent."
						}
					},
					"balanceOf(address)": {
						"params": {
							"who": "The address to query."
						},
						"returns": {
							"_0": "The balance of the specified address."
						}
					},
					"decimals()": {
						"details": "Returns the number of decimals used to get its user representation. For example, if `decimals` equals `2`, a balance of `505` tokens should be displayed to a user as `5.05` (`505 / 10 ** 2`). Tokens usually opt for a value of 18, imitating the relationship between Ether and Wei. This is the value {ERC20} uses, unless this function is overridden; NOTE: This information is only used for _display_ purposes: it in no way affects any of the arithmetic of the contract, including {IERC20-balanceOf} and {IERC20-transfer}."
					},
					"decreaseAllowance(address,uint256)": {
						"details": "Decrease the amount of tokens that an owner has allowed to a spender.",
						"params": {
							"spender": "The address which will spend the funds.",
							"subtractedValue": "The amount of tokens to decrease the allowance by."
						}
					},
					"increaseAllowance(address,uint256)": {
						"details": "Increase the amount of tokens that an owner has allowed to a spender. This method should be used instead of approve() to avoid the double approval vulnerability described above.",
						"params": {
							"addedValue": "The amount of tokens to increase the allowance by.",
							"spender": "The address which will spend the funds."
						}
					},
					"name()": {
						"details": "Returns the name of the token."
					},
					"nonces(address)": {
						"returns": {
							"_0": "The number of successful permits by the specified address."
						}
					},
					"rebase(uint256,int256)": {
						"details": "Notifies Fragments contract about a new rebase cycle.",
						"params": {
							"supplyDelta": "The number of new fragment tokens to add into circulation via expansion."
						},
						"returns": {
							"_0": "The total number of fragments after the supply adjustment."
						}
					},
					"scaledBalanceOf(address)": {
						"params": {
							"who": "The address to query."
						},
						"returns": {
							"_0": "The gon balance of the specified address."
						}
					},
					"scaledTotalSupply()": {
						"returns": {
							"_0": "the total number of gons."
						}
					},
					"symbol()": {
						"details": "Returns the symbol of the token, usually a shorter version of the name."
					},
					"totalSupply()": {
						"returns": {
							"_0": "The total number of fragments."
						}
					},
					"transfer(address,uint256)": {
						"details": "Transfer tokens to a specified address.",
						"params": {
							"to": "The address to transfer to.",
							"value": "The amount to be transferred."
						},
						"returns": {
							"_0": "True on success, false otherwise."
						}
					},
					"transferAll(address)": {
						"details": "Transfer all of the sender's wallet balance to a specified address.",
						"params": {
							"to": "The address to transfer to."
						},
						"returns": {
							"_0": "True on success, false otherwise."
						}
					},
					"transferAllFrom(address,address)": {
						"details": "Transfer all balance tokens from one address to another.",
						"params": {
							"from": "The address you want to send tokens from.",
							"to": "The address you want to transfer to."
						}
					},
					"transferFrom(address,address,uint256)": {
						"details": "Transfer tokens from one address to another.",
						"params": {
							"from": "The address you want to send tokens from.",
							"to": "The address you want to transfer to.",
							"value": "The amount of tokens to be transferred."
						}
					}
				},
				"version": 1
			},
			"evm": {
				"assembly": "    /* \"contracts/CMMD.sol\":171:11364  contract CMMD is ERC20 {... */\n  mstore(0x40, 0x80)\n    /* \"contracts/CMMD.sol\":3839:4243  constructor(uint256 initialSupply) ERC20(\"CentralMMD\", \"CMMD\") {... */\n  callvalue\n  dup1\n  iszero\n  tag_1\n  jumpi\n  0x00\n  dup1\n  revert\ntag_1:\n  pop\n  mload(0x40)\n  sub(codesize, bytecodeSize)\n  dup1\n  bytecodeSize\n  dup4\n  codecopy\n  dup2\n  dup2\n  add\n  0x40\n  mstore\n  dup2\n  add\n  swap1\n  tag_2\n  swap2\n  swap1\n  tag_3\n  jump\t// in\ntag_2:\n    /* \"@openzeppelin/contracts/token/ERC20/ERC20.sol\":1976:2089  constructor(string memory name_, string memory symbol_) {... */\n  mload(0x40)\n  dup1\n  0x40\n  add\n  0x40\n  mstore\n  dup1\n  0x0a\n  dup2\n  mstore\n  0x20\n  add\n  0x43656e7472616c4d4d4400000000000000000000000000000000000000000000\n  dup2\n  mstore\n  pop\n  mload(0x40)\n  dup1\n  0x40\n  add\n  0x40\n  mstore\n  dup1\n  0x04\n  dup2\n  mstore\n  0x20\n  add\n  0x434d4d4400000000000000000000000000000000000000000000000000000000\n  dup2\n  mstore\n  pop\n    /* \"@openzeppelin/contracts/token/ERC20/ERC20.sol\":2050:2055  name_ */\n  dup2\n    /* \"@openzeppelin/contracts/token/ERC20/ERC20.sol\":2042:2047  _name */\n  0x03\n    /* \"@openzeppelin/contracts/token/ERC20/ERC20.sol\":2042:2055  _name = name_ */\n  swap1\n  dup1\n  mload\n  swap1\n  0x20\n  add\n  swap1\n  tag_7\n  swap3\n  swap2\n  swap1\n  tag_8\n  jump\t// in\ntag_7:\n  pop\n    /* \"@openzeppelin/contracts/token/ERC20/ERC20.sol\":2075:2082  symbol_ */\n  dup1\n    /* \"@openzeppelin/contracts/token/ERC20/ERC20.sol\":2065:2072  _symbol */\n  0x04\n    /* \"@openzeppelin/contracts/token/ERC20/ERC20.sol\":2065:2082  _symbol = symbol_ */\n  swap1\n  dup1\n  mload\n  swap1\n  0x20\n  add\n  swap1\n  tag_9\n  swap3\n  swap2\n  swap1\n  tag_8\n  jump\t// in\ntag_9:\n  pop\n    /* \"@openzeppelin/contracts/token/ERC20/ERC20.sol\":1976:2089  constructor(string memory name_, string memory symbol_) {... */\n  pop\n  pop\n    /* \"contracts/CMMD.sol\":3937:3942  false */\n  0x00\n    /* \"contracts/CMMD.sol\":3912:3934  rebasePausedDeprecated */\n  0x05\n  0x14\n    /* \"contracts/CMMD.sol\":3912:3942  rebasePausedDeprecated = false */\n  0x0100\n  exp\n  dup2\n  sload\n  dup2\n  0xff\n  mul\n  not\n  and\n  swap1\n  dup4\n  iszero\n  iszero\n  mul\n  or\n  swap1\n  sstore\n  pop\n    /* \"contracts/CMMD.sol\":3976:3981  false */\n  0x00\n    /* \"contracts/CMMD.sol\":3952:3973  tokenPausedDeprecated */\n  0x05\n  0x15\n    /* \"contracts/CMMD.sol\":3952:3981  tokenPausedDeprecated = false */\n  0x0100\n  exp\n  dup2\n  sload\n  dup2\n  0xff\n  mul\n  not\n  and\n  swap1\n  dup4\n  iszero\n  iszero\n  mul\n  or\n  swap1\n  sstore\n  pop\n    /* \"contracts/CMMD.sol\":512:513  9 */\n  0x09\n    /* \"contracts/CMMD.sol\":646:648  10 */\n  0x0a\n    /* \"contracts/CMMD.sol\":646:658  10**DECIMALS */\n  tag_11\n  swap2\n  swap1\n  tag_12\n  jump\t// in\ntag_11:\n    /* \"contracts/CMMD.sol\":633:643  50 * 10**6 */\n  0x02faf080\n    /* \"contracts/CMMD.sol\":633:658  50 * 10**6 * 10**DECIMALS */\n  tag_13\n  swap2\n  swap1\n  tag_14\n  jump\t// in\ntag_13:\n    /* \"contracts/CMMD.sol\":3992:4004  _totalSupply */\n  0x06\n    /* \"contracts/CMMD.sol\":3992:4031  _totalSupply = INITIAL_FRAGMENTS_SUPPLY */\n  dup2\n  swap1\n  sstore\n  pop\n    /* \"contracts/CMMD.sol\":512:513  9 */\n  0x09\n    /* \"contracts/CMMD.sol\":646:648  10 */\n  0x0a\n    /* \"contracts/CMMD.sol\":646:658  10**DECIMALS */\n  tag_15\n  swap2\n  swap1\n  tag_12\n  jump\t// in\ntag_15:\n    /* \"contracts/CMMD.sol\":633:643  50 * 10**6 */\n  0x02faf080\n    /* \"contracts/CMMD.sol\":633:658  50 * 10**6 * 10**DECIMALS */\n  tag_16\n  swap2\n  swap1\n  tag_14\n  jump\t// in\ntag_16:\n    /* \"contracts/CMMD.sol\":558:575  type(uint256).max */\n  0xffffffffffffffffffffffffffffffffffffffffffffffffffffffffffffffff\n    /* \"contracts/CMMD.sol\":891:929  MAX_UINT256 % INITIAL_FRAGMENTS_SUPPLY */\n  tag_17\n  swap2\n  swap1\n  tag_18\n  jump\t// in\ntag_17:\n    /* \"contracts/CMMD.sol\":558:575  type(uint256).max */\n  0xffffffffffffffffffffffffffffffffffffffffffffffffffffffffffffffff\n    /* \"contracts/CMMD.sol\":876:930  MAX_UINT256 - (MAX_UINT256 % INITIAL_FRAGMENTS_SUPPLY) */\n  tag_19\n  swap2\n  swap1\n  tag_20\n  jump\t// in\ntag_19:\n    /* \"contracts/CMMD.sol\":4041:4053  _gonBalances */\n  0x08\n    /* \"contracts/CMMD.sol\":4041:4065  _gonBalances[msg.sender] */\n  0x00\n    /* \"contracts/CMMD.sol\":4054:4064  msg.sender */\n  caller\n    /* \"contracts/CMMD.sol\":4041:4065  _gonBalances[msg.sender] */\n  0xffffffffffffffffffffffffffffffffffffffff\n  and\n  0xffffffffffffffffffffffffffffffffffffffff\n  and\n  dup2\n  mstore\n  0x20\n  add\n  swap1\n  dup2\n  mstore\n  0x20\n  add\n  0x00\n  keccak256\n    /* \"contracts/CMMD.sol\":4041:4078  _gonBalances[msg.sender] = TOTAL_GONS */\n  dup2\n  swap1\n  sstore\n  pop\n    /* \"contracts/CMMD.sol\":4118:4130  _totalSupply */\n  sload(0x06)\n    /* \"contracts/CMMD.sol\":512:513  9 */\n  0x09\n    /* \"contracts/CMMD.sol\":646:648  10 */\n  0x0a\n    /* \"contracts/CMMD.sol\":646:658  10**DECIMALS */\n  tag_21\n  swap2\n  swap1\n  tag_12\n  jump\t// in\ntag_21:\n    /* \"contracts/CMMD.sol\":633:643  50 * 10**6 */\n  0x02faf080\n    /* \"contracts/CMMD.sol\":633:658  50 * 10**6 * 10**DECIMALS */\n  tag_22\n  swap2\n  swap1\n  tag_14\n  jump\t// in\ntag_22:\n    /* \"contracts/CMMD.sol\":558:575  type(uint256).max */\n  0xffffffffffffffffffffffffffffffffffffffffffffffffffffffffffffffff\n    /* \"contracts/CMMD.sol\":891:929  MAX_UINT256 % INITIAL_FRAGMENTS_SUPPLY */\n  tag_23\n  swap2\n  swap1\n  tag_18\n  jump\t// in\ntag_23:\n    /* \"contracts/CMMD.sol\":558:575  type(uint256).max */\n  0xffffffffffffffffffffffffffffffffffffffffffffffffffffffffffffffff\n    /* \"contracts/CMMD.sol\":876:930  MAX_UINT256 - (MAX_UINT256 % INITIAL_FRAGMENTS_SUPPLY) */\n  tag_24\n  swap2\n  swap1\n  tag_20\n  jump\t// in\ntag_24:\n    /* \"contracts/CMMD.sol\":4107:4130  TOTAL_GONS/_totalSupply */\n  tag_25\n  swap2\n  swap1\n  tag_26\n  jump\t// in\ntag_25:\n    /* \"contracts/CMMD.sol\":4088:4104  _gonsPerFragment */\n  0x07\n    /* \"contracts/CMMD.sol\":4088:4130  _gonsPerFragment = TOTAL_GONS/_totalSupply */\n  dup2\n  swap1\n  sstore\n  pop\n    /* \"contracts/CMMD.sol\":4169:4179  msg.sender */\n  caller\n    /* \"contracts/CMMD.sol\":4146:4194  Transfer(address(0x0), msg.sender, _totalSupply) */\n  0xffffffffffffffffffffffffffffffffffffffff\n  and\n    /* \"contracts/CMMD.sol\":4163:4166  0x0 */\n  0x00\n    /* \"contracts/CMMD.sol\":4146:4194  Transfer(address(0x0), msg.sender, _totalSupply) */\n  0xffffffffffffffffffffffffffffffffffffffff\n  and\n  0xddf252ad1be2c89b69c2b068fc378daa952ba7f163c4a11628f55a4df523b3ef\n    /* \"contracts/CMMD.sol\":4181:4193  _totalSupply */\n  sload(0x06)\n    /* \"contracts/CMMD.sol\":4146:4194  Transfer(address(0x0), msg.sender, _totalSupply) */\n  mload(0x40)\n  tag_27\n  swap2\n  swap1\n  tag_28\n  jump\t// in\ntag_27:\n  mload(0x40)\n  dup1\n  swap2\n  sub\n  swap1\n  log3\n    /* \"contracts/CMMD.sol\":4204:4236  _mint(msg.sender, initialSupply) */\n  tag_29\n    /* \"contracts/CMMD.sol\":4210:4220  msg.sender */\n  caller\n    /* \"contracts/CMMD.sol\":4222:4235  initialSupply */\n  dup3\n    /* \"contracts/CMMD.sol\":4204:4209  _mint */\n  shl(0x20, tag_30)\n    /* \"contracts/CMMD.sol\":4204:4236  _mint(msg.sender, initialSupply) */\n  0x20\n  shr\n  jump\t// in\ntag_29:\n    /* \"contracts/CMMD.sol\":3839:4243  constructor(uint256 initialSupply) ERC20(\"CentralMMD\", \"CMMD\") {... */\n  pop\n    /* \"contracts/CMMD.sol\":171:11364  contract CMMD is ERC20 {... */\n  jump(tag_31)\n    /* \"@openzeppelin/contracts/token/ERC20/ERC20.sol\":8567:9102  function _mint(address account, uint256 amount) internal virtual {... */\ntag_30:\n    /* \"@openzeppelin/contracts/token/ERC20/ERC20.sol\":8669:8670  0 */\n  0x00\n    /* \"@openzeppelin/contracts/token/ERC20/ERC20.sol\":8650:8671  account != address(0) */\n  0xffffffffffffffffffffffffffffffffffffffff\n  and\n    /* \"@openzeppelin/contracts/token/ERC20/ERC20.sol\":8650:8657  account */\n  dup3\n    /* \"@openzeppelin/contracts/token/ERC20/ERC20.sol\":8650:8671  account != address(0) */\n  0xffffffffffffffffffffffffffffffffffffffff\n  and\n  eq\n  iszero\n    /* \"@openzeppelin/contracts/token/ERC20/ERC20.sol\":8642:8707  require(account != address(0), \"ERC20: mint to the zero address\") */\n  tag_33\n  jumpi\n  mload(0x40)\n  0x08c379a000000000000000000000000000000000000000000000000000000000\n  dup2\n  mstore\n  0x04\n  add\n  tag_34\n  swap1\n  tag_35\n  jump\t// in\ntag_34:\n  mload(0x40)\n  dup1\n  swap2\n  sub\n  swap1\n  revert\ntag_33:\n    /* \"@openzeppelin/contracts/token/ERC20/ERC20.sol\":8718:8767  _beforeTokenTransfer(address(0), account, amount) */\n  tag_36\n    /* \"@openzeppelin/contracts/token/ERC20/ERC20.sol\":8747:8748  0 */\n  0x00\n    /* \"@openzeppelin/contracts/token/ERC20/ERC20.sol\":8751:8758  account */\n  dup4\n    /* \"@openzeppelin/contracts/token/ERC20/ERC20.sol\":8760:8766  amount */\n  dup4\n    /* \"@openzeppelin/contracts/token/ERC20/ERC20.sol\":8718:8738  _beforeTokenTransfer */\n  shl(0x20, tag_37)\n    /* \"@openzeppelin/contracts/token/ERC20/ERC20.sol\":8718:8767  _beforeTokenTransfer(address(0), account, amount) */\n  0x20\n  shr\n  jump\t// in\ntag_36:\n    /* \"@openzeppelin/contracts/token/ERC20/ERC20.sol\":8794:8800  amount */\n  dup1\n    /* \"@openzeppelin/contracts/token/ERC20/ERC20.sol\":8778:8790  _totalSupply */\n  0x02\n  0x00\n    /* \"@openzeppelin/contracts/token/ERC20/ERC20.sol\":8778:8800  _totalSupply += amount */\n  dup3\n  dup3\n  sload\n  tag_38\n  swap2\n  swap1\n  tag_39\n  jump\t// in\ntag_38:\n  swap3\n  pop\n  pop\n  dup2\n  swap1\n  sstore\n  pop\n    /* \"@openzeppelin/contracts/token/ERC20/ERC20.sol\":8968:8974  amount */\n  dup1\n    /* \"@openzeppelin/contracts/token/ERC20/ERC20.sol\":8946:8955  _balances */\n  0x00\n    /* \"@openzeppelin/contracts/token/ERC20/ERC20.sol\":8946:8964  _balances[account] */\n  dup1\n    /* \"@openzeppelin/contracts/token/ERC20/ERC20.sol\":8956:8963  account */\n  dup5\n    /* \"@openzeppelin/contracts/token/ERC20/ERC20.sol\":8946:8964  _balances[account] */\n  0xffffffffffffffffffffffffffffffffffffffff\n  and\n  0xffffffffffffffffffffffffffffffffffffffff\n  and\n  dup2\n  mstore\n  0x20\n  add\n  swap1\n  dup2\n  mstore\n  0x20\n  add\n  0x00\n  keccak256\n  0x00\n    /* \"@openzeppelin/contracts/token/ERC20/ERC20.sol\":8946:8974  _balances[account] += amount */\n  dup3\n  dup3\n  sload\n  add\n  swap3\n  pop\n  pop\n  dup2\n  swap1\n  sstore\n  pop\n    /* \"@openzeppelin/contracts/token/ERC20/ERC20.sol\":9020:9027  account */\n  dup2\n    /* \"@openzeppelin/contracts/token/ERC20/ERC20.sol\":8999:9036  Transfer(address(0), account, amount) */\n  0xffffffffffffffffffffffffffffffffffffffff\n  and\n    /* \"@openzeppelin/contracts/token/ERC20/ERC20.sol\":9016:9017  0 */\n  0x00\n    /* \"@openzeppelin/contracts/token/ERC20/ERC20.sol\":8999:9036  Transfer(address(0), account, amount) */\n  0xffffffffffffffffffffffffffffffffffffffff\n  and\n  0xddf252ad1be2c89b69c2b068fc378daa952ba7f163c4a11628f55a4df523b3ef\n    /* \"@openzeppelin/contracts/token/ERC20/ERC20.sol\":9029:9035  amount */\n  dup4\n    /* \"@openzeppelin/contracts/token/ERC20/ERC20.sol\":8999:9036  Transfer(address(0), account, amount) */\n  mload(0x40)\n  tag_40\n  swap2\n  swap1\n  tag_28\n  jump\t// in\ntag_40:\n  mload(0x40)\n  dup1\n  swap2\n  sub\n  swap1\n  log3\n    /* \"@openzeppelin/contracts/token/ERC20/ERC20.sol\":9047:9095  _afterTokenTransfer(address(0), account, amount) */\n  tag_41\n    /* \"@openzeppelin/contracts/token/ERC20/ERC20.sol\":9075:9076  0 */\n  0x00\n    /* \"@openzeppelin/contracts/token/ERC20/ERC20.sol\":9079:9086  account */\n  dup4\n    /* \"@openzeppelin/contracts/token/ERC20/ERC20.sol\":9088:9094  amount */\n  dup4\n    /* \"@openzeppelin/contracts/token/ERC20/ERC20.sol\":9047:9066  _afterTokenTransfer */\n  shl(0x20, tag_42)\n    /* \"@openzeppelin/contracts/token/ERC20/ERC20.sol\":9047:9095  _afterTokenTransfer(address(0), account, amount) */\n  0x20\n  shr\n  jump\t// in\ntag_41:\n    /* \"@openzeppelin/contracts/token/ERC20/ERC20.sol\":8567:9102  function _mint(address account, uint256 amount) internal virtual {... */\n  pop\n  pop\n  jump\t// out\n    /* \"@openzeppelin/contracts/token/ERC20/ERC20.sol\":12180:12301  function _beforeTokenTransfer(... */\ntag_37:\n  pop\n  pop\n  pop\n  jump\t// out\n    /* \"@openzeppelin/contracts/token/ERC20/ERC20.sol\":12889:13009  function _afterTokenTransfer(... */\ntag_42:\n  pop\n  pop\n  pop\n  jump\t// out\n    /* \"contracts/CMMD.sol\":171:11364  contract CMMD is ERC20 {... */\ntag_8:\n  dup3\n  dup1\n  sload\n  tag_45\n  swap1\n  tag_46\n  jump\t// in\ntag_45:\n  swap1\n  0x00\n  mstore\n  keccak256(0x00, 0x20)\n  swap1\n  0x1f\n  add\n  0x20\n  swap1\n  div\n  dup2\n  add\n  swap3\n  dup3\n  tag_48\n  jumpi\n  0x00\n  dup6\n  sstore\n  jump(tag_47)\ntag_48:\n  dup3\n  0x1f\n  lt\n  tag_49\n  jumpi\n  dup1\n  mload\n  not(0xff)\n  and\n  dup4\n  dup1\n  add\n  or\n  dup6\n  sstore\n  jump(tag_47)\ntag_49:\n  dup3\n  dup1\n  add\n  0x01\n  add\n  dup6\n  sstore\n  dup3\n  iszero\n  tag_47\n  jumpi\n  swap2\n  dup3\n  add\ntag_50:\n  dup3\n  dup2\n  gt\n  iszero\n  tag_51\n  jumpi\n  dup3\n  mload\n  dup3\n  sstore\n  swap2\n  0x20\n  add\n  swap2\n  swap1\n  0x01\n  add\n  swap1\n  jump(tag_50)\ntag_51:\ntag_47:\n  pop\n  swap1\n  pop\n  tag_52\n  swap2\n  swap1\n  tag_53\n  jump\t// in\ntag_52:\n  pop\n  swap1\n  jump\t// out\ntag_53:\ntag_54:\n  dup1\n  dup3\n  gt\n  iszero\n  tag_55\n  jumpi\n  0x00\n  dup2\n  0x00\n  swap1\n  sstore\n  pop\n  0x01\n  add\n  jump(tag_54)\ntag_55:\n  pop\n  swap1\n  jump\t// out\n    /* \"#utility.yul\":7:150   */\ntag_57:\n    /* \"#utility.yul\":64:69   */\n  0x00\n    /* \"#utility.yul\":95:101   */\n  dup2\n    /* \"#utility.yul\":89:102   */\n  mload\n    /* \"#utility.yul\":80:102   */\n  swap1\n  pop\n    /* \"#utility.yul\":111:144   */\n  tag_59\n    /* \"#utility.yul\":138:143   */\n  dup2\n    /* \"#utility.yul\":111:144   */\n  tag_60\n  jump\t// in\ntag_59:\n    /* \"#utility.yul\":7:150   */\n  swap3\n  swap2\n  pop\n  pop\n  jump\t// out\n    /* \"#utility.yul\":156:507   */\ntag_3:\n    /* \"#utility.yul\":226:232   */\n  0x00\n    /* \"#utility.yul\":275:277   */\n  0x20\n    /* \"#utility.yul\":263:272   */\n  dup3\n    /* \"#utility.yul\":254:261   */\n  dup5\n    /* \"#utility.yul\":250:273   */\n  sub\n    /* \"#utility.yul\":246:278   */\n  slt\n    /* \"#utility.yul\":243:362   */\n  iszero\n  tag_62\n  jumpi\n    /* \"#utility.yul\":281:360   */\n  tag_63\n  tag_64\n  jump\t// in\ntag_63:\n    /* \"#utility.yul\":243:362   */\ntag_62:\n    /* \"#utility.yul\":401:402   */\n  0x00\n    /* \"#utility.yul\":426:490   */\n  tag_65\n    /* \"#utility.yul\":482:489   */\n  dup5\n    /* \"#utility.yul\":473:479   */\n  dup3\n    /* \"#utility.yul\":462:471   */\n  dup6\n    /* \"#utility.yul\":458:480   */\n  add\n    /* \"#utility.yul\":426:490   */\n  tag_57\n  jump\t// in\ntag_65:\n    /* \"#utility.yul\":416:490   */\n  swap2\n  pop\n    /* \"#utility.yul\":372:500   */\n  pop\n    /* \"#utility.yul\":156:507   */\n  swap3\n  swap2\n  pop\n  pop\n  jump\t// out\n    /* \"#utility.yul\":513:879   */\ntag_66:\n    /* \"#utility.yul\":655:658   */\n  0x00\n    /* \"#utility.yul\":676:743   */\n  tag_68\n    /* \"#utility.yul\":740:742   */\n  0x1f\n    /* \"#utility.yul\":735:738   */\n  dup4\n    /* \"#utility.yul\":676:743   */\n  tag_69\n  jump\t// in\ntag_68:\n    /* \"#utility.yul\":669:743   */\n  swap2\n  pop\n    /* \"#utility.yul\":752:845   */\n  tag_70\n    /* \"#utility.yul\":841:844   */\n  dup3\n    /* \"#utility.yul\":752:845   */\n  tag_71\n  jump\t// in\ntag_70:\n    /* \"#utility.yul\":870:872   */\n  0x20\n    /* \"#utility.yul\":865:868   */\n  dup3\n    /* \"#utility.yul\":861:873   */\n  add\n    /* \"#utility.yul\":854:873   */\n  swap1\n  pop\n    /* \"#utility.yul\":513:879   */\n  swap2\n  swap1\n  pop\n  jump\t// out\n    /* \"#utility.yul\":885:1003   */\ntag_72:\n    /* \"#utility.yul\":972:996   */\n  tag_74\n    /* \"#utility.yul\":990:995   */\n  dup2\n    /* \"#utility.yul\":972:996   */\n  tag_75\n  jump\t// in\ntag_74:\n    /* \"#utility.yul\":967:970   */\n  dup3\n    /* \"#utility.yul\":960:997   */\n  mstore\n    /* \"#utility.yul\":885:1003   */\n  pop\n  pop\n  jump\t// out\n    /* \"#utility.yul\":1009:1428   */\ntag_35:\n    /* \"#utility.yul\":1175:1179   */\n  0x00\n    /* \"#utility.yul\":1213:1215   */\n  0x20\n    /* \"#utility.yul\":1202:1211   */\n  dup3\n    /* \"#utility.yul\":1198:1216   */\n  add\n    /* \"#utility.yul\":1190:1216   */\n  swap1\n  pop\n    /* \"#utility.yul\":1262:1271   */\n  dup2\n    /* \"#utility.yul\":1256:1260   */\n  dup2\n    /* \"#utility.yul\":1252:1272   */\n  sub\n    /* \"#utility.yul\":1248:1249   */\n  0x00\n    /* \"#utility.yul\":1237:1246   */\n  dup4\n    /* \"#utility.yul\":1233:1250   */\n  add\n    /* \"#utility.yul\":1226:1273   */\n  mstore\n    /* \"#utility.yul\":1290:1421   */\n  tag_77\n    /* \"#utility.yul\":1416:1420   */\n  dup2\n    /* \"#utility.yul\":1290:1421   */\n  tag_66\n  jump\t// in\ntag_77:\n    /* \"#utility.yul\":1282:1421   */\n  swap1\n  pop\n    /* \"#utility.yul\":1009:1428   */\n  swap2\n  swap1\n  pop\n  jump\t// out\n    /* \"#utility.yul\":1434:1656   */\ntag_28:\n    /* \"#utility.yul\":1527:1531   */\n  0x00\n    /* \"#utility.yul\":1565:1567   */\n  0x20\n    /* \"#utility.yul\":1554:1563   */\n  dup3\n    /* \"#utility.yul\":1550:1568   */\n  add\n    /* \"#utility.yul\":1542:1568   */\n  swap1\n  pop\n    /* \"#utility.yul\":1578:1649   */\n  tag_79\n    /* \"#utility.yul\":1646:1647   */\n  0x00\n    /* \"#utility.yul\":1635:1644   */\n  dup4\n    /* \"#utility.yul\":1631:1648   */\n  add\n    /* \"#utility.yul\":1622:1628   */\n  dup5\n    /* \"#utility.yul\":1578:1649   */\n  tag_72\n  jump\t// in\ntag_79:\n    /* \"#utility.yul\":1434:1656   */\n  swap3\n  swap2\n  pop\n  pop\n  jump\t// out\n    /* \"#utility.yul\":1743:1912   */\ntag_69:\n    /* \"#utility.yul\":1827:1838   */\n  0x00\n    /* \"#utility.yul\":1861:1867   */\n  dup3\n    /* \"#utility.yul\":1856:1859   */\n  dup3\n    /* \"#utility.yul\":1849:1868   */\n  mstore\n    /* \"#utility.yul\":1901:1905   */\n  0x20\n    /* \"#utility.yul\":1896:1899   */\n  dup3\n    /* \"#utility.yul\":1892:1906   */\n  add\n    /* \"#utility.yul\":1877:1906   */\n  swap1\n  pop\n    /* \"#utility.yul\":1743:1912   */\n  swap3\n  swap2\n  pop\n  pop\n  jump\t// out\n    /* \"#utility.yul\":1918:2223   */\ntag_39:\n    /* \"#utility.yul\":1958:1961   */\n  0x00\n    /* \"#utility.yul\":1977:1997   */\n  tag_84\n    /* \"#utility.yul\":1995:1996   */\n  dup3\n    /* \"#utility.yul\":1977:1997   */\n  tag_75\n  jump\t// in\ntag_84:\n    /* \"#utility.yul\":1972:1997   */\n  swap2\n  pop\n    /* \"#utility.yul\":2011:2031   */\n  tag_85\n    /* \"#utility.yul\":2029:2030   */\n  dup4\n    /* \"#utility.yul\":2011:2031   */\n  tag_75\n  jump\t// in\ntag_85:\n    /* \"#utility.yul\":2006:2031   */\n  swap3\n  pop\n    /* \"#utility.yul\":2165:2166   */\n  dup3\n    /* \"#utility.yul\":2097:2163   */\n  0xffffffffffffffffffffffffffffffffffffffffffffffffffffffffffffffff\n    /* \"#utility.yul\":2093:2167   */\n  sub\n    /* \"#utility.yul\":2090:2091   */\n  dup3\n    /* \"#utility.yul\":2087:2168   */\n  gt\n    /* \"#utility.yul\":2084:2191   */\n  iszero\n  tag_86\n  jumpi\n    /* \"#utility.yul\":2171:2189   */\n  tag_87\n  tag_88\n  jump\t// in\ntag_87:\n    /* \"#utility.yul\":2084:2191   */\ntag_86:\n    /* \"#utility.yul\":2215:2216   */\n  dup3\n    /* \"#utility.yul\":2212:2213   */\n  dup3\n    /* \"#utility.yul\":2208:2217   */\n  add\n    /* \"#utility.yul\":2201:2217   */\n  swap1\n  pop\n    /* \"#utility.yul\":1918:2223   */\n  swap3\n  swap2\n  pop\n  pop\n  jump\t// out\n    /* \"#utility.yul\":2229:2414   */\ntag_26:\n    /* \"#utility.yul\":2269:2270   */\n  0x00\n    /* \"#utility.yul\":2286:2306   */\n  tag_90\n    /* \"#utility.yul\":2304:2305   */\n  dup3\n    /* \"#utility.yul\":2286:2306   */\n  tag_75\n  jump\t// in\ntag_90:\n    /* \"#utility.yul\":2281:2306   */\n  swap2\n  pop\n    /* \"#utility.yul\":2320:2340   */\n  tag_91\n    /* \"#utility.yul\":2338:2339   */\n  dup4\n    /* \"#utility.yul\":2320:2340   */\n  tag_75\n  jump\t// in\ntag_91:\n    /* \"#utility.yul\":2315:2340   */\n  swap3\n  pop\n    /* \"#utility.yul\":2359:2360   */\n  dup3\n    /* \"#utility.yul\":2349:2384   */\n  tag_92\n  jumpi\n    /* \"#utility.yul\":2364:2382   */\n  tag_93\n  tag_94\n  jump\t// in\ntag_93:\n    /* \"#utility.yul\":2349:2384   */\ntag_92:\n    /* \"#utility.yul\":2406:2407   */\n  dup3\n    /* \"#utility.yul\":2403:2404   */\n  dup3\n    /* \"#utility.yul\":2399:2408   */\n  div\n    /* \"#utility.yul\":2394:2408   */\n  swap1\n  pop\n    /* \"#utility.yul\":2229:2414   */\n  swap3\n  swap2\n  pop\n  pop\n  jump\t// out\n    /* \"#utility.yul\":2420:3268   */\ntag_95:\n    /* \"#utility.yul\":2481:2486   */\n  0x00\n    /* \"#utility.yul\":2488:2492   */\n  dup1\n    /* \"#utility.yul\":2512:2518   */\n  dup3\n    /* \"#utility.yul\":2503:2518   */\n  swap2\n  pop\n    /* \"#utility.yul\":2536:2541   */\n  dup4\n    /* \"#utility.yul\":2527:2541   */\n  swap1\n  pop\n    /* \"#utility.yul\":2550:3262   */\ntag_97:\n    /* \"#utility.yul\":2571:2572   */\n  0x01\n    /* \"#utility.yul\":2561:2569   */\n  dup6\n    /* \"#utility.yul\":2558:2573   */\n  gt\n    /* \"#utility.yul\":2550:3262   */\n  iszero\n  tag_99\n  jumpi\n    /* \"#utility.yul\":2666:2670   */\n  dup1\n    /* \"#utility.yul\":2661:2664   */\n  dup7\n    /* \"#utility.yul\":2657:2671   */\n  div\n    /* \"#utility.yul\":2651:2655   */\n  dup2\n    /* \"#utility.yul\":2648:2672   */\n  gt\n    /* \"#utility.yul\":2645:2695   */\n  iszero\n  tag_100\n  jumpi\n    /* \"#utility.yul\":2675:2693   */\n  tag_101\n  tag_88\n  jump\t// in\ntag_101:\n    /* \"#utility.yul\":2645:2695   */\ntag_100:\n    /* \"#utility.yul\":2725:2726   */\n  0x01\n    /* \"#utility.yul\":2715:2723   */\n  dup6\n    /* \"#utility.yul\":2711:2727   */\n  and\n    /* \"#utility.yul\":2708:3159   */\n  iszero\n  tag_102\n  jumpi\n    /* \"#utility.yul\":3140:3144   */\n  dup1\n    /* \"#utility.yul\":3133:3138   */\n  dup3\n    /* \"#utility.yul\":3129:3145   */\n  mul\n    /* \"#utility.yul\":3120:3145   */\n  swap2\n  pop\n    /* \"#utility.yul\":2708:3159   */\ntag_102:\n    /* \"#utility.yul\":3190:3194   */\n  dup1\n    /* \"#utility.yul\":3184:3188   */\n  dup2\n    /* \"#utility.yul\":3180:3195   */\n  mul\n    /* \"#utility.yul\":3172:3195   */\n  swap1\n  pop\n    /* \"#utility.yul\":3220:3252   */\n  tag_103\n    /* \"#utility.yul\":3243:3251   */\n  dup6\n    /* \"#utility.yul\":3220:3252   */\n  tag_104\n  jump\t// in\ntag_103:\n    /* \"#utility.yul\":3208:3252   */\n  swap5\n  pop\n    /* \"#utility.yul\":2550:3262   */\n  jump(tag_97)\ntag_99:\n    /* \"#utility.yul\":2420:3268   */\n  swap5\n  pop\n  swap5\n  swap3\n  pop\n  pop\n  pop\n  jump\t// out\n    /* \"#utility.yul\":3274:3559   */\ntag_12:\n    /* \"#utility.yul\":3334:3339   */\n  0x00\n    /* \"#utility.yul\":3358:3381   */\n  tag_106\n    /* \"#utility.yul\":3376:3380   */\n  dup3\n    /* \"#utility.yul\":3358:3381   */\n  tag_75\n  jump\t// in\ntag_106:\n    /* \"#utility.yul\":3350:3381   */\n  swap2\n  pop\n    /* \"#utility.yul\":3402:3429   */\n  tag_107\n    /* \"#utility.yul\":3420:3428   */\n  dup4\n    /* \"#utility.yul\":3402:3429   */\n  tag_75\n  jump\t// in\ntag_107:\n    /* \"#utility.yul\":3390:3429   */\n  swap3\n  pop\n    /* \"#utility.yul\":3448:3552   */\n  tag_108\n    /* \"#utility.yul\":3485:3551   */\n  0xffffffffffffffffffffffffffffffffffffffffffffffffffffffffffffffff\n    /* \"#utility.yul\":3475:3483   */\n  dup5\n    /* \"#utility.yul\":3469:3473   */\n  dup5\n    /* \"#utility.yul\":3448:3552   */\n  tag_109\n  jump\t// in\ntag_108:\n    /* \"#utility.yul\":3439:3552   */\n  swap1\n  pop\n    /* \"#utility.yul\":3274:3559   */\n  swap3\n  swap2\n  pop\n  pop\n  jump\t// out\n    /* \"#utility.yul\":3565:4638   */\ntag_109:\n    /* \"#utility.yul\":3619:3624   */\n  0x00\n    /* \"#utility.yul\":3810:3818   */\n  dup3\n    /* \"#utility.yul\":3800:3840   */\n  tag_111\n  jumpi\n    /* \"#utility.yul\":3831:3832   */\n  0x01\n    /* \"#utility.yul\":3822:3832   */\n  swap1\n  pop\n    /* \"#utility.yul\":3833:3838   */\n  jump(tag_110)\n    /* \"#utility.yul\":3800:3840   */\ntag_111:\n    /* \"#utility.yul\":3859:3863   */\n  dup2\n    /* \"#utility.yul\":3849:3885   */\n  tag_112\n  jumpi\n    /* \"#utility.yul\":3876:3877   */\n  0x00\n    /* \"#utility.yul\":3867:3877   */\n  swap1\n  pop\n    /* \"#utility.yul\":3878:3883   */\n  jump(tag_110)\n    /* \"#utility.yul\":3849:3885   */\ntag_112:\n    /* \"#utility.yul\":3945:3949   */\n  dup2\n    /* \"#utility.yul\":3993:3994   */\n  0x01\n    /* \"#utility.yul\":3988:4015   */\n  dup2\n  eq\n  tag_114\n  jumpi\n    /* \"#utility.yul\":4029:4030   */\n  0x02\n    /* \"#utility.yul\":4024:4215   */\n  dup2\n  eq\n  tag_115\n  jumpi\n    /* \"#utility.yul\":3938:4215   */\n  jump(tag_113)\n    /* \"#utility.yul\":3988:4015   */\ntag_114:\n    /* \"#utility.yul\":4006:4007   */\n  0x01\n    /* \"#utility.yul\":3997:4007   */\n  swap2\n  pop\n    /* \"#utility.yul\":4008:4013   */\n  pop\n  jump(tag_110)\n    /* \"#utility.yul\":4024:4215   */\ntag_115:\n    /* \"#utility.yul\":4069:4072   */\n  0xff\n    /* \"#utility.yul\":4059:4067   */\n  dup5\n    /* \"#utility.yul\":4056:4073   */\n  gt\n    /* \"#utility.yul\":4053:4096   */\n  iszero\n  tag_116\n  jumpi\n    /* \"#utility.yul\":4076:4094   */\n  tag_117\n  tag_88\n  jump\t// in\ntag_117:\n    /* \"#utility.yul\":4053:4096   */\ntag_116:\n    /* \"#utility.yul\":4125:4133   */\n  dup4\n    /* \"#utility.yul\":4122:4123   */\n  0x02\n    /* \"#utility.yul\":4118:4134   */\n  exp\n    /* \"#utility.yul\":4109:4134   */\n  swap2\n  pop\n    /* \"#utility.yul\":4160:4163   */\n  dup5\n    /* \"#utility.yul\":4153:4158   */\n  dup3\n    /* \"#utility.yul\":4150:4164   */\n  gt\n    /* \"#utility.yul\":4147:4187   */\n  iszero\n  tag_118\n  jumpi\n    /* \"#utility.yul\":4167:4185   */\n  tag_119\n  tag_88\n  jump\t// in\ntag_119:\n    /* \"#utility.yul\":4147:4187   */\ntag_118:\n    /* \"#utility.yul\":4200:4205   */\n  pop\n  jump(tag_110)\n    /* \"#utility.yul\":3938:4215   */\ntag_113:\n  pop\n    /* \"#utility.yul\":4324:4326   */\n  0x20\n    /* \"#utility.yul\":4314:4322   */\n  dup4\n    /* \"#utility.yul\":4311:4327   */\n  lt\n    /* \"#utility.yul\":4305:4308   */\n  0x0133\n    /* \"#utility.yul\":4299:4303   */\n  dup4\n    /* \"#utility.yul\":4296:4309   */\n  lt\n    /* \"#utility.yul\":4292:4328   */\n  and\n    /* \"#utility.yul\":4274:4276   */\n  0x4e\n    /* \"#utility.yul\":4264:4272   */\n  dup5\n    /* \"#utility.yul\":4261:4277   */\n  lt\n    /* \"#utility.yul\":4256:4258   */\n  0x0b\n    /* \"#utility.yul\":4250:4254   */\n  dup5\n    /* \"#utility.yul\":4247:4259   */\n  lt\n    /* \"#utility.yul\":4243:4278   */\n  and\n    /* \"#utility.yul\":4227:4338   */\n  or\n    /* \"#utility.yul\":4224:4470   */\n  iszero\n  tag_120\n  jumpi\n    /* \"#utility.yul\":4380:4388   */\n  dup3\n    /* \"#utility.yul\":4374:4378   */\n  dup3\n    /* \"#utility.yul\":4370:4389   */\n  exp\n    /* \"#utility.yul\":4361:4389   */\n  swap1\n  pop\n    /* \"#utility.yul\":4415:4418   */\n  dup4\n    /* \"#utility.yul\":4408:4413   */\n  dup2\n    /* \"#utility.yul\":4405:4419   */\n  gt\n    /* \"#utility.yul\":4402:4442   */\n  iszero\n  tag_121\n  jumpi\n    /* \"#utility.yul\":4422:4440   */\n  tag_122\n  tag_88\n  jump\t// in\ntag_122:\n    /* \"#utility.yul\":4402:4442   */\ntag_121:\n    /* \"#utility.yul\":4455:4460   */\n  jump(tag_110)\n    /* \"#utility.yul\":4224:4470   */\ntag_120:\n    /* \"#utility.yul\":4495:4537   */\n  tag_123\n    /* \"#utility.yul\":4533:4536   */\n  dup5\n    /* \"#utility.yul\":4523:4531   */\n  dup5\n    /* \"#utility.yul\":4517:4521   */\n  dup5\n    /* \"#utility.yul\":4514:4515   */\n  0x01\n    /* \"#utility.yul\":4495:4537   */\n  tag_95\n  jump\t// in\ntag_123:\n    /* \"#utility.yul\":4480:4537   */\n  swap3\n  pop\n  swap1\n  pop\n    /* \"#utility.yul\":4569:4573   */\n  dup2\n    /* \"#utility.yul\":4564:4567   */\n  dup5\n    /* \"#utility.yul\":4560:4574   */\n  div\n    /* \"#utility.yul\":4553:4558   */\n  dup2\n    /* \"#utility.yul\":4550:4575   */\n  gt\n    /* \"#utility.yul\":4547:4598   */\n  iszero\n  tag_124\n  jumpi\n    /* \"#utility.yul\":4578:4596   */\n  tag_125\n  tag_88\n  jump\t// in\ntag_125:\n    /* \"#utility.yul\":4547:4598   */\ntag_124:\n    /* \"#utility.yul\":4627:4631   */\n  dup2\n    /* \"#utility.yul\":4620:4625   */\n  dup2\n    /* \"#utility.yul\":4616:4632   */\n  mul\n    /* \"#utility.yul\":4607:4632   */\n  swap1\n  pop\n    /* \"#utility.yul\":3565:4638   */\ntag_110:\n  swap4\n  swap3\n  pop\n  pop\n  pop\n  jump\t// out\n    /* \"#utility.yul\":4644:4992   */\ntag_14:\n    /* \"#utility.yul\":4684:4691   */\n  0x00\n    /* \"#utility.yul\":4707:4727   */\n  tag_127\n    /* \"#utility.yul\":4725:4726   */\n  dup3\n    /* \"#utility.yul\":4707:4727   */\n  tag_75\n  jump\t// in\ntag_127:\n    /* \"#utility.yul\":4702:4727   */\n  swap2\n  pop\n    /* \"#utility.yul\":4741:4761   */\n  tag_128\n    /* \"#utility.yul\":4759:4760   */\n  dup4\n    /* \"#utility.yul\":4741:4761   */\n  tag_75\n  jump\t// in\ntag_128:\n    /* \"#utility.yul\":4736:4761   */\n  swap3\n  pop\n    /* \"#utility.yul\":4929:4930   */\n  dup2\n    /* \"#utility.yul\":4861:4927   */\n  0xffffffffffffffffffffffffffffffffffffffffffffffffffffffffffffffff\n    /* \"#utility.yul\":4857:4931   */\n  div\n    /* \"#utility.yul\":4854:4855   */\n  dup4\n    /* \"#utility.yul\":4851:4932   */\n  gt\n    /* \"#utility.yul\":4846:4847   */\n  dup3\n    /* \"#utility.yul\":4839:4848   */\n  iszero\n    /* \"#utility.yul\":4832:4849   */\n  iszero\n    /* \"#utility.yul\":4828:4933   */\n  and\n    /* \"#utility.yul\":4825:4956   */\n  iszero\n  tag_129\n  jumpi\n    /* \"#utility.yul\":4936:4954   */\n  tag_130\n  tag_88\n  jump\t// in\ntag_130:\n    /* \"#utility.yul\":4825:4956   */\ntag_129:\n    /* \"#utility.yul\":4984:4985   */\n  dup3\n    /* \"#utility.yul\":4981:4982   */\n  dup3\n    /* \"#utility.yul\":4977:4986   */\n  mul\n    /* \"#utility.yul\":4966:4986   */\n  swap1\n  pop\n    /* \"#utility.yul\":4644:4992   */\n  swap3\n  swap2\n  pop\n  pop\n  jump\t// out\n    /* \"#utility.yul\":4998:5189   */\ntag_20:\n    /* \"#utility.yul\":5038:5042   */\n  0x00\n    /* \"#utility.yul\":5058:5078   */\n  tag_132\n    /* \"#utility.yul\":5076:5077   */\n  dup3\n    /* \"#utility.yul\":5058:5078   */\n  tag_75\n  jump\t// in\ntag_132:\n    /* \"#utility.yul\":5053:5078   */\n  swap2\n  pop\n    /* \"#utility.yul\":5092:5112   */\n  tag_133\n    /* \"#utility.yul\":5110:5111   */\n  dup4\n    /* \"#utility.yul\":5092:5112   */\n  tag_75\n  jump\t// in\ntag_133:\n    /* \"#utility.yul\":5087:5112   */\n  swap3\n  pop\n    /* \"#utility.yul\":5131:5132   */\n  dup3\n    /* \"#utility.yul\":5128:5129   */\n  dup3\n    /* \"#utility.yul\":5125:5133   */\n  lt\n    /* \"#utility.yul\":5122:5156   */\n  iszero\n  tag_134\n  jumpi\n    /* \"#utility.yul\":5136:5154   */\n  tag_135\n  tag_88\n  jump\t// in\ntag_135:\n    /* \"#utility.yul\":5122:5156   */\ntag_134:\n    /* \"#utility.yul\":5181:5182   */\n  dup3\n    /* \"#utility.yul\":5178:5179   */\n  dup3\n    /* \"#utility.yul\":5174:5183   */\n  sub\n    /* \"#utility.yul\":5166:5183   */\n  swap1\n  pop\n    /* \"#utility.yul\":4998:5189   */\n  swap3\n  swap2\n  pop\n  pop\n  jump\t// out\n    /* \"#utility.yul\":5195:5272   */\ntag_75:\n    /* \"#utility.yul\":5232:5239   */\n  0x00\n    /* \"#utility.yul\":5261:5266   */\n  dup2\n    /* \"#utility.yul\":5250:5266   */\n  swap1\n  pop\n    /* \"#utility.yul\":5195:5272   */\n  swap2\n  swap1\n  pop\n  jump\t// out\n    /* \"#utility.yul\":5278:5598   */\ntag_46:\n    /* \"#utility.yul\":5322:5328   */\n  0x00\n    /* \"#utility.yul\":5359:5360   */\n  0x02\n    /* \"#utility.yul\":5353:5357   */\n  dup3\n    /* \"#utility.yul\":5349:5361   */\n  div\n    /* \"#utility.yul\":5339:5361   */\n  swap1\n  pop\n    /* \"#utility.yul\":5406:5407   */\n  0x01\n    /* \"#utility.yul\":5400:5404   */\n  dup3\n    /* \"#utility.yul\":5396:5408   */\n  and\n    /* \"#utility.yul\":5427:5445   */\n  dup1\n    /* \"#utility.yul\":5417:5498   */\n  tag_138\n  jumpi\n    /* \"#utility.yul\":5483:5487   */\n  0x7f\n    /* \"#utility.yul\":5475:5481   */\n  dup3\n    /* \"#utility.yul\":5471:5488   */\n  and\n    /* \"#utility.yul\":5461:5488   */\n  swap2\n  pop\n    /* \"#utility.yul\":5417:5498   */\ntag_138:\n    /* \"#utility.yul\":5545:5547   */\n  0x20\n    /* \"#utility.yul\":5537:5543   */\n  dup3\n    /* \"#utility.yul\":5534:5548   */\n  lt\n    /* \"#utility.yul\":5514:5532   */\n  dup2\n    /* \"#utility.yul\":5511:5549   */\n  eq\n    /* \"#utility.yul\":5508:5592   */\n  iszero\n  tag_139\n  jumpi\n    /* \"#utility.yul\":5564:5582   */\n  tag_140\n  tag_141\n  jump\t// in\ntag_140:\n    /* \"#utility.yul\":5508:5592   */\ntag_139:\n    /* \"#utility.yul\":5329:5598   */\n  pop\n    /* \"#utility.yul\":5278:5598   */\n  swap2\n  swap1\n  pop\n  jump\t// out\n    /* \"#utility.yul\":5604:5780   */\ntag_18:\n    /* \"#utility.yul\":5636:5637   */\n  0x00\n    /* \"#utility.yul\":5653:5673   */\n  tag_143\n    /* \"#utility.yul\":5671:5672   */\n  dup3\n    /* \"#utility.yul\":5653:5673   */\n  tag_75\n  jump\t// in\ntag_143:\n    /* \"#utility.yul\":5648:5673   */\n  swap2\n  pop\n    /* \"#utility.yul\":5687:5707   */\n  tag_144\n    /* \"#utility.yul\":5705:5706   */\n  dup4\n    /* \"#utility.yul\":5687:5707   */\n  tag_75\n  jump\t// in\ntag_144:\n    /* \"#utility.yul\":5682:5707   */\n  swap3\n  pop\n    /* \"#utility.yul\":5726:5727   */\n  dup3\n    /* \"#utility.yul\":5716:5751   */\n  tag_145\n  jumpi\n    /* \"#utility.yul\":5731:5749   */\n  tag_146\n  tag_94\n  jump\t// in\ntag_146:\n    /* \"#utility.yul\":5716:5751   */\ntag_145:\n    /* \"#utility.yul\":5772:5773   */\n  dup3\n    /* \"#utility.yul\":5769:5770   */\n  dup3\n    /* \"#utility.yul\":5765:5774   */\n  mod\n    /* \"#utility.yul\":5760:5774   */\n  swap1\n  pop\n    /* \"#utility.yul\":5604:5780   */\n  swap3\n  swap2\n  pop\n  pop\n  jump\t// out\n    /* \"#utility.yul\":5786:5966   */\ntag_88:\n    /* \"#utility.yul\":5834:5911   */\n  0x4e487b7100000000000000000000000000000000000000000000000000000000\n    /* \"#utility.yul\":5831:5832   */\n  0x00\n    /* \"#utility.yul\":5824:5912   */\n  mstore\n    /* \"#utility.yul\":5931:5935   */\n  0x11\n    /* \"#utility.yul\":5928:5929   */\n  0x04\n    /* \"#utility.yul\":5921:5936   */\n  mstore\n    /* \"#utility.yul\":5955:5959   */\n  0x24\n    /* \"#utility.yul\":5952:5953   */\n  0x00\n    /* \"#utility.yul\":5945:5960   */\n  revert\n    /* \"#utility.yul\":5972:6152   */\ntag_94:\n    /* \"#utility.yul\":6020:6097   */\n  0x4e487b7100000000000000000000000000000000000000000000000000000000\n    /* \"#utility.yul\":6017:6018   */\n  0x00\n    /* \"#utility.yul\":6010:6098   */\n  mstore\n    /* \"#utility.yul\":6117:6121   */\n  0x12\n    /* \"#utility.yul\":6114:6115   */\n  0x04\n    /* \"#utility.yul\":6107:6122   */\n  mstore\n    /* \"#utility.yul\":6141:6145   */\n  0x24\n    /* \"#utility.yul\":6138:6139   */\n  0x00\n    /* \"#utility.yul\":6131:6146   */\n  revert\n    /* \"#utility.yul\":6158:6338   */\ntag_141:\n    /* \"#utility.yul\":6206:6283   */\n  0x4e487b7100000000000000000000000000000000000000000000000000000000\n    /* \"#utility.yul\":6203:6204   */\n  0x00\n    /* \"#utility.yul\":6196:6284   */\n  mstore\n    /* \"#utility.yul\":6303:6307   */\n  0x22\n    /* \"#utility.yul\":6300:6301   */\n  0x04\n    /* \"#utility.yul\":6293:6308   */\n  mstore\n    /* \"#utility.yul\":6327:6331   */\n  0x24\n    /* \"#utility.yul\":6324:6325   */\n  0x00\n    /* \"#utility.yul\":6317:6332   */\n  revert\n    /* \"#utility.yul\":6467:6584   */\ntag_64:\n    /* \"#utility.yul\":6576:6577   */\n  0x00\n    /* \"#utility.yul\":6573:6574   */\n  dup1\n    /* \"#utility.yul\":6566:6578   */\n  revert\n    /* \"#utility.yul\":6590:6692   */\ntag_104:\n    /* \"#utility.yul\":6632:6640   */\n  0x00\n    /* \"#utility.yul\":6679:6684   */\n  dup2\n    /* \"#utility.yul\":6676:6677   */\n  0x01\n    /* \"#utility.yul\":6672:6685   */\n  shr\n    /* \"#utility.yul\":6651:6685   */\n  swap1\n  pop\n    /* \"#utility.yul\":6590:6692   */\n  swap2\n  swap1\n  pop\n  jump\t// out\n    /* \"#utility.yul\":6698:6879   */\ntag_71:\n    /* \"#utility.yul\":6838:6871   */\n  0x45524332303a206d696e7420746f20746865207a65726f206164647265737300\n    /* \"#utility.yul\":6834:6835   */\n  0x00\n    /* \"#utility.yul\":6826:6832   */\n  dup3\n    /* \"#utility.yul\":6822:6836   */\n  add\n    /* \"#utility.yul\":6815:6872   */\n  mstore\n    /* \"#utility.yul\":6698:6879   */\n  pop\n  jump\t// out\n    /* \"#utility.yul\":6885:7007   */\ntag_60:\n    /* \"#utility.yul\":6958:6982   */\n  tag_156\n    /* \"#utility.yul\":6976:6981   */\n  dup2\n    /* \"#utility.yul\":6958:6982   */\n  tag_75\n  jump\t// in\ntag_156:\n    /* \"#utility.yul\":6951:6956   */\n  dup2\n    /* \"#utility.yul\":6948:6983   */\n  eq\n    /* \"#utility.yul\":6938:7001   */\n  tag_157\n  jumpi\n    /* \"#utility.yul\":6997:6998   */\n  0x00\n    /* \"#utility.yul\":6994:6995   */\n  dup1\n    /* \"#utility.yul\":6987:6999   */\n  revert\n    /* \"#utility.yul\":6938:7001   */\ntag_157:\n    /* \"#utility.yul\":6885:7007   */\n  pop\n  jump\t// out\n    /* \"contracts/CMMD.sol\":171:11364  contract CMMD is ERC20 {... */\ntag_31:\n  dataSize(sub_0)\n  dup1\n  dataOffset(sub_0)\n  0x00\n  codecopy\n  0x00\n  return\nstop\n\nsub_0: assembly {\n        /* \"contracts/CMMD.sol\":171:11364  contract CMMD is ERC20 {... */\n      mstore(0x40, 0x80)\n      callvalue\n      dup1\n      iszero\n      tag_1\n      jumpi\n      0x00\n      dup1\n      revert\n    tag_1:\n      pop\n      jumpi(tag_2, lt(calldatasize, 0x04))\n      shr(0xe0, calldataload(0x00))\n      dup1\n      0x7a43e23f\n      gt\n      tag_26\n      jumpi\n      dup1\n      0xa457c2d7\n      gt\n      tag_27\n      jumpi\n      dup1\n      0xa457c2d7\n      eq\n      tag_20\n      jumpi\n      dup1\n      0xa9059cbb\n      eq\n      tag_21\n      jumpi\n      dup1\n      0xaf421564\n      eq\n      tag_22\n      jumpi\n      dup1\n      0xb1bf962d\n      eq\n      tag_23\n      jumpi\n      dup1\n      0xdd62ed3e\n      eq\n      tag_24\n      jumpi\n      dup1\n      0xe1b11da4\n      eq\n      tag_25\n      jumpi\n      jump(tag_2)\n    tag_27:\n      dup1\n      0x7a43e23f\n      eq\n      tag_14\n      jumpi\n      dup1\n      0x7ecebe00\n      eq\n      tag_15\n      jumpi\n      dup1\n      0x84d4b410\n      eq\n      tag_16\n      jumpi\n      dup1\n      0x8e27d7d7\n      eq\n      tag_17\n      jumpi\n      dup1\n      0x95d89b41\n      eq\n      tag_18\n      jumpi\n      dup1\n      0xa3a7e7f3\n      eq\n      tag_19\n      jumpi\n      jump(tag_2)\n    tag_26:\n      dup1\n      0x30adf81f\n      gt\n      tag_28\n      jumpi\n      dup1\n      0x30adf81f\n      eq\n      tag_8\n      jumpi\n      dup1\n      0x313ce567\n      eq\n      tag_9\n      jumpi\n      dup1\n      0x3644e515\n      eq\n      tag_10\n      jumpi\n      dup1\n      0x39509351\n      eq\n      tag_11\n      jumpi\n      dup1\n      0x70a08231\n      eq\n      tag_12\n      jumpi\n      dup1\n      0x78160376\n      eq\n      tag_13\n      jumpi\n      jump(tag_2)\n    tag_28:\n      dup1\n      0x06fdde03\n      eq\n      tag_3\n      jumpi\n      dup1\n      0x095ea7b3\n      eq\n      tag_4\n      jumpi\n      dup1\n      0x18160ddd\n      eq\n      tag_5\n      jumpi\n      dup1\n      0x1da24f3e\n      eq\n      tag_6\n      jumpi\n      dup1\n      0x23b872dd\n      eq\n      tag_7\n      jumpi\n    tag_2:\n      0x00\n      dup1\n      revert\n        /* \"@openzeppelin/contracts/token/ERC20/ERC20.sol\":2154:2252  function name() public view virtual override returns (string memory) {... */\n    tag_3:\n      tag_29\n      tag_30\n      jump\t// in\n    tag_29:\n      mload(0x40)\n      tag_31\n      swap2\n      swap1\n      tag_32\n      jump\t// in\n    tag_31:\n      mload(0x40)\n      dup1\n      swap2\n      sub\n      swap1\n      return\n        /* \"contracts/CMMD.sol\":9530:9754  function approve(address spender, uint256 value) public virtual override returns (bool) {... */\n    tag_4:\n      tag_33\n      0x04\n      dup1\n      calldatasize\n      sub\n      dup2\n      add\n      swap1\n      tag_34\n      swap2\n      swap1\n      tag_35\n      jump\t// in\n    tag_34:\n      tag_36\n      jump\t// in\n    tag_33:\n      mload(0x40)\n      tag_37\n      swap2\n      swap1\n      tag_38\n      jump\t// in\n    tag_37:\n      mload(0x40)\n      dup1\n      swap2\n      sub\n      swap1\n      return\n        /* \"contracts/CMMD.sol\":4311:4417  function totalSupply() public view virtual override returns (uint256) {... */\n    tag_5:\n      tag_39\n      tag_40\n      jump\t// in\n    tag_39:\n      mload(0x40)\n      tag_41\n      swap2\n      swap1\n      tag_42\n      jump\t// in\n    tag_41:\n      mload(0x40)\n      dup1\n      swap2\n      sub\n      swap1\n      return\n        /* \"contracts/CMMD.sol\":4788:4905  function scaledBalanceOf(address who) public view virtual returns (uint256) {... */\n    tag_6:\n      tag_43\n      0x04\n      dup1\n      calldatasize\n      sub\n      dup2\n      add\n      swap1\n      tag_44\n      swap2\n      swap1\n      tag_45\n      jump\t// in\n    tag_44:\n      tag_46\n      jump\t// in\n    tag_43:\n      mload(0x40)\n      tag_47\n      swap2\n      swap1\n      tag_42\n      jump\t// in\n    tag_47:\n      mload(0x40)\n      dup1\n      swap2\n      sub\n      swap1\n      return\n        /* \"contracts/CMMD.sol\":7771:8252  function transferFrom(... */\n    tag_7:\n      tag_48\n      0x04\n      dup1\n      calldatasize\n      sub\n      dup2\n      add\n      swap1\n      tag_49\n      swap2\n      swap1\n      tag_50\n      jump\t// in\n    tag_49:\n      tag_51\n      jump\t// in\n    tag_48:\n      mload(0x40)\n      tag_52\n      swap2\n      swap1\n      tag_38\n      jump\t// in\n    tag_52:\n      mload(0x40)\n      dup1\n      swap2\n      sub\n      swap1\n      return\n        /* \"contracts/CMMD.sol\":1733:1900  bytes32 public constant PERMIT_TYPEHASH =... */\n    tag_8:\n      tag_53\n      tag_54\n      jump\t// in\n    tag_53:\n      mload(0x40)\n      tag_55\n      swap2\n      swap1\n      tag_56\n      jump\t// in\n    tag_55:\n      mload(0x40)\n      dup1\n      swap2\n      sub\n      swap1\n      return\n        /* \"@openzeppelin/contracts/token/ERC20/ERC20.sol\":3091:3182  function decimals() public view virtual override returns (uint8) {... */\n    tag_9:\n      tag_57\n      tag_58\n      jump\t// in\n    tag_57:\n      mload(0x40)\n      tag_59\n      swap2\n      swap1\n      tag_60\n      jump\t// in\n    tag_59:\n      mload(0x40)\n      dup1\n      swap2\n      sub\n      swap1\n      return\n        /* \"contracts/CMMD.sol\":5446:5896  function DOMAIN_SEPARATOR() public view returns (bytes32) {... */\n    tag_10:\n      tag_61\n      tag_62\n      jump\t// in\n    tag_61:\n      mload(0x40)\n      tag_63\n      swap2\n      swap1\n      tag_56\n      jump\t// in\n    tag_63:\n      mload(0x40)\n      dup1\n      swap2\n      sub\n      swap1\n      return\n        /* \"contracts/CMMD.sol\":10118:10436  function increaseAllowance(address spender, uint256 addedValue) public virtual override returns (bool) {... */\n    tag_11:\n      tag_64\n      0x04\n      dup1\n      calldatasize\n      sub\n      dup2\n      add\n      swap1\n      tag_65\n      swap2\n      swap1\n      tag_35\n      jump\t// in\n    tag_65:\n      tag_66\n      jump\t// in\n    tag_64:\n      mload(0x40)\n      tag_67\n      swap2\n      swap1\n      tag_38\n      jump\t// in\n    tag_67:\n      mload(0x40)\n      dup1\n      swap2\n      sub\n      swap1\n      return\n        /* \"contracts/CMMD.sol\":4532:4669  function balanceOf(address who) public view virtual override returns (uint256) {... */\n    tag_12:\n      tag_68\n      0x04\n      dup1\n      calldatasize\n      sub\n      dup2\n      add\n      swap1\n      tag_69\n      swap2\n      swap1\n      tag_45\n      jump\t// in\n    tag_69:\n      tag_70\n      jump\t// in\n    tag_68:\n      mload(0x40)\n      tag_71\n      swap2\n      swap1\n      tag_42\n      jump\t// in\n    tag_71:\n      mload(0x40)\n      dup1\n      swap2\n      sub\n      swap1\n      return\n        /* \"contracts/CMMD.sol\":1512:1556  string public constant EIP712_REVISION = \"1\" */\n    tag_13:\n      tag_72\n      tag_73\n      jump\t// in\n    tag_72:\n      mload(0x40)\n      tag_74\n      swap2\n      swap1\n      tag_32\n      jump\t// in\n    tag_74:\n      mload(0x40)\n      dup1\n      swap2\n      sub\n      swap1\n      return\n        /* \"contracts/CMMD.sol\":2501:3833  function rebase(uint256 epoch, int256 supplyDelta)... */\n    tag_14:\n      tag_75\n      0x04\n      dup1\n      calldatasize\n      sub\n      dup2\n      add\n      swap1\n      tag_76\n      swap2\n      swap1\n      tag_77\n      jump\t// in\n    tag_76:\n      tag_78\n      jump\t// in\n    tag_75:\n      mload(0x40)\n      tag_79\n      swap2\n      swap1\n      tag_42\n      jump\t// in\n    tag_79:\n      mload(0x40)\n      dup1\n      swap2\n      sub\n      swap1\n      return\n        /* \"contracts/CMMD.sol\":5159:5254  function nonces(address who) public view returns (uint256) {... */\n    tag_15:\n      tag_80\n      0x04\n      dup1\n      calldatasize\n      sub\n      dup2\n      add\n      swap1\n      tag_81\n      swap2\n      swap1\n      tag_45\n      jump\t// in\n    tag_81:\n      tag_82\n      jump\t// in\n    tag_80:\n      mload(0x40)\n      tag_83\n      swap2\n      swap1\n      tag_42\n      jump\t// in\n    tag_83:\n      mload(0x40)\n      dup1\n      swap2\n      sub\n      swap1\n      return\n        /* \"contracts/CMMD.sol\":8458:8901  function transferAllFrom(address from, address to) public validRecipient(to) returns (bool) {... */\n    tag_16:\n      tag_84\n      0x04\n      dup1\n      calldatasize\n      sub\n      dup2\n      add\n      swap1\n      tag_85\n      swap2\n      swap1\n      tag_86\n      jump\t// in\n    tag_85:\n      tag_87\n      jump\t// in\n    tag_84:\n      mload(0x40)\n      tag_88\n      swap2\n      swap1\n      tag_38\n      jump\t// in\n    tag_88:\n      mload(0x40)\n      dup1\n      swap2\n      sub\n      swap1\n      return\n        /* \"contracts/CMMD.sol\":358:387  address public monetaryPolicy */\n    tag_17:\n      tag_89\n      tag_90\n      jump\t// in\n    tag_89:\n      mload(0x40)\n      tag_91\n      swap2\n      swap1\n      tag_92\n      jump\t// in\n    tag_91:\n      mload(0x40)\n      dup1\n      swap2\n      sub\n      swap1\n      return\n        /* \"@openzeppelin/contracts/token/ERC20/ERC20.sol\":2365:2467  function symbol() public view virtual override returns (string memory) {... */\n    tag_18:\n      tag_93\n      tag_94\n      jump\t// in\n    tag_93:\n      mload(0x40)\n      tag_95\n      swap2\n      swap1\n      tag_32\n      jump\t// in\n    tag_95:\n      mload(0x40)\n      dup1\n      swap2\n      sub\n      swap1\n      return\n        /* \"contracts/CMMD.sol\":6710:7061  function transferAll(address to) external validRecipient(to) returns (bool) {... */\n    tag_19:\n      tag_96\n      0x04\n      dup1\n      calldatasize\n      sub\n      dup2\n      add\n      swap1\n      tag_97\n      swap2\n      swap1\n      tag_45\n      jump\t// in\n    tag_97:\n      tag_98\n      jump\t// in\n    tag_96:\n      mload(0x40)\n      tag_99\n      swap2\n      swap1\n      tag_38\n      jump\t// in\n    tag_99:\n      mload(0x40)\n      dup1\n      swap2\n      sub\n      swap1\n      return\n        /* \"contracts/CMMD.sol\":10690:11115  function decreaseAllowance(address spender, uint256 subtractedValue) public virtual override returns (bool) {... */\n    tag_20:\n      tag_100\n      0x04\n      dup1\n      calldatasize\n      sub\n      dup2\n      add\n      swap1\n      tag_101\n      swap2\n      swap1\n      tag_35\n      jump\t// in\n    tag_101:\n      tag_102\n      jump\t// in\n    tag_100:\n      mload(0x40)\n      tag_103\n      swap2\n      swap1\n      tag_38\n      jump\t// in\n    tag_103:\n      mload(0x40)\n      dup1\n      swap2\n      sub\n      swap1\n      return\n        /* \"contracts/CMMD.sol\":6114:6514  function transfer(address to, uint256 value)... */\n    tag_21:\n      tag_104\n      0x04\n      dup1\n      calldatasize\n      sub\n      dup2\n      add\n      swap1\n      tag_105\n      swap2\n      swap1\n      tag_35\n      jump\t// in\n    tag_105:\n      tag_106\n      jump\t// in\n    tag_104:\n      mload(0x40)\n      tag_107\n      swap2\n      swap1\n      tag_38\n      jump\t// in\n    tag_107:\n      mload(0x40)\n      dup1\n      swap2\n      sub\n      swap1\n      return\n        /* \"contracts/CMMD.sol\":11203:11361  function requestTokens(address requestor , uint amount) external {       ... */\n    tag_22:\n      tag_108\n      0x04\n      dup1\n      calldatasize\n      sub\n      dup2\n      add\n      swap1\n      tag_109\n      swap2\n      swap1\n      tag_35\n      jump\t// in\n    tag_109:\n      tag_110\n      jump\t// in\n    tag_108:\n      stop\n        /* \"contracts/CMMD.sol\":4968:5063  function scaledTotalSupply() external pure returns (uint256) {... */\n    tag_23:\n      tag_111\n      tag_112\n      jump\t// in\n    tag_111:\n      mload(0x40)\n      tag_113\n      swap2\n      swap1\n      tag_42\n      jump\t// in\n    tag_113:\n      mload(0x40)\n      dup1\n      swap2\n      sub\n      swap1\n      return\n        /* \"contracts/CMMD.sol\":7360:7517  function allowance(address owner_, address spender) public view virtual override returns (uint256) {... */\n    tag_24:\n      tag_114\n      0x04\n      dup1\n      calldatasize\n      sub\n      dup2\n      add\n      swap1\n      tag_115\n      swap2\n      swap1\n      tag_86\n      jump\t// in\n    tag_115:\n      tag_116\n      jump\t// in\n    tag_114:\n      mload(0x40)\n      tag_117\n      swap2\n      swap1\n      tag_42\n      jump\t// in\n    tag_117:\n      mload(0x40)\n      dup1\n      swap2\n      sub\n      swap1\n      return\n        /* \"contracts/CMMD.sol\":1562:1727  bytes32 public constant EIP712_DOMAIN =... */\n    tag_25:\n      tag_118\n      tag_119\n      jump\t// in\n    tag_118:\n      mload(0x40)\n      tag_120\n      swap2\n      swap1\n      tag_56\n      jump\t// in\n    tag_120:\n      mload(0x40)\n      dup1\n      swap2\n      sub\n      swap1\n      return\n        /* \"@openzeppelin/contracts/token/ERC20/ERC20.sol\":2154:2252  function name() public view virtual override returns (string memory) {... */\n    tag_30:\n        /* \"@openzeppelin/contracts/token/ERC20/ERC20.sol\":2208:2221  string memory */\n      0x60\n        /* \"@openzeppelin/contracts/token/ERC20/ERC20.sol\":2240:2245  _name */\n      0x03\n        /* \"@openzeppelin/contracts/token/ERC20/ERC20.sol\":2233:2245  return _name */\n      dup1\n      sload\n      tag_122\n      swap1\n      tag_123\n      jump\t// in\n    tag_122:\n      dup1\n      0x1f\n      add\n      0x20\n      dup1\n      swap2\n      div\n      mul\n      0x20\n      add\n      mload(0x40)\n      swap1\n      dup2\n      add\n      0x40\n      mstore\n      dup1\n      swap3\n      swap2\n      swap1\n      dup2\n      dup2\n      mstore\n      0x20\n      add\n      dup3\n      dup1\n      sload\n      tag_124\n      swap1\n      tag_123\n      jump\t// in\n    tag_124:\n      dup1\n      iszero\n      tag_125\n      jumpi\n      dup1\n      0x1f\n      lt\n      tag_126\n      jumpi\n      0x0100\n      dup1\n      dup4\n      sload\n      div\n      mul\n      dup4\n      mstore\n      swap2\n      0x20\n      add\n      swap2\n      jump(tag_125)\n    tag_126:\n      dup3\n      add\n      swap2\n      swap1\n      0x00\n      mstore\n      keccak256(0x00, 0x20)\n      swap1\n    tag_127:\n      dup2\n      sload\n      dup2\n      mstore\n      swap1\n      0x01\n      add\n      swap1\n      0x20\n      add\n      dup1\n      dup4\n      gt\n      tag_127\n      jumpi\n      dup3\n      swap1\n      sub\n      0x1f\n      and\n      dup3\n      add\n      swap2\n    tag_125:\n      pop\n      pop\n      pop\n      pop\n      pop\n      swap1\n      pop\n        /* \"@openzeppelin/contracts/token/ERC20/ERC20.sol\":2154:2252  function name() public view virtual override returns (string memory) {... */\n      swap1\n      jump\t// out\n        /* \"contracts/CMMD.sol\":9530:9754  function approve(address spender, uint256 value) public virtual override returns (bool) {... */\n    tag_36:\n        /* \"contracts/CMMD.sol\":9612:9616  bool */\n      0x00\n        /* \"contracts/CMMD.sol\":9669:9674  value */\n      dup2\n        /* \"contracts/CMMD.sol\":9628:9645  _allowedFragments */\n      0x09\n        /* \"contracts/CMMD.sol\":9628:9657  _allowedFragments[msg.sender] */\n      0x00\n        /* \"contracts/CMMD.sol\":9646:9656  msg.sender */\n      caller\n        /* \"contracts/CMMD.sol\":9628:9657  _allowedFragments[msg.sender] */\n      0xffffffffffffffffffffffffffffffffffffffff\n      and\n      0xffffffffffffffffffffffffffffffffffffffff\n      and\n      dup2\n      mstore\n      0x20\n      add\n      swap1\n      dup2\n      mstore\n      0x20\n      add\n      0x00\n      keccak256\n        /* \"contracts/CMMD.sol\":9628:9666  _allowedFragments[msg.sender][spender] */\n      0x00\n        /* \"contracts/CMMD.sol\":9658:9665  spender */\n      dup6\n        /* \"contracts/CMMD.sol\":9628:9666  _allowedFragments[msg.sender][spender] */\n      0xffffffffffffffffffffffffffffffffffffffff\n      and\n      0xffffffffffffffffffffffffffffffffffffffff\n      and\n      dup2\n      mstore\n      0x20\n      add\n      swap1\n      dup2\n      mstore\n      0x20\n      add\n      0x00\n      keccak256\n        /* \"contracts/CMMD.sol\":9628:9674  _allowedFragments[msg.sender][spender] = value */\n      dup2\n      swap1\n      sstore\n      pop\n        /* \"contracts/CMMD.sol\":9711:9718  spender */\n      dup3\n        /* \"contracts/CMMD.sol\":9690:9726  Approval(msg.sender, spender, value) */\n      0xffffffffffffffffffffffffffffffffffffffff\n      and\n        /* \"contracts/CMMD.sol\":9699:9709  msg.sender */\n      caller\n        /* \"contracts/CMMD.sol\":9690:9726  Approval(msg.sender, spender, value) */\n      0xffffffffffffffffffffffffffffffffffffffff\n      and\n      0x8c5be1e5ebec7d5bd14f71427d1e84f3dd0314c0f7b2291e5b200ac8c7c3b925\n        /* \"contracts/CMMD.sol\":9720:9725  value */\n      dup5\n        /* \"contracts/CMMD.sol\":9690:9726  Approval(msg.sender, spender, value) */\n      mload(0x40)\n      tag_129\n      swap2\n      swap1\n      tag_42\n      jump\t// in\n    tag_129:\n      mload(0x40)\n      dup1\n      swap2\n      sub\n      swap1\n      log3\n        /* \"contracts/CMMD.sol\":9743:9747  true */\n      0x01\n        /* \"contracts/CMMD.sol\":9736:9747  return true */\n      swap1\n      pop\n        /* \"contracts/CMMD.sol\":9530:9754  function approve(address spender, uint256 value) public virtual override returns (bool) {... */\n      swap3\n      swap2\n      pop\n      pop\n      jump\t// out\n        /* \"contracts/CMMD.sol\":4311:4417  function totalSupply() public view virtual override returns (uint256) {... */\n    tag_40:\n        /* \"contracts/CMMD.sol\":4372:4379  uint256 */\n      0x00\n        /* \"contracts/CMMD.sol\":4398:4410  _totalSupply */\n      sload(0x06)\n        /* \"contracts/CMMD.sol\":4391:4410  return _totalSupply */\n      swap1\n      pop\n        /* \"contracts/CMMD.sol\":4311:4417  function totalSupply() public view virtual override returns (uint256) {... */\n      swap1\n      jump\t// out\n        /* \"contracts/CMMD.sol\":4788:4905  function scaledBalanceOf(address who) public view virtual returns (uint256) {... */\n    tag_46:\n        /* \"contracts/CMMD.sol\":4855:4862  uint256 */\n      0x00\n        /* \"contracts/CMMD.sol\":4881:4893  _gonBalances */\n      0x08\n        /* \"contracts/CMMD.sol\":4881:4898  _gonBalances[who] */\n      0x00\n        /* \"contracts/CMMD.sol\":4894:4897  who */\n      dup4\n        /* \"contracts/CMMD.sol\":4881:4898  _gonBalances[who] */\n      0xffffffffffffffffffffffffffffffffffffffff\n      and\n      0xffffffffffffffffffffffffffffffffffffffff\n      and\n      dup2\n      mstore\n      0x20\n      add\n      swap1\n      dup2\n      mstore\n      0x20\n      add\n      0x00\n      keccak256\n      sload\n        /* \"contracts/CMMD.sol\":4874:4898  return _gonBalances[who] */\n      swap1\n      pop\n        /* \"contracts/CMMD.sol\":4788:4905  function scaledBalanceOf(address who) public view virtual returns (uint256) {... */\n      swap2\n      swap1\n      pop\n      jump\t// out\n        /* \"contracts/CMMD.sol\":7771:8252  function transferFrom(... */\n    tag_51:\n        /* \"contracts/CMMD.sol\":7916:7920  bool */\n      0x00\n        /* \"contracts/CMMD.sol\":7903:7905  to */\n      dup3\n        /* \"contracts/CMMD.sol\":2087:2090  0x0 */\n      0x00\n        /* \"contracts/CMMD.sol\":2073:2091  to != address(0x0) */\n      0xffffffffffffffffffffffffffffffffffffffff\n      and\n        /* \"contracts/CMMD.sol\":2073:2075  to */\n      dup2\n        /* \"contracts/CMMD.sol\":2073:2091  to != address(0x0) */\n      0xffffffffffffffffffffffffffffffffffffffff\n      and\n      eq\n      iszero\n        /* \"contracts/CMMD.sol\":2065:2092  require(to != address(0x0)) */\n      tag_133\n      jumpi\n      0x00\n      dup1\n      revert\n    tag_133:\n        /* \"contracts/CMMD.sol\":2124:2128  this */\n      address\n        /* \"contracts/CMMD.sol\":2110:2129  to != address(this) */\n      0xffffffffffffffffffffffffffffffffffffffff\n      and\n        /* \"contracts/CMMD.sol\":2110:2112  to */\n      dup2\n        /* \"contracts/CMMD.sol\":2110:2129  to != address(this) */\n      0xffffffffffffffffffffffffffffffffffffffff\n      and\n      eq\n      iszero\n        /* \"contracts/CMMD.sol\":2102:2130  require(to != address(this)) */\n      tag_134\n      jumpi\n      0x00\n      dup1\n      revert\n    tag_134:\n        /* \"contracts/CMMD.sol\":8008:8013  value */\n      dup3\n        /* \"contracts/CMMD.sol\":7970:7987  _allowedFragments */\n      0x09\n        /* \"contracts/CMMD.sol\":7970:7993  _allowedFragments[from] */\n      0x00\n        /* \"contracts/CMMD.sol\":7988:7992  from */\n      dup8\n        /* \"contracts/CMMD.sol\":7970:7993  _allowedFragments[from] */\n      0xffffffffffffffffffffffffffffffffffffffff\n      and\n      0xffffffffffffffffffffffffffffffffffffffff\n      and\n      dup2\n      mstore\n      0x20\n      add\n      swap1\n      dup2\n      mstore\n      0x20\n      add\n      0x00\n      keccak256\n        /* \"contracts/CMMD.sol\":7970:8005  _allowedFragments[from][msg.sender] */\n      0x00\n        /* \"contracts/CMMD.sol\":7994:8004  msg.sender */\n      caller\n        /* \"contracts/CMMD.sol\":7970:8005  _allowedFragments[from][msg.sender] */\n      0xffffffffffffffffffffffffffffffffffffffff\n      and\n      0xffffffffffffffffffffffffffffffffffffffff\n      and\n      dup2\n      mstore\n      0x20\n      add\n      swap1\n      dup2\n      mstore\n      0x20\n      add\n      0x00\n      keccak256\n      sload\n        /* \"contracts/CMMD.sol\":7970:8013  _allowedFragments[from][msg.sender] - value */\n      tag_136\n      swap2\n      swap1\n      tag_137\n      jump\t// in\n    tag_136:\n        /* \"contracts/CMMD.sol\":7932:7949  _allowedFragments */\n      0x09\n        /* \"contracts/CMMD.sol\":7932:7955  _allowedFragments[from] */\n      0x00\n        /* \"contracts/CMMD.sol\":7950:7954  from */\n      dup8\n        /* \"contracts/CMMD.sol\":7932:7955  _allowedFragments[from] */\n      0xffffffffffffffffffffffffffffffffffffffff\n      and\n      0xffffffffffffffffffffffffffffffffffffffff\n      and\n      dup2\n      mstore\n      0x20\n      add\n      swap1\n      dup2\n      mstore\n      0x20\n      add\n      0x00\n      keccak256\n        /* \"contracts/CMMD.sol\":7932:7967  _allowedFragments[from][msg.sender] */\n      0x00\n        /* \"contracts/CMMD.sol\":7956:7966  msg.sender */\n      caller\n        /* \"contracts/CMMD.sol\":7932:7967  _allowedFragments[from][msg.sender] */\n      0xffffffffffffffffffffffffffffffffffffffff\n      and\n      0xffffffffffffffffffffffffffffffffffffffff\n      and\n      dup2\n      mstore\n      0x20\n      add\n      swap1\n      dup2\n      mstore\n      0x20\n      add\n      0x00\n      keccak256\n        /* \"contracts/CMMD.sol\":7932:8013  _allowedFragments[from][msg.sender] = _allowedFragments[from][msg.sender] - value */\n      dup2\n      swap1\n      sstore\n      pop\n        /* \"contracts/CMMD.sol\":8024:8040  uint256 gonValue */\n      0x00\n        /* \"contracts/CMMD.sol\":8051:8067  _gonsPerFragment */\n      sload(0x07)\n        /* \"contracts/CMMD.sol\":8043:8048  value */\n      dup5\n        /* \"contracts/CMMD.sol\":8043:8067  value * _gonsPerFragment */\n      tag_138\n      swap2\n      swap1\n      tag_139\n      jump\t// in\n    tag_138:\n        /* \"contracts/CMMD.sol\":8024:8067  uint256 gonValue = value * _gonsPerFragment */\n      swap1\n      pop\n        /* \"contracts/CMMD.sol\":8119:8127  gonValue */\n      dup1\n        /* \"contracts/CMMD.sol\":8098:8110  _gonBalances */\n      0x08\n        /* \"contracts/CMMD.sol\":8098:8116  _gonBalances[from] */\n      0x00\n        /* \"contracts/CMMD.sol\":8111:8115  from */\n      dup9\n        /* \"contracts/CMMD.sol\":8098:8116  _gonBalances[from] */\n      0xffffffffffffffffffffffffffffffffffffffff\n      and\n      0xffffffffffffffffffffffffffffffffffffffff\n      and\n      dup2\n      mstore\n      0x20\n      add\n      swap1\n      dup2\n      mstore\n      0x20\n      add\n      0x00\n      keccak256\n      sload\n        /* \"contracts/CMMD.sol\":8098:8127  _gonBalances[from] - gonValue */\n      tag_140\n      swap2\n      swap1\n      tag_137\n      jump\t// in\n    tag_140:\n        /* \"contracts/CMMD.sol\":8077:8089  _gonBalances */\n      0x08\n        /* \"contracts/CMMD.sol\":8077:8095  _gonBalances[from] */\n      0x00\n        /* \"contracts/CMMD.sol\":8090:8094  from */\n      dup9\n        /* \"contracts/CMMD.sol\":8077:8095  _gonBalances[from] */\n      0xffffffffffffffffffffffffffffffffffffffff\n      and\n      0xffffffffffffffffffffffffffffffffffffffff\n      and\n      dup2\n      mstore\n      0x20\n      add\n      swap1\n      dup2\n      mstore\n      0x20\n      add\n      0x00\n      keccak256\n        /* \"contracts/CMMD.sol\":8077:8127  _gonBalances[from] = _gonBalances[from] - gonValue */\n      dup2\n      swap1\n      sstore\n      pop\n        /* \"contracts/CMMD.sol\":8175:8183  gonValue */\n      dup1\n        /* \"contracts/CMMD.sol\":8156:8168  _gonBalances */\n      0x08\n        /* \"contracts/CMMD.sol\":8156:8172  _gonBalances[to] */\n      0x00\n        /* \"contracts/CMMD.sol\":8169:8171  to */\n      dup8\n        /* \"contracts/CMMD.sol\":8156:8172  _gonBalances[to] */\n      0xffffffffffffffffffffffffffffffffffffffff\n      and\n      0xffffffffffffffffffffffffffffffffffffffff\n      and\n      dup2\n      mstore\n      0x20\n      add\n      swap1\n      dup2\n      mstore\n      0x20\n      add\n      0x00\n      keccak256\n      sload\n        /* \"contracts/CMMD.sol\":8156:8183  _gonBalances[to] + gonValue */\n      tag_141\n      swap2\n      swap1\n      tag_142\n      jump\t// in\n    tag_141:\n        /* \"contracts/CMMD.sol\":8137:8149  _gonBalances */\n      0x08\n        /* \"contracts/CMMD.sol\":8137:8153  _gonBalances[to] */\n      0x00\n        /* \"contracts/CMMD.sol\":8150:8152  to */\n      dup8\n        /* \"contracts/CMMD.sol\":8137:8153  _gonBalances[to] */\n      0xffffffffffffffffffffffffffffffffffffffff\n      and\n      0xffffffffffffffffffffffffffffffffffffffff\n      and\n      dup2\n      mstore\n      0x20\n      add\n      swap1\n      dup2\n      mstore\n      0x20\n      add\n      0x00\n      keccak256\n        /* \"contracts/CMMD.sol\":8137:8183  _gonBalances[to] = _gonBalances[to] + gonValue */\n      dup2\n      swap1\n      sstore\n      pop\n        /* \"contracts/CMMD.sol\":8214:8216  to */\n      dup5\n        /* \"contracts/CMMD.sol\":8199:8224  Transfer(from, to, value) */\n      0xffffffffffffffffffffffffffffffffffffffff\n      and\n        /* \"contracts/CMMD.sol\":8208:8212  from */\n      dup7\n        /* \"contracts/CMMD.sol\":8199:8224  Transfer(from, to, value) */\n      0xffffffffffffffffffffffffffffffffffffffff\n      and\n      0xddf252ad1be2c89b69c2b068fc378daa952ba7f163c4a11628f55a4df523b3ef\n        /* \"contracts/CMMD.sol\":8218:8223  value */\n      dup7\n        /* \"contracts/CMMD.sol\":8199:8224  Transfer(from, to, value) */\n      mload(0x40)\n      tag_143\n      swap2\n      swap1\n      tag_42\n      jump\t// in\n    tag_143:\n      mload(0x40)\n      dup1\n      swap2\n      sub\n      swap1\n      log3\n        /* \"contracts/CMMD.sol\":8241:8245  true */\n      0x01\n        /* \"contracts/CMMD.sol\":8234:8245  return true */\n      swap3\n      pop\n      pop\n        /* \"contracts/CMMD.sol\":7771:8252  function transferFrom(... */\n      pop\n      swap4\n      swap3\n      pop\n      pop\n      pop\n      jump\t// out\n        /* \"contracts/CMMD.sol\":1733:1900  bytes32 public constant PERMIT_TYPEHASH =... */\n    tag_54:\n        /* \"contracts/CMMD.sol\":1783:1900  keccak256(... */\n      0x6e71edae12b1b97f4d1f60370fef10105fa2faae0126114a169c64845d6126c9\n        /* \"contracts/CMMD.sol\":1733:1900  bytes32 public constant PERMIT_TYPEHASH =... */\n      dup2\n      jump\t// out\n        /* \"@openzeppelin/contracts/token/ERC20/ERC20.sol\":3091:3182  function decimals() public view virtual override returns (uint8) {... */\n    tag_58:\n        /* \"@openzeppelin/contracts/token/ERC20/ERC20.sol\":3149:3154  uint8 */\n      0x00\n        /* \"@openzeppelin/contracts/token/ERC20/ERC20.sol\":3173:3175  18 */\n      0x12\n        /* \"@openzeppelin/contracts/token/ERC20/ERC20.sol\":3166:3175  return 18 */\n      swap1\n      pop\n        /* \"@openzeppelin/contracts/token/ERC20/ERC20.sol\":3091:3182  function decimals() public view virtual override returns (uint8) {... */\n      swap1\n      jump\t// out\n        /* \"contracts/CMMD.sol\":5446:5896  function DOMAIN_SEPARATOR() public view returns (bytes32) {... */\n    tag_62:\n        /* \"contracts/CMMD.sol\":5495:5502  bytes32 */\n      0x00\n        /* \"contracts/CMMD.sol\":5514:5529  uint256 chainId */\n      dup1\n        /* \"contracts/CMMD.sol\":5573:5582  chainid() */\n      chainid\n        /* \"contracts/CMMD.sol\":5562:5582  chainId := chainid() */\n      swap1\n      pop\n        /* \"contracts/CMMD.sol\":1610:1727  keccak256(... */\n      0x8b73c3c69bb8fe3d512ecc4cf759cc79239f7b179b0ffacaa9a75d522b39400f\n        /* \"contracts/CMMD.sol\":5730:5736  name() */\n      tag_146\n        /* \"contracts/CMMD.sol\":5730:5734  name */\n      tag_30\n        /* \"contracts/CMMD.sol\":5730:5736  name() */\n      jump\t// in\n    tag_146:\n        /* \"contracts/CMMD.sol\":5714:5738  keccak256(bytes(name())) */\n      dup1\n      mload\n      swap1\n      0x20\n      add\n      keccak256\n        /* \"contracts/CMMD.sol\":5776:5791  EIP712_REVISION */\n      mload(0x40)\n      dup1\n      0x40\n      add\n      0x40\n      mstore\n      dup1\n      0x01\n      dup2\n      mstore\n      0x20\n      add\n      0x3100000000000000000000000000000000000000000000000000000000000000\n      dup2\n      mstore\n      pop\n        /* \"contracts/CMMD.sol\":5760:5793  keccak256(bytes(EIP712_REVISION)) */\n      dup1\n      mload\n      swap1\n      0x20\n      add\n      keccak256\n        /* \"contracts/CMMD.sol\":5815:5822  chainId */\n      dup4\n        /* \"contracts/CMMD.sol\":5852:5856  this */\n      address\n        /* \"contracts/CMMD.sol\":5647:5875  abi.encode(... */\n      add(0x20, mload(0x40))\n      tag_147\n      swap6\n      swap5\n      swap4\n      swap3\n      swap2\n      swap1\n      tag_148\n      jump\t// in\n    tag_147:\n      mload(0x40)\n      0x20\n      dup2\n      dup4\n      sub\n      sub\n      dup2\n      mstore\n      swap1\n      0x40\n      mstore\n        /* \"contracts/CMMD.sol\":5620:5889  keccak256(... */\n      dup1\n      mload\n      swap1\n      0x20\n      add\n      keccak256\n        /* \"contracts/CMMD.sol\":5601:5889  return... */\n      swap2\n      pop\n      pop\n        /* \"contracts/CMMD.sol\":5446:5896  function DOMAIN_SEPARATOR() public view returns (bytes32) {... */\n      swap1\n      jump\t// out\n        /* \"contracts/CMMD.sol\":10118:10436  function increaseAllowance(address spender, uint256 addedValue) public virtual override returns (bool) {... */\n    tag_66:\n        /* \"contracts/CMMD.sol\":10215:10219  bool */\n      0x00\n        /* \"contracts/CMMD.sol\":10313:10323  addedValue */\n      dup2\n        /* \"contracts/CMMD.sol\":10272:10289  _allowedFragments */\n      0x09\n        /* \"contracts/CMMD.sol\":10272:10301  _allowedFragments[msg.sender] */\n      0x00\n        /* \"contracts/CMMD.sol\":10290:10300  msg.sender */\n      caller\n        /* \"contracts/CMMD.sol\":10272:10301  _allowedFragments[msg.sender] */\n      0xffffffffffffffffffffffffffffffffffffffff\n      and\n      0xffffffffffffffffffffffffffffffffffffffff\n      and\n      dup2\n      mstore\n      0x20\n      add\n      swap1\n      dup2\n      mstore\n      0x20\n      add\n      0x00\n      keccak256\n        /* \"contracts/CMMD.sol\":10272:10310  _allowedFragments[msg.sender][spender] */\n      0x00\n        /* \"contracts/CMMD.sol\":10302:10309  spender */\n      dup6\n        /* \"contracts/CMMD.sol\":10272:10310  _allowedFragments[msg.sender][spender] */\n      0xffffffffffffffffffffffffffffffffffffffff\n      and\n      0xffffffffffffffffffffffffffffffffffffffff\n      and\n      dup2\n      mstore\n      0x20\n      add\n      swap1\n      dup2\n      mstore\n      0x20\n      add\n      0x00\n      keccak256\n      sload\n        /* \"contracts/CMMD.sol\":10272:10323  _allowedFragments[msg.sender][spender] + addedValue */\n      tag_150\n      swap2\n      swap1\n      tag_142\n      jump\t// in\n    tag_150:\n        /* \"contracts/CMMD.sol\":10231:10248  _allowedFragments */\n      0x09\n        /* \"contracts/CMMD.sol\":10231:10260  _allowedFragments[msg.sender] */\n      0x00\n        /* \"contracts/CMMD.sol\":10249:10259  msg.sender */\n      caller\n        /* \"contracts/CMMD.sol\":10231:10260  _allowedFragments[msg.sender] */\n      0xffffffffffffffffffffffffffffffffffffffff\n      and\n      0xffffffffffffffffffffffffffffffffffffffff\n      and\n      dup2\n      mstore\n      0x20\n      add\n      swap1\n      dup2\n      mstore\n      0x20\n      add\n      0x00\n      keccak256\n        /* \"contracts/CMMD.sol\":10231:10269  _allowedFragments[msg.sender][spender] */\n      0x00\n        /* \"contracts/CMMD.sol\":10261:10268  spender */\n      dup6\n        /* \"contracts/CMMD.sol\":10231:10269  _allowedFragments[msg.sender][spender] */\n      0xffffffffffffffffffffffffffffffffffffffff\n      and\n      0xffffffffffffffffffffffffffffffffffffffff\n      and\n      dup2\n      mstore\n      0x20\n      add\n      swap1\n      dup2\n      mstore\n      0x20\n      add\n      0x00\n      keccak256\n        /* \"contracts/CMMD.sol\":10231:10323  _allowedFragments[msg.sender][spender] = _allowedFragments[msg.sender][spender] + addedValue */\n      dup2\n      swap1\n      sstore\n      pop\n        /* \"contracts/CMMD.sol\":10360:10367  spender */\n      dup3\n        /* \"contracts/CMMD.sol\":10339:10408  Approval(msg.sender, spender, _allowedFragments[msg.sender][spender]) */\n      0xffffffffffffffffffffffffffffffffffffffff\n      and\n        /* \"contracts/CMMD.sol\":10348:10358  msg.sender */\n      caller\n        /* \"contracts/CMMD.sol\":10339:10408  Approval(msg.sender, spender, _allowedFragments[msg.sender][spender]) */\n      0xffffffffffffffffffffffffffffffffffffffff\n      and\n      0x8c5be1e5ebec7d5bd14f71427d1e84f3dd0314c0f7b2291e5b200ac8c7c3b925\n        /* \"contracts/CMMD.sol\":10369:10386  _allowedFragments */\n      0x09\n        /* \"contracts/CMMD.sol\":10369:10398  _allowedFragments[msg.sender] */\n      0x00\n        /* \"contracts/CMMD.sol\":10387:10397  msg.sender */\n      caller\n        /* \"contracts/CMMD.sol\":10369:10398  _allowedFragments[msg.sender] */\n      0xffffffffffffffffffffffffffffffffffffffff\n      and\n      0xffffffffffffffffffffffffffffffffffffffff\n      and\n      dup2\n      mstore\n      0x20\n      add\n      swap1\n      dup2\n      mstore\n      0x20\n      add\n      0x00\n      keccak256\n        /* \"contracts/CMMD.sol\":10369:10407  _allowedFragments[msg.sender][spender] */\n      0x00\n        /* \"contracts/CMMD.sol\":10399:10406  spender */\n      dup8\n        /* \"contracts/CMMD.sol\":10369:10407  _allowedFragments[msg.sender][spender] */\n      0xffffffffffffffffffffffffffffffffffffffff\n      and\n      0xffffffffffffffffffffffffffffffffffffffff\n      and\n      dup2\n      mstore\n      0x20\n      add\n      swap1\n      dup2\n      mstore\n      0x20\n      add\n      0x00\n      keccak256\n      sload\n        /* \"contracts/CMMD.sol\":10339:10408  Approval(msg.sender, spender, _allowedFragments[msg.sender][spender]) */\n      mload(0x40)\n      tag_151\n      swap2\n      swap1\n      tag_42\n      jump\t// in\n    tag_151:\n      mload(0x40)\n      dup1\n      swap2\n      sub\n      swap1\n      log3\n        /* \"contracts/CMMD.sol\":10425:10429  true */\n      0x01\n        /* \"contracts/CMMD.sol\":10418:10429  return true */\n      swap1\n      pop\n        /* \"contracts/CMMD.sol\":10118:10436  function increaseAllowance(address spender, uint256 addedValue) public virtual override returns (bool) {... */\n      swap3\n      swap2\n      pop\n      pop\n      jump\t// out\n        /* \"contracts/CMMD.sol\":4532:4669  function balanceOf(address who) public view virtual override returns (uint256) {... */\n    tag_70:\n        /* \"contracts/CMMD.sol\":4602:4609  uint256 */\n      0x00\n        /* \"contracts/CMMD.sol\":4646:4662  _gonsPerFragment */\n      sload(0x07)\n        /* \"contracts/CMMD.sol\":4628:4640  _gonBalances */\n      0x08\n        /* \"contracts/CMMD.sol\":4628:4645  _gonBalances[who] */\n      0x00\n        /* \"contracts/CMMD.sol\":4641:4644  who */\n      dup5\n        /* \"contracts/CMMD.sol\":4628:4645  _gonBalances[who] */\n      0xffffffffffffffffffffffffffffffffffffffff\n      and\n      0xffffffffffffffffffffffffffffffffffffffff\n      and\n      dup2\n      mstore\n      0x20\n      add\n      swap1\n      dup2\n      mstore\n      0x20\n      add\n      0x00\n      keccak256\n      sload\n        /* \"contracts/CMMD.sol\":4628:4662  _gonBalances[who]/_gonsPerFragment */\n      tag_153\n      swap2\n      swap1\n      tag_154\n      jump\t// in\n    tag_153:\n        /* \"contracts/CMMD.sol\":4621:4662  return _gonBalances[who]/_gonsPerFragment */\n      swap1\n      pop\n        /* \"contracts/CMMD.sol\":4532:4669  function balanceOf(address who) public view virtual override returns (uint256) {... */\n      swap2\n      swap1\n      pop\n      jump\t// out\n        /* \"contracts/CMMD.sol\":1512:1556  string public constant EIP712_REVISION = \"1\" */\n    tag_73:\n      mload(0x40)\n      dup1\n      0x40\n      add\n      0x40\n      mstore\n      dup1\n      0x01\n      dup2\n      mstore\n      0x20\n      add\n      0x3100000000000000000000000000000000000000000000000000000000000000\n      dup2\n      mstore\n      pop\n      dup2\n      jump\t// out\n        /* \"contracts/CMMD.sol\":2501:3833  function rebase(uint256 epoch, int256 supplyDelta)... */\n    tag_78:\n        /* \"contracts/CMMD.sol\":2586:2593  uint256 */\n      0x00\n        /* \"contracts/CMMD.sol\":2628:2629  0 */\n      dup1\n        /* \"contracts/CMMD.sol\":2613:2624  supplyDelta */\n      dup3\n        /* \"contracts/CMMD.sol\":2613:2629  supplyDelta == 0 */\n      eq\n        /* \"contracts/CMMD.sol\":2609:2724  if (supplyDelta == 0) {... */\n      iszero\n      tag_156\n      jumpi\n        /* \"contracts/CMMD.sol\":2660:2665  epoch */\n      dup3\n        /* \"contracts/CMMD.sol\":2650:2680  LogRebase(epoch, _totalSupply) */\n      0x72725a3b1e5bd622d6bcd1339bb31279c351abe8f541ac7fd320f24e1b1641f2\n        /* \"contracts/CMMD.sol\":2667:2679  _totalSupply */\n      sload(0x06)\n        /* \"contracts/CMMD.sol\":2650:2680  LogRebase(epoch, _totalSupply) */\n      mload(0x40)\n      tag_157\n      swap2\n      swap1\n      tag_42\n      jump\t// in\n    tag_157:\n      mload(0x40)\n      dup1\n      swap2\n      sub\n      swap1\n      log2\n        /* \"contracts/CMMD.sol\":2701:2713  _totalSupply */\n      sload(0x06)\n        /* \"contracts/CMMD.sol\":2694:2713  return _totalSupply */\n      swap1\n      pop\n      jump(tag_155)\n        /* \"contracts/CMMD.sol\":2609:2724  if (supplyDelta == 0) {... */\n    tag_156:\n        /* \"contracts/CMMD.sol\":2752:2753  0 */\n      0x00\n        /* \"contracts/CMMD.sol\":2738:2749  supplyDelta */\n      dup3\n        /* \"contracts/CMMD.sol\":2738:2753  supplyDelta < 0 */\n      slt\n        /* \"contracts/CMMD.sol\":2734:2916  if (supplyDelta < 0) {... */\n      iszero\n      tag_158\n      jumpi\n        /* \"contracts/CMMD.sol\":2807:2823  abs(supplyDelta) */\n      tag_159\n        /* \"contracts/CMMD.sol\":2811:2822  supplyDelta */\n      dup3\n        /* \"contracts/CMMD.sol\":2807:2810  abs */\n      tag_160\n        /* \"contracts/CMMD.sol\":2807:2823  abs(supplyDelta) */\n      jump\t// in\n    tag_159:\n        /* \"contracts/CMMD.sol\":2784:2796  _totalSupply */\n      sload(0x06)\n        /* \"contracts/CMMD.sol\":2784:2824  _totalSupply - uint256(abs(supplyDelta)) */\n      tag_161\n      swap2\n      swap1\n      tag_137\n      jump\t// in\n    tag_161:\n        /* \"contracts/CMMD.sol\":2769:2781  _totalSupply */\n      0x06\n        /* \"contracts/CMMD.sol\":2769:2824  _totalSupply = _totalSupply - uint256(abs(supplyDelta)) */\n      dup2\n      swap1\n      sstore\n      pop\n        /* \"contracts/CMMD.sol\":2734:2916  if (supplyDelta < 0) {... */\n      jump(tag_162)\n    tag_158:\n        /* \"contracts/CMMD.sol\":2893:2904  supplyDelta */\n      dup2\n        /* \"contracts/CMMD.sol\":2870:2882  _totalSupply */\n      sload(0x06)\n        /* \"contracts/CMMD.sol\":2870:2905  _totalSupply + uint256(supplyDelta) */\n      tag_163\n      swap2\n      swap1\n      tag_142\n      jump\t// in\n    tag_163:\n        /* \"contracts/CMMD.sol\":2855:2867  _totalSupply */\n      0x06\n        /* \"contracts/CMMD.sol\":2855:2905  _totalSupply = _totalSupply + uint256(supplyDelta) */\n      dup2\n      swap1\n      sstore\n      pop\n        /* \"contracts/CMMD.sol\":2734:2916  if (supplyDelta < 0) {... */\n    tag_162:\n        /* \"contracts/CMMD.sol\":1046:1063  type(uint128).max */\n      0xffffffffffffffffffffffffffffffff\n        /* \"contracts/CMMD.sol\":2945:2955  MAX_SUPPLY */\n      dup1\n      and\n        /* \"contracts/CMMD.sol\":2930:2942  _totalSupply */\n      sload(0x06)\n        /* \"contracts/CMMD.sol\":2930:2955  _totalSupply > MAX_SUPPLY */\n      gt\n        /* \"contracts/CMMD.sol\":2926:3007  if (_totalSupply > MAX_SUPPLY) {... */\n      iszero\n      tag_164\n      jumpi\n        /* \"contracts/CMMD.sol\":1046:1063  type(uint128).max */\n      0xffffffffffffffffffffffffffffffff\n        /* \"contracts/CMMD.sol\":2986:2996  MAX_SUPPLY */\n      dup1\n      and\n        /* \"contracts/CMMD.sol\":2971:2983  _totalSupply */\n      0x06\n        /* \"contracts/CMMD.sol\":2971:2996  _totalSupply = MAX_SUPPLY */\n      dup2\n      swap1\n      sstore\n      pop\n        /* \"contracts/CMMD.sol\":2926:3007  if (_totalSupply > MAX_SUPPLY) {... */\n    tag_164:\n        /* \"contracts/CMMD.sol\":3047:3059  _totalSupply */\n      sload(0x06)\n        /* \"contracts/CMMD.sol\":512:513  9 */\n      0x09\n        /* \"contracts/CMMD.sol\":646:648  10 */\n      0x0a\n        /* \"contracts/CMMD.sol\":646:658  10**DECIMALS */\n      tag_165\n      swap2\n      swap1\n      tag_166\n      jump\t// in\n    tag_165:\n        /* \"contracts/CMMD.sol\":633:643  50 * 10**6 */\n      0x02faf080\n        /* \"contracts/CMMD.sol\":633:658  50 * 10**6 * 10**DECIMALS */\n      tag_167\n      swap2\n      swap1\n      tag_139\n      jump\t// in\n    tag_167:\n        /* \"contracts/CMMD.sol\":558:575  type(uint256).max */\n      0xffffffffffffffffffffffffffffffffffffffffffffffffffffffffffffffff\n        /* \"contracts/CMMD.sol\":891:929  MAX_UINT256 % INITIAL_FRAGMENTS_SUPPLY */\n      tag_168\n      swap2\n      swap1\n      tag_169\n      jump\t// in\n    tag_168:\n        /* \"contracts/CMMD.sol\":558:575  type(uint256).max */\n      0xffffffffffffffffffffffffffffffffffffffffffffffffffffffffffffffff\n        /* \"contracts/CMMD.sol\":876:930  MAX_UINT256 - (MAX_UINT256 % INITIAL_FRAGMENTS_SUPPLY) */\n      tag_170\n      swap2\n      swap1\n      tag_137\n      jump\t// in\n    tag_170:\n        /* \"contracts/CMMD.sol\":3036:3059  TOTAL_GONS/_totalSupply */\n      tag_171\n      swap2\n      swap1\n      tag_154\n      jump\t// in\n    tag_171:\n        /* \"contracts/CMMD.sol\":3017:3033  _gonsPerFragment */\n      0x07\n        /* \"contracts/CMMD.sol\":3017:3059  _gonsPerFragment = TOTAL_GONS/_totalSupply */\n      dup2\n      swap1\n      sstore\n      pop\n        /* \"contracts/CMMD.sol\":3777:3782  epoch */\n      dup3\n        /* \"contracts/CMMD.sol\":3767:3797  LogRebase(epoch, _totalSupply) */\n      0x72725a3b1e5bd622d6bcd1339bb31279c351abe8f541ac7fd320f24e1b1641f2\n        /* \"contracts/CMMD.sol\":3784:3796  _totalSupply */\n      sload(0x06)\n        /* \"contracts/CMMD.sol\":3767:3797  LogRebase(epoch, _totalSupply) */\n      mload(0x40)\n      tag_172\n      swap2\n      swap1\n      tag_42\n      jump\t// in\n    tag_172:\n      mload(0x40)\n      dup1\n      swap2\n      sub\n      swap1\n      log2\n        /* \"contracts/CMMD.sol\":3814:3826  _totalSupply */\n      sload(0x06)\n        /* \"contracts/CMMD.sol\":3807:3826  return _totalSupply */\n      swap1\n      pop\n        /* \"contracts/CMMD.sol\":2501:3833  function rebase(uint256 epoch, int256 supplyDelta)... */\n    tag_155:\n      swap3\n      swap2\n      pop\n      pop\n      jump\t// out\n        /* \"contracts/CMMD.sol\":5159:5254  function nonces(address who) public view returns (uint256) {... */\n    tag_82:\n        /* \"contracts/CMMD.sol\":5209:5216  uint256 */\n      0x00\n        /* \"contracts/CMMD.sol\":5235:5242  _nonces */\n      0x0a\n        /* \"contracts/CMMD.sol\":5235:5247  _nonces[who] */\n      0x00\n        /* \"contracts/CMMD.sol\":5243:5246  who */\n      dup4\n        /* \"contracts/CMMD.sol\":5235:5247  _nonces[who] */\n      0xffffffffffffffffffffffffffffffffffffffff\n      and\n      0xffffffffffffffffffffffffffffffffffffffff\n      and\n      dup2\n      mstore\n      0x20\n      add\n      swap1\n      dup2\n      mstore\n      0x20\n      add\n      0x00\n      keccak256\n      sload\n        /* \"contracts/CMMD.sol\":5228:5247  return _nonces[who] */\n      swap1\n      pop\n        /* \"contracts/CMMD.sol\":5159:5254  function nonces(address who) public view returns (uint256) {... */\n      swap2\n      swap1\n      pop\n      jump\t// out\n        /* \"contracts/CMMD.sol\":8458:8901  function transferAllFrom(address from, address to) public validRecipient(to) returns (bool) {... */\n    tag_87:\n        /* \"contracts/CMMD.sol\":8544:8548  bool */\n      0x00\n        /* \"contracts/CMMD.sol\":8531:8533  to */\n      dup2\n        /* \"contracts/CMMD.sol\":2087:2090  0x0 */\n      0x00\n        /* \"contracts/CMMD.sol\":2073:2091  to != address(0x0) */\n      0xffffffffffffffffffffffffffffffffffffffff\n      and\n        /* \"contracts/CMMD.sol\":2073:2075  to */\n      dup2\n        /* \"contracts/CMMD.sol\":2073:2091  to != address(0x0) */\n      0xffffffffffffffffffffffffffffffffffffffff\n      and\n      eq\n      iszero\n        /* \"contracts/CMMD.sol\":2065:2092  require(to != address(0x0)) */\n      tag_175\n      jumpi\n      0x00\n      dup1\n      revert\n    tag_175:\n        /* \"contracts/CMMD.sol\":2124:2128  this */\n      address\n        /* \"contracts/CMMD.sol\":2110:2129  to != address(this) */\n      0xffffffffffffffffffffffffffffffffffffffff\n      and\n        /* \"contracts/CMMD.sol\":2110:2112  to */\n      dup2\n        /* \"contracts/CMMD.sol\":2110:2129  to != address(this) */\n      0xffffffffffffffffffffffffffffffffffffffff\n      and\n      eq\n      iszero\n        /* \"contracts/CMMD.sol\":2102:2130  require(to != address(this)) */\n      tag_176\n      jumpi\n      0x00\n      dup1\n      revert\n    tag_176:\n        /* \"contracts/CMMD.sol\":8560:8576  uint256 gonValue */\n      0x00\n        /* \"contracts/CMMD.sol\":8579:8591  _gonBalances */\n      0x08\n        /* \"contracts/CMMD.sol\":8579:8597  _gonBalances[from] */\n      0x00\n        /* \"contracts/CMMD.sol\":8592:8596  from */\n      dup7\n        /* \"contracts/CMMD.sol\":8579:8597  _gonBalances[from] */\n      0xffffffffffffffffffffffffffffffffffffffff\n      and\n      0xffffffffffffffffffffffffffffffffffffffff\n      and\n      dup2\n      mstore\n      0x20\n      add\n      swap1\n      dup2\n      mstore\n      0x20\n      add\n      0x00\n      keccak256\n      sload\n        /* \"contracts/CMMD.sol\":8560:8597  uint256 gonValue = _gonBalances[from] */\n      swap1\n      pop\n        /* \"contracts/CMMD.sol\":8607:8620  uint256 value */\n      0x00\n        /* \"contracts/CMMD.sol\":8632:8648  _gonsPerFragment */\n      sload(0x07)\n        /* \"contracts/CMMD.sol\":8623:8631  gonValue */\n      dup3\n        /* \"contracts/CMMD.sol\":8623:8648  gonValue/_gonsPerFragment */\n      tag_178\n      swap2\n      swap1\n      tag_154\n      jump\t// in\n    tag_178:\n        /* \"contracts/CMMD.sol\":8607:8648  uint256 value = gonValue/_gonsPerFragment */\n      swap1\n      pop\n        /* \"contracts/CMMD.sol\":8735:8740  value */\n      dup1\n        /* \"contracts/CMMD.sol\":8697:8714  _allowedFragments */\n      0x09\n        /* \"contracts/CMMD.sol\":8697:8720  _allowedFragments[from] */\n      0x00\n        /* \"contracts/CMMD.sol\":8715:8719  from */\n      dup9\n        /* \"contracts/CMMD.sol\":8697:8720  _allowedFragments[from] */\n      0xffffffffffffffffffffffffffffffffffffffff\n      and\n      0xffffffffffffffffffffffffffffffffffffffff\n      and\n      dup2\n      mstore\n      0x20\n      add\n      swap1\n      dup2\n      mstore\n      0x20\n      add\n      0x00\n      keccak256\n        /* \"contracts/CMMD.sol\":8697:8732  _allowedFragments[from][msg.sender] */\n      0x00\n        /* \"contracts/CMMD.sol\":8721:8731  msg.sender */\n      caller\n        /* \"contracts/CMMD.sol\":8697:8732  _allowedFragments[from][msg.sender] */\n      0xffffffffffffffffffffffffffffffffffffffff\n      and\n      0xffffffffffffffffffffffffffffffffffffffff\n      and\n      dup2\n      mstore\n      0x20\n      add\n      swap1\n      dup2\n      mstore\n      0x20\n      add\n      0x00\n      keccak256\n      sload\n        /* \"contracts/CMMD.sol\":8697:8740  _allowedFragments[from][msg.sender] - value */\n      tag_179\n      swap2\n      swap1\n      tag_137\n      jump\t// in\n    tag_179:\n        /* \"contracts/CMMD.sol\":8659:8676  _allowedFragments */\n      0x09\n        /* \"contracts/CMMD.sol\":8659:8682  _allowedFragments[from] */\n      0x00\n        /* \"contracts/CMMD.sol\":8677:8681  from */\n      dup9\n        /* \"contracts/CMMD.sol\":8659:8682  _allowedFragments[from] */\n      0xffffffffffffffffffffffffffffffffffffffff\n      and\n      0xffffffffffffffffffffffffffffffffffffffff\n      and\n      dup2\n      mstore\n      0x20\n      add\n      swap1\n      dup2\n      mstore\n      0x20\n      add\n      0x00\n      keccak256\n        /* \"contracts/CMMD.sol\":8659:8694  _allowedFragments[from][msg.sender] */\n      0x00\n        /* \"contracts/CMMD.sol\":8683:8693  msg.sender */\n      caller\n        /* \"contracts/CMMD.sol\":8659:8694  _allowedFragments[from][msg.sender] */\n      0xffffffffffffffffffffffffffffffffffffffff\n      and\n      0xffffffffffffffffffffffffffffffffffffffff\n      and\n      dup2\n      mstore\n      0x20\n      add\n      swap1\n      dup2\n      mstore\n      0x20\n      add\n      0x00\n      keccak256\n        /* \"contracts/CMMD.sol\":8659:8740  _allowedFragments[from][msg.sender] = _allowedFragments[from][msg.sender] - value */\n      dup2\n      swap1\n      sstore\n      pop\n        /* \"contracts/CMMD.sol\":8758:8770  _gonBalances */\n      0x08\n        /* \"contracts/CMMD.sol\":8758:8776  _gonBalances[from] */\n      0x00\n        /* \"contracts/CMMD.sol\":8771:8775  from */\n      dup8\n        /* \"contracts/CMMD.sol\":8758:8776  _gonBalances[from] */\n      0xffffffffffffffffffffffffffffffffffffffff\n      and\n      0xffffffffffffffffffffffffffffffffffffffff\n      and\n      dup2\n      mstore\n      0x20\n      add\n      swap1\n      dup2\n      mstore\n      0x20\n      add\n      0x00\n      keccak256\n        /* \"contracts/CMMD.sol\":8751:8776  delete _gonBalances[from] */\n      0x00\n      swap1\n      sstore\n        /* \"contracts/CMMD.sol\":8824:8832  gonValue */\n      dup2\n        /* \"contracts/CMMD.sol\":8805:8817  _gonBalances */\n      0x08\n        /* \"contracts/CMMD.sol\":8805:8821  _gonBalances[to] */\n      0x00\n        /* \"contracts/CMMD.sol\":8818:8820  to */\n      dup8\n        /* \"contracts/CMMD.sol\":8805:8821  _gonBalances[to] */\n      0xffffffffffffffffffffffffffffffffffffffff\n      and\n      0xffffffffffffffffffffffffffffffffffffffff\n      and\n      dup2\n      mstore\n      0x20\n      add\n      swap1\n      dup2\n      mstore\n      0x20\n      add\n      0x00\n      keccak256\n      sload\n        /* \"contracts/CMMD.sol\":8805:8832  _gonBalances[to] + gonValue */\n      tag_180\n      swap2\n      swap1\n      tag_142\n      jump\t// in\n    tag_180:\n        /* \"contracts/CMMD.sol\":8786:8798  _gonBalances */\n      0x08\n        /* \"contracts/CMMD.sol\":8786:8802  _gonBalances[to] */\n      0x00\n        /* \"contracts/CMMD.sol\":8799:8801  to */\n      dup8\n        /* \"contracts/CMMD.sol\":8786:8802  _gonBalances[to] */\n      0xffffffffffffffffffffffffffffffffffffffff\n      and\n      0xffffffffffffffffffffffffffffffffffffffff\n      and\n      dup2\n      mstore\n      0x20\n      add\n      swap1\n      dup2\n      mstore\n      0x20\n      add\n      0x00\n      keccak256\n        /* \"contracts/CMMD.sol\":8786:8832  _gonBalances[to] = _gonBalances[to] + gonValue */\n      dup2\n      swap1\n      sstore\n      pop\n        /* \"contracts/CMMD.sol\":8863:8865  to */\n      dup5\n        /* \"contracts/CMMD.sol\":8848:8873  Transfer(from, to, value) */\n      0xffffffffffffffffffffffffffffffffffffffff\n      and\n        /* \"contracts/CMMD.sol\":8857:8861  from */\n      dup7\n        /* \"contracts/CMMD.sol\":8848:8873  Transfer(from, to, value) */\n      0xffffffffffffffffffffffffffffffffffffffff\n      and\n      0xddf252ad1be2c89b69c2b068fc378daa952ba7f163c4a11628f55a4df523b3ef\n        /* \"contracts/CMMD.sol\":8867:8872  value */\n      dup4\n        /* \"contracts/CMMD.sol\":8848:8873  Transfer(from, to, value) */\n      mload(0x40)\n      tag_181\n      swap2\n      swap1\n      tag_42\n      jump\t// in\n    tag_181:\n      mload(0x40)\n      dup1\n      swap2\n      sub\n      swap1\n      log3\n        /* \"contracts/CMMD.sol\":8890:8894  true */\n      0x01\n        /* \"contracts/CMMD.sol\":8883:8894  return true */\n      swap4\n      pop\n      pop\n      pop\n        /* \"contracts/CMMD.sol\":8458:8901  function transferAllFrom(address from, address to) public validRecipient(to) returns (bool) {... */\n      pop\n      swap3\n      swap2\n      pop\n      pop\n      jump\t// out\n        /* \"contracts/CMMD.sol\":358:387  address public monetaryPolicy */\n    tag_90:\n      0x05\n      0x00\n      swap1\n      sload\n      swap1\n      0x0100\n      exp\n      swap1\n      div\n      0xffffffffffffffffffffffffffffffffffffffff\n      and\n      dup2\n      jump\t// out\n        /* \"@openzeppelin/contracts/token/ERC20/ERC20.sol\":2365:2467  function symbol() public view virtual override returns (string memory) {... */\n    tag_94:\n        /* \"@openzeppelin/contracts/token/ERC20/ERC20.sol\":2421:2434  string memory */\n      0x60\n        /* \"@openzeppelin/contracts/token/ERC20/ERC20.sol\":2453:2460  _symbol */\n      0x04\n        /* \"@openzeppelin/contracts/token/ERC20/ERC20.sol\":2446:2460  return _symbol */\n      dup1\n      sload\n      tag_183\n      swap1\n      tag_123\n      jump\t// in\n    tag_183:\n      dup1\n      0x1f\n      add\n      0x20\n      dup1\n      swap2\n      div\n      mul\n      0x20\n      add\n      mload(0x40)\n      swap1\n      dup2\n      add\n      0x40\n      mstore\n      dup1\n      swap3\n      swap2\n      swap1\n      dup2\n      dup2\n      mstore\n      0x20\n      add\n      dup3\n      dup1\n      sload\n      tag_184\n      swap1\n      tag_123\n      jump\t// in\n    tag_184:\n      dup1\n      iszero\n      tag_185\n      jumpi\n      dup1\n      0x1f\n      lt\n      tag_186\n      jumpi\n      0x0100\n      dup1\n      dup4\n      sload\n      div\n      mul\n      dup4\n      mstore\n      swap2\n      0x20\n      add\n      swap2\n      jump(tag_185)\n    tag_186:\n      dup3\n      add\n      swap2\n      swap1\n      0x00\n      mstore\n      keccak256(0x00, 0x20)\n      swap1\n    tag_187:\n      dup2\n      sload\n      dup2\n      mstore\n      swap1\n      0x01\n      add\n      swap1\n      0x20\n      add\n      dup1\n      dup4\n      gt\n      tag_187\n      jumpi\n      dup3\n      swap1\n      sub\n      0x1f\n      and\n      dup3\n      add\n      swap2\n    tag_185:\n      pop\n      pop\n      pop\n      pop\n      pop\n      swap1\n      pop\n        /* \"@openzeppelin/contracts/token/ERC20/ERC20.sol\":2365:2467  function symbol() public view virtual override returns (string memory) {... */\n      swap1\n      jump\t// out\n        /* \"contracts/CMMD.sol\":6710:7061  function transferAll(address to) external validRecipient(to) returns (bool) {... */\n    tag_98:\n        /* \"contracts/CMMD.sol\":6780:6784  bool */\n      0x00\n        /* \"contracts/CMMD.sol\":6767:6769  to */\n      dup2\n        /* \"contracts/CMMD.sol\":2087:2090  0x0 */\n      0x00\n        /* \"contracts/CMMD.sol\":2073:2091  to != address(0x0) */\n      0xffffffffffffffffffffffffffffffffffffffff\n      and\n        /* \"contracts/CMMD.sol\":2073:2075  to */\n      dup2\n        /* \"contracts/CMMD.sol\":2073:2091  to != address(0x0) */\n      0xffffffffffffffffffffffffffffffffffffffff\n      and\n      eq\n      iszero\n        /* \"contracts/CMMD.sol\":2065:2092  require(to != address(0x0)) */\n      tag_189\n      jumpi\n      0x00\n      dup1\n      revert\n    tag_189:\n        /* \"contracts/CMMD.sol\":2124:2128  this */\n      address\n        /* \"contracts/CMMD.sol\":2110:2129  to != address(this) */\n      0xffffffffffffffffffffffffffffffffffffffff\n      and\n        /* \"contracts/CMMD.sol\":2110:2112  to */\n      dup2\n        /* \"contracts/CMMD.sol\":2110:2129  to != address(this) */\n      0xffffffffffffffffffffffffffffffffffffffff\n      and\n      eq\n      iszero\n        /* \"contracts/CMMD.sol\":2102:2130  require(to != address(this)) */\n      tag_190\n      jumpi\n      0x00\n      dup1\n      revert\n    tag_190:\n        /* \"contracts/CMMD.sol\":6796:6812  uint256 gonValue */\n      0x00\n        /* \"contracts/CMMD.sol\":6815:6827  _gonBalances */\n      0x08\n        /* \"contracts/CMMD.sol\":6815:6839  _gonBalances[msg.sender] */\n      0x00\n        /* \"contracts/CMMD.sol\":6828:6838  msg.sender */\n      caller\n        /* \"contracts/CMMD.sol\":6815:6839  _gonBalances[msg.sender] */\n      0xffffffffffffffffffffffffffffffffffffffff\n      and\n      0xffffffffffffffffffffffffffffffffffffffff\n      and\n      dup2\n      mstore\n      0x20\n      add\n      swap1\n      dup2\n      mstore\n      0x20\n      add\n      0x00\n      keccak256\n      sload\n        /* \"contracts/CMMD.sol\":6796:6839  uint256 gonValue = _gonBalances[msg.sender] */\n      swap1\n      pop\n        /* \"contracts/CMMD.sol\":6849:6862  uint256 value */\n      0x00\n        /* \"contracts/CMMD.sol\":6874:6890  _gonsPerFragment */\n      sload(0x07)\n        /* \"contracts/CMMD.sol\":6865:6873  gonValue */\n      dup3\n        /* \"contracts/CMMD.sol\":6865:6890  gonValue/_gonsPerFragment */\n      tag_192\n      swap2\n      swap1\n      tag_154\n      jump\t// in\n    tag_192:\n        /* \"contracts/CMMD.sol\":6849:6890  uint256 value = gonValue/_gonsPerFragment */\n      swap1\n      pop\n        /* \"contracts/CMMD.sol\":6908:6920  _gonBalances */\n      0x08\n        /* \"contracts/CMMD.sol\":6908:6932  _gonBalances[msg.sender] */\n      0x00\n        /* \"contracts/CMMD.sol\":6921:6931  msg.sender */\n      caller\n        /* \"contracts/CMMD.sol\":6908:6932  _gonBalances[msg.sender] */\n      0xffffffffffffffffffffffffffffffffffffffff\n      and\n      0xffffffffffffffffffffffffffffffffffffffff\n      and\n      dup2\n      mstore\n      0x20\n      add\n      swap1\n      dup2\n      mstore\n      0x20\n      add\n      0x00\n      keccak256\n        /* \"contracts/CMMD.sol\":6901:6932  delete _gonBalances[msg.sender] */\n      0x00\n      swap1\n      sstore\n        /* \"contracts/CMMD.sol\":6978:6986  gonValue */\n      dup2\n        /* \"contracts/CMMD.sol\":6961:6973  _gonBalances */\n      0x08\n        /* \"contracts/CMMD.sol\":6961:6977  _gonBalances[to] */\n      0x00\n        /* \"contracts/CMMD.sol\":6974:6976  to */\n      dup8\n        /* \"contracts/CMMD.sol\":6961:6977  _gonBalances[to] */\n      0xffffffffffffffffffffffffffffffffffffffff\n      and\n      0xffffffffffffffffffffffffffffffffffffffff\n      and\n      dup2\n      mstore\n      0x20\n      add\n      swap1\n      dup2\n      mstore\n      0x20\n      add\n      0x00\n      keccak256\n      sload\n        /* \"contracts/CMMD.sol\":6961:6986  _gonBalances[to]+gonValue */\n      tag_193\n      swap2\n      swap1\n      tag_142\n      jump\t// in\n    tag_193:\n        /* \"contracts/CMMD.sol\":6942:6954  _gonBalances */\n      0x08\n        /* \"contracts/CMMD.sol\":6942:6958  _gonBalances[to] */\n      0x00\n        /* \"contracts/CMMD.sol\":6955:6957  to */\n      dup8\n        /* \"contracts/CMMD.sol\":6942:6958  _gonBalances[to] */\n      0xffffffffffffffffffffffffffffffffffffffff\n      and\n      0xffffffffffffffffffffffffffffffffffffffff\n      and\n      dup2\n      mstore\n      0x20\n      add\n      swap1\n      dup2\n      mstore\n      0x20\n      add\n      0x00\n      keccak256\n        /* \"contracts/CMMD.sol\":6942:6986  _gonBalances[to] = _gonBalances[to]+gonValue */\n      dup2\n      swap1\n      sstore\n      pop\n        /* \"contracts/CMMD.sol\":7023:7025  to */\n      dup5\n        /* \"contracts/CMMD.sol\":7002:7033  Transfer(msg.sender, to, value) */\n      0xffffffffffffffffffffffffffffffffffffffff\n      and\n        /* \"contracts/CMMD.sol\":7011:7021  msg.sender */\n      caller\n        /* \"contracts/CMMD.sol\":7002:7033  Transfer(msg.sender, to, value) */\n      0xffffffffffffffffffffffffffffffffffffffff\n      and\n      0xddf252ad1be2c89b69c2b068fc378daa952ba7f163c4a11628f55a4df523b3ef\n        /* \"contracts/CMMD.sol\":7027:7032  value */\n      dup4\n        /* \"contracts/CMMD.sol\":7002:7033  Transfer(msg.sender, to, value) */\n      mload(0x40)\n      tag_194\n      swap2\n      swap1\n      tag_42\n      jump\t// in\n    tag_194:\n      mload(0x40)\n      dup1\n      swap2\n      sub\n      swap1\n      log3\n        /* \"contracts/CMMD.sol\":7050:7054  true */\n      0x01\n        /* \"contracts/CMMD.sol\":7043:7054  return true */\n      swap4\n      pop\n      pop\n      pop\n        /* \"contracts/CMMD.sol\":6710:7061  function transferAll(address to) external validRecipient(to) returns (bool) {... */\n      pop\n      swap2\n      swap1\n      pop\n      jump\t// out\n        /* \"contracts/CMMD.sol\":10690:11115  function decreaseAllowance(address spender, uint256 subtractedValue) public virtual override returns (bool) {... */\n    tag_102:\n        /* \"contracts/CMMD.sol\":10792:10796  bool */\n      0x00\n        /* \"contracts/CMMD.sol\":10808:10824  uint256 oldValue */\n      dup1\n        /* \"contracts/CMMD.sol\":10827:10844  _allowedFragments */\n      0x09\n        /* \"contracts/CMMD.sol\":10827:10856  _allowedFragments[msg.sender] */\n      0x00\n        /* \"contracts/CMMD.sol\":10845:10855  msg.sender */\n      caller\n        /* \"contracts/CMMD.sol\":10827:10856  _allowedFragments[msg.sender] */\n      0xffffffffffffffffffffffffffffffffffffffff\n      and\n      0xffffffffffffffffffffffffffffffffffffffff\n      and\n      dup2\n      mstore\n      0x20\n      add\n      swap1\n      dup2\n      mstore\n      0x20\n      add\n      0x00\n      keccak256\n        /* \"contracts/CMMD.sol\":10827:10865  _allowedFragments[msg.sender][spender] */\n      0x00\n        /* \"contracts/CMMD.sol\":10857:10864  spender */\n      dup6\n        /* \"contracts/CMMD.sol\":10827:10865  _allowedFragments[msg.sender][spender] */\n      0xffffffffffffffffffffffffffffffffffffffff\n      and\n      0xffffffffffffffffffffffffffffffffffffffff\n      and\n      dup2\n      mstore\n      0x20\n      add\n      swap1\n      dup2\n      mstore\n      0x20\n      add\n      0x00\n      keccak256\n      sload\n        /* \"contracts/CMMD.sol\":10808:10865  uint256 oldValue = _allowedFragments[msg.sender][spender] */\n      swap1\n      pop\n        /* \"contracts/CMMD.sol\":10936:10944  oldValue */\n      dup1\n        /* \"contracts/CMMD.sol\":10917:10932  subtractedValue */\n      dup4\n        /* \"contracts/CMMD.sol\":10917:10944  subtractedValue >= oldValue */\n      lt\n      iszero\n        /* \"contracts/CMMD.sol\":10916:11002  (subtractedValue >= oldValue)... */\n      tag_196\n      jumpi\n        /* \"contracts/CMMD.sol\":10987:11002  subtractedValue */\n      dup3\n        /* \"contracts/CMMD.sol\":10976:10984  oldValue */\n      dup2\n        /* \"contracts/CMMD.sol\":10976:11002  oldValue - subtractedValue */\n      tag_197\n      swap2\n      swap1\n      tag_137\n      jump\t// in\n    tag_197:\n        /* \"contracts/CMMD.sol\":10916:11002  (subtractedValue >= oldValue)... */\n      jump(tag_198)\n    tag_196:\n        /* \"contracts/CMMD.sol\":10960:10961  0 */\n      0x00\n        /* \"contracts/CMMD.sol\":10916:11002  (subtractedValue >= oldValue)... */\n    tag_198:\n        /* \"contracts/CMMD.sol\":10875:10892  _allowedFragments */\n      0x09\n        /* \"contracts/CMMD.sol\":10875:10904  _allowedFragments[msg.sender] */\n      0x00\n        /* \"contracts/CMMD.sol\":10893:10903  msg.sender */\n      caller\n        /* \"contracts/CMMD.sol\":10875:10904  _allowedFragments[msg.sender] */\n      0xffffffffffffffffffffffffffffffffffffffff\n      and\n      0xffffffffffffffffffffffffffffffffffffffff\n      and\n      dup2\n      mstore\n      0x20\n      add\n      swap1\n      dup2\n      mstore\n      0x20\n      add\n      0x00\n      keccak256\n        /* \"contracts/CMMD.sol\":10875:10913  _allowedFragments[msg.sender][spender] */\n      0x00\n        /* \"contracts/CMMD.sol\":10905:10912  spender */\n      dup7\n        /* \"contracts/CMMD.sol\":10875:10913  _allowedFragments[msg.sender][spender] */\n      0xffffffffffffffffffffffffffffffffffffffff\n      and\n      0xffffffffffffffffffffffffffffffffffffffff\n      and\n      dup2\n      mstore\n      0x20\n      add\n      swap1\n      dup2\n      mstore\n      0x20\n      add\n      0x00\n      keccak256\n        /* \"contracts/CMMD.sol\":10875:11002  _allowedFragments[msg.sender][spender] = (subtractedValue >= oldValue)... */\n      dup2\n      swap1\n      sstore\n      pop\n        /* \"contracts/CMMD.sol\":11039:11046  spender */\n      dup4\n        /* \"contracts/CMMD.sol\":11018:11087  Approval(msg.sender, spender, _allowedFragments[msg.sender][spender]) */\n      0xffffffffffffffffffffffffffffffffffffffff\n      and\n        /* \"contracts/CMMD.sol\":11027:11037  msg.sender */\n      caller\n        /* \"contracts/CMMD.sol\":11018:11087  Approval(msg.sender, spender, _allowedFragments[msg.sender][spender]) */\n      0xffffffffffffffffffffffffffffffffffffffff\n      and\n      0x8c5be1e5ebec7d5bd14f71427d1e84f3dd0314c0f7b2291e5b200ac8c7c3b925\n        /* \"contracts/CMMD.sol\":11048:11065  _allowedFragments */\n      0x09\n        /* \"contracts/CMMD.sol\":11048:11077  _allowedFragments[msg.sender] */\n      0x00\n        /* \"contracts/CMMD.sol\":11066:11076  msg.sender */\n      caller\n        /* \"contracts/CMMD.sol\":11048:11077  _allowedFragments[msg.sender] */\n      0xffffffffffffffffffffffffffffffffffffffff\n      and\n      0xffffffffffffffffffffffffffffffffffffffff\n      and\n      dup2\n      mstore\n      0x20\n      add\n      swap1\n      dup2\n      mstore\n      0x20\n      add\n      0x00\n      keccak256\n        /* \"contracts/CMMD.sol\":11048:11086  _allowedFragments[msg.sender][spender] */\n      0x00\n        /* \"contracts/CMMD.sol\":11078:11085  spender */\n      dup9\n        /* \"contracts/CMMD.sol\":11048:11086  _allowedFragments[msg.sender][spender] */\n      0xffffffffffffffffffffffffffffffffffffffff\n      and\n      0xffffffffffffffffffffffffffffffffffffffff\n      and\n      dup2\n      mstore\n      0x20\n      add\n      swap1\n      dup2\n      mstore\n      0x20\n      add\n      0x00\n      keccak256\n      sload\n        /* \"contracts/CMMD.sol\":11018:11087  Approval(msg.sender, spender, _allowedFragments[msg.sender][spender]) */\n      mload(0x40)\n      tag_199\n      swap2\n      swap1\n      tag_42\n      jump\t// in\n    tag_199:\n      mload(0x40)\n      dup1\n      swap2\n      sub\n      swap1\n      log3\n        /* \"contracts/CMMD.sol\":11104:11108  true */\n      0x01\n        /* \"contracts/CMMD.sol\":11097:11108  return true */\n      swap2\n      pop\n      pop\n        /* \"contracts/CMMD.sol\":10690:11115  function decreaseAllowance(address spender, uint256 subtractedValue) public virtual override returns (bool) {... */\n      swap3\n      swap2\n      pop\n      pop\n      jump\t// out\n        /* \"contracts/CMMD.sol\":6114:6514  function transfer(address to, uint256 value)... */\n    tag_106:\n        /* \"contracts/CMMD.sol\":6251:6255  bool */\n      0x00\n        /* \"contracts/CMMD.sol\":6230:6232  to */\n      dup3\n        /* \"contracts/CMMD.sol\":2087:2090  0x0 */\n      0x00\n        /* \"contracts/CMMD.sol\":2073:2091  to != address(0x0) */\n      0xffffffffffffffffffffffffffffffffffffffff\n      and\n        /* \"contracts/CMMD.sol\":2073:2075  to */\n      dup2\n        /* \"contracts/CMMD.sol\":2073:2091  to != address(0x0) */\n      0xffffffffffffffffffffffffffffffffffffffff\n      and\n      eq\n      iszero\n        /* \"contracts/CMMD.sol\":2065:2092  require(to != address(0x0)) */\n      tag_201\n      jumpi\n      0x00\n      dup1\n      revert\n    tag_201:\n        /* \"contracts/CMMD.sol\":2124:2128  this */\n      address\n        /* \"contracts/CMMD.sol\":2110:2129  to != address(this) */\n      0xffffffffffffffffffffffffffffffffffffffff\n      and\n        /* \"contracts/CMMD.sol\":2110:2112  to */\n      dup2\n        /* \"contracts/CMMD.sol\":2110:2129  to != address(this) */\n      0xffffffffffffffffffffffffffffffffffffffff\n      and\n      eq\n      iszero\n        /* \"contracts/CMMD.sol\":2102:2130  require(to != address(this)) */\n      tag_202\n      jumpi\n      0x00\n      dup1\n      revert\n    tag_202:\n        /* \"contracts/CMMD.sol\":6271:6287  uint256 gonValue */\n      0x00\n        /* \"contracts/CMMD.sol\":6298:6314  _gonsPerFragment */\n      sload(0x07)\n        /* \"contracts/CMMD.sol\":6290:6295  value */\n      dup5\n        /* \"contracts/CMMD.sol\":6290:6314  value * _gonsPerFragment */\n      tag_204\n      swap2\n      swap1\n      tag_139\n      jump\t// in\n    tag_204:\n        /* \"contracts/CMMD.sol\":6271:6314  uint256 gonValue = value * _gonsPerFragment */\n      swap1\n      pop\n        /* \"contracts/CMMD.sol\":6377:6385  gonValue */\n      dup1\n        /* \"contracts/CMMD.sol\":6352:6364  _gonBalances */\n      0x08\n        /* \"contracts/CMMD.sol\":6352:6376  _gonBalances[msg.sender] */\n      0x00\n        /* \"contracts/CMMD.sol\":6365:6375  msg.sender */\n      caller\n        /* \"contracts/CMMD.sol\":6352:6376  _gonBalances[msg.sender] */\n      0xffffffffffffffffffffffffffffffffffffffff\n      and\n      0xffffffffffffffffffffffffffffffffffffffff\n      and\n      dup2\n      mstore\n      0x20\n      add\n      swap1\n      dup2\n      mstore\n      0x20\n      add\n      0x00\n      keccak256\n      sload\n        /* \"contracts/CMMD.sol\":6352:6385  _gonBalances[msg.sender]-gonValue */\n      tag_205\n      swap2\n      swap1\n      tag_137\n      jump\t// in\n    tag_205:\n        /* \"contracts/CMMD.sol\":6325:6337  _gonBalances */\n      0x08\n        /* \"contracts/CMMD.sol\":6325:6349  _gonBalances[msg.sender] */\n      0x00\n        /* \"contracts/CMMD.sol\":6338:6348  msg.sender */\n      caller\n        /* \"contracts/CMMD.sol\":6325:6349  _gonBalances[msg.sender] */\n      0xffffffffffffffffffffffffffffffffffffffff\n      and\n      0xffffffffffffffffffffffffffffffffffffffff\n      and\n      dup2\n      mstore\n      0x20\n      add\n      swap1\n      dup2\n      mstore\n      0x20\n      add\n      0x00\n      keccak256\n        /* \"contracts/CMMD.sol\":6325:6385  _gonBalances[msg.sender] = _gonBalances[msg.sender]-gonValue */\n      dup2\n      swap1\n      sstore\n      pop\n        /* \"contracts/CMMD.sol\":6431:6439  gonValue */\n      dup1\n        /* \"contracts/CMMD.sol\":6414:6426  _gonBalances */\n      0x08\n        /* \"contracts/CMMD.sol\":6414:6430  _gonBalances[to] */\n      0x00\n        /* \"contracts/CMMD.sol\":6427:6429  to */\n      dup8\n        /* \"contracts/CMMD.sol\":6414:6430  _gonBalances[to] */\n      0xffffffffffffffffffffffffffffffffffffffff\n      and\n      0xffffffffffffffffffffffffffffffffffffffff\n      and\n      dup2\n      mstore\n      0x20\n      add\n      swap1\n      dup2\n      mstore\n      0x20\n      add\n      0x00\n      keccak256\n      sload\n        /* \"contracts/CMMD.sol\":6414:6439  _gonBalances[to]+gonValue */\n      tag_206\n      swap2\n      swap1\n      tag_142\n      jump\t// in\n    tag_206:\n        /* \"contracts/CMMD.sol\":6395:6407  _gonBalances */\n      0x08\n        /* \"contracts/CMMD.sol\":6395:6411  _gonBalances[to] */\n      0x00\n        /* \"contracts/CMMD.sol\":6408:6410  to */\n      dup8\n        /* \"contracts/CMMD.sol\":6395:6411  _gonBalances[to] */\n      0xffffffffffffffffffffffffffffffffffffffff\n      and\n      0xffffffffffffffffffffffffffffffffffffffff\n      and\n      dup2\n      mstore\n      0x20\n      add\n      swap1\n      dup2\n      mstore\n      0x20\n      add\n      0x00\n      keccak256\n        /* \"contracts/CMMD.sol\":6395:6439  _gonBalances[to] = _gonBalances[to]+gonValue */\n      dup2\n      swap1\n      sstore\n      pop\n        /* \"contracts/CMMD.sol\":6476:6478  to */\n      dup5\n        /* \"contracts/CMMD.sol\":6455:6486  Transfer(msg.sender, to, value) */\n      0xffffffffffffffffffffffffffffffffffffffff\n      and\n        /* \"contracts/CMMD.sol\":6464:6474  msg.sender */\n      caller\n        /* \"contracts/CMMD.sol\":6455:6486  Transfer(msg.sender, to, value) */\n      0xffffffffffffffffffffffffffffffffffffffff\n      and\n      0xddf252ad1be2c89b69c2b068fc378daa952ba7f163c4a11628f55a4df523b3ef\n        /* \"contracts/CMMD.sol\":6480:6485  value */\n      dup7\n        /* \"contracts/CMMD.sol\":6455:6486  Transfer(msg.sender, to, value) */\n      mload(0x40)\n      tag_207\n      swap2\n      swap1\n      tag_42\n      jump\t// in\n    tag_207:\n      mload(0x40)\n      dup1\n      swap2\n      sub\n      swap1\n      log3\n        /* \"contracts/CMMD.sol\":6503:6507  true */\n      0x01\n        /* \"contracts/CMMD.sol\":6496:6507  return true */\n      swap3\n      pop\n      pop\n        /* \"contracts/CMMD.sol\":6114:6514  function transfer(address to, uint256 value)... */\n      pop\n      swap3\n      swap2\n      pop\n      pop\n      jump\t// out\n        /* \"contracts/CMMD.sol\":11203:11361  function requestTokens(address requestor , uint amount) external {       ... */\n    tag_110:\n        /* \"contracts/CMMD.sol\":11335:11345  msg.sender */\n      caller\n        /* \"contracts/CMMD.sol\":11312:11354  Transfer(address(0x0), msg.sender, amount) */\n      0xffffffffffffffffffffffffffffffffffffffff\n      and\n        /* \"contracts/CMMD.sol\":11329:11332  0x0 */\n      0x00\n        /* \"contracts/CMMD.sol\":11312:11354  Transfer(address(0x0), msg.sender, amount) */\n      0xffffffffffffffffffffffffffffffffffffffff\n      and\n      0xddf252ad1be2c89b69c2b068fc378daa952ba7f163c4a11628f55a4df523b3ef\n        /* \"contracts/CMMD.sol\":11347:11353  amount */\n      dup4\n        /* \"contracts/CMMD.sol\":11312:11354  Transfer(address(0x0), msg.sender, amount) */\n      mload(0x40)\n      tag_209\n      swap2\n      swap1\n      tag_42\n      jump\t// in\n    tag_209:\n      mload(0x40)\n      dup1\n      swap2\n      sub\n      swap1\n      log3\n        /* \"contracts/CMMD.sol\":11203:11361  function requestTokens(address requestor , uint amount) external {       ... */\n      pop\n      pop\n      jump\t// out\n        /* \"contracts/CMMD.sol\":4968:5063  function scaledTotalSupply() external pure returns (uint256) {... */\n    tag_112:\n        /* \"contracts/CMMD.sol\":5020:5027  uint256 */\n      0x00\n        /* \"contracts/CMMD.sol\":512:513  9 */\n      0x09\n        /* \"contracts/CMMD.sol\":646:648  10 */\n      0x0a\n        /* \"contracts/CMMD.sol\":646:658  10**DECIMALS */\n      tag_211\n      swap2\n      swap1\n      tag_166\n      jump\t// in\n    tag_211:\n        /* \"contracts/CMMD.sol\":633:643  50 * 10**6 */\n      0x02faf080\n        /* \"contracts/CMMD.sol\":633:658  50 * 10**6 * 10**DECIMALS */\n      tag_212\n      swap2\n      swap1\n      tag_139\n      jump\t// in\n    tag_212:\n        /* \"contracts/CMMD.sol\":558:575  type(uint256).max */\n      0xffffffffffffffffffffffffffffffffffffffffffffffffffffffffffffffff\n        /* \"contracts/CMMD.sol\":891:929  MAX_UINT256 % INITIAL_FRAGMENTS_SUPPLY */\n      tag_213\n      swap2\n      swap1\n      tag_169\n      jump\t// in\n    tag_213:\n        /* \"contracts/CMMD.sol\":558:575  type(uint256).max */\n      0xffffffffffffffffffffffffffffffffffffffffffffffffffffffffffffffff\n        /* \"contracts/CMMD.sol\":876:930  MAX_UINT256 - (MAX_UINT256 % INITIAL_FRAGMENTS_SUPPLY) */\n      tag_214\n      swap2\n      swap1\n      tag_137\n      jump\t// in\n    tag_214:\n        /* \"contracts/CMMD.sol\":5039:5056  return TOTAL_GONS */\n      swap1\n      pop\n        /* \"contracts/CMMD.sol\":4968:5063  function scaledTotalSupply() external pure returns (uint256) {... */\n      swap1\n      jump\t// out\n        /* \"contracts/CMMD.sol\":7360:7517  function allowance(address owner_, address spender) public view virtual override returns (uint256) {... */\n    tag_116:\n        /* \"contracts/CMMD.sol\":7450:7457  uint256 */\n      0x00\n        /* \"contracts/CMMD.sol\":7476:7493  _allowedFragments */\n      0x09\n        /* \"contracts/CMMD.sol\":7476:7501  _allowedFragments[owner_] */\n      0x00\n        /* \"contracts/CMMD.sol\":7494:7500  owner_ */\n      dup5\n        /* \"contracts/CMMD.sol\":7476:7501  _allowedFragments[owner_] */\n      0xffffffffffffffffffffffffffffffffffffffff\n      and\n      0xffffffffffffffffffffffffffffffffffffffff\n      and\n      dup2\n      mstore\n      0x20\n      add\n      swap1\n      dup2\n      mstore\n      0x20\n      add\n      0x00\n      keccak256\n        /* \"contracts/CMMD.sol\":7476:7510  _allowedFragments[owner_][spender] */\n      0x00\n        /* \"contracts/CMMD.sol\":7502:7509  spender */\n      dup4\n        /* \"contracts/CMMD.sol\":7476:7510  _allowedFragments[owner_][spender] */\n      0xffffffffffffffffffffffffffffffffffffffff\n      and\n      0xffffffffffffffffffffffffffffffffffffffff\n      and\n      dup2\n      mstore\n      0x20\n      add\n      swap1\n      dup2\n      mstore\n      0x20\n      add\n      0x00\n      keccak256\n      sload\n        /* \"contracts/CMMD.sol\":7469:7510  return _allowedFragments[owner_][spender] */\n      swap1\n      pop\n        /* \"contracts/CMMD.sol\":7360:7517  function allowance(address owner_, address spender) public view virtual override returns (uint256) {... */\n      swap3\n      swap2\n      pop\n      pop\n      jump\t// out\n        /* \"contracts/CMMD.sol\":1562:1727  bytes32 public constant EIP712_DOMAIN =... */\n    tag_119:\n        /* \"contracts/CMMD.sol\":1610:1727  keccak256(... */\n      0x8b73c3c69bb8fe3d512ecc4cf759cc79239f7b179b0ffacaa9a75d522b39400f\n        /* \"contracts/CMMD.sol\":1562:1727  bytes32 public constant EIP712_DOMAIN =... */\n      dup2\n      jump\t// out\n        /* \"contracts/CMMD.sol\":2154:2240  function abs(int x) private pure returns (int) {... */\n    tag_160:\n        /* \"contracts/CMMD.sol\":2196:2199  int */\n      0x00\n        /* \"contracts/CMMD.sol\":2223:2224  0 */\n      dup1\n        /* \"contracts/CMMD.sol\":2218:2219  x */\n      dup3\n        /* \"contracts/CMMD.sol\":2218:2224  x >= 0 */\n      slt\n      iszero\n        /* \"contracts/CMMD.sol\":2218:2233  x >= 0 ? x : -x */\n      tag_217\n      jumpi\n        /* \"contracts/CMMD.sol\":2232:2233  x */\n      dup2\n        /* \"contracts/CMMD.sol\":2231:2233  -x */\n      tag_218\n      swap1\n      tag_219\n      jump\t// in\n    tag_218:\n        /* \"contracts/CMMD.sol\":2218:2233  x >= 0 ? x : -x */\n      jump(tag_220)\n    tag_217:\n        /* \"contracts/CMMD.sol\":2227:2228  x */\n      dup2\n        /* \"contracts/CMMD.sol\":2218:2233  x >= 0 ? x : -x */\n    tag_220:\n        /* \"contracts/CMMD.sol\":2211:2233  return x >= 0 ? x : -x */\n      swap1\n      pop\n        /* \"contracts/CMMD.sol\":2154:2240  function abs(int x) private pure returns (int) {... */\n      swap2\n      swap1\n      pop\n      jump\t// out\n        /* \"#utility.yul\":7:146   */\n    tag_222:\n        /* \"#utility.yul\":53:58   */\n      0x00\n        /* \"#utility.yul\":91:97   */\n      dup2\n        /* \"#utility.yul\":78:98   */\n      calldataload\n        /* \"#utility.yul\":69:98   */\n      swap1\n      pop\n        /* \"#utility.yul\":107:140   */\n      tag_224\n        /* \"#utility.yul\":134:139   */\n      dup2\n        /* \"#utility.yul\":107:140   */\n      tag_225\n      jump\t// in\n    tag_224:\n        /* \"#utility.yul\":7:146   */\n      swap3\n      swap2\n      pop\n      pop\n      jump\t// out\n        /* \"#utility.yul\":152:289   */\n    tag_226:\n        /* \"#utility.yul\":197:202   */\n      0x00\n        /* \"#utility.yul\":235:241   */\n      dup2\n        /* \"#utility.yul\":222:242   */\n      calldataload\n        /* \"#utility.yul\":213:242   */\n      swap1\n      pop\n        /* \"#utility.yul\":251:283   */\n      tag_228\n        /* \"#utility.yul\":277:282   */\n      dup2\n        /* \"#utility.yul\":251:283   */\n      tag_229\n      jump\t// in\n    tag_228:\n        /* \"#utility.yul\":152:289   */\n      swap3\n      swap2\n      pop\n      pop\n      jump\t// out\n        /* \"#utility.yul\":295:434   */\n    tag_230:\n        /* \"#utility.yul\":341:346   */\n      0x00\n        /* \"#utility.yul\":379:385   */\n      dup2\n        /* \"#utility.yul\":366:386   */\n      calldataload\n        /* \"#utility.yul\":357:386   */\n      swap1\n      pop\n        /* \"#utility.yul\":395:428   */\n      tag_232\n        /* \"#utility.yul\":422:427   */\n      dup2\n        /* \"#utility.yul\":395:428   */\n      tag_233\n      jump\t// in\n    tag_232:\n        /* \"#utility.yul\":295:434   */\n      swap3\n      swap2\n      pop\n      pop\n      jump\t// out\n        /* \"#utility.yul\":440:769   */\n    tag_45:\n        /* \"#utility.yul\":499:505   */\n      0x00\n        /* \"#utility.yul\":548:550   */\n      0x20\n        /* \"#utility.yul\":536:545   */\n      dup3\n        /* \"#utility.yul\":527:534   */\n      dup5\n        /* \"#utility.yul\":523:546   */\n      sub\n        /* \"#utility.yul\":519:551   */\n      slt\n        /* \"#utility.yul\":516:635   */\n      iszero\n      tag_235\n      jumpi\n        /* \"#utility.yul\":554:633   */\n      tag_236\n      tag_237\n      jump\t// in\n    tag_236:\n        /* \"#utility.yul\":516:635   */\n    tag_235:\n        /* \"#utility.yul\":674:675   */\n      0x00\n        /* \"#utility.yul\":699:752   */\n      tag_238\n        /* \"#utility.yul\":744:751   */\n      dup5\n        /* \"#utility.yul\":735:741   */\n      dup3\n        /* \"#utility.yul\":724:733   */\n      dup6\n        /* \"#utility.yul\":720:742   */\n      add\n        /* \"#utility.yul\":699:752   */\n      tag_222\n      jump\t// in\n    tag_238:\n        /* \"#utility.yul\":689:752   */\n      swap2\n      pop\n        /* \"#utility.yul\":645:762   */\n      pop\n        /* \"#utility.yul\":440:769   */\n      swap3\n      swap2\n      pop\n      pop\n      jump\t// out\n        /* \"#utility.yul\":775:1249   */\n    tag_86:\n        /* \"#utility.yul\":843:849   */\n      0x00\n        /* \"#utility.yul\":851:857   */\n      dup1\n        /* \"#utility.yul\":900:902   */\n      0x40\n        /* \"#utility.yul\":888:897   */\n      dup4\n        /* \"#utility.yul\":879:886   */\n      dup6\n        /* \"#utility.yul\":875:898   */\n      sub\n        /* \"#utility.yul\":871:903   */\n      slt\n        /* \"#utility.yul\":868:987   */\n      iszero\n      tag_240\n      jumpi\n        /* \"#utility.yul\":906:985   */\n      tag_241\n      tag_237\n      jump\t// in\n    tag_241:\n        /* \"#utility.yul\":868:987   */\n    tag_240:\n        /* \"#utility.yul\":1026:1027   */\n      0x00\n        /* \"#utility.yul\":1051:1104   */\n      tag_242\n        /* \"#utility.yul\":1096:1103   */\n      dup6\n        /* \"#utility.yul\":1087:1093   */\n      dup3\n        /* \"#utility.yul\":1076:1085   */\n      dup7\n        /* \"#utility.yul\":1072:1094   */\n      add\n        /* \"#utility.yul\":1051:1104   */\n      tag_222\n      jump\t// in\n    tag_242:\n        /* \"#utility.yul\":1041:1104   */\n      swap3\n      pop\n        /* \"#utility.yul\":997:1114   */\n      pop\n        /* \"#utility.yul\":1153:1155   */\n      0x20\n        /* \"#utility.yul\":1179:1232   */\n      tag_243\n        /* \"#utility.yul\":1224:1231   */\n      dup6\n        /* \"#utility.yul\":1215:1221   */\n      dup3\n        /* \"#utility.yul\":1204:1213   */\n      dup7\n        /* \"#utility.yul\":1200:1222   */\n      add\n        /* \"#utility.yul\":1179:1232   */\n      tag_222\n      jump\t// in\n    tag_243:\n        /* \"#utility.yul\":1169:1232   */\n      swap2\n      pop\n        /* \"#utility.yul\":1124:1242   */\n      pop\n        /* \"#utility.yul\":775:1249   */\n      swap3\n      pop\n      swap3\n      swap1\n      pop\n      jump\t// out\n        /* \"#utility.yul\":1255:1874   */\n    tag_50:\n        /* \"#utility.yul\":1332:1338   */\n      0x00\n        /* \"#utility.yul\":1340:1346   */\n      dup1\n        /* \"#utility.yul\":1348:1354   */\n      0x00\n        /* \"#utility.yul\":1397:1399   */\n      0x60\n        /* \"#utility.yul\":1385:1394   */\n      dup5\n        /* \"#utility.yul\":1376:1383   */\n      dup7\n        /* \"#utility.yul\":1372:1395   */\n      sub\n        /* \"#utility.yul\":1368:1400   */\n      slt\n        /* \"#utility.yul\":1365:1484   */\n      iszero\n      tag_245\n      jumpi\n        /* \"#utility.yul\":1403:1482   */\n      tag_246\n      tag_237\n      jump\t// in\n    tag_246:\n        /* \"#utility.yul\":1365:1484   */\n    tag_245:\n        /* \"#utility.yul\":1523:1524   */\n      0x00\n        /* \"#utility.yul\":1548:1601   */\n      tag_247\n        /* \"#utility.yul\":1593:1600   */\n      dup7\n        /* \"#utility.yul\":1584:1590   */\n      dup3\n        /* \"#utility.yul\":1573:1582   */\n      dup8\n        /* \"#utility.yul\":1569:1591   */\n      add\n        /* \"#utility.yul\":1548:1601   */\n      tag_222\n      jump\t// in\n    tag_247:\n        /* \"#utility.yul\":1538:1601   */\n      swap4\n      pop\n        /* \"#utility.yul\":1494:1611   */\n      pop\n        /* \"#utility.yul\":1650:1652   */\n      0x20\n        /* \"#utility.yul\":1676:1729   */\n      tag_248\n        /* \"#utility.yul\":1721:1728   */\n      dup7\n        /* \"#utility.yul\":1712:1718   */\n      dup3\n        /* \"#utility.yul\":1701:1710   */\n      dup8\n        /* \"#utility.yul\":1697:1719   */\n      add\n        /* \"#utility.yul\":1676:1729   */\n      tag_222\n      jump\t// in\n    tag_248:\n        /* \"#utility.yul\":1666:1729   */\n      swap3\n      pop\n        /* \"#utility.yul\":1621:1739   */\n      pop\n        /* \"#utility.yul\":1778:1780   */\n      0x40\n        /* \"#utility.yul\":1804:1857   */\n      tag_249\n        /* \"#utility.yul\":1849:1856   */\n      dup7\n        /* \"#utility.yul\":1840:1846   */\n      dup3\n        /* \"#utility.yul\":1829:1838   */\n      dup8\n        /* \"#utility.yul\":1825:1847   */\n      add\n        /* \"#utility.yul\":1804:1857   */\n      tag_230\n      jump\t// in\n    tag_249:\n        /* \"#utility.yul\":1794:1857   */\n      swap2\n      pop\n        /* \"#utility.yul\":1749:1867   */\n      pop\n        /* \"#utility.yul\":1255:1874   */\n      swap3\n      pop\n      swap3\n      pop\n      swap3\n      jump\t// out\n        /* \"#utility.yul\":1880:2354   */\n    tag_35:\n        /* \"#utility.yul\":1948:1954   */\n      0x00\n        /* \"#utility.yul\":1956:1962   */\n      dup1\n        /* \"#utility.yul\":2005:2007   */\n      0x40\n        /* \"#utility.yul\":1993:2002   */\n      dup4\n        /* \"#utility.yul\":1984:1991   */\n      dup6\n        /* \"#utility.yul\":1980:2003   */\n      sub\n        /* \"#utility.yul\":1976:2008   */\n      slt\n        /* \"#utility.yul\":1973:2092   */\n      iszero\n      tag_251\n      jumpi\n        /* \"#utility.yul\":2011:2090   */\n      tag_252\n      tag_237\n      jump\t// in\n    tag_252:\n        /* \"#utility.yul\":1973:2092   */\n    tag_251:\n        /* \"#utility.yul\":2131:2132   */\n      0x00\n        /* \"#utility.yul\":2156:2209   */\n      tag_253\n        /* \"#utility.yul\":2201:2208   */\n      dup6\n        /* \"#utility.yul\":2192:2198   */\n      dup3\n        /* \"#utility.yul\":2181:2190   */\n      dup7\n        /* \"#utility.yul\":2177:2199   */\n      add\n        /* \"#utility.yul\":2156:2209   */\n      tag_222\n      jump\t// in\n    tag_253:\n        /* \"#utility.yul\":2146:2209   */\n      swap3\n      pop\n        /* \"#utility.yul\":2102:2219   */\n      pop\n        /* \"#utility.yul\":2258:2260   */\n      0x20\n        /* \"#utility.yul\":2284:2337   */\n      tag_254\n        /* \"#utility.yul\":2329:2336   */\n      dup6\n        /* \"#utility.yul\":2320:2326   */\n      dup3\n        /* \"#utility.yul\":2309:2318   */\n      dup7\n        /* \"#utility.yul\":2305:2327   */\n      add\n        /* \"#utility.yul\":2284:2337   */\n      tag_230\n      jump\t// in\n    tag_254:\n        /* \"#utility.yul\":2274:2337   */\n      swap2\n      pop\n        /* \"#utility.yul\":2229:2347   */\n      pop\n        /* \"#utility.yul\":1880:2354   */\n      swap3\n      pop\n      swap3\n      swap1\n      pop\n      jump\t// out\n        /* \"#utility.yul\":2360:2832   */\n    tag_77:\n        /* \"#utility.yul\":2427:2433   */\n      0x00\n        /* \"#utility.yul\":2435:2441   */\n      dup1\n        /* \"#utility.yul\":2484:2486   */\n      0x40\n        /* \"#utility.yul\":2472:2481   */\n      dup4\n        /* \"#utility.yul\":2463:2470   */\n      dup6\n        /* \"#utility.yul\":2459:2482   */\n      sub\n        /* \"#utility.yul\":2455:2487   */\n      slt\n        /* \"#utility.yul\":2452:2571   */\n      iszero\n      tag_256\n      jumpi\n        /* \"#utility.yul\":2490:2569   */\n      tag_257\n      tag_237\n      jump\t// in\n    tag_257:\n        /* \"#utility.yul\":2452:2571   */\n    tag_256:\n        /* \"#utility.yul\":2610:2611   */\n      0x00\n        /* \"#utility.yul\":2635:2688   */\n      tag_258\n        /* \"#utility.yul\":2680:2687   */\n      dup6\n        /* \"#utility.yul\":2671:2677   */\n      dup3\n        /* \"#utility.yul\":2660:2669   */\n      dup7\n        /* \"#utility.yul\":2656:2678   */\n      add\n        /* \"#utility.yul\":2635:2688   */\n      tag_230\n      jump\t// in\n    tag_258:\n        /* \"#utility.yul\":2625:2688   */\n      swap3\n      pop\n        /* \"#utility.yul\":2581:2698   */\n      pop\n        /* \"#utility.yul\":2737:2739   */\n      0x20\n        /* \"#utility.yul\":2763:2815   */\n      tag_259\n        /* \"#utility.yul\":2807:2814   */\n      dup6\n        /* \"#utility.yul\":2798:2804   */\n      dup3\n        /* \"#utility.yul\":2787:2796   */\n      dup7\n        /* \"#utility.yul\":2783:2805   */\n      add\n        /* \"#utility.yul\":2763:2815   */\n      tag_226\n      jump\t// in\n    tag_259:\n        /* \"#utility.yul\":2753:2815   */\n      swap2\n      pop\n        /* \"#utility.yul\":2708:2825   */\n      pop\n        /* \"#utility.yul\":2360:2832   */\n      swap3\n      pop\n      swap3\n      swap1\n      pop\n      jump\t// out\n        /* \"#utility.yul\":2838:2956   */\n    tag_260:\n        /* \"#utility.yul\":2925:2949   */\n      tag_262\n        /* \"#utility.yul\":2943:2948   */\n      dup2\n        /* \"#utility.yul\":2925:2949   */\n      tag_263\n      jump\t// in\n    tag_262:\n        /* \"#utility.yul\":2920:2923   */\n      dup3\n        /* \"#utility.yul\":2913:2950   */\n      mstore\n        /* \"#utility.yul\":2838:2956   */\n      pop\n      pop\n      jump\t// out\n        /* \"#utility.yul\":2962:3071   */\n    tag_264:\n        /* \"#utility.yul\":3043:3064   */\n      tag_266\n        /* \"#utility.yul\":3058:3063   */\n      dup2\n        /* \"#utility.yul\":3043:3064   */\n      tag_267\n      jump\t// in\n    tag_266:\n        /* \"#utility.yul\":3038:3041   */\n      dup3\n        /* \"#utility.yul\":3031:3065   */\n      mstore\n        /* \"#utility.yul\":2962:3071   */\n      pop\n      pop\n      jump\t// out\n        /* \"#utility.yul\":3077:3195   */\n    tag_268:\n        /* \"#utility.yul\":3164:3188   */\n      tag_270\n        /* \"#utility.yul\":3182:3187   */\n      dup2\n        /* \"#utility.yul\":3164:3188   */\n      tag_271\n      jump\t// in\n    tag_270:\n        /* \"#utility.yul\":3159:3162   */\n      dup3\n        /* \"#utility.yul\":3152:3189   */\n      mstore\n        /* \"#utility.yul\":3077:3195   */\n      pop\n      pop\n      jump\t// out\n        /* \"#utility.yul\":3201:3565   */\n    tag_272:\n        /* \"#utility.yul\":3289:3292   */\n      0x00\n        /* \"#utility.yul\":3317:3356   */\n      tag_274\n        /* \"#utility.yul\":3350:3355   */\n      dup3\n        /* \"#utility.yul\":3317:3356   */\n      tag_275\n      jump\t// in\n    tag_274:\n        /* \"#utility.yul\":3372:3443   */\n      tag_276\n        /* \"#utility.yul\":3436:3442   */\n      dup2\n        /* \"#utility.yul\":3431:3434   */\n      dup6\n        /* \"#utility.yul\":3372:3443   */\n      tag_277\n      jump\t// in\n    tag_276:\n        /* \"#utility.yul\":3365:3443   */\n      swap4\n      pop\n        /* \"#utility.yul\":3452:3504   */\n      tag_278\n        /* \"#utility.yul\":3497:3503   */\n      dup2\n        /* \"#utility.yul\":3492:3495   */\n      dup6\n        /* \"#utility.yul\":3485:3489   */\n      0x20\n        /* \"#utility.yul\":3478:3483   */\n      dup7\n        /* \"#utility.yul\":3474:3490   */\n      add\n        /* \"#utility.yul\":3452:3504   */\n      tag_279\n      jump\t// in\n    tag_278:\n        /* \"#utility.yul\":3529:3558   */\n      tag_280\n        /* \"#utility.yul\":3551:3557   */\n      dup2\n        /* \"#utility.yul\":3529:3558   */\n      tag_281\n      jump\t// in\n    tag_280:\n        /* \"#utility.yul\":3524:3527   */\n      dup5\n        /* \"#utility.yul\":3520:3559   */\n      add\n        /* \"#utility.yul\":3513:3559   */\n      swap2\n      pop\n        /* \"#utility.yul\":3293:3565   */\n      pop\n        /* \"#utility.yul\":3201:3565   */\n      swap3\n      swap2\n      pop\n      pop\n      jump\t// out\n        /* \"#utility.yul\":3571:3689   */\n    tag_282:\n        /* \"#utility.yul\":3658:3682   */\n      tag_284\n        /* \"#utility.yul\":3676:3681   */\n      dup2\n        /* \"#utility.yul\":3658:3682   */\n      tag_285\n      jump\t// in\n    tag_284:\n        /* \"#utility.yul\":3653:3656   */\n      dup3\n        /* \"#utility.yul\":3646:3683   */\n      mstore\n        /* \"#utility.yul\":3571:3689   */\n      pop\n      pop\n      jump\t// out\n        /* \"#utility.yul\":3695:3807   */\n    tag_286:\n        /* \"#utility.yul\":3778:3800   */\n      tag_288\n        /* \"#utility.yul\":3794:3799   */\n      dup2\n        /* \"#utility.yul\":3778:3800   */\n      tag_289\n      jump\t// in\n    tag_288:\n        /* \"#utility.yul\":3773:3776   */\n      dup3\n        /* \"#utility.yul\":3766:3801   */\n      mstore\n        /* \"#utility.yul\":3695:3807   */\n      pop\n      pop\n      jump\t// out\n        /* \"#utility.yul\":3813:4035   */\n    tag_92:\n        /* \"#utility.yul\":3906:3910   */\n      0x00\n        /* \"#utility.yul\":3944:3946   */\n      0x20\n        /* \"#utility.yul\":3933:3942   */\n      dup3\n        /* \"#utility.yul\":3929:3947   */\n      add\n        /* \"#utility.yul\":3921:3947   */\n      swap1\n      pop\n        /* \"#utility.yul\":3957:4028   */\n      tag_291\n        /* \"#utility.yul\":4025:4026   */\n      0x00\n        /* \"#utility.yul\":4014:4023   */\n      dup4\n        /* \"#utility.yul\":4010:4027   */\n      add\n        /* \"#utility.yul\":4001:4007   */\n      dup5\n        /* \"#utility.yul\":3957:4028   */\n      tag_260\n      jump\t// in\n    tag_291:\n        /* \"#utility.yul\":3813:4035   */\n      swap3\n      swap2\n      pop\n      pop\n      jump\t// out\n        /* \"#utility.yul\":4041:4251   */\n    tag_38:\n        /* \"#utility.yul\":4128:4132   */\n      0x00\n        /* \"#utility.yul\":4166:4168   */\n      0x20\n        /* \"#utility.yul\":4155:4164   */\n      dup3\n        /* \"#utility.yul\":4151:4169   */\n      add\n        /* \"#utility.yul\":4143:4169   */\n      swap1\n      pop\n        /* \"#utility.yul\":4179:4244   */\n      tag_293\n        /* \"#utility.yul\":4241:4242   */\n      0x00\n        /* \"#utility.yul\":4230:4239   */\n      dup4\n        /* \"#utility.yul\":4226:4243   */\n      add\n        /* \"#utility.yul\":4217:4223   */\n      dup5\n        /* \"#utility.yul\":4179:4244   */\n      tag_264\n      jump\t// in\n    tag_293:\n        /* \"#utility.yul\":4041:4251   */\n      swap3\n      swap2\n      pop\n      pop\n      jump\t// out\n        /* \"#utility.yul\":4257:4479   */\n    tag_56:\n        /* \"#utility.yul\":4350:4354   */\n      0x00\n        /* \"#utility.yul\":4388:4390   */\n      0x20\n        /* \"#utility.yul\":4377:4386   */\n      dup3\n        /* \"#utility.yul\":4373:4391   */\n      add\n        /* \"#utility.yul\":4365:4391   */\n      swap1\n      pop\n        /* \"#utility.yul\":4401:4472   */\n      tag_295\n        /* \"#utility.yul\":4469:4470   */\n      0x00\n        /* \"#utility.yul\":4458:4467   */\n      dup4\n        /* \"#utility.yul\":4454:4471   */\n      add\n        /* \"#utility.yul\":4445:4451   */\n      dup5\n        /* \"#utility.yul\":4401:4472   */\n      tag_268\n      jump\t// in\n    tag_295:\n        /* \"#utility.yul\":4257:4479   */\n      swap3\n      swap2\n      pop\n      pop\n      jump\t// out\n        /* \"#utility.yul\":4485:5149   */\n    tag_148:\n        /* \"#utility.yul\":4690:4694   */\n      0x00\n        /* \"#utility.yul\":4728:4731   */\n      0xa0\n        /* \"#utility.yul\":4717:4726   */\n      dup3\n        /* \"#utility.yul\":4713:4732   */\n      add\n        /* \"#utility.yul\":4705:4732   */\n      swap1\n      pop\n        /* \"#utility.yul\":4742:4813   */\n      tag_297\n        /* \"#utility.yul\":4810:4811   */\n      0x00\n        /* \"#utility.yul\":4799:4808   */\n      dup4\n        /* \"#utility.yul\":4795:4812   */\n      add\n        /* \"#utility.yul\":4786:4792   */\n      dup9\n        /* \"#utility.yul\":4742:4813   */\n      tag_268\n      jump\t// in\n    tag_297:\n        /* \"#utility.yul\":4823:4895   */\n      tag_298\n        /* \"#utility.yul\":4891:4893   */\n      0x20\n        /* \"#utility.yul\":4880:4889   */\n      dup4\n        /* \"#utility.yul\":4876:4894   */\n      add\n        /* \"#utility.yul\":4867:4873   */\n      dup8\n        /* \"#utility.yul\":4823:4895   */\n      tag_268\n      jump\t// in\n    tag_298:\n        /* \"#utility.yul\":4905:4977   */\n      tag_299\n        /* \"#utility.yul\":4973:4975   */\n      0x40\n        /* \"#utility.yul\":4962:4971   */\n      dup4\n        /* \"#utility.yul\":4958:4976   */\n      add\n        /* \"#utility.yul\":4949:4955   */\n      dup7\n        /* \"#utility.yul\":4905:4977   */\n      tag_268\n      jump\t// in\n    tag_299:\n        /* \"#utility.yul\":4987:5059   */\n      tag_300\n        /* \"#utility.yul\":5055:5057   */\n      0x60\n        /* \"#utility.yul\":5044:5053   */\n      dup4\n        /* \"#utility.yul\":5040:5058   */\n      add\n        /* \"#utility.yul\":5031:5037   */\n      dup6\n        /* \"#utility.yul\":4987:5059   */\n      tag_282\n      jump\t// in\n    tag_300:\n        /* \"#utility.yul\":5069:5142   */\n      tag_301\n        /* \"#utility.yul\":5137:5140   */\n      0x80\n        /* \"#utility.yul\":5126:5135   */\n      dup4\n        /* \"#utility.yul\":5122:5141   */\n      add\n        /* \"#utility.yul\":5113:5119   */\n      dup5\n        /* \"#utility.yul\":5069:5142   */\n      tag_260\n      jump\t// in\n    tag_301:\n        /* \"#utility.yul\":4485:5149   */\n      swap7\n      swap6\n      pop\n      pop\n      pop\n      pop\n      pop\n      pop\n      jump\t// out\n        /* \"#utility.yul\":5155:5468   */\n    tag_32:\n        /* \"#utility.yul\":5268:5272   */\n      0x00\n        /* \"#utility.yul\":5306:5308   */\n      0x20\n        /* \"#utility.yul\":5295:5304   */\n      dup3\n        /* \"#utility.yul\":5291:5309   */\n      add\n        /* \"#utility.yul\":5283:5309   */\n      swap1\n      pop\n        /* \"#utility.yul\":5355:5364   */\n      dup2\n        /* \"#utility.yul\":5349:5353   */\n      dup2\n        /* \"#utility.yul\":5345:5365   */\n      sub\n        /* \"#utility.yul\":5341:5342   */\n      0x00\n        /* \"#utility.yul\":5330:5339   */\n      dup4\n        /* \"#utility.yul\":5326:5343   */\n      add\n        /* \"#utility.yul\":5319:5366   */\n      mstore\n        /* \"#utility.yul\":5383:5461   */\n      tag_303\n        /* \"#utility.yul\":5456:5460   */\n      dup2\n        /* \"#utility.yul\":5447:5453   */\n      dup5\n        /* \"#utility.yul\":5383:5461   */\n      tag_272\n      jump\t// in\n    tag_303:\n        /* \"#utility.yul\":5375:5461   */\n      swap1\n      pop\n        /* \"#utility.yul\":5155:5468   */\n      swap3\n      swap2\n      pop\n      pop\n      jump\t// out\n        /* \"#utility.yul\":5474:5696   */\n    tag_42:\n        /* \"#utility.yul\":5567:5571   */\n      0x00\n        /* \"#utility.yul\":5605:5607   */\n      0x20\n        /* \"#utility.yul\":5594:5603   */\n      dup3\n        /* \"#utility.yul\":5590:5608   */\n      add\n        /* \"#utility.yul\":5582:5608   */\n      swap1\n      pop\n        /* \"#utility.yul\":5618:5689   */\n      tag_305\n        /* \"#utility.yul\":5686:5687   */\n      0x00\n        /* \"#utility.yul\":5675:5684   */\n      dup4\n        /* \"#utility.yul\":5671:5688   */\n      add\n        /* \"#utility.yul\":5662:5668   */\n      dup5\n        /* \"#utility.yul\":5618:5689   */\n      tag_282\n      jump\t// in\n    tag_305:\n        /* \"#utility.yul\":5474:5696   */\n      swap3\n      swap2\n      pop\n      pop\n      jump\t// out\n        /* \"#utility.yul\":5702:5916   */\n    tag_60:\n        /* \"#utility.yul\":5791:5795   */\n      0x00\n        /* \"#utility.yul\":5829:5831   */\n      0x20\n        /* \"#utility.yul\":5818:5827   */\n      dup3\n        /* \"#utility.yul\":5814:5832   */\n      add\n        /* \"#utility.yul\":5806:5832   */\n      swap1\n      pop\n        /* \"#utility.yul\":5842:5909   */\n      tag_307\n        /* \"#utility.yul\":5906:5907   */\n      0x00\n        /* \"#utility.yul\":5895:5904   */\n      dup4\n        /* \"#utility.yul\":5891:5908   */\n      add\n        /* \"#utility.yul\":5882:5888   */\n      dup5\n        /* \"#utility.yul\":5842:5909   */\n      tag_286\n      jump\t// in\n    tag_307:\n        /* \"#utility.yul\":5702:5916   */\n      swap3\n      swap2\n      pop\n      pop\n      jump\t// out\n        /* \"#utility.yul\":6003:6102   */\n    tag_275:\n        /* \"#utility.yul\":6055:6061   */\n      0x00\n        /* \"#utility.yul\":6089:6094   */\n      dup2\n        /* \"#utility.yul\":6083:6095   */\n      mload\n        /* \"#utility.yul\":6073:6095   */\n      swap1\n      pop\n        /* \"#utility.yul\":6003:6102   */\n      swap2\n      swap1\n      pop\n      jump\t// out\n        /* \"#utility.yul\":6108:6277   */\n    tag_277:\n        /* \"#utility.yul\":6192:6203   */\n      0x00\n        /* \"#utility.yul\":6226:6232   */\n      dup3\n        /* \"#utility.yul\":6221:6224   */\n      dup3\n        /* \"#utility.yul\":6214:6233   */\n      mstore\n        /* \"#utility.yul\":6266:6270   */\n      0x20\n        /* \"#utility.yul\":6261:6264   */\n      dup3\n        /* \"#utility.yul\":6257:6271   */\n      add\n        /* \"#utility.yul\":6242:6271   */\n      swap1\n      pop\n        /* \"#utility.yul\":6108:6277   */\n      swap3\n      swap2\n      pop\n      pop\n      jump\t// out\n        /* \"#utility.yul\":6283:6588   */\n    tag_142:\n        /* \"#utility.yul\":6323:6326   */\n      0x00\n        /* \"#utility.yul\":6342:6362   */\n      tag_313\n        /* \"#utility.yul\":6360:6361   */\n      dup3\n        /* \"#utility.yul\":6342:6362   */\n      tag_285\n      jump\t// in\n    tag_313:\n        /* \"#utility.yul\":6337:6362   */\n      swap2\n      pop\n        /* \"#utility.yul\":6376:6396   */\n      tag_314\n        /* \"#utility.yul\":6394:6395   */\n      dup4\n        /* \"#utility.yul\":6376:6396   */\n      tag_285\n      jump\t// in\n    tag_314:\n        /* \"#utility.yul\":6371:6396   */\n      swap3\n      pop\n        /* \"#utility.yul\":6530:6531   */\n      dup3\n        /* \"#utility.yul\":6462:6528   */\n      0xffffffffffffffffffffffffffffffffffffffffffffffffffffffffffffffff\n        /* \"#utility.yul\":6458:6532   */\n      sub\n        /* \"#utility.yul\":6455:6456   */\n      dup3\n        /* \"#utility.yul\":6452:6533   */\n      gt\n        /* \"#utility.yul\":6449:6556   */\n      iszero\n      tag_315\n      jumpi\n        /* \"#utility.yul\":6536:6554   */\n      tag_316\n      tag_317\n      jump\t// in\n    tag_316:\n        /* \"#utility.yul\":6449:6556   */\n    tag_315:\n        /* \"#utility.yul\":6580:6581   */\n      dup3\n        /* \"#utility.yul\":6577:6578   */\n      dup3\n        /* \"#utility.yul\":6573:6582   */\n      add\n        /* \"#utility.yul\":6566:6582   */\n      swap1\n      pop\n        /* \"#utility.yul\":6283:6588   */\n      swap3\n      swap2\n      pop\n      pop\n      jump\t// out\n        /* \"#utility.yul\":6594:6779   */\n    tag_154:\n        /* \"#utility.yul\":6634:6635   */\n      0x00\n        /* \"#utility.yul\":6651:6671   */\n      tag_319\n        /* \"#utility.yul\":6669:6670   */\n      dup3\n        /* \"#utility.yul\":6651:6671   */\n      tag_285\n      jump\t// in\n    tag_319:\n        /* \"#utility.yul\":6646:6671   */\n      swap2\n      pop\n        /* \"#utility.yul\":6685:6705   */\n      tag_320\n        /* \"#utility.yul\":6703:6704   */\n      dup4\n        /* \"#utility.yul\":6685:6705   */\n      tag_285\n      jump\t// in\n    tag_320:\n        /* \"#utility.yul\":6680:6705   */\n      swap3\n      pop\n        /* \"#utility.yul\":6724:6725   */\n      dup3\n        /* \"#utility.yul\":6714:6749   */\n      tag_321\n      jumpi\n        /* \"#utility.yul\":6729:6747   */\n      tag_322\n      tag_323\n      jump\t// in\n    tag_322:\n        /* \"#utility.yul\":6714:6749   */\n    tag_321:\n        /* \"#utility.yul\":6771:6772   */\n      dup3\n        /* \"#utility.yul\":6768:6769   */\n      dup3\n        /* \"#utility.yul\":6764:6773   */\n      div\n        /* \"#utility.yul\":6759:6773   */\n      swap1\n      pop\n        /* \"#utility.yul\":6594:6779   */\n      swap3\n      swap2\n      pop\n      pop\n      jump\t// out\n        /* \"#utility.yul\":6785:7633   */\n    tag_324:\n        /* \"#utility.yul\":6846:6851   */\n      0x00\n        /* \"#utility.yul\":6853:6857   */\n      dup1\n        /* \"#utility.yul\":6877:6883   */\n      dup3\n        /* \"#utility.yul\":6868:6883   */\n      swap2\n      pop\n        /* \"#utility.yul\":6901:6906   */\n      dup4\n        /* \"#utility.yul\":6892:6906   */\n      swap1\n      pop\n        /* \"#utility.yul\":6915:7627   */\n    tag_326:\n        /* \"#utility.yul\":6936:6937   */\n      0x01\n        /* \"#utility.yul\":6926:6934   */\n      dup6\n        /* \"#utility.yul\":6923:6938   */\n      gt\n        /* \"#utility.yul\":6915:7627   */\n      iszero\n      tag_328\n      jumpi\n        /* \"#utility.yul\":7031:7035   */\n      dup1\n        /* \"#utility.yul\":7026:7029   */\n      dup7\n        /* \"#utility.yul\":7022:7036   */\n      div\n        /* \"#utility.yul\":7016:7020   */\n      dup2\n        /* \"#utility.yul\":7013:7037   */\n      gt\n        /* \"#utility.yul\":7010:7060   */\n      iszero\n      tag_329\n      jumpi\n        /* \"#utility.yul\":7040:7058   */\n      tag_330\n      tag_317\n      jump\t// in\n    tag_330:\n        /* \"#utility.yul\":7010:7060   */\n    tag_329:\n        /* \"#utility.yul\":7090:7091   */\n      0x01\n        /* \"#utility.yul\":7080:7088   */\n      dup6\n        /* \"#utility.yul\":7076:7092   */\n      and\n        /* \"#utility.yul\":7073:7524   */\n      iszero\n      tag_331\n      jumpi\n        /* \"#utility.yul\":7505:7509   */\n      dup1\n        /* \"#utility.yul\":7498:7503   */\n      dup3\n        /* \"#utility.yul\":7494:7510   */\n      mul\n        /* \"#utility.yul\":7485:7510   */\n      swap2\n      pop\n        /* \"#utility.yul\":7073:7524   */\n    tag_331:\n        /* \"#utility.yul\":7555:7559   */\n      dup1\n        /* \"#utility.yul\":7549:7553   */\n      dup2\n        /* \"#utility.yul\":7545:7560   */\n      mul\n        /* \"#utility.yul\":7537:7560   */\n      swap1\n      pop\n        /* \"#utility.yul\":7585:7617   */\n      tag_332\n        /* \"#utility.yul\":7608:7616   */\n      dup6\n        /* \"#utility.yul\":7585:7617   */\n      tag_333\n      jump\t// in\n    tag_332:\n        /* \"#utility.yul\":7573:7617   */\n      swap5\n      pop\n        /* \"#utility.yul\":6915:7627   */\n      jump(tag_326)\n    tag_328:\n        /* \"#utility.yul\":6785:7633   */\n      swap5\n      pop\n      swap5\n      swap3\n      pop\n      pop\n      pop\n      jump\t// out\n        /* \"#utility.yul\":7639:7924   */\n    tag_166:\n        /* \"#utility.yul\":7699:7704   */\n      0x00\n        /* \"#utility.yul\":7723:7746   */\n      tag_335\n        /* \"#utility.yul\":7741:7745   */\n      dup3\n        /* \"#utility.yul\":7723:7746   */\n      tag_285\n      jump\t// in\n    tag_335:\n        /* \"#utility.yul\":7715:7746   */\n      swap2\n      pop\n        /* \"#utility.yul\":7767:7794   */\n      tag_336\n        /* \"#utility.yul\":7785:7793   */\n      dup4\n        /* \"#utility.yul\":7767:7794   */\n      tag_285\n      jump\t// in\n    tag_336:\n        /* \"#utility.yul\":7755:7794   */\n      swap3\n      pop\n        /* \"#utility.yul\":7813:7917   */\n      tag_337\n        /* \"#utility.yul\":7850:7916   */\n      0xffffffffffffffffffffffffffffffffffffffffffffffffffffffffffffffff\n        /* \"#utility.yul\":7840:7848   */\n      dup5\n        /* \"#utility.yul\":7834:7838   */\n      dup5\n        /* \"#utility.yul\":7813:7917   */\n      tag_338\n      jump\t// in\n    tag_337:\n        /* \"#utility.yul\":7804:7917   */\n      swap1\n      pop\n        /* \"#utility.yul\":7639:7924   */\n      swap3\n      swap2\n      pop\n      pop\n      jump\t// out\n        /* \"#utility.yul\":7930:9003   */\n    tag_338:\n        /* \"#utility.yul\":7984:7989   */\n      0x00\n        /* \"#utility.yul\":8175:8183   */\n      dup3\n        /* \"#utility.yul\":8165:8205   */\n      tag_340\n      jumpi\n        /* \"#utility.yul\":8196:8197   */\n      0x01\n        /* \"#utility.yul\":8187:8197   */\n      swap1\n      pop\n        /* \"#utility.yul\":8198:8203   */\n      jump(tag_339)\n        /* \"#utility.yul\":8165:8205   */\n    tag_340:\n        /* \"#utility.yul\":8224:8228   */\n      dup2\n        /* \"#utility.yul\":8214:8250   */\n      tag_341\n      jumpi\n        /* \"#utility.yul\":8241:8242   */\n      0x00\n        /* \"#utility.yul\":8232:8242   */\n      swap1\n      pop\n        /* \"#utility.yul\":8243:8248   */\n      jump(tag_339)\n        /* \"#utility.yul\":8214:8250   */\n    tag_341:\n        /* \"#utility.yul\":8310:8314   */\n      dup2\n        /* \"#utility.yul\":8358:8359   */\n      0x01\n        /* \"#utility.yul\":8353:8380   */\n      dup2\n      eq\n      tag_343\n      jumpi\n        /* \"#utility.yul\":8394:8395   */\n      0x02\n        /* \"#utility.yul\":8389:8580   */\n      dup2\n      eq\n      tag_344\n      jumpi\n        /* \"#utility.yul\":8303:8580   */\n      jump(tag_342)\n        /* \"#utility.yul\":8353:8380   */\n    tag_343:\n        /* \"#utility.yul\":8371:8372   */\n      0x01\n        /* \"#utility.yul\":8362:8372   */\n      swap2\n      pop\n        /* \"#utility.yul\":8373:8378   */\n      pop\n      jump(tag_339)\n        /* \"#utility.yul\":8389:8580   */\n    tag_344:\n        /* \"#utility.yul\":8434:8437   */\n      0xff\n        /* \"#utility.yul\":8424:8432   */\n      dup5\n        /* \"#utility.yul\":8421:8438   */\n      gt\n        /* \"#utility.yul\":8418:8461   */\n      iszero\n      tag_345\n      jumpi\n        /* \"#utility.yul\":8441:8459   */\n      tag_346\n      tag_317\n      jump\t// in\n    tag_346:\n        /* \"#utility.yul\":8418:8461   */\n    tag_345:\n        /* \"#utility.yul\":8490:8498   */\n      dup4\n        /* \"#utility.yul\":8487:8488   */\n      0x02\n        /* \"#utility.yul\":8483:8499   */\n      exp\n        /* \"#utility.yul\":8474:8499   */\n      swap2\n      pop\n        /* \"#utility.yul\":8525:8528   */\n      dup5\n        /* \"#utility.yul\":8518:8523   */\n      dup3\n        /* \"#utility.yul\":8515:8529   */\n      gt\n        /* \"#utility.yul\":8512:8552   */\n      iszero\n      tag_347\n      jumpi\n        /* \"#utility.yul\":8532:8550   */\n      tag_348\n      tag_317\n      jump\t// in\n    tag_348:\n        /* \"#utility.yul\":8512:8552   */\n    tag_347:\n        /* \"#utility.yul\":8565:8570   */\n      pop\n      jump(tag_339)\n        /* \"#utility.yul\":8303:8580   */\n    tag_342:\n      pop\n        /* \"#utility.yul\":8689:8691   */\n      0x20\n        /* \"#utility.yul\":8679:8687   */\n      dup4\n        /* \"#utility.yul\":8676:8692   */\n      lt\n        /* \"#utility.yul\":8670:8673   */\n      0x0133\n        /* \"#utility.yul\":8664:8668   */\n      dup4\n        /* \"#utility.yul\":8661:8674   */\n      lt\n        /* \"#utility.yul\":8657:8693   */\n      and\n        /* \"#utility.yul\":8639:8641   */\n      0x4e\n        /* \"#utility.yul\":8629:8637   */\n      dup5\n        /* \"#utility.yul\":8626:8642   */\n      lt\n        /* \"#utility.yul\":8621:8623   */\n      0x0b\n        /* \"#utility.yul\":8615:8619   */\n      dup5\n        /* \"#utility.yul\":8612:8624   */\n      lt\n        /* \"#utility.yul\":8608:8643   */\n      and\n        /* \"#utility.yul\":8592:8703   */\n      or\n        /* \"#utility.yul\":8589:8835   */\n      iszero\n      tag_349\n      jumpi\n        /* \"#utility.yul\":8745:8753   */\n      dup3\n        /* \"#utility.yul\":8739:8743   */\n      dup3\n        /* \"#utility.yul\":8735:8754   */\n      exp\n        /* \"#utility.yul\":8726:8754   */\n      swap1\n      pop\n        /* \"#utility.yul\":8780:8783   */\n      dup4\n        /* \"#utility.yul\":8773:8778   */\n      dup2\n        /* \"#utility.yul\":8770:8784   */\n      gt\n        /* \"#utility.yul\":8767:8807   */\n      iszero\n      tag_350\n      jumpi\n        /* \"#utility.yul\":8787:8805   */\n      tag_351\n      tag_317\n      jump\t// in\n    tag_351:\n        /* \"#utility.yul\":8767:8807   */\n    tag_350:\n        /* \"#utility.yul\":8820:8825   */\n      jump(tag_339)\n        /* \"#utility.yul\":8589:8835   */\n    tag_349:\n        /* \"#utility.yul\":8860:8902   */\n      tag_352\n        /* \"#utility.yul\":8898:8901   */\n      dup5\n        /* \"#utility.yul\":8888:8896   */\n      dup5\n        /* \"#utility.yul\":8882:8886   */\n      dup5\n        /* \"#utility.yul\":8879:8880   */\n      0x01\n        /* \"#utility.yul\":8860:8902   */\n      tag_324\n      jump\t// in\n    tag_352:\n        /* \"#utility.yul\":8845:8902   */\n      swap3\n      pop\n      swap1\n      pop\n        /* \"#utility.yul\":8934:8938   */\n      dup2\n        /* \"#utility.yul\":8929:8932   */\n      dup5\n        /* \"#utility.yul\":8925:8939   */\n      div\n        /* \"#utility.yul\":8918:8923   */\n      dup2\n        /* \"#utility.yul\":8915:8940   */\n      gt\n        /* \"#utility.yul\":8912:8963   */\n      iszero\n      tag_353\n      jumpi\n        /* \"#utility.yul\":8943:8961   */\n      tag_354\n      tag_317\n      jump\t// in\n    tag_354:\n        /* \"#utility.yul\":8912:8963   */\n    tag_353:\n        /* \"#utility.yul\":8992:8996   */\n      dup2\n        /* \"#utility.yul\":8985:8990   */\n      dup2\n        /* \"#utility.yul\":8981:8997   */\n      mul\n        /* \"#utility.yul\":8972:8997   */\n      swap1\n      pop\n        /* \"#utility.yul\":7930:9003   */\n    tag_339:\n      swap4\n      swap3\n      pop\n      pop\n      pop\n      jump\t// out\n        /* \"#utility.yul\":9009:9357   */\n    tag_139:\n        /* \"#utility.yul\":9049:9056   */\n      0x00\n        /* \"#utility.yul\":9072:9092   */\n      tag_356\n        /* \"#utility.yul\":9090:9091   */\n      dup3\n        /* \"#utility.yul\":9072:9092   */\n      tag_285\n      jump\t// in\n    tag_356:\n        /* \"#utility.yul\":9067:9092   */\n      swap2\n      pop\n        /* \"#utility.yul\":9106:9126   */\n      tag_357\n        /* \"#utility.yul\":9124:9125   */\n      dup4\n        /* \"#utility.yul\":9106:9126   */\n      tag_285\n      jump\t// in\n    tag_357:\n        /* \"#utility.yul\":9101:9126   */\n      swap3\n      pop\n        /* \"#utility.yul\":9294:9295   */\n      dup2\n        /* \"#utility.yul\":9226:9292   */\n      0xffffffffffffffffffffffffffffffffffffffffffffffffffffffffffffffff\n        /* \"#utility.yul\":9222:9296   */\n      div\n        /* \"#utility.yul\":9219:9220   */\n      dup4\n        /* \"#utility.yul\":9216:9297   */\n      gt\n        /* \"#utility.yul\":9211:9212   */\n      dup3\n        /* \"#utility.yul\":9204:9213   */\n      iszero\n        /* \"#utility.yul\":9197:9214   */\n      iszero\n        /* \"#utility.yul\":9193:9298   */\n      and\n        /* \"#utility.yul\":9190:9321   */\n      iszero\n      tag_358\n      jumpi\n        /* \"#utility.yul\":9301:9319   */\n      tag_359\n      tag_317\n      jump\t// in\n    tag_359:\n        /* \"#utility.yul\":9190:9321   */\n    tag_358:\n        /* \"#utility.yul\":9349:9350   */\n      dup3\n        /* \"#utility.yul\":9346:9347   */\n      dup3\n        /* \"#utility.yul\":9342:9351   */\n      mul\n        /* \"#utility.yul\":9331:9351   */\n      swap1\n      pop\n        /* \"#utility.yul\":9009:9357   */\n      swap3\n      swap2\n      pop\n      pop\n      jump\t// out\n        /* \"#utility.yul\":9363:9554   */\n    tag_137:\n        /* \"#utility.yul\":9403:9407   */\n      0x00\n        /* \"#utility.yul\":9423:9443   */\n      tag_361\n        /* \"#utility.yul\":9441:9442   */\n      dup3\n        /* \"#utility.yul\":9423:9443   */\n      tag_285\n      jump\t// in\n    tag_361:\n        /* \"#utility.yul\":9418:9443   */\n      swap2\n      pop\n        /* \"#utility.yul\":9457:9477   */\n      tag_362\n        /* \"#utility.yul\":9475:9476   */\n      dup4\n        /* \"#utility.yul\":9457:9477   */\n      tag_285\n      jump\t// in\n    tag_362:\n        /* \"#utility.yul\":9452:9477   */\n      swap3\n      pop\n        /* \"#utility.yul\":9496:9497   */\n      dup3\n        /* \"#utility.yul\":9493:9494   */\n      dup3\n        /* \"#utility.yul\":9490:9498   */\n      lt\n        /* \"#utility.yul\":9487:9521   */\n      iszero\n      tag_363\n      jumpi\n        /* \"#utility.yul\":9501:9519   */\n      tag_364\n      tag_317\n      jump\t// in\n    tag_364:\n        /* \"#utility.yul\":9487:9521   */\n    tag_363:\n        /* \"#utility.yul\":9546:9547   */\n      dup3\n        /* \"#utility.yul\":9543:9544   */\n      dup3\n        /* \"#utility.yul\":9539:9548   */\n      sub\n        /* \"#utility.yul\":9531:9548   */\n      swap1\n      pop\n        /* \"#utility.yul\":9363:9554   */\n      swap3\n      swap2\n      pop\n      pop\n      jump\t// out\n        /* \"#utility.yul\":9560:9656   */\n    tag_263:\n        /* \"#utility.yul\":9597:9604   */\n      0x00\n        /* \"#utility.yul\":9626:9650   */\n      tag_366\n        /* \"#utility.yul\":9644:9649   */\n      dup3\n        /* \"#utility.yul\":9626:9650   */\n      tag_367\n      jump\t// in\n    tag_366:\n        /* \"#utility.yul\":9615:9650   */\n      swap1\n      pop\n        /* \"#utility.yul\":9560:9656   */\n      swap2\n      swap1\n      pop\n      jump\t// out\n        /* \"#utility.yul\":9662:9752   */\n    tag_267:\n        /* \"#utility.yul\":9696:9703   */\n      0x00\n        /* \"#utility.yul\":9739:9744   */\n      dup2\n        /* \"#utility.yul\":9732:9745   */\n      iszero\n        /* \"#utility.yul\":9725:9746   */\n      iszero\n        /* \"#utility.yul\":9714:9746   */\n      swap1\n      pop\n        /* \"#utility.yul\":9662:9752   */\n      swap2\n      swap1\n      pop\n      jump\t// out\n        /* \"#utility.yul\":9758:9835   */\n    tag_271:\n        /* \"#utility.yul\":9795:9802   */\n      0x00\n        /* \"#utility.yul\":9824:9829   */\n      dup2\n        /* \"#utility.yul\":9813:9829   */\n      swap1\n      pop\n        /* \"#utility.yul\":9758:9835   */\n      swap2\n      swap1\n      pop\n      jump\t// out\n        /* \"#utility.yul\":9841:9917   */\n    tag_370:\n        /* \"#utility.yul\":9877:9884   */\n      0x00\n        /* \"#utility.yul\":9906:9911   */\n      dup2\n        /* \"#utility.yul\":9895:9911   */\n      swap1\n      pop\n        /* \"#utility.yul\":9841:9917   */\n      swap2\n      swap1\n      pop\n      jump\t// out\n        /* \"#utility.yul\":9923:10049   */\n    tag_367:\n        /* \"#utility.yul\":9960:9967   */\n      0x00\n        /* \"#utility.yul\":10000:10042   */\n      0xffffffffffffffffffffffffffffffffffffffff\n        /* \"#utility.yul\":9993:9998   */\n      dup3\n        /* \"#utility.yul\":9989:10043   */\n      and\n        /* \"#utility.yul\":9978:10043   */\n      swap1\n      pop\n        /* \"#utility.yul\":9923:10049   */\n      swap2\n      swap1\n      pop\n      jump\t// out\n        /* \"#utility.yul\":10055:10132   */\n    tag_285:\n        /* \"#utility.yul\":10092:10099   */\n      0x00\n        /* \"#utility.yul\":10121:10126   */\n      dup2\n        /* \"#utility.yul\":10110:10126   */\n      swap1\n      pop\n        /* \"#utility.yul\":10055:10132   */\n      swap2\n      swap1\n      pop\n      jump\t// out\n        /* \"#utility.yul\":10138:10224   */\n    tag_289:\n        /* \"#utility.yul\":10173:10180   */\n      0x00\n        /* \"#utility.yul\":10213:10217   */\n      0xff\n        /* \"#utility.yul\":10206:10211   */\n      dup3\n        /* \"#utility.yul\":10202:10218   */\n      and\n        /* \"#utility.yul\":10191:10218   */\n      swap1\n      pop\n        /* \"#utility.yul\":10138:10224   */\n      swap2\n      swap1\n      pop\n      jump\t// out\n        /* \"#utility.yul\":10230:10537   */\n    tag_279:\n        /* \"#utility.yul\":10298:10299   */\n      0x00\n        /* \"#utility.yul\":10308:10421   */\n    tag_376:\n        /* \"#utility.yul\":10322:10328   */\n      dup4\n        /* \"#utility.yul\":10319:10320   */\n      dup2\n        /* \"#utility.yul\":10316:10329   */\n      lt\n        /* \"#utility.yul\":10308:10421   */\n      iszero\n      tag_378\n      jumpi\n        /* \"#utility.yul\":10407:10408   */\n      dup1\n        /* \"#utility.yul\":10402:10405   */\n      dup3\n        /* \"#utility.yul\":10398:10409   */\n      add\n        /* \"#utility.yul\":10392:10410   */\n      mload\n        /* \"#utility.yul\":10388:10389   */\n      dup2\n        /* \"#utility.yul\":10383:10386   */\n      dup5\n        /* \"#utility.yul\":10379:10390   */\n      add\n        /* \"#utility.yul\":10372:10411   */\n      mstore\n        /* \"#utility.yul\":10344:10346   */\n      0x20\n        /* \"#utility.yul\":10341:10342   */\n      dup2\n        /* \"#utility.yul\":10337:10347   */\n      add\n        /* \"#utility.yul\":10332:10347   */\n      swap1\n      pop\n        /* \"#utility.yul\":10308:10421   */\n      jump(tag_376)\n    tag_378:\n        /* \"#utility.yul\":10439:10445   */\n      dup4\n        /* \"#utility.yul\":10436:10437   */\n      dup2\n        /* \"#utility.yul\":10433:10446   */\n      gt\n        /* \"#utility.yul\":10430:10531   */\n      iszero\n      tag_379\n      jumpi\n        /* \"#utility.yul\":10519:10520   */\n      0x00\n        /* \"#utility.yul\":10510:10516   */\n      dup5\n        /* \"#utility.yul\":10505:10508   */\n      dup5\n        /* \"#utility.yul\":10501:10517   */\n      add\n        /* \"#utility.yul\":10494:10521   */\n      mstore\n        /* \"#utility.yul\":10430:10531   */\n    tag_379:\n        /* \"#utility.yul\":10279:10537   */\n      pop\n        /* \"#utility.yul\":10230:10537   */\n      pop\n      pop\n      pop\n      jump\t// out\n        /* \"#utility.yul\":10543:10863   */\n    tag_123:\n        /* \"#utility.yul\":10587:10593   */\n      0x00\n        /* \"#utility.yul\":10624:10625   */\n      0x02\n        /* \"#utility.yul\":10618:10622   */\n      dup3\n        /* \"#utility.yul\":10614:10626   */\n      div\n        /* \"#utility.yul\":10604:10626   */\n      swap1\n      pop\n        /* \"#utility.yul\":10671:10672   */\n      0x01\n        /* \"#utility.yul\":10665:10669   */\n      dup3\n        /* \"#utility.yul\":10661:10673   */\n      and\n        /* \"#utility.yul\":10692:10710   */\n      dup1\n        /* \"#utility.yul\":10682:10763   */\n      tag_381\n      jumpi\n        /* \"#utility.yul\":10748:10752   */\n      0x7f\n        /* \"#utility.yul\":10740:10746   */\n      dup3\n        /* \"#utility.yul\":10736:10753   */\n      and\n        /* \"#utility.yul\":10726:10753   */\n      swap2\n      pop\n        /* \"#utility.yul\":10682:10763   */\n    tag_381:\n        /* \"#utility.yul\":10810:10812   */\n      0x20\n        /* \"#utility.yul\":10802:10808   */\n      dup3\n        /* \"#utility.yul\":10799:10813   */\n      lt\n        /* \"#utility.yul\":10779:10797   */\n      dup2\n        /* \"#utility.yul\":10776:10814   */\n      eq\n        /* \"#utility.yul\":10773:10857   */\n      iszero\n      tag_382\n      jumpi\n        /* \"#utility.yul\":10829:10847   */\n      tag_383\n      tag_384\n      jump\t// in\n    tag_383:\n        /* \"#utility.yul\":10773:10857   */\n    tag_382:\n        /* \"#utility.yul\":10594:10863   */\n      pop\n        /* \"#utility.yul\":10543:10863   */\n      swap2\n      swap1\n      pop\n      jump\t// out\n        /* \"#utility.yul\":10869:11045   */\n    tag_169:\n        /* \"#utility.yul\":10901:10902   */\n      0x00\n        /* \"#utility.yul\":10918:10938   */\n      tag_386\n        /* \"#utility.yul\":10936:10937   */\n      dup3\n        /* \"#utility.yul\":10918:10938   */\n      tag_285\n      jump\t// in\n    tag_386:\n        /* \"#utility.yul\":10913:10938   */\n      swap2\n      pop\n        /* \"#utility.yul\":10952:10972   */\n      tag_387\n        /* \"#utility.yul\":10970:10971   */\n      dup4\n        /* \"#utility.yul\":10952:10972   */\n      tag_285\n      jump\t// in\n    tag_387:\n        /* \"#utility.yul\":10947:10972   */\n      swap3\n      pop\n        /* \"#utility.yul\":10991:10992   */\n      dup3\n        /* \"#utility.yul\":10981:11016   */\n      tag_388\n      jumpi\n        /* \"#utility.yul\":10996:11014   */\n      tag_389\n      tag_323\n      jump\t// in\n    tag_389:\n        /* \"#utility.yul\":10981:11016   */\n    tag_388:\n        /* \"#utility.yul\":11037:11038   */\n      dup3\n        /* \"#utility.yul\":11034:11035   */\n      dup3\n        /* \"#utility.yul\":11030:11039   */\n      mod\n        /* \"#utility.yul\":11025:11039   */\n      swap1\n      pop\n        /* \"#utility.yul\":10869:11045   */\n      swap3\n      swap2\n      pop\n      pop\n      jump\t// out\n        /* \"#utility.yul\":11051:11279   */\n    tag_219:\n        /* \"#utility.yul\":11086:11089   */\n      0x00\n        /* \"#utility.yul\":11109:11132   */\n      tag_391\n        /* \"#utility.yul\":11126:11131   */\n      dup3\n        /* \"#utility.yul\":11109:11132   */\n      tag_370\n      jump\t// in\n    tag_391:\n        /* \"#utility.yul\":11100:11132   */\n      swap2\n      pop\n        /* \"#utility.yul\":11154:11220   */\n      0x8000000000000000000000000000000000000000000000000000000000000000\n        /* \"#utility.yul\":11147:11152   */\n      dup3\n        /* \"#utility.yul\":11144:11221   */\n      eq\n        /* \"#utility.yul\":11141:11244   */\n      iszero\n      tag_392\n      jumpi\n        /* \"#utility.yul\":11224:11242   */\n      tag_393\n      tag_317\n      jump\t// in\n    tag_393:\n        /* \"#utility.yul\":11141:11244   */\n    tag_392:\n        /* \"#utility.yul\":11267:11272   */\n      dup2\n        /* \"#utility.yul\":11264:11265   */\n      0x00\n        /* \"#utility.yul\":11260:11273   */\n      sub\n        /* \"#utility.yul\":11253:11273   */\n      swap1\n      pop\n        /* \"#utility.yul\":11051:11279   */\n      swap2\n      swap1\n      pop\n      jump\t// out\n        /* \"#utility.yul\":11285:11465   */\n    tag_317:\n        /* \"#utility.yul\":11333:11410   */\n      0x4e487b7100000000000000000000000000000000000000000000000000000000\n        /* \"#utility.yul\":11330:11331   */\n      0x00\n        /* \"#utility.yul\":11323:11411   */\n      mstore\n        /* \"#utility.yul\":11430:11434   */\n      0x11\n        /* \"#utility.yul\":11427:11428   */\n      0x04\n        /* \"#utility.yul\":11420:11435   */\n      mstore\n        /* \"#utility.yul\":11454:11458   */\n      0x24\n        /* \"#utility.yul\":11451:11452   */\n      0x00\n        /* \"#utility.yul\":11444:11459   */\n      revert\n        /* \"#utility.yul\":11471:11651   */\n    tag_323:\n        /* \"#utility.yul\":11519:11596   */\n      0x4e487b7100000000000000000000000000000000000000000000000000000000\n        /* \"#utility.yul\":11516:11517   */\n      0x00\n        /* \"#utility.yul\":11509:11597   */\n      mstore\n        /* \"#utility.yul\":11616:11620   */\n      0x12\n        /* \"#utility.yul\":11613:11614   */\n      0x04\n        /* \"#utility.yul\":11606:11621   */\n      mstore\n        /* \"#utility.yul\":11640:11644   */\n      0x24\n        /* \"#utility.yul\":11637:11638   */\n      0x00\n        /* \"#utility.yul\":11630:11645   */\n      revert\n        /* \"#utility.yul\":11657:11837   */\n    tag_384:\n        /* \"#utility.yul\":11705:11782   */\n      0x4e487b7100000000000000000000000000000000000000000000000000000000\n        /* \"#utility.yul\":11702:11703   */\n      0x00\n        /* \"#utility.yul\":11695:11783   */\n      mstore\n        /* \"#utility.yul\":11802:11806   */\n      0x22\n        /* \"#utility.yul\":11799:11800   */\n      0x04\n        /* \"#utility.yul\":11792:11807   */\n      mstore\n        /* \"#utility.yul\":11826:11830   */\n      0x24\n        /* \"#utility.yul\":11823:11824   */\n      0x00\n        /* \"#utility.yul\":11816:11831   */\n      revert\n        /* \"#utility.yul\":11966:12083   */\n    tag_237:\n        /* \"#utility.yul\":12075:12076   */\n      0x00\n        /* \"#utility.yul\":12072:12073   */\n      dup1\n        /* \"#utility.yul\":12065:12077   */\n      revert\n        /* \"#utility.yul\":12089:12191   */\n    tag_281:\n        /* \"#utility.yul\":12130:12136   */\n      0x00\n        /* \"#utility.yul\":12181:12183   */\n      0x1f\n        /* \"#utility.yul\":12177:12184   */\n      not\n        /* \"#utility.yul\":12172:12174   */\n      0x1f\n        /* \"#utility.yul\":12165:12170   */\n      dup4\n        /* \"#utility.yul\":12161:12175   */\n      add\n        /* \"#utility.yul\":12157:12185   */\n      and\n        /* \"#utility.yul\":12147:12185   */\n      swap1\n      pop\n        /* \"#utility.yul\":12089:12191   */\n      swap2\n      swap1\n      pop\n      jump\t// out\n        /* \"#utility.yul\":12197:12299   */\n    tag_333:\n        /* \"#utility.yul\":12239:12247   */\n      0x00\n        /* \"#utility.yul\":12286:12291   */\n      dup2\n        /* \"#utility.yul\":12283:12284   */\n      0x01\n        /* \"#utility.yul\":12279:12292   */\n      shr\n        /* \"#utility.yul\":12258:12292   */\n      swap1\n      pop\n        /* \"#utility.yul\":12197:12299   */\n      swap2\n      swap1\n      pop\n      jump\t// out\n        /* \"#utility.yul\":12305:12427   */\n    tag_225:\n        /* \"#utility.yul\":12378:12402   */\n      tag_403\n        /* \"#utility.yul\":12396:12401   */\n      dup2\n        /* \"#utility.yul\":12378:12402   */\n      tag_263\n      jump\t// in\n    tag_403:\n        /* \"#utility.yul\":12371:12376   */\n      dup2\n        /* \"#utility.yul\":12368:12403   */\n      eq\n        /* \"#utility.yul\":12358:12421   */\n      tag_404\n      jumpi\n        /* \"#utility.yul\":12417:12418   */\n      0x00\n        /* \"#utility.yul\":12414:12415   */\n      dup1\n        /* \"#utility.yul\":12407:12419   */\n      revert\n        /* \"#utility.yul\":12358:12421   */\n    tag_404:\n        /* \"#utility.yul\":12305:12427   */\n      pop\n      jump\t// out\n        /* \"#utility.yul\":12433:12553   */\n    tag_229:\n        /* \"#utility.yul\":12505:12528   */\n      tag_406\n        /* \"#utility.yul\":12522:12527   */\n      dup2\n        /* \"#utility.yul\":12505:12528   */\n      tag_370\n      jump\t// in\n    tag_406:\n        /* \"#utility.yul\":12498:12503   */\n      dup2\n        /* \"#utility.yul\":12495:12529   */\n      eq\n        /* \"#utility.yul\":12485:12547   */\n      tag_407\n      jumpi\n        /* \"#utility.yul\":12543:12544   */\n      0x00\n        /* \"#utility.yul\":12540:12541   */\n      dup1\n        /* \"#utility.yul\":12533:12545   */\n      revert\n        /* \"#utility.yul\":12485:12547   */\n    tag_407:\n        /* \"#utility.yul\":12433:12553   */\n      pop\n      jump\t// out\n        /* \"#utility.yul\":12559:12681   */\n    tag_233:\n        /* \"#utility.yul\":12632:12656   */\n      tag_409\n        /* \"#utility.yul\":12650:12655   */\n      dup2\n        /* \"#utility.yul\":12632:12656   */\n      tag_285\n      jump\t// in\n    tag_409:\n        /* \"#utility.yul\":12625:12630   */\n      dup2\n        /* \"#utility.yul\":12622:12657   */\n      eq\n        /* \"#utility.yul\":12612:12675   */\n      tag_410\n      jumpi\n        /* \"#utility.yul\":12671:12672   */\n      0x00\n        /* \"#utility.yul\":12668:12669   */\n      dup1\n        /* \"#utility.yul\":12661:12673   */\n      revert\n        /* \"#utility.yul\":12612:12675   */\n    tag_410:\n        /* \"#utility.yul\":12559:12681   */\n      pop\n      jump\t// out\n\n    auxdata: 0xa2646970667358221220613821e12c913840d59445da1c06741bd8e614ce728fe9c757215822da68929664736f6c63430008070033\n}\n",
				"bytecode": {
					"linkReferences": {},
					"object": "60806040523480156200001157600080fd5b5060405162002cef38038062002cef833981810160405281019062000037919062000544565b6040518060400160405280600a81526020017f43656e7472616c4d4d44000000000000000000000000000000000000000000008152506040518060400160405280600481526020017f434d4d44000000000000000000000000000000000000000000000000000000008152508160039080519060200190620000bb9291906200047d565b508060049080519060200190620000d49291906200047d565b5050506000600560146101000a81548160ff0219169083151502179055506000600560156101000a81548160ff0219169083151502179055506009600a6200011d9190620006ee565b6302faf0806200012e91906200082b565b6006819055506009600a620001449190620006ee565b6302faf0806200015591906200082b565b7fffffffffffffffffffffffffffffffffffffffffffffffffffffffffffffffff62000182919062000907565b7fffffffffffffffffffffffffffffffffffffffffffffffffffffffffffffffff620001af91906200088c565b600860003373ffffffffffffffffffffffffffffffffffffffff1673ffffffffffffffffffffffffffffffffffffffff168152602001908152602001600020819055506006546009600a620002059190620006ee565b6302faf0806200021691906200082b565b7fffffffffffffffffffffffffffffffffffffffffffffffffffffffffffffffff62000243919062000907565b7fffffffffffffffffffffffffffffffffffffffffffffffffffffffffffffffff6200027091906200088c565b6200027c91906200065b565b6007819055503373ffffffffffffffffffffffffffffffffffffffff16600073ffffffffffffffffffffffffffffffffffffffff167fddf252ad1be2c89b69c2b068fc378daa952ba7f163c4a11628f55a4df523b3ef600654604051620002e49190620005d0565b60405180910390a3620002fe33826200030560201b60201c565b5062000a21565b600073ffffffffffffffffffffffffffffffffffffffff168273ffffffffffffffffffffffffffffffffffffffff16141562000378576040517f08c379a00000000000000000000000000000000000000000000000000000000081526004016200036f90620005ae565b60405180910390fd5b6200038c600083836200047360201b60201c565b8060026000828254620003a09190620005fe565b92505081905550806000808473ffffffffffffffffffffffffffffffffffffffff1673ffffffffffffffffffffffffffffffffffffffff168152602001908152602001600020600082825401925050819055508173ffffffffffffffffffffffffffffffffffffffff16600073ffffffffffffffffffffffffffffffffffffffff167fddf252ad1be2c89b69c2b068fc378daa952ba7f163c4a11628f55a4df523b3ef83604051620004539190620005d0565b60405180910390a36200046f600083836200047860201b60201c565b5050565b505050565b505050565b8280546200048b90620008d1565b90600052602060002090601f016020900481019282620004af5760008555620004fb565b82601f10620004ca57805160ff1916838001178555620004fb565b82800160010185558215620004fb579182015b82811115620004fa578251825591602001919060010190620004dd565b5b5090506200050a91906200050e565b5090565b5b80821115620005295760008160009055506001016200050f565b5090565b6000815190506200053e8162000a07565b92915050565b6000602082840312156200055d576200055c620009cc565b5b60006200056d848285016200052d565b91505092915050565b600062000585601f83620005ed565b91506200059282620009de565b602082019050919050565b620005a881620008c7565b82525050565b60006020820190508181036000830152620005c98162000576565b9050919050565b6000602082019050620005e760008301846200059d565b92915050565b600082825260208201905092915050565b60006200060b82620008c7565b91506200061883620008c7565b9250827fffffffffffffffffffffffffffffffffffffffffffffffffffffffffffffffff0382111562000650576200064f6200093f565b5b828201905092915050565b60006200066882620008c7565b91506200067583620008c7565b9250826200068857620006876200096e565b5b828204905092915050565b6000808291508390505b6001851115620006e557808604811115620006bd57620006bc6200093f565b5b6001851615620006cd5780820291505b8081029050620006dd85620009d1565b94506200069d565b94509492505050565b6000620006fb82620008c7565b91506200070883620008c7565b9250620007377fffffffffffffffffffffffffffffffffffffffffffffffffffffffffffffffff84846200073f565b905092915050565b60008262000751576001905062000824565b8162000761576000905062000824565b81600181146200077a57600281146200078557620007bb565b600191505062000824565b60ff8411156200079a57620007996200093f565b5b8360020a915084821115620007b457620007b36200093f565b5b5062000824565b5060208310610133831016604e8410600b8410161715620007f55782820a905083811115620007ef57620007ee6200093f565b5b62000824565b62000804848484600162000693565b925090508184048111156200081e576200081d6200093f565b5b81810290505b9392505050565b60006200083882620008c7565b91506200084583620008c7565b9250817fffffffffffffffffffffffffffffffffffffffffffffffffffffffffffffffff04831182151516156200088157620008806200093f565b5b828202905092915050565b60006200089982620008c7565b9150620008a683620008c7565b925082821015620008bc57620008bb6200093f565b5b828203905092915050565b6000819050919050565b60006002820490506001821680620008ea57607f821691505b602082108114156200090157620009006200099d565b5b50919050565b60006200091482620008c7565b91506200092183620008c7565b9250826200093457620009336200096e565b5b828206905092915050565b7f4e487b7100000000000000000000000000000000000000000000000000000000600052601160045260246000fd5b7f4e487b7100000000000000000000000000000000000000000000000000000000600052601260045260246000fd5b7f4e487b7100000000000000000000000000000000000000000000000000000000600052602260045260246000fd5b600080fd5b60008160011c9050919050565b7f45524332303a206d696e7420746f20746865207a65726f206164647265737300600082015250565b62000a1281620008c7565b811462000a1e57600080fd5b50565b6122be8062000a316000396000f3fe608060405234801561001057600080fd5b506004361061014d5760003560e01c80637a43e23f116100c3578063a457c2d71161007c578063a457c2d7146103f2578063a9059cbb14610422578063af42156414610452578063b1bf962d1461046e578063dd62ed3e1461048c578063e1b11da4146104bc5761014d565b80637a43e23f146102f65780637ecebe001461032657806384d4b410146103565780638e27d7d71461038657806395d89b41146103a4578063a3a7e7f3146103c25761014d565b806330adf81f1161011557806330adf81f1461021e578063313ce5671461023c5780633644e5151461025a578063395093511461027857806370a08231146102a857806378160376146102d85761014d565b806306fdde0314610152578063095ea7b31461017057806318160ddd146101a05780631da24f3e146101be57806323b872dd146101ee575b600080fd5b61015a6104da565b6040516101679190611d51565b60405180910390f35b61018a60048036038101906101859190611ba9565b61056c565b6040516101979190611cc8565b60405180910390f35b6101a861065e565b6040516101b59190611d73565b60405180910390f35b6101d860048036038101906101d39190611ae9565b610668565b6040516101e59190611d73565b60405180910390f35b61020860048036038101906102039190611b56565b6106b1565b6040516102159190611cc8565b60405180910390f35b6102266109cf565b6040516102339190611ce3565b60405180910390f35b6102446109f3565b6040516102519190611d8e565b60405180910390f35b6102626109fc565b60405161026f9190611ce3565b60405180910390f35b610292600480360381019061028d9190611ba9565b610aa1565b60405161029f9190611cc8565b60405180910390f35b6102c260048036038101906102bd9190611ae9565b610c96565b6040516102cf9190611d73565b60405180910390f35b6102e0610cec565b6040516102ed9190611d51565b60405180910390f35b610310600480360381019061030b9190611be9565b610d25565b60405161031d9190611d73565b60405180910390f35b610340600480360381019061033b9190611ae9565b610eb4565b60405161034d9190611d73565b60405180910390f35b610370600480360381019061036b9190611b16565b610efd565b60405161037d9190611cc8565b60405180910390f35b61038e611214565b60405161039b9190611cad565b60405180910390f35b6103ac61123a565b6040516103b99190611d51565b60405180910390f35b6103dc60048036038101906103d79190611ae9565b6112cc565b6040516103e99190611cc8565b60405180910390f35b61040c60048036038101906104079190611ba9565b6114da565b6040516104199190611cc8565b60405180910390f35b61043c60048036038101906104379190611ba9565b6116e4565b6040516104499190611cc8565b60405180910390f35b61046c60048036038101906104679190611ba9565b6118f9565b005b610476611963565b6040516104839190611d73565b60405180910390f35b6104a660048036038101906104a19190611b16565b6119dd565b6040516104b39190611d73565b60405180910390f35b6104c4611a64565b6040516104d19190611ce3565b60405180910390f35b6060600380546104e9906120e7565b80601f0160208091040260200160405190810160405280929190818152602001828054610515906120e7565b80156105625780601f1061053757610100808354040283529160200191610562565b820191906000526020600020905b81548152906001019060200180831161054557829003601f168201915b5050505050905090565b600081600960003373ffffffffffffffffffffffffffffffffffffffff1673ffffffffffffffffffffffffffffffffffffffff16815260200190815260200160002060008573ffffffffffffffffffffffffffffffffffffffff1673ffffffffffffffffffffffffffffffffffffffff168152602001908152602001600020819055508273ffffffffffffffffffffffffffffffffffffffff163373ffffffffffffffffffffffffffffffffffffffff167f8c5be1e5ebec7d5bd14f71427d1e84f3dd0314c0f7b2291e5b200ac8c7c3b9258460405161064c9190611d73565b60405180910390a36001905092915050565b6000600654905090565b6000600860008373ffffffffffffffffffffffffffffffffffffffff1673ffffffffffffffffffffffffffffffffffffffff168152602001908152602001600020549050919050565b600082600073ffffffffffffffffffffffffffffffffffffffff168173ffffffffffffffffffffffffffffffffffffffff1614156106ee57600080fd5b3073ffffffffffffffffffffffffffffffffffffffff168173ffffffffffffffffffffffffffffffffffffffff16141561072757600080fd5b82600960008773ffffffffffffffffffffffffffffffffffffffff1673ffffffffffffffffffffffffffffffffffffffff16815260200190815260200160002060003373ffffffffffffffffffffffffffffffffffffffff1673ffffffffffffffffffffffffffffffffffffffff168152602001908152602001600020546107af9190612017565b600960008773ffffffffffffffffffffffffffffffffffffffff1673ffffffffffffffffffffffffffffffffffffffff16815260200190815260200160002060003373ffffffffffffffffffffffffffffffffffffffff1673ffffffffffffffffffffffffffffffffffffffff1681526020019081526020016000208190555060006007548461083f9190611fbd565b905080600860008873ffffffffffffffffffffffffffffffffffffffff1673ffffffffffffffffffffffffffffffffffffffff1681526020019081526020016000205461088c9190612017565b600860008873ffffffffffffffffffffffffffffffffffffffff1673ffffffffffffffffffffffffffffffffffffffff1681526020019081526020016000208190555080600860008773ffffffffffffffffffffffffffffffffffffffff1673ffffffffffffffffffffffffffffffffffffffff1681526020019081526020016000205461091a9190611dc5565b600860008773ffffffffffffffffffffffffffffffffffffffff1673ffffffffffffffffffffffffffffffffffffffff168152602001908152602001600020819055508473ffffffffffffffffffffffffffffffffffffffff168673ffffffffffffffffffffffffffffffffffffffff167fddf252ad1be2c89b69c2b068fc378daa952ba7f163c4a11628f55a4df523b3ef866040516109ba9190611d73565b60405180910390a36001925050509392505050565b7f6e71edae12b1b97f4d1f60370fef10105fa2faae0126114a169c64845d6126c981565b60006012905090565b6000804690507f8b73c3c69bb8fe3d512ecc4cf759cc79239f7b179b0ffacaa9a75d522b39400f610a2b6104da565b805190602001206040518060400160405280600181526020017f3100000000000000000000000000000000000000000000000000000000000000815250805190602001208330604051602001610a85959493929190611cfe565b6040516020818303038152906040528051906020012091505090565b600081600960003373ffffffffffffffffffffffffffffffffffffffff1673ffffffffffffffffffffffffffffffffffffffff16815260200190815260200160002060008573ffffffffffffffffffffffffffffffffffffffff1673ffffffffffffffffffffffffffffffffffffffff16815260200190815260200160002054610b2b9190611dc5565b600960003373ffffffffffffffffffffffffffffffffffffffff1673ffffffffffffffffffffffffffffffffffffffff16815260200190815260200160002060008573ffffffffffffffffffffffffffffffffffffffff1673ffffffffffffffffffffffffffffffffffffffff168152602001908152602001600020819055508273ffffffffffffffffffffffffffffffffffffffff163373ffffffffffffffffffffffffffffffffffffffff167f8c5be1e5ebec7d5bd14f71427d1e84f3dd0314c0f7b2291e5b200ac8c7c3b925600960003373ffffffffffffffffffffffffffffffffffffffff1673ffffffffffffffffffffffffffffffffffffffff16815260200190815260200160002060008773ffffffffffffffffffffffffffffffffffffffff1673ffffffffffffffffffffffffffffffffffffffff16815260200190815260200160002054604051610c849190611d73565b60405180910390a36001905092915050565b6000600754600860008473ffffffffffffffffffffffffffffffffffffffff1673ffffffffffffffffffffffffffffffffffffffff16815260200190815260200160002054610ce59190611e1b565b9050919050565b6040518060400160405280600181526020017f310000000000000000000000000000000000000000000000000000000000000081525081565b600080821415610d7357827f72725a3b1e5bd622d6bcd1339bb31279c351abe8f541ac7fd320f24e1b1641f2600654604051610d619190611d73565b60405180910390a26006549050610eae565b6000821215610d9d57610d8582611a88565b600654610d929190612017565b600681905550610db2565b81600654610dab9190611dc5565b6006819055505b6fffffffffffffffffffffffffffffffff80166006541115610de8576fffffffffffffffffffffffffffffffff80166006819055505b6006546009600a610df99190611e9f565b6302faf080610e089190611fbd565b7fffffffffffffffffffffffffffffffffffffffffffffffffffffffffffffffff610e339190612119565b7fffffffffffffffffffffffffffffffffffffffffffffffffffffffffffffffff610e5e9190612017565b610e689190611e1b565b600781905550827f72725a3b1e5bd622d6bcd1339bb31279c351abe8f541ac7fd320f24e1b1641f2600654604051610ea09190611d73565b60405180910390a260065490505b92915050565b6000600a60008373ffffffffffffffffffffffffffffffffffffffff1673ffffffffffffffffffffffffffffffffffffffff168152602001908152602001600020549050919050565b600081600073ffffffffffffffffffffffffffffffffffffffff168173ffffffffffffffffffffffffffffffffffffffff161415610f3a57600080fd5b3073ffffffffffffffffffffffffffffffffffffffff168173ffffffffffffffffffffffffffffffffffffffff161415610f7357600080fd5b6000600860008673ffffffffffffffffffffffffffffffffffffffff1673ffffffffffffffffffffffffffffffffffffffff168152602001908152602001600020549050600060075482610fc79190611e1b565b905080600960008873ffffffffffffffffffffffffffffffffffffffff1673ffffffffffffffffffffffffffffffffffffffff16815260200190815260200160002060003373ffffffffffffffffffffffffffffffffffffffff1673ffffffffffffffffffffffffffffffffffffffff168152602001908152602001600020546110519190612017565b600960008873ffffffffffffffffffffffffffffffffffffffff1673ffffffffffffffffffffffffffffffffffffffff16815260200190815260200160002060003373ffffffffffffffffffffffffffffffffffffffff1673ffffffffffffffffffffffffffffffffffffffff16815260200190815260200160002081905550600860008773ffffffffffffffffffffffffffffffffffffffff1673ffffffffffffffffffffffffffffffffffffffff1681526020019081526020016000206000905581600860008773ffffffffffffffffffffffffffffffffffffffff1673ffffffffffffffffffffffffffffffffffffffff1681526020019081526020016000205461115f9190611dc5565b600860008773ffffffffffffffffffffffffffffffffffffffff1673ffffffffffffffffffffffffffffffffffffffff168152602001908152602001600020819055508473ffffffffffffffffffffffffffffffffffffffff168673ffffffffffffffffffffffffffffffffffffffff167fddf252ad1be2c89b69c2b068fc378daa952ba7f163c4a11628f55a4df523b3ef836040516111ff9190611d73565b60405180910390a36001935050505092915050565b600560009054906101000a900473ffffffffffffffffffffffffffffffffffffffff1681565b606060048054611249906120e7565b80601f0160208091040260200160405190810160405280929190818152602001828054611275906120e7565b80156112c25780601f10611297576101008083540402835291602001916112c2565b820191906000526020600020905b8154815290600101906020018083116112a557829003601f168201915b5050505050905090565b600081600073ffffffffffffffffffffffffffffffffffffffff168173ffffffffffffffffffffffffffffffffffffffff16141561130957600080fd5b3073ffffffffffffffffffffffffffffffffffffffff168173ffffffffffffffffffffffffffffffffffffffff16141561134257600080fd5b6000600860003373ffffffffffffffffffffffffffffffffffffffff1673ffffffffffffffffffffffffffffffffffffffff1681526020019081526020016000205490506000600754826113969190611e1b565b9050600860003373ffffffffffffffffffffffffffffffffffffffff1673ffffffffffffffffffffffffffffffffffffffff1681526020019081526020016000206000905581600860008773ffffffffffffffffffffffffffffffffffffffff1673ffffffffffffffffffffffffffffffffffffffff168152602001908152602001600020546114269190611dc5565b600860008773ffffffffffffffffffffffffffffffffffffffff1673ffffffffffffffffffffffffffffffffffffffff168152602001908152602001600020819055508473ffffffffffffffffffffffffffffffffffffffff163373ffffffffffffffffffffffffffffffffffffffff167fddf252ad1be2c89b69c2b068fc378daa952ba7f163c4a11628f55a4df523b3ef836040516114c69190611d73565b60405180910390a360019350505050919050565b600080600960003373ffffffffffffffffffffffffffffffffffffffff1673ffffffffffffffffffffffffffffffffffffffff16815260200190815260200160002060008573ffffffffffffffffffffffffffffffffffffffff1673ffffffffffffffffffffffffffffffffffffffff168152602001908152602001600020549050808310156115755782816115709190612017565b611578565b60005b600960003373ffffffffffffffffffffffffffffffffffffffff1673ffffffffffffffffffffffffffffffffffffffff16815260200190815260200160002060008673ffffffffffffffffffffffffffffffffffffffff1673ffffffffffffffffffffffffffffffffffffffff168152602001908152602001600020819055508373ffffffffffffffffffffffffffffffffffffffff163373ffffffffffffffffffffffffffffffffffffffff167f8c5be1e5ebec7d5bd14f71427d1e84f3dd0314c0f7b2291e5b200ac8c7c3b925600960003373ffffffffffffffffffffffffffffffffffffffff1673ffffffffffffffffffffffffffffffffffffffff16815260200190815260200160002060008873ffffffffffffffffffffffffffffffffffffffff1673ffffffffffffffffffffffffffffffffffffffff168152602001908152602001600020546040516116d19190611d73565b60405180910390a3600191505092915050565b600082600073ffffffffffffffffffffffffffffffffffffffff168173ffffffffffffffffffffffffffffffffffffffff16141561172157600080fd5b3073ffffffffffffffffffffffffffffffffffffffff168173ffffffffffffffffffffffffffffffffffffffff16141561175a57600080fd5b60006007548461176a9190611fbd565b905080600860003373ffffffffffffffffffffffffffffffffffffffff1673ffffffffffffffffffffffffffffffffffffffff168152602001908152602001600020546117b79190612017565b600860003373ffffffffffffffffffffffffffffffffffffffff1673ffffffffffffffffffffffffffffffffffffffff1681526020019081526020016000208190555080600860008773ffffffffffffffffffffffffffffffffffffffff1673ffffffffffffffffffffffffffffffffffffffff168152602001908152602001600020546118459190611dc5565b600860008773ffffffffffffffffffffffffffffffffffffffff1673ffffffffffffffffffffffffffffffffffffffff168152602001908152602001600020819055508473ffffffffffffffffffffffffffffffffffffffff163373ffffffffffffffffffffffffffffffffffffffff167fddf252ad1be2c89b69c2b068fc378daa952ba7f163c4a11628f55a4df523b3ef866040516118e59190611d73565b60405180910390a360019250505092915050565b3373ffffffffffffffffffffffffffffffffffffffff16600073ffffffffffffffffffffffffffffffffffffffff167fddf252ad1be2c89b69c2b068fc378daa952ba7f163c4a11628f55a4df523b3ef836040516119579190611d73565b60405180910390a35050565b60006009600a6119739190611e9f565b6302faf0806119829190611fbd565b7fffffffffffffffffffffffffffffffffffffffffffffffffffffffffffffffff6119ad9190612119565b7fffffffffffffffffffffffffffffffffffffffffffffffffffffffffffffffff6119d89190612017565b905090565b6000600960008473ffffffffffffffffffffffffffffffffffffffff1673ffffffffffffffffffffffffffffffffffffffff16815260200190815260200160002060008373ffffffffffffffffffffffffffffffffffffffff1673ffffffffffffffffffffffffffffffffffffffff16815260200190815260200160002054905092915050565b7f8b73c3c69bb8fe3d512ecc4cf759cc79239f7b179b0ffacaa9a75d522b39400f81565b600080821215611aa15781611a9c9061214a565b611aa3565b815b9050919050565b600081359050611ab981612243565b92915050565b600081359050611ace8161225a565b92915050565b600081359050611ae381612271565b92915050565b600060208284031215611aff57611afe612220565b5b6000611b0d84828501611aaa565b91505092915050565b60008060408385031215611b2d57611b2c612220565b5b6000611b3b85828601611aaa565b9250506020611b4c85828601611aaa565b9150509250929050565b600080600060608486031215611b6f57611b6e612220565b5b6000611b7d86828701611aaa565b9350506020611b8e86828701611aaa565b9250506040611b9f86828701611ad4565b9150509250925092565b60008060408385031215611bc057611bbf612220565b5b6000611bce85828601611aaa565b9250506020611bdf85828601611ad4565b9150509250929050565b60008060408385031215611c0057611bff612220565b5b6000611c0e85828601611ad4565b9250506020611c1f85828601611abf565b9150509250929050565b611c328161204b565b82525050565b611c418161205d565b82525050565b611c5081612069565b82525050565b6000611c6182611da9565b611c6b8185611db4565b9350611c7b8185602086016120b4565b611c8481612225565b840191505092915050565b611c988161209d565b82525050565b611ca7816120a7565b82525050565b6000602082019050611cc26000830184611c29565b92915050565b6000602082019050611cdd6000830184611c38565b92915050565b6000602082019050611cf86000830184611c47565b92915050565b600060a082019050611d136000830188611c47565b611d206020830187611c47565b611d2d6040830186611c47565b611d3a6060830185611c8f565b611d476080830184611c29565b9695505050505050565b60006020820190508181036000830152611d6b8184611c56565b905092915050565b6000602082019050611d886000830184611c8f565b92915050565b6000602082019050611da36000830184611c9e565b92915050565b600081519050919050565b600082825260208201905092915050565b6000611dd08261209d565b9150611ddb8361209d565b9250827fffffffffffffffffffffffffffffffffffffffffffffffffffffffffffffffff03821115611e1057611e0f612193565b5b828201905092915050565b6000611e268261209d565b9150611e318361209d565b925082611e4157611e406121c2565b5b828204905092915050565b6000808291508390505b6001851115611e9657808604811115611e7257611e71612193565b5b6001851615611e815780820291505b8081029050611e8f85612236565b9450611e56565b94509492505050565b6000611eaa8261209d565b9150611eb58361209d565b9250611ee27fffffffffffffffffffffffffffffffffffffffffffffffffffffffffffffffff8484611eea565b905092915050565b600082611efa5760019050611fb6565b81611f085760009050611fb6565b8160018114611f1e5760028114611f2857611f57565b6001915050611fb6565b60ff841115611f3a57611f39612193565b5b8360020a915084821115611f5157611f50612193565b5b50611fb6565b5060208310610133831016604e8410600b8410161715611f8c5782820a905083811115611f8757611f86612193565b5b611fb6565b611f998484846001611e4c565b92509050818404811115611fb057611faf612193565b5b81810290505b9392505050565b6000611fc88261209d565b9150611fd38361209d565b9250817fffffffffffffffffffffffffffffffffffffffffffffffffffffffffffffffff048311821515161561200c5761200b612193565b5b828202905092915050565b60006120228261209d565b915061202d8361209d565b9250828210156120405761203f612193565b5b828203905092915050565b60006120568261207d565b9050919050565b60008115159050919050565b6000819050919050565b6000819050919050565b600073ffffffffffffffffffffffffffffffffffffffff82169050919050565b6000819050919050565b600060ff82169050919050565b60005b838110156120d25780820151818401526020810190506120b7565b838111156120e1576000848401525b50505050565b600060028204905060018216806120ff57607f821691505b60208210811415612113576121126121f1565b5b50919050565b60006121248261209d565b915061212f8361209d565b92508261213f5761213e6121c2565b5b828206905092915050565b600061215582612073565b91507f800000000000000000000000000000000000000000000000000000000000000082141561218857612187612193565b5b816000039050919050565b7f4e487b7100000000000000000000000000000000000000000000000000000000600052601160045260246000fd5b7f4e487b7100000000000000000000000000000000000000000000000000000000600052601260045260246000fd5b7f4e487b7100000000000000000000000000000000000000000000000000000000600052602260045260246000fd5b600080fd5b6000601f19601f8301169050919050565b60008160011c9050919050565b61224c8161204b565b811461225757600080fd5b50565b61226381612073565b811461226e57600080fd5b50565b61227a8161209d565b811461228557600080fd5b5056fea2646970667358221220613821e12c913840d59445da1c06741bd8e614ce728fe9c757215822da68929664736f6c63430008070033",
					"opcodes": "PUSH1 0x80 PUSH1 0x40 MSTORE CALLVALUE DUP1 ISZERO PUSH3 0x11 JUMPI PUSH1 0x0 DUP1 REVERT JUMPDEST POP PUSH1 0x40 MLOAD PUSH3 0x2CEF CODESIZE SUB DUP1 PUSH3 0x2CEF DUP4 CODECOPY DUP2 DUP2 ADD PUSH1 0x40 MSTORE DUP2 ADD SWAP1 PUSH3 0x37 SWAP2 SWAP1 PUSH3 0x544 JUMP JUMPDEST PUSH1 0x40 MLOAD DUP1 PUSH1 0x40 ADD PUSH1 0x40 MSTORE DUP1 PUSH1 0xA DUP2 MSTORE PUSH1 0x20 ADD PUSH32 0x43656E7472616C4D4D4400000000000000000000000000000000000000000000 DUP2 MSTORE POP PUSH1 0x40 MLOAD DUP1 PUSH1 0x40 ADD PUSH1 0x40 MSTORE DUP1 PUSH1 0x4 DUP2 MSTORE PUSH1 0x20 ADD PUSH32 0x434D4D4400000000000000000000000000000000000000000000000000000000 DUP2 MSTORE POP DUP2 PUSH1 0x3 SWAP1 DUP1 MLOAD SWAP1 PUSH1 0x20 ADD SWAP1 PUSH3 0xBB SWAP3 SWAP2 SWAP1 PUSH3 0x47D JUMP JUMPDEST POP DUP1 PUSH1 0x4 SWAP1 DUP1 MLOAD SWAP1 PUSH1 0x20 ADD SWAP1 PUSH3 0xD4 SWAP3 SWAP2 SWAP1 PUSH3 0x47D JUMP JUMPDEST POP POP POP PUSH1 0x0 PUSH1 0x5 PUSH1 0x14 PUSH2 0x100 EXP DUP2 SLOAD DUP2 PUSH1 0xFF MUL NOT AND SWAP1 DUP4 ISZERO ISZERO MUL OR SWAP1 SSTORE POP PUSH1 0x0 PUSH1 0x5 PUSH1 0x15 PUSH2 0x100 EXP DUP2 SLOAD DUP2 PUSH1 0xFF MUL NOT AND SWAP1 DUP4 ISZERO ISZERO MUL OR SWAP1 SSTORE POP PUSH1 0x9 PUSH1 0xA PUSH3 0x11D SWAP2 SWAP1 PUSH3 0x6EE JUMP JUMPDEST PUSH4 0x2FAF080 PUSH3 0x12E SWAP2 SWAP1 PUSH3 0x82B JUMP JUMPDEST PUSH1 0x6 DUP2 SWAP1 SSTORE POP PUSH1 0x9 PUSH1 0xA PUSH3 0x144 SWAP2 SWAP1 PUSH3 0x6EE JUMP JUMPDEST PUSH4 0x2FAF080 PUSH3 0x155 SWAP2 SWAP1 PUSH3 0x82B JUMP JUMPDEST PUSH32 0xFFFFFFFFFFFFFFFFFFFFFFFFFFFFFFFFFFFFFFFFFFFFFFFFFFFFFFFFFFFFFFFF PUSH3 0x182 SWAP2 SWAP1 PUSH3 0x907 JUMP JUMPDEST PUSH32 0xFFFFFFFFFFFFFFFFFFFFFFFFFFFFFFFFFFFFFFFFFFFFFFFFFFFFFFFFFFFFFFFF PUSH3 0x1AF SWAP2 SWAP1 PUSH3 0x88C JUMP JUMPDEST PUSH1 0x8 PUSH1 0x0 CALLER PUSH20 0xFFFFFFFFFFFFFFFFFFFFFFFFFFFFFFFFFFFFFFFF AND PUSH20 0xFFFFFFFFFFFFFFFFFFFFFFFFFFFFFFFFFFFFFFFF AND DUP2 MSTORE PUSH1 0x20 ADD SWAP1 DUP2 MSTORE PUSH1 0x20 ADD PUSH1 0x0 KECCAK256 DUP2 SWAP1 SSTORE POP PUSH1 0x6 SLOAD PUSH1 0x9 PUSH1 0xA PUSH3 0x205 SWAP2 SWAP1 PUSH3 0x6EE JUMP JUMPDEST PUSH4 0x2FAF080 PUSH3 0x216 SWAP2 SWAP1 PUSH3 0x82B JUMP JUMPDEST PUSH32 0xFFFFFFFFFFFFFFFFFFFFFFFFFFFFFFFFFFFFFFFFFFFFFFFFFFFFFFFFFFFFFFFF PUSH3 0x243 SWAP2 SWAP1 PUSH3 0x907 JUMP JUMPDEST PUSH32 0xFFFFFFFFFFFFFFFFFFFFFFFFFFFFFFFFFFFFFFFFFFFFFFFFFFFFFFFFFFFFFFFF PUSH3 0x270 SWAP2 SWAP1 PUSH3 0x88C JUMP JUMPDEST PUSH3 0x27C SWAP2 SWAP1 PUSH3 0x65B JUMP JUMPDEST PUSH1 0x7 DUP2 SWAP1 SSTORE POP CALLER PUSH20 0xFFFFFFFFFFFFFFFFFFFFFFFFFFFFFFFFFFFFFFFF AND PUSH1 0x0 PUSH20 0xFFFFFFFFFFFFFFFFFFFFFFFFFFFFFFFFFFFFFFFF AND PUSH32 0xDDF252AD1BE2C89B69C2B068FC378DAA952BA7F163C4A11628F55A4DF523B3EF PUSH1 0x6 SLOAD PUSH1 0x40 MLOAD PUSH3 0x2E4 SWAP2 SWAP1 PUSH3 0x5D0 JUMP JUMPDEST PUSH1 0x40 MLOAD DUP1 SWAP2 SUB SWAP1 LOG3 PUSH3 0x2FE CALLER DUP3 PUSH3 0x305 PUSH1 0x20 SHL PUSH1 0x20 SHR JUMP JUMPDEST POP PUSH3 0xA21 JUMP JUMPDEST PUSH1 0x0 PUSH20 0xFFFFFFFFFFFFFFFFFFFFFFFFFFFFFFFFFFFFFFFF AND DUP3 PUSH20 0xFFFFFFFFFFFFFFFFFFFFFFFFFFFFFFFFFFFFFFFF AND EQ ISZERO PUSH3 0x378 JUMPI PUSH1 0x40 MLOAD PUSH32 0x8C379A000000000000000000000000000000000000000000000000000000000 DUP2 MSTORE PUSH1 0x4 ADD PUSH3 0x36F SWAP1 PUSH3 0x5AE JUMP JUMPDEST PUSH1 0x40 MLOAD DUP1 SWAP2 SUB SWAP1 REVERT JUMPDEST PUSH3 0x38C PUSH1 0x0 DUP4 DUP4 PUSH3 0x473 PUSH1 0x20 SHL PUSH1 0x20 SHR JUMP JUMPDEST DUP1 PUSH1 0x2 PUSH1 0x0 DUP3 DUP3 SLOAD PUSH3 0x3A0 SWAP2 SWAP1 PUSH3 0x5FE JUMP JUMPDEST SWAP3 POP POP DUP2 SWAP1 SSTORE POP DUP1 PUSH1 0x0 DUP1 DUP5 PUSH20 0xFFFFFFFFFFFFFFFFFFFFFFFFFFFFFFFFFFFFFFFF AND PUSH20 0xFFFFFFFFFFFFFFFFFFFFFFFFFFFFFFFFFFFFFFFF AND DUP2 MSTORE PUSH1 0x20 ADD SWAP1 DUP2 MSTORE PUSH1 0x20 ADD PUSH1 0x0 KECCAK256 PUSH1 0x0 DUP3 DUP3 SLOAD ADD SWAP3 POP POP DUP2 SWAP1 SSTORE POP DUP2 PUSH20 0xFFFFFFFFFFFFFFFFFFFFFFFFFFFFFFFFFFFFFFFF AND PUSH1 0x0 PUSH20 0xFFFFFFFFFFFFFFFFFFFFFFFFFFFFFFFFFFFFFFFF AND PUSH32 0xDDF252AD1BE2C89B69C2B068FC378DAA952BA7F163C4A11628F55A4DF523B3EF DUP4 PUSH1 0x40 MLOAD PUSH3 0x453 SWAP2 SWAP1 PUSH3 0x5D0 JUMP JUMPDEST PUSH1 0x40 MLOAD DUP1 SWAP2 SUB SWAP1 LOG3 PUSH3 0x46F PUSH1 0x0 DUP4 DUP4 PUSH3 0x478 PUSH1 0x20 SHL PUSH1 0x20 SHR JUMP JUMPDEST POP POP JUMP JUMPDEST POP POP POP JUMP JUMPDEST POP POP POP JUMP JUMPDEST DUP3 DUP1 SLOAD PUSH3 0x48B SWAP1 PUSH3 0x8D1 JUMP JUMPDEST SWAP1 PUSH1 0x0 MSTORE PUSH1 0x20 PUSH1 0x0 KECCAK256 SWAP1 PUSH1 0x1F ADD PUSH1 0x20 SWAP1 DIV DUP2 ADD SWAP3 DUP3 PUSH3 0x4AF JUMPI PUSH1 0x0 DUP6 SSTORE PUSH3 0x4FB JUMP JUMPDEST DUP3 PUSH1 0x1F LT PUSH3 0x4CA JUMPI DUP1 MLOAD PUSH1 0xFF NOT AND DUP4 DUP1 ADD OR DUP6 SSTORE PUSH3 0x4FB JUMP JUMPDEST DUP3 DUP1 ADD PUSH1 0x1 ADD DUP6 SSTORE DUP3 ISZERO PUSH3 0x4FB JUMPI SWAP2 DUP3 ADD JUMPDEST DUP3 DUP2 GT ISZERO PUSH3 0x4FA JUMPI DUP3 MLOAD DUP3 SSTORE SWAP2 PUSH1 0x20 ADD SWAP2 SWAP1 PUSH1 0x1 ADD SWAP1 PUSH3 0x4DD JUMP JUMPDEST JUMPDEST POP SWAP1 POP PUSH3 0x50A SWAP2 SWAP1 PUSH3 0x50E JUMP JUMPDEST POP SWAP1 JUMP JUMPDEST JUMPDEST DUP1 DUP3 GT ISZERO PUSH3 0x529 JUMPI PUSH1 0x0 DUP2 PUSH1 0x0 SWAP1 SSTORE POP PUSH1 0x1 ADD PUSH3 0x50F JUMP JUMPDEST POP SWAP1 JUMP JUMPDEST PUSH1 0x0 DUP2 MLOAD SWAP1 POP PUSH3 0x53E DUP2 PUSH3 0xA07 JUMP JUMPDEST SWAP3 SWAP2 POP POP JUMP JUMPDEST PUSH1 0x0 PUSH1 0x20 DUP3 DUP5 SUB SLT ISZERO PUSH3 0x55D JUMPI PUSH3 0x55C PUSH3 0x9CC JUMP JUMPDEST JUMPDEST PUSH1 0x0 PUSH3 0x56D DUP5 DUP3 DUP6 ADD PUSH3 0x52D JUMP JUMPDEST SWAP2 POP POP SWAP3 SWAP2 POP POP JUMP JUMPDEST PUSH1 0x0 PUSH3 0x585 PUSH1 0x1F DUP4 PUSH3 0x5ED JUMP JUMPDEST SWAP2 POP PUSH3 0x592 DUP3 PUSH3 0x9DE JUMP JUMPDEST PUSH1 0x20 DUP3 ADD SWAP1 POP SWAP2 SWAP1 POP JUMP JUMPDEST PUSH3 0x5A8 DUP2 PUSH3 0x8C7 JUMP JUMPDEST DUP3 MSTORE POP POP JUMP JUMPDEST PUSH1 0x0 PUSH1 0x20 DUP3 ADD SWAP1 POP DUP2 DUP2 SUB PUSH1 0x0 DUP4 ADD MSTORE PUSH3 0x5C9 DUP2 PUSH3 0x576 JUMP JUMPDEST SWAP1 POP SWAP2 SWAP1 POP JUMP JUMPDEST PUSH1 0x0 PUSH1 0x20 DUP3 ADD SWAP1 POP PUSH3 0x5E7 PUSH1 0x0 DUP4 ADD DUP5 PUSH3 0x59D JUMP JUMPDEST SWAP3 SWAP2 POP POP JUMP JUMPDEST PUSH1 0x0 DUP3 DUP3 MSTORE PUSH1 0x20 DUP3 ADD SWAP1 POP SWAP3 SWAP2 POP POP JUMP JUMPDEST PUSH1 0x0 PUSH3 0x60B DUP3 PUSH3 0x8C7 JUMP JUMPDEST SWAP2 POP PUSH3 0x618 DUP4 PUSH3 0x8C7 JUMP JUMPDEST SWAP3 POP DUP3 PUSH32 0xFFFFFFFFFFFFFFFFFFFFFFFFFFFFFFFFFFFFFFFFFFFFFFFFFFFFFFFFFFFFFFFF SUB DUP3 GT ISZERO PUSH3 0x650 JUMPI PUSH3 0x64F PUSH3 0x93F JUMP JUMPDEST JUMPDEST DUP3 DUP3 ADD SWAP1 POP SWAP3 SWAP2 POP POP JUMP JUMPDEST PUSH1 0x0 PUSH3 0x668 DUP3 PUSH3 0x8C7 JUMP JUMPDEST SWAP2 POP PUSH3 0x675 DUP4 PUSH3 0x8C7 JUMP JUMPDEST SWAP3 POP DUP3 PUSH3 0x688 JUMPI PUSH3 0x687 PUSH3 0x96E JUMP JUMPDEST JUMPDEST DUP3 DUP3 DIV SWAP1 POP SWAP3 SWAP2 POP POP JUMP JUMPDEST PUSH1 0x0 DUP1 DUP3 SWAP2 POP DUP4 SWAP1 POP JUMPDEST PUSH1 0x1 DUP6 GT ISZERO PUSH3 0x6E5 JUMPI DUP1 DUP7 DIV DUP2 GT ISZERO PUSH3 0x6BD JUMPI PUSH3 0x6BC PUSH3 0x93F JUMP JUMPDEST JUMPDEST PUSH1 0x1 DUP6 AND ISZERO PUSH3 0x6CD JUMPI DUP1 DUP3 MUL SWAP2 POP JUMPDEST DUP1 DUP2 MUL SWAP1 POP PUSH3 0x6DD DUP6 PUSH3 0x9D1 JUMP JUMPDEST SWAP5 POP PUSH3 0x69D JUMP JUMPDEST SWAP5 POP SWAP5 SWAP3 POP POP POP JUMP JUMPDEST PUSH1 0x0 PUSH3 0x6FB DUP3 PUSH3 0x8C7 JUMP JUMPDEST SWAP2 POP PUSH3 0x708 DUP4 PUSH3 0x8C7 JUMP JUMPDEST SWAP3 POP PUSH3 0x737 PUSH32 0xFFFFFFFFFFFFFFFFFFFFFFFFFFFFFFFFFFFFFFFFFFFFFFFFFFFFFFFFFFFFFFFF DUP5 DUP5 PUSH3 0x73F JUMP JUMPDEST SWAP1 POP SWAP3 SWAP2 POP POP JUMP JUMPDEST PUSH1 0x0 DUP3 PUSH3 0x751 JUMPI PUSH1 0x1 SWAP1 POP PUSH3 0x824 JUMP JUMPDEST DUP2 PUSH3 0x761 JUMPI PUSH1 0x0 SWAP1 POP PUSH3 0x824 JUMP JUMPDEST DUP2 PUSH1 0x1 DUP2 EQ PUSH3 0x77A JUMPI PUSH1 0x2 DUP2 EQ PUSH3 0x785 JUMPI PUSH3 0x7BB JUMP JUMPDEST PUSH1 0x1 SWAP2 POP POP PUSH3 0x824 JUMP JUMPDEST PUSH1 0xFF DUP5 GT ISZERO PUSH3 0x79A JUMPI PUSH3 0x799 PUSH3 0x93F JUMP JUMPDEST JUMPDEST DUP4 PUSH1 0x2 EXP SWAP2 POP DUP5 DUP3 GT ISZERO PUSH3 0x7B4 JUMPI PUSH3 0x7B3 PUSH3 0x93F JUMP JUMPDEST JUMPDEST POP PUSH3 0x824 JUMP JUMPDEST POP PUSH1 0x20 DUP4 LT PUSH2 0x133 DUP4 LT AND PUSH1 0x4E DUP5 LT PUSH1 0xB DUP5 LT AND OR ISZERO PUSH3 0x7F5 JUMPI DUP3 DUP3 EXP SWAP1 POP DUP4 DUP2 GT ISZERO PUSH3 0x7EF JUMPI PUSH3 0x7EE PUSH3 0x93F JUMP JUMPDEST JUMPDEST PUSH3 0x824 JUMP JUMPDEST PUSH3 0x804 DUP5 DUP5 DUP5 PUSH1 0x1 PUSH3 0x693 JUMP JUMPDEST SWAP3 POP SWAP1 POP DUP2 DUP5 DIV DUP2 GT ISZERO PUSH3 0x81E JUMPI PUSH3 0x81D PUSH3 0x93F JUMP JUMPDEST JUMPDEST DUP2 DUP2 MUL SWAP1 POP JUMPDEST SWAP4 SWAP3 POP POP POP JUMP JUMPDEST PUSH1 0x0 PUSH3 0x838 DUP3 PUSH3 0x8C7 JUMP JUMPDEST SWAP2 POP PUSH3 0x845 DUP4 PUSH3 0x8C7 JUMP JUMPDEST SWAP3 POP DUP2 PUSH32 0xFFFFFFFFFFFFFFFFFFFFFFFFFFFFFFFFFFFFFFFFFFFFFFFFFFFFFFFFFFFFFFFF DIV DUP4 GT DUP3 ISZERO ISZERO AND ISZERO PUSH3 0x881 JUMPI PUSH3 0x880 PUSH3 0x93F JUMP JUMPDEST JUMPDEST DUP3 DUP3 MUL SWAP1 POP SWAP3 SWAP2 POP POP JUMP JUMPDEST PUSH1 0x0 PUSH3 0x899 DUP3 PUSH3 0x8C7 JUMP JUMPDEST SWAP2 POP PUSH3 0x8A6 DUP4 PUSH3 0x8C7 JUMP JUMPDEST SWAP3 POP DUP3 DUP3 LT ISZERO PUSH3 0x8BC JUMPI PUSH3 0x8BB PUSH3 0x93F JUMP JUMPDEST JUMPDEST DUP3 DUP3 SUB SWAP1 POP SWAP3 SWAP2 POP POP JUMP JUMPDEST PUSH1 0x0 DUP2 SWAP1 POP SWAP2 SWAP1 POP JUMP JUMPDEST PUSH1 0x0 PUSH1 0x2 DUP3 DIV SWAP1 POP PUSH1 0x1 DUP3 AND DUP1 PUSH3 0x8EA JUMPI PUSH1 0x7F DUP3 AND SWAP2 POP JUMPDEST PUSH1 0x20 DUP3 LT DUP2 EQ ISZERO PUSH3 0x901 JUMPI PUSH3 0x900 PUSH3 0x99D JUMP JUMPDEST JUMPDEST POP SWAP2 SWAP1 POP JUMP JUMPDEST PUSH1 0x0 PUSH3 0x914 DUP3 PUSH3 0x8C7 JUMP JUMPDEST SWAP2 POP PUSH3 0x921 DUP4 PUSH3 0x8C7 JUMP JUMPDEST SWAP3 POP DUP3 PUSH3 0x934 JUMPI PUSH3 0x933 PUSH3 0x96E JUMP JUMPDEST JUMPDEST DUP3 DUP3 MOD SWAP1 POP SWAP3 SWAP2 POP POP JUMP JUMPDEST PUSH32 0x4E487B7100000000000000000000000000000000000000000000000000000000 PUSH1 0x0 MSTORE PUSH1 0x11 PUSH1 0x4 MSTORE PUSH1 0x24 PUSH1 0x0 REVERT JUMPDEST PUSH32 0x4E487B7100000000000000000000000000000000000000000000000000000000 PUSH1 0x0 MSTORE PUSH1 0x12 PUSH1 0x4 MSTORE PUSH1 0x24 PUSH1 0x0 REVERT JUMPDEST PUSH32 0x4E487B7100000000000000000000000000000000000000000000000000000000 PUSH1 0x0 MSTORE PUSH1 0x22 PUSH1 0x4 MSTORE PUSH1 0x24 PUSH1 0x0 REVERT JUMPDEST PUSH1 0x0 DUP1 REVERT JUMPDEST PUSH1 0x0 DUP2 PUSH1 0x1 SHR SWAP1 POP SWAP2 SWAP1 POP JUMP JUMPDEST PUSH32 0x45524332303A206D696E7420746F20746865207A65726F206164647265737300 PUSH1 0x0 DUP3 ADD MSTORE POP JUMP JUMPDEST PUSH3 0xA12 DUP2 PUSH3 0x8C7 JUMP JUMPDEST DUP2 EQ PUSH3 0xA1E JUMPI PUSH1 0x0 DUP1 REVERT JUMPDEST POP JUMP JUMPDEST PUSH2 0x22BE DUP1 PUSH3 0xA31 PUSH1 0x0 CODECOPY PUSH1 0x0 RETURN INVALID PUSH1 0x80 PUSH1 0x40 MSTORE CALLVALUE DUP1 ISZERO PUSH2 0x10 JUMPI PUSH1 0x0 DUP1 REVERT JUMPDEST POP PUSH1 0x4 CALLDATASIZE LT PUSH2 0x14D JUMPI PUSH1 0x0 CALLDATALOAD PUSH1 0xE0 SHR DUP1 PUSH4 0x7A43E23F GT PUSH2 0xC3 JUMPI DUP1 PUSH4 0xA457C2D7 GT PUSH2 0x7C JUMPI DUP1 PUSH4 0xA457C2D7 EQ PUSH2 0x3F2 JUMPI DUP1 PUSH4 0xA9059CBB EQ PUSH2 0x422 JUMPI DUP1 PUSH4 0xAF421564 EQ PUSH2 0x452 JUMPI DUP1 PUSH4 0xB1BF962D EQ PUSH2 0x46E JUMPI DUP1 PUSH4 0xDD62ED3E EQ PUSH2 0x48C JUMPI DUP1 PUSH4 0xE1B11DA4 EQ PUSH2 0x4BC JUMPI PUSH2 0x14D JUMP JUMPDEST DUP1 PUSH4 0x7A43E23F EQ PUSH2 0x2F6 JUMPI DUP1 PUSH4 0x7ECEBE00 EQ PUSH2 0x326 JUMPI DUP1 PUSH4 0x84D4B410 EQ PUSH2 0x356 JUMPI DUP1 PUSH4 0x8E27D7D7 EQ PUSH2 0x386 JUMPI DUP1 PUSH4 0x95D89B41 EQ PUSH2 0x3A4 JUMPI DUP1 PUSH4 0xA3A7E7F3 EQ PUSH2 0x3C2 JUMPI PUSH2 0x14D JUMP JUMPDEST DUP1 PUSH4 0x30ADF81F GT PUSH2 0x115 JUMPI DUP1 PUSH4 0x30ADF81F EQ PUSH2 0x21E JUMPI DUP1 PUSH4 0x313CE567 EQ PUSH2 0x23C JUMPI DUP1 PUSH4 0x3644E515 EQ PUSH2 0x25A JUMPI DUP1 PUSH4 0x39509351 EQ PUSH2 0x278 JUMPI DUP1 PUSH4 0x70A08231 EQ PUSH2 0x2A8 JUMPI DUP1 PUSH4 0x78160376 EQ PUSH2 0x2D8 JUMPI PUSH2 0x14D JUMP JUMPDEST DUP1 PUSH4 0x6FDDE03 EQ PUSH2 0x152 JUMPI DUP1 PUSH4 0x95EA7B3 EQ PUSH2 0x170 JUMPI DUP1 PUSH4 0x18160DDD EQ PUSH2 0x1A0 JUMPI DUP1 PUSH4 0x1DA24F3E EQ PUSH2 0x1BE JUMPI DUP1 PUSH4 0x23B872DD EQ PUSH2 0x1EE JUMPI JUMPDEST PUSH1 0x0 DUP1 REVERT JUMPDEST PUSH2 0x15A PUSH2 0x4DA JUMP JUMPDEST PUSH1 0x40 MLOAD PUSH2 0x167 SWAP2 SWAP1 PUSH2 0x1D51 JUMP JUMPDEST PUSH1 0x40 MLOAD DUP1 SWAP2 SUB SWAP1 RETURN JUMPDEST PUSH2 0x18A PUSH1 0x4 DUP1 CALLDATASIZE SUB DUP2 ADD SWAP1 PUSH2 0x185 SWAP2 SWAP1 PUSH2 0x1BA9 JUMP JUMPDEST PUSH2 0x56C JUMP JUMPDEST PUSH1 0x40 MLOAD PUSH2 0x197 SWAP2 SWAP1 PUSH2 0x1CC8 JUMP JUMPDEST PUSH1 0x40 MLOAD DUP1 SWAP2 SUB SWAP1 RETURN JUMPDEST PUSH2 0x1A8 PUSH2 0x65E JUMP JUMPDEST PUSH1 0x40 MLOAD PUSH2 0x1B5 SWAP2 SWAP1 PUSH2 0x1D73 JUMP JUMPDEST PUSH1 0x40 MLOAD DUP1 SWAP2 SUB SWAP1 RETURN JUMPDEST PUSH2 0x1D8 PUSH1 0x4 DUP1 CALLDATASIZE SUB DUP2 ADD SWAP1 PUSH2 0x1D3 SWAP2 SWAP1 PUSH2 0x1AE9 JUMP JUMPDEST PUSH2 0x668 JUMP JUMPDEST PUSH1 0x40 MLOAD PUSH2 0x1E5 SWAP2 SWAP1 PUSH2 0x1D73 JUMP JUMPDEST PUSH1 0x40 MLOAD DUP1 SWAP2 SUB SWAP1 RETURN JUMPDEST PUSH2 0x208 PUSH1 0x4 DUP1 CALLDATASIZE SUB DUP2 ADD SWAP1 PUSH2 0x203 SWAP2 SWAP1 PUSH2 0x1B56 JUMP JUMPDEST PUSH2 0x6B1 JUMP JUMPDEST PUSH1 0x40 MLOAD PUSH2 0x215 SWAP2 SWAP1 PUSH2 0x1CC8 JUMP JUMPDEST PUSH1 0x40 MLOAD DUP1 SWAP2 SUB SWAP1 RETURN JUMPDEST PUSH2 0x226 PUSH2 0x9CF JUMP JUMPDEST PUSH1 0x40 MLOAD PUSH2 0x233 SWAP2 SWAP1 PUSH2 0x1CE3 JUMP JUMPDEST PUSH1 0x40 MLOAD DUP1 SWAP2 SUB SWAP1 RETURN JUMPDEST PUSH2 0x244 PUSH2 0x9F3 JUMP JUMPDEST PUSH1 0x40 MLOAD PUSH2 0x251 SWAP2 SWAP1 PUSH2 0x1D8E JUMP JUMPDEST PUSH1 0x40 MLOAD DUP1 SWAP2 SUB SWAP1 RETURN JUMPDEST PUSH2 0x262 PUSH2 0x9FC JUMP JUMPDEST PUSH1 0x40 MLOAD PUSH2 0x26F SWAP2 SWAP1 PUSH2 0x1CE3 JUMP JUMPDEST PUSH1 0x40 MLOAD DUP1 SWAP2 SUB SWAP1 RETURN JUMPDEST PUSH2 0x292 PUSH1 0x4 DUP1 CALLDATASIZE SUB DUP2 ADD SWAP1 PUSH2 0x28D SWAP2 SWAP1 PUSH2 0x1BA9 JUMP JUMPDEST PUSH2 0xAA1 JUMP JUMPDEST PUSH1 0x40 MLOAD PUSH2 0x29F SWAP2 SWAP1 PUSH2 0x1CC8 JUMP JUMPDEST PUSH1 0x40 MLOAD DUP1 SWAP2 SUB SWAP1 RETURN JUMPDEST PUSH2 0x2C2 PUSH1 0x4 DUP1 CALLDATASIZE SUB DUP2 ADD SWAP1 PUSH2 0x2BD SWAP2 SWAP1 PUSH2 0x1AE9 JUMP JUMPDEST PUSH2 0xC96 JUMP JUMPDEST PUSH1 0x40 MLOAD PUSH2 0x2CF SWAP2 SWAP1 PUSH2 0x1D73 JUMP JUMPDEST PUSH1 0x40 MLOAD DUP1 SWAP2 SUB SWAP1 RETURN JUMPDEST PUSH2 0x2E0 PUSH2 0xCEC JUMP JUMPDEST PUSH1 0x40 MLOAD PUSH2 0x2ED SWAP2 SWAP1 PUSH2 0x1D51 JUMP JUMPDEST PUSH1 0x40 MLOAD DUP1 SWAP2 SUB SWAP1 RETURN JUMPDEST PUSH2 0x310 PUSH1 0x4 DUP1 CALLDATASIZE SUB DUP2 ADD SWAP1 PUSH2 0x30B SWAP2 SWAP1 PUSH2 0x1BE9 JUMP JUMPDEST PUSH2 0xD25 JUMP JUMPDEST PUSH1 0x40 MLOAD PUSH2 0x31D SWAP2 SWAP1 PUSH2 0x1D73 JUMP JUMPDEST PUSH1 0x40 MLOAD DUP1 SWAP2 SUB SWAP1 RETURN JUMPDEST PUSH2 0x340 PUSH1 0x4 DUP1 CALLDATASIZE SUB DUP2 ADD SWAP1 PUSH2 0x33B SWAP2 SWAP1 PUSH2 0x1AE9 JUMP JUMPDEST PUSH2 0xEB4 JUMP JUMPDEST PUSH1 0x40 MLOAD PUSH2 0x34D SWAP2 SWAP1 PUSH2 0x1D73 JUMP JUMPDEST PUSH1 0x40 MLOAD DUP1 SWAP2 SUB SWAP1 RETURN JUMPDEST PUSH2 0x370 PUSH1 0x4 DUP1 CALLDATASIZE SUB DUP2 ADD SWAP1 PUSH2 0x36B SWAP2 SWAP1 PUSH2 0x1B16 JUMP JUMPDEST PUSH2 0xEFD JUMP JUMPDEST PUSH1 0x40 MLOAD PUSH2 0x37D SWAP2 SWAP1 PUSH2 0x1CC8 JUMP JUMPDEST PUSH1 0x40 MLOAD DUP1 SWAP2 SUB SWAP1 RETURN JUMPDEST PUSH2 0x38E PUSH2 0x1214 JUMP JUMPDEST PUSH1 0x40 MLOAD PUSH2 0x39B SWAP2 SWAP1 PUSH2 0x1CAD JUMP JUMPDEST PUSH1 0x40 MLOAD DUP1 SWAP2 SUB SWAP1 RETURN JUMPDEST PUSH2 0x3AC PUSH2 0x123A JUMP JUMPDEST PUSH1 0x40 MLOAD PUSH2 0x3B9 SWAP2 SWAP1 PUSH2 0x1D51 JUMP JUMPDEST PUSH1 0x40 MLOAD DUP1 SWAP2 SUB SWAP1 RETURN JUMPDEST PUSH2 0x3DC PUSH1 0x4 DUP1 CALLDATASIZE SUB DUP2 ADD SWAP1 PUSH2 0x3D7 SWAP2 SWAP1 PUSH2 0x1AE9 JUMP JUMPDEST PUSH2 0x12CC JUMP JUMPDEST PUSH1 0x40 MLOAD PUSH2 0x3E9 SWAP2 SWAP1 PUSH2 0x1CC8 JUMP JUMPDEST PUSH1 0x40 MLOAD DUP1 SWAP2 SUB SWAP1 RETURN JUMPDEST PUSH2 0x40C PUSH1 0x4 DUP1 CALLDATASIZE SUB DUP2 ADD SWAP1 PUSH2 0x407 SWAP2 SWAP1 PUSH2 0x1BA9 JUMP JUMPDEST PUSH2 0x14DA JUMP JUMPDEST PUSH1 0x40 MLOAD PUSH2 0x419 SWAP2 SWAP1 PUSH2 0x1CC8 JUMP JUMPDEST PUSH1 0x40 MLOAD DUP1 SWAP2 SUB SWAP1 RETURN JUMPDEST PUSH2 0x43C PUSH1 0x4 DUP1 CALLDATASIZE SUB DUP2 ADD SWAP1 PUSH2 0x437 SWAP2 SWAP1 PUSH2 0x1BA9 JUMP JUMPDEST PUSH2 0x16E4 JUMP JUMPDEST PUSH1 0x40 MLOAD PUSH2 0x449 SWAP2 SWAP1 PUSH2 0x1CC8 JUMP JUMPDEST PUSH1 0x40 MLOAD DUP1 SWAP2 SUB SWAP1 RETURN JUMPDEST PUSH2 0x46C PUSH1 0x4 DUP1 CALLDATASIZE SUB DUP2 ADD SWAP1 PUSH2 0x467 SWAP2 SWAP1 PUSH2 0x1BA9 JUMP JUMPDEST PUSH2 0x18F9 JUMP JUMPDEST STOP JUMPDEST PUSH2 0x476 PUSH2 0x1963 JUMP JUMPDEST PUSH1 0x40 MLOAD PUSH2 0x483 SWAP2 SWAP1 PUSH2 0x1D73 JUMP JUMPDEST PUSH1 0x40 MLOAD DUP1 SWAP2 SUB SWAP1 RETURN JUMPDEST PUSH2 0x4A6 PUSH1 0x4 DUP1 CALLDATASIZE SUB DUP2 ADD SWAP1 PUSH2 0x4A1 SWAP2 SWAP1 PUSH2 0x1B16 JUMP JUMPDEST PUSH2 0x19DD JUMP JUMPDEST PUSH1 0x40 MLOAD PUSH2 0x4B3 SWAP2 SWAP1 PUSH2 0x1D73 JUMP JUMPDEST PUSH1 0x40 MLOAD DUP1 SWAP2 SUB SWAP1 RETURN JUMPDEST PUSH2 0x4C4 PUSH2 0x1A64 JUMP JUMPDEST PUSH1 0x40 MLOAD PUSH2 0x4D1 SWAP2 SWAP1 PUSH2 0x1CE3 JUMP JUMPDEST PUSH1 0x40 MLOAD DUP1 SWAP2 SUB SWAP1 RETURN JUMPDEST PUSH1 0x60 PUSH1 0x3 DUP1 SLOAD PUSH2 0x4E9 SWAP1 PUSH2 0x20E7 JUMP JUMPDEST DUP1 PUSH1 0x1F ADD PUSH1 0x20 DUP1 SWAP2 DIV MUL PUSH1 0x20 ADD PUSH1 0x40 MLOAD SWAP1 DUP2 ADD PUSH1 0x40 MSTORE DUP1 SWAP3 SWAP2 SWAP1 DUP2 DUP2 MSTORE PUSH1 0x20 ADD DUP3 DUP1 SLOAD PUSH2 0x515 SWAP1 PUSH2 0x20E7 JUMP JUMPDEST DUP1 ISZERO PUSH2 0x562 JUMPI DUP1 PUSH1 0x1F LT PUSH2 0x537 JUMPI PUSH2 0x100 DUP1 DUP4 SLOAD DIV MUL DUP4 MSTORE SWAP2 PUSH1 0x20 ADD SWAP2 PUSH2 0x562 JUMP JUMPDEST DUP3 ADD SWAP2 SWAP1 PUSH1 0x0 MSTORE PUSH1 0x20 PUSH1 0x0 KECCAK256 SWAP1 JUMPDEST DUP2 SLOAD DUP2 MSTORE SWAP1 PUSH1 0x1 ADD SWAP1 PUSH1 0x20 ADD DUP1 DUP4 GT PUSH2 0x545 JUMPI DUP3 SWAP1 SUB PUSH1 0x1F AND DUP3 ADD SWAP2 JUMPDEST POP POP POP POP POP SWAP1 POP SWAP1 JUMP JUMPDEST PUSH1 0x0 DUP2 PUSH1 0x9 PUSH1 0x0 CALLER PUSH20 0xFFFFFFFFFFFFFFFFFFFFFFFFFFFFFFFFFFFFFFFF AND PUSH20 0xFFFFFFFFFFFFFFFFFFFFFFFFFFFFFFFFFFFFFFFF AND DUP2 MSTORE PUSH1 0x20 ADD SWAP1 DUP2 MSTORE PUSH1 0x20 ADD PUSH1 0x0 KECCAK256 PUSH1 0x0 DUP6 PUSH20 0xFFFFFFFFFFFFFFFFFFFFFFFFFFFFFFFFFFFFFFFF AND PUSH20 0xFFFFFFFFFFFFFFFFFFFFFFFFFFFFFFFFFFFFFFFF AND DUP2 MSTORE PUSH1 0x20 ADD SWAP1 DUP2 MSTORE PUSH1 0x20 ADD PUSH1 0x0 KECCAK256 DUP2 SWAP1 SSTORE POP DUP3 PUSH20 0xFFFFFFFFFFFFFFFFFFFFFFFFFFFFFFFFFFFFFFFF AND CALLER PUSH20 0xFFFFFFFFFFFFFFFFFFFFFFFFFFFFFFFFFFFFFFFF AND PUSH32 0x8C5BE1E5EBEC7D5BD14F71427D1E84F3DD0314C0F7B2291E5B200AC8C7C3B925 DUP5 PUSH1 0x40 MLOAD PUSH2 0x64C SWAP2 SWAP1 PUSH2 0x1D73 JUMP JUMPDEST PUSH1 0x40 MLOAD DUP1 SWAP2 SUB SWAP1 LOG3 PUSH1 0x1 SWAP1 POP SWAP3 SWAP2 POP POP JUMP JUMPDEST PUSH1 0x0 PUSH1 0x6 SLOAD SWAP1 POP SWAP1 JUMP JUMPDEST PUSH1 0x0 PUSH1 0x8 PUSH1 0x0 DUP4 PUSH20 0xFFFFFFFFFFFFFFFFFFFFFFFFFFFFFFFFFFFFFFFF AND PUSH20 0xFFFFFFFFFFFFFFFFFFFFFFFFFFFFFFFFFFFFFFFF AND DUP2 MSTORE PUSH1 0x20 ADD SWAP1 DUP2 MSTORE PUSH1 0x20 ADD PUSH1 0x0 KECCAK256 SLOAD SWAP1 POP SWAP2 SWAP1 POP JUMP JUMPDEST PUSH1 0x0 DUP3 PUSH1 0x0 PUSH20 0xFFFFFFFFFFFFFFFFFFFFFFFFFFFFFFFFFFFFFFFF AND DUP2 PUSH20 0xFFFFFFFFFFFFFFFFFFFFFFFFFFFFFFFFFFFFFFFF AND EQ ISZERO PUSH2 0x6EE JUMPI PUSH1 0x0 DUP1 REVERT JUMPDEST ADDRESS PUSH20 0xFFFFFFFFFFFFFFFFFFFFFFFFFFFFFFFFFFFFFFFF AND DUP2 PUSH20 0xFFFFFFFFFFFFFFFFFFFFFFFFFFFFFFFFFFFFFFFF AND EQ ISZERO PUSH2 0x727 JUMPI PUSH1 0x0 DUP1 REVERT JUMPDEST DUP3 PUSH1 0x9 PUSH1 0x0 DUP8 PUSH20 0xFFFFFFFFFFFFFFFFFFFFFFFFFFFFFFFFFFFFFFFF AND PUSH20 0xFFFFFFFFFFFFFFFFFFFFFFFFFFFFFFFFFFFFFFFF AND DUP2 MSTORE PUSH1 0x20 ADD SWAP1 DUP2 MSTORE PUSH1 0x20 ADD PUSH1 0x0 KECCAK256 PUSH1 0x0 CALLER PUSH20 0xFFFFFFFFFFFFFFFFFFFFFFFFFFFFFFFFFFFFFFFF AND PUSH20 0xFFFFFFFFFFFFFFFFFFFFFFFFFFFFFFFFFFFFFFFF AND DUP2 MSTORE PUSH1 0x20 ADD SWAP1 DUP2 MSTORE PUSH1 0x20 ADD PUSH1 0x0 KECCAK256 SLOAD PUSH2 0x7AF SWAP2 SWAP1 PUSH2 0x2017 JUMP JUMPDEST PUSH1 0x9 PUSH1 0x0 DUP8 PUSH20 0xFFFFFFFFFFFFFFFFFFFFFFFFFFFFFFFFFFFFFFFF AND PUSH20 0xFFFFFFFFFFFFFFFFFFFFFFFFFFFFFFFFFFFFFFFF AND DUP2 MSTORE PUSH1 0x20 ADD SWAP1 DUP2 MSTORE PUSH1 0x20 ADD PUSH1 0x0 KECCAK256 PUSH1 0x0 CALLER PUSH20 0xFFFFFFFFFFFFFFFFFFFFFFFFFFFFFFFFFFFFFFFF AND PUSH20 0xFFFFFFFFFFFFFFFFFFFFFFFFFFFFFFFFFFFFFFFF AND DUP2 MSTORE PUSH1 0x20 ADD SWAP1 DUP2 MSTORE PUSH1 0x20 ADD PUSH1 0x0 KECCAK256 DUP2 SWAP1 SSTORE POP PUSH1 0x0 PUSH1 0x7 SLOAD DUP5 PUSH2 0x83F SWAP2 SWAP1 PUSH2 0x1FBD JUMP JUMPDEST SWAP1 POP DUP1 PUSH1 0x8 PUSH1 0x0 DUP9 PUSH20 0xFFFFFFFFFFFFFFFFFFFFFFFFFFFFFFFFFFFFFFFF AND PUSH20 0xFFFFFFFFFFFFFFFFFFFFFFFFFFFFFFFFFFFFFFFF AND DUP2 MSTORE PUSH1 0x20 ADD SWAP1 DUP2 MSTORE PUSH1 0x20 ADD PUSH1 0x0 KECCAK256 SLOAD PUSH2 0x88C SWAP2 SWAP1 PUSH2 0x2017 JUMP JUMPDEST PUSH1 0x8 PUSH1 0x0 DUP9 PUSH20 0xFFFFFFFFFFFFFFFFFFFFFFFFFFFFFFFFFFFFFFFF AND PUSH20 0xFFFFFFFFFFFFFFFFFFFFFFFFFFFFFFFFFFFFFFFF AND DUP2 MSTORE PUSH1 0x20 ADD SWAP1 DUP2 MSTORE PUSH1 0x20 ADD PUSH1 0x0 KECCAK256 DUP2 SWAP1 SSTORE POP DUP1 PUSH1 0x8 PUSH1 0x0 DUP8 PUSH20 0xFFFFFFFFFFFFFFFFFFFFFFFFFFFFFFFFFFFFFFFF AND PUSH20 0xFFFFFFFFFFFFFFFFFFFFFFFFFFFFFFFFFFFFFFFF AND DUP2 MSTORE PUSH1 0x20 ADD SWAP1 DUP2 MSTORE PUSH1 0x20 ADD PUSH1 0x0 KECCAK256 SLOAD PUSH2 0x91A SWAP2 SWAP1 PUSH2 0x1DC5 JUMP JUMPDEST PUSH1 0x8 PUSH1 0x0 DUP8 PUSH20 0xFFFFFFFFFFFFFFFFFFFFFFFFFFFFFFFFFFFFFFFF AND PUSH20 0xFFFFFFFFFFFFFFFFFFFFFFFFFFFFFFFFFFFFFFFF AND DUP2 MSTORE PUSH1 0x20 ADD SWAP1 DUP2 MSTORE PUSH1 0x20 ADD PUSH1 0x0 KECCAK256 DUP2 SWAP1 SSTORE POP DUP5 PUSH20 0xFFFFFFFFFFFFFFFFFFFFFFFFFFFFFFFFFFFFFFFF AND DUP7 PUSH20 0xFFFFFFFFFFFFFFFFFFFFFFFFFFFFFFFFFFFFFFFF AND PUSH32 0xDDF252AD1BE2C89B69C2B068FC378DAA952BA7F163C4A11628F55A4DF523B3EF DUP7 PUSH1 0x40 MLOAD PUSH2 0x9BA SWAP2 SWAP1 PUSH2 0x1D73 JUMP JUMPDEST PUSH1 0x40 MLOAD DUP1 SWAP2 SUB SWAP1 LOG3 PUSH1 0x1 SWAP3 POP POP POP SWAP4 SWAP3 POP POP POP JUMP JUMPDEST PUSH32 0x6E71EDAE12B1B97F4D1F60370FEF10105FA2FAAE0126114A169C64845D6126C9 DUP2 JUMP JUMPDEST PUSH1 0x0 PUSH1 0x12 SWAP1 POP SWAP1 JUMP JUMPDEST PUSH1 0x0 DUP1 CHAINID SWAP1 POP PUSH32 0x8B73C3C69BB8FE3D512ECC4CF759CC79239F7B179B0FFACAA9A75D522B39400F PUSH2 0xA2B PUSH2 0x4DA JUMP JUMPDEST DUP1 MLOAD SWAP1 PUSH1 0x20 ADD KECCAK256 PUSH1 0x40 MLOAD DUP1 PUSH1 0x40 ADD PUSH1 0x40 MSTORE DUP1 PUSH1 0x1 DUP2 MSTORE PUSH1 0x20 ADD PUSH32 0x3100000000000000000000000000000000000000000000000000000000000000 DUP2 MSTORE POP DUP1 MLOAD SWAP1 PUSH1 0x20 ADD KECCAK256 DUP4 ADDRESS PUSH1 0x40 MLOAD PUSH1 0x20 ADD PUSH2 0xA85 SWAP6 SWAP5 SWAP4 SWAP3 SWAP2 SWAP1 PUSH2 0x1CFE JUMP JUMPDEST PUSH1 0x40 MLOAD PUSH1 0x20 DUP2 DUP4 SUB SUB DUP2 MSTORE SWAP1 PUSH1 0x40 MSTORE DUP1 MLOAD SWAP1 PUSH1 0x20 ADD KECCAK256 SWAP2 POP POP SWAP1 JUMP JUMPDEST PUSH1 0x0 DUP2 PUSH1 0x9 PUSH1 0x0 CALLER PUSH20 0xFFFFFFFFFFFFFFFFFFFFFFFFFFFFFFFFFFFFFFFF AND PUSH20 0xFFFFFFFFFFFFFFFFFFFFFFFFFFFFFFFFFFFFFFFF AND DUP2 MSTORE PUSH1 0x20 ADD SWAP1 DUP2 MSTORE PUSH1 0x20 ADD PUSH1 0x0 KECCAK256 PUSH1 0x0 DUP6 PUSH20 0xFFFFFFFFFFFFFFFFFFFFFFFFFFFFFFFFFFFFFFFF AND PUSH20 0xFFFFFFFFFFFFFFFFFFFFFFFFFFFFFFFFFFFFFFFF AND DUP2 MSTORE PUSH1 0x20 ADD SWAP1 DUP2 MSTORE PUSH1 0x20 ADD PUSH1 0x0 KECCAK256 SLOAD PUSH2 0xB2B SWAP2 SWAP1 PUSH2 0x1DC5 JUMP JUMPDEST PUSH1 0x9 PUSH1 0x0 CALLER PUSH20 0xFFFFFFFFFFFFFFFFFFFFFFFFFFFFFFFFFFFFFFFF AND PUSH20 0xFFFFFFFFFFFFFFFFFFFFFFFFFFFFFFFFFFFFFFFF AND DUP2 MSTORE PUSH1 0x20 ADD SWAP1 DUP2 MSTORE PUSH1 0x20 ADD PUSH1 0x0 KECCAK256 PUSH1 0x0 DUP6 PUSH20 0xFFFFFFFFFFFFFFFFFFFFFFFFFFFFFFFFFFFFFFFF AND PUSH20 0xFFFFFFFFFFFFFFFFFFFFFFFFFFFFFFFFFFFFFFFF AND DUP2 MSTORE PUSH1 0x20 ADD SWAP1 DUP2 MSTORE PUSH1 0x20 ADD PUSH1 0x0 KECCAK256 DUP2 SWAP1 SSTORE POP DUP3 PUSH20 0xFFFFFFFFFFFFFFFFFFFFFFFFFFFFFFFFFFFFFFFF AND CALLER PUSH20 0xFFFFFFFFFFFFFFFFFFFFFFFFFFFFFFFFFFFFFFFF AND PUSH32 0x8C5BE1E5EBEC7D5BD14F71427D1E84F3DD0314C0F7B2291E5B200AC8C7C3B925 PUSH1 0x9 PUSH1 0x0 CALLER PUSH20 0xFFFFFFFFFFFFFFFFFFFFFFFFFFFFFFFFFFFFFFFF AND PUSH20 0xFFFFFFFFFFFFFFFFFFFFFFFFFFFFFFFFFFFFFFFF AND DUP2 MSTORE PUSH1 0x20 ADD SWAP1 DUP2 MSTORE PUSH1 0x20 ADD PUSH1 0x0 KECCAK256 PUSH1 0x0 DUP8 PUSH20 0xFFFFFFFFFFFFFFFFFFFFFFFFFFFFFFFFFFFFFFFF AND PUSH20 0xFFFFFFFFFFFFFFFFFFFFFFFFFFFFFFFFFFFFFFFF AND DUP2 MSTORE PUSH1 0x20 ADD SWAP1 DUP2 MSTORE PUSH1 0x20 ADD PUSH1 0x0 KECCAK256 SLOAD PUSH1 0x40 MLOAD PUSH2 0xC84 SWAP2 SWAP1 PUSH2 0x1D73 JUMP JUMPDEST PUSH1 0x40 MLOAD DUP1 SWAP2 SUB SWAP1 LOG3 PUSH1 0x1 SWAP1 POP SWAP3 SWAP2 POP POP JUMP JUMPDEST PUSH1 0x0 PUSH1 0x7 SLOAD PUSH1 0x8 PUSH1 0x0 DUP5 PUSH20 0xFFFFFFFFFFFFFFFFFFFFFFFFFFFFFFFFFFFFFFFF AND PUSH20 0xFFFFFFFFFFFFFFFFFFFFFFFFFFFFFFFFFFFFFFFF AND DUP2 MSTORE PUSH1 0x20 ADD SWAP1 DUP2 MSTORE PUSH1 0x20 ADD PUSH1 0x0 KECCAK256 SLOAD PUSH2 0xCE5 SWAP2 SWAP1 PUSH2 0x1E1B JUMP JUMPDEST SWAP1 POP SWAP2 SWAP1 POP JUMP JUMPDEST PUSH1 0x40 MLOAD DUP1 PUSH1 0x40 ADD PUSH1 0x40 MSTORE DUP1 PUSH1 0x1 DUP2 MSTORE PUSH1 0x20 ADD PUSH32 0x3100000000000000000000000000000000000000000000000000000000000000 DUP2 MSTORE POP DUP2 JUMP JUMPDEST PUSH1 0x0 DUP1 DUP3 EQ ISZERO PUSH2 0xD73 JUMPI DUP3 PUSH32 0x72725A3B1E5BD622D6BCD1339BB31279C351ABE8F541AC7FD320F24E1B1641F2 PUSH1 0x6 SLOAD PUSH1 0x40 MLOAD PUSH2 0xD61 SWAP2 SWAP1 PUSH2 0x1D73 JUMP JUMPDEST PUSH1 0x40 MLOAD DUP1 SWAP2 SUB SWAP1 LOG2 PUSH1 0x6 SLOAD SWAP1 POP PUSH2 0xEAE JUMP JUMPDEST PUSH1 0x0 DUP3 SLT ISZERO PUSH2 0xD9D JUMPI PUSH2 0xD85 DUP3 PUSH2 0x1A88 JUMP JUMPDEST PUSH1 0x6 SLOAD PUSH2 0xD92 SWAP2 SWAP1 PUSH2 0x2017 JUMP JUMPDEST PUSH1 0x6 DUP2 SWAP1 SSTORE POP PUSH2 0xDB2 JUMP JUMPDEST DUP2 PUSH1 0x6 SLOAD PUSH2 0xDAB SWAP2 SWAP1 PUSH2 0x1DC5 JUMP JUMPDEST PUSH1 0x6 DUP2 SWAP1 SSTORE POP JUMPDEST PUSH16 0xFFFFFFFFFFFFFFFFFFFFFFFFFFFFFFFF DUP1 AND PUSH1 0x6 SLOAD GT ISZERO PUSH2 0xDE8 JUMPI PUSH16 0xFFFFFFFFFFFFFFFFFFFFFFFFFFFFFFFF DUP1 AND PUSH1 0x6 DUP2 SWAP1 SSTORE POP JUMPDEST PUSH1 0x6 SLOAD PUSH1 0x9 PUSH1 0xA PUSH2 0xDF9 SWAP2 SWAP1 PUSH2 0x1E9F JUMP JUMPDEST PUSH4 0x2FAF080 PUSH2 0xE08 SWAP2 SWAP1 PUSH2 0x1FBD JUMP JUMPDEST PUSH32 0xFFFFFFFFFFFFFFFFFFFFFFFFFFFFFFFFFFFFFFFFFFFFFFFFFFFFFFFFFFFFFFFF PUSH2 0xE33 SWAP2 SWAP1 PUSH2 0x2119 JUMP JUMPDEST PUSH32 0xFFFFFFFFFFFFFFFFFFFFFFFFFFFFFFFFFFFFFFFFFFFFFFFFFFFFFFFFFFFFFFFF PUSH2 0xE5E SWAP2 SWAP1 PUSH2 0x2017 JUMP JUMPDEST PUSH2 0xE68 SWAP2 SWAP1 PUSH2 0x1E1B JUMP JUMPDEST PUSH1 0x7 DUP2 SWAP1 SSTORE POP DUP3 PUSH32 0x72725A3B1E5BD622D6BCD1339BB31279C351ABE8F541AC7FD320F24E1B1641F2 PUSH1 0x6 SLOAD PUSH1 0x40 MLOAD PUSH2 0xEA0 SWAP2 SWAP1 PUSH2 0x1D73 JUMP JUMPDEST PUSH1 0x40 MLOAD DUP1 SWAP2 SUB SWAP1 LOG2 PUSH1 0x6 SLOAD SWAP1 POP JUMPDEST SWAP3 SWAP2 POP POP JUMP JUMPDEST PUSH1 0x0 PUSH1 0xA PUSH1 0x0 DUP4 PUSH20 0xFFFFFFFFFFFFFFFFFFFFFFFFFFFFFFFFFFFFFFFF AND PUSH20 0xFFFFFFFFFFFFFFFFFFFFFFFFFFFFFFFFFFFFFFFF AND DUP2 MSTORE PUSH1 0x20 ADD SWAP1 DUP2 MSTORE PUSH1 0x20 ADD PUSH1 0x0 KECCAK256 SLOAD SWAP1 POP SWAP2 SWAP1 POP JUMP JUMPDEST PUSH1 0x0 DUP2 PUSH1 0x0 PUSH20 0xFFFFFFFFFFFFFFFFFFFFFFFFFFFFFFFFFFFFFFFF AND DUP2 PUSH20 0xFFFFFFFFFFFFFFFFFFFFFFFFFFFFFFFFFFFFFFFF AND EQ ISZERO PUSH2 0xF3A JUMPI PUSH1 0x0 DUP1 REVERT JUMPDEST ADDRESS PUSH20 0xFFFFFFFFFFFFFFFFFFFFFFFFFFFFFFFFFFFFFFFF AND DUP2 PUSH20 0xFFFFFFFFFFFFFFFFFFFFFFFFFFFFFFFFFFFFFFFF AND EQ ISZERO PUSH2 0xF73 JUMPI PUSH1 0x0 DUP1 REVERT JUMPDEST PUSH1 0x0 PUSH1 0x8 PUSH1 0x0 DUP7 PUSH20 0xFFFFFFFFFFFFFFFFFFFFFFFFFFFFFFFFFFFFFFFF AND PUSH20 0xFFFFFFFFFFFFFFFFFFFFFFFFFFFFFFFFFFFFFFFF AND DUP2 MSTORE PUSH1 0x20 ADD SWAP1 DUP2 MSTORE PUSH1 0x20 ADD PUSH1 0x0 KECCAK256 SLOAD SWAP1 POP PUSH1 0x0 PUSH1 0x7 SLOAD DUP3 PUSH2 0xFC7 SWAP2 SWAP1 PUSH2 0x1E1B JUMP JUMPDEST SWAP1 POP DUP1 PUSH1 0x9 PUSH1 0x0 DUP9 PUSH20 0xFFFFFFFFFFFFFFFFFFFFFFFFFFFFFFFFFFFFFFFF AND PUSH20 0xFFFFFFFFFFFFFFFFFFFFFFFFFFFFFFFFFFFFFFFF AND DUP2 MSTORE PUSH1 0x20 ADD SWAP1 DUP2 MSTORE PUSH1 0x20 ADD PUSH1 0x0 KECCAK256 PUSH1 0x0 CALLER PUSH20 0xFFFFFFFFFFFFFFFFFFFFFFFFFFFFFFFFFFFFFFFF AND PUSH20 0xFFFFFFFFFFFFFFFFFFFFFFFFFFFFFFFFFFFFFFFF AND DUP2 MSTORE PUSH1 0x20 ADD SWAP1 DUP2 MSTORE PUSH1 0x20 ADD PUSH1 0x0 KECCAK256 SLOAD PUSH2 0x1051 SWAP2 SWAP1 PUSH2 0x2017 JUMP JUMPDEST PUSH1 0x9 PUSH1 0x0 DUP9 PUSH20 0xFFFFFFFFFFFFFFFFFFFFFFFFFFFFFFFFFFFFFFFF AND PUSH20 0xFFFFFFFFFFFFFFFFFFFFFFFFFFFFFFFFFFFFFFFF AND DUP2 MSTORE PUSH1 0x20 ADD SWAP1 DUP2 MSTORE PUSH1 0x20 ADD PUSH1 0x0 KECCAK256 PUSH1 0x0 CALLER PUSH20 0xFFFFFFFFFFFFFFFFFFFFFFFFFFFFFFFFFFFFFFFF AND PUSH20 0xFFFFFFFFFFFFFFFFFFFFFFFFFFFFFFFFFFFFFFFF AND DUP2 MSTORE PUSH1 0x20 ADD SWAP1 DUP2 MSTORE PUSH1 0x20 ADD PUSH1 0x0 KECCAK256 DUP2 SWAP1 SSTORE POP PUSH1 0x8 PUSH1 0x0 DUP8 PUSH20 0xFFFFFFFFFFFFFFFFFFFFFFFFFFFFFFFFFFFFFFFF AND PUSH20 0xFFFFFFFFFFFFFFFFFFFFFFFFFFFFFFFFFFFFFFFF AND DUP2 MSTORE PUSH1 0x20 ADD SWAP1 DUP2 MSTORE PUSH1 0x20 ADD PUSH1 0x0 KECCAK256 PUSH1 0x0 SWAP1 SSTORE DUP2 PUSH1 0x8 PUSH1 0x0 DUP8 PUSH20 0xFFFFFFFFFFFFFFFFFFFFFFFFFFFFFFFFFFFFFFFF AND PUSH20 0xFFFFFFFFFFFFFFFFFFFFFFFFFFFFFFFFFFFFFFFF AND DUP2 MSTORE PUSH1 0x20 ADD SWAP1 DUP2 MSTORE PUSH1 0x20 ADD PUSH1 0x0 KECCAK256 SLOAD PUSH2 0x115F SWAP2 SWAP1 PUSH2 0x1DC5 JUMP JUMPDEST PUSH1 0x8 PUSH1 0x0 DUP8 PUSH20 0xFFFFFFFFFFFFFFFFFFFFFFFFFFFFFFFFFFFFFFFF AND PUSH20 0xFFFFFFFFFFFFFFFFFFFFFFFFFFFFFFFFFFFFFFFF AND DUP2 MSTORE PUSH1 0x20 ADD SWAP1 DUP2 MSTORE PUSH1 0x20 ADD PUSH1 0x0 KECCAK256 DUP2 SWAP1 SSTORE POP DUP5 PUSH20 0xFFFFFFFFFFFFFFFFFFFFFFFFFFFFFFFFFFFFFFFF AND DUP7 PUSH20 0xFFFFFFFFFFFFFFFFFFFFFFFFFFFFFFFFFFFFFFFF AND PUSH32 0xDDF252AD1BE2C89B69C2B068FC378DAA952BA7F163C4A11628F55A4DF523B3EF DUP4 PUSH1 0x40 MLOAD PUSH2 0x11FF SWAP2 SWAP1 PUSH2 0x1D73 JUMP JUMPDEST PUSH1 0x40 MLOAD DUP1 SWAP2 SUB SWAP1 LOG3 PUSH1 0x1 SWAP4 POP POP POP POP SWAP3 SWAP2 POP POP JUMP JUMPDEST PUSH1 0x5 PUSH1 0x0 SWAP1 SLOAD SWAP1 PUSH2 0x100 EXP SWAP1 DIV PUSH20 0xFFFFFFFFFFFFFFFFFFFFFFFFFFFFFFFFFFFFFFFF AND DUP2 JUMP JUMPDEST PUSH1 0x60 PUSH1 0x4 DUP1 SLOAD PUSH2 0x1249 SWAP1 PUSH2 0x20E7 JUMP JUMPDEST DUP1 PUSH1 0x1F ADD PUSH1 0x20 DUP1 SWAP2 DIV MUL PUSH1 0x20 ADD PUSH1 0x40 MLOAD SWAP1 DUP2 ADD PUSH1 0x40 MSTORE DUP1 SWAP3 SWAP2 SWAP1 DUP2 DUP2 MSTORE PUSH1 0x20 ADD DUP3 DUP1 SLOAD PUSH2 0x1275 SWAP1 PUSH2 0x20E7 JUMP JUMPDEST DUP1 ISZERO PUSH2 0x12C2 JUMPI DUP1 PUSH1 0x1F LT PUSH2 0x1297 JUMPI PUSH2 0x100 DUP1 DUP4 SLOAD DIV MUL DUP4 MSTORE SWAP2 PUSH1 0x20 ADD SWAP2 PUSH2 0x12C2 JUMP JUMPDEST DUP3 ADD SWAP2 SWAP1 PUSH1 0x0 MSTORE PUSH1 0x20 PUSH1 0x0 KECCAK256 SWAP1 JUMPDEST DUP2 SLOAD DUP2 MSTORE SWAP1 PUSH1 0x1 ADD SWAP1 PUSH1 0x20 ADD DUP1 DUP4 GT PUSH2 0x12A5 JUMPI DUP3 SWAP1 SUB PUSH1 0x1F AND DUP3 ADD SWAP2 JUMPDEST POP POP POP POP POP SWAP1 POP SWAP1 JUMP JUMPDEST PUSH1 0x0 DUP2 PUSH1 0x0 PUSH20 0xFFFFFFFFFFFFFFFFFFFFFFFFFFFFFFFFFFFFFFFF AND DUP2 PUSH20 0xFFFFFFFFFFFFFFFFFFFFFFFFFFFFFFFFFFFFFFFF AND EQ ISZERO PUSH2 0x1309 JUMPI PUSH1 0x0 DUP1 REVERT JUMPDEST ADDRESS PUSH20 0xFFFFFFFFFFFFFFFFFFFFFFFFFFFFFFFFFFFFFFFF AND DUP2 PUSH20 0xFFFFFFFFFFFFFFFFFFFFFFFFFFFFFFFFFFFFFFFF AND EQ ISZERO PUSH2 0x1342 JUMPI PUSH1 0x0 DUP1 REVERT JUMPDEST PUSH1 0x0 PUSH1 0x8 PUSH1 0x0 CALLER PUSH20 0xFFFFFFFFFFFFFFFFFFFFFFFFFFFFFFFFFFFFFFFF AND PUSH20 0xFFFFFFFFFFFFFFFFFFFFFFFFFFFFFFFFFFFFFFFF AND DUP2 MSTORE PUSH1 0x20 ADD SWAP1 DUP2 MSTORE PUSH1 0x20 ADD PUSH1 0x0 KECCAK256 SLOAD SWAP1 POP PUSH1 0x0 PUSH1 0x7 SLOAD DUP3 PUSH2 0x1396 SWAP2 SWAP1 PUSH2 0x1E1B JUMP JUMPDEST SWAP1 POP PUSH1 0x8 PUSH1 0x0 CALLER PUSH20 0xFFFFFFFFFFFFFFFFFFFFFFFFFFFFFFFFFFFFFFFF AND PUSH20 0xFFFFFFFFFFFFFFFFFFFFFFFFFFFFFFFFFFFFFFFF AND DUP2 MSTORE PUSH1 0x20 ADD SWAP1 DUP2 MSTORE PUSH1 0x20 ADD PUSH1 0x0 KECCAK256 PUSH1 0x0 SWAP1 SSTORE DUP2 PUSH1 0x8 PUSH1 0x0 DUP8 PUSH20 0xFFFFFFFFFFFFFFFFFFFFFFFFFFFFFFFFFFFFFFFF AND PUSH20 0xFFFFFFFFFFFFFFFFFFFFFFFFFFFFFFFFFFFFFFFF AND DUP2 MSTORE PUSH1 0x20 ADD SWAP1 DUP2 MSTORE PUSH1 0x20 ADD PUSH1 0x0 KECCAK256 SLOAD PUSH2 0x1426 SWAP2 SWAP1 PUSH2 0x1DC5 JUMP JUMPDEST PUSH1 0x8 PUSH1 0x0 DUP8 PUSH20 0xFFFFFFFFFFFFFFFFFFFFFFFFFFFFFFFFFFFFFFFF AND PUSH20 0xFFFFFFFFFFFFFFFFFFFFFFFFFFFFFFFFFFFFFFFF AND DUP2 MSTORE PUSH1 0x20 ADD SWAP1 DUP2 MSTORE PUSH1 0x20 ADD PUSH1 0x0 KECCAK256 DUP2 SWAP1 SSTORE POP DUP5 PUSH20 0xFFFFFFFFFFFFFFFFFFFFFFFFFFFFFFFFFFFFFFFF AND CALLER PUSH20 0xFFFFFFFFFFFFFFFFFFFFFFFFFFFFFFFFFFFFFFFF AND PUSH32 0xDDF252AD1BE2C89B69C2B068FC378DAA952BA7F163C4A11628F55A4DF523B3EF DUP4 PUSH1 0x40 MLOAD PUSH2 0x14C6 SWAP2 SWAP1 PUSH2 0x1D73 JUMP JUMPDEST PUSH1 0x40 MLOAD DUP1 SWAP2 SUB SWAP1 LOG3 PUSH1 0x1 SWAP4 POP POP POP POP SWAP2 SWAP1 POP JUMP JUMPDEST PUSH1 0x0 DUP1 PUSH1 0x9 PUSH1 0x0 CALLER PUSH20 0xFFFFFFFFFFFFFFFFFFFFFFFFFFFFFFFFFFFFFFFF AND PUSH20 0xFFFFFFFFFFFFFFFFFFFFFFFFFFFFFFFFFFFFFFFF AND DUP2 MSTORE PUSH1 0x20 ADD SWAP1 DUP2 MSTORE PUSH1 0x20 ADD PUSH1 0x0 KECCAK256 PUSH1 0x0 DUP6 PUSH20 0xFFFFFFFFFFFFFFFFFFFFFFFFFFFFFFFFFFFFFFFF AND PUSH20 0xFFFFFFFFFFFFFFFFFFFFFFFFFFFFFFFFFFFFFFFF AND DUP2 MSTORE PUSH1 0x20 ADD SWAP1 DUP2 MSTORE PUSH1 0x20 ADD PUSH1 0x0 KECCAK256 SLOAD SWAP1 POP DUP1 DUP4 LT ISZERO PUSH2 0x1575 JUMPI DUP3 DUP2 PUSH2 0x1570 SWAP2 SWAP1 PUSH2 0x2017 JUMP JUMPDEST PUSH2 0x1578 JUMP JUMPDEST PUSH1 0x0 JUMPDEST PUSH1 0x9 PUSH1 0x0 CALLER PUSH20 0xFFFFFFFFFFFFFFFFFFFFFFFFFFFFFFFFFFFFFFFF AND PUSH20 0xFFFFFFFFFFFFFFFFFFFFFFFFFFFFFFFFFFFFFFFF AND DUP2 MSTORE PUSH1 0x20 ADD SWAP1 DUP2 MSTORE PUSH1 0x20 ADD PUSH1 0x0 KECCAK256 PUSH1 0x0 DUP7 PUSH20 0xFFFFFFFFFFFFFFFFFFFFFFFFFFFFFFFFFFFFFFFF AND PUSH20 0xFFFFFFFFFFFFFFFFFFFFFFFFFFFFFFFFFFFFFFFF AND DUP2 MSTORE PUSH1 0x20 ADD SWAP1 DUP2 MSTORE PUSH1 0x20 ADD PUSH1 0x0 KECCAK256 DUP2 SWAP1 SSTORE POP DUP4 PUSH20 0xFFFFFFFFFFFFFFFFFFFFFFFFFFFFFFFFFFFFFFFF AND CALLER PUSH20 0xFFFFFFFFFFFFFFFFFFFFFFFFFFFFFFFFFFFFFFFF AND PUSH32 0x8C5BE1E5EBEC7D5BD14F71427D1E84F3DD0314C0F7B2291E5B200AC8C7C3B925 PUSH1 0x9 PUSH1 0x0 CALLER PUSH20 0xFFFFFFFFFFFFFFFFFFFFFFFFFFFFFFFFFFFFFFFF AND PUSH20 0xFFFFFFFFFFFFFFFFFFFFFFFFFFFFFFFFFFFFFFFF AND DUP2 MSTORE PUSH1 0x20 ADD SWAP1 DUP2 MSTORE PUSH1 0x20 ADD PUSH1 0x0 KECCAK256 PUSH1 0x0 DUP9 PUSH20 0xFFFFFFFFFFFFFFFFFFFFFFFFFFFFFFFFFFFFFFFF AND PUSH20 0xFFFFFFFFFFFFFFFFFFFFFFFFFFFFFFFFFFFFFFFF AND DUP2 MSTORE PUSH1 0x20 ADD SWAP1 DUP2 MSTORE PUSH1 0x20 ADD PUSH1 0x0 KECCAK256 SLOAD PUSH1 0x40 MLOAD PUSH2 0x16D1 SWAP2 SWAP1 PUSH2 0x1D73 JUMP JUMPDEST PUSH1 0x40 MLOAD DUP1 SWAP2 SUB SWAP1 LOG3 PUSH1 0x1 SWAP2 POP POP SWAP3 SWAP2 POP POP JUMP JUMPDEST PUSH1 0x0 DUP3 PUSH1 0x0 PUSH20 0xFFFFFFFFFFFFFFFFFFFFFFFFFFFFFFFFFFFFFFFF AND DUP2 PUSH20 0xFFFFFFFFFFFFFFFFFFFFFFFFFFFFFFFFFFFFFFFF AND EQ ISZERO PUSH2 0x1721 JUMPI PUSH1 0x0 DUP1 REVERT JUMPDEST ADDRESS PUSH20 0xFFFFFFFFFFFFFFFFFFFFFFFFFFFFFFFFFFFFFFFF AND DUP2 PUSH20 0xFFFFFFFFFFFFFFFFFFFFFFFFFFFFFFFFFFFFFFFF AND EQ ISZERO PUSH2 0x175A JUMPI PUSH1 0x0 DUP1 REVERT JUMPDEST PUSH1 0x0 PUSH1 0x7 SLOAD DUP5 PUSH2 0x176A SWAP2 SWAP1 PUSH2 0x1FBD JUMP JUMPDEST SWAP1 POP DUP1 PUSH1 0x8 PUSH1 0x0 CALLER PUSH20 0xFFFFFFFFFFFFFFFFFFFFFFFFFFFFFFFFFFFFFFFF AND PUSH20 0xFFFFFFFFFFFFFFFFFFFFFFFFFFFFFFFFFFFFFFFF AND DUP2 MSTORE PUSH1 0x20 ADD SWAP1 DUP2 MSTORE PUSH1 0x20 ADD PUSH1 0x0 KECCAK256 SLOAD PUSH2 0x17B7 SWAP2 SWAP1 PUSH2 0x2017 JUMP JUMPDEST PUSH1 0x8 PUSH1 0x0 CALLER PUSH20 0xFFFFFFFFFFFFFFFFFFFFFFFFFFFFFFFFFFFFFFFF AND PUSH20 0xFFFFFFFFFFFFFFFFFFFFFFFFFFFFFFFFFFFFFFFF AND DUP2 MSTORE PUSH1 0x20 ADD SWAP1 DUP2 MSTORE PUSH1 0x20 ADD PUSH1 0x0 KECCAK256 DUP2 SWAP1 SSTORE POP DUP1 PUSH1 0x8 PUSH1 0x0 DUP8 PUSH20 0xFFFFFFFFFFFFFFFFFFFFFFFFFFFFFFFFFFFFFFFF AND PUSH20 0xFFFFFFFFFFFFFFFFFFFFFFFFFFFFFFFFFFFFFFFF AND DUP2 MSTORE PUSH1 0x20 ADD SWAP1 DUP2 MSTORE PUSH1 0x20 ADD PUSH1 0x0 KECCAK256 SLOAD PUSH2 0x1845 SWAP2 SWAP1 PUSH2 0x1DC5 JUMP JUMPDEST PUSH1 0x8 PUSH1 0x0 DUP8 PUSH20 0xFFFFFFFFFFFFFFFFFFFFFFFFFFFFFFFFFFFFFFFF AND PUSH20 0xFFFFFFFFFFFFFFFFFFFFFFFFFFFFFFFFFFFFFFFF AND DUP2 MSTORE PUSH1 0x20 ADD SWAP1 DUP2 MSTORE PUSH1 0x20 ADD PUSH1 0x0 KECCAK256 DUP2 SWAP1 SSTORE POP DUP5 PUSH20 0xFFFFFFFFFFFFFFFFFFFFFFFFFFFFFFFFFFFFFFFF AND CALLER PUSH20 0xFFFFFFFFFFFFFFFFFFFFFFFFFFFFFFFFFFFFFFFF AND PUSH32 0xDDF252AD1BE2C89B69C2B068FC378DAA952BA7F163C4A11628F55A4DF523B3EF DUP7 PUSH1 0x40 MLOAD PUSH2 0x18E5 SWAP2 SWAP1 PUSH2 0x1D73 JUMP JUMPDEST PUSH1 0x40 MLOAD DUP1 SWAP2 SUB SWAP1 LOG3 PUSH1 0x1 SWAP3 POP POP POP SWAP3 SWAP2 POP POP JUMP JUMPDEST CALLER PUSH20 0xFFFFFFFFFFFFFFFFFFFFFFFFFFFFFFFFFFFFFFFF AND PUSH1 0x0 PUSH20 0xFFFFFFFFFFFFFFFFFFFFFFFFFFFFFFFFFFFFFFFF AND PUSH32 0xDDF252AD1BE2C89B69C2B068FC378DAA952BA7F163C4A11628F55A4DF523B3EF DUP4 PUSH1 0x40 MLOAD PUSH2 0x1957 SWAP2 SWAP1 PUSH2 0x1D73 JUMP JUMPDEST PUSH1 0x40 MLOAD DUP1 SWAP2 SUB SWAP1 LOG3 POP POP JUMP JUMPDEST PUSH1 0x0 PUSH1 0x9 PUSH1 0xA PUSH2 0x1973 SWAP2 SWAP1 PUSH2 0x1E9F JUMP JUMPDEST PUSH4 0x2FAF080 PUSH2 0x1982 SWAP2 SWAP1 PUSH2 0x1FBD JUMP JUMPDEST PUSH32 0xFFFFFFFFFFFFFFFFFFFFFFFFFFFFFFFFFFFFFFFFFFFFFFFFFFFFFFFFFFFFFFFF PUSH2 0x19AD SWAP2 SWAP1 PUSH2 0x2119 JUMP JUMPDEST PUSH32 0xFFFFFFFFFFFFFFFFFFFFFFFFFFFFFFFFFFFFFFFFFFFFFFFFFFFFFFFFFFFFFFFF PUSH2 0x19D8 SWAP2 SWAP1 PUSH2 0x2017 JUMP JUMPDEST SWAP1 POP SWAP1 JUMP JUMPDEST PUSH1 0x0 PUSH1 0x9 PUSH1 0x0 DUP5 PUSH20 0xFFFFFFFFFFFFFFFFFFFFFFFFFFFFFFFFFFFFFFFF AND PUSH20 0xFFFFFFFFFFFFFFFFFFFFFFFFFFFFFFFFFFFFFFFF AND DUP2 MSTORE PUSH1 0x20 ADD SWAP1 DUP2 MSTORE PUSH1 0x20 ADD PUSH1 0x0 KECCAK256 PUSH1 0x0 DUP4 PUSH20 0xFFFFFFFFFFFFFFFFFFFFFFFFFFFFFFFFFFFFFFFF AND PUSH20 0xFFFFFFFFFFFFFFFFFFFFFFFFFFFFFFFFFFFFFFFF AND DUP2 MSTORE PUSH1 0x20 ADD SWAP1 DUP2 MSTORE PUSH1 0x20 ADD PUSH1 0x0 KECCAK256 SLOAD SWAP1 POP SWAP3 SWAP2 POP POP JUMP JUMPDEST PUSH32 0x8B73C3C69BB8FE3D512ECC4CF759CC79239F7B179B0FFACAA9A75D522B39400F DUP2 JUMP JUMPDEST PUSH1 0x0 DUP1 DUP3 SLT ISZERO PUSH2 0x1AA1 JUMPI DUP2 PUSH2 0x1A9C SWAP1 PUSH2 0x214A JUMP JUMPDEST PUSH2 0x1AA3 JUMP JUMPDEST DUP2 JUMPDEST SWAP1 POP SWAP2 SWAP1 POP JUMP JUMPDEST PUSH1 0x0 DUP2 CALLDATALOAD SWAP1 POP PUSH2 0x1AB9 DUP2 PUSH2 0x2243 JUMP JUMPDEST SWAP3 SWAP2 POP POP JUMP JUMPDEST PUSH1 0x0 DUP2 CALLDATALOAD SWAP1 POP PUSH2 0x1ACE DUP2 PUSH2 0x225A JUMP JUMPDEST SWAP3 SWAP2 POP POP JUMP JUMPDEST PUSH1 0x0 DUP2 CALLDATALOAD SWAP1 POP PUSH2 0x1AE3 DUP2 PUSH2 0x2271 JUMP JUMPDEST SWAP3 SWAP2 POP POP JUMP JUMPDEST PUSH1 0x0 PUSH1 0x20 DUP3 DUP5 SUB SLT ISZERO PUSH2 0x1AFF JUMPI PUSH2 0x1AFE PUSH2 0x2220 JUMP JUMPDEST JUMPDEST PUSH1 0x0 PUSH2 0x1B0D DUP5 DUP3 DUP6 ADD PUSH2 0x1AAA JUMP JUMPDEST SWAP2 POP POP SWAP3 SWAP2 POP POP JUMP JUMPDEST PUSH1 0x0 DUP1 PUSH1 0x40 DUP4 DUP6 SUB SLT ISZERO PUSH2 0x1B2D JUMPI PUSH2 0x1B2C PUSH2 0x2220 JUMP JUMPDEST JUMPDEST PUSH1 0x0 PUSH2 0x1B3B DUP6 DUP3 DUP7 ADD PUSH2 0x1AAA JUMP JUMPDEST SWAP3 POP POP PUSH1 0x20 PUSH2 0x1B4C DUP6 DUP3 DUP7 ADD PUSH2 0x1AAA JUMP JUMPDEST SWAP2 POP POP SWAP3 POP SWAP3 SWAP1 POP JUMP JUMPDEST PUSH1 0x0 DUP1 PUSH1 0x0 PUSH1 0x60 DUP5 DUP7 SUB SLT ISZERO PUSH2 0x1B6F JUMPI PUSH2 0x1B6E PUSH2 0x2220 JUMP JUMPDEST JUMPDEST PUSH1 0x0 PUSH2 0x1B7D DUP7 DUP3 DUP8 ADD PUSH2 0x1AAA JUMP JUMPDEST SWAP4 POP POP PUSH1 0x20 PUSH2 0x1B8E DUP7 DUP3 DUP8 ADD PUSH2 0x1AAA JUMP JUMPDEST SWAP3 POP POP PUSH1 0x40 PUSH2 0x1B9F DUP7 DUP3 DUP8 ADD PUSH2 0x1AD4 JUMP JUMPDEST SWAP2 POP POP SWAP3 POP SWAP3 POP SWAP3 JUMP JUMPDEST PUSH1 0x0 DUP1 PUSH1 0x40 DUP4 DUP6 SUB SLT ISZERO PUSH2 0x1BC0 JUMPI PUSH2 0x1BBF PUSH2 0x2220 JUMP JUMPDEST JUMPDEST PUSH1 0x0 PUSH2 0x1BCE DUP6 DUP3 DUP7 ADD PUSH2 0x1AAA JUMP JUMPDEST SWAP3 POP POP PUSH1 0x20 PUSH2 0x1BDF DUP6 DUP3 DUP7 ADD PUSH2 0x1AD4 JUMP JUMPDEST SWAP2 POP POP SWAP3 POP SWAP3 SWAP1 POP JUMP JUMPDEST PUSH1 0x0 DUP1 PUSH1 0x40 DUP4 DUP6 SUB SLT ISZERO PUSH2 0x1C00 JUMPI PUSH2 0x1BFF PUSH2 0x2220 JUMP JUMPDEST JUMPDEST PUSH1 0x0 PUSH2 0x1C0E DUP6 DUP3 DUP7 ADD PUSH2 0x1AD4 JUMP JUMPDEST SWAP3 POP POP PUSH1 0x20 PUSH2 0x1C1F DUP6 DUP3 DUP7 ADD PUSH2 0x1ABF JUMP JUMPDEST SWAP2 POP POP SWAP3 POP SWAP3 SWAP1 POP JUMP JUMPDEST PUSH2 0x1C32 DUP2 PUSH2 0x204B JUMP JUMPDEST DUP3 MSTORE POP POP JUMP JUMPDEST PUSH2 0x1C41 DUP2 PUSH2 0x205D JUMP JUMPDEST DUP3 MSTORE POP POP JUMP JUMPDEST PUSH2 0x1C50 DUP2 PUSH2 0x2069 JUMP JUMPDEST DUP3 MSTORE POP POP JUMP JUMPDEST PUSH1 0x0 PUSH2 0x1C61 DUP3 PUSH2 0x1DA9 JUMP JUMPDEST PUSH2 0x1C6B DUP2 DUP6 PUSH2 0x1DB4 JUMP JUMPDEST SWAP4 POP PUSH2 0x1C7B DUP2 DUP6 PUSH1 0x20 DUP7 ADD PUSH2 0x20B4 JUMP JUMPDEST PUSH2 0x1C84 DUP2 PUSH2 0x2225 JUMP JUMPDEST DUP5 ADD SWAP2 POP POP SWAP3 SWAP2 POP POP JUMP JUMPDEST PUSH2 0x1C98 DUP2 PUSH2 0x209D JUMP JUMPDEST DUP3 MSTORE POP POP JUMP JUMPDEST PUSH2 0x1CA7 DUP2 PUSH2 0x20A7 JUMP JUMPDEST DUP3 MSTORE POP POP JUMP JUMPDEST PUSH1 0x0 PUSH1 0x20 DUP3 ADD SWAP1 POP PUSH2 0x1CC2 PUSH1 0x0 DUP4 ADD DUP5 PUSH2 0x1C29 JUMP JUMPDEST SWAP3 SWAP2 POP POP JUMP JUMPDEST PUSH1 0x0 PUSH1 0x20 DUP3 ADD SWAP1 POP PUSH2 0x1CDD PUSH1 0x0 DUP4 ADD DUP5 PUSH2 0x1C38 JUMP JUMPDEST SWAP3 SWAP2 POP POP JUMP JUMPDEST PUSH1 0x0 PUSH1 0x20 DUP3 ADD SWAP1 POP PUSH2 0x1CF8 PUSH1 0x0 DUP4 ADD DUP5 PUSH2 0x1C47 JUMP JUMPDEST SWAP3 SWAP2 POP POP JUMP JUMPDEST PUSH1 0x0 PUSH1 0xA0 DUP3 ADD SWAP1 POP PUSH2 0x1D13 PUSH1 0x0 DUP4 ADD DUP9 PUSH2 0x1C47 JUMP JUMPDEST PUSH2 0x1D20 PUSH1 0x20 DUP4 ADD DUP8 PUSH2 0x1C47 JUMP JUMPDEST PUSH2 0x1D2D PUSH1 0x40 DUP4 ADD DUP7 PUSH2 0x1C47 JUMP JUMPDEST PUSH2 0x1D3A PUSH1 0x60 DUP4 ADD DUP6 PUSH2 0x1C8F JUMP JUMPDEST PUSH2 0x1D47 PUSH1 0x80 DUP4 ADD DUP5 PUSH2 0x1C29 JUMP JUMPDEST SWAP7 SWAP6 POP POP POP POP POP POP JUMP JUMPDEST PUSH1 0x0 PUSH1 0x20 DUP3 ADD SWAP1 POP DUP2 DUP2 SUB PUSH1 0x0 DUP4 ADD MSTORE PUSH2 0x1D6B DUP2 DUP5 PUSH2 0x1C56 JUMP JUMPDEST SWAP1 POP SWAP3 SWAP2 POP POP JUMP JUMPDEST PUSH1 0x0 PUSH1 0x20 DUP3 ADD SWAP1 POP PUSH2 0x1D88 PUSH1 0x0 DUP4 ADD DUP5 PUSH2 0x1C8F JUMP JUMPDEST SWAP3 SWAP2 POP POP JUMP JUMPDEST PUSH1 0x0 PUSH1 0x20 DUP3 ADD SWAP1 POP PUSH2 0x1DA3 PUSH1 0x0 DUP4 ADD DUP5 PUSH2 0x1C9E JUMP JUMPDEST SWAP3 SWAP2 POP POP JUMP JUMPDEST PUSH1 0x0 DUP2 MLOAD SWAP1 POP SWAP2 SWAP1 POP JUMP JUMPDEST PUSH1 0x0 DUP3 DUP3 MSTORE PUSH1 0x20 DUP3 ADD SWAP1 POP SWAP3 SWAP2 POP POP JUMP JUMPDEST PUSH1 0x0 PUSH2 0x1DD0 DUP3 PUSH2 0x209D JUMP JUMPDEST SWAP2 POP PUSH2 0x1DDB DUP4 PUSH2 0x209D JUMP JUMPDEST SWAP3 POP DUP3 PUSH32 0xFFFFFFFFFFFFFFFFFFFFFFFFFFFFFFFFFFFFFFFFFFFFFFFFFFFFFFFFFFFFFFFF SUB DUP3 GT ISZERO PUSH2 0x1E10 JUMPI PUSH2 0x1E0F PUSH2 0x2193 JUMP JUMPDEST JUMPDEST DUP3 DUP3 ADD SWAP1 POP SWAP3 SWAP2 POP POP JUMP JUMPDEST PUSH1 0x0 PUSH2 0x1E26 DUP3 PUSH2 0x209D JUMP JUMPDEST SWAP2 POP PUSH2 0x1E31 DUP4 PUSH2 0x209D JUMP JUMPDEST SWAP3 POP DUP3 PUSH2 0x1E41 JUMPI PUSH2 0x1E40 PUSH2 0x21C2 JUMP JUMPDEST JUMPDEST DUP3 DUP3 DIV SWAP1 POP SWAP3 SWAP2 POP POP JUMP JUMPDEST PUSH1 0x0 DUP1 DUP3 SWAP2 POP DUP4 SWAP1 POP JUMPDEST PUSH1 0x1 DUP6 GT ISZERO PUSH2 0x1E96 JUMPI DUP1 DUP7 DIV DUP2 GT ISZERO PUSH2 0x1E72 JUMPI PUSH2 0x1E71 PUSH2 0x2193 JUMP JUMPDEST JUMPDEST PUSH1 0x1 DUP6 AND ISZERO PUSH2 0x1E81 JUMPI DUP1 DUP3 MUL SWAP2 POP JUMPDEST DUP1 DUP2 MUL SWAP1 POP PUSH2 0x1E8F DUP6 PUSH2 0x2236 JUMP JUMPDEST SWAP5 POP PUSH2 0x1E56 JUMP JUMPDEST SWAP5 POP SWAP5 SWAP3 POP POP POP JUMP JUMPDEST PUSH1 0x0 PUSH2 0x1EAA DUP3 PUSH2 0x209D JUMP JUMPDEST SWAP2 POP PUSH2 0x1EB5 DUP4 PUSH2 0x209D JUMP JUMPDEST SWAP3 POP PUSH2 0x1EE2 PUSH32 0xFFFFFFFFFFFFFFFFFFFFFFFFFFFFFFFFFFFFFFFFFFFFFFFFFFFFFFFFFFFFFFFF DUP5 DUP5 PUSH2 0x1EEA JUMP JUMPDEST SWAP1 POP SWAP3 SWAP2 POP POP JUMP JUMPDEST PUSH1 0x0 DUP3 PUSH2 0x1EFA JUMPI PUSH1 0x1 SWAP1 POP PUSH2 0x1FB6 JUMP JUMPDEST DUP2 PUSH2 0x1F08 JUMPI PUSH1 0x0 SWAP1 POP PUSH2 0x1FB6 JUMP JUMPDEST DUP2 PUSH1 0x1 DUP2 EQ PUSH2 0x1F1E JUMPI PUSH1 0x2 DUP2 EQ PUSH2 0x1F28 JUMPI PUSH2 0x1F57 JUMP JUMPDEST PUSH1 0x1 SWAP2 POP POP PUSH2 0x1FB6 JUMP JUMPDEST PUSH1 0xFF DUP5 GT ISZERO PUSH2 0x1F3A JUMPI PUSH2 0x1F39 PUSH2 0x2193 JUMP JUMPDEST JUMPDEST DUP4 PUSH1 0x2 EXP SWAP2 POP DUP5 DUP3 GT ISZERO PUSH2 0x1F51 JUMPI PUSH2 0x1F50 PUSH2 0x2193 JUMP JUMPDEST JUMPDEST POP PUSH2 0x1FB6 JUMP JUMPDEST POP PUSH1 0x20 DUP4 LT PUSH2 0x133 DUP4 LT AND PUSH1 0x4E DUP5 LT PUSH1 0xB DUP5 LT AND OR ISZERO PUSH2 0x1F8C JUMPI DUP3 DUP3 EXP SWAP1 POP DUP4 DUP2 GT ISZERO PUSH2 0x1F87 JUMPI PUSH2 0x1F86 PUSH2 0x2193 JUMP JUMPDEST JUMPDEST PUSH2 0x1FB6 JUMP JUMPDEST PUSH2 0x1F99 DUP5 DUP5 DUP5 PUSH1 0x1 PUSH2 0x1E4C JUMP JUMPDEST SWAP3 POP SWAP1 POP DUP2 DUP5 DIV DUP2 GT ISZERO PUSH2 0x1FB0 JUMPI PUSH2 0x1FAF PUSH2 0x2193 JUMP JUMPDEST JUMPDEST DUP2 DUP2 MUL SWAP1 POP JUMPDEST SWAP4 SWAP3 POP POP POP JUMP JUMPDEST PUSH1 0x0 PUSH2 0x1FC8 DUP3 PUSH2 0x209D JUMP JUMPDEST SWAP2 POP PUSH2 0x1FD3 DUP4 PUSH2 0x209D JUMP JUMPDEST SWAP3 POP DUP2 PUSH32 0xFFFFFFFFFFFFFFFFFFFFFFFFFFFFFFFFFFFFFFFFFFFFFFFFFFFFFFFFFFFFFFFF DIV DUP4 GT DUP3 ISZERO ISZERO AND ISZERO PUSH2 0x200C JUMPI PUSH2 0x200B PUSH2 0x2193 JUMP JUMPDEST JUMPDEST DUP3 DUP3 MUL SWAP1 POP SWAP3 SWAP2 POP POP JUMP JUMPDEST PUSH1 0x0 PUSH2 0x2022 DUP3 PUSH2 0x209D JUMP JUMPDEST SWAP2 POP PUSH2 0x202D DUP4 PUSH2 0x209D JUMP JUMPDEST SWAP3 POP DUP3 DUP3 LT ISZERO PUSH2 0x2040 JUMPI PUSH2 0x203F PUSH2 0x2193 JUMP JUMPDEST JUMPDEST DUP3 DUP3 SUB SWAP1 POP SWAP3 SWAP2 POP POP JUMP JUMPDEST PUSH1 0x0 PUSH2 0x2056 DUP3 PUSH2 0x207D JUMP JUMPDEST SWAP1 POP SWAP2 SWAP1 POP JUMP JUMPDEST PUSH1 0x0 DUP2 ISZERO ISZERO SWAP1 POP SWAP2 SWAP1 POP JUMP JUMPDEST PUSH1 0x0 DUP2 SWAP1 POP SWAP2 SWAP1 POP JUMP JUMPDEST PUSH1 0x0 DUP2 SWAP1 POP SWAP2 SWAP1 POP JUMP JUMPDEST PUSH1 0x0 PUSH20 0xFFFFFFFFFFFFFFFFFFFFFFFFFFFFFFFFFFFFFFFF DUP3 AND SWAP1 POP SWAP2 SWAP1 POP JUMP JUMPDEST PUSH1 0x0 DUP2 SWAP1 POP SWAP2 SWAP1 POP JUMP JUMPDEST PUSH1 0x0 PUSH1 0xFF DUP3 AND SWAP1 POP SWAP2 SWAP1 POP JUMP JUMPDEST PUSH1 0x0 JUMPDEST DUP4 DUP2 LT ISZERO PUSH2 0x20D2 JUMPI DUP1 DUP3 ADD MLOAD DUP2 DUP5 ADD MSTORE PUSH1 0x20 DUP2 ADD SWAP1 POP PUSH2 0x20B7 JUMP JUMPDEST DUP4 DUP2 GT ISZERO PUSH2 0x20E1 JUMPI PUSH1 0x0 DUP5 DUP5 ADD MSTORE JUMPDEST POP POP POP POP JUMP JUMPDEST PUSH1 0x0 PUSH1 0x2 DUP3 DIV SWAP1 POP PUSH1 0x1 DUP3 AND DUP1 PUSH2 0x20FF JUMPI PUSH1 0x7F DUP3 AND SWAP2 POP JUMPDEST PUSH1 0x20 DUP3 LT DUP2 EQ ISZERO PUSH2 0x2113 JUMPI PUSH2 0x2112 PUSH2 0x21F1 JUMP JUMPDEST JUMPDEST POP SWAP2 SWAP1 POP JUMP JUMPDEST PUSH1 0x0 PUSH2 0x2124 DUP3 PUSH2 0x209D JUMP JUMPDEST SWAP2 POP PUSH2 0x212F DUP4 PUSH2 0x209D JUMP JUMPDEST SWAP3 POP DUP3 PUSH2 0x213F JUMPI PUSH2 0x213E PUSH2 0x21C2 JUMP JUMPDEST JUMPDEST DUP3 DUP3 MOD SWAP1 POP SWAP3 SWAP2 POP POP JUMP JUMPDEST PUSH1 0x0 PUSH2 0x2155 DUP3 PUSH2 0x2073 JUMP JUMPDEST SWAP2 POP PUSH32 0x8000000000000000000000000000000000000000000000000000000000000000 DUP3 EQ ISZERO PUSH2 0x2188 JUMPI PUSH2 0x2187 PUSH2 0x2193 JUMP JUMPDEST JUMPDEST DUP2 PUSH1 0x0 SUB SWAP1 POP SWAP2 SWAP1 POP JUMP JUMPDEST PUSH32 0x4E487B7100000000000000000000000000000000000000000000000000000000 PUSH1 0x0 MSTORE PUSH1 0x11 PUSH1 0x4 MSTORE PUSH1 0x24 PUSH1 0x0 REVERT JUMPDEST PUSH32 0x4E487B7100000000000000000000000000000000000000000000000000000000 PUSH1 0x0 MSTORE PUSH1 0x12 PUSH1 0x4 MSTORE PUSH1 0x24 PUSH1 0x0 REVERT JUMPDEST PUSH32 0x4E487B7100000000000000000000000000000000000000000000000000000000 PUSH1 0x0 MSTORE PUSH1 0x22 PUSH1 0x4 MSTORE PUSH1 0x24 PUSH1 0x0 REVERT JUMPDEST PUSH1 0x0 DUP1 REVERT JUMPDEST PUSH1 0x0 PUSH1 0x1F NOT PUSH1 0x1F DUP4 ADD AND SWAP1 POP SWAP2 SWAP1 POP JUMP JUMPDEST PUSH1 0x0 DUP2 PUSH1 0x1 SHR SWAP1 POP SWAP2 SWAP1 POP JUMP JUMPDEST PUSH2 0x224C DUP2 PUSH2 0x204B JUMP JUMPDEST DUP2 EQ PUSH2 0x2257 JUMPI PUSH1 0x0 DUP1 REVERT JUMPDEST POP JUMP JUMPDEST PUSH2 0x2263 DUP2 PUSH2 0x2073 JUMP JUMPDEST DUP2 EQ PUSH2 0x226E JUMPI PUSH1 0x0 DUP1 REVERT JUMPDEST POP JUMP JUMPDEST PUSH2 0x227A DUP2 PUSH2 0x209D JUMP JUMPDEST DUP2 EQ PUSH2 0x2285 JUMPI PUSH1 0x0 DUP1 REVERT JUMPDEST POP JUMP INVALID LOG2 PUSH5 0x6970667358 0x22 SLT KECCAK256 PUSH2 0x3821 0xE1 0x2C SWAP2 CODESIZE BLOCKHASH 0xD5 SWAP5 GASLIMIT 0xDA SHR MOD PUSH21 0x1BD8E614CE728FE9C757215822DA68929664736F6C PUSH4 0x43000807 STOP CALLER "
				},
				"gasEstimates": {
					"creation": {
						"codeDepositCost": "1778800",
						"executionCost": "infinite",
						"totalCost": "infinite"
					},
					"external": {
						"DOMAIN_SEPARATOR()": "infinite",
						"EIP712_DOMAIN()": "461",
						"EIP712_REVISION()": "infinite",
						"PERMIT_TYPEHASH()": "352",
						"allowance(address,address)": "infinite",
						"approve(address,uint256)": "infinite",
						"balanceOf(address)": "infinite",
						"decimals()": "388",
						"decreaseAllowance(address,uint256)": "infinite",
						"increaseAllowance(address,uint256)": "infinite",
						"monetaryPolicy()": "2603",
						"name()": "infinite",
						"nonces(address)": "2886",
						"rebase(uint256,int256)": "infinite",
						"requestTokens(address,uint256)": "infinite",
						"scaledBalanceOf(address)": "2931",
						"scaledTotalSupply()": "infinite",
						"symbol()": "infinite",
						"totalSupply()": "2505",
						"transfer(address,uint256)": "infinite",
						"transferAll(address)": "infinite",
						"transferAllFrom(address,address)": "infinite",
						"transferFrom(address,address,uint256)": "infinite"
					},
					"internal": {
						"abs(int256)": "194"
					}
				},
				"methodIdentifiers": {
					"DOMAIN_SEPARATOR()": "3644e515",
					"EIP712_DOMAIN()": "e1b11da4",
					"EIP712_REVISION()": "78160376",
					"PERMIT_TYPEHASH()": "30adf81f",
					"allowance(address,address)": "dd62ed3e",
					"approve(address,uint256)": "095ea7b3",
					"balanceOf(address)": "70a08231",
					"decimals()": "313ce567",
					"decreaseAllowance(address,uint256)": "a457c2d7",
					"increaseAllowance(address,uint256)": "39509351",
					"monetaryPolicy()": "8e27d7d7",
					"name()": "06fdde03",
					"nonces(address)": "7ecebe00",
					"rebase(uint256,int256)": "7a43e23f",
					"requestTokens(address,uint256)": "af421564",
					"scaledBalanceOf(address)": "1da24f3e",
					"scaledTotalSupply()": "b1bf962d",
					"symbol()": "95d89b41",
					"totalSupply()": "18160ddd",
					"transfer(address,uint256)": "a9059cbb",
					"transferAll(address)": "a3a7e7f3",
					"transferAllFrom(address,address)": "84d4b410",
					"transferFrom(address,address,uint256)": "23b872dd"
				}
			},
			"storageLayout": {
				"storage": [
					{
						"astId": 15,
						"contract": "contracts/CMMD.sol:CMMD",
						"label": "_balances",
						"offset": 0,
						"slot": "0",
						"type": "t_mapping(t_address,t_uint256)"
					},
					{
						"astId": 21,
						"contract": "contracts/CMMD.sol:CMMD",
						"label": "_allowances",
						"offset": 0,
						"slot": "1",
						"type": "t_mapping(t_address,t_mapping(t_address,t_uint256))"
					},
					{
						"astId": 23,
						"contract": "contracts/CMMD.sol:CMMD",
						"label": "_totalSupply",
						"offset": 0,
						"slot": "2",
						"type": "t_uint256"
					},
					{
						"astId": 25,
						"contract": "contracts/CMMD.sol:CMMD",
						"label": "_name",
						"offset": 0,
						"slot": "3",
						"type": "t_string_storage"
					},
					{
						"astId": 27,
						"contract": "contracts/CMMD.sol:CMMD",
						"label": "_symbol",
						"offset": 0,
						"slot": "4",
						"type": "t_string_storage"
					},
					{
						"astId": 728,
						"contract": "contracts/CMMD.sol:CMMD",
						"label": "monetaryPolicy",
						"offset": 0,
						"slot": "5",
						"type": "t_address"
					},
					{
						"astId": 730,
						"contract": "contracts/CMMD.sol:CMMD",
						"label": "rebasePausedDeprecated",
						"offset": 20,
						"slot": "5",
						"type": "t_bool"
					},
					{
						"astId": 732,
						"contract": "contracts/CMMD.sol:CMMD",
						"label": "tokenPausedDeprecated",
						"offset": 21,
						"slot": "5",
						"type": "t_bool"
					},
					{
						"astId": 770,
						"contract": "contracts/CMMD.sol:CMMD",
						"label": "_totalSupply",
						"offset": 0,
						"slot": "6",
						"type": "t_uint256"
					},
					{
						"astId": 772,
						"contract": "contracts/CMMD.sol:CMMD",
						"label": "_gonsPerFragment",
						"offset": 0,
						"slot": "7",
						"type": "t_uint256"
					},
					{
						"astId": 776,
						"contract": "contracts/CMMD.sol:CMMD",
						"label": "_gonBalances",
						"offset": 0,
						"slot": "8",
						"type": "t_mapping(t_address,t_uint256)"
					},
					{
						"astId": 782,
						"contract": "contracts/CMMD.sol:CMMD",
						"label": "_allowedFragments",
						"offset": 0,
						"slot": "9",
						"type": "t_mapping(t_address,t_mapping(t_address,t_uint256))"
					},
					{
						"astId": 799,
						"contract": "contracts/CMMD.sol:CMMD",
						"label": "_nonces",
						"offset": 0,
						"slot": "10",
						"type": "t_mapping(t_address,t_uint256)"
					}
				],
				"types": {
					"t_address": {
						"encoding": "inplace",
						"label": "address",
						"numberOfBytes": "20"
					},
					"t_bool": {
						"encoding": "inplace",
						"label": "bool",
						"numberOfBytes": "1"
					},
					"t_mapping(t_address,t_mapping(t_address,t_uint256))": {
						"encoding": "mapping",
						"key": "t_address",
						"label": "mapping(address => mapping(address => uint256))",
						"numberOfBytes": "32",
						"value": "t_mapping(t_address,t_uint256)"
					},
					"t_mapping(t_address,t_uint256)": {
						"encoding": "mapping",
						"key": "t_address",
						"label": "mapping(address => uint256)",
						"numberOfBytes": "32",
						"value": "t_uint256"
					},
					"t_string_storage": {
						"encoding": "bytes",
						"label": "string",
						"numberOfBytes": "32"
					},
					"t_uint256": {
						"encoding": "inplace",
						"label": "uint256",
						"numberOfBytes": "32"
					}
				}
			},
			"userdoc": {
				"kind": "user",
				"methods": {},
				"version": 1
			}
		}
	}
}