{
	"data": {
		"bytecode": {
			"linkReferences": {},
			"object": "608060405234801561001057600080fd5b50611f6b806100206000396000f3fe608060405234801561001057600080fd5b506004361061012c5760003560e01c8063900cf0cf116100ad578063af14052c11610071578063af14052c146102f9578063cd6dc68714610303578063d94ad8371461031f578063e9fa88a41461033d578063f4fefa49146103595761012c565b8063900cf0cf146102655780639db59b2f146102835780639e30bac5146102a1578063a37069ee146102bd578063ab33c5ca146102db5761012c565b806360961528116100f457806360961528146101d55780636de729db146101f35780637486cdea1461020f5780637b56c2b21461022d5780638001066d146102495761012c565b80633a785af1146101315780633d6a46e5146101615780634dafa35e1461017d57806353a15edc1461019b5780635ee01540146101b7575b600080fd5b61014b600480360381019061014691906114c0565b610375565b6040516101589190611696565b60405180910390f35b61017b60048036038101906101769190611466565b610547565b005b61018561058b565b6040516101929190611660565b60405180910390f35b6101b560048036038101906101b09190611527565b6105b1565b005b6101bf6105bb565b6040516101cc9190611696565b60405180910390f35b6101dd6105c1565b6040516101ea919061167b565b60405180910390f35b61020d60048036038101906102089190611527565b6105e7565b005b6102176105f1565b6040516102249190611696565b60405180910390f35b610247600480360381019061024291906113e6565b6105f7565b005b610263600480360381019061025e9190611493565b61076d565b005b61026d610785565b60405161027a91906116b1565b60405180910390f35b61028b61078b565b6040516102989190611696565b60405180910390f35b6102bb60048036038101906102b69190611466565b610791565b005b6102c56107d5565b6040516102d291906116b1565b60405180910390f35b6102e36107db565b6040516102f0919061167b565b60405180910390f35b610301610801565b005b61031d60048036038101906103189190611426565b610d45565b005b610327610e5c565b60405161033491906116b1565b60405180910390f35b61035760048036038101906103529190611493565b610e62565b005b610373600480360381019061036e9190611493565b610e7a565b005b60008061038f866012600a61038a9190611912565b610e92565b905060006103b36103a08584610edd565b6012600a6103ae9190611912565b610f45565b90506103cd6012600a6103c69190611912565b6064610edd565b8113156103ef576103ec6012600a6103e59190611912565b6064610edd565b90505b6104266012600a6104009190611912565b7fffffffffffffffffffffffffffffffffffffffffffffffffffffffffffffff9c610edd565b811215610467576104646012600a61043e9190611912565b7fffffffffffffffffffffffffffffffffffffffffffffffffffffffffffffff9c610edd565b90505b6000610480826012600a61047b9190611912565b610f98565b905060008114156104965786935050505061053f565b60006104a28789610e92565b905060006104c66104c0896012600a6104bb9190611912565b610edd565b8a610f45565b90506104e86104e2826012600a6104dd9190611912565b610edd565b84610f45565b905060006105036012600a6104fd9190611912565b83610e92565b905060008a610528610522866012600a61051d9190611912565b610edd565b84610f45565b610532919061173a565b9050809750505050505050505b949350505050565b80600360006101000a81548173ffffffffffffffffffffffffffffffffffffffff021916908373ffffffffffffffffffffffffffffffffffffffff16021790555050565b600260009054906101000a900473ffffffffffffffffffffffffffffffffffffffff1681565b8060068190555050565b60085481565b600460009054906101000a900473ffffffffffffffffffffffffffffffffffffffff1681565b8060058190555050565b600a5481565b600160008082825461060991906117ce565b92505081905550600160405180608001604052803373ffffffffffffffffffffffffffffffffffffffff1681526020018473ffffffffffffffffffffffffffffffffffffffff16815260200183815260200142815250908060018154018082558091505060019003906000526020600020906004020160009091909190915060008201518160000160006101000a81548173ffffffffffffffffffffffffffffffffffffffff021916908373ffffffffffffffffffffffffffffffffffffffff16021790555060208201518160010160006101000a81548173ffffffffffffffffffffffffffffffffffffffff021916908373ffffffffffffffffffffffffffffffffffffffff160217905550604082015181600201556060820151816003015550507f9ed053bb818ff08b8353cd46f78db1f0799f31c9e4458fdb425c10eccd2efc4433838342604051610761949392919061161b565b60405180910390a15050565b600081121561077b57600080fd5b80600a8190555050565b60075481565b60095481565b80600460006101000a81548173ffffffffffffffffffffffffffffffffffffffff021916908373ffffffffffffffffffffffffffffffffffffffff16021790555050565b60055481565b600360009054906101000a900473ffffffffffffffffffffffffffffffffffffffff1681565b600160075461081091906117ce565b600781905550600080600360009054906101000a900473ffffffffffffffffffffffffffffffffffffffff1673ffffffffffffffffffffffffffffffffffffffff16633bc5de306040518163ffffffff1660e01b81526004016040805180830381600087803b15801561088257600080fd5b505af1158015610896573d6000803e3d6000fd5b505050506040513d601f19601f820116820180604052508101906108ba9190611581565b8092508193505050806108cc57600080fd5b60006108f06108e8846012600a6108e39190611912565b6110ff565b600554611144565b9050600080600460009054906101000a900473ffffffffffffffffffffffffffffffffffffffff1673ffffffffffffffffffffffffffffffffffffffff16633bc5de306040518163ffffffff1660e01b81526004016040805180830381600087803b15801561095e57600080fd5b505af1158015610972573d6000803e3d6000fd5b505050506040513d601f19601f820116820180604052508101906109969190611581565b8092508193505050806109a857600080fd5b6012600a6109b69190611912565b620f42406109c49190611b47565b8211156109ea576012600a6109d99190611912565b620f42406109e79190611b47565b91505b60006109f6838561116c565b9050600081138015610af757506012600a610a119190611912565b620f4240610a1f9190611b47565b7f7fffffffffffffffffffffffffffffffffffffffffffffffffffffffffffffff610a4a919061188e565b81600260009054906101000a900473ffffffffffffffffffffffffffffffffffffffff1673ffffffffffffffffffffffffffffffffffffffff166318160ddd6040518163ffffffff1660e01b815260040160206040518083038186803b158015610ab357600080fd5b505afa158015610ac7573d6000803e3d6000fd5b505050506040513d601f19601f82011682018060405250810190610aeb9190611554565b610af591906117ce565b115b15610bf057600260009054906101000a900473ffffffffffffffffffffffffffffffffffffffff1673ffffffffffffffffffffffffffffffffffffffff166318160ddd6040518163ffffffff1660e01b815260040160206040518083038186803b158015610b6457600080fd5b505afa158015610b78573d6000803e3d6000fd5b505050506040513d601f19601f82011682018060405250810190610b9c9190611554565b6012600a610baa9190611912565b620f4240610bb89190611b47565b7f7fffffffffffffffffffffffffffffffffffffffffffffffffffffffffffffff610be3919061188e565b610bed9190611c35565b90505b6000600260009054906101000a900473ffffffffffffffffffffffffffffffffffffffff1673ffffffffffffffffffffffffffffffffffffffff16637a43e23f600754846040518363ffffffff1660e01b8152600401610c519291906116cc565b602060405180830381600087803b158015610c6b57600080fd5b505af1158015610c7f573d6000803e3d6000fd5b505050506040513d601f19601f82011682018060405250810190610ca39190611554565b90506012600a610cb39190611912565b620f4240610cc19190611b47565b7f7fffffffffffffffffffffffffffffffffffffffffffffffffffffffffffffff610cec919061188e565b811115610cfc57610cfb611ddd565b5b6007547f41d948a7f29cc695f5d4b3ec147f766bffa165ddd317470fbe05c86d0a9c3e0485898542604051610d3494939291906116f5565b60405180910390a250505050505050565b60026012610d539190611c35565b600a610d5f9190611912565b6005610d6b9190611b47565b6006819055506012600a610d7f9190611912565b6003610d8b9190611b47565b600a8190555060026012610d9f9190611c35565b600a610dab9190611912565b600a610db79190611b47565b60098190555060026012610dcb9190611c35565b600a610dd79190611912565b7ffffffffffffffffffffffffffffffffffffffffffffffffffffffffffffffff6610e029190611a30565b600881905550600060078190555081600260006101000a81548173ffffffffffffffffffffffffffffffffffffffff021916908373ffffffffffffffffffffffffffffffffffffffff160217905550806005819055505050565b60065481565b6000811315610e7057600080fd5b8060088190555050565b6000811215610e8857600080fd5b8060098190555050565b6000808284610ea19190611ba1565b905060008312158015610eb45750838113155b80610eca5750600083128015610ec957508381135b5b610ed357600080fd5b8091505092915050565b6000808284610eec9190611a30565b905060ff6001901b81141580610f10575060ff6001901b831660ff6001901b851614155b610f1957600080fd5b6000831480610f325750838382610f309190611824565b145b610f3b57600080fd5b8091505092915050565b60007fffffffffffffffffffffffffffffffffffffffffffffffffffffffffffffffff82141580610f7b575060ff6001901b8314155b610f8457600080fd5b8183610f909190611824565b905092915050565b600080600090506000841215610fb85760019050610fb584611290565b93505b60006040518060a001604052806713a04bbdfdc9be898152602001671080e992061ab32b8152602001670f2243014e544ebb8152602001670e7e0178e9d6ed508152602001670e2e820ade835f46815250905060006110178686610f45565b9050606481131561102757600080fd5b6000611037826001901b87610edd565b9050600061104e88611049858a610edd565b610e92565b9050600061105d886002610f45565b905060005b60058110156110d3578183126110b35761107c8383610e92565b92506110b06110a28588846005811061109857611097611e6a565b5b6020020151610edd565b670de0b6b3a7640000610f45565b93505b6110be826002610f45565b915080806110cb90611d4b565b915050611062565b5085156110f0576110ed6110e7898a610edd565b84610f45565b92505b82965050505050505092915050565b600080831415611112576000905061113e565b600082846111209190611b47565b905082848261112f919061188e565b1461113957600080fd5b809150505b92915050565b600080821161115257600080fd5b60008284611160919061188e565b90508091505092915050565b600061117883836112c4565b15611186576000905061128a565b600082905060006111ad6111a7866012600a6111a29190611912565b610edd565b83610f45565b905060006111c382600854600954600a54610375565b9050611284611271600260009054906101000a900473ffffffffffffffffffffffffffffffffffffffff1673ffffffffffffffffffffffffffffffffffffffff166318160ddd6040518163ffffffff1660e01b815260040160206040518083038186803b15801561123357600080fd5b505afa158015611247573d6000803e3d6000fd5b505050506040513d601f19601f8201168201806040525081019061126b9190611554565b83610edd565b6012600a61127f9190611912565b610f45565b93505050505b92915050565b600060ff6001901b8214156112a457600080fd5b600082126112b257816112bd565b816112bc90611d94565b5b9050919050565b6000806112e96112d6846006546110ff565b6012600a6112e49190611912565b611144565b9050828410158015611303575080611301858561132a565b105b806113215750828410801561132057508061131e848661132a565b105b5b91505092915050565b60008282111561133957600080fd5b600082846113479190611c35565b90508091505092915050565b60008135905061136281611eab565b92915050565b60008151905061137781611ec2565b92915050565b60008135905061138c81611ed9565b92915050565b6000813590506113a181611ef0565b92915050565b6000813590506113b681611f07565b92915050565b6000813590506113cb81611f1e565b92915050565b6000815190506113e081611f1e565b92915050565b600080604083850312156113fd576113fc611e99565b5b600061140b85828601611353565b925050602061141c858286016113bc565b9150509250929050565b6000806040838503121561143d5761143c611e99565b5b600061144b8582860161137d565b925050602061145c858286016113bc565b9150509250929050565b60006020828403121561147c5761147b611e99565b5b600061148a84828501611392565b91505092915050565b6000602082840312156114a9576114a8611e99565b5b60006114b7848285016113a7565b91505092915050565b600080600080608085870312156114da576114d9611e99565b5b60006114e8878288016113a7565b94505060206114f9878288016113a7565b935050604061150a878288016113a7565b925050606061151b878288016113a7565b91505092959194509250565b60006020828403121561153d5761153c611e99565b5b600061154b848285016113bc565b91505092915050565b60006020828403121561156a57611569611e99565b5b6000611578848285016113d1565b91505092915050565b6000806040838503121561159857611597611e99565b5b60006115a6858286016113d1565b92505060206115b785828601611368565b9150509250929050565b6115ca81611cf1565b82525050565b6115d981611c69565b82525050565b6115e881611d03565b82525050565b6115f781611d15565b82525050565b61160681611cbd565b82525050565b61161581611ce7565b82525050565b600060808201905061163060008301876115d0565b61163d60208301866115c1565b61164a604083018561160c565b611657606083018461160c565b95945050505050565b600060208201905061167560008301846115df565b92915050565b600060208201905061169060008301846115ee565b92915050565b60006020820190506116ab60008301846115fd565b92915050565b60006020820190506116c6600083018461160c565b92915050565b60006040820190506116e1600083018561160c565b6116ee60208301846115fd565b9392505050565b600060808201905061170a600083018761160c565b611717602083018661160c565b61172460408301856115fd565b611731606083018461160c565b95945050505050565b600061174582611cbd565b915061175083611cbd565b9250817f7fffffffffffffffffffffffffffffffffffffffffffffffffffffffffffffff0383136000831215161561178b5761178a611e0c565b5b817f80000000000000000000000000000000000000000000000000000000000000000383126000831216156117c3576117c2611e0c565b5b828201905092915050565b60006117d982611ce7565b91506117e483611ce7565b9250827fffffffffffffffffffffffffffffffffffffffffffffffffffffffffffffffff0382111561181957611818611e0c565b5b828201905092915050565b600061182f82611cbd565b915061183a83611cbd565b92508261184a57611849611e3b565b5b600160000383147f80000000000000000000000000000000000000000000000000000000000000008314161561188357611882611e0c565b5b828205905092915050565b600061189982611ce7565b91506118a483611ce7565b9250826118b4576118b3611e3b565b5b828204905092915050565b6000808291508390505b6001851115611909578086048111156118e5576118e4611e0c565b5b60018516156118f45780820291505b808102905061190285611e9e565b94506118c9565b94509492505050565b600061191d82611ce7565b915061192883611ce7565b92506119557fffffffffffffffffffffffffffffffffffffffffffffffffffffffffffffffff848461195d565b905092915050565b60008261196d5760019050611a29565b8161197b5760009050611a29565b8160018114611991576002811461199b576119ca565b6001915050611a29565b60ff8411156119ad576119ac611e0c565b5b8360020a9150848211156119c4576119c3611e0c565b5b50611a29565b5060208310610133831016604e8410600b84101617156119ff5782820a9050838111156119fa576119f9611e0c565b5b611a29565b611a0c84848460016118bf565b92509050818404811115611a2357611a22611e0c565b5b81810290505b9392505050565b6000611a3b82611cbd565b9150611a4683611cbd565b9250827f7fffffffffffffffffffffffffffffffffffffffffffffffffffffffffffffff0482116000841360008413161615611a8557611a84611e0c565b5b817f80000000000000000000000000000000000000000000000000000000000000000583126000841260008413161615611ac257611ac1611e0c565b5b827f80000000000000000000000000000000000000000000000000000000000000000582126000841360008412161615611aff57611afe611e0c565b5b827f7fffffffffffffffffffffffffffffffffffffffffffffffffffffffffffffff0582126000841260008412161615611b3c57611b3b611e0c565b5b828202905092915050565b6000611b5282611ce7565b9150611b5d83611ce7565b9250817fffffffffffffffffffffffffffffffffffffffffffffffffffffffffffffffff0483118215151615611b9657611b95611e0c565b5b828202905092915050565b6000611bac82611cbd565b9150611bb783611cbd565b9250827f800000000000000000000000000000000000000000000000000000000000000001821260008412151615611bf257611bf1611e0c565b5b827f7fffffffffffffffffffffffffffffffffffffffffffffffffffffffffffffff018213600084121615611c2a57611c29611e0c565b5b828203905092915050565b6000611c4082611ce7565b9150611c4b83611ce7565b925082821015611c5e57611c5d611e0c565b5b828203905092915050565b6000611c7482611cc7565b9050919050565b6000611c8682611cc7565b9050919050565b60008115159050919050565b6000611ca482611c69565b9050919050565b6000611cb682611c69565b9050919050565b6000819050919050565b600073ffffffffffffffffffffffffffffffffffffffff82169050919050565b6000819050919050565b6000611cfc82611d27565b9050919050565b6000611d0e82611d27565b9050919050565b6000611d2082611d27565b9050919050565b6000611d3282611d39565b9050919050565b6000611d4482611cc7565b9050919050565b6000611d5682611ce7565b91507fffffffffffffffffffffffffffffffffffffffffffffffffffffffffffffffff821415611d8957611d88611e0c565b5b600182019050919050565b6000611d9f82611cbd565b91507f8000000000000000000000000000000000000000000000000000000000000000821415611dd257611dd1611e0c565b5b816000039050919050565b7f4e487b7100000000000000000000000000000000000000000000000000000000600052600160045260246000fd5b7f4e487b7100000000000000000000000000000000000000000000000000000000600052601160045260246000fd5b7f4e487b7100000000000000000000000000000000000000000000000000000000600052601260045260246000fd5b7f4e487b7100000000000000000000000000000000000000000000000000000000600052603260045260246000fd5b600080fd5b60008160011c9050919050565b611eb481611c7b565b8114611ebf57600080fd5b50565b611ecb81611c8d565b8114611ed657600080fd5b50565b611ee281611c99565b8114611eed57600080fd5b50565b611ef981611cab565b8114611f0457600080fd5b50565b611f1081611cbd565b8114611f1b57600080fd5b50565b611f2781611ce7565b8114611f3257600080fd5b5056fea2646970667358221220725d1362d699ad28253183ba856b1873e2651471173857098e3cacad05bd377c64736f6c63430008070033",
			"opcodes": "PUSH1 0x80 PUSH1 0x40 MSTORE CALLVALUE DUP1 ISZERO PUSH2 0x10 JUMPI PUSH1 0x0 DUP1 REVERT JUMPDEST POP PUSH2 0x1F6B DUP1 PUSH2 0x20 PUSH1 0x0 CODECOPY PUSH1 0x0 RETURN INVALID PUSH1 0x80 PUSH1 0x40 MSTORE CALLVALUE DUP1 ISZERO PUSH2 0x10 JUMPI PUSH1 0x0 DUP1 REVERT JUMPDEST POP PUSH1 0x4 CALLDATASIZE LT PUSH2 0x12C JUMPI PUSH1 0x0 CALLDATALOAD PUSH1 0xE0 SHR DUP1 PUSH4 0x900CF0CF GT PUSH2 0xAD JUMPI DUP1 PUSH4 0xAF14052C GT PUSH2 0x71 JUMPI DUP1 PUSH4 0xAF14052C EQ PUSH2 0x2F9 JUMPI DUP1 PUSH4 0xCD6DC687 EQ PUSH2 0x303 JUMPI DUP1 PUSH4 0xD94AD837 EQ PUSH2 0x31F JUMPI DUP1 PUSH4 0xE9FA88A4 EQ PUSH2 0x33D JUMPI DUP1 PUSH4 0xF4FEFA49 EQ PUSH2 0x359 JUMPI PUSH2 0x12C JUMP JUMPDEST DUP1 PUSH4 0x900CF0CF EQ PUSH2 0x265 JUMPI DUP1 PUSH4 0x9DB59B2F EQ PUSH2 0x283 JUMPI DUP1 PUSH4 0x9E30BAC5 EQ PUSH2 0x2A1 JUMPI DUP1 PUSH4 0xA37069EE EQ PUSH2 0x2BD JUMPI DUP1 PUSH4 0xAB33C5CA EQ PUSH2 0x2DB JUMPI PUSH2 0x12C JUMP JUMPDEST DUP1 PUSH4 0x60961528 GT PUSH2 0xF4 JUMPI DUP1 PUSH4 0x60961528 EQ PUSH2 0x1D5 JUMPI DUP1 PUSH4 0x6DE729DB EQ PUSH2 0x1F3 JUMPI DUP1 PUSH4 0x7486CDEA EQ PUSH2 0x20F JUMPI DUP1 PUSH4 0x7B56C2B2 EQ PUSH2 0x22D JUMPI DUP1 PUSH4 0x8001066D EQ PUSH2 0x249 JUMPI PUSH2 0x12C JUMP JUMPDEST DUP1 PUSH4 0x3A785AF1 EQ PUSH2 0x131 JUMPI DUP1 PUSH4 0x3D6A46E5 EQ PUSH2 0x161 JUMPI DUP1 PUSH4 0x4DAFA35E EQ PUSH2 0x17D JUMPI DUP1 PUSH4 0x53A15EDC EQ PUSH2 0x19B JUMPI DUP1 PUSH4 0x5EE01540 EQ PUSH2 0x1B7 JUMPI JUMPDEST PUSH1 0x0 DUP1 REVERT JUMPDEST PUSH2 0x14B PUSH1 0x4 DUP1 CALLDATASIZE SUB DUP2 ADD SWAP1 PUSH2 0x146 SWAP2 SWAP1 PUSH2 0x14C0 JUMP JUMPDEST PUSH2 0x375 JUMP JUMPDEST PUSH1 0x40 MLOAD PUSH2 0x158 SWAP2 SWAP1 PUSH2 0x1696 JUMP JUMPDEST PUSH1 0x40 MLOAD DUP1 SWAP2 SUB SWAP1 RETURN JUMPDEST PUSH2 0x17B PUSH1 0x4 DUP1 CALLDATASIZE SUB DUP2 ADD SWAP1 PUSH2 0x176 SWAP2 SWAP1 PUSH2 0x1466 JUMP JUMPDEST PUSH2 0x547 JUMP JUMPDEST STOP JUMPDEST PUSH2 0x185 PUSH2 0x58B JUMP JUMPDEST PUSH1 0x40 MLOAD PUSH2 0x192 SWAP2 SWAP1 PUSH2 0x1660 JUMP JUMPDEST PUSH1 0x40 MLOAD DUP1 SWAP2 SUB SWAP1 RETURN JUMPDEST PUSH2 0x1B5 PUSH1 0x4 DUP1 CALLDATASIZE SUB DUP2 ADD SWAP1 PUSH2 0x1B0 SWAP2 SWAP1 PUSH2 0x1527 JUMP JUMPDEST PUSH2 0x5B1 JUMP JUMPDEST STOP JUMPDEST PUSH2 0x1BF PUSH2 0x5BB JUMP JUMPDEST PUSH1 0x40 MLOAD PUSH2 0x1CC SWAP2 SWAP1 PUSH2 0x1696 JUMP JUMPDEST PUSH1 0x40 MLOAD DUP1 SWAP2 SUB SWAP1 RETURN JUMPDEST PUSH2 0x1DD PUSH2 0x5C1 JUMP JUMPDEST PUSH1 0x40 MLOAD PUSH2 0x1EA SWAP2 SWAP1 PUSH2 0x167B JUMP JUMPDEST PUSH1 0x40 MLOAD DUP1 SWAP2 SUB SWAP1 RETURN JUMPDEST PUSH2 0x20D PUSH1 0x4 DUP1 CALLDATASIZE SUB DUP2 ADD SWAP1 PUSH2 0x208 SWAP2 SWAP1 PUSH2 0x1527 JUMP JUMPDEST PUSH2 0x5E7 JUMP JUMPDEST STOP JUMPDEST PUSH2 0x217 PUSH2 0x5F1 JUMP JUMPDEST PUSH1 0x40 MLOAD PUSH2 0x224 SWAP2 SWAP1 PUSH2 0x1696 JUMP JUMPDEST PUSH1 0x40 MLOAD DUP1 SWAP2 SUB SWAP1 RETURN JUMPDEST PUSH2 0x247 PUSH1 0x4 DUP1 CALLDATASIZE SUB DUP2 ADD SWAP1 PUSH2 0x242 SWAP2 SWAP1 PUSH2 0x13E6 JUMP JUMPDEST PUSH2 0x5F7 JUMP JUMPDEST STOP JUMPDEST PUSH2 0x263 PUSH1 0x4 DUP1 CALLDATASIZE SUB DUP2 ADD SWAP1 PUSH2 0x25E SWAP2 SWAP1 PUSH2 0x1493 JUMP JUMPDEST PUSH2 0x76D JUMP JUMPDEST STOP JUMPDEST PUSH2 0x26D PUSH2 0x785 JUMP JUMPDEST PUSH1 0x40 MLOAD PUSH2 0x27A SWAP2 SWAP1 PUSH2 0x16B1 JUMP JUMPDEST PUSH1 0x40 MLOAD DUP1 SWAP2 SUB SWAP1 RETURN JUMPDEST PUSH2 0x28B PUSH2 0x78B JUMP JUMPDEST PUSH1 0x40 MLOAD PUSH2 0x298 SWAP2 SWAP1 PUSH2 0x1696 JUMP JUMPDEST PUSH1 0x40 MLOAD DUP1 SWAP2 SUB SWAP1 RETURN JUMPDEST PUSH2 0x2BB PUSH1 0x4 DUP1 CALLDATASIZE SUB DUP2 ADD SWAP1 PUSH2 0x2B6 SWAP2 SWAP1 PUSH2 0x1466 JUMP JUMPDEST PUSH2 0x791 JUMP JUMPDEST STOP JUMPDEST PUSH2 0x2C5 PUSH2 0x7D5 JUMP JUMPDEST PUSH1 0x40 MLOAD PUSH2 0x2D2 SWAP2 SWAP1 PUSH2 0x16B1 JUMP JUMPDEST PUSH1 0x40 MLOAD DUP1 SWAP2 SUB SWAP1 RETURN JUMPDEST PUSH2 0x2E3 PUSH2 0x7DB JUMP JUMPDEST PUSH1 0x40 MLOAD PUSH2 0x2F0 SWAP2 SWAP1 PUSH2 0x167B JUMP JUMPDEST PUSH1 0x40 MLOAD DUP1 SWAP2 SUB SWAP1 RETURN JUMPDEST PUSH2 0x301 PUSH2 0x801 JUMP JUMPDEST STOP JUMPDEST PUSH2 0x31D PUSH1 0x4 DUP1 CALLDATASIZE SUB DUP2 ADD SWAP1 PUSH2 0x318 SWAP2 SWAP1 PUSH2 0x1426 JUMP JUMPDEST PUSH2 0xD45 JUMP JUMPDEST STOP JUMPDEST PUSH2 0x327 PUSH2 0xE5C JUMP JUMPDEST PUSH1 0x40 MLOAD PUSH2 0x334 SWAP2 SWAP1 PUSH2 0x16B1 JUMP JUMPDEST PUSH1 0x40 MLOAD DUP1 SWAP2 SUB SWAP1 RETURN JUMPDEST PUSH2 0x357 PUSH1 0x4 DUP1 CALLDATASIZE SUB DUP2 ADD SWAP1 PUSH2 0x352 SWAP2 SWAP1 PUSH2 0x1493 JUMP JUMPDEST PUSH2 0xE62 JUMP JUMPDEST STOP JUMPDEST PUSH2 0x373 PUSH1 0x4 DUP1 CALLDATASIZE SUB DUP2 ADD SWAP1 PUSH2 0x36E SWAP2 SWAP1 PUSH2 0x1493 JUMP JUMPDEST PUSH2 0xE7A JUMP JUMPDEST STOP JUMPDEST PUSH1 0x0 DUP1 PUSH2 0x38F DUP7 PUSH1 0x12 PUSH1 0xA PUSH2 0x38A SWAP2 SWAP1 PUSH2 0x1912 JUMP JUMPDEST PUSH2 0xE92 JUMP JUMPDEST SWAP1 POP PUSH1 0x0 PUSH2 0x3B3 PUSH2 0x3A0 DUP6 DUP5 PUSH2 0xEDD JUMP JUMPDEST PUSH1 0x12 PUSH1 0xA PUSH2 0x3AE SWAP2 SWAP1 PUSH2 0x1912 JUMP JUMPDEST PUSH2 0xF45 JUMP JUMPDEST SWAP1 POP PUSH2 0x3CD PUSH1 0x12 PUSH1 0xA PUSH2 0x3C6 SWAP2 SWAP1 PUSH2 0x1912 JUMP JUMPDEST PUSH1 0x64 PUSH2 0xEDD JUMP JUMPDEST DUP2 SGT ISZERO PUSH2 0x3EF JUMPI PUSH2 0x3EC PUSH1 0x12 PUSH1 0xA PUSH2 0x3E5 SWAP2 SWAP1 PUSH2 0x1912 JUMP JUMPDEST PUSH1 0x64 PUSH2 0xEDD JUMP JUMPDEST SWAP1 POP JUMPDEST PUSH2 0x426 PUSH1 0x12 PUSH1 0xA PUSH2 0x400 SWAP2 SWAP1 PUSH2 0x1912 JUMP JUMPDEST PUSH32 0xFFFFFFFFFFFFFFFFFFFFFFFFFFFFFFFFFFFFFFFFFFFFFFFFFFFFFFFFFFFFFF9C PUSH2 0xEDD JUMP JUMPDEST DUP2 SLT ISZERO PUSH2 0x467 JUMPI PUSH2 0x464 PUSH1 0x12 PUSH1 0xA PUSH2 0x43E SWAP2 SWAP1 PUSH2 0x1912 JUMP JUMPDEST PUSH32 0xFFFFFFFFFFFFFFFFFFFFFFFFFFFFFFFFFFFFFFFFFFFFFFFFFFFFFFFFFFFFFF9C PUSH2 0xEDD JUMP JUMPDEST SWAP1 POP JUMPDEST PUSH1 0x0 PUSH2 0x480 DUP3 PUSH1 0x12 PUSH1 0xA PUSH2 0x47B SWAP2 SWAP1 PUSH2 0x1912 JUMP JUMPDEST PUSH2 0xF98 JUMP JUMPDEST SWAP1 POP PUSH1 0x0 DUP2 EQ ISZERO PUSH2 0x496 JUMPI DUP7 SWAP4 POP POP POP POP PUSH2 0x53F JUMP JUMPDEST PUSH1 0x0 PUSH2 0x4A2 DUP8 DUP10 PUSH2 0xE92 JUMP JUMPDEST SWAP1 POP PUSH1 0x0 PUSH2 0x4C6 PUSH2 0x4C0 DUP10 PUSH1 0x12 PUSH1 0xA PUSH2 0x4BB SWAP2 SWAP1 PUSH2 0x1912 JUMP JUMPDEST PUSH2 0xEDD JUMP JUMPDEST DUP11 PUSH2 0xF45 JUMP JUMPDEST SWAP1 POP PUSH2 0x4E8 PUSH2 0x4E2 DUP3 PUSH1 0x12 PUSH1 0xA PUSH2 0x4DD SWAP2 SWAP1 PUSH2 0x1912 JUMP JUMPDEST PUSH2 0xEDD JUMP JUMPDEST DUP5 PUSH2 0xF45 JUMP JUMPDEST SWAP1 POP PUSH1 0x0 PUSH2 0x503 PUSH1 0x12 PUSH1 0xA PUSH2 0x4FD SWAP2 SWAP1 PUSH2 0x1912 JUMP JUMPDEST DUP4 PUSH2 0xE92 JUMP JUMPDEST SWAP1 POP PUSH1 0x0 DUP11 PUSH2 0x528 PUSH2 0x522 DUP7 PUSH1 0x12 PUSH1 0xA PUSH2 0x51D SWAP2 SWAP1 PUSH2 0x1912 JUMP JUMPDEST PUSH2 0xEDD JUMP JUMPDEST DUP5 PUSH2 0xF45 JUMP JUMPDEST PUSH2 0x532 SWAP2 SWAP1 PUSH2 0x173A JUMP JUMPDEST SWAP1 POP DUP1 SWAP8 POP POP POP POP POP POP POP POP JUMPDEST SWAP5 SWAP4 POP POP POP POP JUMP JUMPDEST DUP1 PUSH1 0x3 PUSH1 0x0 PUSH2 0x100 EXP DUP2 SLOAD DUP2 PUSH20 0xFFFFFFFFFFFFFFFFFFFFFFFFFFFFFFFFFFFFFFFF MUL NOT AND SWAP1 DUP4 PUSH20 0xFFFFFFFFFFFFFFFFFFFFFFFFFFFFFFFFFFFFFFFF AND MUL OR SWAP1 SSTORE POP POP JUMP JUMPDEST PUSH1 0x2 PUSH1 0x0 SWAP1 SLOAD SWAP1 PUSH2 0x100 EXP SWAP1 DIV PUSH20 0xFFFFFFFFFFFFFFFFFFFFFFFFFFFFFFFFFFFFFFFF AND DUP2 JUMP JUMPDEST DUP1 PUSH1 0x6 DUP2 SWAP1 SSTORE POP POP JUMP JUMPDEST PUSH1 0x8 SLOAD DUP2 JUMP JUMPDEST PUSH1 0x4 PUSH1 0x0 SWAP1 SLOAD SWAP1 PUSH2 0x100 EXP SWAP1 DIV PUSH20 0xFFFFFFFFFFFFFFFFFFFFFFFFFFFFFFFFFFFFFFFF AND DUP2 JUMP JUMPDEST DUP1 PUSH1 0x5 DUP2 SWAP1 SSTORE POP POP JUMP JUMPDEST PUSH1 0xA SLOAD DUP2 JUMP JUMPDEST PUSH1 0x1 PUSH1 0x0 DUP1 DUP3 DUP3 SLOAD PUSH2 0x609 SWAP2 SWAP1 PUSH2 0x17CE JUMP JUMPDEST SWAP3 POP POP DUP2 SWAP1 SSTORE POP PUSH1 0x1 PUSH1 0x40 MLOAD DUP1 PUSH1 0x80 ADD PUSH1 0x40 MSTORE DUP1 CALLER PUSH20 0xFFFFFFFFFFFFFFFFFFFFFFFFFFFFFFFFFFFFFFFF AND DUP2 MSTORE PUSH1 0x20 ADD DUP5 PUSH20 0xFFFFFFFFFFFFFFFFFFFFFFFFFFFFFFFFFFFFFFFF AND DUP2 MSTORE PUSH1 0x20 ADD DUP4 DUP2 MSTORE PUSH1 0x20 ADD TIMESTAMP DUP2 MSTORE POP SWAP1 DUP1 PUSH1 0x1 DUP2 SLOAD ADD DUP1 DUP3 SSTORE DUP1 SWAP2 POP POP PUSH1 0x1 SWAP1 SUB SWAP1 PUSH1 0x0 MSTORE PUSH1 0x20 PUSH1 0x0 KECCAK256 SWAP1 PUSH1 0x4 MUL ADD PUSH1 0x0 SWAP1 SWAP2 SWAP1 SWAP2 SWAP1 SWAP2 POP PUSH1 0x0 DUP3 ADD MLOAD DUP2 PUSH1 0x0 ADD PUSH1 0x0 PUSH2 0x100 EXP DUP2 SLOAD DUP2 PUSH20 0xFFFFFFFFFFFFFFFFFFFFFFFFFFFFFFFFFFFFFFFF MUL NOT AND SWAP1 DUP4 PUSH20 0xFFFFFFFFFFFFFFFFFFFFFFFFFFFFFFFFFFFFFFFF AND MUL OR SWAP1 SSTORE POP PUSH1 0x20 DUP3 ADD MLOAD DUP2 PUSH1 0x1 ADD PUSH1 0x0 PUSH2 0x100 EXP DUP2 SLOAD DUP2 PUSH20 0xFFFFFFFFFFFFFFFFFFFFFFFFFFFFFFFFFFFFFFFF MUL NOT AND SWAP1 DUP4 PUSH20 0xFFFFFFFFFFFFFFFFFFFFFFFFFFFFFFFFFFFFFFFF AND MUL OR SWAP1 SSTORE POP PUSH1 0x40 DUP3 ADD MLOAD DUP2 PUSH1 0x2 ADD SSTORE PUSH1 0x60 DUP3 ADD MLOAD DUP2 PUSH1 0x3 ADD SSTORE POP POP PUSH32 0x9ED053BB818FF08B8353CD46F78DB1F0799F31C9E4458FDB425C10ECCD2EFC44 CALLER DUP4 DUP4 TIMESTAMP PUSH1 0x40 MLOAD PUSH2 0x761 SWAP5 SWAP4 SWAP3 SWAP2 SWAP1 PUSH2 0x161B JUMP JUMPDEST PUSH1 0x40 MLOAD DUP1 SWAP2 SUB SWAP1 LOG1 POP POP JUMP JUMPDEST PUSH1 0x0 DUP2 SLT ISZERO PUSH2 0x77B JUMPI PUSH1 0x0 DUP1 REVERT JUMPDEST DUP1 PUSH1 0xA DUP2 SWAP1 SSTORE POP POP JUMP JUMPDEST PUSH1 0x7 SLOAD DUP2 JUMP JUMPDEST PUSH1 0x9 SLOAD DUP2 JUMP JUMPDEST DUP1 PUSH1 0x4 PUSH1 0x0 PUSH2 0x100 EXP DUP2 SLOAD DUP2 PUSH20 0xFFFFFFFFFFFFFFFFFFFFFFFFFFFFFFFFFFFFFFFF MUL NOT AND SWAP1 DUP4 PUSH20 0xFFFFFFFFFFFFFFFFFFFFFFFFFFFFFFFFFFFFFFFF AND MUL OR SWAP1 SSTORE POP POP JUMP JUMPDEST PUSH1 0x5 SLOAD DUP2 JUMP JUMPDEST PUSH1 0x3 PUSH1 0x0 SWAP1 SLOAD SWAP1 PUSH2 0x100 EXP SWAP1 DIV PUSH20 0xFFFFFFFFFFFFFFFFFFFFFFFFFFFFFFFFFFFFFFFF AND DUP2 JUMP JUMPDEST PUSH1 0x1 PUSH1 0x7 SLOAD PUSH2 0x810 SWAP2 SWAP1 PUSH2 0x17CE JUMP JUMPDEST PUSH1 0x7 DUP2 SWAP1 SSTORE POP PUSH1 0x0 DUP1 PUSH1 0x3 PUSH1 0x0 SWAP1 SLOAD SWAP1 PUSH2 0x100 EXP SWAP1 DIV PUSH20 0xFFFFFFFFFFFFFFFFFFFFFFFFFFFFFFFFFFFFFFFF AND PUSH20 0xFFFFFFFFFFFFFFFFFFFFFFFFFFFFFFFFFFFFFFFF AND PUSH4 0x3BC5DE30 PUSH1 0x40 MLOAD DUP2 PUSH4 0xFFFFFFFF AND PUSH1 0xE0 SHL DUP2 MSTORE PUSH1 0x4 ADD PUSH1 0x40 DUP1 MLOAD DUP1 DUP4 SUB DUP2 PUSH1 0x0 DUP8 DUP1 EXTCODESIZE ISZERO DUP1 ISZERO PUSH2 0x882 JUMPI PUSH1 0x0 DUP1 REVERT JUMPDEST POP GAS CALL ISZERO DUP1 ISZERO PUSH2 0x896 JUMPI RETURNDATASIZE PUSH1 0x0 DUP1 RETURNDATACOPY RETURNDATASIZE PUSH1 0x0 REVERT JUMPDEST POP POP POP POP PUSH1 0x40 MLOAD RETURNDATASIZE PUSH1 0x1F NOT PUSH1 0x1F DUP3 ADD AND DUP3 ADD DUP1 PUSH1 0x40 MSTORE POP DUP2 ADD SWAP1 PUSH2 0x8BA SWAP2 SWAP1 PUSH2 0x1581 JUMP JUMPDEST DUP1 SWAP3 POP DUP2 SWAP4 POP POP POP DUP1 PUSH2 0x8CC JUMPI PUSH1 0x0 DUP1 REVERT JUMPDEST PUSH1 0x0 PUSH2 0x8F0 PUSH2 0x8E8 DUP5 PUSH1 0x12 PUSH1 0xA PUSH2 0x8E3 SWAP2 SWAP1 PUSH2 0x1912 JUMP JUMPDEST PUSH2 0x10FF JUMP JUMPDEST PUSH1 0x5 SLOAD PUSH2 0x1144 JUMP JUMPDEST SWAP1 POP PUSH1 0x0 DUP1 PUSH1 0x4 PUSH1 0x0 SWAP1 SLOAD SWAP1 PUSH2 0x100 EXP SWAP1 DIV PUSH20 0xFFFFFFFFFFFFFFFFFFFFFFFFFFFFFFFFFFFFFFFF AND PUSH20 0xFFFFFFFFFFFFFFFFFFFFFFFFFFFFFFFFFFFFFFFF AND PUSH4 0x3BC5DE30 PUSH1 0x40 MLOAD DUP2 PUSH4 0xFFFFFFFF AND PUSH1 0xE0 SHL DUP2 MSTORE PUSH1 0x4 ADD PUSH1 0x40 DUP1 MLOAD DUP1 DUP4 SUB DUP2 PUSH1 0x0 DUP8 DUP1 EXTCODESIZE ISZERO DUP1 ISZERO PUSH2 0x95E JUMPI PUSH1 0x0 DUP1 REVERT JUMPDEST POP GAS CALL ISZERO DUP1 ISZERO PUSH2 0x972 JUMPI RETURNDATASIZE PUSH1 0x0 DUP1 RETURNDATACOPY RETURNDATASIZE PUSH1 0x0 REVERT JUMPDEST POP POP POP POP PUSH1 0x40 MLOAD RETURNDATASIZE PUSH1 0x1F NOT PUSH1 0x1F DUP3 ADD AND DUP3 ADD DUP1 PUSH1 0x40 MSTORE POP DUP2 ADD SWAP1 PUSH2 0x996 SWAP2 SWAP1 PUSH2 0x1581 JUMP JUMPDEST DUP1 SWAP3 POP DUP2 SWAP4 POP POP POP DUP1 PUSH2 0x9A8 JUMPI PUSH1 0x0 DUP1 REVERT JUMPDEST PUSH1 0x12 PUSH1 0xA PUSH2 0x9B6 SWAP2 SWAP1 PUSH2 0x1912 JUMP JUMPDEST PUSH3 0xF4240 PUSH2 0x9C4 SWAP2 SWAP1 PUSH2 0x1B47 JUMP JUMPDEST DUP3 GT ISZERO PUSH2 0x9EA JUMPI PUSH1 0x12 PUSH1 0xA PUSH2 0x9D9 SWAP2 SWAP1 PUSH2 0x1912 JUMP JUMPDEST PUSH3 0xF4240 PUSH2 0x9E7 SWAP2 SWAP1 PUSH2 0x1B47 JUMP JUMPDEST SWAP2 POP JUMPDEST PUSH1 0x0 PUSH2 0x9F6 DUP4 DUP6 PUSH2 0x116C JUMP JUMPDEST SWAP1 POP PUSH1 0x0 DUP2 SGT DUP1 ISZERO PUSH2 0xAF7 JUMPI POP PUSH1 0x12 PUSH1 0xA PUSH2 0xA11 SWAP2 SWAP1 PUSH2 0x1912 JUMP JUMPDEST PUSH3 0xF4240 PUSH2 0xA1F SWAP2 SWAP1 PUSH2 0x1B47 JUMP JUMPDEST PUSH32 0x7FFFFFFFFFFFFFFFFFFFFFFFFFFFFFFFFFFFFFFFFFFFFFFFFFFFFFFFFFFFFFFF PUSH2 0xA4A SWAP2 SWAP1 PUSH2 0x188E JUMP JUMPDEST DUP2 PUSH1 0x2 PUSH1 0x0 SWAP1 SLOAD SWAP1 PUSH2 0x100 EXP SWAP1 DIV PUSH20 0xFFFFFFFFFFFFFFFFFFFFFFFFFFFFFFFFFFFFFFFF AND PUSH20 0xFFFFFFFFFFFFFFFFFFFFFFFFFFFFFFFFFFFFFFFF AND PUSH4 0x18160DDD PUSH1 0x40 MLOAD DUP2 PUSH4 0xFFFFFFFF AND PUSH1 0xE0 SHL DUP2 MSTORE PUSH1 0x4 ADD PUSH1 0x20 PUSH1 0x40 MLOAD DUP1 DUP4 SUB DUP2 DUP7 DUP1 EXTCODESIZE ISZERO DUP1 ISZERO PUSH2 0xAB3 JUMPI PUSH1 0x0 DUP1 REVERT JUMPDEST POP GAS STATICCALL ISZERO DUP1 ISZERO PUSH2 0xAC7 JUMPI RETURNDATASIZE PUSH1 0x0 DUP1 RETURNDATACOPY RETURNDATASIZE PUSH1 0x0 REVERT JUMPDEST POP POP POP POP PUSH1 0x40 MLOAD RETURNDATASIZE PUSH1 0x1F NOT PUSH1 0x1F DUP3 ADD AND DUP3 ADD DUP1 PUSH1 0x40 MSTORE POP DUP2 ADD SWAP1 PUSH2 0xAEB SWAP2 SWAP1 PUSH2 0x1554 JUMP JUMPDEST PUSH2 0xAF5 SWAP2 SWAP1 PUSH2 0x17CE JUMP JUMPDEST GT JUMPDEST ISZERO PUSH2 0xBF0 JUMPI PUSH1 0x2 PUSH1 0x0 SWAP1 SLOAD SWAP1 PUSH2 0x100 EXP SWAP1 DIV PUSH20 0xFFFFFFFFFFFFFFFFFFFFFFFFFFFFFFFFFFFFFFFF AND PUSH20 0xFFFFFFFFFFFFFFFFFFFFFFFFFFFFFFFFFFFFFFFF AND PUSH4 0x18160DDD PUSH1 0x40 MLOAD DUP2 PUSH4 0xFFFFFFFF AND PUSH1 0xE0 SHL DUP2 MSTORE PUSH1 0x4 ADD PUSH1 0x20 PUSH1 0x40 MLOAD DUP1 DUP4 SUB DUP2 DUP7 DUP1 EXTCODESIZE ISZERO DUP1 ISZERO PUSH2 0xB64 JUMPI PUSH1 0x0 DUP1 REVERT JUMPDEST POP GAS STATICCALL ISZERO DUP1 ISZERO PUSH2 0xB78 JUMPI RETURNDATASIZE PUSH1 0x0 DUP1 RETURNDATACOPY RETURNDATASIZE PUSH1 0x0 REVERT JUMPDEST POP POP POP POP PUSH1 0x40 MLOAD RETURNDATASIZE PUSH1 0x1F NOT PUSH1 0x1F DUP3 ADD AND DUP3 ADD DUP1 PUSH1 0x40 MSTORE POP DUP2 ADD SWAP1 PUSH2 0xB9C SWAP2 SWAP1 PUSH2 0x1554 JUMP JUMPDEST PUSH1 0x12 PUSH1 0xA PUSH2 0xBAA SWAP2 SWAP1 PUSH2 0x1912 JUMP JUMPDEST PUSH3 0xF4240 PUSH2 0xBB8 SWAP2 SWAP1 PUSH2 0x1B47 JUMP JUMPDEST PUSH32 0x7FFFFFFFFFFFFFFFFFFFFFFFFFFFFFFFFFFFFFFFFFFFFFFFFFFFFFFFFFFFFFFF PUSH2 0xBE3 SWAP2 SWAP1 PUSH2 0x188E JUMP JUMPDEST PUSH2 0xBED SWAP2 SWAP1 PUSH2 0x1C35 JUMP JUMPDEST SWAP1 POP JUMPDEST PUSH1 0x0 PUSH1 0x2 PUSH1 0x0 SWAP1 SLOAD SWAP1 PUSH2 0x100 EXP SWAP1 DIV PUSH20 0xFFFFFFFFFFFFFFFFFFFFFFFFFFFFFFFFFFFFFFFF AND PUSH20 0xFFFFFFFFFFFFFFFFFFFFFFFFFFFFFFFFFFFFFFFF AND PUSH4 0x7A43E23F PUSH1 0x7 SLOAD DUP5 PUSH1 0x40 MLOAD DUP4 PUSH4 0xFFFFFFFF AND PUSH1 0xE0 SHL DUP2 MSTORE PUSH1 0x4 ADD PUSH2 0xC51 SWAP3 SWAP2 SWAP1 PUSH2 0x16CC JUMP JUMPDEST PUSH1 0x20 PUSH1 0x40 MLOAD DUP1 DUP4 SUB DUP2 PUSH1 0x0 DUP8 DUP1 EXTCODESIZE ISZERO DUP1 ISZERO PUSH2 0xC6B JUMPI PUSH1 0x0 DUP1 REVERT JUMPDEST POP GAS CALL ISZERO DUP1 ISZERO PUSH2 0xC7F JUMPI RETURNDATASIZE PUSH1 0x0 DUP1 RETURNDATACOPY RETURNDATASIZE PUSH1 0x0 REVERT JUMPDEST POP POP POP POP PUSH1 0x40 MLOAD RETURNDATASIZE PUSH1 0x1F NOT PUSH1 0x1F DUP3 ADD AND DUP3 ADD DUP1 PUSH1 0x40 MSTORE POP DUP2 ADD SWAP1 PUSH2 0xCA3 SWAP2 SWAP1 PUSH2 0x1554 JUMP JUMPDEST SWAP1 POP PUSH1 0x12 PUSH1 0xA PUSH2 0xCB3 SWAP2 SWAP1 PUSH2 0x1912 JUMP JUMPDEST PUSH3 0xF4240 PUSH2 0xCC1 SWAP2 SWAP1 PUSH2 0x1B47 JUMP JUMPDEST PUSH32 0x7FFFFFFFFFFFFFFFFFFFFFFFFFFFFFFFFFFFFFFFFFFFFFFFFFFFFFFFFFFFFFFF PUSH2 0xCEC SWAP2 SWAP1 PUSH2 0x188E JUMP JUMPDEST DUP2 GT ISZERO PUSH2 0xCFC JUMPI PUSH2 0xCFB PUSH2 0x1DDD JUMP JUMPDEST JUMPDEST PUSH1 0x7 SLOAD PUSH32 0x41D948A7F29CC695F5D4B3EC147F766BFFA165DDD317470FBE05C86D0A9C3E04 DUP6 DUP10 DUP6 TIMESTAMP PUSH1 0x40 MLOAD PUSH2 0xD34 SWAP5 SWAP4 SWAP3 SWAP2 SWAP1 PUSH2 0x16F5 JUMP JUMPDEST PUSH1 0x40 MLOAD DUP1 SWAP2 SUB SWAP1 LOG2 POP POP POP POP POP POP POP JUMP JUMPDEST PUSH1 0x2 PUSH1 0x12 PUSH2 0xD53 SWAP2 SWAP1 PUSH2 0x1C35 JUMP JUMPDEST PUSH1 0xA PUSH2 0xD5F SWAP2 SWAP1 PUSH2 0x1912 JUMP JUMPDEST PUSH1 0x5 PUSH2 0xD6B SWAP2 SWAP1 PUSH2 0x1B47 JUMP JUMPDEST PUSH1 0x6 DUP2 SWAP1 SSTORE POP PUSH1 0x12 PUSH1 0xA PUSH2 0xD7F SWAP2 SWAP1 PUSH2 0x1912 JUMP JUMPDEST PUSH1 0x3 PUSH2 0xD8B SWAP2 SWAP1 PUSH2 0x1B47 JUMP JUMPDEST PUSH1 0xA DUP2 SWAP1 SSTORE POP PUSH1 0x2 PUSH1 0x12 PUSH2 0xD9F SWAP2 SWAP1 PUSH2 0x1C35 JUMP JUMPDEST PUSH1 0xA PUSH2 0xDAB SWAP2 SWAP1 PUSH2 0x1912 JUMP JUMPDEST PUSH1 0xA PUSH2 0xDB7 SWAP2 SWAP1 PUSH2 0x1B47 JUMP JUMPDEST PUSH1 0x9 DUP2 SWAP1 SSTORE POP PUSH1 0x2 PUSH1 0x12 PUSH2 0xDCB SWAP2 SWAP1 PUSH2 0x1C35 JUMP JUMPDEST PUSH1 0xA PUSH2 0xDD7 SWAP2 SWAP1 PUSH2 0x1912 JUMP JUMPDEST PUSH32 0xFFFFFFFFFFFFFFFFFFFFFFFFFFFFFFFFFFFFFFFFFFFFFFFFFFFFFFFFFFFFFFF6 PUSH2 0xE02 SWAP2 SWAP1 PUSH2 0x1A30 JUMP JUMPDEST PUSH1 0x8 DUP2 SWAP1 SSTORE POP PUSH1 0x0 PUSH1 0x7 DUP2 SWAP1 SSTORE POP DUP2 PUSH1 0x2 PUSH1 0x0 PUSH2 0x100 EXP DUP2 SLOAD DUP2 PUSH20 0xFFFFFFFFFFFFFFFFFFFFFFFFFFFFFFFFFFFFFFFF MUL NOT AND SWAP1 DUP4 PUSH20 0xFFFFFFFFFFFFFFFFFFFFFFFFFFFFFFFFFFFFFFFF AND MUL OR SWAP1 SSTORE POP DUP1 PUSH1 0x5 DUP2 SWAP1 SSTORE POP POP POP JUMP JUMPDEST PUSH1 0x6 SLOAD DUP2 JUMP JUMPDEST PUSH1 0x0 DUP2 SGT ISZERO PUSH2 0xE70 JUMPI PUSH1 0x0 DUP1 REVERT JUMPDEST DUP1 PUSH1 0x8 DUP2 SWAP1 SSTORE POP POP JUMP JUMPDEST PUSH1 0x0 DUP2 SLT ISZERO PUSH2 0xE88 JUMPI PUSH1 0x0 DUP1 REVERT JUMPDEST DUP1 PUSH1 0x9 DUP2 SWAP1 SSTORE POP POP JUMP JUMPDEST PUSH1 0x0 DUP1 DUP3 DUP5 PUSH2 0xEA1 SWAP2 SWAP1 PUSH2 0x1BA1 JUMP JUMPDEST SWAP1 POP PUSH1 0x0 DUP4 SLT ISZERO DUP1 ISZERO PUSH2 0xEB4 JUMPI POP DUP4 DUP2 SGT ISZERO JUMPDEST DUP1 PUSH2 0xECA JUMPI POP PUSH1 0x0 DUP4 SLT DUP1 ISZERO PUSH2 0xEC9 JUMPI POP DUP4 DUP2 SGT JUMPDEST JUMPDEST PUSH2 0xED3 JUMPI PUSH1 0x0 DUP1 REVERT JUMPDEST DUP1 SWAP2 POP POP SWAP3 SWAP2 POP POP JUMP JUMPDEST PUSH1 0x0 DUP1 DUP3 DUP5 PUSH2 0xEEC SWAP2 SWAP1 PUSH2 0x1A30 JUMP JUMPDEST SWAP1 POP PUSH1 0xFF PUSH1 0x1 SWAP1 SHL DUP2 EQ ISZERO DUP1 PUSH2 0xF10 JUMPI POP PUSH1 0xFF PUSH1 0x1 SWAP1 SHL DUP4 AND PUSH1 0xFF PUSH1 0x1 SWAP1 SHL DUP6 AND EQ ISZERO JUMPDEST PUSH2 0xF19 JUMPI PUSH1 0x0 DUP1 REVERT JUMPDEST PUSH1 0x0 DUP4 EQ DUP1 PUSH2 0xF32 JUMPI POP DUP4 DUP4 DUP3 PUSH2 0xF30 SWAP2 SWAP1 PUSH2 0x1824 JUMP JUMPDEST EQ JUMPDEST PUSH2 0xF3B JUMPI PUSH1 0x0 DUP1 REVERT JUMPDEST DUP1 SWAP2 POP POP SWAP3 SWAP2 POP POP JUMP JUMPDEST PUSH1 0x0 PUSH32 0xFFFFFFFFFFFFFFFFFFFFFFFFFFFFFFFFFFFFFFFFFFFFFFFFFFFFFFFFFFFFFFFF DUP3 EQ ISZERO DUP1 PUSH2 0xF7B JUMPI POP PUSH1 0xFF PUSH1 0x1 SWAP1 SHL DUP4 EQ ISZERO JUMPDEST PUSH2 0xF84 JUMPI PUSH1 0x0 DUP1 REVERT JUMPDEST DUP2 DUP4 PUSH2 0xF90 SWAP2 SWAP1 PUSH2 0x1824 JUMP JUMPDEST SWAP1 POP SWAP3 SWAP2 POP POP JUMP JUMPDEST PUSH1 0x0 DUP1 PUSH1 0x0 SWAP1 POP PUSH1 0x0 DUP5 SLT ISZERO PUSH2 0xFB8 JUMPI PUSH1 0x1 SWAP1 POP PUSH2 0xFB5 DUP5 PUSH2 0x1290 JUMP JUMPDEST SWAP4 POP JUMPDEST PUSH1 0x0 PUSH1 0x40 MLOAD DUP1 PUSH1 0xA0 ADD PUSH1 0x40 MSTORE DUP1 PUSH8 0x13A04BBDFDC9BE89 DUP2 MSTORE PUSH1 0x20 ADD PUSH8 0x1080E992061AB32B DUP2 MSTORE PUSH1 0x20 ADD PUSH8 0xF2243014E544EBB DUP2 MSTORE PUSH1 0x20 ADD PUSH8 0xE7E0178E9D6ED50 DUP2 MSTORE PUSH1 0x20 ADD PUSH8 0xE2E820ADE835F46 DUP2 MSTORE POP SWAP1 POP PUSH1 0x0 PUSH2 0x1017 DUP7 DUP7 PUSH2 0xF45 JUMP JUMPDEST SWAP1 POP PUSH1 0x64 DUP2 SGT ISZERO PUSH2 0x1027 JUMPI PUSH1 0x0 DUP1 REVERT JUMPDEST PUSH1 0x0 PUSH2 0x1037 DUP3 PUSH1 0x1 SWAP1 SHL DUP8 PUSH2 0xEDD JUMP JUMPDEST SWAP1 POP PUSH1 0x0 PUSH2 0x104E DUP9 PUSH2 0x1049 DUP6 DUP11 PUSH2 0xEDD JUMP JUMPDEST PUSH2 0xE92 JUMP JUMPDEST SWAP1 POP PUSH1 0x0 PUSH2 0x105D DUP9 PUSH1 0x2 PUSH2 0xF45 JUMP JUMPDEST SWAP1 POP PUSH1 0x0 JUMPDEST PUSH1 0x5 DUP2 LT ISZERO PUSH2 0x10D3 JUMPI DUP2 DUP4 SLT PUSH2 0x10B3 JUMPI PUSH2 0x107C DUP4 DUP4 PUSH2 0xE92 JUMP JUMPDEST SWAP3 POP PUSH2 0x10B0 PUSH2 0x10A2 DUP6 DUP9 DUP5 PUSH1 0x5 DUP2 LT PUSH2 0x1098 JUMPI PUSH2 0x1097 PUSH2 0x1E6A JUMP JUMPDEST JUMPDEST PUSH1 0x20 MUL ADD MLOAD PUSH2 0xEDD JUMP JUMPDEST PUSH8 0xDE0B6B3A7640000 PUSH2 0xF45 JUMP JUMPDEST SWAP4 POP JUMPDEST PUSH2 0x10BE DUP3 PUSH1 0x2 PUSH2 0xF45 JUMP JUMPDEST SWAP2 POP DUP1 DUP1 PUSH2 0x10CB SWAP1 PUSH2 0x1D4B JUMP JUMPDEST SWAP2 POP POP PUSH2 0x1062 JUMP JUMPDEST POP DUP6 ISZERO PUSH2 0x10F0 JUMPI PUSH2 0x10ED PUSH2 0x10E7 DUP10 DUP11 PUSH2 0xEDD JUMP JUMPDEST DUP5 PUSH2 0xF45 JUMP JUMPDEST SWAP3 POP JUMPDEST DUP3 SWAP7 POP POP POP POP POP POP POP SWAP3 SWAP2 POP POP JUMP JUMPDEST PUSH1 0x0 DUP1 DUP4 EQ ISZERO PUSH2 0x1112 JUMPI PUSH1 0x0 SWAP1 POP PUSH2 0x113E JUMP JUMPDEST PUSH1 0x0 DUP3 DUP5 PUSH2 0x1120 SWAP2 SWAP1 PUSH2 0x1B47 JUMP JUMPDEST SWAP1 POP DUP3 DUP5 DUP3 PUSH2 0x112F SWAP2 SWAP1 PUSH2 0x188E JUMP JUMPDEST EQ PUSH2 0x1139 JUMPI PUSH1 0x0 DUP1 REVERT JUMPDEST DUP1 SWAP2 POP POP JUMPDEST SWAP3 SWAP2 POP POP JUMP JUMPDEST PUSH1 0x0 DUP1 DUP3 GT PUSH2 0x1152 JUMPI PUSH1 0x0 DUP1 REVERT JUMPDEST PUSH1 0x0 DUP3 DUP5 PUSH2 0x1160 SWAP2 SWAP1 PUSH2 0x188E JUMP JUMPDEST SWAP1 POP DUP1 SWAP2 POP POP SWAP3 SWAP2 POP POP JUMP JUMPDEST PUSH1 0x0 PUSH2 0x1178 DUP4 DUP4 PUSH2 0x12C4 JUMP JUMPDEST ISZERO PUSH2 0x1186 JUMPI PUSH1 0x0 SWAP1 POP PUSH2 0x128A JUMP JUMPDEST PUSH1 0x0 DUP3 SWAP1 POP PUSH1 0x0 PUSH2 0x11AD PUSH2 0x11A7 DUP7 PUSH1 0x12 PUSH1 0xA PUSH2 0x11A2 SWAP2 SWAP1 PUSH2 0x1912 JUMP JUMPDEST PUSH2 0xEDD JUMP JUMPDEST DUP4 PUSH2 0xF45 JUMP JUMPDEST SWAP1 POP PUSH1 0x0 PUSH2 0x11C3 DUP3 PUSH1 0x8 SLOAD PUSH1 0x9 SLOAD PUSH1 0xA SLOAD PUSH2 0x375 JUMP JUMPDEST SWAP1 POP PUSH2 0x1284 PUSH2 0x1271 PUSH1 0x2 PUSH1 0x0 SWAP1 SLOAD SWAP1 PUSH2 0x100 EXP SWAP1 DIV PUSH20 0xFFFFFFFFFFFFFFFFFFFFFFFFFFFFFFFFFFFFFFFF AND PUSH20 0xFFFFFFFFFFFFFFFFFFFFFFFFFFFFFFFFFFFFFFFF AND PUSH4 0x18160DDD PUSH1 0x40 MLOAD DUP2 PUSH4 0xFFFFFFFF AND PUSH1 0xE0 SHL DUP2 MSTORE PUSH1 0x4 ADD PUSH1 0x20 PUSH1 0x40 MLOAD DUP1 DUP4 SUB DUP2 DUP7 DUP1 EXTCODESIZE ISZERO DUP1 ISZERO PUSH2 0x1233 JUMPI PUSH1 0x0 DUP1 REVERT JUMPDEST POP GAS STATICCALL ISZERO DUP1 ISZERO PUSH2 0x1247 JUMPI RETURNDATASIZE PUSH1 0x0 DUP1 RETURNDATACOPY RETURNDATASIZE PUSH1 0x0 REVERT JUMPDEST POP POP POP POP PUSH1 0x40 MLOAD RETURNDATASIZE PUSH1 0x1F NOT PUSH1 0x1F DUP3 ADD AND DUP3 ADD DUP1 PUSH1 0x40 MSTORE POP DUP2 ADD SWAP1 PUSH2 0x126B SWAP2 SWAP1 PUSH2 0x1554 JUMP JUMPDEST DUP4 PUSH2 0xEDD JUMP JUMPDEST PUSH1 0x12 PUSH1 0xA PUSH2 0x127F SWAP2 SWAP1 PUSH2 0x1912 JUMP JUMPDEST PUSH2 0xF45 JUMP JUMPDEST SWAP4 POP POP POP POP JUMPDEST SWAP3 SWAP2 POP POP JUMP JUMPDEST PUSH1 0x0 PUSH1 0xFF PUSH1 0x1 SWAP1 SHL DUP3 EQ ISZERO PUSH2 0x12A4 JUMPI PUSH1 0x0 DUP1 REVERT JUMPDEST PUSH1 0x0 DUP3 SLT PUSH2 0x12B2 JUMPI DUP2 PUSH2 0x12BD JUMP JUMPDEST DUP2 PUSH2 0x12BC SWAP1 PUSH2 0x1D94 JUMP JUMPDEST JUMPDEST SWAP1 POP SWAP2 SWAP1 POP JUMP JUMPDEST PUSH1 0x0 DUP1 PUSH2 0x12E9 PUSH2 0x12D6 DUP5 PUSH1 0x6 SLOAD PUSH2 0x10FF JUMP JUMPDEST PUSH1 0x12 PUSH1 0xA PUSH2 0x12E4 SWAP2 SWAP1 PUSH2 0x1912 JUMP JUMPDEST PUSH2 0x1144 JUMP JUMPDEST SWAP1 POP DUP3 DUP5 LT ISZERO DUP1 ISZERO PUSH2 0x1303 JUMPI POP DUP1 PUSH2 0x1301 DUP6 DUP6 PUSH2 0x132A JUMP JUMPDEST LT JUMPDEST DUP1 PUSH2 0x1321 JUMPI POP DUP3 DUP5 LT DUP1 ISZERO PUSH2 0x1320 JUMPI POP DUP1 PUSH2 0x131E DUP5 DUP7 PUSH2 0x132A JUMP JUMPDEST LT JUMPDEST JUMPDEST SWAP2 POP POP SWAP3 SWAP2 POP POP JUMP JUMPDEST PUSH1 0x0 DUP3 DUP3 GT ISZERO PUSH2 0x1339 JUMPI PUSH1 0x0 DUP1 REVERT JUMPDEST PUSH1 0x0 DUP3 DUP5 PUSH2 0x1347 SWAP2 SWAP1 PUSH2 0x1C35 JUMP JUMPDEST SWAP1 POP DUP1 SWAP2 POP POP SWAP3 SWAP2 POP POP JUMP JUMPDEST PUSH1 0x0 DUP2 CALLDATALOAD SWAP1 POP PUSH2 0x1362 DUP2 PUSH2 0x1EAB JUMP JUMPDEST SWAP3 SWAP2 POP POP JUMP JUMPDEST PUSH1 0x0 DUP2 MLOAD SWAP1 POP PUSH2 0x1377 DUP2 PUSH2 0x1EC2 JUMP JUMPDEST SWAP3 SWAP2 POP POP JUMP JUMPDEST PUSH1 0x0 DUP2 CALLDATALOAD SWAP1 POP PUSH2 0x138C DUP2 PUSH2 0x1ED9 JUMP JUMPDEST SWAP3 SWAP2 POP POP JUMP JUMPDEST PUSH1 0x0 DUP2 CALLDATALOAD SWAP1 POP PUSH2 0x13A1 DUP2 PUSH2 0x1EF0 JUMP JUMPDEST SWAP3 SWAP2 POP POP JUMP JUMPDEST PUSH1 0x0 DUP2 CALLDATALOAD SWAP1 POP PUSH2 0x13B6 DUP2 PUSH2 0x1F07 JUMP JUMPDEST SWAP3 SWAP2 POP POP JUMP JUMPDEST PUSH1 0x0 DUP2 CALLDATALOAD SWAP1 POP PUSH2 0x13CB DUP2 PUSH2 0x1F1E JUMP JUMPDEST SWAP3 SWAP2 POP POP JUMP JUMPDEST PUSH1 0x0 DUP2 MLOAD SWAP1 POP PUSH2 0x13E0 DUP2 PUSH2 0x1F1E JUMP JUMPDEST SWAP3 SWAP2 POP POP JUMP JUMPDEST PUSH1 0x0 DUP1 PUSH1 0x40 DUP4 DUP6 SUB SLT ISZERO PUSH2 0x13FD JUMPI PUSH2 0x13FC PUSH2 0x1E99 JUMP JUMPDEST JUMPDEST PUSH1 0x0 PUSH2 0x140B DUP6 DUP3 DUP7 ADD PUSH2 0x1353 JUMP JUMPDEST SWAP3 POP POP PUSH1 0x20 PUSH2 0x141C DUP6 DUP3 DUP7 ADD PUSH2 0x13BC JUMP JUMPDEST SWAP2 POP POP SWAP3 POP SWAP3 SWAP1 POP JUMP JUMPDEST PUSH1 0x0 DUP1 PUSH1 0x40 DUP4 DUP6 SUB SLT ISZERO PUSH2 0x143D JUMPI PUSH2 0x143C PUSH2 0x1E99 JUMP JUMPDEST JUMPDEST PUSH1 0x0 PUSH2 0x144B DUP6 DUP3 DUP7 ADD PUSH2 0x137D JUMP JUMPDEST SWAP3 POP POP PUSH1 0x20 PUSH2 0x145C DUP6 DUP3 DUP7 ADD PUSH2 0x13BC JUMP JUMPDEST SWAP2 POP POP SWAP3 POP SWAP3 SWAP1 POP JUMP JUMPDEST PUSH1 0x0 PUSH1 0x20 DUP3 DUP5 SUB SLT ISZERO PUSH2 0x147C JUMPI PUSH2 0x147B PUSH2 0x1E99 JUMP JUMPDEST JUMPDEST PUSH1 0x0 PUSH2 0x148A DUP5 DUP3 DUP6 ADD PUSH2 0x1392 JUMP JUMPDEST SWAP2 POP POP SWAP3 SWAP2 POP POP JUMP JUMPDEST PUSH1 0x0 PUSH1 0x20 DUP3 DUP5 SUB SLT ISZERO PUSH2 0x14A9 JUMPI PUSH2 0x14A8 PUSH2 0x1E99 JUMP JUMPDEST JUMPDEST PUSH1 0x0 PUSH2 0x14B7 DUP5 DUP3 DUP6 ADD PUSH2 0x13A7 JUMP JUMPDEST SWAP2 POP POP SWAP3 SWAP2 POP POP JUMP JUMPDEST PUSH1 0x0 DUP1 PUSH1 0x0 DUP1 PUSH1 0x80 DUP6 DUP8 SUB SLT ISZERO PUSH2 0x14DA JUMPI PUSH2 0x14D9 PUSH2 0x1E99 JUMP JUMPDEST JUMPDEST PUSH1 0x0 PUSH2 0x14E8 DUP8 DUP3 DUP9 ADD PUSH2 0x13A7 JUMP JUMPDEST SWAP5 POP POP PUSH1 0x20 PUSH2 0x14F9 DUP8 DUP3 DUP9 ADD PUSH2 0x13A7 JUMP JUMPDEST SWAP4 POP POP PUSH1 0x40 PUSH2 0x150A DUP8 DUP3 DUP9 ADD PUSH2 0x13A7 JUMP JUMPDEST SWAP3 POP POP PUSH1 0x60 PUSH2 0x151B DUP8 DUP3 DUP9 ADD PUSH2 0x13A7 JUMP JUMPDEST SWAP2 POP POP SWAP3 SWAP6 SWAP2 SWAP5 POP SWAP3 POP JUMP JUMPDEST PUSH1 0x0 PUSH1 0x20 DUP3 DUP5 SUB SLT ISZERO PUSH2 0x153D JUMPI PUSH2 0x153C PUSH2 0x1E99 JUMP JUMPDEST JUMPDEST PUSH1 0x0 PUSH2 0x154B DUP5 DUP3 DUP6 ADD PUSH2 0x13BC JUMP JUMPDEST SWAP2 POP POP SWAP3 SWAP2 POP POP JUMP JUMPDEST PUSH1 0x0 PUSH1 0x20 DUP3 DUP5 SUB SLT ISZERO PUSH2 0x156A JUMPI PUSH2 0x1569 PUSH2 0x1E99 JUMP JUMPDEST JUMPDEST PUSH1 0x0 PUSH2 0x1578 DUP5 DUP3 DUP6 ADD PUSH2 0x13D1 JUMP JUMPDEST SWAP2 POP POP SWAP3 SWAP2 POP POP JUMP JUMPDEST PUSH1 0x0 DUP1 PUSH1 0x40 DUP4 DUP6 SUB SLT ISZERO PUSH2 0x1598 JUMPI PUSH2 0x1597 PUSH2 0x1E99 JUMP JUMPDEST JUMPDEST PUSH1 0x0 PUSH2 0x15A6 DUP6 DUP3 DUP7 ADD PUSH2 0x13D1 JUMP JUMPDEST SWAP3 POP POP PUSH1 0x20 PUSH2 0x15B7 DUP6 DUP3 DUP7 ADD PUSH2 0x1368 JUMP JUMPDEST SWAP2 POP POP SWAP3 POP SWAP3 SWAP1 POP JUMP JUMPDEST PUSH2 0x15CA DUP2 PUSH2 0x1CF1 JUMP JUMPDEST DUP3 MSTORE POP POP JUMP JUMPDEST PUSH2 0x15D9 DUP2 PUSH2 0x1C69 JUMP JUMPDEST DUP3 MSTORE POP POP JUMP JUMPDEST PUSH2 0x15E8 DUP2 PUSH2 0x1D03 JUMP JUMPDEST DUP3 MSTORE POP POP JUMP JUMPDEST PUSH2 0x15F7 DUP2 PUSH2 0x1D15 JUMP JUMPDEST DUP3 MSTORE POP POP JUMP JUMPDEST PUSH2 0x1606 DUP2 PUSH2 0x1CBD JUMP JUMPDEST DUP3 MSTORE POP POP JUMP JUMPDEST PUSH2 0x1615 DUP2 PUSH2 0x1CE7 JUMP JUMPDEST DUP3 MSTORE POP POP JUMP JUMPDEST PUSH1 0x0 PUSH1 0x80 DUP3 ADD SWAP1 POP PUSH2 0x1630 PUSH1 0x0 DUP4 ADD DUP8 PUSH2 0x15D0 JUMP JUMPDEST PUSH2 0x163D PUSH1 0x20 DUP4 ADD DUP7 PUSH2 0x15C1 JUMP JUMPDEST PUSH2 0x164A PUSH1 0x40 DUP4 ADD DUP6 PUSH2 0x160C JUMP JUMPDEST PUSH2 0x1657 PUSH1 0x60 DUP4 ADD DUP5 PUSH2 0x160C JUMP JUMPDEST SWAP6 SWAP5 POP POP POP POP POP JUMP JUMPDEST PUSH1 0x0 PUSH1 0x20 DUP3 ADD SWAP1 POP PUSH2 0x1675 PUSH1 0x0 DUP4 ADD DUP5 PUSH2 0x15DF JUMP JUMPDEST SWAP3 SWAP2 POP POP JUMP JUMPDEST PUSH1 0x0 PUSH1 0x20 DUP3 ADD SWAP1 POP PUSH2 0x1690 PUSH1 0x0 DUP4 ADD DUP5 PUSH2 0x15EE JUMP JUMPDEST SWAP3 SWAP2 POP POP JUMP JUMPDEST PUSH1 0x0 PUSH1 0x20 DUP3 ADD SWAP1 POP PUSH2 0x16AB PUSH1 0x0 DUP4 ADD DUP5 PUSH2 0x15FD JUMP JUMPDEST SWAP3 SWAP2 POP POP JUMP JUMPDEST PUSH1 0x0 PUSH1 0x20 DUP3 ADD SWAP1 POP PUSH2 0x16C6 PUSH1 0x0 DUP4 ADD DUP5 PUSH2 0x160C JUMP JUMPDEST SWAP3 SWAP2 POP POP JUMP JUMPDEST PUSH1 0x0 PUSH1 0x40 DUP3 ADD SWAP1 POP PUSH2 0x16E1 PUSH1 0x0 DUP4 ADD DUP6 PUSH2 0x160C JUMP JUMPDEST PUSH2 0x16EE PUSH1 0x20 DUP4 ADD DUP5 PUSH2 0x15FD JUMP JUMPDEST SWAP4 SWAP3 POP POP POP JUMP JUMPDEST PUSH1 0x0 PUSH1 0x80 DUP3 ADD SWAP1 POP PUSH2 0x170A PUSH1 0x0 DUP4 ADD DUP8 PUSH2 0x160C JUMP JUMPDEST PUSH2 0x1717 PUSH1 0x20 DUP4 ADD DUP7 PUSH2 0x160C JUMP JUMPDEST PUSH2 0x1724 PUSH1 0x40 DUP4 ADD DUP6 PUSH2 0x15FD JUMP JUMPDEST PUSH2 0x1731 PUSH1 0x60 DUP4 ADD DUP5 PUSH2 0x160C JUMP JUMPDEST SWAP6 SWAP5 POP POP POP POP POP JUMP JUMPDEST PUSH1 0x0 PUSH2 0x1745 DUP3 PUSH2 0x1CBD JUMP JUMPDEST SWAP2 POP PUSH2 0x1750 DUP4 PUSH2 0x1CBD JUMP JUMPDEST SWAP3 POP DUP2 PUSH32 0x7FFFFFFFFFFFFFFFFFFFFFFFFFFFFFFFFFFFFFFFFFFFFFFFFFFFFFFFFFFFFFFF SUB DUP4 SGT PUSH1 0x0 DUP4 SLT ISZERO AND ISZERO PUSH2 0x178B JUMPI PUSH2 0x178A PUSH2 0x1E0C JUMP JUMPDEST JUMPDEST DUP2 PUSH32 0x8000000000000000000000000000000000000000000000000000000000000000 SUB DUP4 SLT PUSH1 0x0 DUP4 SLT AND ISZERO PUSH2 0x17C3 JUMPI PUSH2 0x17C2 PUSH2 0x1E0C JUMP JUMPDEST JUMPDEST DUP3 DUP3 ADD SWAP1 POP SWAP3 SWAP2 POP POP JUMP JUMPDEST PUSH1 0x0 PUSH2 0x17D9 DUP3 PUSH2 0x1CE7 JUMP JUMPDEST SWAP2 POP PUSH2 0x17E4 DUP4 PUSH2 0x1CE7 JUMP JUMPDEST SWAP3 POP DUP3 PUSH32 0xFFFFFFFFFFFFFFFFFFFFFFFFFFFFFFFFFFFFFFFFFFFFFFFFFFFFFFFFFFFFFFFF SUB DUP3 GT ISZERO PUSH2 0x1819 JUMPI PUSH2 0x1818 PUSH2 0x1E0C JUMP JUMPDEST JUMPDEST DUP3 DUP3 ADD SWAP1 POP SWAP3 SWAP2 POP POP JUMP JUMPDEST PUSH1 0x0 PUSH2 0x182F DUP3 PUSH2 0x1CBD JUMP JUMPDEST SWAP2 POP PUSH2 0x183A DUP4 PUSH2 0x1CBD JUMP JUMPDEST SWAP3 POP DUP3 PUSH2 0x184A JUMPI PUSH2 0x1849 PUSH2 0x1E3B JUMP JUMPDEST JUMPDEST PUSH1 0x1 PUSH1 0x0 SUB DUP4 EQ PUSH32 0x8000000000000000000000000000000000000000000000000000000000000000 DUP4 EQ AND ISZERO PUSH2 0x1883 JUMPI PUSH2 0x1882 PUSH2 0x1E0C JUMP JUMPDEST JUMPDEST DUP3 DUP3 SDIV SWAP1 POP SWAP3 SWAP2 POP POP JUMP JUMPDEST PUSH1 0x0 PUSH2 0x1899 DUP3 PUSH2 0x1CE7 JUMP JUMPDEST SWAP2 POP PUSH2 0x18A4 DUP4 PUSH2 0x1CE7 JUMP JUMPDEST SWAP3 POP DUP3 PUSH2 0x18B4 JUMPI PUSH2 0x18B3 PUSH2 0x1E3B JUMP JUMPDEST JUMPDEST DUP3 DUP3 DIV SWAP1 POP SWAP3 SWAP2 POP POP JUMP JUMPDEST PUSH1 0x0 DUP1 DUP3 SWAP2 POP DUP4 SWAP1 POP JUMPDEST PUSH1 0x1 DUP6 GT ISZERO PUSH2 0x1909 JUMPI DUP1 DUP7 DIV DUP2 GT ISZERO PUSH2 0x18E5 JUMPI PUSH2 0x18E4 PUSH2 0x1E0C JUMP JUMPDEST JUMPDEST PUSH1 0x1 DUP6 AND ISZERO PUSH2 0x18F4 JUMPI DUP1 DUP3 MUL SWAP2 POP JUMPDEST DUP1 DUP2 MUL SWAP1 POP PUSH2 0x1902 DUP6 PUSH2 0x1E9E JUMP JUMPDEST SWAP5 POP PUSH2 0x18C9 JUMP JUMPDEST SWAP5 POP SWAP5 SWAP3 POP POP POP JUMP JUMPDEST PUSH1 0x0 PUSH2 0x191D DUP3 PUSH2 0x1CE7 JUMP JUMPDEST SWAP2 POP PUSH2 0x1928 DUP4 PUSH2 0x1CE7 JUMP JUMPDEST SWAP3 POP PUSH2 0x1955 PUSH32 0xFFFFFFFFFFFFFFFFFFFFFFFFFFFFFFFFFFFFFFFFFFFFFFFFFFFFFFFFFFFFFFFF DUP5 DUP5 PUSH2 0x195D JUMP JUMPDEST SWAP1 POP SWAP3 SWAP2 POP POP JUMP JUMPDEST PUSH1 0x0 DUP3 PUSH2 0x196D JUMPI PUSH1 0x1 SWAP1 POP PUSH2 0x1A29 JUMP JUMPDEST DUP2 PUSH2 0x197B JUMPI PUSH1 0x0 SWAP1 POP PUSH2 0x1A29 JUMP JUMPDEST DUP2 PUSH1 0x1 DUP2 EQ PUSH2 0x1991 JUMPI PUSH1 0x2 DUP2 EQ PUSH2 0x199B JUMPI PUSH2 0x19CA JUMP JUMPDEST PUSH1 0x1 SWAP2 POP POP PUSH2 0x1A29 JUMP JUMPDEST PUSH1 0xFF DUP5 GT ISZERO PUSH2 0x19AD JUMPI PUSH2 0x19AC PUSH2 0x1E0C JUMP JUMPDEST JUMPDEST DUP4 PUSH1 0x2 EXP SWAP2 POP DUP5 DUP3 GT ISZERO PUSH2 0x19C4 JUMPI PUSH2 0x19C3 PUSH2 0x1E0C JUMP JUMPDEST JUMPDEST POP PUSH2 0x1A29 JUMP JUMPDEST POP PUSH1 0x20 DUP4 LT PUSH2 0x133 DUP4 LT AND PUSH1 0x4E DUP5 LT PUSH1 0xB DUP5 LT AND OR ISZERO PUSH2 0x19FF JUMPI DUP3 DUP3 EXP SWAP1 POP DUP4 DUP2 GT ISZERO PUSH2 0x19FA JUMPI PUSH2 0x19F9 PUSH2 0x1E0C JUMP JUMPDEST JUMPDEST PUSH2 0x1A29 JUMP JUMPDEST PUSH2 0x1A0C DUP5 DUP5 DUP5 PUSH1 0x1 PUSH2 0x18BF JUMP JUMPDEST SWAP3 POP SWAP1 POP DUP2 DUP5 DIV DUP2 GT ISZERO PUSH2 0x1A23 JUMPI PUSH2 0x1A22 PUSH2 0x1E0C JUMP JUMPDEST JUMPDEST DUP2 DUP2 MUL SWAP1 POP JUMPDEST SWAP4 SWAP3 POP POP POP JUMP JUMPDEST PUSH1 0x0 PUSH2 0x1A3B DUP3 PUSH2 0x1CBD JUMP JUMPDEST SWAP2 POP PUSH2 0x1A46 DUP4 PUSH2 0x1CBD JUMP JUMPDEST SWAP3 POP DUP3 PUSH32 0x7FFFFFFFFFFFFFFFFFFFFFFFFFFFFFFFFFFFFFFFFFFFFFFFFFFFFFFFFFFFFFFF DIV DUP3 GT PUSH1 0x0 DUP5 SGT PUSH1 0x0 DUP5 SGT AND AND ISZERO PUSH2 0x1A85 JUMPI PUSH2 0x1A84 PUSH2 0x1E0C JUMP JUMPDEST JUMPDEST DUP2 PUSH32 0x8000000000000000000000000000000000000000000000000000000000000000 SDIV DUP4 SLT PUSH1 0x0 DUP5 SLT PUSH1 0x0 DUP5 SGT AND AND ISZERO PUSH2 0x1AC2 JUMPI PUSH2 0x1AC1 PUSH2 0x1E0C JUMP JUMPDEST JUMPDEST DUP3 PUSH32 0x8000000000000000000000000000000000000000000000000000000000000000 SDIV DUP3 SLT PUSH1 0x0 DUP5 SGT PUSH1 0x0 DUP5 SLT AND AND ISZERO PUSH2 0x1AFF JUMPI PUSH2 0x1AFE PUSH2 0x1E0C JUMP JUMPDEST JUMPDEST DUP3 PUSH32 0x7FFFFFFFFFFFFFFFFFFFFFFFFFFFFFFFFFFFFFFFFFFFFFFFFFFFFFFFFFFFFFFF SDIV DUP3 SLT PUSH1 0x0 DUP5 SLT PUSH1 0x0 DUP5 SLT AND AND ISZERO PUSH2 0x1B3C JUMPI PUSH2 0x1B3B PUSH2 0x1E0C JUMP JUMPDEST JUMPDEST DUP3 DUP3 MUL SWAP1 POP SWAP3 SWAP2 POP POP JUMP JUMPDEST PUSH1 0x0 PUSH2 0x1B52 DUP3 PUSH2 0x1CE7 JUMP JUMPDEST SWAP2 POP PUSH2 0x1B5D DUP4 PUSH2 0x1CE7 JUMP JUMPDEST SWAP3 POP DUP2 PUSH32 0xFFFFFFFFFFFFFFFFFFFFFFFFFFFFFFFFFFFFFFFFFFFFFFFFFFFFFFFFFFFFFFFF DIV DUP4 GT DUP3 ISZERO ISZERO AND ISZERO PUSH2 0x1B96 JUMPI PUSH2 0x1B95 PUSH2 0x1E0C JUMP JUMPDEST JUMPDEST DUP3 DUP3 MUL SWAP1 POP SWAP3 SWAP2 POP POP JUMP JUMPDEST PUSH1 0x0 PUSH2 0x1BAC DUP3 PUSH2 0x1CBD JUMP JUMPDEST SWAP2 POP PUSH2 0x1BB7 DUP4 PUSH2 0x1CBD JUMP JUMPDEST SWAP3 POP DUP3 PUSH32 0x8000000000000000000000000000000000000000000000000000000000000000 ADD DUP3 SLT PUSH1 0x0 DUP5 SLT ISZERO AND ISZERO PUSH2 0x1BF2 JUMPI PUSH2 0x1BF1 PUSH2 0x1E0C JUMP JUMPDEST JUMPDEST DUP3 PUSH32 0x7FFFFFFFFFFFFFFFFFFFFFFFFFFFFFFFFFFFFFFFFFFFFFFFFFFFFFFFFFFFFFFF ADD DUP3 SGT PUSH1 0x0 DUP5 SLT AND ISZERO PUSH2 0x1C2A JUMPI PUSH2 0x1C29 PUSH2 0x1E0C JUMP JUMPDEST JUMPDEST DUP3 DUP3 SUB SWAP1 POP SWAP3 SWAP2 POP POP JUMP JUMPDEST PUSH1 0x0 PUSH2 0x1C40 DUP3 PUSH2 0x1CE7 JUMP JUMPDEST SWAP2 POP PUSH2 0x1C4B DUP4 PUSH2 0x1CE7 JUMP JUMPDEST SWAP3 POP DUP3 DUP3 LT ISZERO PUSH2 0x1C5E JUMPI PUSH2 0x1C5D PUSH2 0x1E0C JUMP JUMPDEST JUMPDEST DUP3 DUP3 SUB SWAP1 POP SWAP3 SWAP2 POP POP JUMP JUMPDEST PUSH1 0x0 PUSH2 0x1C74 DUP3 PUSH2 0x1CC7 JUMP JUMPDEST SWAP1 POP SWAP2 SWAP1 POP JUMP JUMPDEST PUSH1 0x0 PUSH2 0x1C86 DUP3 PUSH2 0x1CC7 JUMP JUMPDEST SWAP1 POP SWAP2 SWAP1 POP JUMP JUMPDEST PUSH1 0x0 DUP2 ISZERO ISZERO SWAP1 POP SWAP2 SWAP1 POP JUMP JUMPDEST PUSH1 0x0 PUSH2 0x1CA4 DUP3 PUSH2 0x1C69 JUMP JUMPDEST SWAP1 POP SWAP2 SWAP1 POP JUMP JUMPDEST PUSH1 0x0 PUSH2 0x1CB6 DUP3 PUSH2 0x1C69 JUMP JUMPDEST SWAP1 POP SWAP2 SWAP1 POP JUMP JUMPDEST PUSH1 0x0 DUP2 SWAP1 POP SWAP2 SWAP1 POP JUMP JUMPDEST PUSH1 0x0 PUSH20 0xFFFFFFFFFFFFFFFFFFFFFFFFFFFFFFFFFFFFFFFF DUP3 AND SWAP1 POP SWAP2 SWAP1 POP JUMP JUMPDEST PUSH1 0x0 DUP2 SWAP1 POP SWAP2 SWAP1 POP JUMP JUMPDEST PUSH1 0x0 PUSH2 0x1CFC DUP3 PUSH2 0x1D27 JUMP JUMPDEST SWAP1 POP SWAP2 SWAP1 POP JUMP JUMPDEST PUSH1 0x0 PUSH2 0x1D0E DUP3 PUSH2 0x1D27 JUMP JUMPDEST SWAP1 POP SWAP2 SWAP1 POP JUMP JUMPDEST PUSH1 0x0 PUSH2 0x1D20 DUP3 PUSH2 0x1D27 JUMP JUMPDEST SWAP1 POP SWAP2 SWAP1 POP JUMP JUMPDEST PUSH1 0x0 PUSH2 0x1D32 DUP3 PUSH2 0x1D39 JUMP JUMPDEST SWAP1 POP SWAP2 SWAP1 POP JUMP JUMPDEST PUSH1 0x0 PUSH2 0x1D44 DUP3 PUSH2 0x1CC7 JUMP JUMPDEST SWAP1 POP SWAP2 SWAP1 POP JUMP JUMPDEST PUSH1 0x0 PUSH2 0x1D56 DUP3 PUSH2 0x1CE7 JUMP JUMPDEST SWAP2 POP PUSH32 0xFFFFFFFFFFFFFFFFFFFFFFFFFFFFFFFFFFFFFFFFFFFFFFFFFFFFFFFFFFFFFFFF DUP3 EQ ISZERO PUSH2 0x1D89 JUMPI PUSH2 0x1D88 PUSH2 0x1E0C JUMP JUMPDEST JUMPDEST PUSH1 0x1 DUP3 ADD SWAP1 POP SWAP2 SWAP1 POP JUMP JUMPDEST PUSH1 0x0 PUSH2 0x1D9F DUP3 PUSH2 0x1CBD JUMP JUMPDEST SWAP2 POP PUSH32 0x8000000000000000000000000000000000000000000000000000000000000000 DUP3 EQ ISZERO PUSH2 0x1DD2 JUMPI PUSH2 0x1DD1 PUSH2 0x1E0C JUMP JUMPDEST JUMPDEST DUP2 PUSH1 0x0 SUB SWAP1 POP SWAP2 SWAP1 POP JUMP JUMPDEST PUSH32 0x4E487B7100000000000000000000000000000000000000000000000000000000 PUSH1 0x0 MSTORE PUSH1 0x1 PUSH1 0x4 MSTORE PUSH1 0x24 PUSH1 0x0 REVERT JUMPDEST PUSH32 0x4E487B7100000000000000000000000000000000000000000000000000000000 PUSH1 0x0 MSTORE PUSH1 0x11 PUSH1 0x4 MSTORE PUSH1 0x24 PUSH1 0x0 REVERT JUMPDEST PUSH32 0x4E487B7100000000000000000000000000000000000000000000000000000000 PUSH1 0x0 MSTORE PUSH1 0x12 PUSH1 0x4 MSTORE PUSH1 0x24 PUSH1 0x0 REVERT JUMPDEST PUSH32 0x4E487B7100000000000000000000000000000000000000000000000000000000 PUSH1 0x0 MSTORE PUSH1 0x32 PUSH1 0x4 MSTORE PUSH1 0x24 PUSH1 0x0 REVERT JUMPDEST PUSH1 0x0 DUP1 REVERT JUMPDEST PUSH1 0x0 DUP2 PUSH1 0x1 SHR SWAP1 POP SWAP2 SWAP1 POP JUMP JUMPDEST PUSH2 0x1EB4 DUP2 PUSH2 0x1C7B JUMP JUMPDEST DUP2 EQ PUSH2 0x1EBF JUMPI PUSH1 0x0 DUP1 REVERT JUMPDEST POP JUMP JUMPDEST PUSH2 0x1ECB DUP2 PUSH2 0x1C8D JUMP JUMPDEST DUP2 EQ PUSH2 0x1ED6 JUMPI PUSH1 0x0 DUP1 REVERT JUMPDEST POP JUMP JUMPDEST PUSH2 0x1EE2 DUP2 PUSH2 0x1C99 JUMP JUMPDEST DUP2 EQ PUSH2 0x1EED JUMPI PUSH1 0x0 DUP1 REVERT JUMPDEST POP JUMP JUMPDEST PUSH2 0x1EF9 DUP2 PUSH2 0x1CAB JUMP JUMPDEST DUP2 EQ PUSH2 0x1F04 JUMPI PUSH1 0x0 DUP1 REVERT JUMPDEST POP JUMP JUMPDEST PUSH2 0x1F10 DUP2 PUSH2 0x1CBD JUMP JUMPDEST DUP2 EQ PUSH2 0x1F1B JUMPI PUSH1 0x0 DUP1 REVERT JUMPDEST POP JUMP JUMPDEST PUSH2 0x1F27 DUP2 PUSH2 0x1CE7 JUMP JUMPDEST DUP2 EQ PUSH2 0x1F32 JUMPI PUSH1 0x0 DUP1 REVERT JUMPDEST POP JUMP INVALID LOG2 PUSH5 0x6970667358 0x22 SLT KECCAK256 PUSH19 0x5D1362D699AD28253183BA856B1873E2651471 OR CODESIZE JUMPI MULMOD DUP15 EXTCODECOPY 0xAC 0xAD SDIV 0xBD CALLDATACOPY PUSH29 0x64736F6C63430008070033000000000000000000000000000000000000 "
		},
		"gasEstimates": {
			"creation": {
				"codeDepositCost": "1608600",
				"executionCost": "1687",
				"totalCost": "1610287"
			},
			"external": {
				"baseCpi()": "2518",
				"cmmd()": "2668",
				"computeRebasePercentage(int256,int256,int256,int256)": "infinite",
				"cpiOracle()": "2711",
				"deviationThreshold()": "2495",
				"epoch()": "2452",
				"faucet(address,uint256)": "infinite",
				"initialize(address,uint256)": "infinite",
				"marketOracle()": "2623",
				"rebase()": "infinite",
				"rebaseFunctionGrowth()": "2496",
				"rebaseFunctionLowerPercentage()": "2541",
				"rebaseFunctionUpperPercentage()": "2474",
				"setBaseCpi(uint256)": "22565",
				"setCpiOracle(address)": "24811",
				"setDeviationThreshold(uint256)": "22610",
				"setMarketOracle(address)": "24832",
				"setRebaseFunctionGrowth(int256)": "22657",
				"setRebaseFunctionLowerPercentage(int256)": "22634",
				"setRebaseFunctionUpperPercentage(int256)": "22656"
			},
			"internal": {
				"computeSupplyDelta(uint256,uint256)": "infinite",
				"withinDeviationThreshold(uint256,uint256)": "infinite"
			}
		},
		"methodIdentifiers": {
			"baseCpi()": "a37069ee",
			"cmmd()": "4dafa35e",
			"computeRebasePercentage(int256,int256,int256,int256)": "3a785af1",
			"cpiOracle()": "ab33c5ca",
			"deviationThreshold()": "d94ad837",
			"epoch()": "900cf0cf",
			"faucet(address,uint256)": "7b56c2b2",
			"initialize(address,uint256)": "cd6dc687",
			"marketOracle()": "60961528",
			"rebase()": "af14052c",
			"rebaseFunctionGrowth()": "7486cdea",
			"rebaseFunctionLowerPercentage()": "5ee01540",
			"rebaseFunctionUpperPercentage()": "9db59b2f",
			"setBaseCpi(uint256)": "6de729db",
			"setCpiOracle(address)": "3d6a46e5",
			"setDeviationThreshold(uint256)": "53a15edc",
			"setMarketOracle(address)": "9e30bac5",
			"setRebaseFunctionGrowth(int256)": "8001066d",
			"setRebaseFunctionLowerPercentage(int256)": "e9fa88a4",
			"setRebaseFunctionUpperPercentage(int256)": "f4fefa49"
		}
	},
	"abi": [
		{
			"anonymous": false,
			"inputs": [
				{
					"indexed": true,
					"internalType": "uint256",
					"name": "epoch",
					"type": "uint256"
				},
				{
					"indexed": false,
					"internalType": "uint256",
					"name": "exchangeRate",
					"type": "uint256"
				},
				{
					"indexed": false,
					"internalType": "uint256",
					"name": "cpi",
					"type": "uint256"
				},
				{
					"indexed": false,
					"internalType": "int256",
					"name": "requestedSupplyAdjustment",
					"type": "int256"
				},
				{
					"indexed": false,
					"internalType": "uint256",
					"name": "timestampSec",
					"type": "uint256"
				}
			],
			"name": "LogRebase",
			"type": "event"
		},
		{
			"anonymous": false,
			"inputs": [
				{
					"indexed": false,
					"internalType": "address",
					"name": "from",
					"type": "address"
				},
				{
					"indexed": false,
					"internalType": "address",
					"name": "receiver",
					"type": "address"
				},
				{
					"indexed": false,
					"internalType": "uint256",
					"name": "amount",
					"type": "uint256"
				},
				{
					"indexed": false,
					"internalType": "uint256",
					"name": "timestamp",
					"type": "uint256"
				}
			],
			"name": "Transfer",
			"type": "event"
		},
		{
			"inputs": [],
			"name": "baseCpi",
			"outputs": [
				{
					"internalType": "uint256",
					"name": "",
					"type": "uint256"
				}
			],
			"stateMutability": "view",
			"type": "function"
		},
		{
			"inputs": [],
			"name": "cmmd",
			"outputs": [
				{
					"internalType": "contract ICMMD",
					"name": "",
					"type": "address"
				}
			],
			"stateMutability": "view",
			"type": "function"
		},
		{
			"inputs": [
				{
					"internalType": "int256",
					"name": "normalizedRate",
					"type": "int256"
				},
				{
					"internalType": "int256",
					"name": "lower",
					"type": "int256"
				},
				{
					"internalType": "int256",
					"name": "upper",
					"type": "int256"
				},
				{
					"internalType": "int256",
					"name": "growth",
					"type": "int256"
				}
			],
			"name": "computeRebasePercentage",
			"outputs": [
				{
					"internalType": "int256",
					"name": "",
					"type": "int256"
				}
			],
			"stateMutability": "pure",
			"type": "function"
		},
		{
			"inputs": [],
			"name": "cpiOracle",
			"outputs": [
				{
					"internalType": "contract IOracle",
					"name": "",
					"type": "address"
				}
			],
			"stateMutability": "view",
			"type": "function"
		},
		{
			"inputs": [],
			"name": "deviationThreshold",
			"outputs": [
				{
					"internalType": "uint256",
					"name": "",
					"type": "uint256"
				}
			],
			"stateMutability": "view",
			"type": "function"
		},
		{
			"inputs": [],
			"name": "epoch",
			"outputs": [
				{
					"internalType": "uint256",
					"name": "",
					"type": "uint256"
				}
			],
			"stateMutability": "view",
			"type": "function"
		},
		{
			"inputs": [
				{
					"internalType": "address payable",
					"name": "receiver",
					"type": "address"
				},
				{
					"internalType": "uint256",
					"name": "amount",
					"type": "uint256"
				}
			],
			"name": "faucet",
			"outputs": [],
			"stateMutability": "nonpayable",
			"type": "function"
		},
		{
			"inputs": [
				{
					"internalType": "contract ICMMD",
					"name": "cmmd_",
					"type": "address"
				},
				{
					"internalType": "uint256",
					"name": "baseCpi_",
					"type": "uint256"
				}
			],
			"name": "initialize",
			"outputs": [],
			"stateMutability": "nonpayable",
			"type": "function"
		},
		{
			"inputs": [],
			"name": "marketOracle",
			"outputs": [
				{
					"internalType": "contract IOracle",
					"name": "",
					"type": "address"
				}
			],
			"stateMutability": "view",
			"type": "function"
		},
		{
			"inputs": [],
			"name": "rebase",
			"outputs": [],
			"stateMutability": "nonpayable",
			"type": "function"
		},
		{
			"inputs": [],
			"name": "rebaseFunctionGrowth",
			"outputs": [
				{
					"internalType": "int256",
					"name": "",
					"type": "int256"
				}
			],
			"stateMutability": "view",
			"type": "function"
		},
		{
			"inputs": [],
			"name": "rebaseFunctionLowerPercentage",
			"outputs": [
				{
					"internalType": "int256",
					"name": "",
					"type": "int256"
				}
			],
			"stateMutability": "view",
			"type": "function"
		},
		{
			"inputs": [],
			"name": "rebaseFunctionUpperPercentage",
			"outputs": [
				{
					"internalType": "int256",
					"name": "",
					"type": "int256"
				}
			],
			"stateMutability": "view",
			"type": "function"
		},
		{
			"inputs": [
				{
					"internalType": "uint256",
					"name": "baseCpi_",
					"type": "uint256"
				}
			],
			"name": "setBaseCpi",
			"outputs": [],
			"stateMutability": "nonpayable",
			"type": "function"
		},
		{
			"inputs": [
				{
					"internalType": "contract IOracle",
					"name": "cpiOracle_",
					"type": "address"
				}
			],
			"name": "setCpiOracle",
			"outputs": [],
			"stateMutability": "nonpayable",
			"type": "function"
		},
		{
			"inputs": [
				{
					"internalType": "uint256",
					"name": "deviationThreshold_",
					"type": "uint256"
				}
			],
			"name": "setDeviationThreshold",
			"outputs": [],
			"stateMutability": "nonpayable",
			"type": "function"
		},
		{
			"inputs": [
				{
					"internalType": "contract IOracle",
					"name": "marketOracle_",
					"type": "address"
				}
			],
			"name": "setMarketOracle",
			"outputs": [],
			"stateMutability": "nonpayable",
			"type": "function"
		},
		{
			"inputs": [
				{
					"internalType": "int256",
					"name": "rebaseFunctionGrowth_",
					"type": "int256"
				}
			],
			"name": "setRebaseFunctionGrowth",
			"outputs": [],
			"stateMutability": "nonpayable",
			"type": "function"
		},
		{
			"inputs": [
				{
					"internalType": "int256",
					"name": "rebaseFunctionLowerPercentage_",
					"type": "int256"
				}
			],
			"name": "setRebaseFunctionLowerPercentage",
			"outputs": [],
			"stateMutability": "nonpayable",
			"type": "function"
		},
		{
			"inputs": [
				{
					"internalType": "int256",
					"name": "rebaseFunctionUpperPercentage_",
					"type": "int256"
				}
			],
			"name": "setRebaseFunctionUpperPercentage",
			"outputs": [],
			"stateMutability": "nonpayable",
			"type": "function"
		}
	]
}