{
	"data": {
		"bytecode": {
			"linkReferences": {},
			"object": "608060405234801561001057600080fd5b50611c71806100206000396000f3fe608060405234801561001057600080fd5b506004361061010b5760003560e01c8063900cf0cf116100a2578063af14052c11610071578063af14052c14610282578063cd6dc6871461028c578063d94ad837146102a8578063e9fa88a4146102c6578063f4fefa49146102e25761010b565b8063900cf0cf1461020c5780639db59b2f1461022a5780639e30bac514610248578063ab33c5ca146102645761010b565b80635ee01540116100de5780635ee015401461019657806360961528146101b45780637486cdea146101d25780638001066d146101f05761010b565b80633a785af1146101105780633d6a46e5146101405780634dafa35e1461015c57806353a15edc1461017a575b600080fd5b61012a60048036038101906101259190611264565b6102fe565b60405161013791906113d7565b60405180910390f35b61015a6004803603810190610155919061120a565b6104d0565b005b610164610514565b60405161017191906113a1565b60405180910390f35b610194600480360381019061018f91906112cb565b610538565b005b61019e610542565b6040516101ab91906113d7565b60405180910390f35b6101bc610548565b6040516101c991906113bc565b60405180910390f35b6101da61056e565b6040516101e791906113d7565b60405180910390f35b61020a60048036038101906102059190611237565b610574565b005b61021461058c565b60405161022191906113f2565b60405180910390f35b610232610592565b60405161023f91906113d7565b60405180910390f35b610262600480360381019061025d919061120a565b610598565b005b61026c6105dc565b60405161027991906113bc565b60405180910390f35b61028a610602565b005b6102a660048036038101906102a191906111ca565b610b41565b005b6102b0610c57565b6040516102bd91906113f2565b60405180910390f35b6102e060048036038101906102db9190611237565b610c5d565b005b6102fc60048036038101906102f79190611237565b610c75565b005b600080610318866012600a6103139190611653565b610c8d565b9050600061033c6103298584610cd8565b6012600a6103379190611653565b610d40565b90506103566012600a61034f9190611653565b6064610cd8565b811315610378576103756012600a61036e9190611653565b6064610cd8565b90505b6103af6012600a6103899190611653565b7fffffffffffffffffffffffffffffffffffffffffffffffffffffffffffffff9c610cd8565b8112156103f0576103ed6012600a6103c79190611653565b7fffffffffffffffffffffffffffffffffffffffffffffffffffffffffffffff9c610cd8565b90505b6000610409826012600a6104049190611653565b610d93565b9050600081141561041f578693505050506104c8565b600061042b8789610c8d565b9050600061044f610449896012600a6104449190611653565b610cd8565b8a610d40565b905061047161046b826012600a6104669190611653565b610cd8565b84610d40565b9050600061048c6012600a6104869190611653565b83610c8d565b905060008a6104b16104ab866012600a6104a69190611653565b610cd8565b84610d40565b6104bb919061147b565b9050809750505050505050505b949350505050565b80600160006101000a81548173ffffffffffffffffffffffffffffffffffffffff021916908373ffffffffffffffffffffffffffffffffffffffff16021790555050565b60008054906101000a900473ffffffffffffffffffffffffffffffffffffffff1681565b8060048190555050565b60065481565b600260009054906101000a900473ffffffffffffffffffffffffffffffffffffffff1681565b60085481565b600081121561058257600080fd5b8060088190555050565b60055481565b60075481565b80600260006101000a81548173ffffffffffffffffffffffffffffffffffffffff021916908373ffffffffffffffffffffffffffffffffffffffff16021790555050565b600160009054906101000a900473ffffffffffffffffffffffffffffffffffffffff1681565b6001600554610611919061150f565b600581905550600080600160009054906101000a900473ffffffffffffffffffffffffffffffffffffffff1673ffffffffffffffffffffffffffffffffffffffff16633bc5de306040518163ffffffff1660e01b81526004016040805180830381600087803b15801561068357600080fd5b505af1158015610697573d6000803e3d6000fd5b505050506040513d601f19601f820116820180604052508101906106bb9190611325565b8092508193505050806106cd57600080fd5b60006106f16106e9846012600a6106e49190611653565b610efa565b600354610f3f565b9050600080600260009054906101000a900473ffffffffffffffffffffffffffffffffffffffff1673ffffffffffffffffffffffffffffffffffffffff16633bc5de306040518163ffffffff1660e01b81526004016040805180830381600087803b15801561075f57600080fd5b505af1158015610773573d6000803e3d6000fd5b505050506040513d601f19601f820116820180604052508101906107979190611325565b8092508193505050806107a957600080fd5b6012600a6107b79190611653565b620f42406107c59190611888565b8211156107eb576012600a6107da9190611653565b620f42406107e89190611888565b91505b60006107f78385610f67565b90506000811380156108f657506012600a6108129190611653565b620f42406108209190611888565b7f7fffffffffffffffffffffffffffffffffffffffffffffffffffffffffffffff61084b91906115cf565b8160008054906101000a900473ffffffffffffffffffffffffffffffffffffffff1673ffffffffffffffffffffffffffffffffffffffff166318160ddd6040518163ffffffff1660e01b815260040160206040518083038186803b1580156108b257600080fd5b505afa1580156108c6573d6000803e3d6000fd5b505050506040513d601f19601f820116820180604052508101906108ea91906112f8565b6108f4919061150f565b115b156109ed5760008054906101000a900473ffffffffffffffffffffffffffffffffffffffff1673ffffffffffffffffffffffffffffffffffffffff166318160ddd6040518163ffffffff1660e01b815260040160206040518083038186803b15801561096157600080fd5b505afa158015610975573d6000803e3d6000fd5b505050506040513d601f19601f8201168201806040525081019061099991906112f8565b6012600a6109a79190611653565b620f42406109b59190611888565b7f7fffffffffffffffffffffffffffffffffffffffffffffffffffffffffffffff6109e091906115cf565b6109ea9190611976565b90505b60008060009054906101000a900473ffffffffffffffffffffffffffffffffffffffff1673ffffffffffffffffffffffffffffffffffffffff16637a43e23f600554846040518363ffffffff1660e01b8152600401610a4d92919061140d565b602060405180830381600087803b158015610a6757600080fd5b505af1158015610a7b573d6000803e3d6000fd5b505050506040513d601f19601f82011682018060405250810190610a9f91906112f8565b90506012600a610aaf9190611653565b620f4240610abd9190611888565b7f7fffffffffffffffffffffffffffffffffffffffffffffffffffffffffffffff610ae891906115cf565b811115610af857610af7611afa565b5b6005547f41d948a7f29cc695f5d4b3ec147f766bffa165ddd317470fbe05c86d0a9c3e0485898542604051610b309493929190611436565b60405180910390a250505050505050565b60026012610b4f9190611976565b600a610b5b9190611653565b6005610b679190611888565b6004819055506012600a610b7b9190611653565b6003610b879190611888565b60088190555060026012610b9b9190611976565b600a610ba79190611653565b600a610bb39190611888565b60078190555060026012610bc79190611976565b600a610bd39190611653565b7ffffffffffffffffffffffffffffffffffffffffffffffffffffffffffffffff6610bfe9190611771565b6006819055506000600581905550816000806101000a81548173ffffffffffffffffffffffffffffffffffffffff021916908373ffffffffffffffffffffffffffffffffffffffff160217905550806003819055505050565b60045481565b6000811315610c6b57600080fd5b8060068190555050565b6000811215610c8357600080fd5b8060078190555050565b6000808284610c9c91906118e2565b905060008312158015610caf5750838113155b80610cc55750600083128015610cc457508381135b5b610cce57600080fd5b8091505092915050565b6000808284610ce79190611771565b905060ff6001901b81141580610d0b575060ff6001901b831660ff6001901b851614155b610d1457600080fd5b6000831480610d2d5750838382610d2b9190611565565b145b610d3657600080fd5b8091505092915050565b60007fffffffffffffffffffffffffffffffffffffffffffffffffffffffffffffffff82141580610d76575060ff6001901b8314155b610d7f57600080fd5b8183610d8b9190611565565b905092915050565b600080600090506000841215610db35760019050610db084611089565b93505b60006040518060a001604052806713a04bbdfdc9be898152602001671080e992061ab32b8152602001670f2243014e544ebb8152602001670e7e0178e9d6ed508152602001670e2e820ade835f4681525090506000610e128686610d40565b90506064811315610e2257600080fd5b6000610e32826001901b87610cd8565b90506000610e4988610e44858a610cd8565b610c8d565b90506000610e58886002610d40565b905060005b6005811015610ece57818312610eae57610e778383610c8d565b9250610eab610e9d85888460058110610e9357610e92611b87565b5b6020020151610cd8565b670de0b6b3a7640000610d40565b93505b610eb9826002610d40565b91508080610ec690611a68565b915050610e5d565b508515610eeb57610ee8610ee2898a610cd8565b84610d40565b92505b82965050505050505092915050565b600080831415610f0d5760009050610f39565b60008284610f1b9190611888565b9050828482610f2a91906115cf565b14610f3457600080fd5b809150505b92915050565b6000808211610f4d57600080fd5b60008284610f5b91906115cf565b90508091505092915050565b6000610f7383836110bd565b15610f815760009050611083565b60008290506000610fa8610fa2866012600a610f9d9190611653565b610cd8565b83610d40565b90506000610fbe826006546007546008546102fe565b905061107d61106a60008054906101000a900473ffffffffffffffffffffffffffffffffffffffff1673ffffffffffffffffffffffffffffffffffffffff166318160ddd6040518163ffffffff1660e01b815260040160206040518083038186803b15801561102c57600080fd5b505afa158015611040573d6000803e3d6000fd5b505050506040513d601f19601f8201168201806040525081019061106491906112f8565b83610cd8565b6012600a6110789190611653565b610d40565b93505050505b92915050565b600060ff6001901b82141561109d57600080fd5b600082126110ab57816110b6565b816110b590611ab1565b5b9050919050565b6000806110e26110cf84600454610efa565b6012600a6110dd9190611653565b610f3f565b90508284101580156110fc5750806110fa8585611123565b105b8061111a575082841080156111195750806111178486611123565b105b5b91505092915050565b60008282111561113257600080fd5b600082846111409190611976565b90508091505092915050565b60008151905061115b81611bc8565b92915050565b60008135905061117081611bdf565b92915050565b60008135905061118581611bf6565b92915050565b60008135905061119a81611c0d565b92915050565b6000813590506111af81611c24565b92915050565b6000815190506111c481611c24565b92915050565b600080604083850312156111e1576111e0611bb6565b5b60006111ef85828601611161565b9250506020611200858286016111a0565b9150509250929050565b6000602082840312156112205761121f611bb6565b5b600061122e84828501611176565b91505092915050565b60006020828403121561124d5761124c611bb6565b5b600061125b8482850161118b565b91505092915050565b6000806000806080858703121561127e5761127d611bb6565b5b600061128c8782880161118b565b945050602061129d8782880161118b565b93505060406112ae8782880161118b565b92505060606112bf8782880161118b565b91505092959194509250565b6000602082840312156112e1576112e0611bb6565b5b60006112ef848285016111a0565b91505092915050565b60006020828403121561130e5761130d611bb6565b5b600061131c848285016111b5565b91505092915050565b6000806040838503121561133c5761133b611bb6565b5b600061134a858286016111b5565b925050602061135b8582860161114c565b9150509250929050565b61136e81611a20565b82525050565b61137d81611a32565b82525050565b61138c816119ec565b82525050565b61139b81611a16565b82525050565b60006020820190506113b66000830184611365565b92915050565b60006020820190506113d16000830184611374565b92915050565b60006020820190506113ec6000830184611383565b92915050565b60006020820190506114076000830184611392565b92915050565b60006040820190506114226000830185611392565b61142f6020830184611383565b9392505050565b600060808201905061144b6000830187611392565b6114586020830186611392565b6114656040830185611383565b6114726060830184611392565b95945050505050565b6000611486826119ec565b9150611491836119ec565b9250817f7fffffffffffffffffffffffffffffffffffffffffffffffffffffffffffffff038313600083121516156114cc576114cb611b29565b5b817f800000000000000000000000000000000000000000000000000000000000000003831260008312161561150457611503611b29565b5b828201905092915050565b600061151a82611a16565b915061152583611a16565b9250827fffffffffffffffffffffffffffffffffffffffffffffffffffffffffffffffff0382111561155a57611559611b29565b5b828201905092915050565b6000611570826119ec565b915061157b836119ec565b92508261158b5761158a611b58565b5b600160000383147f8000000000000000000000000000000000000000000000000000000000000000831416156115c4576115c3611b29565b5b828205905092915050565b60006115da82611a16565b91506115e583611a16565b9250826115f5576115f4611b58565b5b828204905092915050565b6000808291508390505b600185111561164a5780860481111561162657611625611b29565b5b60018516156116355780820291505b808102905061164385611bbb565b945061160a565b94509492505050565b600061165e82611a16565b915061166983611a16565b92506116967fffffffffffffffffffffffffffffffffffffffffffffffffffffffffffffffff848461169e565b905092915050565b6000826116ae576001905061176a565b816116bc576000905061176a565b81600181146116d257600281146116dc5761170b565b600191505061176a565b60ff8411156116ee576116ed611b29565b5b8360020a91508482111561170557611704611b29565b5b5061176a565b5060208310610133831016604e8410600b84101617156117405782820a90508381111561173b5761173a611b29565b5b61176a565b61174d8484846001611600565b9250905081840481111561176457611763611b29565b5b81810290505b9392505050565b600061177c826119ec565b9150611787836119ec565b9250827f7fffffffffffffffffffffffffffffffffffffffffffffffffffffffffffffff04821160008413600084131616156117c6576117c5611b29565b5b817f8000000000000000000000000000000000000000000000000000000000000000058312600084126000841316161561180357611802611b29565b5b827f800000000000000000000000000000000000000000000000000000000000000005821260008413600084121616156118405761183f611b29565b5b827f7fffffffffffffffffffffffffffffffffffffffffffffffffffffffffffffff058212600084126000841216161561187d5761187c611b29565b5b828202905092915050565b600061189382611a16565b915061189e83611a16565b9250817fffffffffffffffffffffffffffffffffffffffffffffffffffffffffffffffff04831182151516156118d7576118d6611b29565b5b828202905092915050565b60006118ed826119ec565b91506118f8836119ec565b9250827f80000000000000000000000000000000000000000000000000000000000000000182126000841215161561193357611932611b29565b5b827f7fffffffffffffffffffffffffffffffffffffffffffffffffffffffffffffff01821360008412161561196b5761196a611b29565b5b828203905092915050565b600061198182611a16565b915061198c83611a16565b92508282101561199f5761199e611b29565b5b828203905092915050565b60006119b5826119f6565b9050919050565b60008115159050919050565b60006119d3826119aa565b9050919050565b60006119e5826119aa565b9050919050565b6000819050919050565b600073ffffffffffffffffffffffffffffffffffffffff82169050919050565b6000819050919050565b6000611a2b82611a44565b9050919050565b6000611a3d82611a44565b9050919050565b6000611a4f82611a56565b9050919050565b6000611a61826119f6565b9050919050565b6000611a7382611a16565b91507fffffffffffffffffffffffffffffffffffffffffffffffffffffffffffffffff821415611aa657611aa5611b29565b5b600182019050919050565b6000611abc826119ec565b91507f8000000000000000000000000000000000000000000000000000000000000000821415611aef57611aee611b29565b5b816000039050919050565b7f4e487b7100000000000000000000000000000000000000000000000000000000600052600160045260246000fd5b7f4e487b7100000000000000000000000000000000000000000000000000000000600052601160045260246000fd5b7f4e487b7100000000000000000000000000000000000000000000000000000000600052601260045260246000fd5b7f4e487b7100000000000000000000000000000000000000000000000000000000600052603260045260246000fd5b600080fd5b60008160011c9050919050565b611bd1816119bc565b8114611bdc57600080fd5b50565b611be8816119c8565b8114611bf357600080fd5b50565b611bff816119da565b8114611c0a57600080fd5b50565b611c16816119ec565b8114611c2157600080fd5b50565b611c2d81611a16565b8114611c3857600080fd5b5056fea2646970667358221220a268477565d2245838e11e38b3e54a7fda01963ec568880ddab160fea849878f64736f6c63430008070033",
			"opcodes": "PUSH1 0x80 PUSH1 0x40 MSTORE CALLVALUE DUP1 ISZERO PUSH2 0x10 JUMPI PUSH1 0x0 DUP1 REVERT JUMPDEST POP PUSH2 0x1C71 DUP1 PUSH2 0x20 PUSH1 0x0 CODECOPY PUSH1 0x0 RETURN INVALID PUSH1 0x80 PUSH1 0x40 MSTORE CALLVALUE DUP1 ISZERO PUSH2 0x10 JUMPI PUSH1 0x0 DUP1 REVERT JUMPDEST POP PUSH1 0x4 CALLDATASIZE LT PUSH2 0x10B JUMPI PUSH1 0x0 CALLDATALOAD PUSH1 0xE0 SHR DUP1 PUSH4 0x900CF0CF GT PUSH2 0xA2 JUMPI DUP1 PUSH4 0xAF14052C GT PUSH2 0x71 JUMPI DUP1 PUSH4 0xAF14052C EQ PUSH2 0x282 JUMPI DUP1 PUSH4 0xCD6DC687 EQ PUSH2 0x28C JUMPI DUP1 PUSH4 0xD94AD837 EQ PUSH2 0x2A8 JUMPI DUP1 PUSH4 0xE9FA88A4 EQ PUSH2 0x2C6 JUMPI DUP1 PUSH4 0xF4FEFA49 EQ PUSH2 0x2E2 JUMPI PUSH2 0x10B JUMP JUMPDEST DUP1 PUSH4 0x900CF0CF EQ PUSH2 0x20C JUMPI DUP1 PUSH4 0x9DB59B2F EQ PUSH2 0x22A JUMPI DUP1 PUSH4 0x9E30BAC5 EQ PUSH2 0x248 JUMPI DUP1 PUSH4 0xAB33C5CA EQ PUSH2 0x264 JUMPI PUSH2 0x10B JUMP JUMPDEST DUP1 PUSH4 0x5EE01540 GT PUSH2 0xDE JUMPI DUP1 PUSH4 0x5EE01540 EQ PUSH2 0x196 JUMPI DUP1 PUSH4 0x60961528 EQ PUSH2 0x1B4 JUMPI DUP1 PUSH4 0x7486CDEA EQ PUSH2 0x1D2 JUMPI DUP1 PUSH4 0x8001066D EQ PUSH2 0x1F0 JUMPI PUSH2 0x10B JUMP JUMPDEST DUP1 PUSH4 0x3A785AF1 EQ PUSH2 0x110 JUMPI DUP1 PUSH4 0x3D6A46E5 EQ PUSH2 0x140 JUMPI DUP1 PUSH4 0x4DAFA35E EQ PUSH2 0x15C JUMPI DUP1 PUSH4 0x53A15EDC EQ PUSH2 0x17A JUMPI JUMPDEST PUSH1 0x0 DUP1 REVERT JUMPDEST PUSH2 0x12A PUSH1 0x4 DUP1 CALLDATASIZE SUB DUP2 ADD SWAP1 PUSH2 0x125 SWAP2 SWAP1 PUSH2 0x1264 JUMP JUMPDEST PUSH2 0x2FE JUMP JUMPDEST PUSH1 0x40 MLOAD PUSH2 0x137 SWAP2 SWAP1 PUSH2 0x13D7 JUMP JUMPDEST PUSH1 0x40 MLOAD DUP1 SWAP2 SUB SWAP1 RETURN JUMPDEST PUSH2 0x15A PUSH1 0x4 DUP1 CALLDATASIZE SUB DUP2 ADD SWAP1 PUSH2 0x155 SWAP2 SWAP1 PUSH2 0x120A JUMP JUMPDEST PUSH2 0x4D0 JUMP JUMPDEST STOP JUMPDEST PUSH2 0x164 PUSH2 0x514 JUMP JUMPDEST PUSH1 0x40 MLOAD PUSH2 0x171 SWAP2 SWAP1 PUSH2 0x13A1 JUMP JUMPDEST PUSH1 0x40 MLOAD DUP1 SWAP2 SUB SWAP1 RETURN JUMPDEST PUSH2 0x194 PUSH1 0x4 DUP1 CALLDATASIZE SUB DUP2 ADD SWAP1 PUSH2 0x18F SWAP2 SWAP1 PUSH2 0x12CB JUMP JUMPDEST PUSH2 0x538 JUMP JUMPDEST STOP JUMPDEST PUSH2 0x19E PUSH2 0x542 JUMP JUMPDEST PUSH1 0x40 MLOAD PUSH2 0x1AB SWAP2 SWAP1 PUSH2 0x13D7 JUMP JUMPDEST PUSH1 0x40 MLOAD DUP1 SWAP2 SUB SWAP1 RETURN JUMPDEST PUSH2 0x1BC PUSH2 0x548 JUMP JUMPDEST PUSH1 0x40 MLOAD PUSH2 0x1C9 SWAP2 SWAP1 PUSH2 0x13BC JUMP JUMPDEST PUSH1 0x40 MLOAD DUP1 SWAP2 SUB SWAP1 RETURN JUMPDEST PUSH2 0x1DA PUSH2 0x56E JUMP JUMPDEST PUSH1 0x40 MLOAD PUSH2 0x1E7 SWAP2 SWAP1 PUSH2 0x13D7 JUMP JUMPDEST PUSH1 0x40 MLOAD DUP1 SWAP2 SUB SWAP1 RETURN JUMPDEST PUSH2 0x20A PUSH1 0x4 DUP1 CALLDATASIZE SUB DUP2 ADD SWAP1 PUSH2 0x205 SWAP2 SWAP1 PUSH2 0x1237 JUMP JUMPDEST PUSH2 0x574 JUMP JUMPDEST STOP JUMPDEST PUSH2 0x214 PUSH2 0x58C JUMP JUMPDEST PUSH1 0x40 MLOAD PUSH2 0x221 SWAP2 SWAP1 PUSH2 0x13F2 JUMP JUMPDEST PUSH1 0x40 MLOAD DUP1 SWAP2 SUB SWAP1 RETURN JUMPDEST PUSH2 0x232 PUSH2 0x592 JUMP JUMPDEST PUSH1 0x40 MLOAD PUSH2 0x23F SWAP2 SWAP1 PUSH2 0x13D7 JUMP JUMPDEST PUSH1 0x40 MLOAD DUP1 SWAP2 SUB SWAP1 RETURN JUMPDEST PUSH2 0x262 PUSH1 0x4 DUP1 CALLDATASIZE SUB DUP2 ADD SWAP1 PUSH2 0x25D SWAP2 SWAP1 PUSH2 0x120A JUMP JUMPDEST PUSH2 0x598 JUMP JUMPDEST STOP JUMPDEST PUSH2 0x26C PUSH2 0x5DC JUMP JUMPDEST PUSH1 0x40 MLOAD PUSH2 0x279 SWAP2 SWAP1 PUSH2 0x13BC JUMP JUMPDEST PUSH1 0x40 MLOAD DUP1 SWAP2 SUB SWAP1 RETURN JUMPDEST PUSH2 0x28A PUSH2 0x602 JUMP JUMPDEST STOP JUMPDEST PUSH2 0x2A6 PUSH1 0x4 DUP1 CALLDATASIZE SUB DUP2 ADD SWAP1 PUSH2 0x2A1 SWAP2 SWAP1 PUSH2 0x11CA JUMP JUMPDEST PUSH2 0xB41 JUMP JUMPDEST STOP JUMPDEST PUSH2 0x2B0 PUSH2 0xC57 JUMP JUMPDEST PUSH1 0x40 MLOAD PUSH2 0x2BD SWAP2 SWAP1 PUSH2 0x13F2 JUMP JUMPDEST PUSH1 0x40 MLOAD DUP1 SWAP2 SUB SWAP1 RETURN JUMPDEST PUSH2 0x2E0 PUSH1 0x4 DUP1 CALLDATASIZE SUB DUP2 ADD SWAP1 PUSH2 0x2DB SWAP2 SWAP1 PUSH2 0x1237 JUMP JUMPDEST PUSH2 0xC5D JUMP JUMPDEST STOP JUMPDEST PUSH2 0x2FC PUSH1 0x4 DUP1 CALLDATASIZE SUB DUP2 ADD SWAP1 PUSH2 0x2F7 SWAP2 SWAP1 PUSH2 0x1237 JUMP JUMPDEST PUSH2 0xC75 JUMP JUMPDEST STOP JUMPDEST PUSH1 0x0 DUP1 PUSH2 0x318 DUP7 PUSH1 0x12 PUSH1 0xA PUSH2 0x313 SWAP2 SWAP1 PUSH2 0x1653 JUMP JUMPDEST PUSH2 0xC8D JUMP JUMPDEST SWAP1 POP PUSH1 0x0 PUSH2 0x33C PUSH2 0x329 DUP6 DUP5 PUSH2 0xCD8 JUMP JUMPDEST PUSH1 0x12 PUSH1 0xA PUSH2 0x337 SWAP2 SWAP1 PUSH2 0x1653 JUMP JUMPDEST PUSH2 0xD40 JUMP JUMPDEST SWAP1 POP PUSH2 0x356 PUSH1 0x12 PUSH1 0xA PUSH2 0x34F SWAP2 SWAP1 PUSH2 0x1653 JUMP JUMPDEST PUSH1 0x64 PUSH2 0xCD8 JUMP JUMPDEST DUP2 SGT ISZERO PUSH2 0x378 JUMPI PUSH2 0x375 PUSH1 0x12 PUSH1 0xA PUSH2 0x36E SWAP2 SWAP1 PUSH2 0x1653 JUMP JUMPDEST PUSH1 0x64 PUSH2 0xCD8 JUMP JUMPDEST SWAP1 POP JUMPDEST PUSH2 0x3AF PUSH1 0x12 PUSH1 0xA PUSH2 0x389 SWAP2 SWAP1 PUSH2 0x1653 JUMP JUMPDEST PUSH32 0xFFFFFFFFFFFFFFFFFFFFFFFFFFFFFFFFFFFFFFFFFFFFFFFFFFFFFFFFFFFFFF9C PUSH2 0xCD8 JUMP JUMPDEST DUP2 SLT ISZERO PUSH2 0x3F0 JUMPI PUSH2 0x3ED PUSH1 0x12 PUSH1 0xA PUSH2 0x3C7 SWAP2 SWAP1 PUSH2 0x1653 JUMP JUMPDEST PUSH32 0xFFFFFFFFFFFFFFFFFFFFFFFFFFFFFFFFFFFFFFFFFFFFFFFFFFFFFFFFFFFFFF9C PUSH2 0xCD8 JUMP JUMPDEST SWAP1 POP JUMPDEST PUSH1 0x0 PUSH2 0x409 DUP3 PUSH1 0x12 PUSH1 0xA PUSH2 0x404 SWAP2 SWAP1 PUSH2 0x1653 JUMP JUMPDEST PUSH2 0xD93 JUMP JUMPDEST SWAP1 POP PUSH1 0x0 DUP2 EQ ISZERO PUSH2 0x41F JUMPI DUP7 SWAP4 POP POP POP POP PUSH2 0x4C8 JUMP JUMPDEST PUSH1 0x0 PUSH2 0x42B DUP8 DUP10 PUSH2 0xC8D JUMP JUMPDEST SWAP1 POP PUSH1 0x0 PUSH2 0x44F PUSH2 0x449 DUP10 PUSH1 0x12 PUSH1 0xA PUSH2 0x444 SWAP2 SWAP1 PUSH2 0x1653 JUMP JUMPDEST PUSH2 0xCD8 JUMP JUMPDEST DUP11 PUSH2 0xD40 JUMP JUMPDEST SWAP1 POP PUSH2 0x471 PUSH2 0x46B DUP3 PUSH1 0x12 PUSH1 0xA PUSH2 0x466 SWAP2 SWAP1 PUSH2 0x1653 JUMP JUMPDEST PUSH2 0xCD8 JUMP JUMPDEST DUP5 PUSH2 0xD40 JUMP JUMPDEST SWAP1 POP PUSH1 0x0 PUSH2 0x48C PUSH1 0x12 PUSH1 0xA PUSH2 0x486 SWAP2 SWAP1 PUSH2 0x1653 JUMP JUMPDEST DUP4 PUSH2 0xC8D JUMP JUMPDEST SWAP1 POP PUSH1 0x0 DUP11 PUSH2 0x4B1 PUSH2 0x4AB DUP7 PUSH1 0x12 PUSH1 0xA PUSH2 0x4A6 SWAP2 SWAP1 PUSH2 0x1653 JUMP JUMPDEST PUSH2 0xCD8 JUMP JUMPDEST DUP5 PUSH2 0xD40 JUMP JUMPDEST PUSH2 0x4BB SWAP2 SWAP1 PUSH2 0x147B JUMP JUMPDEST SWAP1 POP DUP1 SWAP8 POP POP POP POP POP POP POP POP JUMPDEST SWAP5 SWAP4 POP POP POP POP JUMP JUMPDEST DUP1 PUSH1 0x1 PUSH1 0x0 PUSH2 0x100 EXP DUP2 SLOAD DUP2 PUSH20 0xFFFFFFFFFFFFFFFFFFFFFFFFFFFFFFFFFFFFFFFF MUL NOT AND SWAP1 DUP4 PUSH20 0xFFFFFFFFFFFFFFFFFFFFFFFFFFFFFFFFFFFFFFFF AND MUL OR SWAP1 SSTORE POP POP JUMP JUMPDEST PUSH1 0x0 DUP1 SLOAD SWAP1 PUSH2 0x100 EXP SWAP1 DIV PUSH20 0xFFFFFFFFFFFFFFFFFFFFFFFFFFFFFFFFFFFFFFFF AND DUP2 JUMP JUMPDEST DUP1 PUSH1 0x4 DUP2 SWAP1 SSTORE POP POP JUMP JUMPDEST PUSH1 0x6 SLOAD DUP2 JUMP JUMPDEST PUSH1 0x2 PUSH1 0x0 SWAP1 SLOAD SWAP1 PUSH2 0x100 EXP SWAP1 DIV PUSH20 0xFFFFFFFFFFFFFFFFFFFFFFFFFFFFFFFFFFFFFFFF AND DUP2 JUMP JUMPDEST PUSH1 0x8 SLOAD DUP2 JUMP JUMPDEST PUSH1 0x0 DUP2 SLT ISZERO PUSH2 0x582 JUMPI PUSH1 0x0 DUP1 REVERT JUMPDEST DUP1 PUSH1 0x8 DUP2 SWAP1 SSTORE POP POP JUMP JUMPDEST PUSH1 0x5 SLOAD DUP2 JUMP JUMPDEST PUSH1 0x7 SLOAD DUP2 JUMP JUMPDEST DUP1 PUSH1 0x2 PUSH1 0x0 PUSH2 0x100 EXP DUP2 SLOAD DUP2 PUSH20 0xFFFFFFFFFFFFFFFFFFFFFFFFFFFFFFFFFFFFFFFF MUL NOT AND SWAP1 DUP4 PUSH20 0xFFFFFFFFFFFFFFFFFFFFFFFFFFFFFFFFFFFFFFFF AND MUL OR SWAP1 SSTORE POP POP JUMP JUMPDEST PUSH1 0x1 PUSH1 0x0 SWAP1 SLOAD SWAP1 PUSH2 0x100 EXP SWAP1 DIV PUSH20 0xFFFFFFFFFFFFFFFFFFFFFFFFFFFFFFFFFFFFFFFF AND DUP2 JUMP JUMPDEST PUSH1 0x1 PUSH1 0x5 SLOAD PUSH2 0x611 SWAP2 SWAP1 PUSH2 0x150F JUMP JUMPDEST PUSH1 0x5 DUP2 SWAP1 SSTORE POP PUSH1 0x0 DUP1 PUSH1 0x1 PUSH1 0x0 SWAP1 SLOAD SWAP1 PUSH2 0x100 EXP SWAP1 DIV PUSH20 0xFFFFFFFFFFFFFFFFFFFFFFFFFFFFFFFFFFFFFFFF AND PUSH20 0xFFFFFFFFFFFFFFFFFFFFFFFFFFFFFFFFFFFFFFFF AND PUSH4 0x3BC5DE30 PUSH1 0x40 MLOAD DUP2 PUSH4 0xFFFFFFFF AND PUSH1 0xE0 SHL DUP2 MSTORE PUSH1 0x4 ADD PUSH1 0x40 DUP1 MLOAD DUP1 DUP4 SUB DUP2 PUSH1 0x0 DUP8 DUP1 EXTCODESIZE ISZERO DUP1 ISZERO PUSH2 0x683 JUMPI PUSH1 0x0 DUP1 REVERT JUMPDEST POP GAS CALL ISZERO DUP1 ISZERO PUSH2 0x697 JUMPI RETURNDATASIZE PUSH1 0x0 DUP1 RETURNDATACOPY RETURNDATASIZE PUSH1 0x0 REVERT JUMPDEST POP POP POP POP PUSH1 0x40 MLOAD RETURNDATASIZE PUSH1 0x1F NOT PUSH1 0x1F DUP3 ADD AND DUP3 ADD DUP1 PUSH1 0x40 MSTORE POP DUP2 ADD SWAP1 PUSH2 0x6BB SWAP2 SWAP1 PUSH2 0x1325 JUMP JUMPDEST DUP1 SWAP3 POP DUP2 SWAP4 POP POP POP DUP1 PUSH2 0x6CD JUMPI PUSH1 0x0 DUP1 REVERT JUMPDEST PUSH1 0x0 PUSH2 0x6F1 PUSH2 0x6E9 DUP5 PUSH1 0x12 PUSH1 0xA PUSH2 0x6E4 SWAP2 SWAP1 PUSH2 0x1653 JUMP JUMPDEST PUSH2 0xEFA JUMP JUMPDEST PUSH1 0x3 SLOAD PUSH2 0xF3F JUMP JUMPDEST SWAP1 POP PUSH1 0x0 DUP1 PUSH1 0x2 PUSH1 0x0 SWAP1 SLOAD SWAP1 PUSH2 0x100 EXP SWAP1 DIV PUSH20 0xFFFFFFFFFFFFFFFFFFFFFFFFFFFFFFFFFFFFFFFF AND PUSH20 0xFFFFFFFFFFFFFFFFFFFFFFFFFFFFFFFFFFFFFFFF AND PUSH4 0x3BC5DE30 PUSH1 0x40 MLOAD DUP2 PUSH4 0xFFFFFFFF AND PUSH1 0xE0 SHL DUP2 MSTORE PUSH1 0x4 ADD PUSH1 0x40 DUP1 MLOAD DUP1 DUP4 SUB DUP2 PUSH1 0x0 DUP8 DUP1 EXTCODESIZE ISZERO DUP1 ISZERO PUSH2 0x75F JUMPI PUSH1 0x0 DUP1 REVERT JUMPDEST POP GAS CALL ISZERO DUP1 ISZERO PUSH2 0x773 JUMPI RETURNDATASIZE PUSH1 0x0 DUP1 RETURNDATACOPY RETURNDATASIZE PUSH1 0x0 REVERT JUMPDEST POP POP POP POP PUSH1 0x40 MLOAD RETURNDATASIZE PUSH1 0x1F NOT PUSH1 0x1F DUP3 ADD AND DUP3 ADD DUP1 PUSH1 0x40 MSTORE POP DUP2 ADD SWAP1 PUSH2 0x797 SWAP2 SWAP1 PUSH2 0x1325 JUMP JUMPDEST DUP1 SWAP3 POP DUP2 SWAP4 POP POP POP DUP1 PUSH2 0x7A9 JUMPI PUSH1 0x0 DUP1 REVERT JUMPDEST PUSH1 0x12 PUSH1 0xA PUSH2 0x7B7 SWAP2 SWAP1 PUSH2 0x1653 JUMP JUMPDEST PUSH3 0xF4240 PUSH2 0x7C5 SWAP2 SWAP1 PUSH2 0x1888 JUMP JUMPDEST DUP3 GT ISZERO PUSH2 0x7EB JUMPI PUSH1 0x12 PUSH1 0xA PUSH2 0x7DA SWAP2 SWAP1 PUSH2 0x1653 JUMP JUMPDEST PUSH3 0xF4240 PUSH2 0x7E8 SWAP2 SWAP1 PUSH2 0x1888 JUMP JUMPDEST SWAP2 POP JUMPDEST PUSH1 0x0 PUSH2 0x7F7 DUP4 DUP6 PUSH2 0xF67 JUMP JUMPDEST SWAP1 POP PUSH1 0x0 DUP2 SGT DUP1 ISZERO PUSH2 0x8F6 JUMPI POP PUSH1 0x12 PUSH1 0xA PUSH2 0x812 SWAP2 SWAP1 PUSH2 0x1653 JUMP JUMPDEST PUSH3 0xF4240 PUSH2 0x820 SWAP2 SWAP1 PUSH2 0x1888 JUMP JUMPDEST PUSH32 0x7FFFFFFFFFFFFFFFFFFFFFFFFFFFFFFFFFFFFFFFFFFFFFFFFFFFFFFFFFFFFFFF PUSH2 0x84B SWAP2 SWAP1 PUSH2 0x15CF JUMP JUMPDEST DUP2 PUSH1 0x0 DUP1 SLOAD SWAP1 PUSH2 0x100 EXP SWAP1 DIV PUSH20 0xFFFFFFFFFFFFFFFFFFFFFFFFFFFFFFFFFFFFFFFF AND PUSH20 0xFFFFFFFFFFFFFFFFFFFFFFFFFFFFFFFFFFFFFFFF AND PUSH4 0x18160DDD PUSH1 0x40 MLOAD DUP2 PUSH4 0xFFFFFFFF AND PUSH1 0xE0 SHL DUP2 MSTORE PUSH1 0x4 ADD PUSH1 0x20 PUSH1 0x40 MLOAD DUP1 DUP4 SUB DUP2 DUP7 DUP1 EXTCODESIZE ISZERO DUP1 ISZERO PUSH2 0x8B2 JUMPI PUSH1 0x0 DUP1 REVERT JUMPDEST POP GAS STATICCALL ISZERO DUP1 ISZERO PUSH2 0x8C6 JUMPI RETURNDATASIZE PUSH1 0x0 DUP1 RETURNDATACOPY RETURNDATASIZE PUSH1 0x0 REVERT JUMPDEST POP POP POP POP PUSH1 0x40 MLOAD RETURNDATASIZE PUSH1 0x1F NOT PUSH1 0x1F DUP3 ADD AND DUP3 ADD DUP1 PUSH1 0x40 MSTORE POP DUP2 ADD SWAP1 PUSH2 0x8EA SWAP2 SWAP1 PUSH2 0x12F8 JUMP JUMPDEST PUSH2 0x8F4 SWAP2 SWAP1 PUSH2 0x150F JUMP JUMPDEST GT JUMPDEST ISZERO PUSH2 0x9ED JUMPI PUSH1 0x0 DUP1 SLOAD SWAP1 PUSH2 0x100 EXP SWAP1 DIV PUSH20 0xFFFFFFFFFFFFFFFFFFFFFFFFFFFFFFFFFFFFFFFF AND PUSH20 0xFFFFFFFFFFFFFFFFFFFFFFFFFFFFFFFFFFFFFFFF AND PUSH4 0x18160DDD PUSH1 0x40 MLOAD DUP2 PUSH4 0xFFFFFFFF AND PUSH1 0xE0 SHL DUP2 MSTORE PUSH1 0x4 ADD PUSH1 0x20 PUSH1 0x40 MLOAD DUP1 DUP4 SUB DUP2 DUP7 DUP1 EXTCODESIZE ISZERO DUP1 ISZERO PUSH2 0x961 JUMPI PUSH1 0x0 DUP1 REVERT JUMPDEST POP GAS STATICCALL ISZERO DUP1 ISZERO PUSH2 0x975 JUMPI RETURNDATASIZE PUSH1 0x0 DUP1 RETURNDATACOPY RETURNDATASIZE PUSH1 0x0 REVERT JUMPDEST POP POP POP POP PUSH1 0x40 MLOAD RETURNDATASIZE PUSH1 0x1F NOT PUSH1 0x1F DUP3 ADD AND DUP3 ADD DUP1 PUSH1 0x40 MSTORE POP DUP2 ADD SWAP1 PUSH2 0x999 SWAP2 SWAP1 PUSH2 0x12F8 JUMP JUMPDEST PUSH1 0x12 PUSH1 0xA PUSH2 0x9A7 SWAP2 SWAP1 PUSH2 0x1653 JUMP JUMPDEST PUSH3 0xF4240 PUSH2 0x9B5 SWAP2 SWAP1 PUSH2 0x1888 JUMP JUMPDEST PUSH32 0x7FFFFFFFFFFFFFFFFFFFFFFFFFFFFFFFFFFFFFFFFFFFFFFFFFFFFFFFFFFFFFFF PUSH2 0x9E0 SWAP2 SWAP1 PUSH2 0x15CF JUMP JUMPDEST PUSH2 0x9EA SWAP2 SWAP1 PUSH2 0x1976 JUMP JUMPDEST SWAP1 POP JUMPDEST PUSH1 0x0 DUP1 PUSH1 0x0 SWAP1 SLOAD SWAP1 PUSH2 0x100 EXP SWAP1 DIV PUSH20 0xFFFFFFFFFFFFFFFFFFFFFFFFFFFFFFFFFFFFFFFF AND PUSH20 0xFFFFFFFFFFFFFFFFFFFFFFFFFFFFFFFFFFFFFFFF AND PUSH4 0x7A43E23F PUSH1 0x5 SLOAD DUP5 PUSH1 0x40 MLOAD DUP4 PUSH4 0xFFFFFFFF AND PUSH1 0xE0 SHL DUP2 MSTORE PUSH1 0x4 ADD PUSH2 0xA4D SWAP3 SWAP2 SWAP1 PUSH2 0x140D JUMP JUMPDEST PUSH1 0x20 PUSH1 0x40 MLOAD DUP1 DUP4 SUB DUP2 PUSH1 0x0 DUP8 DUP1 EXTCODESIZE ISZERO DUP1 ISZERO PUSH2 0xA67 JUMPI PUSH1 0x0 DUP1 REVERT JUMPDEST POP GAS CALL ISZERO DUP1 ISZERO PUSH2 0xA7B JUMPI RETURNDATASIZE PUSH1 0x0 DUP1 RETURNDATACOPY RETURNDATASIZE PUSH1 0x0 REVERT JUMPDEST POP POP POP POP PUSH1 0x40 MLOAD RETURNDATASIZE PUSH1 0x1F NOT PUSH1 0x1F DUP3 ADD AND DUP3 ADD DUP1 PUSH1 0x40 MSTORE POP DUP2 ADD SWAP1 PUSH2 0xA9F SWAP2 SWAP1 PUSH2 0x12F8 JUMP JUMPDEST SWAP1 POP PUSH1 0x12 PUSH1 0xA PUSH2 0xAAF SWAP2 SWAP1 PUSH2 0x1653 JUMP JUMPDEST PUSH3 0xF4240 PUSH2 0xABD SWAP2 SWAP1 PUSH2 0x1888 JUMP JUMPDEST PUSH32 0x7FFFFFFFFFFFFFFFFFFFFFFFFFFFFFFFFFFFFFFFFFFFFFFFFFFFFFFFFFFFFFFF PUSH2 0xAE8 SWAP2 SWAP1 PUSH2 0x15CF JUMP JUMPDEST DUP2 GT ISZERO PUSH2 0xAF8 JUMPI PUSH2 0xAF7 PUSH2 0x1AFA JUMP JUMPDEST JUMPDEST PUSH1 0x5 SLOAD PUSH32 0x41D948A7F29CC695F5D4B3EC147F766BFFA165DDD317470FBE05C86D0A9C3E04 DUP6 DUP10 DUP6 TIMESTAMP PUSH1 0x40 MLOAD PUSH2 0xB30 SWAP5 SWAP4 SWAP3 SWAP2 SWAP1 PUSH2 0x1436 JUMP JUMPDEST PUSH1 0x40 MLOAD DUP1 SWAP2 SUB SWAP1 LOG2 POP POP POP POP POP POP POP JUMP JUMPDEST PUSH1 0x2 PUSH1 0x12 PUSH2 0xB4F SWAP2 SWAP1 PUSH2 0x1976 JUMP JUMPDEST PUSH1 0xA PUSH2 0xB5B SWAP2 SWAP1 PUSH2 0x1653 JUMP JUMPDEST PUSH1 0x5 PUSH2 0xB67 SWAP2 SWAP1 PUSH2 0x1888 JUMP JUMPDEST PUSH1 0x4 DUP2 SWAP1 SSTORE POP PUSH1 0x12 PUSH1 0xA PUSH2 0xB7B SWAP2 SWAP1 PUSH2 0x1653 JUMP JUMPDEST PUSH1 0x3 PUSH2 0xB87 SWAP2 SWAP1 PUSH2 0x1888 JUMP JUMPDEST PUSH1 0x8 DUP2 SWAP1 SSTORE POP PUSH1 0x2 PUSH1 0x12 PUSH2 0xB9B SWAP2 SWAP1 PUSH2 0x1976 JUMP JUMPDEST PUSH1 0xA PUSH2 0xBA7 SWAP2 SWAP1 PUSH2 0x1653 JUMP JUMPDEST PUSH1 0xA PUSH2 0xBB3 SWAP2 SWAP1 PUSH2 0x1888 JUMP JUMPDEST PUSH1 0x7 DUP2 SWAP1 SSTORE POP PUSH1 0x2 PUSH1 0x12 PUSH2 0xBC7 SWAP2 SWAP1 PUSH2 0x1976 JUMP JUMPDEST PUSH1 0xA PUSH2 0xBD3 SWAP2 SWAP1 PUSH2 0x1653 JUMP JUMPDEST PUSH32 0xFFFFFFFFFFFFFFFFFFFFFFFFFFFFFFFFFFFFFFFFFFFFFFFFFFFFFFFFFFFFFFF6 PUSH2 0xBFE SWAP2 SWAP1 PUSH2 0x1771 JUMP JUMPDEST PUSH1 0x6 DUP2 SWAP1 SSTORE POP PUSH1 0x0 PUSH1 0x5 DUP2 SWAP1 SSTORE POP DUP2 PUSH1 0x0 DUP1 PUSH2 0x100 EXP DUP2 SLOAD DUP2 PUSH20 0xFFFFFFFFFFFFFFFFFFFFFFFFFFFFFFFFFFFFFFFF MUL NOT AND SWAP1 DUP4 PUSH20 0xFFFFFFFFFFFFFFFFFFFFFFFFFFFFFFFFFFFFFFFF AND MUL OR SWAP1 SSTORE POP DUP1 PUSH1 0x3 DUP2 SWAP1 SSTORE POP POP POP JUMP JUMPDEST PUSH1 0x4 SLOAD DUP2 JUMP JUMPDEST PUSH1 0x0 DUP2 SGT ISZERO PUSH2 0xC6B JUMPI PUSH1 0x0 DUP1 REVERT JUMPDEST DUP1 PUSH1 0x6 DUP2 SWAP1 SSTORE POP POP JUMP JUMPDEST PUSH1 0x0 DUP2 SLT ISZERO PUSH2 0xC83 JUMPI PUSH1 0x0 DUP1 REVERT JUMPDEST DUP1 PUSH1 0x7 DUP2 SWAP1 SSTORE POP POP JUMP JUMPDEST PUSH1 0x0 DUP1 DUP3 DUP5 PUSH2 0xC9C SWAP2 SWAP1 PUSH2 0x18E2 JUMP JUMPDEST SWAP1 POP PUSH1 0x0 DUP4 SLT ISZERO DUP1 ISZERO PUSH2 0xCAF JUMPI POP DUP4 DUP2 SGT ISZERO JUMPDEST DUP1 PUSH2 0xCC5 JUMPI POP PUSH1 0x0 DUP4 SLT DUP1 ISZERO PUSH2 0xCC4 JUMPI POP DUP4 DUP2 SGT JUMPDEST JUMPDEST PUSH2 0xCCE JUMPI PUSH1 0x0 DUP1 REVERT JUMPDEST DUP1 SWAP2 POP POP SWAP3 SWAP2 POP POP JUMP JUMPDEST PUSH1 0x0 DUP1 DUP3 DUP5 PUSH2 0xCE7 SWAP2 SWAP1 PUSH2 0x1771 JUMP JUMPDEST SWAP1 POP PUSH1 0xFF PUSH1 0x1 SWAP1 SHL DUP2 EQ ISZERO DUP1 PUSH2 0xD0B JUMPI POP PUSH1 0xFF PUSH1 0x1 SWAP1 SHL DUP4 AND PUSH1 0xFF PUSH1 0x1 SWAP1 SHL DUP6 AND EQ ISZERO JUMPDEST PUSH2 0xD14 JUMPI PUSH1 0x0 DUP1 REVERT JUMPDEST PUSH1 0x0 DUP4 EQ DUP1 PUSH2 0xD2D JUMPI POP DUP4 DUP4 DUP3 PUSH2 0xD2B SWAP2 SWAP1 PUSH2 0x1565 JUMP JUMPDEST EQ JUMPDEST PUSH2 0xD36 JUMPI PUSH1 0x0 DUP1 REVERT JUMPDEST DUP1 SWAP2 POP POP SWAP3 SWAP2 POP POP JUMP JUMPDEST PUSH1 0x0 PUSH32 0xFFFFFFFFFFFFFFFFFFFFFFFFFFFFFFFFFFFFFFFFFFFFFFFFFFFFFFFFFFFFFFFF DUP3 EQ ISZERO DUP1 PUSH2 0xD76 JUMPI POP PUSH1 0xFF PUSH1 0x1 SWAP1 SHL DUP4 EQ ISZERO JUMPDEST PUSH2 0xD7F JUMPI PUSH1 0x0 DUP1 REVERT JUMPDEST DUP2 DUP4 PUSH2 0xD8B SWAP2 SWAP1 PUSH2 0x1565 JUMP JUMPDEST SWAP1 POP SWAP3 SWAP2 POP POP JUMP JUMPDEST PUSH1 0x0 DUP1 PUSH1 0x0 SWAP1 POP PUSH1 0x0 DUP5 SLT ISZERO PUSH2 0xDB3 JUMPI PUSH1 0x1 SWAP1 POP PUSH2 0xDB0 DUP5 PUSH2 0x1089 JUMP JUMPDEST SWAP4 POP JUMPDEST PUSH1 0x0 PUSH1 0x40 MLOAD DUP1 PUSH1 0xA0 ADD PUSH1 0x40 MSTORE DUP1 PUSH8 0x13A04BBDFDC9BE89 DUP2 MSTORE PUSH1 0x20 ADD PUSH8 0x1080E992061AB32B DUP2 MSTORE PUSH1 0x20 ADD PUSH8 0xF2243014E544EBB DUP2 MSTORE PUSH1 0x20 ADD PUSH8 0xE7E0178E9D6ED50 DUP2 MSTORE PUSH1 0x20 ADD PUSH8 0xE2E820ADE835F46 DUP2 MSTORE POP SWAP1 POP PUSH1 0x0 PUSH2 0xE12 DUP7 DUP7 PUSH2 0xD40 JUMP JUMPDEST SWAP1 POP PUSH1 0x64 DUP2 SGT ISZERO PUSH2 0xE22 JUMPI PUSH1 0x0 DUP1 REVERT JUMPDEST PUSH1 0x0 PUSH2 0xE32 DUP3 PUSH1 0x1 SWAP1 SHL DUP8 PUSH2 0xCD8 JUMP JUMPDEST SWAP1 POP PUSH1 0x0 PUSH2 0xE49 DUP9 PUSH2 0xE44 DUP6 DUP11 PUSH2 0xCD8 JUMP JUMPDEST PUSH2 0xC8D JUMP JUMPDEST SWAP1 POP PUSH1 0x0 PUSH2 0xE58 DUP9 PUSH1 0x2 PUSH2 0xD40 JUMP JUMPDEST SWAP1 POP PUSH1 0x0 JUMPDEST PUSH1 0x5 DUP2 LT ISZERO PUSH2 0xECE JUMPI DUP2 DUP4 SLT PUSH2 0xEAE JUMPI PUSH2 0xE77 DUP4 DUP4 PUSH2 0xC8D JUMP JUMPDEST SWAP3 POP PUSH2 0xEAB PUSH2 0xE9D DUP6 DUP9 DUP5 PUSH1 0x5 DUP2 LT PUSH2 0xE93 JUMPI PUSH2 0xE92 PUSH2 0x1B87 JUMP JUMPDEST JUMPDEST PUSH1 0x20 MUL ADD MLOAD PUSH2 0xCD8 JUMP JUMPDEST PUSH8 0xDE0B6B3A7640000 PUSH2 0xD40 JUMP JUMPDEST SWAP4 POP JUMPDEST PUSH2 0xEB9 DUP3 PUSH1 0x2 PUSH2 0xD40 JUMP JUMPDEST SWAP2 POP DUP1 DUP1 PUSH2 0xEC6 SWAP1 PUSH2 0x1A68 JUMP JUMPDEST SWAP2 POP POP PUSH2 0xE5D JUMP JUMPDEST POP DUP6 ISZERO PUSH2 0xEEB JUMPI PUSH2 0xEE8 PUSH2 0xEE2 DUP10 DUP11 PUSH2 0xCD8 JUMP JUMPDEST DUP5 PUSH2 0xD40 JUMP JUMPDEST SWAP3 POP JUMPDEST DUP3 SWAP7 POP POP POP POP POP POP POP SWAP3 SWAP2 POP POP JUMP JUMPDEST PUSH1 0x0 DUP1 DUP4 EQ ISZERO PUSH2 0xF0D JUMPI PUSH1 0x0 SWAP1 POP PUSH2 0xF39 JUMP JUMPDEST PUSH1 0x0 DUP3 DUP5 PUSH2 0xF1B SWAP2 SWAP1 PUSH2 0x1888 JUMP JUMPDEST SWAP1 POP DUP3 DUP5 DUP3 PUSH2 0xF2A SWAP2 SWAP1 PUSH2 0x15CF JUMP JUMPDEST EQ PUSH2 0xF34 JUMPI PUSH1 0x0 DUP1 REVERT JUMPDEST DUP1 SWAP2 POP POP JUMPDEST SWAP3 SWAP2 POP POP JUMP JUMPDEST PUSH1 0x0 DUP1 DUP3 GT PUSH2 0xF4D JUMPI PUSH1 0x0 DUP1 REVERT JUMPDEST PUSH1 0x0 DUP3 DUP5 PUSH2 0xF5B SWAP2 SWAP1 PUSH2 0x15CF JUMP JUMPDEST SWAP1 POP DUP1 SWAP2 POP POP SWAP3 SWAP2 POP POP JUMP JUMPDEST PUSH1 0x0 PUSH2 0xF73 DUP4 DUP4 PUSH2 0x10BD JUMP JUMPDEST ISZERO PUSH2 0xF81 JUMPI PUSH1 0x0 SWAP1 POP PUSH2 0x1083 JUMP JUMPDEST PUSH1 0x0 DUP3 SWAP1 POP PUSH1 0x0 PUSH2 0xFA8 PUSH2 0xFA2 DUP7 PUSH1 0x12 PUSH1 0xA PUSH2 0xF9D SWAP2 SWAP1 PUSH2 0x1653 JUMP JUMPDEST PUSH2 0xCD8 JUMP JUMPDEST DUP4 PUSH2 0xD40 JUMP JUMPDEST SWAP1 POP PUSH1 0x0 PUSH2 0xFBE DUP3 PUSH1 0x6 SLOAD PUSH1 0x7 SLOAD PUSH1 0x8 SLOAD PUSH2 0x2FE JUMP JUMPDEST SWAP1 POP PUSH2 0x107D PUSH2 0x106A PUSH1 0x0 DUP1 SLOAD SWAP1 PUSH2 0x100 EXP SWAP1 DIV PUSH20 0xFFFFFFFFFFFFFFFFFFFFFFFFFFFFFFFFFFFFFFFF AND PUSH20 0xFFFFFFFFFFFFFFFFFFFFFFFFFFFFFFFFFFFFFFFF AND PUSH4 0x18160DDD PUSH1 0x40 MLOAD DUP2 PUSH4 0xFFFFFFFF AND PUSH1 0xE0 SHL DUP2 MSTORE PUSH1 0x4 ADD PUSH1 0x20 PUSH1 0x40 MLOAD DUP1 DUP4 SUB DUP2 DUP7 DUP1 EXTCODESIZE ISZERO DUP1 ISZERO PUSH2 0x102C JUMPI PUSH1 0x0 DUP1 REVERT JUMPDEST POP GAS STATICCALL ISZERO DUP1 ISZERO PUSH2 0x1040 JUMPI RETURNDATASIZE PUSH1 0x0 DUP1 RETURNDATACOPY RETURNDATASIZE PUSH1 0x0 REVERT JUMPDEST POP POP POP POP PUSH1 0x40 MLOAD RETURNDATASIZE PUSH1 0x1F NOT PUSH1 0x1F DUP3 ADD AND DUP3 ADD DUP1 PUSH1 0x40 MSTORE POP DUP2 ADD SWAP1 PUSH2 0x1064 SWAP2 SWAP1 PUSH2 0x12F8 JUMP JUMPDEST DUP4 PUSH2 0xCD8 JUMP JUMPDEST PUSH1 0x12 PUSH1 0xA PUSH2 0x1078 SWAP2 SWAP1 PUSH2 0x1653 JUMP JUMPDEST PUSH2 0xD40 JUMP JUMPDEST SWAP4 POP POP POP POP JUMPDEST SWAP3 SWAP2 POP POP JUMP JUMPDEST PUSH1 0x0 PUSH1 0xFF PUSH1 0x1 SWAP1 SHL DUP3 EQ ISZERO PUSH2 0x109D JUMPI PUSH1 0x0 DUP1 REVERT JUMPDEST PUSH1 0x0 DUP3 SLT PUSH2 0x10AB JUMPI DUP2 PUSH2 0x10B6 JUMP JUMPDEST DUP2 PUSH2 0x10B5 SWAP1 PUSH2 0x1AB1 JUMP JUMPDEST JUMPDEST SWAP1 POP SWAP2 SWAP1 POP JUMP JUMPDEST PUSH1 0x0 DUP1 PUSH2 0x10E2 PUSH2 0x10CF DUP5 PUSH1 0x4 SLOAD PUSH2 0xEFA JUMP JUMPDEST PUSH1 0x12 PUSH1 0xA PUSH2 0x10DD SWAP2 SWAP1 PUSH2 0x1653 JUMP JUMPDEST PUSH2 0xF3F JUMP JUMPDEST SWAP1 POP DUP3 DUP5 LT ISZERO DUP1 ISZERO PUSH2 0x10FC JUMPI POP DUP1 PUSH2 0x10FA DUP6 DUP6 PUSH2 0x1123 JUMP JUMPDEST LT JUMPDEST DUP1 PUSH2 0x111A JUMPI POP DUP3 DUP5 LT DUP1 ISZERO PUSH2 0x1119 JUMPI POP DUP1 PUSH2 0x1117 DUP5 DUP7 PUSH2 0x1123 JUMP JUMPDEST LT JUMPDEST JUMPDEST SWAP2 POP POP SWAP3 SWAP2 POP POP JUMP JUMPDEST PUSH1 0x0 DUP3 DUP3 GT ISZERO PUSH2 0x1132 JUMPI PUSH1 0x0 DUP1 REVERT JUMPDEST PUSH1 0x0 DUP3 DUP5 PUSH2 0x1140 SWAP2 SWAP1 PUSH2 0x1976 JUMP JUMPDEST SWAP1 POP DUP1 SWAP2 POP POP SWAP3 SWAP2 POP POP JUMP JUMPDEST PUSH1 0x0 DUP2 MLOAD SWAP1 POP PUSH2 0x115B DUP2 PUSH2 0x1BC8 JUMP JUMPDEST SWAP3 SWAP2 POP POP JUMP JUMPDEST PUSH1 0x0 DUP2 CALLDATALOAD SWAP1 POP PUSH2 0x1170 DUP2 PUSH2 0x1BDF JUMP JUMPDEST SWAP3 SWAP2 POP POP JUMP JUMPDEST PUSH1 0x0 DUP2 CALLDATALOAD SWAP1 POP PUSH2 0x1185 DUP2 PUSH2 0x1BF6 JUMP JUMPDEST SWAP3 SWAP2 POP POP JUMP JUMPDEST PUSH1 0x0 DUP2 CALLDATALOAD SWAP1 POP PUSH2 0x119A DUP2 PUSH2 0x1C0D JUMP JUMPDEST SWAP3 SWAP2 POP POP JUMP JUMPDEST PUSH1 0x0 DUP2 CALLDATALOAD SWAP1 POP PUSH2 0x11AF DUP2 PUSH2 0x1C24 JUMP JUMPDEST SWAP3 SWAP2 POP POP JUMP JUMPDEST PUSH1 0x0 DUP2 MLOAD SWAP1 POP PUSH2 0x11C4 DUP2 PUSH2 0x1C24 JUMP JUMPDEST SWAP3 SWAP2 POP POP JUMP JUMPDEST PUSH1 0x0 DUP1 PUSH1 0x40 DUP4 DUP6 SUB SLT ISZERO PUSH2 0x11E1 JUMPI PUSH2 0x11E0 PUSH2 0x1BB6 JUMP JUMPDEST JUMPDEST PUSH1 0x0 PUSH2 0x11EF DUP6 DUP3 DUP7 ADD PUSH2 0x1161 JUMP JUMPDEST SWAP3 POP POP PUSH1 0x20 PUSH2 0x1200 DUP6 DUP3 DUP7 ADD PUSH2 0x11A0 JUMP JUMPDEST SWAP2 POP POP SWAP3 POP SWAP3 SWAP1 POP JUMP JUMPDEST PUSH1 0x0 PUSH1 0x20 DUP3 DUP5 SUB SLT ISZERO PUSH2 0x1220 JUMPI PUSH2 0x121F PUSH2 0x1BB6 JUMP JUMPDEST JUMPDEST PUSH1 0x0 PUSH2 0x122E DUP5 DUP3 DUP6 ADD PUSH2 0x1176 JUMP JUMPDEST SWAP2 POP POP SWAP3 SWAP2 POP POP JUMP JUMPDEST PUSH1 0x0 PUSH1 0x20 DUP3 DUP5 SUB SLT ISZERO PUSH2 0x124D JUMPI PUSH2 0x124C PUSH2 0x1BB6 JUMP JUMPDEST JUMPDEST PUSH1 0x0 PUSH2 0x125B DUP5 DUP3 DUP6 ADD PUSH2 0x118B JUMP JUMPDEST SWAP2 POP POP SWAP3 SWAP2 POP POP JUMP JUMPDEST PUSH1 0x0 DUP1 PUSH1 0x0 DUP1 PUSH1 0x80 DUP6 DUP8 SUB SLT ISZERO PUSH2 0x127E JUMPI PUSH2 0x127D PUSH2 0x1BB6 JUMP JUMPDEST JUMPDEST PUSH1 0x0 PUSH2 0x128C DUP8 DUP3 DUP9 ADD PUSH2 0x118B JUMP JUMPDEST SWAP5 POP POP PUSH1 0x20 PUSH2 0x129D DUP8 DUP3 DUP9 ADD PUSH2 0x118B JUMP JUMPDEST SWAP4 POP POP PUSH1 0x40 PUSH2 0x12AE DUP8 DUP3 DUP9 ADD PUSH2 0x118B JUMP JUMPDEST SWAP3 POP POP PUSH1 0x60 PUSH2 0x12BF DUP8 DUP3 DUP9 ADD PUSH2 0x118B JUMP JUMPDEST SWAP2 POP POP SWAP3 SWAP6 SWAP2 SWAP5 POP SWAP3 POP JUMP JUMPDEST PUSH1 0x0 PUSH1 0x20 DUP3 DUP5 SUB SLT ISZERO PUSH2 0x12E1 JUMPI PUSH2 0x12E0 PUSH2 0x1BB6 JUMP JUMPDEST JUMPDEST PUSH1 0x0 PUSH2 0x12EF DUP5 DUP3 DUP6 ADD PUSH2 0x11A0 JUMP JUMPDEST SWAP2 POP POP SWAP3 SWAP2 POP POP JUMP JUMPDEST PUSH1 0x0 PUSH1 0x20 DUP3 DUP5 SUB SLT ISZERO PUSH2 0x130E JUMPI PUSH2 0x130D PUSH2 0x1BB6 JUMP JUMPDEST JUMPDEST PUSH1 0x0 PUSH2 0x131C DUP5 DUP3 DUP6 ADD PUSH2 0x11B5 JUMP JUMPDEST SWAP2 POP POP SWAP3 SWAP2 POP POP JUMP JUMPDEST PUSH1 0x0 DUP1 PUSH1 0x40 DUP4 DUP6 SUB SLT ISZERO PUSH2 0x133C JUMPI PUSH2 0x133B PUSH2 0x1BB6 JUMP JUMPDEST JUMPDEST PUSH1 0x0 PUSH2 0x134A DUP6 DUP3 DUP7 ADD PUSH2 0x11B5 JUMP JUMPDEST SWAP3 POP POP PUSH1 0x20 PUSH2 0x135B DUP6 DUP3 DUP7 ADD PUSH2 0x114C JUMP JUMPDEST SWAP2 POP POP SWAP3 POP SWAP3 SWAP1 POP JUMP JUMPDEST PUSH2 0x136E DUP2 PUSH2 0x1A20 JUMP JUMPDEST DUP3 MSTORE POP POP JUMP JUMPDEST PUSH2 0x137D DUP2 PUSH2 0x1A32 JUMP JUMPDEST DUP3 MSTORE POP POP JUMP JUMPDEST PUSH2 0x138C DUP2 PUSH2 0x19EC JUMP JUMPDEST DUP3 MSTORE POP POP JUMP JUMPDEST PUSH2 0x139B DUP2 PUSH2 0x1A16 JUMP JUMPDEST DUP3 MSTORE POP POP JUMP JUMPDEST PUSH1 0x0 PUSH1 0x20 DUP3 ADD SWAP1 POP PUSH2 0x13B6 PUSH1 0x0 DUP4 ADD DUP5 PUSH2 0x1365 JUMP JUMPDEST SWAP3 SWAP2 POP POP JUMP JUMPDEST PUSH1 0x0 PUSH1 0x20 DUP3 ADD SWAP1 POP PUSH2 0x13D1 PUSH1 0x0 DUP4 ADD DUP5 PUSH2 0x1374 JUMP JUMPDEST SWAP3 SWAP2 POP POP JUMP JUMPDEST PUSH1 0x0 PUSH1 0x20 DUP3 ADD SWAP1 POP PUSH2 0x13EC PUSH1 0x0 DUP4 ADD DUP5 PUSH2 0x1383 JUMP JUMPDEST SWAP3 SWAP2 POP POP JUMP JUMPDEST PUSH1 0x0 PUSH1 0x20 DUP3 ADD SWAP1 POP PUSH2 0x1407 PUSH1 0x0 DUP4 ADD DUP5 PUSH2 0x1392 JUMP JUMPDEST SWAP3 SWAP2 POP POP JUMP JUMPDEST PUSH1 0x0 PUSH1 0x40 DUP3 ADD SWAP1 POP PUSH2 0x1422 PUSH1 0x0 DUP4 ADD DUP6 PUSH2 0x1392 JUMP JUMPDEST PUSH2 0x142F PUSH1 0x20 DUP4 ADD DUP5 PUSH2 0x1383 JUMP JUMPDEST SWAP4 SWAP3 POP POP POP JUMP JUMPDEST PUSH1 0x0 PUSH1 0x80 DUP3 ADD SWAP1 POP PUSH2 0x144B PUSH1 0x0 DUP4 ADD DUP8 PUSH2 0x1392 JUMP JUMPDEST PUSH2 0x1458 PUSH1 0x20 DUP4 ADD DUP7 PUSH2 0x1392 JUMP JUMPDEST PUSH2 0x1465 PUSH1 0x40 DUP4 ADD DUP6 PUSH2 0x1383 JUMP JUMPDEST PUSH2 0x1472 PUSH1 0x60 DUP4 ADD DUP5 PUSH2 0x1392 JUMP JUMPDEST SWAP6 SWAP5 POP POP POP POP POP JUMP JUMPDEST PUSH1 0x0 PUSH2 0x1486 DUP3 PUSH2 0x19EC JUMP JUMPDEST SWAP2 POP PUSH2 0x1491 DUP4 PUSH2 0x19EC JUMP JUMPDEST SWAP3 POP DUP2 PUSH32 0x7FFFFFFFFFFFFFFFFFFFFFFFFFFFFFFFFFFFFFFFFFFFFFFFFFFFFFFFFFFFFFFF SUB DUP4 SGT PUSH1 0x0 DUP4 SLT ISZERO AND ISZERO PUSH2 0x14CC JUMPI PUSH2 0x14CB PUSH2 0x1B29 JUMP JUMPDEST JUMPDEST DUP2 PUSH32 0x8000000000000000000000000000000000000000000000000000000000000000 SUB DUP4 SLT PUSH1 0x0 DUP4 SLT AND ISZERO PUSH2 0x1504 JUMPI PUSH2 0x1503 PUSH2 0x1B29 JUMP JUMPDEST JUMPDEST DUP3 DUP3 ADD SWAP1 POP SWAP3 SWAP2 POP POP JUMP JUMPDEST PUSH1 0x0 PUSH2 0x151A DUP3 PUSH2 0x1A16 JUMP JUMPDEST SWAP2 POP PUSH2 0x1525 DUP4 PUSH2 0x1A16 JUMP JUMPDEST SWAP3 POP DUP3 PUSH32 0xFFFFFFFFFFFFFFFFFFFFFFFFFFFFFFFFFFFFFFFFFFFFFFFFFFFFFFFFFFFFFFFF SUB DUP3 GT ISZERO PUSH2 0x155A JUMPI PUSH2 0x1559 PUSH2 0x1B29 JUMP JUMPDEST JUMPDEST DUP3 DUP3 ADD SWAP1 POP SWAP3 SWAP2 POP POP JUMP JUMPDEST PUSH1 0x0 PUSH2 0x1570 DUP3 PUSH2 0x19EC JUMP JUMPDEST SWAP2 POP PUSH2 0x157B DUP4 PUSH2 0x19EC JUMP JUMPDEST SWAP3 POP DUP3 PUSH2 0x158B JUMPI PUSH2 0x158A PUSH2 0x1B58 JUMP JUMPDEST JUMPDEST PUSH1 0x1 PUSH1 0x0 SUB DUP4 EQ PUSH32 0x8000000000000000000000000000000000000000000000000000000000000000 DUP4 EQ AND ISZERO PUSH2 0x15C4 JUMPI PUSH2 0x15C3 PUSH2 0x1B29 JUMP JUMPDEST JUMPDEST DUP3 DUP3 SDIV SWAP1 POP SWAP3 SWAP2 POP POP JUMP JUMPDEST PUSH1 0x0 PUSH2 0x15DA DUP3 PUSH2 0x1A16 JUMP JUMPDEST SWAP2 POP PUSH2 0x15E5 DUP4 PUSH2 0x1A16 JUMP JUMPDEST SWAP3 POP DUP3 PUSH2 0x15F5 JUMPI PUSH2 0x15F4 PUSH2 0x1B58 JUMP JUMPDEST JUMPDEST DUP3 DUP3 DIV SWAP1 POP SWAP3 SWAP2 POP POP JUMP JUMPDEST PUSH1 0x0 DUP1 DUP3 SWAP2 POP DUP4 SWAP1 POP JUMPDEST PUSH1 0x1 DUP6 GT ISZERO PUSH2 0x164A JUMPI DUP1 DUP7 DIV DUP2 GT ISZERO PUSH2 0x1626 JUMPI PUSH2 0x1625 PUSH2 0x1B29 JUMP JUMPDEST JUMPDEST PUSH1 0x1 DUP6 AND ISZERO PUSH2 0x1635 JUMPI DUP1 DUP3 MUL SWAP2 POP JUMPDEST DUP1 DUP2 MUL SWAP1 POP PUSH2 0x1643 DUP6 PUSH2 0x1BBB JUMP JUMPDEST SWAP5 POP PUSH2 0x160A JUMP JUMPDEST SWAP5 POP SWAP5 SWAP3 POP POP POP JUMP JUMPDEST PUSH1 0x0 PUSH2 0x165E DUP3 PUSH2 0x1A16 JUMP JUMPDEST SWAP2 POP PUSH2 0x1669 DUP4 PUSH2 0x1A16 JUMP JUMPDEST SWAP3 POP PUSH2 0x1696 PUSH32 0xFFFFFFFFFFFFFFFFFFFFFFFFFFFFFFFFFFFFFFFFFFFFFFFFFFFFFFFFFFFFFFFF DUP5 DUP5 PUSH2 0x169E JUMP JUMPDEST SWAP1 POP SWAP3 SWAP2 POP POP JUMP JUMPDEST PUSH1 0x0 DUP3 PUSH2 0x16AE JUMPI PUSH1 0x1 SWAP1 POP PUSH2 0x176A JUMP JUMPDEST DUP2 PUSH2 0x16BC JUMPI PUSH1 0x0 SWAP1 POP PUSH2 0x176A JUMP JUMPDEST DUP2 PUSH1 0x1 DUP2 EQ PUSH2 0x16D2 JUMPI PUSH1 0x2 DUP2 EQ PUSH2 0x16DC JUMPI PUSH2 0x170B JUMP JUMPDEST PUSH1 0x1 SWAP2 POP POP PUSH2 0x176A JUMP JUMPDEST PUSH1 0xFF DUP5 GT ISZERO PUSH2 0x16EE JUMPI PUSH2 0x16ED PUSH2 0x1B29 JUMP JUMPDEST JUMPDEST DUP4 PUSH1 0x2 EXP SWAP2 POP DUP5 DUP3 GT ISZERO PUSH2 0x1705 JUMPI PUSH2 0x1704 PUSH2 0x1B29 JUMP JUMPDEST JUMPDEST POP PUSH2 0x176A JUMP JUMPDEST POP PUSH1 0x20 DUP4 LT PUSH2 0x133 DUP4 LT AND PUSH1 0x4E DUP5 LT PUSH1 0xB DUP5 LT AND OR ISZERO PUSH2 0x1740 JUMPI DUP3 DUP3 EXP SWAP1 POP DUP4 DUP2 GT ISZERO PUSH2 0x173B JUMPI PUSH2 0x173A PUSH2 0x1B29 JUMP JUMPDEST JUMPDEST PUSH2 0x176A JUMP JUMPDEST PUSH2 0x174D DUP5 DUP5 DUP5 PUSH1 0x1 PUSH2 0x1600 JUMP JUMPDEST SWAP3 POP SWAP1 POP DUP2 DUP5 DIV DUP2 GT ISZERO PUSH2 0x1764 JUMPI PUSH2 0x1763 PUSH2 0x1B29 JUMP JUMPDEST JUMPDEST DUP2 DUP2 MUL SWAP1 POP JUMPDEST SWAP4 SWAP3 POP POP POP JUMP JUMPDEST PUSH1 0x0 PUSH2 0x177C DUP3 PUSH2 0x19EC JUMP JUMPDEST SWAP2 POP PUSH2 0x1787 DUP4 PUSH2 0x19EC JUMP JUMPDEST SWAP3 POP DUP3 PUSH32 0x7FFFFFFFFFFFFFFFFFFFFFFFFFFFFFFFFFFFFFFFFFFFFFFFFFFFFFFFFFFFFFFF DIV DUP3 GT PUSH1 0x0 DUP5 SGT PUSH1 0x0 DUP5 SGT AND AND ISZERO PUSH2 0x17C6 JUMPI PUSH2 0x17C5 PUSH2 0x1B29 JUMP JUMPDEST JUMPDEST DUP2 PUSH32 0x8000000000000000000000000000000000000000000000000000000000000000 SDIV DUP4 SLT PUSH1 0x0 DUP5 SLT PUSH1 0x0 DUP5 SGT AND AND ISZERO PUSH2 0x1803 JUMPI PUSH2 0x1802 PUSH2 0x1B29 JUMP JUMPDEST JUMPDEST DUP3 PUSH32 0x8000000000000000000000000000000000000000000000000000000000000000 SDIV DUP3 SLT PUSH1 0x0 DUP5 SGT PUSH1 0x0 DUP5 SLT AND AND ISZERO PUSH2 0x1840 JUMPI PUSH2 0x183F PUSH2 0x1B29 JUMP JUMPDEST JUMPDEST DUP3 PUSH32 0x7FFFFFFFFFFFFFFFFFFFFFFFFFFFFFFFFFFFFFFFFFFFFFFFFFFFFFFFFFFFFFFF SDIV DUP3 SLT PUSH1 0x0 DUP5 SLT PUSH1 0x0 DUP5 SLT AND AND ISZERO PUSH2 0x187D JUMPI PUSH2 0x187C PUSH2 0x1B29 JUMP JUMPDEST JUMPDEST DUP3 DUP3 MUL SWAP1 POP SWAP3 SWAP2 POP POP JUMP JUMPDEST PUSH1 0x0 PUSH2 0x1893 DUP3 PUSH2 0x1A16 JUMP JUMPDEST SWAP2 POP PUSH2 0x189E DUP4 PUSH2 0x1A16 JUMP JUMPDEST SWAP3 POP DUP2 PUSH32 0xFFFFFFFFFFFFFFFFFFFFFFFFFFFFFFFFFFFFFFFFFFFFFFFFFFFFFFFFFFFFFFFF DIV DUP4 GT DUP3 ISZERO ISZERO AND ISZERO PUSH2 0x18D7 JUMPI PUSH2 0x18D6 PUSH2 0x1B29 JUMP JUMPDEST JUMPDEST DUP3 DUP3 MUL SWAP1 POP SWAP3 SWAP2 POP POP JUMP JUMPDEST PUSH1 0x0 PUSH2 0x18ED DUP3 PUSH2 0x19EC JUMP JUMPDEST SWAP2 POP PUSH2 0x18F8 DUP4 PUSH2 0x19EC JUMP JUMPDEST SWAP3 POP DUP3 PUSH32 0x8000000000000000000000000000000000000000000000000000000000000000 ADD DUP3 SLT PUSH1 0x0 DUP5 SLT ISZERO AND ISZERO PUSH2 0x1933 JUMPI PUSH2 0x1932 PUSH2 0x1B29 JUMP JUMPDEST JUMPDEST DUP3 PUSH32 0x7FFFFFFFFFFFFFFFFFFFFFFFFFFFFFFFFFFFFFFFFFFFFFFFFFFFFFFFFFFFFFFF ADD DUP3 SGT PUSH1 0x0 DUP5 SLT AND ISZERO PUSH2 0x196B JUMPI PUSH2 0x196A PUSH2 0x1B29 JUMP JUMPDEST JUMPDEST DUP3 DUP3 SUB SWAP1 POP SWAP3 SWAP2 POP POP JUMP JUMPDEST PUSH1 0x0 PUSH2 0x1981 DUP3 PUSH2 0x1A16 JUMP JUMPDEST SWAP2 POP PUSH2 0x198C DUP4 PUSH2 0x1A16 JUMP JUMPDEST SWAP3 POP DUP3 DUP3 LT ISZERO PUSH2 0x199F JUMPI PUSH2 0x199E PUSH2 0x1B29 JUMP JUMPDEST JUMPDEST DUP3 DUP3 SUB SWAP1 POP SWAP3 SWAP2 POP POP JUMP JUMPDEST PUSH1 0x0 PUSH2 0x19B5 DUP3 PUSH2 0x19F6 JUMP JUMPDEST SWAP1 POP SWAP2 SWAP1 POP JUMP JUMPDEST PUSH1 0x0 DUP2 ISZERO ISZERO SWAP1 POP SWAP2 SWAP1 POP JUMP JUMPDEST PUSH1 0x0 PUSH2 0x19D3 DUP3 PUSH2 0x19AA JUMP JUMPDEST SWAP1 POP SWAP2 SWAP1 POP JUMP JUMPDEST PUSH1 0x0 PUSH2 0x19E5 DUP3 PUSH2 0x19AA JUMP JUMPDEST SWAP1 POP SWAP2 SWAP1 POP JUMP JUMPDEST PUSH1 0x0 DUP2 SWAP1 POP SWAP2 SWAP1 POP JUMP JUMPDEST PUSH1 0x0 PUSH20 0xFFFFFFFFFFFFFFFFFFFFFFFFFFFFFFFFFFFFFFFF DUP3 AND SWAP1 POP SWAP2 SWAP1 POP JUMP JUMPDEST PUSH1 0x0 DUP2 SWAP1 POP SWAP2 SWAP1 POP JUMP JUMPDEST PUSH1 0x0 PUSH2 0x1A2B DUP3 PUSH2 0x1A44 JUMP JUMPDEST SWAP1 POP SWAP2 SWAP1 POP JUMP JUMPDEST PUSH1 0x0 PUSH2 0x1A3D DUP3 PUSH2 0x1A44 JUMP JUMPDEST SWAP1 POP SWAP2 SWAP1 POP JUMP JUMPDEST PUSH1 0x0 PUSH2 0x1A4F DUP3 PUSH2 0x1A56 JUMP JUMPDEST SWAP1 POP SWAP2 SWAP1 POP JUMP JUMPDEST PUSH1 0x0 PUSH2 0x1A61 DUP3 PUSH2 0x19F6 JUMP JUMPDEST SWAP1 POP SWAP2 SWAP1 POP JUMP JUMPDEST PUSH1 0x0 PUSH2 0x1A73 DUP3 PUSH2 0x1A16 JUMP JUMPDEST SWAP2 POP PUSH32 0xFFFFFFFFFFFFFFFFFFFFFFFFFFFFFFFFFFFFFFFFFFFFFFFFFFFFFFFFFFFFFFFF DUP3 EQ ISZERO PUSH2 0x1AA6 JUMPI PUSH2 0x1AA5 PUSH2 0x1B29 JUMP JUMPDEST JUMPDEST PUSH1 0x1 DUP3 ADD SWAP1 POP SWAP2 SWAP1 POP JUMP JUMPDEST PUSH1 0x0 PUSH2 0x1ABC DUP3 PUSH2 0x19EC JUMP JUMPDEST SWAP2 POP PUSH32 0x8000000000000000000000000000000000000000000000000000000000000000 DUP3 EQ ISZERO PUSH2 0x1AEF JUMPI PUSH2 0x1AEE PUSH2 0x1B29 JUMP JUMPDEST JUMPDEST DUP2 PUSH1 0x0 SUB SWAP1 POP SWAP2 SWAP1 POP JUMP JUMPDEST PUSH32 0x4E487B7100000000000000000000000000000000000000000000000000000000 PUSH1 0x0 MSTORE PUSH1 0x1 PUSH1 0x4 MSTORE PUSH1 0x24 PUSH1 0x0 REVERT JUMPDEST PUSH32 0x4E487B7100000000000000000000000000000000000000000000000000000000 PUSH1 0x0 MSTORE PUSH1 0x11 PUSH1 0x4 MSTORE PUSH1 0x24 PUSH1 0x0 REVERT JUMPDEST PUSH32 0x4E487B7100000000000000000000000000000000000000000000000000000000 PUSH1 0x0 MSTORE PUSH1 0x12 PUSH1 0x4 MSTORE PUSH1 0x24 PUSH1 0x0 REVERT JUMPDEST PUSH32 0x4E487B7100000000000000000000000000000000000000000000000000000000 PUSH1 0x0 MSTORE PUSH1 0x32 PUSH1 0x4 MSTORE PUSH1 0x24 PUSH1 0x0 REVERT JUMPDEST PUSH1 0x0 DUP1 REVERT JUMPDEST PUSH1 0x0 DUP2 PUSH1 0x1 SHR SWAP1 POP SWAP2 SWAP1 POP JUMP JUMPDEST PUSH2 0x1BD1 DUP2 PUSH2 0x19BC JUMP JUMPDEST DUP2 EQ PUSH2 0x1BDC JUMPI PUSH1 0x0 DUP1 REVERT JUMPDEST POP JUMP JUMPDEST PUSH2 0x1BE8 DUP2 PUSH2 0x19C8 JUMP JUMPDEST DUP2 EQ PUSH2 0x1BF3 JUMPI PUSH1 0x0 DUP1 REVERT JUMPDEST POP JUMP JUMPDEST PUSH2 0x1BFF DUP2 PUSH2 0x19DA JUMP JUMPDEST DUP2 EQ PUSH2 0x1C0A JUMPI PUSH1 0x0 DUP1 REVERT JUMPDEST POP JUMP JUMPDEST PUSH2 0x1C16 DUP2 PUSH2 0x19EC JUMP JUMPDEST DUP2 EQ PUSH2 0x1C21 JUMPI PUSH1 0x0 DUP1 REVERT JUMPDEST POP JUMP JUMPDEST PUSH2 0x1C2D DUP2 PUSH2 0x1A16 JUMP JUMPDEST DUP2 EQ PUSH2 0x1C38 JUMPI PUSH1 0x0 DUP1 REVERT JUMPDEST POP JUMP INVALID LOG2 PUSH5 0x6970667358 0x22 SLT KECCAK256 LOG2 PUSH9 0x477565D2245838E11E CODESIZE 0xB3 0xE5 0x4A PUSH32 0xDA01963EC568880DDAB160FEA849878F64736F6C634300080700330000000000 "
		},
		"gasEstimates": {
			"creation": {
				"codeDepositCost": "1456200",
				"executionCost": "1520",
				"totalCost": "1457720"
			},
			"external": {
				"cmmd()": "2665",
				"computeRebasePercentage(int256,int256,int256,int256)": "infinite",
				"cpiOracle()": "2689",
				"deviationThreshold()": "2495",
				"epoch()": "2452",
				"initialize(address,uint256)": "infinite",
				"marketOracle()": "2645",
				"rebase()": "infinite",
				"rebaseFunctionGrowth()": "2496",
				"rebaseFunctionLowerPercentage()": "2452",
				"rebaseFunctionUpperPercentage()": "2474",
				"setCpiOracle(address)": "24811",
				"setDeviationThreshold(uint256)": "22610",
				"setMarketOracle(address)": "24832",
				"setRebaseFunctionGrowth(int256)": "22635",
				"setRebaseFunctionLowerPercentage(int256)": "22634",
				"setRebaseFunctionUpperPercentage(int256)": "22656"
			},
			"internal": {
				"computeSupplyDelta(uint256,uint256)": "infinite",
				"withinDeviationThreshold(uint256,uint256)": "infinite"
			}
		},
		"methodIdentifiers": {
			"cmmd()": "4dafa35e",
			"computeRebasePercentage(int256,int256,int256,int256)": "3a785af1",
			"cpiOracle()": "ab33c5ca",
			"deviationThreshold()": "d94ad837",
			"epoch()": "900cf0cf",
			"initialize(address,uint256)": "cd6dc687",
			"marketOracle()": "60961528",
			"rebase()": "af14052c",
			"rebaseFunctionGrowth()": "7486cdea",
			"rebaseFunctionLowerPercentage()": "5ee01540",
			"rebaseFunctionUpperPercentage()": "9db59b2f",
			"setCpiOracle(address)": "3d6a46e5",
			"setDeviationThreshold(uint256)": "53a15edc",
			"setMarketOracle(address)": "9e30bac5",
			"setRebaseFunctionGrowth(int256)": "8001066d",
			"setRebaseFunctionLowerPercentage(int256)": "e9fa88a4",
			"setRebaseFunctionUpperPercentage(int256)": "f4fefa49"
		}
	},
	"abi": [
		{
			"anonymous": false,
			"inputs": [
				{
					"indexed": true,
					"internalType": "uint256",
					"name": "epoch",
					"type": "uint256"
				},
				{
					"indexed": false,
					"internalType": "uint256",
					"name": "exchangeRate",
					"type": "uint256"
				},
				{
					"indexed": false,
					"internalType": "uint256",
					"name": "cpi",
					"type": "uint256"
				},
				{
					"indexed": false,
					"internalType": "int256",
					"name": "requestedSupplyAdjustment",
					"type": "int256"
				},
				{
					"indexed": false,
					"internalType": "uint256",
					"name": "timestampSec",
					"type": "uint256"
				}
			],
			"name": "LogRebase",
			"type": "event"
		},
		{
			"inputs": [],
			"name": "cmmd",
			"outputs": [
				{
					"internalType": "contract ICMMD",
					"name": "",
					"type": "address"
				}
			],
			"stateMutability": "view",
			"type": "function"
		},
		{
			"inputs": [
				{
					"internalType": "int256",
					"name": "normalizedRate",
					"type": "int256"
				},
				{
					"internalType": "int256",
					"name": "lower",
					"type": "int256"
				},
				{
					"internalType": "int256",
					"name": "upper",
					"type": "int256"
				},
				{
					"internalType": "int256",
					"name": "growth",
					"type": "int256"
				}
			],
			"name": "computeRebasePercentage",
			"outputs": [
				{
					"internalType": "int256",
					"name": "",
					"type": "int256"
				}
			],
			"stateMutability": "pure",
			"type": "function"
		},
		{
			"inputs": [],
			"name": "cpiOracle",
			"outputs": [
				{
					"internalType": "contract IOracle",
					"name": "",
					"type": "address"
				}
			],
			"stateMutability": "view",
			"type": "function"
		},
		{
			"inputs": [],
			"name": "deviationThreshold",
			"outputs": [
				{
					"internalType": "uint256",
					"name": "",
					"type": "uint256"
				}
			],
			"stateMutability": "view",
			"type": "function"
		},
		{
			"inputs": [],
			"name": "epoch",
			"outputs": [
				{
					"internalType": "uint256",
					"name": "",
					"type": "uint256"
				}
			],
			"stateMutability": "view",
			"type": "function"
		},
		{
			"inputs": [
				{
					"internalType": "contract ICMMD",
					"name": "cmmd_",
					"type": "address"
				},
				{
					"internalType": "uint256",
					"name": "baseCpi_",
					"type": "uint256"
				}
			],
			"name": "initialize",
			"outputs": [],
			"stateMutability": "nonpayable",
			"type": "function"
		},
		{
			"inputs": [],
			"name": "marketOracle",
			"outputs": [
				{
					"internalType": "contract IOracle",
					"name": "",
					"type": "address"
				}
			],
			"stateMutability": "view",
			"type": "function"
		},
		{
			"inputs": [],
			"name": "rebase",
			"outputs": [],
			"stateMutability": "nonpayable",
			"type": "function"
		},
		{
			"inputs": [],
			"name": "rebaseFunctionGrowth",
			"outputs": [
				{
					"internalType": "int256",
					"name": "",
					"type": "int256"
				}
			],
			"stateMutability": "view",
			"type": "function"
		},
		{
			"inputs": [],
			"name": "rebaseFunctionLowerPercentage",
			"outputs": [
				{
					"internalType": "int256",
					"name": "",
					"type": "int256"
				}
			],
			"stateMutability": "view",
			"type": "function"
		},
		{
			"inputs": [],
			"name": "rebaseFunctionUpperPercentage",
			"outputs": [
				{
					"internalType": "int256",
					"name": "",
					"type": "int256"
				}
			],
			"stateMutability": "view",
			"type": "function"
		},
		{
			"inputs": [
				{
					"internalType": "contract IOracle",
					"name": "cpiOracle_",
					"type": "address"
				}
			],
			"name": "setCpiOracle",
			"outputs": [],
			"stateMutability": "nonpayable",
			"type": "function"
		},
		{
			"inputs": [
				{
					"internalType": "uint256",
					"name": "deviationThreshold_",
					"type": "uint256"
				}
			],
			"name": "setDeviationThreshold",
			"outputs": [],
			"stateMutability": "nonpayable",
			"type": "function"
		},
		{
			"inputs": [
				{
					"internalType": "contract IOracle",
					"name": "marketOracle_",
					"type": "address"
				}
			],
			"name": "setMarketOracle",
			"outputs": [],
			"stateMutability": "nonpayable",
			"type": "function"
		},
		{
			"inputs": [
				{
					"internalType": "int256",
					"name": "rebaseFunctionGrowth_",
					"type": "int256"
				}
			],
			"name": "setRebaseFunctionGrowth",
			"outputs": [],
			"stateMutability": "nonpayable",
			"type": "function"
		},
		{
			"inputs": [
				{
					"internalType": "int256",
					"name": "rebaseFunctionLowerPercentage_",
					"type": "int256"
				}
			],
			"name": "setRebaseFunctionLowerPercentage",
			"outputs": [],
			"stateMutability": "nonpayable",
			"type": "function"
		},
		{
			"inputs": [
				{
					"internalType": "int256",
					"name": "rebaseFunctionUpperPercentage_",
					"type": "int256"
				}
			],
			"name": "setRebaseFunctionUpperPercentage",
			"outputs": [],
			"stateMutability": "nonpayable",
			"type": "function"
		}
	]
}